:020000040000fa
:080000000001040000000000f3
:020000040000fa
:100008000c250000b8240000d0240000e4240000df
:10001800f82400000c2500000c2500000c25000029
:100028000c2500000c2500000c25000030230000e2
:100038000c2500000c2500000c2500000c250000f4
:100048000c2500005a3200008a320000a22300006a
:100058000c2500000c2500000c2500000c250000d4
:10006800aa2200000c2500000c2500000c25000029
:100078000c2500000c2500000c2500000c250000b4
:100088000c2500000c2500000c2500000c250000a4
:100098000c2500000c2500000c2500000c25000094
:1000a8000c2500000c2500000c2500000c25000084
:1000b8000c2500000c2500000c2500000c25000074
:1000c8000c2500000c250000a22400000c250000cf
:1000d8000c2500000c2500000c2500000c25000054
:1000e8000c2500000c2500000c2500000c25000044
:0800f8000c2500000c2500009e
:020000040000fa
:100108000c250000b8240000d0240000e4240000de
:10011800f82400000c2500000c2500000c25000028
:100128000c2500000c2500000c25000030230000e1
:100138000c2500000c2500000c2500000c250000f3
:100148000c2500005a3200008a320000a223000069
:100158000c2500000c2500000c2500000c250000d3
:10016800aa2200000c2500000c2500000c25000028
:100178000c2500000c2500000c2500000c250000b3
:100188000c2500000c2500000c2500000c250000a3
:100198000c2500000c2500000c2500000c25000093
:1001a8000c2500000c2500000c2500000c25000083
:1001b8000c2500000c2500000c2500000c25000073
:1001c8000c2500000c250000a22400000c250000ce
:1001d8000c2500000c2500000c2500000c25000053
:1001e8000c2500000c2500000c2500000c25000043
:0801f8000c2500000c2500009d
:020000040000fa
:100200000f0022000e7f22000e0188000000000077
:1002100000012000200288000c000700c08a240092
:10022000010020001f000700000020000000e00087
:10023000020032000000020000000000c244020080
:10024000000000000040da000000fe004440a90069
:10025000000820000000e000030032000000200041
:10026000a00188004440a80000000600f03fb10053
:100270000180b10006003500ee0309000000000017
:10028000403fb1000180b100fbff3d001000b00015
:10029000203fb0000200350000800900000000008f
:1002a0000000060091018800800078000000eb004b
:1002b00015003700e280400032a0b4009101ba007e
:1002c000e280400032a0b4009102ba00e280400017
:1002d00032a0b4000002eb00472bde00f507b200ad
:1002e000602ce10004003a000059eb008301e900b2
:1002f000fdff3e00040037006128e10001003200ec
:100300000082eb00040007001101ba000200e000c7
:10031000e8ff3a00000006003159ba008301e90005
:100320000c0032002159ba008301e90008003200b4
:100330000400e00003003a00e280400032a0b40074
:10034000f5ff370011d9ba008301e900faff3a003e
:100350008100e800e180400032a0b4000000060007
:100360003200f800910188008002780062004000ad
:10037000e08048003549ba003204e0000410a700cc
:10038000100032008301e9000e0032002549ba0056
:100390003204e0000410a7000a0032008301e900e3
:1003a000080032000408a300eeff320015c9ba00ad
:1003b0003204e0000410a700020032008301e900cb
:1003c000e8ff3a003200f900000006003200f800b1
:1003d000910188000008bb00410424006210e10084
:1003e00004003200000220000010e1000a003a0080
:1003f00051042400013b88000500fc005105200049
:10040000313b8800a10a2000313b880061e7a80049
:1004100000000000000000003200f90000000600ab
:100420003200f80060042400003b8800f2ff37002f
:100430003200f8009101880041002400013b88004f
:100440000208bb00ecff37003200f8009101880081
:1004500051002400013b8800030120003218bb003a
:100460008301e900fdff3a00e3ff37006022b80096
:10047000060220000000d0008180d2000482d20059
:100480008582d2000000a0000202520083825a003e
:10049000030031000202420083824a000000a100f2
:1004a0000603e900f3ff3a0000000600881f780009
:1004b0008a1f78004400f800080f200028028800f6
:1004c0000004900010059000a00090003001900002
:1004d000c00190000300ca000280ca000030cb00b7
:1004e0001a00cd004604c3000100ca004604c00043
:1004f0001e04c0000605c0000100cd0021009800c8
:10050000050d7800eaba9700052578004400f90047
:100510004f0578004f04780000000600801f780027
:100520004000b0000008eb004f007800801f78000a
:10053000100090000018eb000018eb000008eb0022
:100540004f007800000006004400f800020f200071
:1005500022028800910078003000ca003080ca0072
:100560000000cb002080ca000000cb003100cd008d
:100570004000ca000000cb000000cb000010cb0000
:100580003100cd001180cc004400f90000000600cd
:100590001011880001118800000006004011880039
:0805a000311188000000060083
:020000040000fa
:1005a80064000000630000006300000062000000b7
:1005b8006200000061000000600000005f000000b1
:1005c8005e0000005e0000005d0000005c000000ae
:1005d8005b0000005a0000005900000058000000ad
:1005e80057000000560000005400000053000000af
:1005f80052000000510000004f0000004e000000b3
:100608004d0000004b0000004a00000048000000b8
:1006180047000000450000004300000042000000c1
:10062800400000003e0000003d0000003b000000cc
:1006380039000000370000003500000033000000da
:10064800310000002f0000002d0000002b000000ea
:1006580029000000270000002500000023000000fa
:10066800200000001e0000001c000000190000000f
:100678001700000015000000120000001000000024
:100688000d0000000a00000008000000050000003e
:10069800030000000000000000000000000000004f
:020000040000fa
:1006a8000400fa00c4812000144278000482fb0090
:1006b80045032000850f5200140132004503200035
:1006c800850f52000d003c00e60f52002e0032004c
:1006d800e60f520003003c00e40f52001b003200fa
:1006e80014023700f40f5200760032004502200051
:1006f800850f52008c0032000e023700050a2000d8
:10070800850f520008023200050a2000850f5200aa
:1007180007003c0055032000850f520036013200c7
:1007280045042000850f52006a013200010237009b
:10073800450a2000850f5200c8013200850a2000b2
:10074800850f5200d6013200fa013700ff01070079
:100758003d0607004d070700e71b07000002780069
:10076800e00f52000400320004cab30004407800cd
:100778001ce8b700f301370044c1b3000440780017
:100788001ce8b700ef0137001517800004022000ad
:100798000482620004f0a7000402ea000402e900ef
:1007a8004f22de00044278000482fb0061026200ee
:1007b8004522dd0016178000f5fd2f008502630035
:1007c8000482720014178800e001070015178000e2
:1007d800040220000482620004f0a7000402ea0078
:1007e8000402e9004f22de00044278000482fb0084
:1007f800610262004522dd0016178000f5fd2f001a
:100808008502630004827200141788006f060700cf
:1008180015178000040220000482620004f0a7007b
:100828000402ea000402e9004f22de0004427800d4
:100838000482fb00610262004522dd001617800079
:10084800f5fd2f00850263000482720014178800ea
:100858000e070700151780000402200004826200ba
:1008680004f0a7000402ea000402e9004f22de00b7
:10087800044278000482fb00610262004522dd0028
:1008880016178000f5fd2f008502630004827200b0
:1008980014178800981b070000027800e00f520028
:1008a8000400320004cab300044078001ce8b70012
:1008b800a401370044c4b300044078001ce8b70022
:1008c800a0013700e80c070012003700c60807002f
:1008d800c31007008d1b070000027800e00f5200cc
:1008e8000400320044cab300044078001ce8b70092
:1008f80008003700151680000400240004826200f6
:10090800e00f520003003a0044c2b30004407800ec
:100918001ce8b700c481200014427800f44f52004c
:10092800eaff320087013700010d07000002eb00e3
:10093800040f78000002eb0094c388006d003700b4
:10094800a9080700a610070000000000000000002a
:1009580000000000250480000404200004826200d6
:10096800e00f52002f0032001e0fe80084c0a900db
:10097800351780000400210004826200e00f520055
:100988000300320094c38000e10f520011003a00c6
:10099800a20020009e00780060aa20000c07070033
:1009a800a20020009e007800c0a4200008070700cd
:1009b800a20020009e00780000b020000407070075
:1009c800a20020009e007800a0b5200000070700c4
:1009d8001400370034558000040178009e00780028
:1009e80060aa2000fa06070064528000040178001b
:1009f8009e007800c0a42000f50607000458800077
:100a0800040178009e00780000b02000f00607007e
:100a1800d45a8000040178009e007800a0b5200018
:100a2800eb060700391b070000027800e00f5200b0
:100a38000400320044cab300044078001ce8b70040
:100a48002c00370015168000040024000482620080
:100a5800e00f52000400320044c1b30004407800a3
:100a68001ce8b70023003700847020009e0278003d
:100a7800848f520007003600a518070044c3b3004e
:100a8800044078001ce8b7000002eb0094c388001b
:100a98001800370035178000040021000482620026
:100aa800e00f52000a003a001e027800f40f5200cc
:100ab800070036009618070044c3b30004407800c6
:100ac8001ce8b7000002eb0094c388000900370057
:100ad80094c38000e10f520006003a008c1807000a
:100ae80044c3b300044078001ce8b7000002eb00e0
:100af80094c38800c58120009542780044c2b300a1
:100b080084cf52008eff32000e0137007e0c0700a2
:100b18004206200041062000408e2000ac06070057
:100b2800420620004106200080992000a806070000
:100b3800420620004106200060aa2000a406070003
:100b48004206200041062000c0a42000a00607009d
:100b58004206200041062000a0b520009c060700a0
:100b6800420620004106200000b020009806070039
:100b78001b0037001c08070019100700e31a0700bc
:100b880000027800e00f52000400320084cab3006b
:100b9800044078001ce8b7001100370015168000e3
:100ba8000400240004826200e00f520004003200b6
:100bb80044c1b300044078001ce8b70008003700bf
:100bc800151680000400280004826200e00f52001d
:100bd80003003a0054c3b300044078001ce8b7008f
:100be800c58120009542780044c3b30084cf5200e9
:100bf800e0ff3200d30037000002eb001407980032
:100c0800c522a9002d003700f7070700f40f0700d9
:100c1800250480000404200004826200e00f5200d2
:100c28000400320084c0a9001e0290000402e800fb
:100c380014079800b51a070000027800e00f520068
:100c48000400320084cab300044078001ce8b700ee
:100c58001a00370015168000040024000482620080
:100c6800e00f52000400320044c1b3000440780091
:100c78001ce8b70011003700151680000400280092
:100c880004826200e00f52000400320044c3b30043
:100c9800044078001ce8b700080037009e02900066
:100ca80014032000848f52000400360044c4b300ab
:100cb800044078001ce8b700ea0c0700c581200052
:100cc8009542780054c3b30084cf5200ceff32005f
:100cd8009c0037000002eb00244188000002eb0072
:100ce800444188000002eb00344188000002eb0018
:100cf800f4c488006022b800a4c48800b5c4880081
:100d08000042eb0004407800b6f6b7008c60a800fb
:100d18004c003700c4002000c4c48800b207070094
:100d2800af0f0700646b210014427800e04f5200b7
:100d380028003200b4002000c4c48800a4c4800085
:100d4800b5c4800061024200e0824a00a4c4880061
:100d5800b5c48800248821003400be002401be00e8
:100d680014002000050020006033b8000002420093
:100d780081824a0002034b0083834b0020882100b4
:100d88000498be000690be00d44080000402e8002b
:100d9800d440880026090700846b2100144278009b
:100da80004407800f6170700946b2100144278007d
:100db80004407800b8f6b7004f0707000002eb00c0
:100dc8003408880084c0a9000042eb000440780081
:100dd800b6f6b7004d1a070000027800e00f52007f
:100de800050032004e0b070084cab30004407800a7
:100df8001ce8b70013003700151680000400240013
:100e080004826200e00f520005003200440b070024
:100e180044c1b300044078001ce8b700090037005b
:100e2800151680000400280004826200e00f5200ba
:100e3800040032003a0b070044c3b30004407800b2
:100e48001ce8b700c58120009542780044c4b3006f
:100e580084cf5200afff32003a003700820b070000
:100e680009003700600707005d0f0700271a070011
:100e780000027800e00f520003003a0044c1b300ba
:100e8800044078001ce8b700c5812000954278002e
:100e980044cab30084cf5200f2ff32002900370061
:100ea800990b07001a0037004f0707004c0f07007f
:100eb800211a070000027800e00f520004003200f7
:100ec80044cab300044078001ce8b700100037009b
:100ed800151680000400240004826200e00f52000e
:100ee8000400320044cab300044078001ce8b7008c
:100ef80007003700051a070000027800e00f5200cb
:100f080003003a0044c3b300044078001ce8b7006b
:100f1800c58120009542780084cab30084cf52006e
:100f2800e1ff3200070037002f0707002c0f0700ea
:100f3800fdff370004cab300044078001ce8b7007e
:100f4800000000000080fa00000006000200fa001d
:100f5800c4c48000744088000002eb00c4c4880048
:100f68000002eb0034c28800043a8000610262008b
:100f7800e00f52000300320034c280000440a00099
:100f880034c28800053a8000040820000482620008
:100f9800e00f52000400320035c280000402200035
:100fa8000482720034c28800053a800004042000dc
:100fb80004826200e00f52000400320035c2800053
:100fc800040420000482720034c28800043a8000bd
:100fd80062026200e00f52000300320034c2800057
:100fe8000400a00034c28800053a800004002800ec
:100ff80004826200e00f52000300320034c2800015
:101008000410a00034c28800043a80007002620014
:10101800e00f52000300320034c280000420a00018
:1010280034c28800053a800004002400048262006b
:10103800e00f52000300320034c280000430a000e8
:1010480034c288000002eb0094c188000002eb0063
:10105800a4c188000002eb00b4c188000002eb00c4
:10106800c4c188000002eb00d4c188000002eb0074
:10107800e4c188000002eb00f4c188000002eb0024
:1010880004c288000002eb0014c288000002eb00d2
:1010980024c2880064802000f4418800a4ff210055
:1010a80004428800e08320001afd0700f42820008d
:1010b800e4c38800d4a32000f4c38800d4a320008c
:1010c80004c48800e1832000c08721001cfd0700bc
:1010d80004802000a441880044ff2100b441880016
:1010e800408320000bfd0700f4282000b4c38800cb
:1010f800d4a32000c4c38800d4a32000d4c388008c
:1011080041832000608721000dfd07000060fe007c
:10111800440620006452880004d0270094528800b6
:1011280071322a000080eb00ec0b07000002780007
:10113800b452880084b68000c452880094b68000f7
:10114800d452880061ae2a000080eb00e30b070050
:1011580000027800f4528800a4b680000453880086
:10116800b4b6800014538800f452800084007800dc
:1011780000532700140c070000027800245388004d
:101188000100220000802200d40b07000002780032
:10119800545388000100220000002100cf0b0700f3
:1011a8000002780064538800843e2000745388004d
:1011b8002403200084538800841a2600f4538800ee
:1011c80071322a000080eb00c40b0700000278008f
:1011d80014548800d4b6800024548800e4b68000f3
:1011e8003454880061ae2a000080eb00bb0b070076
:1011f8000002780054548800f4b6800064548800d3
:1012080004b7800074548800545480008400780027
:1012180000592600ec0b070000027800845488006f
:101228000100220030332200ac0b070000027800d6
:10123800b454880001002200c0cc2100a70b07008d
:1012480000027800c454880004fa2000d4548800ae
:1012580024032000e4548800c4b680008402780087
:1012680074b680000501780084007800c0a42000ce
:10127800a5040700842520003455880004dc2500d7
:101288006455880021eb26000080eb00930b0700d3
:101298000002780084558800a4b78000945588001f
:1012a800b4b78000a4558800c1b02a000080eb00c4
:1012b8008a0b070000027800c4558800c4b7800074
:1012c800d4558800d4b78000e4558800c455800000
:1012d80084007800801a2600bb0b07000002780003
:1012e800f455880001002200008022007b0b0700d3
:1012f80000027800245688000100220000802100a6
:10130800760b0700000278003456880004fa2000a3
:1013180044568800840c20005456880004dc2500bc
:10132800c45688008080eb000080eb006b0b070040
:1013380000027800e4568800f4b78000f45688006c
:1013480004b8800004578800c10428000080eb001e
:10135800620b0700000278002457880014b8800048
:101368003457880024b880004457880024578000e8
:1013780084007800802c2300930b0700000278007b
:10138800545788000100220000002400530b070076
:101398000002780084578800010022000000210024
:1013a8004e0b0700000278009457880004fa2000ca
:1013b800a4578800840c2000b4578800e4b7800044
:1013c8008402780094b780000501780084007800d2
:1013d80060aa20004c04070084702000045888008c
:1013e800c4a22100345888008000eb000080eb0084
:1013f8003a0b07000002780054588800c4b88000ef
:1014080064588800d4b8800074588800215e290088
:101418000080eb00310b0700000278009458880028
:10142800e4b88000a4588800f4b88000b458880054
:10143800945880008400780000c22100620b0700e5
:1014480000027800c4588800010022009019220088
:10145800220b070000027800f458880001002200df
:1014680060e621001d0b070000027800045988007f
:10147800843e200014598800441f20002459880005
:101488000002eb00945988008000eb000080eb001c
:10149800120b070000027800b459880014b98000c4
:1014a800c459880024b98000d45988008000eb0012
:1014b8000080eb00090b070000027800f45988004f
:1014c80034b98000045a880044b98000145a88004e
:1014d800f4598000840078000000eb003a0b070004
:1014e80000027800245a8800010022000000eb0066
:1014f800fa0a070000027800545a88000100220006
:101508000000eb00f50a070000027800645a880022
:101518000002eb00745a88000002eb00845a88002d
:1015280004b9800084027800b4b88000050178000e
:101538008400780000b02000f303070084702000c6
:10154800d45a880004772100045b88008000eb00ef
:101558000080eb00e10a070000027800245b8800a5
:10156800e4b98000345b8800f4b98000445b8800eb
:10157800215e29000080eb00d80a070000027800ed
:10158800645b880004ba8000745b880014ba800029
:10159800845b8800645b800084007800a08621005a
:1015a800090b070000027800945b88000100220004
:1015b80090192200c90a070000027800c45b88005d
:1015c8000100220060e62100c40a0700000278003a
:1015d800d45b8800843e2000e45b8800441f200020
:1015e800f45b88000002eb00645c88008000eb007c
:1015f8000080eb00b90a070000027800845c8800cc
:1016080034ba8000945c880044ba8000a45c8800e6
:101618008000eb000080eb00b00a070000027800b1
:10162800c45c880054ba8000d45c880064ba800026
:10163800e45c8800c45c8000840078000000eb0053
:10164800e10a070000027800f45c8800010022002b
:101658000000eb00a10a070000027800245d880062
:10166800010022000000eb009c0a0700000278003d
:10167800345d88000002eb00445d88000002eb0046
:10168800545d880024ba800084027800d4b98000b0
:101698000501780084007800a0b520009a030700af
:1016a8000002eb002447880004e224005447880025
:1016b800517125000080eb00880a070000027800bd
:1016c8007447880004bb80008447880014bb8000ee
:1016d80094478800811a26000080eb007f0a0700e3
:1016e80000027800b447880024bb8000c447880003
:1016f80034bb8000d4478800b44780008400780059
:10170800c0c22400b00a070000027800e44788003d
:10171800010022000000eb00700a070000027800b8
:1017280014488800010022000000eb006b0a070043
:1017380000027800244888000002eb003448880042
:101748000002eb00444888000002eb00b44888001f
:101758008000eb000080eb00600a070000027800c0
:10176800d448880054bb8000e448880064bb8000eb
:10177800f44888008000eb000080eb00570a07005f
:10178800000278001449880074bb8000244988004e
:1017980084bb8000344988001449800084007800a4
:1017a8000000eb00880a070000027800444988001e
:1017b800010022000000eb00480a07000002780040
:1017c80074498800010022000000eb00430a07006a
:1017d80000027800844988000002eb0094498800e0
:1017e8000002eb00a449880044bb80008402780012
:1017f800f4ba80000501780084007800408e20004b
:10180800410307000002eb00c44c880004e22400f6
:10181800f44c8800517125000080eb002f0a070066
:1018280000027800144d880024bc8000244d8800f4
:1018380034bc8000344d8800811a26000080eb00fb
:10184800260a070000027800544d880044bc800036
:10185800644d880054bc8000744d8800544d80004d
:1018680084007800c0c22400570a070000027800ec
:10187800844d8800010022000000eb00170a0700d1
:1018880000027800b44d8800010022000000eb003f
:10189800120a070000027800c44d88000002eb001d
:1018a800d44d88000002eb00e44d88000002eb00f4
:1018b800544e88008000eb000080eb00070a070008
:1018c80000027800744e880074bc8000844e880042
:1018d80084bc8000944e88008000eb000080eb0000
:1018e800fe09070000027800b44e880094bc80000e
:1018f800c44e8800a4bc8000d44e8800b44e80003a
:10190800840078000000eb002f0a0700000278002e
:10191800e44e8800010022000000eb00ef090700f8
:1019280000027800144f8800010022000000eb003c
:10193800ea09070000027800244f88000002eb0043
:10194800344f88000002eb00444f880064bc8000dc
:101958008402780014bc80000501780084007800b7
:1019680080992000e80207000002eb00f449880093
:10197800846d2d00244a88008000eb000080eb0075
:10198800d609070000027800444a880044bd800058
:10199800544a880054bd8000644a8800118a2d008a
:1019a8000080eb00cd09070000027800844a880017
:1019b80064bd8000944a880074bd8000a44a8800f1
:1019c800844a80008400780000b22c00fe090700d9
:1019d80000027800b44a880001002200008022003a
:1019e800be09070000027800e44a880001002200ce
:1019f80090992100b909070000027800f44a88008c
:101a0800843e2000044b880044012000144b8800c9
:101a1800c4ce2200844b88008000eb000080eb00dd
:101a2800ae09070000027800a44b880094bd80002e
:101a3800b44b8800a4bd8000c44b8800b1112400b9
:101a48000080eb00a509070000027800e44b88003d
:101a5800b4bd8000f44b8800c4bd8000044c8800ed
:101a6800e44b800084007800400d2300d60907006d
:101a780000027800144c880001002200901922000e
:101a88009609070000027800444c880001002200f3
:101a980060e621009109070000027800544c880094
:101aa800843e2000644c880044012000744c880067
:101ab8000002eb00a44c88000082eb00b44c8800c4
:101ac8000002eb00444b88000082eb00544b880076
:101ad80084bd80008402780034bd80000501780050
:101ae80084007800e0932000870207000002eb00e2
:101af800944f8800846d2d00c44f88008000eb004f
:101b08000080eb007509070000027800e44f8800a8
:101b180064be8000f44f880074be800004508800c2
:101b2800118a2d000080eb006c0907000002780084
:101b38002450880084be80003450880094be800001
:101b480044508800245080008400780000b22c00a3
:101b58009d09070000027800545088000100220007
:101b6800008022005d090700000278008450880088
:101b7800010022009099210058090700000278000e
:101b880094508800843e2000a4508800440120001e
:101b9800b4508800c4ce2200245188008000eb0095
:101ba8000080eb004d0907000002780044518800ce
:101bb800b4be800054518800c4be800064518800bf
:101bc800b11124000080eb004409070000027800ee
:101bd80084518800d4be800094518800e4be8000ff
:101be800a45188008451800084007800400d2300af
:101bf8007509070000027800b4518800010022002e
:101c0800901922003509070000027800e451880085
:101c18000100220060e62100300907000002780078
:101c2800f4518800843e20000452880044012000ba
:101c3800145288000002eb00445288000082eb0036
:101c4800545288000002eb00e45088000082eb0048
:101c5800f4508800a4be80008402780054be80003e
:101c68000501780084007800209f200026020700e4
:101c780015178000040220000482620004f0a70007
:101c88000402ea000402e9004f22de000442780060
:101c98000482fb00610262004522dd001617800005
:101ca800f5fd2f0085026300048272001417880076
:101cb800d762a900d602a800d742a900d702a90076
:101cc800c4e2a800e2a2a900c522a800c4c2a900d3
:101cd800d042a800d662a800e822a800e202a90023
:101ce800ca42a900e802a800cbc2a900d6c2a8002f
:101cf800d6a2a800e222a900d362a900d202a900b4
:101d0800d242a800cdc2a800cda2a800d222a80025
:101d1800d322a900d342a900d302a900c182a800f6
:101d2800c1a2a800c0e2a900dea2a900c122a900a0
:101d3800c1c2a800c1e2a800e5a2a800e582a800e7
:101d4800e5c2a800d282a800d2e2a800d382a800e7
:101d5800d3a2a800cc62a800cc82a800e502a80003
:101d6800e522a800c142a800c0c2a900cc42a9002f
:101d7800d262a900e422a900de02a900c642a90095
:101d8800e402a900cde2a900c7c2a900d2c2a900f5
:101d9800d2a2a900de22a9008e00a9008600a9000f
:101da800e40480000400a1000410a0000420a000a6
:101db800e40488008220a9008c60a9008460a9003e
:101dc800a404800004c0a00004d0a10004e0a00086
:101dd800a40488008d60a9008560a900c40480005f
:101de80004c0a10004d0a10004e0a000c40488003d
:101df8008d20a900c40480000440a0000450a00065
:101e08000460a100c40488008d40a900c4048000b7
:101e18000440a0000450a0000460a100c40488008d
:101e28008940a9009140a900440580000480a000d1
:101e38000490a00004a0a00044058800043a800093
:101e48000480a1000490a10004a0a00004b0a00098
:101e5800043a8800f4002f0034108800140620008b
:101e680024108800f1fb2d00b0532b00c6f90700a1
:101e7800f1fb2d00a0f32b00c6f907000410200089
:101e8800841c880004102000842288000042eb0093
:101e98000440780088e8b7000042eb00044078006e
:101ea80089e8b7000042eb0004407800cae8b700b0
:101eb8000042eb0004407800cbe8b70004f02f00a4
:101ec8006410880044002000a4108800f4752700de
:101ed80074108800d4fa25002408880054fa2500d4
:101ee8008408880094d02300640888000002eb006e
:101ef8003408880084c0a90054f82500f408880034
:101f0800d4f92500040988000002eb00c408880001
:101f180086c0a900440d2300e4088800f40d2000c1
:101f280064468800f40b200074468800e40d200005
:101f38008446880004022000944688000002eb00d2
:101f4800a446880014c0b30004407800d6e8b7005f
:101f5800c08c2000ad16070004c4b300044078000c
:101f6800dee8b7000042eb0004407800dfe8b70085
:101f780004022000c446880004022000d4468800d9
:101f880004022000e446880000c2eb000440780008
:101f9800e0e8b70000c2eb0004407800e1e8b700d1
:101fa8006313070024882100040f7800a4bf800071
:101fb800840278001e027800050a78001e8fe80067
:101fc80094bf8000840278001e027800050a780019
:101fd8001e8fe80084bf8000840278001e0278000b
:101fe800050a78001e8fe80074bf8000840278001c
:101ff8001e027800050a780004892100040f780081
:10200800c4bf8000840278001e027800050a7800a8
:102018001e8fe800b4bf8000840278001e0278009a
:10202800050a78000002eb00f4c488006022b800ba
:10203800a4c48800b5c48800d4bf800014418800b7
:102048000080fa00000006000200fa000002eb001f
:10205800040f7800c08c2000a31607000041eb0095
:10206800a1c0b300808d20006b1b07000002780020
:102078001e0f72000041eb00a1c0b300808d20004c
:10208800651b0700000278001e0f72000041eb007c
:10209800a1c0b300808d20005f1b070000027800fc
:1020a8001e0f7200048e200014427800044178004c
:1020b80041c1b300808d2000571b07000002780043
:1020c8001e0f7200148e200014427800044178001c
:1020d80051c1b300808d20004f1b0700000278001b
:1020e8001e0f720082cfb3008040eb00808d20006d
:1020f800491b0700000278001e0f72000041eb0028
:1021080011c0b300808d2000431b07000002780037
:102118001e0f72000041eb0021c0b300808d20002b
:102128003d1b0700000278001e0f72000041eb0003
:1021380031c0b300808d2000371b070000027800f3
:102148001e0f720004f02f009e02620004a02f00f0
:10215800848f520007003a0035c28000040820002e
:102168000482720034c28800b4c180000402e8000e
:10217800b4c188008040eb00808d2000581b070008
:1021880000027800040f7800f40f20009e0262001d
:10219800840f2000848f52000700320035c280006f
:1021a800040820000482720034c28800b4c1800090
:1021b8000402e800b4c18800fd0607000407070010
:1021c800070707000080fa00000006000600fa0072
:1021d800e4c480000402e800e4c4880014418000dc
:1021e8000402e8001441880014418000d4bf88002c
:1021f800c522a90040832000c6f80700e08320001c
:10220800c4f807004206200041062000408e200046
:10221800ef000700420620004106200080992000b8
:10222800eb000700420620004106200060aa2000bb
:10223800e70007004206200041062000c0a4200055
:10224800e30007004206200041062000a0b5200058
:10225800df000700420620004106200000b02000f1
:10226800db000700d6060700cd0607007d0707003c
:102278008c60a90015178000040220000482620007
:1022880004f0a7000402ea000402e9004f22de007d
:10229800044278000482fb00610262004522dd00ee
:1022a80016178000f5fd2f00850263000482720076
:1022b8001417880070050700151780000402200015
:1022c8000482620004f0a7000402ea000402e900a4
:1022d8004f22de00044278000482fb0061026200a3
:1022e8004522dd0016178000f5fd2f0085026300ea
:1022f8000482720014178800351780000400240037
:1023080004826200e00f520014003a00f44080009a
:1023180051c3200004007800ab07070000027800d2
:10232800040f78000001eb009e007800408e20002a
:10233800750007000441800051c3200004007800a4
:10234800a107070000027800040f78000001eb00e5
:102358009e007800809920006b000700c480200050
:1023680014427800e04f52000d003a0034478000d4
:1023780004007800b00907000002780014079800ec
:102388001e0090008b1007000002780024079800b8
:102398001e019000ae009000c0a420005a00070063
:1023a80015178000040220000482620004f0a700d0
:1023b8000402ea000402e9004f22de000442780029
:1023c8000482fb00610262004522dd0016178000ce
:1023d800f5fd2f008502630004827200141788003f
:1023e800c50107001517800004022000048262005e
:1023f80004f0a7000402ea000402e9004f22de000c
:10240800044278000482fb00610262004522dd007c
:1024180016178000f5fd2f00850263000482720004
:10242800141788004c0407001517800004022000c8
:102438000482620004f0a7000402ea000402e90032
:102448004f22de00044278000482fb006102620031
:102458004522dd0016178000f5fd2f008502630078
:10246800048272001417880044c4b3000440780042
:102478001ce8b7001011070064c0b30004407800de
:102488001ce8b7000080fa00000006000000fa000f
:1024980011e1a80021e1a800f4cf27000415880065
:1024a80084fe20001415880064342e00241588004a
:1024b80034fe2e003415880074002c004415880062
:1024c80084ff230054158800a1e2a8008560a900b4
:1024d8008d60a8008540a9008d40a8008520a9002e
:1024e8008d20a8000de2a800e802a8000042eb0039
:1024f800044078008ef8b700051207000060fe005f
:102508000080fa00000006000600fa00000f7800bc
:1025180011079800220798001e027800b402900064
:102528001e029000848f5200080031001e027800bd
:10253800b40290001e0278001502980004c28000c0
:102548000402e80004c28800030037001e02780075
:102558009e029000150298001e027800941a9000be
:102568002e029000848f5200080031001e0278006d
:10257800941a90001e0278007512980004c2800018
:102588000402e80004c28800030037001e02780035
:10259800ae02900075129800c5812000954278001f
:1025a80044c2b30084cf5200040032004206200027
:1025b800410620001e007800050007001e00780074
:1025c800540007000060fe000080fa0000000600ca
:1025d8000a00fa002007980031079800420798007f
:1025e800be0290004e029000848f5200090039000c
:1025f8002e029000940290002e029000250298006e
:102608002e029000f41290002e029000051a9800f5
:102618003c0037002e0290001402900005002000b4
:10262800048fbe003e029000050020001e039000ab
:1026380004b3b900060378009e03780005b8b90012
:1026480080037800070343009e03780004027800a3
:102658000722b8000503430086027800048fbe00f5
:10266800048fbe004e029000050020000401be0049
:102678001e00be007bf707000002be00048fbe00ec
:102688009e0278002e029000250298002e029000eb
:102698007412900005002000048fbe003e029000d6
:1026a800050020001e03900004b3b900060378005b
:1026b8009e03780005b8b90080037800070343003b
:1026c8009e037800040278000722b800050343003f
:1026d80086027800048fbe00048fbe004e02900070
:1026e800050020000401be001e00be005df70700c3
:1026f8000002be00048fbe009e0278002e029000e9
:10270800051a98002e009000020007000080fa00c9
:10271800000006000600fa00200798002e0290002c
:10272800d40290002e0290002402900085007800c8
:1027380004007800a406070000027800040f78005f
:102748002e02900064029000840078001e00780039
:102758009d06070000027800040f78002e02900002
:1027680074029000e00f52000c0034002e0290001a
:10277800740290000482ea009e0f520003003100a8
:102788000082eb00040f78000f0037002e02900043
:10279800740290001e0f42000b0037002e029000ba
:1027a800740290000402ea009e0f520003003600f3
:1027b8000002eb00040f7800030037002e0290009f
:1027c800740290001e0f42002e0290009e027800b4
:1027d800450298002e029000b41a90002e02900034
:1027e800041a900085007800040078007606070037
:1027f80000027800140798002e029000441a9000f6
:10280800840078001e0090006f0607000002780020
:10281800140798002e029000541a9000e00f5200fe
:102828000f0034002e029000541a90008482ea00af
:102838001e029000848f5200030031000082eb00da
:1028480014079800150037002e029000541a9000c3
:102858009e02900004824200140798000f0037007f
:102868002e029000541a90000402ea0084027800b4
:102878001e029000848f5200030036000002eb0015
:1028880014079800050037002e029000541a900093
:102898009e02900004824200140798002e029000c5
:1028a8009e029000251a98002e029000940a90002b
:1028b8002e02900024029000850078000400780021
:1028c8004106070000027800040f78002e029000ed
:1028d800240a9000840078001e0078003a06070059
:1028e80000027800040f78002e029000340a90004d
:1028f800e00f52000c0034002e029000340a9000c1
:102908000482ea009e0f5200030031000082eb00af
:10291800040f78000f0037002e029000340a900050
:102928001e0f42000b0037002e029000340a900060
:102938000402ea009e0f5200030036000002eb007a
:10294800040f7800030037002e029000340a90002c
:102958001e0f42002e029000740a90008400780036
:102968001e0078001806070000027800ae029000ea
:10297800d40a98002e029000041290008400780077
:102988001e0078001006070000027800ae029000d2
:10299800e40a98002e029000d40a90002e029000bb
:1029a80014129000848f5200040031002e0290000f
:1029b800941290002e029000550a98002e02900062
:1029c800f41a90002e029000041a900085007800f6
:1029d80004007800fc05070000027800140798003e
:1029e8002e02900004229000840078001e009000bf
:1029f800f505070000027800140798002e029000e1
:102a080014229000e00f52000f0034002e029000b4
:102a1800142290008482ea001e029000848f5200e3
:102a2800030031000082eb001407980015003700fe
:102a38002e029000541a90009e02900004824200d8
:102a4800140798000f0037002e02900014229000ff
:102a58000402ea00840278001e029000848f52006b
:102a6800030036000002eb00140798000500370049
:102a78002e029000142290009e02900004824200d0
:102a8800140798002e0290005422900084007800c9
:102a98001e009000cc05070000027800ae029000ee
:102aa800b42298002e0290006422900084007800de
:102ab8001e009000c405070000027800ae029000d6
:102ac800c42298002e029000b42290002e0290009a
:102ad80074229000848f5200040031002e0290006e
:102ae800f42290002e029000352298000060fe002b
:102af8000080fa00000006001200fa00a40020007e
:102b0800c4c48800145b80001407980044588000ef
:102b180024079800a45280003407980004548000c9
:102b2800440798007455800054079800d4568000d4
:102b3800640798006447800074079800044d80007b
:102b4800040f980014c0b300044f78000042eb0053
:102b580014479800100037000e82e80084007800bf
:102b6800c08c20006c14070000427800044f7800e5
:102b78001e4290000442e800144798001e42780064
:102b8800e04f520003003200f4c180000402e80064
:102b9800f4c188000060fe009e4278000582fb00b8
:102ba8000402ea004f22de008442780014c0b30019
:102bb8001e439000f34f5300010036000042eb0023
:102bc80004c26200e04f5200e3ff3a001e42900048
:102bd800f34f52000200360000022000a512070041
:102be8000080fa00000006000400fa0094002000ab
:102bf800c4c48800043a800061026200e00f5200f9
:102c08000300320034c280000440a00034c28800af
:102c1800053a80000408200004826200e00f520098
:102c28000400320035c280000402200004827200d1
:102c380034c28800053a800004042000048262003f
:102c4800e00f52000400320035c280000404200066
:102c58000482720034c28800043a80006202620072
:102c6800e00f52000300320034c280000400a000cc
:102c780034c28800053a80000400280004826200fb
:102c8800e00f52000300320034c280000410a0009c
:102c980034c28800043a800070026200e00f5200db
:102ca8000300320034c280000420a00034c288002f
:102cb800053a80000400240004826200e00f5200fc
:102cc8000300320034c280000430a00034c28800ff
:102cd8000060fe00350480000404200004826200c5
:102ce800e00f52008a00320086c0a90074418000bb
:102cf8000402e8006f026200744188007441800099
:102d0800e00f520014003a001417800061026200bc
:102d1800e00f520002003200e202a9000100370071
:102d2800e202a800d5408000d407200004aab90018
:102d3800040278008402d100c44080008500780035
:102d480004007800c605070000027800c440880027
:102d58000002eb00d44088003517800004002200f0
:102d680004826200e00f52000600320084408000b6
:102d7800e00f520003003200ed0f0700e40f0700d8
:102d8800db0f070035178000040022000482620070
:102d9800e00f520003003a0014002000844088002d
:102da800020037000002eb00844088006801070039
:102db800c480200014427800e04f52000d003a0011
:102dc80034478000040078001b07070000027800e1
:102dd800040f78001e007800f60d07000002780046
:102de800140798001e0178009e009000c0a42000df
:102df800c5fd0700c481200014427800f44f52003a
:102e080005003200c58120009542780044cab3000d
:102e180084cf520018003a00420620008000eb00e0
:102e2800408e2000eafd0700420620008000eb00eb
:102e3800408e2000e6fd0700420620008000eb00df
:102e480060aa2000e2fd0700420620008000eb0097
:102e5800c0a42000defd0700420620008000eb0031
:102e6800a0b52000dafd0700420620008000eb0034
:102e780000b02000d6fd07008f0e070023120700c0
:102e880000027800e00f520003003200c4e2a900fb
:102e9800d042a90002003700c4e2a800d042a8002e
:102ea80024812000144278000442e800044078009d
:102eb80012e8b70024812000144278006f426200b3
:102ec8000440780012e8b7002481200014427800fa
:102ed800e04f520001003a000f00070071000700a0
:102ee800c58120009542780044c4b30084cf5200c5
:102ef80005003a00250480000404200004826200d2
:102f0800e00f520002003200fbfe0700b903070081
:102f18000080fa00000006000200fa008400200089
:102f2800c4c48800655b8000f45a8000850078007e
:102f380004007800a404070000027800040f780059
:102f4800745b8000840078001e0078009e040700ef
:102f580000027800040f7800845b80001e0f420096
:102f68001e0278000402d100e4418800545b80000e
:102f78000402d100d44188004083200049f50700ad
:102f88009558800024588000850078000400780057
:102f98008d04070000027800040f7800a458800010
:102fa800840078001e00780087040700000278007b
:102fb800040f7800b45880001e0f42001e027800eb
:102fc8000402d10034428800845880000402d100f1
:102fd80024428800e083200032f50700c4418000c5
:102fe800040f78001e027800e00f520002003d0036
:102ff8000002eb00040f78001e0278000402420071
:10300800040f780004d027009e027800848f5200b5
:103018000200360004d02700040f78000002eb00fd
:10302800345b88000002eb00245b88001e027800f5
:10303800445b880014428000040f78001e02780068
:10304800e00f520002003d000002eb00040f780080
:103058001e02780004024200040f780004d0270002
:103068009e027800848f52000200360004d02700a8
:10307800040f78000002eb00645888000002eb009f
:10308800545888001e0278007458880000b0200048
:10309800a0fd0700a0b520009efd07000080fa00f3
:1030a800000006000800fa00a44080000500200087
:1030b800048fbe00c4408000050020001e0390005d
:1030c80004b3b900060378009e03780005b8b90078
:1030d80080037800070343009e0378000402780009
:1030e8000722b8000503430086027800048fbe005b
:1030f800048fbe001e02be004a2bdd004622de0001
:1031080004027300c62ade00048fbe001e0290006f
:103118006d22b900040378001e0278006022b9000d
:1031280004027800040343009e027800d4002000c3
:10313800042ab8000503430086027800048fbe0005
:10314800048fbe001e02be00452bdd004b22de00b0
:1031580004027300cb2ade00048fbe00e4ff2f00b8
:10316800050020001e03be00840f5300858f5b00fe
:10317800030036000082eb00b440880002003700ec
:103188001e027800b44088001e02be00492bdd00f4
:103198004722de0004027300c72ade00048fbe0047
:1031a8009e027800f4072000048262002407980039
:1031b800c58120009542780044c4b30084cf5200f2
:1031c8000f003200c58120009542780044c3b30047
:1031d80084cf52000a003200c58120009542780051
:1031e80054c3b30084cf520005003200c5812000cb
:1031f8009542780084cab30084cf52000a003a008e
:103208002e02900084024200442d280004824200cd
:10321800940278003507980042062000be0090000e
:1032280060aa2000eafc07000080fa0000000600ff
:103238000400fa0074002000c4c488001417800039
:1032480062026200e00f520037003200d6c2a900c5
:10325800800c20000100200002f4070021c0b30008
:103268000000eb00601607000002be00048fbe00dd
:1032780004002000151121001e03be00840f530016
:10328800858f5b0006003a000002eb00844188004d
:10329800d4c180000402e800d4c1880002003700cd
:1032a8001e02780084418800d6c2a800800c200045
:1032b80001002000ebf30700d6a2a900800c200033
:1032c80001002000e7f3070021c0b3000000eb0075
:1032d800451607000002be00048fbe00040020004f
:1032e800151121001e03be00840f5300858f5b005b
:1032f80006003a000002eb0094418800d4c1800027
:103308000402e800d4c18800020037001e027800d9
:1033180094418800d6a2a800800c2000010020005b
:10332800d0f30700070037000002eb009441880043
:103338000002eb0084418800e4c180000402e80038
:10334800e4c18800e222a9000080fa00000006001b
:103358000400fa0064002000c4c4880060cb200088
:103368009717070000027800040f7800f4408000e7
:103378009e00780004007800c1030700000278006e
:10338800f440880060db20008d17070000027800f9
:10339800040f7800044180009e0078000400780043
:1033a8002f040700000278000441880035178000c8
:1033b8000400240004826200e00f52000a003a0070
:1033c800f440800051c32000040078007e03070009
:1033d80000027800140798000001eb009e0090009e
:1033e800408e200048fc07000441800051c32000a3
:1033f800040078007403070000027800140798009e
:103408000001eb009e009000809920003efc070020
:1034180060eb20006a17070000027800040f7800ac
:10342800845880009e007800040078000c0407008f
:10343800000278008458880060fb200060170700ad
:1034480000027800040f7800545b80009e0078002a
:10345800040078000204070000027800545b88002a
:10346800600b21005617070000027800040f78004f
:10347800445480009e00780004007800f803070098
:103488000002780044548800601b21004c17070094
:1034980000027800040f7800e45280009e00780053
:1034a80004007800ee03070000027800e452880068
:1034b800603b21004217070000027800040f7800e3
:1034c800b45580009e00780004007800e4030700eb
:1034d80000027800b4558800602b210038170700d7
:1034e80000027800040f7800145780009e007800ce
:1034f80004007800da0307000002780014578800f7
:10350800604b21002e17070000027800040f780096
:10351800a44780009e00780004007800d0030700cc
:1035280000027800a4478800605b21002417070088
:1035380000027800040f7800444d80009e00780057
:1035480004007800c603070000027800444d880094
:103558000080fa00000006000600fa00f4cf2700f9
:1035680004158800e4fd20001415880064342e003a
:103578002415880034fe2e003415880074002c00b1
:103588004415880004fc230054158800a1e2a80013
:103598000002eb00040f78008000370000000000f4
:1035a800151580000408200004826200e00f520014
:1035b800fbff32000002eb001407980034003700cc
:1035c800051480001e0278000403420064eb20000a
:1035d80004024300050a7800151480001e027800d2
:1035e8000403420064fb200004024300050a78003b
:1035f800251480001e02780004034200640b210099
:1036080004024300050a7800351480001e02780081
:1036180004034200641b210004024300050a7800e9
:10362800451480001e02780004034200642b210028
:1036380004024300050a7800551480001e02780031
:1036480004034200643b210004024300050a780099
:10365800651480001e02780004034200644b2100b8
:1036680004024300050a7800751480001e027800e1
:1036780004034200645b210004024300050a780049
:103688001e0fe8001e0290000402e80014079800cc
:103698001e029000e70f5200c9ff3600000000002c
:1036a800151580000408200004826200e00f520013
:1036b800fbff3a000002eb001407980034003700c3
:1036c800851480001e0278000403420064eb200089
:1036d80004024300050a7800951480001e02780051
:1036e8000403420064fb200004024300050a78003a
:1036f800a51480001e02780004034200640b210018
:1037080004024300050a7800b51480001e02780000
:1037180004034200641b210004024300050a7800e8
:10372800c51480001e02780004034200642b2100a7
:1037380004024300050a7800d51480001e027800b0
:1037480004034200643b210004024300050a780098
:10375800e51480001e02780004034200644b210037
:1037680004024300050a7800f51480001e02780060
:1037780004034200645b210004024300050a780048
:103788001e0fe8001e0290000402e80014079800cb
:103798001e029000e70f5200c9ff3600f407200010
:1037a8009e027800848f52007cff3600a1e2a900b7
:1037b80060eb2000821607000002780024079800ba
:1037c8002e0290008458880060fb20007c160700b9
:1037d80000027800240798002e029000545b8800ad
:1037e800600b210076160700000278002407980075
:1037f8002e02900044548800601b210070160700b8
:1038080000027800240798002e029000e4528800f5
:10381800603b21006a160700000278002407980020
:103828002e029000b4558800602b21006416070012
:1038380000027800240798002e0290001457880090
:10384800604b21005e1607000002780024079800ec
:103858002e029000a4478800605b210058160700dc
:1038680000027800240798002e029000444d88003a
:103878000080fa00000006000600fa00f4cf2700d6
:1038880004158800e4fd20001415880064342e0017
:103898002415880034fe2e003415880074002c008e
:1038a800441588000403200054158800a1e2a800ec
:1038b8000002eb00040f78008600370000000000cb
:1038c800151580000408200004826200e00f5200f1
:1038d800fbff32000002eb001407980037003700a6
:1038e800051480001e0278000403420064cb200007
:1038f80004024300050a7800151480001e027800af
:103908000403420064db200004024300050a780037
:103918001e0fe800251480001e02780004034200f0
:1039280064cb200004024300050a780035148000a7
:103938001e0278000403420064db200004024300f6
:10394800050a78001e0fe800451480001e02780062
:103958000403420064cb200004024300050a7800f7
:10396800551480001e0278000403420064db200026
:1039780004024300050a78001e0fe8006514800061
:103988001e0278000403420064cb200004024300b6
:10399800050a7800751480001e02780004034200ae
:1039a80064db200004024300050a78001e0fe800cb
:1039b8001e0290000402e800140798001e029000fe
:1039c800e30f5200c6ff3600000000001515800006
:1039d8000408200004826200e00f5200fbff3a0056
:1039e8000002eb00140798003700370085148000a8
:1039f8001e0278000403420064cb20000402430046
:103a0800050a7800951480001e027800040342001d
:103a180064db200004024300050a78001e0fe8005a
:103a2800a51480001e0278000403420064cb200025
:103a380004024300050a7800b51480001e027800cd
:103a48000403420064db200004024300050a7800f6
:103a58001e0fe800c51480001e027800040342000f
:103a680064cb200004024300050a7800d5148000c6
:103a78001e0278000403420064db200004024300b5
:103a8800050a78001e0fe800e51480001e02780081
:103a98000403420064cb200004024300050a7800b6
:103aa800f51480001e0278000403420064db200045
:103ab80004024300050a78001e0fe8001e02900069
:103ac8000402e800140798001e029000e30f520059
:103ad800c6ff3600f40720009e027800848f52004b
:103ae80076ff3600a1e2a90060cb2000b4150700dc
:103af80000027800240798002e029000f440880005
:103b080060db2000ae15070000027800240798004b
:103b18002e029000044188000080fa000000060090
:103b28000400fa0094028000040f7800ff3ffc00b4
:103b3800140280000450a0000460a0000470a000db
:103b4800140288001e027800940288000000880091
:103b5800000000000000000000000000000000005d
:103b68008c60a9008e00a9009402800014079800b8
:103b7800ff3ffc00140280000450a1000460a10073
:103b88000470a100140288001e02900094028800ac
:103b98000000880003000700c522a8000080fa0082
:103ba800000006000200fa0024882100040f7800b3
:103bb8001e02780014027800a4bf88001e8fe80057
:103bc8001e0278001402780094bf88001e8fe80057
:103bd8001e0278001402780084bf88001e8fe80057
:103be8001e0278001402780074bf8800048921003e
:103bf800040f78001e02780014027800c4bf880001
:103c08001e8fe8001e02780014027800b4bf8800f6
:103c1800053b80000400280004826200e00f520087
:103c2800fbff3a0054bf800065bf800002022000fd
:103c38000400be00e3f10700053b800004002800f3
:103c480004826200e00f5200fbff3a0054bf80007c
:103c580065bf8000e27e21000400be00f8f1070085
:103c68000080fa00000006000000fa005c0007006f
:103c78004f00070056000700420620008000eb00b6
:103c8800408e200052fa0700420620008000eb0018
:103c9800408e20004efa0700420620008000eb000c
:103ca80060aa20004afa0700420620008000eb00c4
:103cb800c0a4200046fa0700420620008000eb005e
:103cc800a0b5200042fa0700420620008000eb0061
:103cd80000b020003efa0700408320000df20700e4
:103ce800e08320000bf2070005e1a9008e00a9007f
:103cf8008c60a9008600a9008460a900c4c2a9003c
:103d08000080fa00000006000000fa0034000700f6
:103d180005e1a9008e00a9008c60a9008600a90011
:103d28008460a900c4c2a9000080fa00000006004f
:103d38000000fa0040832000f6f10700e08320002d
:103d4800f4f10700420620008000eb00c0a4200028
:103d58001ffa0700420620008000eb0060aa20003e
:103d68001bfa0700420620008000eb0000b020008c
:103d780017fa0700420620008000eb00a0b52000db
:103d880013fa07000e000700050007000002eb0009
:103d98003408880084c0a9000080fa0000000600ea
:103da8000000fa00d702a8000080fa000000060010
:103db8000000fa00d702a9000080fa0000000600ff
:103dc8000000fa00d722a9000080fa0000000600cf
:103dd8000000fa00d722a8000080fa0000000600c0
:103de8000000fa00d762a900d602a8000080fa00f5
:103df800000006000400fa000002eb00040f78003f
:103e08000002eb001407980054002000c4c4880086
:103e1800c58120009542780044c3b30084cf520086
:103e28000f003200c58120009542780044c4b300d9
:103e380084cf52000a003200c581200095427800e4
:103e480084cab30084cf520005003200c581200027
:103e58009542780054c3b30084cf520005003a005d
:103e68009e029000f4f72f00048262001407980065
:103e7800040037009e0290000408200004827200ab
:103e880014079800e4c28000e00f520004003200da
:103e98001e0290000400a0001407980004003700d8
:103ea8009e029000e4ff2f0004826200140798002d
:103eb800b4c28000e00f5200020032001e20a000b1
:103ec80002003700b4ff2f001e0f620055c28000a9
:103ed80004f02f0004826200e00f52000400320058
:103ee8001e0290000440a000140798000400370048
:103ef8009e029000f4fe2f000482620014079800ce
:103f080055c28000f40f200004826200e00f5200c6
:103f1800040032001e0290000410a000140798004c
:103f2800040037009e029000d4ff2f000482620034
:103f38001407980085c2800004f02f0004826200f4
:103f4800e00f5200020032001e00a00002003700fd
:103f5800e4ff2f001e0f620085c28000f40f2000ce
:103f680004826200e00f5200020032001e10a0001e
:103f780002003700d4ff2f001e0f6200c581200009
:103f88009542780044c4b30084cf520004003a003c
:103f98001e0290000420a0001407980004003700b7
:103fa8009e029000b4ff2f0004826200140798005c
:103fb800048e2000144278000482fb009e0f5200f9
:103fc800100032001e027800044278000440780095
:103fd800e0e8b700048e200014427800044178001d
:103fe80041c1b300808d20008b13070000027800c8
:103ff800e00f520003003200b4c180000402e80060
:10400800b4c18800148e2000144278008482fb001a
:104018001e029000848f5200100032001e02900091
:104028000442780004407800e1e8b700148e2000cc
:10403800144278000441780051c1b300808d2000fb
:104048007513070000027800e00f520003003200e9
:10405800b4c180000402e800b4c188000080fa00fe
:10406800000006000000fa00151680000400220077
:1040780004826200e00f5200050032000042eb00ab
:1040880004407800b8f6b700cbc2a9000400370096
:1040980014c0b30004407800b8f6b700cbc2a8003b
:1040a800d762a800d602a90005e1a9000002eb002a
:1040b800040888008460a9008c60a8007417200098
:1040c8001408880005e1a8000002eb003408880005
:1040d80084c0a9000080fa00000006000a00fa0067
:1040e80030079800410798003e0290000500200024
:1040f80014079800250798001e029000ae02900051
:10410800c022dd000400200014079800250798004d
:104118004e029000050020000401be001e00900021
:10412800ae009000cff007000002be001407980010
:10413800250798001e029000ae0290004d2bdd006e
:104148004322de0004027300c32ade00140798002d
:10415800250798001e039000ae039000040020007d
:10416800f5ff2f0006007800070378008403780025
:1041780005027800070060000402630005002000c3
:10418800c022dd00040020000403be006102b80064
:104198000403730085837300e00f5300e08f5b0016
:1041a800030032000082eb00040f780002003700a1
:1041b8001e029000040f78001e02780004007800a8
:1041c8000080fa00000006000800fa0020079800a6
:1041d800310798002e02900005002000048fbe00d1
:1041e8003e029000050020001e03900004b3b900b1
:1041f800060378009e03780005b8b90080037800ac
:10420800070343009e037800040278000722b800e1
:104218000503430086027800048fbe00048fbe00a9
:104228001e02be00432bdd004d22de000402730097
:10423800cd2ade00048fbe00f4ff2f000500200009
:104248001e03be00840f5300858f5b0006003600f6
:10425800f4ff2f0005002000048fbe0014c2800068
:104268000402e80014c288001e027800240798009f
:104278002e029000040078000080fa00000006007a
:104288000a00fa0030079800410798003e029000a3
:10429800e00f520002003a004e02900034079800e6
:1042a8003e0290000500200014079800250798009a
:1042b800ae029000f40f200004aab90004037800ad
:1042c8001e0290006022b900040278000403430033
:1042d8009e029000f40f2000042ab8000503430052
:1042e800860278001407980025079800140798009c
:1042f800250798004e029000050020001e0390003c
:10430800ae0390000602420087824a001407980014
:10431800250798001e029000ae029000482bdd0091
:104328004822de0004027300c82ade001407980041
:10433800250798001e029000040f78004e02900096
:104348009e0f5200020036001e0fe80004003700de
:104358004e0290009e0f5200010031001e0fe9002e
:104368001e027800040078000080fa0000000600b1
:104378000a00fa0030079800410798003e029000b2
:10438800e00f520002003a004e02900034079800f5
:104398003e029000050020001407980025079800a9
:1043a800ae029000f403200004aab90004037800c8
:1043b8001e0290006022b900040278000403430042
:1043c8009e029000f4032000042ab800050343006d
:1043d80086027800140798002507980014079800ab
:1043e800250798004e029000050020001e0390004b
:1043f800ae0390000602420087824a001407980024
:10440800250798001e029000ae0290004a2bdd009e
:104418004622de0004027300c62ade001407980054
:10442800250798001e029000040f78004e029000a5
:104438009e0f5200020036001e0fe80004003700ed
:104448004e0290009e0f5200010031001e0fe9003d
:104458001e027800040078000080fa0000000600c0
:104468000a00fa0030079800410798003e029000c1
:10447800e00f520002003a004e0290003407980004
:104488003e029000050020001407980025079800b8
:104498002e0290006f22b900040378001e029000db
:1044a8006022b90004027800040343009e029000d1
:1044b800f4002000042ab8000503430086027800af
:1044c80014079800250798001407980025079800f6
:1044d8004e029000050020001e039000ae039000dd
:1044e8000602420087824a001407980025079800b0
:1044f8001e029000ae0290004c2bdd004422de002c
:1045080004027300c42ade001407980025079800e7
:104518001e029000040f78004e0290009e0f520079
:10452800020036001e0fe800040037004e0290001b
:104538009e0f5200010031001e0fe9001e02780094
:10454800040078000080fa000000060000a0fe00c9
:10455800849fbe000000fa00d602a80000000000f8
:10456800000000000000000000000000e222a80097
:104578008600a9008e00a90044002000c4c4880059
:1045880005e1a9000002eb0004088800840020006f
:10459800140888008c60a9008460a90005e1a800bf
:1045a800000000002404800068026200e00f52004e
:1045b800fcff32001516800004002200048262000d
:1045c800e00f5200050032000042eb000440780082
:1045d800b9f6b700cbc2a9000400370014c0b30075
:1045e80004407800b9f6b700cbc2a800c4c2a9003d
:1045f800d602a90005e1a9000002eb000408880022
:104608008460a9008c60a800e416200014088800c3
:1046180005e1a800646b210014427800e04f5200c5
:104628000300320084c380000402e80084c38800c9
:1046380014c0b30004407800b6f6b70014c0b30045
:1046480004407800b7f6b7000080fa004f02be00b9
:104658000080fe00004006003600f800809fbe0083
:10466800829fbe00849fbe00869fbe000200fa00a3
:1046780034002000c4c488008460a9008c60a900ac
:1046880005e1a9000042eb00044f7800a416800061
:1046980064026200e00f52001e0032004006200053
:1046a80001002000efee0700a416800064026200fb
:1046b800e00f5200170032004006200001002000e1
:1046c800e8ee0700a416800064026200e00f5200c2
:1046d800100032004006200001002000e1ee070033
:1046e800a416800064026200e00f52000900320044
:1046f8004006200001002000daee0700a416800022
:1047080064026200e00f5200020032000020200024
:10471800a00b0700c4c2a8008600a9008e00a8004c
:104728000080fa004f03be004f02be004f01be00da
:104738004f00be003600f90000400600801f7800d8
:10474800849fbe00861f78000000fa00a042a900de
:104758008560a90015178000040220000482620009
:10476800e00f520002003200e2a2a9000100370067
:10477800e2a2a80014002000c4c48800746b2100c1
:1047880014427800e04f5200040032000042eb006f
:1047980004407800b7f6b7006200370044bb200039
:1047a800144278000482fb000514800004034200d0
:1047b80064bb200004024300050a780044bb2000c3
:1047c800144278000482fb001514800004034200a0
:1047d80064cb200004024300050a780044bb200093
:1047e800144278000482fb00251480000403420070
:1047f80064db200004024300050a780044bb200063
:10480800144278000482fb0035148000040342003f
:1048180064eb200004024300050a780044bb200032
:10482800144278000482fb0045148000040342000f
:1048380064fb200004024300050a780044bb200002
:10484800144278000482fb005514800004034200df
:10485800640b210004024300050a780044bb2000d1
:10486800144278000482fb006514800004034200af
:10487800641b210004024300050a780044bb2000a1
:10488800144278000482fb0075148000040342007f
:10489800643b210004024300050a780044bb200061
:1048a800144278000482fb0085148000040342004f
:1048b800642b210004024300050a780044bb200051
:1048c800144278000482fb0095148000040342001f
:1048d800644b210004024300050a780044bb200011
:1048e800144278000482fb00a514800004034200ef
:1048f800645b210004024300050a780044bb2000e1
:10490800144278000442e80004407800b4ebb70091
:1049180044bb2000144278000474a10004407800cd
:10492800b4ebb700a042a8000080fa004f0378005b
:104938004f02be004f00780000400600841f780038
:104948000000fa0024002000c4c488008940a9009f
:10495800a4c380000402e800a4c388000080fa0011
:104968004f02780000400600841f78000000fa001b
:10497800d4002000c4c48800143a8000d4c488003d
:1049880000000000000000000000fe000080fa00a7
:104998004f02780000400600841f78000000fa00eb
:1049a800e4002000c4c488000000000000000000eb
:1049b8000000fe000080fa004f0278000040060068
:1049c800841f78000000fa00f4002000c4c48800a6
:1049d80000000000000000000000fe000080fa0057
:1049e8004f02780000400600841f78000000fa009b
:1049f80004012000c4c4880000000000000000007a
:104a08000000fe000080fa004f0278000040060017
:104a1800841f78000000fa00c4ab2f00c4c48800cb
:104a280000000000000000000000fe000080fa0006
:104a38004f027800004006000c00fa00500798006a
:104a48005e02900005002000048fbe005e02900008
:104a5800050020001e03900004b3b9000603780087
:104a68009e03780005b8b900800378000703430067
:104a78009e037800040278000722b800050343006b
:104a880086027800048fbe00048fbe001e02be009e
:104a9800422bdd004e22de0004027300ceaade00a7
:104aa800048fbe0094c08000cfa2de001e039000d9
:104ab80004b3b900060378009e03780005b8b9006e
:104ac80080037800070343009e03780004027800ff
:104ad8000722b8000503430086027800048fbe0051
:104ae800048fbe001e02be00c62bdd004a22de0077
:104af80004827300caaade00048fbe001e02be0034
:104b080024079800350798005e02900005002000f1
:104b1800048fbe00a4c08000cfa2de001e03900058
:104b280004b3b900060378009e03780005b8b900fd
:104b380080037800070343009e037800040278008e
:104b48000722b8000503430086027800048fbe00e0
:104b5800048fbe001e02be00462bdd004a22de0086
:104b680004027300caaade00048fbe002e02900061
:104b7800be0290003e034200ae834a000602be0019
:104b88002407980035079800b4c08000cfa2de0043
:104b9800048fbe001e03be00423add00ce32de00a6
:104ba800850272004232dd00048fbe002e029000a2
:104bb800be0290003e034200ae834a000602be00d9
:104bc8002407980035079800ae039000470798001f
:104bd8004e029000040078000080fa0000000600f1
:104be8000000fa00e488210014427800e24f5200e5
:104bf8000100320007000700e48821001442780011
:104c0800e24f520001003a008f0007000080fa00ce
:104c1800000006000400fa00881f78003e003700f4
:104c2800808420001311070000427800044f7800a8
:104c38001e427800ef4f420037003a00808420007f
:104c48000c11070000427800044f78001e427800db
:104c5800ee4f420030003a00808420000511070022
:104c680000427800044f78001e427800ed4f420061
:104c780029003a0080842000fe10070000427800d6
:104c8800044078008af8b70080842000f9100700f3
:104c980000427800044078008cf8b7008084200037
:104ca800f410070000427800044078008df8b7003f
:104cb80080842000ef10070000427800044078004c
:104cc8008bf8b70080842000ea10070000427800c3
:104cd8000482fb00140798001e0290004824dd009f
:104ce80080842000e3100700004278000482fb0063
:104cf80004024400140798001e009000cd05070028
:104d080000427800e04f52000300320024c0b30094
:104d1800044078008ef8b700e48821001442780037
:104d2800e04f520005003a0080842000ef10070091
:104d380000427800e84f5200b9ff3e004f04780067
:104d48000080fa00000006000600fa0020479800dc
:104d580031479800220798002e019000be4090002d
:104d68002e4090009c05070000027800040f780090
:104d780011cfb300a08820009910070021cfb300fd
:104d8800a08820009610070041cfb300a08820001b
:104d980093100700ae409000a088200090100700f4
:104da8002e0290004822de000442780084407800f9
:104db800a08820008a1007002e0290000442780084
:104dc80084407800a088200085100700be4090002d
:104dd800a0882000821007001e0278004822de000a
:104de8000442780084407800a08820007c100700e6
:104df8001e0278000442780084407800a0882000d1
:104e080077100700751080000420200004826200db
:104e1800e00f52000a003a00a0882000be100700e8
:104e280000427800e04f520005003200a0882000c0
:104e380090100700004278000482fb00841088006c
:104e48000080fa00000006000a00fa00c488210069
:104e5800144278000482fb00140798001e02900098
:104e68004822dd0014079800d488210014427800f5
:104e78000482fb009e0290000482420014079800fe
:104e88001e009000000f7800a488210014427800ca
:104e98000482fb0024079800a488210014427800ab
:104ea8000482fb006123b90004ff2f00f5ff2f00e7
:104eb8000602420087824a00a60d20000700200053
:104ec800860f5200878f5a00d1023e00046001000d
:104ed800da003700dd003700cd023700cc0237009a
:104ee800cb023700ca023700c9023700c8023700b0
:104ef800c7023700c6023700c5023700c4023700b0
:104f0800c3023700c2023700c1023700c0023700af
:104f1800bf023700be023700bd023700bc023700af
:104f2800bb023700ba023700b9023700b8023700af
:104f3800b7023700b6023700b5023700c70037009e
:104f48007f023700b20237005a023700b00237003a
:104f5800e9003700ae023700ad023700ac02370077
:104f6800ab023700aa023700a9023700a8023700af
:104f7800a7023700a6023700a5023700a4023700af
:104f8800a3023700a2023700a1023700a0023700af
:104f98008e0237009e0237009d0237009c023700c0
:104fa8009b0237009a0237009902370098023700af
:104fb80097023700960237009502370094023700af
:104fc80093023700920237009102370090023700af
:104fd8008f0237008e0237008d0237008c023700af
:104fe8008b0237008a0237008902370088023700af
:104ff80087023700860237008502370084023700af
:1050080083023700820237008102370080023700ae
:105018007f0237007e0237007d0237007c023700ae
:105028007b0237007a0237007902370078023700ae
:1050380077023700760237007502370074023700ae
:1050480073023700720237007102370070023700ae
:105058006f0237006e0237006d0237006c023700ae
:105068006b0237006a0237006902370068023700ae
:1050780067023700660237006502370064023700ae
:1050880063023700620237006102370060023700ae
:105098005f0237005e0237005d0237005c023700ae
:1050a8005b0237005a0237005902370058023700ae
:1050b80057023700560237005502370054023700ae
:1050c80053023700520237005102370050023700ae
:1050d8004f0237004e0237004d0237004c023700ae
:1050e8004b0237004a0237004902370048023700ae
:1050f80047023700460237004502370044023700ae
:1051080043023700420237004102370040023700ad
:105118003f023700800037003d0237003c0237006d
:105128003b0237003a0237003902370038023700ad
:1051380037023700360237003502370034023700ad
:1051480033023700320237003102370030023700ad
:105158002f0237002e0237002d0237002c023700ad
:105168002b0237002a0237002902370028023700ad
:1051780027023700260237002502370024023700ad
:1051880023023700220237002102370020023700ad
:105198001f0237001e0237001d0237001c023700ad
:1051a8001b0237001a0237001902370018023700ad
:1051b80017023700160237001502370014023700ad
:1051c80013023700120237001102370010023700ad
:1051d8005900370061003700690037007d0037004b
:1051e800850037008d003700a1003700a90037007f
:1051f800b1003700c5003700cd003700d5003700b3
:10520800e9003700f1003700f90037000d013700d9
:10521800150137001d01370031013700390137000a
:1052280041013700550137005d013700650137003e
:105238007901370081013700890137000042eb000e
:10524800044078000ce8b700f101370014c0b3003f
:10525800044078000ce8b700ed013700c480200056
:1052680014427800e04f5200e60132001e0290001e
:10527800340798003e009000ce0407000002780032
:10528800440798003e019000ce009000c0a4200082
:105298009df407007452800074b68800d4538000cf
:1052a800c4b68800053b8000040028000482620020
:1052b800e00f5200fbff3a0054b6800065b680004c
:1052c800020220000400be003eec0700053b8000ff
:1052d8000400280004826200e00f5200fbff3a003d
:1052e80054b6800065b68000e26c21000400be0060
:1052f80053ec0700c6013700b48821001442780037
:105308000482fb0004007800ce0107000002780048
:10531800040f7800be013700c5812000954278004f
:1053280044c2b30084cf5200b8013a0014002000f0
:1053380094c38800b6013700b4882100144278006d
:105348000482fb009e02900004034200e46c2100ea
:1053580004024300050a7800ad013700b488210033
:10536800144278000482fb0084024200e46c2100ad
:105378000482420014027800040f7800a401370068
:10538800053b80000400280004826200e00f520000
:10539800fbff3a0054b6800065b680000202200088
:1053a8000400be0007ec0700053b8000040028004d
:1053b80004826200e00f5200fbff3a0054b68000fe
:1053c80065b68000e26c21000400be001cec0700fa
:1053d8008f013700b4882100144278000482fb0052
:1053e8009e02900004034200246f2100040243003f
:1053f800050a780086013700b48821001442780035
:105408000482fb0084024200246f210004824200cf
:1054180014027800040f78007d013700053b8000f6
:105428000400280004826200e00f5200fbff3a00eb
:1054380074b7800085b78000020220000400be0017
:10544800e0eb0700053b80000400280004826200ae
:10545800e00f5200fbff3a0074b7800085b7800068
:10546800226f21000400be00f5eb07006801370039
:10547800b4882100144278000482fb009e02900048
:10548800040342006471210004024300050a780005
:105498005f013700b4882100144278000482fb00c1
:1054a80084024200647121000482420014027800e0
:1054b800040f780056013700053b800004002800df
:1054c80004826200e00f5200fbff3a0094b88000ab
:1054d800a5b88000020220000400be00b9eb070056
:1054e800053b80000400280004826200e00f52009f
:1054f800fbff3a0094b88000a5b8800062712100d3
:105508000400be00ceeb070041013700b48821003b
:10551800144278000482fb009e02900004034200bb
:10552800a473210004024300050a780038013700fb
:10553800b4882100144278000482fb0084024200ef
:10554800a47321000482420014027800040f78003a
:105558002f013700053b8000040028000482620008
:10556800e00f5200fbff3a00b4b98000c5b98000d3
:10557800020220000400be0092eb0700053b8000f9
:105588000400280004826200e00f5200fbff3a008a
:10559800b4b98000c5b98000a27321000400be0020
:1055a800a7eb07001a013700b488210014427800dd
:1055b8000482fb009e02900004034200e47521006f
:1055c80004024300050a780011013700b48821005d
:1055d800144278000482fb0084024200e475210032
:1055e8000482420014027800040f78000801370092
:1055f800053b80000400280004826200e00f52008e
:10560800fbff3a00d4ba8000e5ba8000020220000d
:105618000400be006beb0700053b80000400280077
:1056280004826200e00f5200fbff3a00d4ba800007
:10563800e5ba8000e27521000400be0080eb070097
:10564800f3003700b4882100144278000482fb007c
:105658009e029000040342002478210004024300c3
:10566800050a7800ea003700b4882100144278005f
:105678000482fb0084024200247821000482420054
:1056880014027800040f7800e1003700053b800021
:105698000400280004826200e00f5200fbff3a0079
:1056a800f4bb800005bc8000020220000400be009c
:1056b80044eb0700053b80000400280004826200d8
:1056c800e00f5200fbff3a00f4bb800005bc8000ed
:1056d800227821000400be0059eb0700cc003700f7
:1056e800b4882100144278000482fb009e029000d6
:1056f80004034200647a210004024300050a78008a
:10570800c3003700b4882100144278000482fb00eb
:1057180084024200647a2100048242001402780064
:10572800040f7800ba003700053b80000400280009
:1057380004826200e00f5200fbff3a0014bd8000b3
:1057480025bd8000020220000400be001deb0700fa
:10575800053b80000400280004826200e00f52002c
:10576800fbff3a0014bd800025bd8000627a21004d
:105778000400be0032eb0700a5003700b488210002
:10578800144278000482fb009e0290000403420049
:10579800a47c210004024300050a78009c0037001d
:1057a800b4882100144278000482fb00840242007d
:1057b800a47c21000482420014027800040f7800bf
:1057c80093003700053b8000040028000482620033
:1057d800e00f5200fbff3a0034be800045be800057
:1057e800020220000400be00f6ea0700053b800024
:1057f8000400280004826200e00f5200fbff3a0018
:1058080034be800045be8000a27c21000400be009a
:105818000beb07007e003700b488210014427800a3
:105828000482fb009e0290000403420024812100b0
:1058380004024300050a780075003700b488210087
:10584800144278000482fb00840242002481210073
:105858000482420014027800040f78006c003700bc
:10586800053b80000400280004826200e00f52001b
:10587800fbff3a0074c0800085c08000020220004f
:105888000400be00cfea0700053b800004002800a2
:1058980004826200e00f5200fbff3a0074c08000ef
:1058a80085c08000228121000400be00e4ea0700d0
:1058b800570037001e009000300798003e00900007
:1058c8005203070000027800440798003e01900048
:1058d800ce00900060aa20000bf30700445580001a
:1058e80094b78800a4568000e4b78800053b800080
:1058f8000400280004826200e00f5200fbff3a0017
:1059080074b7800085b78000020220000400be0042
:10591800acea0700053b800004002800048262000e
:10592800e00f5200fbff3a0074b7800085b7800093
:10593800226f21000400be00c1ea070034003700ce
:105948001e029000440798004e00900024030700b0
:1059580000027800340798003e019000ce009000c5
:1059680060aa2000e8f207004455800094b7880038
:10597800a4568000e4b78800053b80000400280096
:1059880004826200e00f5200fbff3a0074b7800007
:1059980085b78000020220000400be0089ea0700e3
:1059a800053b80000400280004826200e00f5200da
:1059b800fbff3a0074b7800085b78000226f210092
:1059c8000400be009eea0700110037000002eb0049
:1059d80034c288004007a90040e7a90040c7a900d1
:1059e8004027a90041e7a9004087a90041c7a900ad
:1059f8000002eb00c4c488000002eb00e4c4880085
:105a0800030037000000000001003700000000001c
:105a1800b5882100954278002e0290000442780053
:105a28001e0178008540780004407800c6fc070015
:105a38000042eb00044078008ef8b7000080fa00be
:105a4800000006001000fa00889fbe008a9fbe0072
:105a5800700798007e0290006123b8000082eb0076
:105a68008082eb000602420087824a00d60a2000a4
:105a780007002000860f5200878f5a0050023e0010
:105a880004600100110237001502370017023700c1
:105a98001b0237004a023700490237004802370024
:105aa80047023700460237004502370044023700f4
