:020000040000fa
:080000000001040000000000f3
:020000040000fa
:10000800102c0000bc2b0000d42b0000e82b0000b3
:10001800fc2b0000102c0000102c0000102c0000fd
:10002800102c0000102c0000102c0000ea29000001
:10003800102c0000102c0000102c0000102c0000c8
:10004800102c000068370000983700005c2a000078
:10005800102c0000102c0000102c00005c2b00005d
:10006800b0280000102c0000102c0000102c0000fc
:10007800102c0000102c0000102c0000102c000088
:10008800102c0000102c0000102c0000102c000078
:10009800102c0000102c0000102c0000102c000068
:1000a800102c0000102c0000102c0000102c000058
:1000b800102c0000102c0000102c0000102c000048
:1000c800102c0000102c0000a62b0000102c0000a3
:1000d800102c0000102c0000102c0000102c000028
:1000e800102c0000102c0000102c0000102c000018
:0800f800102c0000102c000088
:020000040000fa
:10010800102c0000bc2b0000d42b0000e82b0000b2
:10011800fc2b0000102c0000102c0000102c0000fc
:10012800102c0000102c0000102c0000ea29000000
:10013800102c0000102c0000102c0000102c0000c7
:10014800102c000068370000983700005c2a000077
:10015800102c0000102c0000102c00005c2b00005c
:10016800b0280000102c0000102c0000102c0000fb
:10017800102c0000102c0000102c0000102c000087
:10018800102c0000102c0000102c0000102c000077
:10019800102c0000102c0000102c0000102c000067
:1001a800102c0000102c0000102c0000102c000057
:1001b800102c0000102c0000102c0000102c000047
:1001c800102c0000102c0000a62b0000102c0000a2
:1001d800102c0000102c0000102c0000102c000027
:1001e800102c0000102c0000102c0000102c000017
:0801f800102c0000102c000087
:020000040000fa
:100200002f7a21004efe21000e0188000000000020
:1002100000012000200288000c00070020132500a8
:100220000100200011000700000020000000e00095
:100230000200320000000200000000007a510200bb
:10024000000000000040da000000fe004440a90069
:10025000002820000000e000030032000000200021
:10026000a00188004440a800000006009101880019
:10027000800078000000eb0015003700e2804000ad
:1002800032a0b4009101ba00e280400032a0b40074
:100290009102ba00e280400032a0b4000002eb00fc
:1002a000472bde00f507b200602ce10004003a00a5
:1002b0000059eb008301e900fdff3e000400370018
:1002c0006128e100010032000082eb000400070019
:1002d0001101ba000200e000e8ff3a000000060049
:1002e0003159ba008301e9000c0032002159ba00eb
:1002f0008301e900080032000400e00003003a0036
:10030000e280400032a0b400f5ff370011d9ba00f6
:100310008301e900faff3a008100e800e180400033
:1003200032a0b40000000600881f78008a1f780001
:100330004400f800080f2000280288000004900004
:1003400010059000a000900030019000c0019000c6
:100350000300ca000280ca000030cb001a00cd00a2
:100360004604c3000100ca004604c0001e04c000c9
:100370000605c0000100cd0021009800050d7800a1
:10038000eaba9700052578004400f9004f05780087
:100390004f04780000000600801f78004000b00085
:1003a0000008eb004f007800801f780010009000dc
:1003b0000018eb000018eb000008eb004f0078007d
:1003c000000006004400f800020f2000220288000e
:1003d000910078003000ca003080ca000000cb00d5
:1003e0002080ca000000cb003100cd004000ca00d0
:1003f0000000cb000000cb000010cb003100cd008e
:100400001180cc004400f9000000060010118800a3
:100410000111880000000600401188003111880099
:10042000000006003200f800910188000008bb00bf
:10043000410424006210e1000400320000022000a8
:100440000010e1000a003a0051042400013b88003a
:100450000500fc0051052000313b8800a10a200066
:10046000313b880061e7a8000000000000000000a8
:100470003200f900000006003200f8006004240099
:10048000003b8800f2ff37003200f800910188003d
:1004900041002400013b88000208bb00ecff37004c
:1004a0003200f8009101880051002400013b8800cf
:1004b000030120003218bb008301e900fdff3a0070
:1004c000e3ff37006022b800060220000000d000e1
:1004d0008180d2000482d2008582d2000000a00078
:1004e0000202520083825a000300310002024200dd
:1004f00083824a000000a1000603e900f3ff3a00ee
:0405000000000600f1
:020000040000fa
:1005040000000000c1c0000081c1000040010000e3
:1005140001c30000c00300008002000041c20000cb
:1005240001c60000c00600008007000041c70000ab
:1005340000050000c1c5000081c4000040040000a3
:1005440001cc0000c00c0000800d000041cd000073
:10055400000f0000c1cf000081ce0000400e00005b
:10056400000a0000c1ca000081cb0000400b00005b
:1005740001c90000c00900008008000041c8000053
:1005840001d80000c01800008019000041d9000003
:10059400001b0000c1db000081da0000401a0000eb
:1005a400001e0000c1de000081df0000401f0000cb
:1005b40001dd0000c01d0000801c000041dc0000c3
:1005c40000140000c1d4000081d5000040150000d3
:1005d40001d70000c01700008016000041d60000bb
:1005e40001d20000c01200008013000041d30000bb
:1005f40000110000c1d1000081d0000040100000b3
:1006040001f00000c03000008031000041f1000022
:1006140000330000c1f3000081f20000403200000a
:1006240000360000c1f6000081f7000040370000ea
:1006340001f50000c03500008034000041f40000e2
:10064400003c0000c1fc000081fd0000403d0000b2
:1006540001ff0000c03f0000803e000041fe00009a
:1006640001fa0000c03a0000803b000041fb00009a
:1006740000390000c1f9000081f800004038000092
:1006840000280000c1e8000081e9000040290000c2
:1006940001eb0000c02b0000802a000041ea0000aa
:1006a40001ee0000c02e0000802f000041ef00008a
:1006b400002d0000c1ed000081ec0000402c000082
:1006c40001e40000c02400008025000041e5000092
:1006d40000270000c1e7000081e60000402600007a
:1006e40000220000c1e2000081e30000402300007a
:1006f40001e10000c02100008020000041e0000072
:1007040001a00000c06000008061000041a1000061
:1007140000630000c1a3000081a200004062000049
:1007240000660000c1a6000081a700004067000029
:1007340001a50000c06500008064000041a4000021
:10074400006c0000c1ac000081ad0000406d0000f1
:1007540001af0000c06f0000806e000041ae0000d9
:1007640001aa0000c06a0000806b000041ab0000d9
:1007740000690000c1a9000081a8000040680000d1
:1007840000780000c1b8000081b900004079000081
:1007940001bb0000c07b0000807a000041ba000069
:1007a40001be0000c07e0000807f000041bf000049
:1007b400007d0000c1bd000081bc0000407c000041
:1007c40001b40000c07400008075000041b5000051
:1007d40000770000c1b7000081b600004076000039
:1007e40000720000c1b2000081b300004073000039
:1007f40001b10000c07100008070000041b0000031
:1008040000500000c19000008191000040510000a0
:1008140001930000c0530000805200004192000088
:1008240001960000c0560000805700004197000068
:1008340000550000c1950000819400004054000060
:10084400019c0000c05c0000805d0000419d000030
:10085400005f0000c19f0000819e0000405e000018
:10086400005a0000c19a0000819b0000405b000018
:1008740001990000c0590000805800004198000010
:1008840001880000c0480000804900004189000040
:10089400004b0000c18b0000818a0000404a000028
:1008a400004e0000c18e0000818f0000404f000008
:1008b400018d0000c04d0000804c0000418c000000
:1008c40000440000c1840000818500004045000010
:1008d40001870000c04700008046000041860000f8
:1008e40001820000c04200008043000041830000f8
:1008f40000410000c18100008180000040400000f0
:100904006400000064000000630000006300000055
:10091400630000006200000062000000610000004b
:100924006100000060000000600000005f00000043
:100934005f0000005e0000005e0000005d0000003b
:100944005d0000005c0000005b0000005b00000034
:100954005a0000005900000059000000580000002f
:10096400570000005700000056000000550000002a
:100974005400000054000000530000005200000026
:100984005100000050000000500000004f00000023
:100994004e0000004d0000004c0000004b00000021
:1009a4004a00000049000000480000004700000021
:1009b4004600000045000000440000004300000021
:1009c4004200000041000000400000003f00000021
:1009d4003e0000003c0000003b0000003a00000024
:1009e4003900000038000000360000003500000027
:1009f400340000003300000031000000300000002b
:020000040000fa
:100a04000a00fa00a4842000144278000482fb0047
:100a140045032000850f52001401320045032000d5
:100a2400850f52000d003c00e60f52002e003200ec
:100a3400e60f520003003c00e40f52001b0032009a
:100a44004e033700f40f52007600320045022000b6
:100a5400850f52008c00320048033700050a20003d
:100a6400850f520042033200050a2000850f520010
:100a740007003c0055032000850f52003601320068
:100a840045042000850f52007e0132003b033700ed
:100a9400450a2000850f520002033200850a200017
:100aa400850f520010033200340337003903070066
:100ab400f907070011090700921d070000027800da
:100ac400e00f52000400320004cab300044078006e
:100ad4004ae8b7002d03370044c1b300044078004e
:100ae4004ae8b700290337005516800004042000a3
:100af4000482620004f0a7000402ea000402e90090
:100b04004f22de00044278000482fb00610262008e
:100b14004622dd0056168000f5fb2f008502630097
:100b240004827200541688001a03070055168000c8
:100b3400040420000482620004f0a7000402ea0016
:100b44000402e9004f22de00044278000482fb0024
:100b5400610262004622dd0056168000f5fb2f007c
:100b64008502630004827200541688003808070066
:100b740055168000040420000482620004f0a700db
:100b84000402ea000402e9004f22de000442780075
:100b94000482fb00610262004622dd0056168000da
:100ba400f5fb2f008502630004827200541688004e
:100bb400d208070055168000040420000482620055
:100bc40004f0a7000402ea000402e9004f22de0058
:100bd400044278000482fb00610262004622dd00c8
:100be40056168000f5fb2f00850263000482720014
:100bf40054168800431d070000027800e00f5200dd
:100c04000400320004cab300044078004ae8b70084
:100c1400de02370044c4b300044078004ae8b70059
:100c2400da023700140f0700120037008a0a07009f
:100c340060130700381d070000027800e00f52001f
:100c44000400320044cab300044078004ae8b70004
:100c54000800370015168000040024000482620096
:100c6400e00f520003003a0044c2b300044078008d
:100c74004ae8b700a484200014427800f44f5200dc
:100c8400eaff3200c10237002d0f07000002eb001b
:100c9400040f78000002eb0084bb88006d0037006d
:100ca4006d0a070043130700000000000000000065
:100cb4000000000025048000040420000482620077
:100cc400e00f52002f0032001e0fe80084c0a9007c
:100cd400351780000400210004826200e00f5200f6
:100ce4000300320084bb8000e10f520011003a007f
:100cf400a20020009e00780040ad2000d00807002c
:100d0400a20020009e007800a0a72000cc080700c5
:100d1400a20020009e007800e0b22000c80807006e
:100d2400a20020009e00780080b82000c4080700bc
:100d340014003700a4568000040178009e00780057
:100d440040ad2000be080700d453800004017800a1
:100d54009e007800a0a72000b908070074598000fd
:100d6400040178009e007800e0b22000b408070077
:100d7400445c8000040178009e00780080b8200064
:100d8400af080700e41c070000027800e00f5200df
:100d94000400320044cab300044078004ae8b700b3
:100da4002c00370015168000040024000482620021
:100db400e00f52000400320044c1b3000440780044
:100dc4004ae8b70023003700847020009e027800b0
:100dd400848f520007003600551a070044c3b3003d
:100de400044078004ae8b7000002eb0084bb8800a6
:100df40018003700351780000400210004826200c7
:100e0400e00f52000a003a001e027800f40f52006c
:100e140007003600461a070044c3b30004407800b4
:100e24004ae8b7000002eb0084bb880009003700e1
:100e340084bb8000e10f520006003a003c1a070010
:100e440044c3b300044078004ae8b7000002eb0052
:100e540084bb8800a58420009542780044c2b30076
:100e640084cf52008eff320048023700aa0e0700da
:100e7400420620004106200020912000700807004f
:100e84004206200041062000609c20006c080700f8
:100e9400420620004106200040ad200068080700fb
:100ea4004206200041062000a0a720006408070095
:100eb400420620004106200080b820006008070098
:100ec4004206200041062000e0b220005c08070032
:100ed4001b003700e0090700b61207008e1c07004c
:100ee40000027800e00f52000400320084cab3000c
:100ef400044078004ae8b700110037001516800056
:100f04000400240004826200e00f52000400320056
:100f140044c1b300044078004ae8b7000800370031
:100f2400151680000400280004826200e00f5200bd
:100f340003003a0054c3b300044078004ae8b70001
:100f4400a58420009542780044c3b30084cf5200a6
:100f5400e0ff32000d0237006442800051c32000dc
:100f6400040078009c0f0700000278002407980012
:100f74000001eb00ae00900020912000fe07070066
:100f84007442800051c3200004007800920f0700cf
:100f940000027800240798000001eb00ae009000e6
:100fa400609c2000f40707000002eb00140798007f
:100fb400cbe2a9002d003700a70907007d12070026
:100fc400250480000404200004826200e00f520023
:100fd4000400320084c0a9001e0290000402e8004c
:100fe400140798004c1c070000027800e00f520020
:100ff4000400320084cab300044078004ae8b70011
:101004001a003700151680000400240004826200d0
:10101400e00f52000400320044c1b30004407800e1
:101024004ae8b700110037001516800004002800b4
:1010340004826200e00f52000400320044c3b30093
:10104400044078004ae8b700080037009e02900088
:1010540014032000848f52000400360044c4b300fb
:10106400044078004ae8b700020f0700a584200076
:101074009542780054c3b30084cf5200ceff3200af
:10108400c20137000002eb00944288000002eb002a
:10109400b44288000002eb00a44288000002eb0086
:1010a40004bd88006022b80094bc8800a5bc8800f8
:1010b4000042eb0004407800e4f6b7008c60a8001e
:1010c40072013700c4002000d4bc88006209070004
:1010d40038120700351780000400280004826200db
:1010e400e00f520003003a0074418000544188002c
:1010f400020037006441800054418800446e21009e
:1011040014427800e04f520044013200c441800090
:10111400e00f52000200320000402000bc1b070018
:10112400b4002000d4bc8800b541800004f02f0036
:10113400848f520003003e00b44180000402e800a2
:10114400b441880094bc8000a5bc800061024200c8
:10115400e0824a0094bc8800a5bc88000478210081
:101164003400be002401be0014002000050020004d
:101174006033b8000002420081824a0002034b003f
:1011840083834b00007821000498be000690be00c3
:10119400444280000402e800444288005d0b0700da
:1011a400646e210014427800044078007c19070022
:1011b400756e210095427800646e21001442780017
:1011c40084cf52000a003200a5488000b4452400b0
:1011d400848f520003003e000403210044b78800ba
:1011e4001a0037000403200044b7880017003700b2
:1011f400746e210014427800e04f52000a003a0055
:10120400a5488000b4452400848f520003003e00aa
:101214000404210044b788000c00370004042000b3
:1012240044b7880009003700a5488000b44524006d
:10123400848f520003003e000402210044b788005a
:10124400020037000402200044b78800746e2100b5
:101254001442780004407800e6f6b70040ee20001f
:1012640050240700000278004441880040fe20001a
:101274004c2407000002780024418800b441800017
:10128400fd0f520008003e000002eb00944188006c
:101294000002eb008441880014c0b30004407800cd
:1012a40034e8b700b10037000002eb0004418800c5
:1012b400b541800034bb8000848f5200230031008c
:1012c40024bb8000050020003407980045079800df
:1012d40035bb8000b4418000048252000500200028
:1012e4004e03900004b3b90006037800be039000d7
:1012f40005b8b9008003780007034300be039000db
:10130400040278000722b80005034300860278002f
:10131400340798004507980034079800450798005b
:1013240034bb8000050020000401be003e00900094
:10133400ce00900062fc07000002be003407980053
:10134400450798003e02900004418800351780004c
:101354000400240004826200e00f520011003a00ed
:1013640044bb8000e00f520007003200554180006a
:10137400044180000482420005002000c44088002b
:10138400d540880031003700554180000441800079
:101394000482520005002000c4408800d540880023
:1013a4002a00370044bb8000e00f520007003200df
:1013b4005541800004418000048242000500200061
:1013c400c4408800d540880006003700554180009d
:1013d400044180000482520005002000c4408800bb
:1013e400d5408800744280006123b800c440800066
:1013f400d540800004b8b9000000780006a9b900ff
:10140400820078000100400006037800040278009e
:101414000432b8000500400080027800c44088000f
:10142400d5408800c6408000d7408000f44080004a
:10143400050020000401be000600be0020fc0700d9
:101444000002be00c4408800d540880044418000aa
:101454006123b800c4408000d54080002403b0005c
:101464000580b000840f5300858f5b0004003900b1
:10147400944180000402e900944188000e00370082
:10148400444180006123b800c0408000d140800006
:10149400e4fc2f00f5ff2f000002420081824a0085
:1014a400840f5300858f5b0003003e00944180004d
:1014b4000402e800944188003441800025032000a0
:1014c4008482420024418000848f52000400310051
:1014d400844180006302520084418800090037007f
:1014e40034418000e5fc2f008482420024418000c6
:1014f400848f52000300360084418000630242005e
:10150400844188009541800004642000848f520047
:10151400030034000464200094418800060037006e
:1015240095418000049c2f00848f520002003d00ee
:10153400049c2f009441880085418000842520006c
:10154400848f5200030034008425200084418800e5
:10155400060037008541800084da2f00848f520012
:1015640002003d0084da2f00844188006442800038
:1015740051c3200004007800170e07000002780011
:101584002407980035418000743e2000848f520067
:101594000400360084418000ae02900004824200c0
:1015a400240798000001eb00ae0090002091200079
:1015b40071060700f440800051c320000400780045
:1015c400050e0700000278002407980055418000aa
:1015d400743e2000848f5200040036009441800041
:1015e400ae02900004824200240798000001eb0040
:1015f400ae009000609c20005f060700da07070039
:101604000002eb003408880084c0a9000042eb000b
:1016140004407800e4f6b70045110700be1a07003d
:1016240000027800e00f520005003200500c070061
:1016340084cab300044078004ae8b70013003700b6
:10164400151680000400240004826200e00f52009a
:1016540005003200460c070044c1b3000440780082
:101664004ae8b70009003700151680000400280076
:1016740004826200e00f5200040032003c0c0700b8
:1016840044c3b300044078004ae8b700a5842000ae
:101694009542780044c4b30084cf520089fe3200de
:1016a4003a003700740c070009003700ea07070006
:1016b400c0100700981a070000027800e00f5200db
:1016c40003003a0044c1b300044078004ae8b7007c
:1016d400a58420009542780044cab30084cf520008
:1016e400f2ff3200290037008b0c07001a00370084
:1016f400d9070700af100700971a07000002780007
:10170400e00f52000400320044cab30004407800e1
:101714004ae8b700100037001516800004002400c2
:1017240004826200e00f52000400320044cab30095
:10173400044078004ae8b70007003700761a07002b
:1017440000027800e00f520003003a0044c3b300e3
:10175400044078004ae8b700a58420009542780048
:1017640084cab30084cf5200e1ff3200070037007f
:10177400b90707008f100700fdff370004cab30044
:10178400044078004ae8b700000000000080fa0036
:10179400000006004400fa00881f7800d4bc8000d2
:1017a400e44188000002eb00d4bc88000002eb0096
:1017b400844088000002eb00a44088000002eb0093
:1017c400a4b88800043a800061026200e00f52006d
:1017d40003003200a4b880000440a000a4b888002c
:1017e400053a80000408200004826200e00f5200e1
:1017f40004003200a5b880000402200004827200b4
:10180400a4b88800053a8000040420000482620021
:10181400e00f520004003200a5b880000404200048
:1018240004827200a4b88800043a80006202620054
:10183400e00f520003003200a4b880000400a000ae
:10184400a4b88800053a80000400280004826200dd
:10185400e00f520003003200a4b880000410a0007e
:10186400a4b88800043a800070026200e00f5200bd
:1018740003003200a4b880000420a000a4b88800ab
:10188400053a80000400240004826200e00f520044
:1018940003003200a4b880000430a000a4b888007b
:1018a4000002eb00f4b788000002eb0004b88800e3
:1018b4000002eb0014b888000002eb0024b8880092
:1018c4000002eb0034b888000002eb0044b8880042
:1018d4000002eb0054b888000002eb0064b88800f2
:1018e4000002eb0074b888000002eb0084b88800a2
:1018f4000002eb00344188000002eb0074418800d0
:101904000002eb00644188000002eb0034bb880055
:101914000002eb0004bb88000002eb0014bb88004b
:101924000002eb00040f7800250037001e0fe800ca
:101934000060fe00a44080000402e800a440880087
:101944001e027800ea0f52000f003600643b2000ac
:1019540024179800e42e200034179800f4ff270081
:1019640044179800f4ff2700541798008496220027
:1019740064179800440220000e024200840078009c
:101984000000eb00c41a07001e027800ef0f52009b
:101994000b003600643b200024079800e42e20004e
:1019a40034079800f4ff270044079800f4ff270049
:1019b40054079800849622006407980007003700b3
:1019c40064024700840078000000eb00971a0700c7
:1019d40000027800e00f5200d4ff32002e02900083
:1019e400644088003e029000744088004e029000db
:1019f40054b788005e02900064b788006e029000bd
:101a0400944088000002eb00040f78004500370082
:101a14000060fe001e0fe8001e027800ea0f52006c
:101a24001e0036000002eb00241798000002eb00b1
:101a3400341798000002eb00441798000002eb00f2
:101a4400541798000002eb00641798000002eb00a2
:101a5400741798000002eb00041f98000002eb00ca
:101a6400141f98000002eb00241f98000002eb00f2
:101a7400341f98000002eb00441f98000002eb00a2
:101a8400541f98000002eb00641f98000002eb0052
:101a9400741f98000002eb00042798001e027800cf
:101aa400ef0f52001f0036000002eb0024079800dd
:101ab4000002eb00340798000002eb004407980092
:101ac4000002eb00540798000002eb006407980042
:101ad4000002eb00740798000002eb00040f98006a
:101ae4000002eb00140f98000002eb00240f980092
:101af4000002eb00340f98000002eb00440f980042
:101b04000002eb00540f98000002eb00640f9800f1
:101b14000002eb00740f98000002eb000417980019
:101b2400070037006402470084007800100020009a
:101b34003e1a070000027800e00f5200b4ff3200a2
:101b44000478210014079800de0290001e02900021
:101b5400050a78001e0290000482e8001407980029
:101b6400ce0290001e029000050a78001e0290002a
:101b74000482e80014079800be0290001e02900040
:101b8400050a78001e0290000482e80014079800f9
:101b9400ae0290001e029000050a7800e47821004d
:101ba40014079800fe0290001e029000050a7800b7
:101bb4001e0290000482e80014079800ee029000d0
:101bc4001e029000050a78000002eb0004bd8800a4
:101bd4006022b80094bc8800a5bc88000e0a90005e
:101be400844288006480200064438800a4ff2100ac
:101bf40074438800c0862000e6f90700f42820001a
:101c0400d4bb8800d4a32000e4bb8800d4a3200064
:101c1400f4bb8800c1862000a0772100e8f9070002
:101c2400048020001443880044ff210024438800da
:101c340020862000d7f90700f4282000a4bb8800e0
:101c4400d4a32000b4bb8800d4a32000c4bb880064
:101c54002186200040772100d9f907000060fe00aa
:101c640044062000d453880004d02700045488007c
:101c74008080eb000080eb001c0c07000002780061
:101c84002454880004002200345488000002eb002d
:101c940044548800a12a29000080eb00130c07009b
:101ca4000002780064548800040022007454880000
:101cb4000002eb008454880064548000840078009f
:101cc40000532700440c0700000278009454880055
:101cd4000100220000802200040c070000027800aa
:101ce400c45488000100220000002100ff0b0700fb
:101cf40000027800d4548800843e2000e454880014
:101d040024032000f4548800841a260064558800b3
:101d1400311e29000080eb00f40b0700000278005c
:101d24008455880004002200945588000002eb00ca
:101d3400a455880011b52a000080eb00eb0b0700c6
:101d440000027800c455880004002200d45588009d
:101d54000002eb00e4558800c4558000840078003c
:101d6400005926001c0c070000027800f455880076
:101d74000100220030332200dc0b0700000278004f
:101d84002456880001002200c0cc2100d70b070094
:101d9400000278003456880004fa20004456880073
:101da400240320005456880084252000a45688006b
:101db40004dc2500d45688008080eb000080eb0012
:101dc400ca0b070000027800f456880004002200c1
:101dd400045788000002eb0014578800a12a290048
:101de4000080eb00c10b0700000278003457880024
:101df40004002200445788000002eb005457880076
:101e04003457800084007800801a2600f20b070003
:101e140000027800645788000100220000002400ba
:101e2400b20b0700000278009457880001002200da
:101e340000002100ad0b070000027800a4578800c1
:101e440004fa2000b4578800840c2000c45788008a
:101e540004dc250034588800211e29000080eb0092
:101e6400a20b0700000278005458880004002200e6
:101e7400645888000002eb007458880011b52a00e9
:101e84000080eb00990b070000027800945888004a
:101e940004002200a45888000002eb00b458880013
:101ea4009458800084007800802c2300ca0b07001b
:101eb40000027800c458880001002200008022003b
:101ec4008a0b070000027800f45888000100220001
:101ed40000802100850b0700000278000459880067
:101ee40004fa200014598800840c20002459880026
:101ef4009840800094408000040078004b14070050
:101f040000027800080178008400780040ad2000c9
:101f1400190407008470200074598800c4a22100a9
:101f2400a45988008000eb000080eb006f0b0700d1
:101f340000027800c459880004002200d4598800a3
:101f44000002eb00e4598800215e29000080eb00c8
:101f5400660b070000027800045a8800040022007f
:101f6400145a88000002eb00245a8800045a8000a6
:101f74008400780000c22100970b0700000278005b
:101f8400345a88000100220090192200570b0700e0
:101f940000027800645a88000100220060e62100f3
:101fa400520b070000027800745a8800843e200017
:101fb400845a8800441f2000945a88000002eb00d1
:101fc400045b88008000eb000080eb00470b0700f7
:101fd40000027800245b880004002200345b88003f
:101fe4000002eb00445b88008000eb000080eb0003
:101ff4003e0b070000027800645b880004002200a6
:10200400745b88000002eb00845b8800645b8000e2
:10201400840078000000eb006f0b070000027800da
:10202400945b8800010022000000eb002f0b0700e6
:1020340000027800c45b8800010022000000eb006d
:102044002a0b070000027800d45b88000002eb0032
:10205400e45b88000002eb00f45b880084702000dd
:10206400445c880004772100745c88008000eb00e5
:102074000080eb001d0b070000027800945c8800d0
:1020840004002200a45c88000002eb00b45c880019
:10209400215e29000080eb00140b07000002780089
:1020a400d45c880004002200e45c88000002eb0099
:1020b400f45c8800d45c800084007800a086210051
:1020c400450b070000027800045d8800010022002f
:1020d40090192200050b070000027800345d880087
:1020e4000100220060e62100000b070000027800d6
:1020f400445d8800843e2000545d8800441f200015
:10210400645d88000002eb00d45d88008000eb0071
:102114000080eb00f50a070000027800f45d8800f7
:1021240004002200045e88000002eb00145e8800b4
:102134008000eb000080eb00ec0a0700000278004e
:10214400345e880004002200445e88000002eb0034
:10215400545e8800345e8000840078000000eb0048
:102164001d0b070000027800645e88000100220055
:102174000000eb00dd0a070000027800945e88008e
:10218400010022000000eb00d80a070000027800da
:10219400a45e88000002eb00b45e88000002eb003d
:1021a400c45e88000002eb009448880084a32400e5
:1021b400c4488800517125000080eb00cb0a070059
:1021c40000027800e448880004002200f4488800f3
:1021d4000002eb0004498800811a26000080eb000d
:1021e400c20a070000027800244988000400220083
:1021f400344988000002eb004449880024498000e7
:1022040084007800c0c22400f30a070000027800aa
:1022140054498800010022000000eb00b30a0700c3
:102224000002780084498800010022000000eb00cd
:10223400ae0a070000027800944988000002eb000f
:10224400a44988000002eb00b44988000002eb00b6
:10225400244a88008000eb000080eb00a30a0700fa
:1022640000027800444a880004002200544a88008e
:102274000002eb00644a88008000eb000080eb0061
:102284009a0a070000027800844a880004002200a9
:10229400944a88000002eb00a44a8800844a800023
:1022a400840078000000eb00cb0a070000027800ed
:1022b400b44a8800010022000000eb008b0a0700ea
:1022c40000027800e44a8800010022000000eb00cc
:1022d400860a070000027800f44a88000002eb0036
:1022e400044b88000002eb00144b880002712200aa
:1022f40001652400209120001f0307000002eb0069
:10230400344e880084a32400644e88005171250053
:102314000080eb00750a070000027800844e8800f4
:1023240004002200944e88000002eb00a44e8800b2
:10233400811a26000080eb006c0a07000002780076
:10234400c44e880004002200d44e88000002eb0032
:10235400e44e8800c44e800084007800c0c224008b
:102364009d0a070000027800f44e88000100220054
:102374000000eb005d0a070000027800244f88008b
:10238400010022000000eb00580a07000002780058
:10239400344f88000002eb00444f88000002eb0039
:1023a400544f88000002eb00c44f88008000eb000b
:1023b4000080eb004d0a070000027800e44f88001b
:1023c40004002200f44f88000002eb00045088004f
:1023d4008000eb000080eb00440a07000002780054
:1023e4002450880004002200345088000002eb00ce
:1023f4004450880024508000840078000000eb00e2
:10240400750a070000027800545088000100220079
:102414000000eb00350a07000002780084508800b1
:10242400010022000000eb00300a070000027800df
:10243400945088000002eb00a45088000002eb00d6
:10244400b45088000271220001e82300609c20003f
:10245400c90207000002eb00644b8800846d2d0064
:10246400944b88008000eb000080eb001f0a0700fb
:1024740000027800b44b880004002200c44b88009a
:102484000002eb00d44b8800118a2d000080eb0081
:10249400160a070000027800f44b880004002200aa
:1024a400044c88000002eb00144c8800f44b8000bc
:1024b4008400780000b22c00470a0700000278006c
:1024c400244c88000100220000802200070a070033
:1024d40000027800544c88000100220090992100e9
:1024e400020a070000027800644c8800843e200041
:1024f400744c880044012000844c8800c4ce22001f
:10250400f44c88008000eb000080eb00f709070022
:1025140000027800144d880004002200244d880035
:102524000002eb00344d8800b11124000080eb0060
:10253400ee09070000027800544d880004002200d0
:10254400644d88000002eb00744d8800544d8000f7
:1025540084007800400d23001f0a07000002780061
:10256400844d88000100220090192200df09070031
:1025740000027800b44d88000100220060e62100ca
:10258400da09070000027800c44d8800843e200068
:10259400d44d880044012000e44d88000002eb0083
:1025a400144e88000082eb00244e88000002eb00e9
:1025b400b44c88000082eb00c44c88000002eb009d
:1025c40004518800846d2d00345188008000eb0094
:1025d4000080eb00c5090700000278005451880010
:1025e40004002200645188000002eb00745188004a
:1025f400118a2d000080eb00bc090700000278005e
:102604009451880004002200a45188000002eb00c9
:10261400b4518800945180008400780000b22c00ea
:10262400ed09070000027800c4518800010022006f
:1026340000802200ad09070000027800f4518800f0
:102644000100220090992100a809070000027800e7
:1026540004528800843e2000145288004401200063
:1026640024528800c4ce2200945288008000eb00db
:102674000080eb009d09070000027800b452880036
:1026840004002200c45288000002eb00d4528800e7
:10269400b11124000080eb009409070000027800c7
:1026a400f452880004002200045388000002eb0066
:1026b40014538800f452800084007800400d2300f5
:1026c400c509070000027800245388000100220095
:1026d40090192200850907000002780054538800ed
:1026e4000100220060e62100800907000002780052
:1026f40064538800843e2000745388004401200001
:10270400845388000002eb00b45388000082eb007d
:10271400c45388000002eb00545288000082eb008e
:10272400645288005516800004042000048262006c
:1027340004f0a7000402ea000402e9004f22de00cc
:10274400044278000482fb00610262004622dd003c
:1027540056168000f5fb2f00850263000482720088
:1027640054168800d762a900d602a800d742a9004f
:10277400d702a900c4e2a800cac2a900cbe2a800fb
:10278400c4c2a900d042a800d662a800e2a2a80050
:10279400cae2a900ca42a900e282a800cbc2a900e9
:1027a400d6c2a800d6a2a800c522a900d362a90057
:1027b400d202a900d242a800cdc2a800cda2a8008e
:1027c400d222a800d322a900d342a900d302a9008f
:1027d400c182a800c1a2a800c0e2a900c6c2a90083
:1027e400c7e2a900c1c2a800c1e2a800e5a2a800ee
:1027f400e582a800e5c2a800e5e2a800d282a8000c
:10280400d2e2a800d382a800d3a2a800cc62a80078
:10281400cc82a800e502a800e522a800c142a800d5
:10282400c0c2a900cc42a900d262a900dea2a900bc
:10283400c6e2a900c642a900de82a900cde2a90031
:10284400c7c2a900d2c2a900d2a2a900c122a9006c
:102854008e00a9008600a900e40480000400a10001
:102864000410a0000420a000e40488008220a90031
:102874008c60a9008460a900a404800004c0a000a6
:1028840004d0a10004e0a000a40488008d60a90085
:102894008560a900c404800004c0a00004d0a00086
:1028a40004e0a100c404880085e0a900c200a800d7
:1028b4008de0a800d404800004c0a10004d0a100cd
:1028c40004e0a000d40488008d20a900c404800082
:1028d4000440a0000450a1000460a000c4048800c7
:1028e4008d40a900c40480000440a0000450a1004d
:1028f4000460a000c40488008940a9009140a90094
:10290400440580000480a0000490a00004a0a0005e
:1029140044058800043a80000480a1000490a100ca
:1029240004a0a00004b0a000043a8800f4002f0022
:10293400341088001406200024108800f1fb2d00b8
:10294400b0532b00b0f60700f1fb2d00a0f32b00d1
:10295400b0f6070004102000841c88000410200036
:10296400842288000042eb0004407800b6e8b700f7
:102974000042eb0004407800b7e8b7000042eb00e7
:1029840004407800f8e8b7000042eb000440780007
:10299400f9e8b70004f02f00641088004400200018
:1029a400a4108800f475270074108800d4fa250058
:1029b4002408880054fa25008408880094d0230051
:1029c400640888000002eb003408880084c0a90071
:1029d400d4fa2d009408880044422f00740888001b
:1029e40054f82500f4088800d4f925000409880067
:1029f4000002eb00c408880086c0a900440d23002f
:102a0400e4088800f40d2000d4478800e40d200079
:102a1400f447880004022000044888000002eb0008
:102a24001448880014c0b3000440780004e9b700d7
:102a340004022000e4478800a08f200065180700e6
:102a440004c4b300044078000ce9b7000042eb0072
:102a5400044078000de9b7000402200034488800df
:102a640004022000444888000402200054488800de
:102a740000c2eb00044078000ee9b70000c2eb008e
:102a8400044078000fe9b700311307004f047800c1
:102a94000080fa00000006000200fa000002eb00c9
:102aa400040f78000002eb00a4b888004007a900d6
:102ab40040e7a90040c7a9004027a90041e7a900b1
:102ac4004087a90041c7a9000002eb00d4bc8800dc
:102ad4000002eb00f4bc8800a08f200074180700eb
:102ae4000041eb00a1c0b30060902000a11c0700ce
:102af400000278001e0f72000041eb00a1c0b30079
:102b0400609020009b1c0700000278001e0f7200da
:102b14000041eb00a1c0b30060902000951c0700a9
:102b2400000278001e0f7200e49020001442780026
:102b34000441780041c1b300609020008d1c07005f
:102b4400000278001e0f7200f490200014427800f6
:102b54000441780051c1b30060902000851c070037
:102b6400000278001e0f720082cfb3008040eb0099
:102b7400609020007f1c0700000278001e0f720086
:102b84000041eb0011c0b30060902000791c0700e5
:102b9400000278001e0f72000041eb0021c0b30058
:102ba40060902000731c0700000278001e0f720062
:102bb4000041eb0031c0b300609020006d1c0700a1
:102bc400000278001e0f720004f02f009e026200c3
:102bd40004a02f00848f520007003a00a5b880009b
:102be4000408200004827200a4b8880014b880008d
:102bf4000402e80014b888008040eb0060902000d4
:102c04008e1c070000027800040f7800f40f2000e7
:102c14009e026200840f2000848f5200070032005d
:102c2400a5b880000408200004827200a4b88800bb
:102c340014b880000402e80014b888006007070094
:102c4400670707006a0707000080fa000000060013
:102c54000600fa00f4bc80000402e800f4bc88001a
:102c6400cbe2a90020862000caf50700c086200018
:102c7400c8f50700420620004106200020912000ec
:102c8400ef0007004206200041062000609c20005f
:102c9400eb000700420620004106200040ad200062
:102ca400e70007004206200041062000a0a72000fc
:102cb400e3000700420620004106200080b82000ff
:102cc400df0007004206200041062000e0b2200099
:102cd400db0007003e07070035070700e50707008c
:102ce4008c60a90055168000040420000482620050
:102cf40004f0a7000402ea000402e9004f22de0007
:102d0400044278000482fb00610262004622dd0076
:102d140056168000f5fb2f008502630004827200c2
:102d240054168800e80507005516800004042000a6
:102d34000482620004f0a7000402ea000402e9002d
:102d44004f22de00044278000482fb00610262002c
:102d54004622dd0056168000f5fb2f008502630035
:102d64000482720054168800351780000400240081
:102d740004826200e00f520014003a0064428000b2
:102d840051c32000040078001308070000027800f3
:102d9400040f78000001eb009e00780020912000d1
:102da400750007007442800051c3200004007800bd
:102db4000908070000027800040f78000001eb0006
:102dc4009e007800609c20006b000700a483200014
:102dd40014427800e04f52000d003a00a4488000ed
:102de40004007800970a070000027800140798008e
:102df4001e00900077100700000278002407980056
:102e04001e019000ae009000a0a720005a00070009
:102e140055168000040420000482620004f0a70018
:102e24000402ea000402e9004f22de0004427800b2
:102e34000482fb00610262004622dd005616800017
:102e4400f5fb2f008502630004827200541688008b
:102e5400c5010700551680000404200004826200a6
:102e640004f0a7000402ea000402e9004f22de0095
:102e7400044278000482fb00610262004622dd0005
:102e840056168000f5fb2f00850263000482720051
:102e940054168800c404070055168000040420005a
:102ea4000482620004f0a7000402ea000402e900bc
:102eb4004f22de00044278000482fb0061026200bb
:102ec4004622dd0056168000f5fb2f0085026300c4
:102ed400048272005416880044c4b300044078008d
:102ee4004ae8b700fc10070064c0b300044078004f
:102ef4004ae8b7000080fa00000006000000fa006b
:102f040011e1a80021e1a800f4cf270004158800ee
:102f140084fe20001415880064342e0024158800d3
:102f240034fe2e003415880074002c0044158800eb
:102f340084ff230054158800a1e2a8008560a9003d
:102f44008d60a8008540a9008d40a8008520a900b7
:102f54008d20a8000de2a800e282a8000042eb0048
:102f6400044078008cf7b700f11107000060fe0000
:102f74000080fa00000006000600fa00000f780046
:102f840011079800220798001e027800b4029000ee
:102f94001e029000848f5200080031001e02780047
:102fa400b40290001e0278001502980064b88000f4
:102fb4000402e80064b88800030037001e027800a9
:102fc4009e029000150298001e027800941a900048
:102fd4002e029000848f5200080031001e027800f7
:102fe400941a90001e0278007512980064b880004c
:102ff4000402e80064b88800030037001e02780069
:10300400ae02900075129800a584200095427800c5
:1030140044c2b30084cf52000400320042062000b0
:10302400410620001e007800050007001e007800fd
:10303400540007000060fe000080fa000000060053
:103044000a00fa0020079800310798004207980008
:10305400be0290004e029000848f52000900390095
:103064002e029000940290002e02900025029800f7
:103074002e029000f41290002e029000051a98007f
:103084003c0037002e02900014029000050020003e
:10309400048fbe003e029000050020001e03900035
:1030a40004b3b900060378009e03780005b8b9009c
:1030b40080037800070343009e037800040278002d
:1030c4000722b8000503430086027800048fbe007f
:1030d400048fbe004e029000050020000401be00d3
:1030e4001e00be00f6f407000002be00048fbe00fe
:1030f4009e0278002e029000250298002e02900075
:103104007412900005002000048fbe003e0290005f
:10311400050020001e03900004b3b90006037800e4
:103124009e03780005b8b9008003780007034300c4
:103134009e037800040278000722b80005034300c8
:1031440086027800048fbe00048fbe004e029000f9
:10315400050020000401be001e00be00d8f40700d4
:103164000002be00048fbe009e0278002e02900072
:10317400051a98002e009000020007000080fa0053
:10318400000006000600fa00200798002e029000b6
:10319400d40290002e029000240290008500780052
:1031a400040078000c07070000027800040f780080
:1031b4002e02900064029000840078001e007800c3
:1031c4000507070000027800040f78002e02900023
:1031d40074029000e00f52000c0034002e029000a4
:1031e400740290000482ea009e0f52000300310032
:1031f4000082eb00040f78000f0037002e029000cd
:10320400740290001e0f42000b0037002e02900043
:10321400740290000402ea009e0f5200030036007c
:103224000002eb00040f7800030037002e02900028
:10323400740290001e0f42002e0290009e0278003d
:10324400450298002e029000b41a90002e029000bd
:10325400041a90008500780004007800de06070058
:1032640000027800140798002e029000441a90007f
:10327400840078001e009000d70607000002780042
:10328400140798002e029000541a9000e00f520088
:103294000f0034002e029000541a90008482ea0039
:1032a4001e029000848f5200030031000082eb0064
:1032b40014079800150037002e029000541a90004d
:1032c4009e02900004824200140798000f00370009
:1032d4002e029000541a90000402ea00840278003e
:1032e4001e029000848f5200030036000002eb009f
:1032f40014079800050037002e029000541a90001d
:103304009e02900004824200140798002e0290004e
:103314009e029000251a98002e029000940a9000b4
:103324002e029000240290008500780004007800aa
:10333400a906070000027800040f78002e0290000e
:10334400240a9000840078001e007800a20607007a
:1033540000027800040f78002e029000340a9000d6
:10336400e00f52000c0034002e029000340a90004a
:103374000482ea009e0f5200030031000082eb0039
:10338400040f78000f0037002e029000340a9000da
:103394001e0f42000b0037002e029000340a9000ea
:1033a4000402ea009e0f5200030036000002eb0004
:1033b400040f7800030037002e029000340a9000b6
:1033c4001e0f42002e029000740a900084007800c0
:1033d4001e0078008006070000027800ae0290000c
:1033e400d40a98002e029000041290008400780001
:1033f4001e0078007806070000027800ae029000f4
:10340400e40a98002e029000d40a90002e02900044
:1034140014129000848f5200040031002e02900098
:10342400941290002e029000550a98002e029000eb
:10343400f41a90002e029000041a9000850078007f
:10344400040078006406070000027800140798005e
:103454002e02900004229000840078001e00900048
:103464005d06070000027800140798002e02900001
:1034740014229000e00f52000f0034002e0290003e
:10348400142290008482ea001e029000848f52006d
:10349400030031000082eb00140798001500370088
:1034a4002e029000541a90009e0290000482420062
:1034b400140798000f0037002e0290001422900089
:1034c4000402ea00840278001e029000848f5200f5
:1034d400030036000002eb001407980005003700d3
:1034e4002e029000142290009e029000048242005a
:1034f400140798002e029000542290008400780053
:103504001e0090003406070000027800ae0290000e
:10351400b42298002e029000642290008400780067
:103524001e0090002c06070000027800ae029000f6
:10353400c42298002e029000b42290002e02900023
:1035440074229000848f5200040031002e029000f7
:10355400f42290002e029000352298000060fe00b4
:103564000080fa00000006001200fa00a400200007
:10357400d4bc8800845c800014079800b45980008f
:103584002407980014548000340798007455800070
:1035940044079800e456800054079800445880007b
:1035a40064079800d448800074079800744e800023
:1035b400040f980014c0b300044f78000042eb00dd
:1035c40014479800100037000e82e8008400780049
:1035d400a08f20004216070000427800044f7800b4
:1035e4001e4290000442e800144798001e427800ee
:1035f400e04f52000300320054b880000402e80097
:1036040054b888000060fe009e4278000582fb00ea
:103614000402ea004f22de008442780014c0b300a2
:103624001e439000f34f5300010036000042eb00ac
:1036340004c26200e04f5200e3ff3a001e429000d1
:10364400f34f520002003600000220008c120700e3
:103654000080fa00000006000c00fa00940020002c
:10366400d4bc8800043a800061026200e00f52007a
:1036740003003200a4b880000440a000a4b888006d
:10368400053a80000408200004826200e00f520022
:1036940004003200a5b880000402200004827200f5
:1036a400a4b88800053a8000040420000482620063
:1036b400e00f520004003200a5b88000040420008a
:1036c40004827200a4b88800043a80006202620096
:1036d400e00f520003003200a4b880000400a000f0
:1036e400a4b88800053a800004002800048262001f
:1036f400e00f520003003200a4b880000410a000c0
:10370400a4b88800043a800070026200e00f5200fe
:1037140003003200a4b880000420a000a4b88800ec
:10372400053a80000400240004826200e00f520085
:1037340003003200a4b880000430a000a4b88800bc
:103744000060fe003504800004042000048262004e
:10375400e00f5200d400320086c0a900e442800089
:103764000402e8006f026200e4428800e442800040
:10377400e00f520015003a0055168000040820009e
:1037840004826200e00f520002003200cae2a90083
:1037940001003700cae2a80045428000d407200097
:1037a40004aab900040278008402d10034428000e3
:1037b40085007800040078002d06070000027800d8
:1037c400344288000002eb004442880044782d0013
:1037d40075012000048fbe0055bb800084152000b5
:1037e400848f520002003e009415200054bb8800d0
:1037f40054bb8000050020000401be001e00be0072
:103804002ff307000002be00048fbe001e027800e2
:1038140064bb880025048000040820000482620040
:10382400e00f5200020032000002eb0064bb88008b
:10383400351780000400220004826200e00f520069
:1038440006003200f4418000e00f52000300320011
:10385400bf0f0700b60f0700ad0f07003517800034
:103864000400220004826200e00f520003003a00c8
:1038740014002000f4418800020037000002eb002d
:10388400f4418800ec010700a4832000144278006e
:10389400e04f52000d003a00a44880000400780074
:1038a400e807070000027800240798002e00900023
:1038b400c80d070000027800340798002e0190001c
:1038c400be009000a0a72000abfd0700a484200048
:1038d40014427800f44f520005003200a584200001
:1038e4009542780044cab30084cf520018003a00cd
:1038f400420620008000eb0020912000d0fd07004c
:10390400420620008000eb0020912000ccfd07003f
:10391400420620008000eb0040ad2000c8fd0700f7
:10392400420620008000eb00a0a72000c4fd070091
:10393400420620008000eb0080b82000c0fd070094
:10394400420620008000eb00e0b22000bcfd07002e
:10395400610e0700f011070000027800e00f52002a
:1039640003003200c4e2a900d042a90002003700db
:10397400c4e2a800d042a8000484200014427800c5
:103984000442e8000440780040e8b70004842000c2
:10399400144278006f4262000440780040e8b700a7
:1039a4000484200014427800e04f520001003a00e1
:1039b4003f000700a1000700a5842000954278007d
:1039c40044c4b30084cf520005003a0025048000ab
:1039d4000404200004826200e00f5200040032005c
:1039e400e1fe0700070407000002eb00b441880071
:1039f400b4418000e00f520029003a0015418000d4
:103a040014bb8000848f52000300310014418000f5
:103a14000402e8001441880004bb80000500200073
:103a240044079800550798001441800005002000c1
:103a34005e03900004b3b90006037800ce0390003f
:103a440005b8b9008003780007034300ce03900053
:103a5400040278000722b8000503430086027800b8
:103a640044079800550798004407980055079800a4
:103a740014bb8000050020000401be004e0090002d
:103a8400de0090008ef207000002be00440798009a
:103a9400550798004e02900024bb880002003700ae
:103aa4000002eb00144188000080fa0000000600c8
:103ab4000200fa0084002000d4bc8800d55c800099
:103ac400645c80008500780004007800c20407006c
:103ad40000027800040f7800e45c80008400780021
:103ae4001e007800bc04070000027800040f780070
:103af400f45c80001e0f42001e0278000402d10014
:103b040054438800c45c80000402d100444388000c
:103b14002086200003f20700055a80009459800093
:103b24008500780004007800ab04070000027800e8
:103b3400040f7800145a8000840078001e00780076
:103b4400a504070000027800040f7800245a8000be
:103b54001e0f42001e0278000402d100a443880014
:103b6400f45980000402d10094438800c0862000e8
:103b7400ecf1070034438000040f78001e02780043
:103b8400e00f520002003d000002eb00040f780039
:103b94001e02780004024200040f780004d02700bb
:103ba4009e027800848f52000200360004d0270061
:103bb400040f78000002eb00a45c88000002eb0014
:103bc400945c88001e027800b45c88008443800002
:103bd400040f78001e027800e00f520002003d003e
:103be4000002eb00040f78001e0278000402420079
:103bf400040f780004d027009e027800848f5200be
:103c04000200360004d02700040f78000002eb0005
:103c1400d45988000002eb00c45988001e027800c1
:103c2400e4598800e0b2200056fd070080b8200067
:103c340054fd07000080fa00000006000a00fa00a4
:103c44001442800005002000048fbe0064bb800085
:103c5400050020001e03900004b3b9000603780099
:103c64009e03780005b8b900800378000703430079
:103c74009e037800040278000722b800050343007d
:103c840086027800048fbe00048fbe001e02be00b0
:103c94004a2bdd004622de0004027300c62ade0041
:103ca400048fbe001e0290006d22b9000403780048
:103cb4001e0278006022b900040278000403430065
:103cc4009e027800d4002000042ab80005034300b3
:103cd40086027800048fbe00048fbe001e02be0060
:103ce400452bdd004b22de0004027300cb2ade00ec
:103cf400048fbe00e4ff2f00050020001e03be0059
:103d0400840f5300858f5b00030036000082eb00b4
:103d140024428800020037001e02780024428800f2
:103d240044b7800005042000850f520014003200bf
:103d340005042000850f520007003e000502200004
:103d4400850f52001c00320005032000850f52002d
:103d54000f0032002e00370005032100850f5200aa
:103d64001d00320005042100850f520016003200a8
:103d740005022100850f5200210032002400370083
:103d84002442800005002000048fbe002400370078
:103d940055b78000244280000001eb0085007800c4
:103da40004007800041907000002780005002000d0
:103db400048fbe001a003700244280000500200052
:103dc400048fbe0016003700244280000500200046
:103dd400048fbe001200370065b7800024428000c3
:103de4000001eb008500780004007800f218070059
:103df4000002780005002000048fbe000800370090
:103e04002442800005002000048fbe000400370017
:103e14002442800005002000048fbe000000000042
:103e24001e02be00492bdd004722de00040273009f
:103e3400c72ade00048fbe009e027800f40320002f
:103e440004826200340798003e0290002407980020
:103e54002e029000e00f520002003c000002eb0032
:103e640024079800ae029000e4032000848f5200df
:103e740002003400f403200024079800ae029000ee
:103e840035079800be029000f4032000048262000b
:103e940034079800a58420009542780044c4b300f8
:103ea40084cf52000f003200a58420009542780090
:103eb40044c3b30084cf52000a003200a58420001a
:103ec4009542780054c3b30084cf520005003200f9
:103ed400a58420009542780084cab30084cf5200a0
:103ee4000a003a003e02900084024200244828005e
:103ef400048242001403780046079800420620001a
:103f0400ce00900040ad20004dfc07000080fa0078
:103f1400000006000400fa0074002000d4bc8800ed
:103f2400251680000420200004826200e00f520065
:103f340037003200d6c2a900800c20000100200006
:103f44000a19070021c0b3000000eb00fd160700aa
:103f54000002be00048fbe000400200015112100e1
:103f64001e03be00840f5300858f5b0006003a00d9
:103f74000002eb00f442880034b880000402e80038
:103f840034b88800020037001e027800f44288002a
:103f9400d6c2a800800c200001002000f3180700fe
:103fa400d6a2a900800c200001002000ef18070011
:103fb40021c0b3000000eb00e21607000002be00bf
:103fc400048fbe0004002000151121001e03be0052
:103fd400840f5300858f5b0006003a000002eb005b
:103fe4000443880034b880000402e80034b8880030
:103ff400020037001e02780004438800d6a2a800fd
:10400400800c200001002000d818070007003700aa
:104014000002eb00044388000002eb00f442880035
:1040240044b880000402e80044b88800c522a9000e
:104034000080fa00000006000200fa00640020007c
:10404400d4bc880040ce2000d618070000027800b7
:10405400040f7800644280009e0078000400780019
:1040640003040700000278006442880040de200058
:10407400cc18070000027800040f78007442800016
:104084009e00780004007800f9030700000278001d
:104094007442880035178000040024000482620002
:1040a400e00f520002003a0074428000f44088009d
:1040b400400e2100bb18070000027800040f7800ae
:1040c400b45580009e00780004007800e8030700df
:1040d40000027800b4558800401e2100b118070082
:1040e40000027800040f7800545480009e00780089
:1040f40004007800de0307000002780054548800ae
:10410400403e2100a718070000027800040f780041
:10411400245780009e00780004007800d403070030
:104124000002780024578800402e21009d180700c3
:1041340000027800040f7800845880009e00780004
:1041440004007800ca03070000027800845888003d
:10415400404e21009318070000027800040f7800f5
:10416400144980009e00780004007800c003070012
:104174000002780014498800405e21008918070075
:1041840000027800040f7800b44e80009e0078008e
:1041940004007800b603070000027800b44e8800db
:1041a4000080fa00000006000600fa00f4cf2700a1
:1041b40004158800e4fd20001415880064342e00e2
:1041c4002415880034fe2e003415880074002c0059
:1041d4004415880004fc230054158800a1e2a800bb
:1041e4000002eb00040f780080003700000000009c
:1041f400151580000408200004826200e00f5200bc
:10420400fbff32000002eb00140798003400370073
:10421400051480001e0278000403420044ee2000ce
:1042240004024300050a7800151480001e02780079
:104234000403420044fe200004024300050a7800ff
:10424400251480001e02780004034200440e21005d
:1042540004024300050a7800351480001e02780029
:1042640004034200441e210004024300050a7800ae
:10427400451480001e02780004034200442e2100ed
:1042840004024300050a7800551480001e027800d9
:1042940004034200443e210004024300050a78005e
:1042a400651480001e02780004034200444e21007d
:1042b40004024300050a7800751480001e02780089
:1042c40004034200445e210004024300050a78000e
:1042d4001e0fe8001e0290000402e8001407980074
:1042e4001e029000e70f5200c9ff360000000000d4
:1042f400151580000408200004826200e00f5200bb
:10430400fbff3a000002eb0014079800340037006a
:10431400851480001e0278000403420044ee20004d
:1043240004024300050a7800951480001e027800f8
:104334000403420044fe200004024300050a7800fe
:10434400a51480001e02780004034200440e2100dc
:1043540004024300050a7800b51480001e027800a8
:1043640004034200441e210004024300050a7800ad
:10437400c51480001e02780004034200442e21006c
:1043840004024300050a7800d51480001e02780058
:1043940004034200443e210004024300050a78005d
:1043a400e51480001e02780004034200444e2100fc
:1043b40004024300050a7800f51480001e02780008
:1043c40004034200445e210004024300050a78000d
:1043d4001e0fe8001e0290000402e8001407980073
:1043e4001e029000e70f5200c9ff3600f4072000b8
:1043f4009e027800848f52007cff3600a1e2a9005f
:1044040040ee2000e7170700000278002407980018
:104414002e029000f459880040fe2000e1170700a6
:1044240000027800240798002e029000c45c8800e3
:10443400400e2100db1707000002780024079800d3
:104444002e029000b4558800401e2100d5170700a5
:1044540000027800240798002e029000545488002b
:10446400403e2100cf17070000027800240798007f
:104474002e02900024578800402e2100c9170700ff
:1044840000027800240798002e02900084588800c7
:10449400404e2100c317070000027800240798004b
:1044a4002e02900014498800405e2100bd170700c9
:1044b40000027800240798002e029000b44e880071
:1044c4000080fa00000006000600fa00f4cf27007e
:1044d40004158800e4fd20001415880064342e00bf
:1044e4002415880034fe2e003415880074002c0036
:1044f400441588000403200054158800a1e2a80094
:104504000002eb00040f7800860037000000000072
:10451400151580000408200004826200e00f520098
:10452400fbff32000002eb0014079800370037004d
:10453400051480001e0278000403420044ce2000cb
:1045440004024300050a7800151480001e02780056
:104554000403420044de200004024300050a7800fc
:104564001e0fe800251480001e0278000403420098
:1045740044ce200004024300050a7800351480006c
:104584001e0278000403420044de200004024300bb
:10459400050a78001e0fe800451480001e0278000a
:1045a4000403420044ce200004024300050a7800bc
:1045b400551480001e0278000403420044de2000eb
:1045c40004024300050a78001e0fe8006514800009
:1045d4001e0278000403420044ce2000040243007b
:1045e400050a7800751480001e0278000403420056
:1045f40044de200004024300050a78001e0fe80090
:104604001e0290000402e800140798001e029000a5
:10461400e30f5200c6ff36000000000015158000ad
:104624000408200004826200e00f5200fbff3a00fd
:104634000002eb001407980037003700851480004f
:104644001e0278000403420044ce2000040243000a
:10465400050a7800951480001e02780004034200c5
:1046640044de200004024300050a78001e0fe8001f
:10467400a51480001e0278000403420044ce2000ea
:1046840004024300050a7800b51480001e02780075
:104694000403420044de200004024300050a7800bb
:1046a4001e0fe800c51480001e02780004034200b7
:1046b40044ce200004024300050a7800d51480008b
:1046c4001e0278000403420044de2000040243007a
:1046d400050a78001e0fe800e51480001e02780029
:1046e4000403420044ce200004024300050a78007b
:1046f400f51480001e0278000403420044de20000a
:1047040004024300050a78001e0fe8001e02900010
:104714000402e800140798001e029000e30f520000
:10472400c6ff3600f40720009e027800848f5200f2
:1047340076ff3600a1e2a90040ce20001917070039
:1047440000027800240798002e029000644288003a
:1047540040de2000131707000002780024079800a9
:104764002e029000744288000080fa0000000600c7
:104774000400fa0094028000040f7800ff3ffc005c
:10478400140280000450a0000460a0000470a00083
:10479400140288001e027800940288000000880039
:1047a4000000000000000000000000000000000005
:1047b4008c60a9008e00a900940280001407980060
:1047c400ff3ffc00140280000450a1000460a1001b
:1047d4000470a100140288001e0290009402880054
:1047e4000000880003000700cbe2a8000080fa0064
:1047f400000006002200fa0004782100040f78006b
:104804001e02780014027800440798001e8fe80006
:104814001e02780014027800340798001e8fe80006
:104824001e02780014027800240798001e8fe80006
:104834001e0278001402780014079800e47821001e
:10484400040f78001e0278001402780064079800b0
:104854001e8fe8001e0278001402780054079800a6
:104864000e82e8008400780010002000220f070068
:104874000080fa00000006000000fa005c00070057
:104884004f00070056000700420620008000eb009e
:1048940020912000eaf90700420620008000eb0086
:1048a40020912000e6f90700420620008000eb007a
:1048b40040ad2000e2f90700420620008000eb0032
:1048c400a0a72000def90700420620008000eb00cc
:1048d40080b82000daf90700420620008000eb00cf
:1048e400e0b22000d6f9070020862000a9ee0700d8
:1048f400c0862000a7ee070005e1a9008e00a900ec
:104904008c60a9008600a9008460a900c4c2a90023
:104914000080fa00000006000000fa0034000700de
:1049240005e1a9008e00a9008c60a9008600a900f9
:104934008460a900c4c2a9000080fa000000060037
:104944000000fa002086200092ee0700c0862000b6
:1049540090ee0700420620008000eb00a0a7200094
:10496400b7f90700420620008000eb0040ad2000ac
:10497400b3f90700420620008000eb00e0b22000fb
:10498400aff90700420620008000eb0080b8200049
:10499400abf907000e000700050007000002eb005a
:1049a4003408880084c0a9000080fa0000000600d2
:1049b4000000fa00d702a8000080fa0000000600f8
:1049c4000000fa00d702a9000080fa0000000600e7
:1049d4000000fa00d722a8000080fa0000000600b8
:1049e4000000fa00d722a9000080fa0000000600a7
:1049f4000000fa00d762a900d602a8000080fa00dd
:104a0400000006000400fa000002eb00040f780026
:104a14000002eb001407980054002000d4bc880066
:104a2400a58420009542780044c3b30084cf52008b
:104a34000f003200a58420009542780044c4b300de
:104a440084cf52000a003200a584200095427800e9
:104a540084cab30084cf520005003200a58420002c
:104a64009542780054c3b30084cf520005003a0045
:104a74009e029000f4f72f0004826200140798004d
:104a8400040037009e029000040820000482720093
:104a94001407980054b98000e00f5200040032005b
:104aa4001e0290000400a0001407980004003700c0
:104ab4009e029000e4ff2f00048262001407980015
:104ac40024b98000e00f5200020032001e20a00032
:104ad40002003700b4ff2f001e0f6200c5b880002b
:104ae40004f02f0004826200e00f52000400320040
:104af4001e0290000440a000140798000400370030
:104b04009e029000f4fe2f000482620014079800b5
:104b1400c5b88000f40f200004826200e00f520048
:104b2400040032001e0290000410a0001407980034
:104b3400040037009e029000d4ff2f00048262001c
:104b440014079800f5b8800004f02f000482620076
:104b5400e00f5200020032001e00a00002003700e5
:104b6400e4ff2f001e0f6200f5b88000f40f200050
:104b740004826200e00f5200020032001e10a00006
:104b840002003700d4ff2f001e0f6200a58420000e
:104b94009542780044c4b30084cf520004003a0024
:104ba4001e0290000420a00014079800040037009f
:104bb4009e029000b4ff2f00048262001407980044
:104bc400e4902000144278000482fb009e0f5200ff
:104bd400100032001e02780004427800044078007d
:104be4000ee9b700e49020001442780004417800f4
:104bf40041c1b300609020005e14070000027800f9
:104c0400e00f52000300320014b880000402e800f0
:104c140014b88800f4902000144278008482fb00c9
:104c24001e029000848f5200100032001e02900079
:104c340004427800044078000fe9b700f4902000a3
:104c4400144278000441780051c1b3006090200000
:104c54004814070000027800e00f520003003200fd
:104c640014b880000402e80014b888000080fa0038
:104c7400000006000000fa0015168000040022005f
:104c840004826200e00f5200050032000042eb0093
:104c940004407800e6f6b700cbc2a9000400370050
:104ca40014c0b30004407800e6f6b700cbc2a800f5
:104cb400d762a800d602a90005e1a9000002eb0012
:104cc400040888008460a9008c60a8007417200080
:104cd4001408880005e1a8000002eb0034088800ed
:104ce40084c0a9000080fa00000006000a00fa004f
:104cf40030079800410798003e029000050020000c
:104d040014079800250798001e029000ae02900038
:104d1400c022dd0004002000140798002507980035
:104d24004e029000050020000401be001e00900009
:104d3400ae009000e2ed07000002be0014079800e8
:104d4400250798001e029000ae0290004d2bdd0056
:104d54004322de0004027300c32ade001407980015
:104d6400250798001e039000ae0390000400200065
:104d7400f5ff2f000600780007037800840378000d
:104d840005027800070060000402630005002000ab
:104d9400c022dd00040020000403be006102b8004c
:104da4000403730085837300e00f5300e08f5b00fe
:104db400030032000082eb00040f78000200370089
:104dc4001e029000040f78001e0278000400780090
:104dd4000080fa00000006000800fa00200798008e
:104de400310798002e02900005002000048fbe00b9
:104df4003e029000050020001e03900004b3b90099
:104e0400060378009e03780005b8b9008003780093
:104e1400070343009e037800040278000722b800c9
:104e24000503430086027800048fbe00048fbe0091
:104e34001e02be00432bdd004d22de00040273007f
:104e4400cd2ade00048fbe00f4ff2f0005002000f1
:104e54001e03be00840f5300858f5b0006003600de
:104e6400f4ff2f0005002000048fbe0074b88000fa
:104e74000402e80074b888001e0278002407980031
:104e84002e029000040078000080fa000000060062
:104e94000a00fa0030079800410798003e0290008b
:104ea400e00f520002003a004e02900034079800ce
:104eb4003e02900005002000140798002507980082
:104ec400ae029000f40f200004aab9000403780095
:104ed4001e0290006022b90004027800040343001b
:104ee4009e029000f40f2000042ab800050343003a
:104ef4008602780014079800250798001407980084
:104f0400250798004e029000050020001e03900023
:104f1400ae0390000602420087824a0014079800fc
:104f2400250798001e029000ae029000482bdd0079
:104f34004822de0004027300c82ade001407980029
:104f4400250798001e029000040f78004e0290007e
:104f54009e0f5200020036001e0fe80004003700c6
:104f64004e0290009e0f5200010031001e0fe90016
:104f74001e027800040078000080fa000000060099
:104f84000a00fa0030079800410798003e0290009a
:104f9400e00f520002003a004e02900034079800dd
:104fa4003e02900005002000140798002507980091
:104fb400ae029000f403200004aab90004037800b0
:104fc4001e0290006022b90004027800040343002a
:104fd4009e029000f4032000042ab8000503430055
:104fe4008602780014079800250798001407980093
:104ff400250798004e029000050020001e03900033
:10500400ae0390000602420087824a00140798000b
:10501400250798001e029000ae0290004a2bdd0086
:105024004622de0004027300c62ade00140798003c
:10503400250798001e029000040f78004e0290008d
:105044009e0f5200020036001e0fe80004003700d5
:105054004e0290009e0f5200010031001e0fe90025
:105064001e027800040078000080fa0000000600a8
:105074000a00fa0030079800410798003e029000a9
:10508400e00f520002003a004e02900034079800ec
:105094003e029000050020001407980025079800a0
:1050a4002e0290006f22b900040378001e029000c3
:1050b4006022b90004027800040343009e029000b9
:1050c400f4002000042ab800050343008602780097
:1050d40014079800250798001407980025079800de
:1050e4004e029000050020001e039000ae039000c5
:1050f4000602420087824a00140798002507980098
:105104001e029000ae0290004c2bdd004422de0013
:1051140004027300c42ade001407980025079800cf
:105124001e029000040f78004e0290009e0f520061
:10513400020036001e0fe800040037004e02900003
:105144009e0f5200010031001e0fe9001e0278007c
:10515400040078000080fa000000060000a0fe00b1
:10516400849fbe000000fa00d602a80000000000e0
:10517400000000000000000000000000c522a8009c
:105184008600a9008e00a90044002000d4bc880039
:1051940005e1a9000002eb00040888008400200057
:1051a400140888008c60a9008460a90005e1a800a7
:1051b4000002eb00c44188000000000004088000e5
:1051c400e10f5200fdff3600151680000400210097
:1051d40004826200e00f520003003a001400200031
:1051e400c44188000100370000000000040880006a
:1051f400e20f5200fdff3600151680000400210066
:1052040004826200e00f520003003a001400200000
:10521400c441880001003700000000000408800039
:10522400e20f5200fdff3600151680000400210035
:1052340004826200e00f520002003a0014002000d1
:10524400c44188000002eb00b4408800a41680002a
:1052540070026200e00f520005003200a5168000c3
:105264000408200004826200e00f520002003200b1
:1052740014002000b4408800e2a2a9005408800071
:1052840054bb88000002eb00540888002504800009
:105294000408200004826200e00f52000200320081
:1052a40054422f0054bb880084e0a9000000000091
:1052b4002404800068026200e00f5200fcff320008
:1052c400151680000400220004826200e00f5200e0
:1052d400050032000042eb0004407800e7f6b70016
:1052e400cbc2a9000400370014c0b3000440780006
:1052f400e7f6b700cbc2a800c4c2a900d602a90031
:1053040005e1a9000002eb00040888008460a900fc
:105314008c60a800e41620001408880005e1a800a9
:1053240000000000a416800070026200e00f52002a
:1053340004003a0004088000f30f5200f9ff36001d
:105344000100370000000000a516800004082000ba
:1053540004826200e00f520003003200040880005f
:10536400f30f5200f8ff360004088000f30f5200d8
:105374000300360094b880000402e80094b8880062
:10538400e2a2a800a416800085e0a900446e2100d2
:1053940014427800e04f52000300320074bb8000d6
:1053a4000402e80074bb880014c0b3000440780011
:1053b400e4f6b70014c0b30004407800e5f6b70083
:1053c4000080fa004f02be000080fe00004006008c
:1053d4003600f800809fbe00829fbe00849fbe00fe
:1053e400869fbe000200fa0034002000d4bc88006e
:1053f4008460a9008c60a90005e1a9000042eb00cb
:10540400044f7800a416800064026200e00f52008a
:105414001e0032004006200001002000d3130700c4
:10542400a416800064026200e00f520017003200ec
:105434004006200001002000cc130700a4168000c1
:1054440064026200e00f52001000320040062000a7
:1054540001002000c5130700a41680006402620046
:10546400e00f520009003200400620000100200035
:10547400be130700a416800064026200e00f52000d
:105484000200320000202000c50a0700c4c2a800a0
:105494008600a9008e00a8000080fa004f03be0019
:1054a4004f02be004f01be004f00be003600f9009f
:1054b40000400600801f7800849fbe00861f78008d
:1054c4000000fa00a042a9008560a90055168000da
:1054d4000404200004826200e00f52000200320043
:1054e400cac2a90001003700cac2a80014002000e3
:1054f400d4bc8800546e210014427800e04f52005e
:10550400040032000042eb0004407800e5f6b700e6
:105514006200370024be2000144278000482fb009d
:10552400051480000403420044be2000040243002a
:10553400050a780024be2000144278000482fb008f
:10554400151480000403420044ce200004024300ea
:10555400050a780024be2000144278000482fb006f
:10556400251480000403420044de200004024300aa
:10557400050a780024be2000144278000482fb004f
:10558400351480000403420044ee2000040243006a
:10559400050a780024be2000144278000482fb002f
:1055a400451480000403420044fe2000040243002a
:1055b400050a780024be2000144278000482fb000f
:1055c4005514800004034200440e210004024300e9
:1055d400050a780024be2000144278000482fb00ef
:1055e4006514800004034200441e210004024300a9
:1055f400050a780024be2000144278000482fb00cf
:105604007514800004034200443e21000402430058
:10561400050a780024be2000144278000482fb00ae
:105624008514800004034200442e21000402430038
:10563400050a780024be2000144278000482fb008e
:105644009514800004034200444e210004024300e8
:10565400050a780024be2000144278000482fb006e
:10566400a514800004034200445e210004024300a8
:10567400050a780024be2000144278000442e800a1
:1056840004407800e2ebb70024be20001442780006
:105694000474a10004407800e2ebb700a042a80023
:1056a4000080fa004f0378004f02be004f007800dc
:1056b400004006003600f800809fbe00829fbe00b6
:1056c400849fbe00869fbe000000fa00a5168000dd
:1056d4000408200004826200e00f520012003a0025
:1056e400400620000100200020130700a5168000ba
:1056f4000408200004826200e00f52000a003a000d
:10570400400620000100200018130700a5168000a1
:105714000408200004826200e00f520002003a00f4
:10572400004020003a0a070085e0a9000080fa0042
:105734004f03be004f02be004f01be004f00be002b
:105744003600f90000400600841f78000000fa00cb
:1057540024002000d4bc88008940a90094bb8000a8
:105764000402e80094bb88000080fa004f0278002d
:1057740000400600841f78000000fa00d4002000d6
:10578400d4bc8800143a8000e4bc88000000000007
:10579400000000000000fe000080fa004f027800c4
:1057a40000400600841f78000000fa00e400200096
:1057b400d4bc880000000000000000000000fe00cf
:1057c4000080fa004f02780000400600841f780031
:1057d4000000fa00f4002000d4bc8800000000009f
:1057e400000000000000fe000080fa004f02780074
:1057f40000400600841f78000000fa000401200025
:10580400d4bc880000000000000000000000fe007e
:105814000080fa004f02780000400600841f7800e0
:105824000000fa00c4ab2f00d4bc880000000000c4
:10583400000000000000fe000080fa004f02780023
:10584400004006000c00fa00500798005e02900029
:1058540005002000048fbe005e02900005002000b9
:105864001e03900004b3b900060378009e03780079
:1058740005b8b90080037800070343009e0378004d
:10588400040278000722b80005034300860278006a
:10589400048fbe00048fbe001e02be00422bdd003a
:1058a4004e22de0004027300ceaade00048fbe0086
:1058b4006022b800048fbe001e02be00c62bdd00ad
:1058c4004a22de0004827300caaade00048fbe00ee
:1058d4001e02be0024079800350798005e0290005f
:1058e40005002000048fbe006440800005002000f5
:1058f4001e03900004b3b900060378009e037800e9
:1059040005b8b90080037800070343009e037800bc
:10591400040278000722b8000503430086027800d9
:10592400048fbe00048fbe001e02be00462bdd00a5
:105934004a22de0004027300caaade00048fbe00fd
:105944002e029000be0290003e034200ae834a0045
:105954000602be00240798003507980074408000b2
:1059640005002000048fbe001e03be00423add0085
:10597400ce32de00850272004232dd00048fbe00aa
:105984002e029000be0290003e034200ae834a0005
:105994000602be002407980035079800ae03900065
:1059a400470798004e029000040078000080fa0037
:1059b400000006000000fa00741080006202620019
:1059c400e00f5200010032000e22a900c478210029
:1059d40014427800e24f5200010032000700070031
:1059e400c478210014427800e24f520001003a00ca
:1059f400010107000080fa00000006000400fa001c
:105a0400881f78003e00370060872000701107006f
:105a140000427800044f78001e427800ef4f4200a5
:105a240037003a00608720006911070000427800bf
:105a3400044f78001e427800ee4f420030003a00d6
:105a4400608720006211070000427800044f78004c
:105a54001e427800ed4f420029003a006087200082
:105a64005b110700004278000440780088f7b70013
:105a74006087200056110700004278000440780037
:105a84008af7b700608720005111070000427800b0
:105a9400044078008bf7b700608720004c110700a2
:105aa400004278000440780089f7b700608720003e
:105ab40047110700004278000482fb001407980095
