:020000040000fa
:080000000001040000000000f3
:020000040000fa
:10000800b23200005e320000763200008a32000010
:100018009e320000b2320000b2320000b23200005c
:10002800b2320000b2320000b2320000262f0000c7
:10003800b2320000b2320000b2320000b232000028
:10004800b23200002040000050400000f8300000ac
:10005800b2320000b2320000b2320000fa310000c1
:100068006a2d0000b2320000b2320000b232000045
:10007800b2320000b2320000b2320000b2320000e8
:10008800b2320000b2320000b2320000b2320000d8
:10009800b2320000b2320000b2320000b2320000c8
:1000a800b2320000b2320000b2320000b2320000b8
:1000b800b2320000b2320000b2320000b2320000a8
:1000c800b2320000b232000044320000b232000006
:1000d800b2320000b2320000b2320000b232000088
:1000e800b2320000b2320000b2320000b232000078
:0800f800b2320000b232000038
:020000040000fa
:10010800b23200005e320000763200008a3200000f
:100118009e320000b2320000b2320000b23200005b
:10012800b2320000b2320000b2320000262f0000c6
:10013800b2320000b2320000b2320000b232000027
:10014800b23200002040000050400000f8300000ab
:10015800b2320000b2320000b2320000fa310000c0
:100168006a2d0000b2320000b2320000b232000044
:10017800b2320000b2320000b2320000b2320000e7
:10018800b2320000b2320000b2320000b2320000d7
:10019800b2320000b2320000b2320000b2320000c7
:1001a800b2320000b2320000b2320000b2320000b7
:1001b800b2320000b2320000b2320000b2320000a7
:1001c800b2320000b232000044320000b232000005
:1001d800b2320000b2320000b2320000b232000087
:1001e800b2320000b2320000b2320000b232000077
:0801f800b2320000b232000037
:020000040000fa
:10020000ef7c21004efe21000e018800000000005e
:10021000000020000000e000020032000001200089
:10022000200288000c00070000c425000100200007
:1002300011000700000020000000e0000200320072
:100240000000020000000000f05b0200000000005f
:100250000040da000000fe004440a9000028200011
:100260000000e0000300320000002000a001880030
:100270004440a8000000060091018800800078003a
:100280000000eb0015003700e280400032a0b4000f
:100290009101ba00e280400032a0b4009102ba009d
:1002a000e280400032a0b4000002eb00472bde00e9
:1002b000f507b200602ce10004003a000059eb00a1
:1002c0008301e900fdff3e00040037006128e100e2
:1002d000010032000082eb00040007001101ba00a7
:1002e0000200e000e8ff3a00000006003159ba00c1
:1002f0008301e9000c0032002159ba008301e900b2
:10030000080032000400e00003003a00e2804000f0
:1003100032a0b400f5ff370011d9ba008301e9001b
:10032000faff3a008100e800e180400032a0b4000a
:1003300000000600881f78008a1f78004400f8003b
:10034000080f20002802880000049000100590008b
:10035000a000900030019000c00190000300ca008e
:100360000280ca000030cb001a00cd004604c30052
:100370000100ca004604c0001e04c0000605c000fb
:100380000100cd0021009800050d7800eaba970021
:10039000052578004400f9004f0578004f047800e7
:1003a00000000600801f78004000b0000008eb004d
:1003b0004f007800801f7800100090000018eb00bc
:1003c0000018eb000008eb004f007800000006006a
:1003d0004400f800020f20002202880091007800fb
:1003e0003000ca003080ca000000cb002080ca0064
:1003f0000000cb003100cd004000ca000000cb005f
:100400000000cb000010cb003100cd001180cc00eb
:100410004400f90000000600101188000111880056
:10042000000006004011880031118800000006001d
:100430003200f800910188000008bb00410424004c
:100440006210e10004003200000220000010e10010
:100450000a003a0051042400013b88000500fc001a
:1004600051052000313b8800a10a2000313b880063
:1004700061e7a80000000000000000003200f90061
:10048000000006003200f80060042400003b8800f1
:10049000f2ff37003200f80091018800410024008b
:1004a000013b88000208bb00ecff37003200f80077
:1004b0009101880051002400013b880003012000c5
:1004c0003218bb008301e900fdff3a00e3ff37006b
:1004d00014002000a1003700f4ff2f009f00370018
:1004e0000001be001b0007000470a70003f0a1007c
:1004f00003f8a30013003a006509b10010003200b0
:10050000090035006928e1000200350001002800db
:100510000000050000004000818048008502e900dd
:10052000fcff3a0000000600f88f4200050035008d
:100530008100d1000080d3008502e800fcff3a0072
:10054000000006008000eb00000005006011b8000c
:100550009d003700c70ade00f107b200f50fb200b8
:1005600008003200e1cf4200020032000170a0001a
:1005700024000500810f700001003200040805000e
:1005800044000500810f700002003a0014000500cd
:100590008502e9000000400081c04800fcff3b00ec
:1005a0000170a00024000500889fbe008a9fbe0045
:1005b0008c1f7800d9000700e000330003866c0030
:1005c0006450e100240032006420e1002700320082
:1005d0006150e100220032006120e1002100320080
:1005e0008b854200eb07b1000134b800003ab80037
:1005f0000804420089844a00013ab8000030b8007b
:100600008880400009014a000400330000004000d7
:1006100081804800020149008b05e900c909dd001d
:10062000830170000100320013002000c814de00b6
:100630004814dd004709de001200b200c808de00e1
:10064000088470008f00070001f0a1000cf0a700e3
:1006500001f0a000c20037006120e100c4003200b8
:100660000801be000200be00f7ff37006150e10044
:10067000fcff3a00be0037006022b80006022000ee
:100680000000d0008180d2000482d2008582d20096
:100690000000a0000202520083825a0003003100d1
:1006a0000202420083824a000000a1000603e90022
:1006b000f3ff3a0000000600889fbe008a9fbe003c
:1006c0008c1f78000006eb00e00f5000e08f580010
:1006d000e00f5900e08f590007003d006044b8006a
:1006e0006055b8001c0020000000540081805c00b0
:1006f00002015d0083815d00e00f5200e08f5a002f
:10070000e00f5b00e08f5b0007003d006044b80035
:100710006055b8000c00a2000402540085825c0001
:1007200006035d0087835d0094000700e00f56001c
:10073000060032006022b8006033b80000005200aa
:1007400081805a0002015b0083815b004f067800c4
:100750004f05be004f04be0000000600889fbe008b
:100760008a9fbe00841f78006c0007004f0078004d
:1007700011003300f0ff2f00838f6c0006003b0058
:10078000040565000a00a7000800370009f0a6006c
:100790001000200008003700820f5400838f5c0097
:1007a000030039001000200001003e00000020007e
:1007b00009f0a7000000ea004f05be004f04be008c
:1007c0000000e00000000600889fbe008a9fbe0077
:1007d0000082700004027100048271002600320061
:1007e0000004be000200be006011b8006b092000ca
:1007f000950220000182cf000a0039000541b100b6
:100800000082cf00070039000541b1000982cf0006
:10081000040039000541b1000882cf000100390011
:100820000541b10005425200120032000a003b00af
:1008300082817100610164008100d1000080d300d9
:100840008984d3000884d3008b05e8000442e800c3
:10085000f7ff3a00070037000804440089844c0081
:1008600000004800818048008b05e9000442e9004f
:10087000f9ff3a00030007004f05be004f04be0019
:100880000000060081002000618055000b003d0043
:100890000b00200061fe2f000100e1001d0034006c
:1008a00082817100610164008904d1000884d30051
:1008b0000000e800faff3a007100200061006400c7
:1008c000030070000200600009003200610444006f
:1008d000e0844c000988a500050032008b05e80083
:1008e0006808e10002003a008904d1000884d300be
:1008f000f20f20000258e10005003d00c75ddd0059
:10090000f907b20089807500080078000000060031
:100910000bf827008b007800000005000004be00e3
:100920000cff07000003be000405be000200be006d
:1009300008ff0700844f7500000006000200be009b
:100940006450e100050036006420e100020036003a
:100950000968a30001003a000800be000160a00081
:100960004f0678004f05be004f04be000000060091
:10097000f0ff2f00f1ff2700f9ff3700889fbe002e
:100980008a9fbe008c9fbe000404b8000506b80014
:100990008904460060854e000606b8000a05460038
:1009a000e0854e000706b8008b054600040eb8002f
:1009b000890446000a854e00e0854d00050eb8000a
:1009c0000a0546008b854e00060eb8008b054600d2
:1009d0000416b8000a0546008b854e000516b800bf
:1009e0008b054600041eb8008b0546000800be00bb
:1009f0000a01be004f06be004f05be004f04be00f8
:040a000000000600ec
:020000040000fa
:100a040000000000c1c0000081c1000040010000de
:100a140001c30000c00300008002000041c20000c6
:100a240001c60000c00600008007000041c70000a6
:100a340000050000c1c5000081c40000400400009e
:100a440001cc0000c00c0000800d000041cd00006e
:100a5400000f0000c1cf000081ce0000400e000056
:100a6400000a0000c1ca000081cb0000400b000056
:100a740001c90000c00900008008000041c800004e
:100a840001d80000c01800008019000041d90000fe
:100a9400001b0000c1db000081da0000401a0000e6
:100aa400001e0000c1de000081df0000401f0000c6
:100ab40001dd0000c01d0000801c000041dc0000be
:100ac40000140000c1d4000081d5000040150000ce
:100ad40001d70000c01700008016000041d60000b6
:100ae40001d20000c01200008013000041d30000b6
:100af40000110000c1d1000081d0000040100000ae
:100b040001f00000c03000008031000041f100001d
:100b140000330000c1f3000081f200004032000005
:100b240000360000c1f6000081f7000040370000e5
:100b340001f50000c03500008034000041f40000dd
:100b4400003c0000c1fc000081fd0000403d0000ad
:100b540001ff0000c03f0000803e000041fe000095
:100b640001fa0000c03a0000803b000041fb000095
:100b740000390000c1f9000081f80000403800008d
:100b840000280000c1e8000081e9000040290000bd
:100b940001eb0000c02b0000802a000041ea0000a5
:100ba40001ee0000c02e0000802f000041ef000085
:100bb400002d0000c1ed000081ec0000402c00007d
:100bc40001e40000c02400008025000041e500008d
:100bd40000270000c1e7000081e600004026000075
:100be40000220000c1e2000081e300004023000075
:100bf40001e10000c02100008020000041e000006d
:100c040001a00000c06000008061000041a100005c
:100c140000630000c1a3000081a200004062000044
:100c240000660000c1a6000081a700004067000024
:100c340001a50000c06500008064000041a400001c
:100c4400006c0000c1ac000081ad0000406d0000ec
:100c540001af0000c06f0000806e000041ae0000d4
:100c640001aa0000c06a0000806b000041ab0000d4
:100c740000690000c1a9000081a8000040680000cc
:100c840000780000c1b8000081b90000407900007c
:100c940001bb0000c07b0000807a000041ba000064
:100ca40001be0000c07e0000807f000041bf000044
:100cb400007d0000c1bd000081bc0000407c00003c
:100cc40001b40000c07400008075000041b500004c
:100cd40000770000c1b7000081b600004076000034
:100ce40000720000c1b2000081b300004073000034
:100cf40001b10000c07100008070000041b000002c
:100d040000500000c190000081910000405100009b
:100d140001930000c0530000805200004192000083
:100d240001960000c0560000805700004197000063
:100d340000550000c195000081940000405400005b
:100d4400019c0000c05c0000805d0000419d00002b
:100d5400005f0000c19f0000819e0000405e000013
:100d6400005a0000c19a0000819b0000405b000013
:100d740001990000c059000080580000419800000b
:100d840001880000c048000080490000418900003b
:100d9400004b0000c18b0000818a0000404a000023
:100da400004e0000c18e0000818f0000404f000003
:100db400018d0000c04d0000804c0000418c0000fb
:100dc40000440000c184000081850000404500000b
:100dd40001870000c04700008046000041860000f3
:100de40001820000c04200008043000041830000f3
:100df40000410000c18100008180000040400000eb
:100e04006400000064000000630000006300000050
:100e14006300000062000000620000006100000046
:100e24006100000060000000600000005f0000003e
:100e34005f0000005e0000005e0000005d00000036
:100e44005d0000005c0000005b0000005b0000002f
:100e54005a0000005900000059000000580000002a
:100e64005700000057000000560000005500000025
:100e74005400000054000000530000005200000021
:100e84005100000050000000500000004f0000001e
:100e94004e0000004d0000004c0000004b0000001c
:100ea4004a0000004900000048000000470000001c
:100eb400460000004500000044000000430000001c
:100ec4004200000041000000400000003f0000001c
:100ed4003e0000003c0000003b0000003a0000001f
:100ee4003900000038000000360000003500000022
:100ef4003400000033000000310000003000000026
:020000040000fa
:100f04000a00fa00c4852000144278000482fb0021
:100f140045032000850f52001f01320045032000c5
:100f2400850f52000d003c00e60f520030003200e5
:100f3400e60f520003003c00e40f52001b00320095
:100f440092033700f40f52007a0032004502200069
:100f5400850f5200920032008c033700050a2000ee
:100f6400850f520086033200050a2000850f5200c7
:100f740007003c0055032000850f52004401320055
:100f840045042000850f5200900132007f03370092
:100f9400450a2000850f520042033200850a2000d2
:100fa400850f520051033200780337007d03070098
:100fb4005f08070078090700832107000002780012
:100fc400e00f52000500320004cab3000002fd0025
:100fd4005ce8b7000002fd007003370044c1b300b1
:100fe4000002fd005ce8b7000002fd006b0337005f
:100ff40055168000040420000482620004f0a70057
:101004000402ea000402e9004f22de0004427800f0
:101014000482fb00610262004622dd005616800055
:10102400f5fb2f0085026300050272005416880048
:101034005c0307005516800004042000048262004b
:1010440004f0a7000402ea000402e9004f22de00d3
:10105400044278000482fb00610262004622dd0043
:1010640056168000f5fb2f0085026300050272000e
:10107400541688009c0807005516800004042000bc
:101084000482620004f0a7000402ea000402e900fa
:101094004f22de00044278000482fb0061026200f9
:1010a4004622dd0056168000f5fb2f008502630002
:1010b400050272005416880037090700551680008f
:1010c400040420000482620004f0a7000402ea0081
:1010d4000402e9004f22de00044278000482fb008f
:1010e400610262004622dd0056168000f5fb2f00e7
:1010f400850263000502720054168800322107003d
:1011040000027800e00f52000500320004cab30068
:101114000002fd005ce8b7000002fd001f03370079
:1011240044c4b3000002fd005ce8b7000002fd0007
:101134001a0337002c10070014003700ee0a0700ca
:101144006d1507002521070000027800e00f52000a
:101154000500320044cab3000002fd005ce8b70099
:101164000002fd0009003700151680000400240069
:1011740004826200e00f520004003a0044c2b3004b
:101184000002fd005ce8b7000002fd00c4852000f9
:1011940014427800f44f5200e8ff3200ff02370097
:1011a400431007000002eb00040f78000002eb007c
:1011b4003442880072003700cf0a07004e1507003a
:1011c4000000000000000000000000002504800072
:1011d4000404200004826200e00f52002f00320059
:1011e4001e0fe80084c0a900351780000400210008
:1011f40004826200e00f5200030032003442800097
:10120400e10f520011003a00a20020009e00780075
:1012140020b0200032090700a20020009e007800c0
:1012240080aa20002e090700a20020009e0078005a
:10123400c0b520002a090700a20020009e00780003
:1012440060bb2000260907001400370014588000f2
:10125400040178009e00780020b0200020090700d7
:1012640044558000040178009e00780080aa200084
:101274001b090700e45a8000040178009e007800ee
:10128400c0b5200016090700b45d80000401780091
:101294009e00780060bb200011090700cf200700e2
:1012a40000027800e00f52000500320044cab30087
:1012b4000002fd005ce8b7000002fd0030003700ca
:1012c400151680000400240004826200e00f52001e
:1012d4000500320044c1b3000002fd005ce8b70021
:1012e4000002fd0026003700440620009e0278001c
:1012f400848f5200080036003f1e070044c3b30029
:101304000002fd005ce8b7000002fd000002eb00f3
:10131400344288001a003700351780000400210089
:1013240004826200e00f52000b003a001e027800b3
:10133400f40f5200080036002f1e070044c3b30008
:101344000002fd005ce8b7000002fd000002eb00b3
:10135400344288000a00370034428000e10f520012
:1013640007003a00241e070044c3b3000002fd0036
:101374005ce8b7000002fd000002eb003442880084
:10138400c58520009542780044c2b30084cf520042
:1013940089ff320081023700bb0f0700420620009c
:1013a4004106200000942000cd08070042062000da
:1013b40041062000409f2000c90807004206200083
:1013c4004106200020b02000c50807004206200086
:1013d4004106200080aa2000c10807004206200020
:1013e4004106200060bb2000bd0807004206200023
:1013f40041062000c0b52000b90807001e003700d0
:101404003d0a0700bc14070074200700000278009e
:10141400e00f52000500320084cab3000002fd0050
:101424005ce8b7000002fd001300370015168000c9
:101434000400240004826200e00f52000500320020
:1014440044c1b3000002fd005ce8b7000002fd00e7
:101454000900370015168000040028000482620089
:10146400e00f520004003a0054c3b3000002fd0030
:101474005ce8b7000002fd00c585200095427800b5
:1014840044c3b30084cf5200ddff3200430237006f
:10149400f442800051c3200004007800ab10070020
:1014a40000027800240798000001eb00ae009000d1
:1014b40000942000580807000443800051c3200012
:1014c40004007800a11007000002780024079800a7
:1014d4000001eb00ae009000409f20004e08070082
:1014e4000002eb0014079800cbe2a900310037009a
:1014f400010a07008014070025048000040420006a
:1015040004826200e00f52000400320084c0a9008b
:101514001e0290000402e800140798002f20070020
:1015240000027800e00f52000500320084cab300c4
:101534000002fd005ce8b7000002fd001d0037005a
:10154400151680000400240004826200e00f52009b
:101554000500320044c1b3000002fd005ce8b7009e
:101564000002fd0013003700151680000400280057
:1015740004826200e00f52000500320044c3b3004d
:101584000002fd005ce8b7000002fd00090037001e
:101594009e02900014032000848f52000500360040
:1015a40044c4b3000002fd005ce8b7000002fd0083
:1015b4000c100700c58520009542780054c3b30081
:1015c40084cf5200caff3200f40137000002eb005e
:1015d400244388000002eb00444388000002eb002f
:1015e400344388000002eb0064be88006022b80027
:1015f400d4bd8800e5bd88000042eb000002fd0078
:1016040012f7b7000002fd000042eb000002fd00eb
:1016140056f7b7000002fd000042eb000002fd0097
:1016240057f7b7000002fd000002eb00c4ba8800bf
:101634000002eb0024079800090037002e029000f6
:1016440084024200a4752100048242008002eb005f
:10165400050a78002e0290000402e800240798008e
:101664002e029000e20f5200f4ff36008c60a800b6
:1016740086013700c400200034be88009e0907009c
:101684001d140700b543800044062000848f5200d7
:101694000a0036001516800004002200048262004d
:1016a400e00f5200050032000042eb000002fd0092
:1016b40015f7b7000002fd00cbc2a9003517800062
:1016c4000400280004826200e00f520003003a0084
:1016d400b44180009441880002003700a441800096
:1016e400944188002471210014427800e04f520094
:1016f400470132000002eb00b4438800044280003a
:10170400e00f52000200320000402000711f070069
:10171400b400200034be8800f541800004f02f009e
:10172400848f520003003e00f44180000402e8006c
:10173400f4418800d4bd8000e5bd80006102420010
:10174400e0824a00d4bd8800e5bd8800847a210087
:101754003400be002401be00140020000500200057
:101764006033b8000002420081824a0002034b0049
:1017740083834b00807a21000498be000690be004b
:10178400d44280000402e800d4428800350c0700eb
:10179400447121001442780004407800381d070089
:1017a400557121009542780044712100144278005b
:1017b40084cf52000a003200154a8000b445240048
:1017c400848f520003003e0004032100b4b8880053
:1017d4001a00370004032000b4b88800170037004b
:1017e4005471210014427800e04f52000a003a007c
:1017f400154a8000b4452400848f520003003e0043
:1018040004042100b4b888000c003700040420004c
:10181400b4b8880009003700154a8000b445240094
:10182400848f520003003e0004022100b4b88800f3
:101834000200370004022000b4b88800547121006b
:10184400144278000400780014f7b70020f1200057
:101854003928070000027800844188002001210013
:10186400352807000002780064418800f4418000b4
:10187400fd0f520009003e000002eb00d441880035
:101884000002eb00c441880014c0b3000002fd0054
:101894003ce8b7000002fd00b10037000002eb0095
:1018a40044418800f541800024bd8000848f5200ab
:1018b40023003100244180000500200034079800f3
:1018c4004507980025bd8000f44180000482520041
:1018d400050020004e03900004b3b900060378000d
:1018e400be03900005b8b9008003780007034300e5
:1018f400be039000040278000722b80005034300e9
:101904008602780034079800450798003407980049
:101914004507980024bd8000050020000401be0096
:101924003e009000ce00900052fb07000002be0073
:1019340034079800450798003e029000444188000f
:10194400351780000400240004826200e00f520076
:1019540011003a0034418000e00f520007003200c9
:10196400954180004441800004824200050020002b
:10197400e4408800f540880031003700954180003c
:10198400444180000482520005002000e4408800a5
:10199400f54088002a00370034418000e00f5200ef
:1019a40007003200954180004441800004824200d7
:1019b40005002000e4408800f54088000600370058
:1019c40095418000444180000482520005002000bb
:1019d400e4408800f5408800044380006123b80097
:1019e400e4408000f540800004b8b90000007800ad
:1019f40006a9b900820078000100400006037800bf
:101a0400040278000432b800050040008002780027
:101a1400e4408800f5408800e6408000f7408000fc
:101a240014418000050020000401be000600be0031
:101a340010fb07000002be00e4408800f540880067
:101a4400844180006123b800e4408000f5408000b8
:101a54002403b0000580b000840f5300858f5b0021
:101a640004003900d44180000402e900d441880014
:101a74000e003700844180006123b800e0408000fc
:101a8400f1408000e4fc2f00f5ff2f00000242002b
:101a940081824a00840f5300858f5b0003003e005f
:101aa400d44180000402e800d441880074418000dd
:101ab400250320008482420064418000848f520008
:101ac40004003100c441800063025200c441880014
:101ad4000900370074418000e5fc2f008482420035
:101ae40064418000848f520003003600c4418000aa
:101af40063024200c4418800d54180000464200090
:101b0400848f52000300340004642000d441880010
:101b140006003700d5418000049c2f00848f5200ba
:101b240002003d00049c2f00d4418800c541800080
:101b340084252000848f5200030034008425200073
:101b4400c441880006003700c541800084da2f00b4
:101b5400848f520002003d0084da2f00c4418800c3
:101b6400f442800051c3200004007800f70e0700ff
:101b7400000278002407980075418000743e20001c
:101b8400848f520004003600c4418000ae029000ed
:101b940004824200240798000001eb00ae0090008c
:101ba400009420009c0607001441800051c32000cb
:101bb40004007800e50e070000027800240798006e
:101bc40095418000743e2000848f5200040036004a
:101bd400d4418000ae0290000482420024079800a1
:101be4000001eb00ae009000409f20008a06070031
:101bf400050807000002eb003408880084c0a9002f
:101c04000042eb000002fd0012f7b7000002fd00e5
:101c1400721e070000027800e00f52000600320036
:101c2400270d070084cab3000002fd005ce8b7007a
:101c34000002fd0015003700151680000400240082
:101c440004826200e00f5200060032001c0d0700ff
:101c540044c1b3000002fd005ce8b7000002fd00cf
:101c64000a00370015168000040028000482620070
:101c7400e00f520005003200110d070044c3b30009
:101c84000002fd005ce8b7000002fd00c5852000ed
:101c94009542780044c4b30084cf520075fe3200ec
:101ca4003e003700500d07000a00370012080700f5
:101cb40091120700491e070000027800e00f52004d
:101cc40004003a0044c1b3000002fd005ce8b70020
:101cd4000002fd00c58520009542780044cab30087
:101ce40084cf5200f1ff32002c003700660d07004c
:101cf4001d003700000807007f1207004b1e070075
:101d040000027800e00f52000500320044cab3001c
:101d14000002fd005ce8b7000002fd00120037007d
:101d2400151680000400240004826200e00f5200b3
:101d34000500320044cab3000002fd005ce8b700ad
:101d44000002fd0008003700241e0700000278008e
:101d5400e00f520004003a0044c3b3000002fd0047
:101d64005ce8b7000002fd00c585200095427800bc
:101d740084cab30084cf5200deff3200070037006c
:101d8400dd0707005c120700fdff370004cab3003b
:101d9400040078005ce8b700000000000080fa004e
:101da400000006004400fa00881f78001400200098
:101db400f4bd88001400200004be880034be8000f6
:101dc400544288000002eb0034be88000002eb009d
:101dd400a44088000002eb00c44088000002eb002d
:101de40044ba8800043a800061026200e00f5200a5
:101df4000300320044ba80000440a00044ba8800c2
:101e0400053a80000408200004826200e00f5200ba
:101e14000400320045ba800004022000050272006a
:101e240044ba8800053a8000040420000482620059
:101e3400e00f52000400320045ba80000404200080
:101e44000502720044ba8800043a8000620262000b
:101e5400e00f52000300320044ba80000400a000e6
:101e640044ba8800053a8000040028000482620015
:101e7400e00f52000300320044ba80000410a000b6
:101e840044ba8800043a800070026200e00f5200f5
:101e94000300320044ba80000420a00044ba880041
:101ea400053a80000400240004826200e00f52001e
:101eb4000300320044ba80000430a00044ba880011
:101ec4000002eb0094b988000002eb00a4b988007a
:101ed4000002eb00b4b988000002eb00c4b988002a
:101ee4000002eb00d4b988000002eb00e4b98800da
:101ef4000002eb00f4b988000002eb0004ba880089
:101f04000002eb0014ba88000002eb0024ba880037
:101f14000002eb00744188000002eb00b441880029
:101f24000002eb00a44188000002eb0024bd8800fd
:101f34000002eb0004bd88000002eb0014bd880021
:101f44000002eb00040f7800250037001e0fe800a4
:101f54000060fe00c44080000402e800c440880021
:101f64001e027800ea0f52000f00360024352000cc
:101f740024179800e42e200034179800f4ff27005b
:101f840044179800f4ff2700541798008496220001
:101f940064179800440220000e0242008400780076
:101fa4000000eb00711e07001e027800ef0f5200c4
:101fb4000b003600643b200024079800e42e200028
:101fc40034079800f4ff270044079800f4ff270023
:101fd400540798008496220064079800070037008d
:101fe40064024700840078000000eb00441e0700f0
:101ff40000027800e00f5200d4ff32000002eb0030
:10200400040f7800070037001e0fe800c44080006a
:102014000402e800c44088001e027800e90f520060
:1020240008003e0064024700840078000000eb00d2
:10203400cc1e070000027800e00f5200f2ff3200cd
:1020440001003700000000002e0290008440880048
:102054003e029000944088004e029000c4b888006c
:102064005e029000d4b888006e029000b4408800ec
:102074000002eb00040f7800450037000060fe000a
:102084001e0fe8001e027800ea0f52001e00360000
:102094000002eb00241798000002eb0034179800ac
:1020a4000002eb00441798000002eb00541798005c
:1020b4000002eb00641798000002eb00741798000c
:1020c40014002000041f980014002000141f98001e
:1020d40014002000241f98000002eb00341f980015
:1020e4000002eb00441f98000002eb00541f98000c
:1020f4000002eb00641f98000002eb00741f9800bc
:102104000002eb00042798001e027800ef0f520033
:102114001f0036000002eb00240798000002eb00c9
:10212400340798000002eb00440798000002eb001b
:10213400540798000002eb00640798000002eb00cb
:102144007407980014002000040f98001400200065
:10215400140f980014002000240f98000002eb00d4
:10216400340f98000002eb00440f98000002eb00cb
:10217400540f98000002eb00640f98000002eb007b
:10218400740f98000002eb00041798000700370052
:10219400640247008400780010002000d81d070066
:1021a40000027800e00f5200b4ff3200847a21006c
:1021b40014079800de0290001e029000050a7800c1
:1021c4001e0290000482e80014079800ce029000da
:1021d4001e029000050a78001e0290000482e800a6
:1021e40014079800be0290001e029000050a7800b1
:1021f4001e0290000482e80014079800ae029000ca
:102204001e029000050a7800647b210014079800e0
:10221400fe0290001e029000050a78001e02900043
:102224000482e80014079800ee0290001e02900059
:10223400050a78000e0a9000744388001e0a900074
:10224400844388002e0a9000944388000002eb0027
:1022540064be88006022b800d4bd8800e5bd880053
:102264000e0a90001443880064802000a44488006f
:10227400a4ff2100b44488004089200048f80700e6
:10228400f4282000f4448800d4a3200004458800e6
:10229400d4a320001445880041892000e08920004f
:1022a4004af80700048020002444880044ff2100e9
:1022b400344488004088200039f80700f4282000be
:1022c40074448800d4a3200084448800d4a320004c
:1022d4009444880041882000e08820003bf80700ef
:1022e4000060fe00440620004455880004d0270006
:1022f400745588008080eb000080eb00d80c070048
:10230400000278009455880004002200a455880037
:102314000002eb00b4558800a12a29000080eb00dc
:10232400cf0c070000027800d45588000400220076
:10233400e45588000002eb00f4558800d455800071
:102344008400780000532700000d07000002780085
:10235400045688000100220000802200c00c0700ff
:102364000002780034568800010022000000210099
:10237400bb0c07000002780044568800843e20000d
:10238400545688002403200064568800841a2600ca
:10239400d4568800311e29000080eb00b00c0700e1
:1023a40000027800f45688000400220004578800d4
:1023b4000002eb001457880011b52a000080eb00de
:1023c400a70c07000002780034578800040022009c
:1023d400445788000002eb005457880034578000ab
:1023e4008400780000592600d80c07000002780009
:1023f400645788000100220030332200980c070043
:10240400000278009457880001002200c0cc21000b
:10241400930c070000027800a457880004fa2000f7
:10242400b457880024032000c457880024032000e4
:102434001458880004dc2500445888008080eb0090
:102444000080eb00860c07000002780064588800c6
:1024540004002200745888000002eb0084588800ad
:10246400a12a29000080eb007d0c070000027800ff
:10247400a458880004002200b45888000002eb002d
:10248400c4588800a458800084007800801a26006c
:10249400ae0c070000027800d45888000100220026
:1024a400000024006e0c0700000278000459880024
:1024b4000100220000002100690c070000027800de
:1024c4001459880004fa200024598800840c200040
:1024d4003459880004dc2500a4598800211e2900f1
:1024e4000080eb005e0c070000027800c4598800ed
:1024f40004002200d45988000002eb00e45988004b
:1025040011b52a000080eb00550c0700000278008a
:10251400045a880004002200145a88000002eb00c8
:10252400245a8800045a800084007800802c2300f8
:10253400860c070000027800345a8800010022004b
:1025440000802200460c070000027800645a8800cc
:102554000100220000802100410c070000027800e5
:10256400745a880004fa2000845a8800840c2000dd
:10257400945a8800b8408000b44080000400780079
:10258400061707000002780008017800840078002c
:1025940020b020002004070084702000e45a880042
:1025a400c4a22100145b88008000eb000080eb00d3
:1025b4002b0c070000027800345b88000400220022
:1025c400445b88000002eb00545b8800215e290014
:1025d4000080eb00220c070000027800745b880086
:1025e40004002200845b88000002eb00945b8800f6
:1025f400745b80008400780000c22100530c070043
:1026040000027800a45b88000100220090192200d7
:10261400130c070000027800d45b8800010022003c
:1026240060e621000e0c070000027800e45b8800dd
:10263400843e2000f45b8800441f2000045c880072
:102644000002eb00745c88008000eb000080eb006b
:10265400030c070000027800945c88000400220048
:10266400a45c88000002eb00b45c88008000eb00ee
:102674000080eb00fa0b070000027800d45c8800ad
:1026840004002200e45c88000002eb00f45c880093
:10269400d45c8000840078000000eb002b0c070061
:1026a40000027800045d8800010022000000eb00b5
:1026b400eb0b070000027800345d88000100220063
:1026c4000000eb00e60b070000027800445d880080
:1026d4000002eb00545d88000002eb00645d88009a
:1026e40084702000b45d880004772100e45d8800d4
:1026f4008000eb000080eb00d90b0700000278009b
:10270400045e880004002200145e88000002eb00ce
:10271400245e8800215e29000080eb00d00b0700b6
:1027240000027800445e880004002200545e8800a1
:102734000002eb00645e8800445e80008400780040
:10274400a0862100010c070000027800745e880056
:102754000100220090192200c10b0700000278003a
:10276400a45e88000100220060e62100bc0b070083
:1027740000027800b45e8800843e2000c45e8800b5
:10278400441f2000d45e88000002eb00445f8800f0
:102794008000eb000080eb00b10b07000002780022
:1027a400645f880004002200745f88000002eb006c
:1027b400845f88008000eb000080eb00a80b07001a
:1027c40000027800a45f880004002200b45f88003f
:1027d4000002eb00c45f8800a45f800084007800de
:1027e4000000eb00d90b070000027800d45f8800da
:1027f400010022000000eb00990b070000027800a2
:1028040004608800010022000000eb00940b070024
:1028140000027800146088000002eb002460880045
:102824000002eb00346088000002eb00044a8800d8
:1028340004e22400344a8800517125000080eb0032
:10284400870b070000027800544a88000400220025
:10285400644a88000002eb00744a8800811a26004a
:102864000080eb007e0b070000027800944a880089
:1028740004002200a44a88000002eb00b44a880045
:10288400944a800084007800c0c22400af0b070083
:1028940000027800c44a8800010022000000eb0016
:1028a4006f0b070000027800f44a88000100220040
:1028b4000000eb006a0b070000027800044b88005c
:1028c4000002eb00144b88000002eb00244b88004c
:1028d4000002eb00944b88008000eb000080eb00ca
:1028e4005f0b070000027800b44b8800040022004c
:1028f400c44b88000002eb00d44b88008000eb003e
:102904000080eb00560b070000027800f44b8800af
:1029140004002200044c88000002eb00144c8800e0
:10292400f44b8000840078000000eb00870b070064
:1029340000027800244c8800010022000000eb0013
:10294400470b070000027800544c88000100220065
:102954000000eb00420b070000027800644c880082
:102964000002eb00744c88000002eb00844c8800e9
:102974000271220001652400009420002603070050
:102984000002eb00a44f880004e22400d44f880026
:10299400517125000080eb00310b07000002780024
:1029a400f44f880004002200045088000002eb0069
:1029b40014508800811a26000080eb00280b0700c1
:1029c400000278003450880004002200445088003b
:1029d4000002eb00545088003450800084007800da
:1029e400c0c22400590b070000027800645088001c
:1029f400010022000000eb00190b07000002780020
:102a040094508800010022000000eb00140b070022
:102a140000027800a45088000002eb00b450880043
:102a24000002eb00c45088000002eb00345188001f
:102a34008000eb000080eb00090b07000002780027
:102a44005451880004002200645188000002eb0005
:102a5400745188008000eb000080eb00000b07003d
:102a6400000278009451880004002200a4518800d8
:102a74000002eb00b4518800945180008400780077
:102a84000000eb00310b070000027800c4518800fd
:102a9400010022000000eb00f10a070000027800a8
:102aa400f4518800010022000000eb00ec0a07004a
:102ab40000027800045288000002eb0014528800df
:102ac4000002eb00245288000271220001e8230076
:102ad400409f2000d00207000002eb00d44c880085
:102ae400846d2d00044d88008000eb000080eb0015
:102af400db0a070000027800244d8800040022004d
:102b0400344d88000002eb00444d8800118a2d00ea
:102b14000080eb00d20a070000027800644d8800b0
:102b240004002200744d88000002eb00844d8800ec
:102b3400644d80008400780000b22c00030b070071
:102b440000027800944d88000100220000802200d9
:102b5400c30a070000027800c44d88000100220067
:102b640090992100be0a070000027800d44d880025
:102b7400843e2000e44d880044012000f44d880088
:102b8400c4ce2200644e88008000eb000080eb007d
:102b9400b30a070000027800844e88000400220073
:102ba400944e88000002eb00a44e8800b11124006a
:102bb4000080eb00aa0a070000027800c44e8800d7
:102bc40004002200d44e88000002eb00e44e88008a
:102bd400c44e800084007800400d2300db0a070007
:102be40000027800f44e88000100220090192200af
:102bf4009b0a070000027800244f8800010022008d
:102c040060e62100960a070000027800344f88002d
:102c1400843e2000444f880044012000544f880023
:102c24000002eb00844f88000082eb00944f880080
:102c34000002eb00244e88000082eb00344e880032
:102c44000002eb0074528800846d2d00a4528800a9
:102c54008000eb000080eb00810a0700000278008e
:102c6400c452880004002200d45288000002eb0001
:102c7400e4528800118a2d000080eb00780a0700d6
:102c840000027800045388000400220014538800d2
:102c94000002eb0024538800045380008400780071
:102ca40000b22c00a90a07000002780034538800ff
:102cb4000100220000802200690a07000002780057
:102cc400645388000100220090992100640a0700df
:102cd4000002780074538800843e200084538800e6
:102ce4004401200094538800c4ce22000454880078
:102cf4008000eb000080eb00590a07000002780016
:102d04002454880004002200345488000002eb009c
:102d140044548800b11124000080eb00500a0700dd
:102d2400000278006454880004002200745488006f
:102d34000002eb008454880064548000840078000e
:102d4400400d2300810a0700000278009454880093
:102d54000100220090192200410a070000027800b5
:102d6400c45488000100220060e621003c0a0700e8
:102d740000027800d4548800843e2000e454880083
:102d840044012000f45488000002eb00245588001c
:102d94000082eb00345588000002eb00c453880025
:102da4000082eb00d45388005516800004042000f0
:102db4000482620004f0a7000402ea000402e900ad
:102dc4004f22de00044278000482fb0061026200ac
:102dd4004622dd0056168000f5fb2f0085026300b5
:102de4000502720054168800d762a900d602a80012
:102df400d742a900d702a900c4e2a800cac2a90008
:102e0400cbe2a800c4c2a900d042a800d662a800a0
:102e1400e2a2a800cae2a900ca42a900e282a8006c
:102e2400cbc2a900d6c2a800d6a2a800c522a90078
:102e3400d362a900d202a900d242a800cdc2a80040
:102e4400cda2a800d222a800d322a900d342a9006f
:102e5400d302a900c182a800c1a2a800c0e2a900af
:102e6400c6c2a900c7e2a900c1c2a800c1e2a80065
:102e7400e5a2a800e582a800e5c2a800e5e2a80052
:102e8400d282a800d2e2a800d382a800d3a2a800cc
:102e9400cc62a800cc82a800e502a800e522a80024
:102ea400c142a800c0c2a900cc42a900d262a900b4
:102eb400dea2a900c642a900de82a900cde2a900d3
:102ec400c7c2a900d2c2a900d2a2a900c122a900e6
:102ed4008e00a9008600a900e40480000400a1007b
:102ee4000410a0000420a000e40488008220a900ab
:102ef4008c60a9008460a900a404800004c0a00020
:102f040004d0a10004e0a000a40488008d60a900fe
:102f14008560a900c404800004c0a00004d0a000ff
:102f240004e0a100c404880085e0a900c200a80050
:102f34008de0a800d404800004c0a10004d0a10046
:102f440004e0a000d40488008d20a900c4048000fb
:102f54000440a0000450a1000460a000c404880040
:102f64008d40a900c40480000440a0000450a100c6
:102f74000460a000c40488008940a9009140a9000d
:102f8400440580000480a0000490a00004a0a000d8
:102f940044058800043a80000480a1000490a10044
:102fa40004a0a00004b0a000043a8800f4002f009c
:102fb40034108800e411200024108800f1fb2d0057
:102fc400e0532b0013f50700f1fb2d00d0f32b0089
:102fd40013f5070004102000841c8800041020004e
:102fe400842288000042eb0004007800e4e8b70083
:102ff4000042eb0004007800e5e8b7000042eb0073
:103004000400780026e9b7000042eb0004007800d1
:1030140027e9b70004f02f0064108800f40b2000a7
:10302400a4108800f475270074108800d4fa2500d1
:103034002408880054fa25008408880054402b0092
:10304400640888000002eb003408880084c0a900ea
:10305400d4fa2d009408880054402b00740888008a
:1030640054f82500f4088800d4f9250004098800e0
:103074000002eb00c408880086c0a90044002900af
:10308400e4088800f40d200044498800e40d200081
:103094006449880004022000744988000002eb009f
:1030a4008449880014c0b3000400780032e9b700f2
:1030b400040220005449880080922000241c070048
:1030c40004c4b3000002fd003ae9b7000002fd00a9
:1030d4000042eb000002fd003be9b7000002fd00e6
:1030e40004022000a449880004022000b449880096
:1030f40004022000c449880000c2eb000002fd0065
:103104003ce9b7000002fd0000c2eb000002fd0034
:103114003de9b7000002fd00bf160700740120005e
:10312400744088004f0478000080fa000000060014
:103134000200fa000002eb00040f78000002eb002a
:1031440044ba88004007a90040e7a90040c7a90085
:103154004027a90041e7a9004087a90041c7a90069
:103164000002eb0034be88000002eb0054be88006d
:10317400809220002d1c07000041eb00a1c0b30089
:10318400409320005a200700000278001e0f7200ae
:103194000041eb00a1c0b30040932000542007007d
:1031a400000278001e0f72000041eb00a1c0b300c2
:1031b400409320004e200700000278001e0f72008a
:1031c400c4932000144278000441780041c1b30044
:1031d4004093200046200700000278001e0f720072
:1031e400d4932000144278000441780051c1b30004
:1031f400409320003e200700000278001e0f72005a
:1032040082cfb3008040eb004093200038200700b9
:10321400000278001e0f72000041eb0011c0b300e1
:103224004093200032200700000278001e0f720035
:103234000041eb0021c0b300409320002c20070084
:10324400000278001e0f72000041eb0031c0b30091
:103254004093200026200700000278001e0f720011
:1032640004f02f009e02620004a02f00848f5200fd
:1032740007003a0045ba80000408200005027200e5
:1032840044ba8800b4b980000402e800b4b98800e4
:103294008040eb00409320004720070000027800a4
:1032a400040f7800f40f20009e026200840f2000b7
:1032b400848f52000700320045ba800004082000c1
:1032c4000502720044ba8800b4b980000402e80020
:1032d400b4b98800160807001d0807002008070075
:1032e4000080fa00000006000600fa0054be8000c8
:1032f4000402e80054be8800cbe2a9004088200004
:1033040027f407004089200025f407004206200026
:103314004106200000942000f1000700420620002e
:1033240041062000409f2000ed00070042062000d7
:103334004106200020b02000e900070042062000da
:103344004106200080aa2000e50007004206200074
:103354004106200060bb2000e10007004206200077
:1033640041062000c0b52000dd000700f407070077
:10337400eb0707009b0807008c60a9005516800026
:10338400040420000482620004f0a7000402ea009e
:103394000402e9004f22de00044278000482fb00ac
:1033a400610262004622dd0056168000f5fb2f0004
:1033b4008502630005027200541688009606070011
:1033c40055168000040420000482620004f0a70063
:1033d4000402ea000402e9004f22de0004427800fd
:1033e4000482fb00610262004622dd005616800062
:1033f400f5fb2f0085026300050272005416880055
:10340400351780000400240004826200e00f52009b
:1034140014003a00f442800051c3200004007800f4
:10342400ca08070000027800040f78000001eb00ce
:103434009e00780000942000770007000443800079
:1034440051c3200004007800c0080700000278007f
:10345400040f78000001eb009e007800409f2000dc
:103464006d0007008484200014427800e04f52006d
:103474000d003a00144a800004007800420c070052
:1034840000027800140798001e0090002d13070016
:1034940000027800240798001e019000ae009000fe
:1034a40080aa20005c000700551680000404200058
:1034b4000482620004f0a7000402ea000402e900a6
:1034c4004f22de00044278000482fb0061026200a5
:1034d4004622dd0056168000f5fb2f0085026300ae
:1034e4000502720054168800c701070055168000b3
:1034f400040420000482620004f0a7000402ea002d
:103504000402e9004f22de00044278000482fb003a
:10351400610262004622dd0056168000f5fb2f0092
:1035240085026300050272005416880072050700c4
:1035340055168000040420000482620004f0a700f1
:103544000402ea000402e9004f22de00044278008b
:103554000482fb00610262004622dd0056168000f0
:10356400f5fb2f00850263000502720054168800e3
:1035740044c4b3000002fd005ce8b7000002fd0093
:103584007714070064c0b300040078005ce8b70057
:103594000080fa00000006000000fa0011e1a80013
:1035a40021e1a800f4cf27000415880044fe200080
:1035b4001415880034352e002415880034fe2e009e
:1035c4003415880074082c004415880084f72300ff
:1035d40054158800a1e2a8008560a9008d60a800a8
:1035e4008540a9008d40a8008520a9008d20a80051
:1035f4000de2a800e282a8000042eb000002fd00f8
:10360400b4f7b7000002fd007b1507000060fe0060
:103614000080fa00000006000600fa00000f78009f
:1036240011079800220798001e027800b402900047
:103634001e029000848f5200080031001e027800a0
:10364400b40290001e0278001502980004ba8000ab
:103654000402e80004ba8800030037001e02780060
:103664009e029000150298001e027800941a9000a1
:103674002e029000848f5200080031001e02780050
:10368400941a90001e0278007512980004ba800003
:103694000402e80004ba8800030037001e02780020
:1036a400ae02900075129800c585200095427800fe
:1036b40044c2b30084cf520004003200420620000a
:1036c400410620001e007800050007001e00780057
:1036d400540007000060fe000080fa0000000600ad
:1036e4000a00fa0020079800310798004207980062
:1036f400be0290004e029000848f520009003900ef
:103704002e029000940290002e0290002502980050
:103714002e029000f41290002e029000051a9800d8
:103724003c0037002e029000140290000500200097
:10373400048fbe003e029000050020001e0390008e
:1037440004b3b900060378009e03780005b8b900f5
:1037540080037800070343009e0378000402780086
:103764000722b8000503430086027800048fbe00d8
:10377400048fbe004e029000050020000401be002c
:103784001e00be00bbf307000002be00048fbe0093
:103794009e0278002e029000250298002e029000ce
:1037a4007412900005002000048fbe003e029000b9
:1037b400050020001e03900004b3b900060378003e
:1037c4009e03780005b8b90080037800070343001e
:1037d4009e037800040278000722b8000503430022
:1037e40086027800048fbe00048fbe004e02900053
:1037f400050020000401be001e00be009df307006a
:103804000002be00048fbe009e0278002e029000cb
:10381400051a98002e009000020007000080fa00ac
:10382400000006000600fa00200798002e0290000f
:10383400d40290002e0290002402900085007800ab
:1038440004007800c107070000027800040f780024
:103854002e02900064029000840078001e0078001c
:10386400ba07070000027800040f78002e029000c7
:1038740074029000e00f52000c0034002e029000fd
:10388400740290000482ea009e0f5200030031008b
:103894000082eb00040f78000f0037002e02900026
:1038a400740290001e0f42000b0037002e0290009d
:1038b400740290000402ea009e0f520003003600d6
:1038c4000002eb00040f7800030037002e02900082
:1038d400740290001e0f42002e0290009e02780097
:1038e400450298002e029000b41a90002e02900017
:1038f400041a9000850078000400780093070700fc
:1039040000027800140798002e029000441a9000d8
:10391400840078001e0090008c07070000027800e5
:10392400140798002e029000541a9000e00f5200e1
:103934000f0034002e029000541a90008482ea0092
:103944001e029000848f5200030031000082eb00bd
:1039540014079800150037002e029000541a9000a6
:103964009e02900004824200140798000f00370062
:103974002e029000541a90000402ea008402780097
:103984001e029000848f5200030036000002eb00f8
:1039940014079800050037002e029000541a900076
:1039a4009e02900004824200140798002e029000a8
:1039b4009e029000251a98002e029000940a90000e
:1039c4002e02900024029000850078000400780004
:1039d4005e07070000027800040f78002e029000b2
:1039e400240a9000840078001e007800570707001e
:1039f40000027800040f78002e029000340a900030
:103a0400e00f52000c0034002e029000340a9000a3
:103a14000482ea009e0f5200030031000082eb0092
:103a2400040f78000f0037002e029000340a900033
:103a34001e0f42000b0037002e029000340a900043
:103a44000402ea009e0f5200030036000002eb005d
:103a5400040f7800030037002e029000340a90000f
:103a64001e0f42002e029000740a90008400780019
:103a74001e0078003507070000027800ae029000af
:103a8400d40a98002e02900004129000840078005a
:103a94001e0078002d07070000027800ae02900097
:103aa400e40a98002e029000d40a90002e0290009e
:103ab40014129000848f5200040031002e029000f2
:103ac400941290002e029000550a98002e02900045
:103ad400f41a90002e029000041a900085007800d9
:103ae4000400780019070700000278001407980002
:103af4002e02900004229000840078001e009000a2
:103b04001207070000027800140798002e029000a4
:103b140014229000e00f52000f0034002e02900097
:103b2400142290008482ea001e029000848f5200c6
:103b3400030031000082eb001407980015003700e1
:103b44002e029000541a90009e02900004824200bb
:103b5400140798000f0037002e02900014229000e2
:103b64000402ea00840278001e029000848f52004e
:103b7400030036000002eb0014079800050037002c
:103b84002e029000142290009e02900004824200b3
:103b9400140798002e0290005422900084007800ac
:103ba4001e009000e906070000027800ae029000b3
:103bb400b42298002e0290006422900084007800c1
:103bc4001e009000e106070000027800ae0290009b
:103bd400c42298002e029000b42290002e0290007d
:103be40074229000848f5200040031002e02900051
:103bf400f42290002e029000352298000060fe000e
:103c04000080fa00000006001200fa00a400200060
:103c140034be8800f45d800014079800245b8000a3
:103c2400240798008455800034079800e4568000e7
:103c3400440798005458800054079800b4598000f1
:103c440064079800444a800074079800e44f800099
:103c5400040f980014c0b300044f78000042eb0036
:103c640014479800100037000e82e80084007800a2
:103c740080922000f919070000427800044f780070
:103c84001e4290000442e800144798001e42780047
:103c9400e04f520003003200f4b980000402e8004f
:103ca400f4b988000060fe009e4278000582fb00a3
:103cb4000402ea004f22de008442780014c0b300fc
:103cc4001e439000f34f5300010036000042eb0006
:103cd40004c26200e04f5200e3ff3a001e4290002b
:103ce400f34f5200020036000002200015160700b0
:103cf4000080fa00000006000c00fa009400200086
:103d040034be8800043a800061026200e00f520071
:103d14000300320044ba80000440a00044ba880082
:103d2400053a80000408200004826200e00f52007b
:103d34000400320045ba800004022000050272002b
:103d440044ba8800053a800004042000048262001a
:103d5400e00f52000400320045ba80000404200041
:103d64000502720044ba8800043a800062026200cc
:103d7400e00f52000300320044ba80000400a000a7
:103d840044ba8800053a80000400280004826200d6
:103d9400e00f52000300320044ba80000410a00077
:103da40044ba8800043a800070026200e00f5200b6
:103db4000300320044ba80000420a00044ba880002
:103dc400053a80000400240004826200e00f5200df
:103dd4000300320044ba80000430a00044ba8800d2
:103de4000060fe00350480000404200004826200a8
:103df400e00f52002001320086c0a900c5852000d2
:103e04009542780044c4b30084cf520009003a00bc
:103e1400644080000402e80064408800654080003b
:103e240004d52c00848f5200020036000002eb00ff
:103e340064408800b44380000402e800b44388006e
:103e44007475210014427800e04f520024003200bf
:103e54007475210014427800e24f52001a003e00ab
:103e64000002eb00040f7800130037001e027800f4
:103e740084024200a47521000482420014027800e6
:103e8400e00f52000b0034001e027800840242004e
:103e9400a475210004824200140278008402e9001f
:103ea4001e02780004034200a475210004024300aa
:103eb400050a78001e0fe8001e027800e20f520087
:103ec400eaff360006003700c4ba8000e00f520053
:103ed40003003400c4ba80000402e900c4ba8800b4
:103ee400a44380000402e8006f026200a443880037
:103ef400a4438000e00f520015003a0055168000dc
:103f04000408200004826200e00f52000200320024
:103f1400cae2a90001003700cae2a800d542800025
:103f2400d407200004aab900040278008402d10056
:103f3400c44280008500780004007800a9060700c8
:103f440000027800c44288000002eb00d4428800da
:103f5400a4252600250020001407980025079800b2
:103f64001e009000ae00900077f107000002be0032
:103f7400325c2f00b31e24000400be0089f1070048
:103f84000002be000400be0054f107000002be009f
:103f9400140798002507980035bd8000841520007b
:103fa400848f520002003e009415200034bd880026
:103fb40034bd8000050020000401be001e009000f6
:103fc400ae009000abf107000002be001407980099
:103fd400250798001e0290001442880025048000e2
:103fe4000408200004826200e00f52000200320044
:103ff4000002eb0014428800351780000400220000
:1040040004826200e00f5200060032007442800015
:10401400e00f520003003200ff120700f6120700ff
:10402400ed120700351780000400220004826200ac
:10403400e00f520003003a0014002000744288008c
:10404400020037000002eb00744288004e020700b1
:104054008484200014427800e04f52000d003a009e
:10406400144a800004007800470907000002780021
:10407400340798003e0090003210070000027800d8
:10408400040f78003e0190009e00780080aa200072
:1040940061fd0700c485200014427800f44f5200eb
:1040a40005003200c58520009542780044cab3005b
:1040b40084cf520018003a00420620008000eb0032
:1040c4000094200086fd0700420620008000eb00db
:1040d4000094200082fd0700420620008000eb00cf
:1040e40020b020007efd0700420620008000eb0087
:1040f40080aa20007afd0700420620008000eb0021
:1041040060bb200076fd0700420620008000eb0023
:10411400c0b5200072fd0700911107002f1507009c
:1041240000027800e00f520003003200c4e2a9004c
:10413400d042a90002003700c4e2a800d042a8007f
:1041440024852000144278000442e8000002fd00a7
:1041540052e8b7000002fd002485200014427800d4
:104164006f4262000002fd0052e8b7000002fd0049
:104174002485200014427800e04f520001003a00e8
:104184003f000700a1000700c58520009542780084
:1041940044c4b30084cf520005003a0025048000d3
:1041a4000404200004826200e00f52000400320084
:1041b40095fe07006f0407000002eb00f44188003d
:1041c400f4418000e00f520029003a00554180007c
:1041d40014bd8000848f52000300310054418000dc
:1041e4000402e8005441880004bd8000050020005a
:1041f40044079800550798005441800005002000aa
:104204005e03900004b3b90006037800ce03900067
:1042140005b8b9008003780007034300ce0390007b
:10422400040278000722b8000503430086027800e0
:1042340044079800550798004407980055079800cc
:1042440014bd8000050020000401be004e00900053
:10425400de00900007f107000002be00440798004a
:10426400550798004e029000244188000200370050
:104274000002eb00544188000080fa0000000600b0
:104284000200fa008400200034be8800455e8000ed
:10429400d45d800085007800040078002b050700b9
:1042a40000027800040f7800545e800084007800d7
:1042b4001e0078002505070000027800040f78002e
:1042c400645e80001e0f42001e0278000402d100ca
:1042d40064448800345e80000402d10054448800a1
:1042e4004088200012f00700755b8000045b8000aa
:1042f40085007800040078001405070000027800a7
:10430400040f7800845b8000840078001e0078002d
:104314000e05070000027800040f7800945b80000b
:104324001e0f42001e0278000402d100e4448800fb
:10433400645b80000402d100d444880040892000da
:10434400fbef070044448000040f78001e0278004d
:10435400e00f520002003d000002eb00040f780061
:104364001e02780004024200040f780004d02700e3
:104374009e027800848f52000200360004d0270089
:10438400040f78000002eb00145e88000002eb00ca
:10439400045e88001e027800245e8800c444800005
:1043a400040f78001e027800e00f520002003d0066
:1043b4000002eb00040f78001e02780004024200a1
:1043c400040f780004d027009e027800848f5200e6
:1043d4000200360004d02700040f78000002eb002e
:1043e400445b88000002eb00345b88001e02780006
:1043f400545b8800c0b520000afd070060bb2000a4
:1044040008fd07000080fa00000006000c00fa0016
:10441400945880008400780020b020006a0f0700c0
:104424000002780005002000048fbe009e02900068
:104434000471220004aab900040378001e02780063
:104444006022b90004027800040343009e0278004d
:1044540004712200042ab800050343008602780090
:10446400048fbe00048fbe00f459800084007800dd
:1044740020b020008a0f0700000278000500200009
:104484000401be001e00be007af007000002be0058
:10449400048fbe001e027800f4438800c4438000e9
:1044a400e00f5200b6003a00a4428000050020004c
:1044b400048fbe0014428000050020001e039000fb
:1044c40004b3b900060378009e03780005b8b90068
:1044d40080037800070343009e03780004027800f9
:1044e4000722b8000503430086027800048fbe004b
:1044f400048fbe001e02be004a2bdd004622de00f1
:1045040004027300c62ade00048fbe001e0290005f
:104514006d22b900040378001e0278006022b900fd
:1045240004027800040343009e027800d4002000b3
:10453400042ab8000503430086027800048fbe00f5
:10454400048fbe001e02be00452bdd004b22de00a0
:1045540004027300cb2ade00048fbe00e4ff2f00a8
:10456400050020001e03be00840f5300858f5b00ee
:10457400030036000082eb00b442880002003700da
:104584001e027800b4428800b4b8800005042000fc
:10459400850f52001400320005042000850f5200dc
:1045a40007003e0005022000850f52001c00320067
:1045b40005032000850f52000f0032002e00370043
:1045c40005032100850f52001d003200050421005f
:1045d400850f52001600320005022100850f52009b
:1045e4002100320024003700b4428000050020007e
:1045f400048fbe0024003700c5b88000b442800098
:104604000001eb008500780004007800491c0700d5
:104614000002780005002000048fbe001a00370055
:10462400b442800005002000048fbe00160037004d
:10463400b442800005002000048fbe001200370041
:10464400d5b88000b44280000001eb0085007800fa
:1046540004007800371c07000002780005002000e1
:10466400048fbe0008003700b4428000050020001b
:10467400048fbe0004003700b4428000050020000f
:10468400048fbe00000000001e02be00492bdd00a6
:104694004722de0004027300c72ade00048fbe0036
:1046a4009e027800f403200004826200440798000c
:1046b4004e029000240798002e029000e00f520052
:1046c40002003c000002eb0024079800ae029000b8
:1046d400e4032000848f520002003400f40320001d
:1046e40024079800ae02900045079800ce0290007f
:1046f400f40320000482620044079800c58520006a
:104704009542780044c4b30084cf52000f003200b5
:10471400c58520009542780044c3b30084cf52007d
:104724000a003200c58520009542780054c3b300c6
:1047340084cf520005003200c585200095427800e0
:1047440084cab30084cf520044003a004e02900061
:10475400840242002470280004824200140378007a
:104764005607980042062000de00900020b020008a
:10477400dbfb07005e02900074b988003700370045
:10478400b543800044062000848f520003003600a5
:10479400d54380003507980002003700e6438000c7
:1047a4003607980084b980000402e80084b98800c0
:1047b40085b9800034062000848f5200270036001b
:1047c4000002eb0084b988003e029000e5fc2f0053
:1047d40084824200f4438000848f52000900360032
:1047e40074b980000402e80074b9880075b98000c7
:1047f40044062000848f5200020036004406200044
:1048040074b988003e02900025032000848242008f
:10481400f4438000848f52000600310074b9800094
:10482400e00f52000300320074b980000402e90072
:1048340074b9880074b98000fd0f520002003e0074
:10484400e401200074b9880074b980004206200095
:104854008400780020b02000a1fb07000080fa004b
:10486400000006000400fa007400200034be880032
:10487400251680000420200004826200e00f52000c
:1048840037003200d6c2a900d02420000100200045
:104894001b1c070021c0b3000000eb00081a07002e
:1048a4000002be00048fbe00040020001511210088
:1048b4001e03be00840f5300858f5b0006003a0080
:1048c4000002eb0004448800d4b980000402e8002c
:1048d400d4b98800020037001e027800044488001e
:1048e400d6c2a800d024200001002000041c070028
:1048f400d6a2a900d024200001002000001c07003b
:1049040021c0b3000000eb00ed1907000002be0057
:10491400048fbe0004002000151121001e03be00f8
:10492400840f5300858f5b0006003a000002eb0001
:1049340014448800d4b980000402e800d4b9880083
:10494400020037001e02780014448800d6a2a80092
:10495400d024200001002000e91b070007003700d5
:104964000002eb00144488000002eb0004448800b9
:10497400e4b980000402e800e4b98800c522a90073
:104984000080fa00000006000200fa006400200023
:1049940034be880020d12000e71b07000002780005
:1049a400040f7800f44280009e0078000400780030
:1049b4000c04070000027800f442880020e1200083
:1049c400dd1b070000027800040f78000443800018
:1049d4009e007800040078000204070000027800ba
:1049e4000443880035178000040024000482620018
:1049f400e00f520002003a00044380001441880092
:104a040020112100cc1b070000027800040f78005d
:104a1400245780009e00780004007800f10307000a
:104a2400000278002457880020212100c21b0700bf
:104a340000027800040f7800c45580009e007800be
:104a440004007800e703070000027800c4558800da
:104a540020412100b81b070000027800040f7800f1
:104a6400945880009e00780004007800dd0307005d
:104a7400000278009458880020312100ae1b070002
:104a840000027800040f7800f45980009e0078003a
:104a940004007800d303070000027800f45988006a
:104aa40020512100a41b070000027800040f7800a5
:104ab400844a80009e00780004007800c90307003f
:104ac40000027800844a8800206121009a1b0700b4
:104ad40000027800040f7800245080009e007800c3
:104ae40004007800bf030700000278002450880007
:104af4000080fa00000006000600fa00f4cf270048
:104b040004158800e4fd20001415880034352e00b7
:104b14002415880034fe2e003415880074082c00f7
:104b24004415880004fc230054158800a1e2a80061
:104b34000002eb00040f7800800037000000000042
:104b4400151580000408200004826200e00f520062
:104b5400fbff32000002eb0014079800340037001a
:104b6400051480001e0278000403420024f1200092
:104b740004024300050a7800151480001e02780020
:104b8400040342002401210004024300050a7800c2
:104b9400251480001e027800040342002411210021
:104ba40004024300050a7800351480001e027800d0
:104bb400040342002421210004024300050a780072
:104bc400451480001e0278000403420024312100b1
:104bd40004024300050a7800551480001e02780080
:104be400040342002441210004024300050a780022
:104bf400651480001e027800040342002451210041
:104c040004024300050a7800751480001e0278002f
:104c1400040342002461210004024300050a7800d1
:104c24001e0fe8001e0290000402e800140798001a
:104c34001e029000e70f5200c9ff3600000000007a
:104c4400151580000408200004826200e00f520061
:104c5400fbff3a000002eb00140798003400370011
:104c6400851480001e0278000403420024f1200011
:104c740004024300050a7800951480001e0278009f
:104c8400040342002401210004024300050a7800c1
:104c9400a51480001e0278000403420024112100a0
:104ca40004024300050a7800b51480001e0278004f
:104cb400040342002421210004024300050a780071
:104cc400c51480001e027800040342002431210030
:104cd40004024300050a7800d51480001e027800ff
:104ce400040342002441210004024300050a780021
:104cf400e51480001e0278000403420024512100c0
:104d040004024300050a7800f51480001e027800ae
:104d1400040342002461210004024300050a7800d0
:104d24001e0fe8001e0290000402e8001407980019
:104d34001e029000e70f5200c9ff3600f40720005e
:104d44009e027800848f52007cff3600a1e2a90005
:104d540020f12000f81a07000002780024079800c8
:104d64002e029000645b880020012100f21a0700e3
:104d740000027800240798002e029000345e880018
:104d840020112100ec1a0700000278002407980083
:104d94002e0290002457880020212100e61a0700e3
:104da40000027800240798002e029000c455880061
:104db40020412100e01a070000027800240798002f
:104dc4002e0290009458880020312100da1a07003e
:104dd40000027800240798002e029000f4598800fd
:104de40020512100d41a07000002780024079800fb
:104df4002e029000844a880020612100ce1a070008
:104e040000027800240798002e02900024508800a5
:104e14000080fa00000006000600fa00f4cf270024
:104e240004158800e4fd20001415880034352e0094
:104e34002415880034fe2e003415880074082c00d4
:104e4400441588000403200054158800a1e2a8003a
:104e54000002eb00040f7800860037000000000019
:104e6400151580000408200004826200e00f52003f
:104e7400fbff32000002eb001407980037003700f4
:104e8400051480001e0278000403420024d120008f
:104e940004024300050a7800151480001e027800fd
:104ea4000403420024e1200004024300050a7800c0
:104eb4001e0fe800251480001e027800040342003f
:104ec40024d1200004024300050a78003514800030
:104ed4001e0278000403420024e12000040243007f
:104ee400050a78001e0fe800451480001e027800b1
:104ef4000403420024d1200004024300050a780080
:104f0400551480001e0278000403420024e12000ae
:104f140004024300050a78001e0fe80065148000af
:104f24001e0278000403420024d12000040243003e
:104f3400050a7800751480001e02780004034200fc
:104f440024e1200004024300050a78001e0fe80053
:104f54001e0290000402e800140798001e0290004c
:104f6400e30f5200c6ff3600000000001515800054
:104f74000408200004826200e00f5200fbff3a00a4
:104f84000002eb00140798003700370085148000f6
:104f94001e0278000403420024d1200004024300ce
:104fa400050a7800951480001e027800040342006c
:104fb40024e1200004024300050a78001e0fe800e3
:104fc400a51480001e0278000403420024d12000ae
:104fd40004024300050a7800b51480001e0278001c
:104fe4000403420024e1200004024300050a78007f
:104ff4001e0fe800c51480001e027800040342005e
:1050040024d1200004024300050a7800d51480004e
:105014001e0278000403420024e12000040243003d
:10502400050a78001e0fe800e51480001e027800cf
:105034000403420024d1200004024300050a78003e
:10504400f51480001e0278000403420024e12000cd
:1050540004024300050a78001e0fe8001e029000b7
:105064000402e800140798001e029000e30f5200a7
:10507400c6ff3600f40720009e027800848f520099
:1050840076ff3600a1e2a90020d120002a1a0700e9
:1050940000027800240798002e029000f442880051
:1050a40020e12000241a0700000278002407980059
:1050b4002e029000044388000080fa0000000600dd
:1050c4000400fa0094028000040f7800ff3ffc0003
:1050d400140280000450a0000460a0000470a0002a
:1050e400140288001e0278009402880000008800e0
:1050f40000000000000000000000000000000000ac
:105104008c60a9008e00a900940280001407980006
:10511400ff3ffc00140280000450a1000460a100c1
:105124000470a100140288001e02900094028800fa
:105134000000880003000700cbe2a8000080fa000a
:10514400000006002200fa00847a2100040f78008f
:105154001e02780014027800440798001e8fe800ad
:105164001e02780014027800340798001e8fe800ad
:105174001e02780014027800240798001e8fe800ad
:105184001e0278001402780014079800647b210042
:10519400040f78001e027800140278006407980057
:1051a4001e8fe8001e02780014027800540798004d
:1051b400744380007407980084438000040f9800af
:1051c40094438000140f98000e82e8008400780055
:1051d40010002000fd1107000002eb00644088006d
:1051e4000080fa00000006000000fa005c000700de
:1051f4004f00070056000700420620008000eb0025
:105204000094200036f90700420620008000eb00dd
:105214000094200032f90700420620008000eb00d1
:1052240020b020002ef90700420620008000eb0089
:1052340080aa20002af90700420620008000eb0023
:1052440060bb200026f90700420620008000eb0026
:10525400c0b5200022f907004088200050ec070068
:10526400408920004eec070005e1a9008e00a9004a
:105274008c60a9008600a9008460a900c4c2a900aa
:105284000080fa00000006000000fa003400070065
:1052940005e1a9008e00a9008c60a9008600a90080
:1052a4008460a900c4c2a9000080fa0000000600be
:1052b4000000fa004088200039ec070040892000f3
:1052c40037ec0700420620008000eb0080aa200093
:1052d40003f90700420620008000eb0020b0200004
:1052e400fff80700420620008000eb00c0b5200054
:1052f400fbf80700420620008000eb0060bb2000a2
:10530400f7f807000e000700050007000002eb0095
:105314003408880084c0a9000080fa000000060058
:105324000000fa00d702a8000080fa00000006007e
:105334000000fa00d702a9000080fa00000006006d
:105344000000fa00d722a8000080fa00000006003e
:105354000000fa00d722a9000080fa00000006002d
:105364000000fa00d762a900d602a8000080fa0063
:10537400000006000400fa000002eb00040f7800ad
:105384000002eb00140798005400200034be88008b
:10539400c58520009542780044c3b30084cf5200f1
:1053a4000f003200c58520009542780044c4b30044
:1053b40084cf52000a003200c5852000954278004f
:1053c40084cab30084cf520005003200c585200092
:1053d4009542780054c3b30084cf520005003a00cc
:1053e4009e029000f4f72f000482620014079800d4
:1053f400040037009e029000040820000502720099
:105404001407980054bb8000e00f520004003200df
:105414001e0290000400a000140798000400370046
:105424009e029000e4ff2f0004826200140798009b
:1054340024bb8000e00f5200020032001e20a000b6
:1054440002003700b4ff2f001e0f620065ba80000f
:1054540004f02f0004826200e00f520004003200c6
:105464001e0290000440a0001407980004003700b6
:105474009e029000f4fe2f0004826200140798003c
:1054840065ba8000f40f200004826200e00f52002d
:10549400040032001e0290000410a00014079800bb
:1054a400040037009e029000d4ff2f0004826200a3
:1054b4001407980095ba800004f02f00048262005b
:1054c400e00f5200020032001e00a000020037006c
:1054d400e4ff2f001e0f620095ba8000f40f200035
:1054e40004826200e00f5200020032001e10a0008d
:1054f40002003700d4ff2f001e0f6200c585200074
:105504009542780044c4b30084cf520004003a00aa
:105514001e0290000420a000140798000400370025
:105524009e029000b4ff2f000482620014079800ca
:10553400c4932000144278000482fb009e0f5200a2
:10554400100032001e027800044278000400780043
:105554003ce9b700c4932000144278000441780069
:1055640041c1b30040932000611707000002780096
:10557400e00f520003003200b4b980000402e800d6
:10558400b4b98800d4932000144278008482fb00cc
:105594001e029000848f5200100032001e02900000
:1055a40004427800040078003de9b700d493200059
:1055b400144278000441780051c1b30040932000a4
:1055c4004b17070000027800e00f5200030032007e
:1055d400b4b980000402e800b4b988000080fa007d
:1055e400000006000000fa001516800004002200e6
:1055f40004826200e00f5200060032000042eb0019
:105604000002fd0014f7b7000002fd00cbc2a900a0
:105614000400370014c0b3000400780014f7b70086
:10562400cbc2a800d762a800d602a90005e1a90050
:105634000002eb00040888008460a9008c60a800c4
:10564400e46120001408880005e1a8000002eb00d2
:105654003408880084c0a9000080fa000000060015
:105664000a00fa0030079800410798003e029000b3
:105674000500200014079800250798001e029000da
:10568400ae029000c022dd00040020001407980040
:10569400250798004e029000050020000401be007a
:1056a4001e009000ae009000f2eb07000002be0066
:1056b40014079800250798001e029000ae0290007f
:1056c4004d2bdd004322de0004027300c32ade00fa
:1056d40014079800250798001e039000ae0390005d
:1056e40004002000f5ff2f0006007800070378006f
:1056f4008403780005027800070060000402630058
:1057040005002000c022dd00040020000403be00c8
:105714006102b8000403730085837300e00f530033
:10572400e08f5b00030032000082eb00040f78007e
:10573400020037001e029000040f78001e02780059
:10574400040078000080fa00000006000800fa0057
:1057540020079800310798002e02900005002000d1
:10576400048fbe003e029000050020001e0390003e
:1057740004b3b900060378009e03780005b8b900a5
:1057840080037800070343009e0378000402780036
:105794000722b8000503430086027800048fbe0088
:1057a400048fbe001e02be00432bdd004d22de002e
:1057b40004027300cd2ade00048fbe00f4ff2f0024
:1057c400050020001e03be00840f5300858f5b007c
:1057d40006003600f4ff2f0005002000048fbe00f1
:1057e40014ba80000402e80014ba88001e0278008b
:1057f400240798002e029000040078000080fa002c
:10580400000006000a00fa003007980041079800db
:105814003e029000e00f520002003a004e02900057
:10582400340798003e0290000500200014079800f9
:1058340025079800ae029000f40f200004aab900d6
:10584400040378001e0290006022b900040278006c
:10585400040343009e029000f40f2000042ab800c1
:105864000503430086027800140798002507980072
:1058740014079800250798004e02900005002000a8
:105884001e039000ae0390000602420087824a0085
:1058940014079800250798001e029000ae0290009d
:1058a400482bdd004822de0004027300c82ade0013
:1058b40014079800250798001e029000040f780032
:1058c4004e0290009e0f5200020036001e0fe800a8
:1058d400040037004e0290009e0f52000100310078
:1058e4001e0fe9001e027800040078000080fa0010
:1058f400000006000a00fa003007980041079800eb
:105904003e029000e00f520002003a004e02900066
:10591400340798003e029000050020001407980008
:1059240025079800ae029000f403200004aab900f1
:10593400040378001e0290006022b900040278007b
:10594400040343009e029000f4032000042ab800dc
:105954000503430086027800140798002507980081
:1059640014079800250798004e02900005002000b7
:105974001e039000ae0390000602420087824a0094
:1059840014079800250798001e029000ae029000ac
:105994004a2bdd004622de0004027300c62ade0024
:1059a40014079800250798001e029000040f780041
:1059b4004e0290009e0f5200020036001e0fe800b7
:1059c400040037004e0290009e0f52000100310087
:1059d4001e0fe9001e027800040078000080fa001f
:1059e400000006000a00fa003007980041079800fa
:1059f4003e029000e00f520002003a004e02900076
:105a0400340798003e029000050020001407980017
:105a1400250798002e0290006f22b9000403780035
:105a24001e0290006022b9000402780004034300bf
:105a34009e029000f4002000042ab80005034300ed
:105a44008602780014079800250798001407980028
:105a5400250798004e029000050020001e039000c8
:105a6400ae0390000602420087824a0014079800a1
:105a7400250798001e029000ae0290004c2bdd001a
:105a84004422de0004027300c42ade0014079800d6
:105a9400250798001e029000040f78004e02900023
:105aa4009e0f5200020036001e0fe800040037006b
:105ab4004e0290009e0f5200010031001e0fe900bb
