:020000040000fa
:080000000001040000000000f3
:020000040000fa
:100008003c280000e8270000002800001428000011
:10001800282800003c2800003c2800003c2800005c
:100028003c2800003c2800003c2800001626000060
:100038003c2800003c2800003c2800003c28000028
:100048003c28000086370000b637000088260000ec
:100058003c2800003c2800003c28000088270000bd
:10006800f42400003c2800003c2800003c28000044
:100078003c2800003c2800003c2800003c280000e8
:100088003c2800003c2800003c2800003c280000d8
:100098003c2800003c2800003c2800003c280000c8
:1000a8003c2800003c2800003c2800003c280000b8
:1000b8003c2800003c2800003c2800003c280000a8
:1000c8003c2800003c280000d22700003c28000003
:1000d8003c2800003c2800003c2800003c28000088
:1000e8003c2800003c2800003c2800003c28000078
:0800f8003c2800003c28000038
:020000040000fa
:100108003c280000e8270000002800001428000010
:10011800282800003c2800003c2800003c2800005b
:100128003c2800003c2800003c280000162600005f
:100138003c2800003c2800003c2800003c28000027
:100148003c28000086370000b637000088260000eb
:100158003c2800003c2800003c28000088270000bc
:10016800f42400003c2800003c2800003c28000043
:100178003c2800003c2800003c2800003c280000e7
:100188003c2800003c2800003c2800003c280000d7
:100198003c2800003c2800003c2800003c280000c7
:1001a8003c2800003c2800003c2800003c280000b7
:1001b8003c2800003c2800003c2800003c280000a7
:1001c8003c2800003c280000d22700003c28000002
:1001d8003c2800003c2800003c2800003c28000087
:1001e8003c2800003c2800003c2800003c28000077
:0801f8003c2800003c28000037
:020000040000fa
:100200000f0022000e7f22000e0188000000000077
:1002100000012000200288000c000700e0dc240020
:100220000100200011000700000020000000e00095
:10023000020032000000020000000000e449020059
:10024000000000000040da000000fe004440a90069
:10025000000820000000e000030032000000200041
:10026000a00188004440a800000006009101880019
:10027000800078000000eb0015003700e2804000ad
:1002800032a0b4009101ba00e280400032a0b40074
:100290009102ba00e280400032a0b4000002eb00fc
:1002a000472bde00f507b200602ce10004003a00a5
:1002b0000059eb008301e900fdff3e000400370018
:1002c0006128e100010032000082eb000400070019
:1002d0001101ba000200e000e8ff3a000000060049
:1002e0003159ba008301e9000c0032002159ba00eb
:1002f0008301e900080032000400e00003003a0036
:10030000e280400032a0b400f5ff370011d9ba00f6
:100310008301e900faff3a008100e800e180400033
:1003200032a0b40000000600881f78008a1f780001
:100330004400f800080f2000280288000004900004
:1003400010059000a000900030019000c0019000c6
:100350000300ca000280ca000030cb001a00cd00a2
:100360004604c3000100ca004604c0001e04c000c9
:100370000605c0000100cd0021009800050d7800a1
:10038000eaba9700052578004400f9004f05780087
:100390004f04780000000600801f78004000b00085
:1003a0000008eb004f007800801f780010009000dc
:1003b0000018eb000018eb000008eb004f0078007d
:1003c000000006004400f800020f2000220288000e
:1003d000910078003000ca003080ca000000cb00d5
:1003e0002080ca000000cb003100cd004000ca00d0
:1003f0000000cb000000cb000010cb003100cd008e
:100400001180cc004400f9000000060010118800a3
:100410000111880000000600401188003111880099
:10042000000006003200f800910188000008bb00bf
:10043000410424006210e1000400320000022000a8
:100440000010e1000a003a0051042400013b88003a
:100450000500fc0051052000313b8800a10a200066
:10046000313b880061e7a8000000000000000000a8
:100470003200f900000006003200f8006004240099
:10048000003b8800f2ff37003200f800910188003d
:1004900041002400013b88000208bb00ecff37004c
:1004a0003200f8009101880051002400013b8800cf
:1004b000030120003218bb008301e900fdff3a0070
:1004c000e3ff37003200f8009101880080027800d5
:1004d00062004000e08048003549ba003204e00084
:1004e0000410a700100032008301e9000e00320062
:1004f0002549ba003204e0000410a7000a003200c7
:100500008301e900080032000408a300eeff320076
:1005100015c9ba003204e0000410a700020032003e
:100520008301e900e8ff3a003200f900000006000c
:100530006022b800060220000000d0008180d200b6
:100540000482d2008582d2000000a0000202520084
:1005500083825a00030031000202420083824a0073
:100560000000a1000603e900f3ff3a0000000600c6
:020000040000fa
:1005700064000000630000006300000062000000ef
:100580006200000061000000600000005f000000e9
:100590005e0000005e0000005d0000005c000000e6
:1005a0005b0000005a0000005900000058000000e5
:1005b00057000000560000005400000053000000e7
:1005c00052000000510000004f0000004e000000eb
:1005d0004d0000004b0000004a00000048000000f1
:1005e00047000000450000004300000042000000fa
:1005f000400000003e0000003d0000003b00000005
:100600003900000037000000350000003300000012
:10061000310000002f0000002d0000002b00000022
:100620002900000027000000250000002300000032
:10063000200000001e0000001c0000001900000047
:10064000170000001500000012000000100000005c
:100650000d0000000a000000080000000500000076
:100660000300000000000000000000000000000087
:020000040000fa
:100670000e00fa0064832000144278000482fb001c
:1006800045032000850f520014013200450320006d
:10069000850f52000d003c00e60f52002e00320084
:1006a000e60f520003003c00e40f52001b00320032
:1006b0001e033700f40f520076003200450220007e
:1006c000850f52008c00320018033700050a200005
:1006d000850f520012033200050a2000850f5200d8
:1006e00007003c0055032000850f52003601320000
:1006f00045042000850f52007e0132000b033700b5
:10070000450a2000850f5200d2023200850a2000df
:10071000850f5200e002320004033700090307008e
:100720005907070076080700861e070000027800b8
:10073000e00f52000400320004cab3000440780005
:1007400036e8b700fd02370044c1b300044078002a
:1007500036e8b700f90237001517800004022000c0
:100760000482620004f0a7000402ea000402e90027
:100770004f22de00044278000482fb006102620026
:100780004522dd0016178000f5fd2f00850263006d
:100790000482720014178800ea020700151780000f
:1007a000040220000482620004f0a7000402ea00b0
:1007b0000402e9004f22de00044278000482fb00bc
:1007c000610262004522dd0016178000f5fd2f0052
:1007d00085026300048272001417880098070700de
:1007e00015178000040220000482620004f0a700b4
:1007f0000402ea000402e9004f22de00044278000d
:100800000482fb00610262004522dd0016178000b1
:10081000f5fd2f0085026300048272001417880022
:1008200037080700151780000402200004826200c8
:1008300004f0a7000402ea000402e9004f22de00ef
:10084000044278000482fb00610262004522dd0060
:1008500016178000f5fd2f008502630004827200e8
:1008600014178800371e070000027800e00f5200be
:100870000400320004cab3000440780036e8b70030
:10088000ae02370044c4b3000440780036e8b70035
:10089000aa0237001b0e070012003700ef090700fd
:1008a000691207002c1e070000027800e00f5200ba
:1008b0000400320044cab3000440780036e8b700b0
:1008c000080037001516800004002400048262002e
:1008d000e00f520003003a0044c2b3000440780025
:1008e00036e8b7006483200014427800f44f5200c9
:1008f000eaff320091023700340e07000002eb00dd
:10090000040f78000002eb00c4c488006d003700bb
:10091000d20907004c120700000000000000000090
:10092000000000002504800004042000048262000e
:10093000e00f52002f0032001e0fe80084c0a90013
:10094000351780000400210004826200e00f52008d
:1009500003003200c4c48000e10f520011003a00cd
:10096000a20020009e00780000ac2000350807009f
:10097000a20020009e00780060a620003108070039
:10098000a20020009e007800a0b120002d080700e2
:10099000a20020009e00780040b720002908070030
:1009a0001400370004568000040178009e0078008f
:1009b00000ac2000230807003453800004017800b5
:1009c0009e00780060a620001e080700d458800012
:1009d000040178009e007800a0b1200019080700eb
:1009e000a45b8000040178009e00780040b72000de
:1009f00014080700d81d070000027800e00f52001d
:100a00000400320044cab3000440780036e8b7005e
:100a10002c003700151680000400240004826200b8
:100a2000e00f52000400320044c1b30004407800db
:100a300036e8b70023003700847020009e0278005b
:100a4000848f520007003600491b070044c3b300df
:100a50000440780036e8b7000002eb00c4c4880008
:100a6000180037003517800004002100048262005e
:100a7000e00f52000a003a001e027800f40f520004
:100a8000070036003a1b070044c3b3000440780057
:100a900036e8b7000002eb00c4c488000900370044
:100aa000c4c48000e10f520006003a00301b07006a
:100ab00044c3b3000440780036e8b7000002eb00fe
:100ac000c4c48800658320009542780044c2b30006
:100ad00084cf52008eff320018023700b10d07009c
:100ae0004206200041062000e08f2000d5070700c5
:100af0004206200041062000209b2000d10707006d
:100b0000420620004106200000ac2000cd0707006f
:100b1000420620004106200060a62000c907070009
:100b2000420620004106200040b72000c50707000c
:100b30004206200041062000a0b12000c1070700a6
:100b40001b00370045090700bf110700821d070081
:100b500000027800e00f52000400320084cab300a3
:100b60000440780036e8b700110037001516800001
:100b70000400240004826200e00f520004003200ee
:100b800044c1b3000440780036e8b70008003700dd
:100b9000151680000400280004826200e00f520055
:100ba00003003a0054c3b3000440780036e8b700ad
:100bb000658320009542780044c3b30084cf52007f
:100bc000e0ff3200dd013700c441800051c3200046
:100bd00004007800a30e0700000278004407980084
:100be0000001eb00ce009000e08f200063070700bb
:100bf000d441800051c3200004007800990e070002
:100c000000027800440798000001eb00ce0090003d
:100c1000209b2000590707000002eb0014079800f2
:100c2000c522a9002d0037000c0907008611070016
:100c3000250480000404200004826200e00f5200ba
:100c40000400320084c0a9001e0290000402e800e3
:100c500014079800401d070000027800e00f5200c2
:100c60000400320084cab3000440780036e8b700bc
:100c70001a00370015168000040024000482620068
:100c8000e00f52000400320044c1b3000440780079
:100c900036e8b70011003700151680000400280060
:100ca00004826200e00f52000400320044c3b3002b
:100cb0000440780036e8b700080037009e02900034
:100cc00014032000848f52000400360044c4b30093
:100cd0000440780036e8b700090e0700658320005d
:100ce0009542780054c3b30084cf5200ceff320047
:100cf000920137000002eb00f44188000002eb0093
:100d0000144288000002eb00044288000002eb005d
:100d100024c688006022b800d4c58800e5c58800d4
:100d20000042eb0004407800d0f6b7008c60a800c9
:100d300042013700c4002000f4c58800c70807003e
:100d400041110700046d210014427800e04f520069
:100d50001e01320024418000e00f520002003200e8
:100d600000402000ba1c0700b4002000f4c5880031
:100d70001541800004f02f00848f520003003e00d4
:100d8000144180000402e80014418800d4c58000aa
:100d9000e5c5800061024200e0824a00d4c58800b7
:100da000e5c58800848a21003400be002401be000d
:100db00014002000050020006033b800000242004b
:100dc00081824a0002034b0083834b00808a21000a
:100dd0000498be000690be00a44180000402e80012
:100de000a44188005f0a0700246d210014427800a6
:100df000044078007a1a0700346d2100144278000c
:100e000004407800d2f6b70000ed200091230700df
:100e100000027800c440880000fd20008d230700f8
:100e200000027800a440880014418000fd0f5200a9
:100e300008003e000002eb00f44088000002eb00d6
:100e4000e440880014c0b3000440780020e8b700f4
:100e5000b20037000002eb0084408800154180009a
:100e600094c48000848f52002300310084c4800029
:100e700005002000540798006507980095c480007d
:100e80001441800004825200050020006e0390008f
:100e900004b3b90006037800de03900005b8b9007a
:100ea0008003780007034300de039000040278000b
:100eb0000722b80005034300860278005407980013
:100ec00065079800540798006507980094c480004f
:100ed000050020000401be005e009000ee009000be
:100ee00093fd07000002be005407980065079800b4
:100ef0005e029000844088003517800004002400c2
:100f000004826200e00f520011003a00a4c4800085
:100f1000e00f520007003200d5408000844080007e
:100f2000048242000500200024079800350798003d
:100f300032003700d5408000844080000482520097
:100f40000500200024079800350798002b00370083
:100f5000a4c48000e00f520007003200d54080009a
:100f6000844080000482420005002000240798008d
:100f70003507980006003700d54080008440800087
:100f800004825200050020002407980035079800cd
:100f9000d4418000050020003e03900004b3b90056
:100fa00006037800ae03900005b8b900800378000e
:100fb00007034300ae039000040278000722b80044
:100fc000050343008602780024079800350798003f
:100fd0002407980035079800744080000500200021
:100fe0000401be002e009000be00900050fd0700de
:100ff0000002be002407980035079800c440800016
:101000006123b8002e029000be0290002403b000bd
:101010000580b000840f5300858f5b000400390009
:10102000f440800063025200f44088000e00370054
:10103000c44080006123b8002e009000be009000e4
:10104000e4fc2f00f5ff2f000002420081824a00dd
:10105000840f5300858f5b0003003e00f440800046
:1010600063024200f4408800b44080002503200061
:1010700084824200a4408000848f5200040031002a
:10108000e440800063025200e44088000900370019
:10109000b4408000e5fc2f0084824200a440800020
:1010a000848f520003003600e44080006302420057
:1010b000e4408800f540800004642000848f5200e2
:1010c0000300340004642000f44088000600370068
:1010d000f5408000049c2f00848f520002003d00e8
:1010e000049c2f00f4408800e54080008425200007
:1010f000848f52000300340084252000e4408800df
:1011000006003700e540800084da2f00848f52000b
:1011100002003d0084da2f00e4408800c4418000d2
:1011200051c32000040078004e0d07000002780033
:1011300044079800b5408000743e2000848f520020
:1011400004003600e4408000ce0290000482420099
:10115000440798000001eb00ce009000e08f2000d3
:10116000060607007440800051c320000400780088
:101170003c0d07000002780044079800d54080002d
:10118000743e2000848f520004003600f44080003a
:10119000ce02900004824200440798000001eb0058
:1011a000ce009000209b2000f40507006f07070089
:1011b0000002eb003408880084c0a9000042eb0064
:1011c00004407800d0f6b7007e100700e21b07004d
:1011d00000027800e00f520005003200770b070094
:1011e00084cab3000440780036e8b7001300370023
:1011f000151680000400240004826200e00f5200f3
:10120000050032006d0b070044c1b30004407800b4
:1012100036e8b700090037001516800004002800e2
:1012200004826200e00f520004003200630b0700ea
:1012300044c3b3000440780036e8b700658320005b
:101240009542780044c4b30084cf5200b9fe320006
:101250003a003700ab0b0700090037007f07070093
:10126000f90f0700bc1b070000027800e00f5200d6
:1012700003003a0044c1b3000440780036e8b700e8
:10128000658320009542780044cab30084cf5200a1
:10129000f2ff320029003700c20b07001a003700a6
:1012a0006e070700e80f0700b61b07000002780072
:1012b000e00f52000400320044cab300044078003a
:1012c00036e8b7001000370015168000040024002f
:1012d00004826200e00f52000400320044cab300ee
:1012e0000440780036e8b700070037009a1b070073
:1012f00000027800e00f520003003a0044c3b3003c
:101300000440780036e8b7006583200095427800f5
:1013100084cab30084cf5200e1ff320007003700d7
:101320004e070700c80f0700fdff370004cab300cf
:101330000440780036e8b700000000000080fa00a2
:10134000000006000200fa00f4c580004441880055
:101350000002eb00f4c588000002eb0014c3880013
:10136000043a800061026200e00f52000300320084
:1013700014c380000440a00014c38800053a800014
:101380000408200004826200e00f520004003200d2
:1013900015c38000040220000482720014c3880078
:1013a000053a80000404200004826200e00f52002d
:1013b0000400320015c3800004042000048272007f
:1013c00014c38800043a800062026200e00f5200f9
:1013d0000300320014c380000400a00014c388007e
:1013e000053a80000400280004826200e00f5200e9
:1013f0000300320014c380000410a00014c388004e
:10140000043a800070026200e00f520003003200d4
:1014100014c380000420a00014c38800053a800093
:101420000400240004826200e00f52000300320036
:1014300014c380000430a00014c388000002eb0035
:1014400064c288000002eb0074c288000002eb0056
:1014500084c288000002eb0094c288000002eb0006
:10146000a4c288000002eb00b4c288000002eb00b6
:10147000c4c288000002eb00d4c288000002eb0066
:10148000e4c288000002eb00f4c2880094c180002e
:10149000b4408800a4c18000d4408800b4c180005a
:1014a00094c48800c4c1800064c48800d4c1800092
:1014b00074c4880064802000c4428800a4ff210016
:1014c000d442880080852000b3fb0700f428200068
:1014d00014c58800d4a3200024c58800d4a320000c
:1014e00034c5880081852000208a2100b5fb0700d3
:1014f000048020007442880044ff21008442880058
:10150000e0842000a4fb0700f4282000e4c4880045
:10151000d4a32000f4c48800d4a3200004c588000c
:10152000e1842000c0892100a6fb07000060fe00c6
:10153000440620003453880004d0270064538800f8
:1015400071322a000080eb000b0c070000027800cb
:101550008453880054b780009453880064b7800097
:10156000a453880061ae2a000080eb00020c070043
:1015700000027800c453880074b78000d4538800f8
:1015800084b78000e4538800c4538000840078004e
:1015900000532700330c070000027800f453880042
:1015a0000100220000802200f30b070000027800f7
:1015b000245488000100220000002100ee0b0700e7
:1015c0000002780034548800843e2000445488008f
:1015d0002403200054548800841a2600c454880030
:1015e00071322a000080eb00e30b07000002780054
:1015f000e4548800a4b78000f4548800b4b7800095
:101600000455880061ae2a000080eb00da0b070069
:101610000002780024558800c4b780003455880043
:10162000d4b7800044558800245580008400780099
:10163000005926000b0c0700000278005455880062
:101640000100220030332200cb0b0700000278009b
:101650008455880001002200c0cc2100c60b070081
:10166000000278009455880004fa2000a4558800f0
:1016700024032000b455880094b7800084027800c9
:1016800044b78000050178008400780060a620003f
:10169000ba040700842520000456880004dc2500d5
:1016a0003456880021eb26000080eb00b20b0700c7
:1016b000000278005456880074b880006456880090
:1016c00084b8800074568800c1b02a000080eb0006
:1016d000a90b0700000278009456880094b8800097
:1016e000a4568800a4b88000b456880094568000a0
:1016f00084007800801a2600da0b070000027800c8
:10170000c456880001002200008022009a0b0700c6
:1017100000027800f45688000100220000802100b9
:10172000950b0700000278000457880004fa200097
:1017300014578800840c20002457880004dc2500fe
:10174000945788008080eb000080eb008a0b070034
:1017500000027800b4578800c4b88000c4578800dd
:10176000d4b88000d4578800c10428000080eb0062
:10177000810b070000027800f4578800e4b880006d
:1017800004588800f4b8800014588800f45780008a
:1017900084007800802c2300b20b07000002780040
:1017a000245888000100220000002400720b07006a
:1017b0000002780054588800010022000000210037
:1017c0006d0b0700000278006458880004fa2000be
:1017d00074588800840c200084588800b4b88000b5
:1017e0008402780064b880000501780084007800e5
:1017f00000ac20006104070084702000d4588800e9
:10180000c4a22100045988008000eb000080eb0096
:10181000590b0700000278002459880094b9800011
:1018200034598800a4b9800044598800215e2900f9
:101830000080eb00500b070000027800645988001c
:10184000b4b9800074598800c4b9800084598800f4
:10185000645980008400780000c22100810b0700d9
:10186000000278009459880001002200901922009b
:10187000410b070000027800c459880001002200d3
:1018800060e621003c0b070000027800d459880074
:10189000843e2000e4598800441f2000f459880049
:1018a0000002eb00645a88008000eb000080eb002f
:1018b000310b070000027800845a8800e4b98000e8
:1018c000945a8800f4b98000a45a88008000eb0084
:1018d0000080eb00280b070000027800c45a880043
:1018e00004ba8000d45a880014ba8000e45a8800f0
:1018f000c45a8000840078000000eb00590b0700f8
:1019000000027800f45a8800010022000000eb0079
:10191000190b070000027800245b880001002200f8
:101920000000eb00140b070000027800345b880015
:101930000002eb00445b88000002eb00545b88006f
:10194000d4b980008402780084b980000501780051
:1019500084007800a0b120000804070084702000f3
:10196000a45b880004772100d45b88008000eb0032
:101970000080eb00000b070000027800f45b880099
:10198000b4ba8000045c8800c4ba8000145c88008b
:10199000215e29000080eb00f70a070000027800b2
:1019a000345c8800d4ba8000445c8800e4ba8000cb
:1019b000545c8800345c800084007800a08621009c
:1019c000280b070000027800645c880001002200f8
:1019d00090192200e80a070000027800945c880051
:1019e0000100220060e62100e30a070000027800ff
:1019f000a45c8800843e2000b45c8800441f200062
:101a0000c45c88000002eb00345d88008000eb00bd
:101a10000080eb00d80a070000027800545d8800bf
:101a200004bb8000645d880014bb8000745d880086
:101a30008000eb000080eb00cf0a07000002780076
:101a4000945d880024bb8000a45d880034bb8000c6
:101a5000b45d8800945d8000840078000000eb0095
:101a6000000b070000027800c45d8800010022001e
:101a70000000eb00c00a070000027800f45d880057
:101a8000010022000000eb00bb0a07000002780002
:101a9000045e88000002eb00145e88000002eb0088
:101aa000245e8800f4ba800084027800a4ba800022
:101ab000050178008400780040b72000af030700dc
:101ac0000002eb00f447880004e224002448880068
:101ad000517125000080eb00a70a07000002780082
:101ae00044488800d4bb800054488800e4bb800090
:101af00064488800811a26000080eb009e0a0700d7
:101b00000002780084488800f4bb80009448880074
:101b100004bc8000a44888008448800084007800c9
:101b2000c0c22400cf0a070000027800b448880031
:101b3000010022000000eb008f0a0700000278007d
:101b4000e4488800010022000000eb008a0a070038
:101b500000027800f44888000002eb000449880085
:101b60000002eb00144988000002eb008449880061
:101b70008000eb000080eb007f0a07000002780085
:101b8000a449880024bc8000b449880034bc80008b
:101b9000c44988008000eb000080eb00760a070053
:101ba00000027800e449880044bc8000f4498800c1
:101bb00054bc8000044a8800e44980008400780016
:101bc0000000eb00a70a070000027800144a880012
:101bd000010022000000eb00670a07000002780005
:101be000444a8800010022000000eb00620a07005e
:101bf00000027800544a88000002eb00644a880022
:101c00000002eb00744a880014bc80008402780053
:101c1000c4bb80000501780084007800e08f2000bc
:101c2000560307000002eb00944d880004e22400f4
:101c3000c44d8800517125000080eb004e0a07005a
:101c400000027800e44d8800f4bc8000f44d880068
:101c500004bd8000044e8800811a26000080eb003d
:101c6000450a070000027800244e880014bd800059
:101c7000344e880024bd8000444e8800244e8000ed
:101c800084007800c0c22400760a070000027800b1
:101c9000544e8800010022000000eb00360a0700c5
:101ca00000027800844e8800010022000000eb0052
:101cb000310a070000027800944e88000002eb0011
:101cc000a44e88000002eb00b44e88000002eb0036
:101cd000244f88008000eb000080eb00260a0700fc
:101ce00000027800444f880044bd8000544f8800b3
:101cf00054bd8000644f88008000eb000080eb0042
:101d00001d0a070000027800844f880064bd80002f
:101d1000944f880074bd8000a44f8800844f8000d9
:101d2000840078000000eb004e0a070000027800f3
:101d3000b44f8800010022000000eb000e0a0700eb
:101d400000027800e44f8800010022000000eb0050
:101d5000090a070000027800f44f88000002eb0037
:101d6000045088000002eb001450880034bd80004d
:101d700084027800e4bc80000501780084007800cb
:101d8000209b2000fd0207000002eb00c44a8800ef
:101d9000846d2d00f44a88008000eb000080eb0089
:101da000f509070000027800144b880014be80007b
:101db000244b880024be8000344b8800118a2d00fb
:101dc0000080eb00ec09070000027800544b88000b
:101dd00034be8000644b880044be8000744b880091
:101de000544b80008400780000b22c001d0a0700cc
:101df00000027800844b880001002200008022004d
:101e0000dd09070000027800b44b880001002200c1
:101e100090992100d809070000027800c44b88007f
:101e2000843e2000d44b880044012000e44b88000d
:101e3000c4ce2200544c88008000eb000080eb00f0
:101e4000cd09070000027800744c880064be800051
:101e5000844c880074be8000944c8800b11124002a
:101e60000080eb00c409070000027800b44c880031
:101e700084be8000c44c880094be8000d44c88008e
:101e8000b44c800084007800400d2300f509070061
:101e900000027800e44c8800010022009019220022
:101ea000b509070000027800144d880001002200e7
:101eb00060e62100b009070000027800244d880088
:101ec000843e2000344d880044012000444d8800a9
:101ed0000002eb00744d88000082eb00844d880006
:101ee0000002eb00144c88000082eb00244c8800b8
:101ef00054be80008402780004be80000501780092
:101f000084007800809520009c0207000002eb000e
:101f100064508800846d2d00945088008000eb0090
:101f20000080eb009409070000027800b45088009c
:101f300034bf8000c450880044bf8000d450880063
:101f4000118a2d000080eb008b0907000002780049
:101f5000f450880054bf80000451880064bf8000a2
:101f600014518800f45080008400780000b22c00e6
:101f7000bc090700000278002451880001002200fb
:101f8000008022007c09070000027800545188007c
:101f900001002200909921007709070000027800d3
:101fa00064518800843e2000745188004401200060
:101fb00084518800c4ce2200f45188008000eb00d8
:101fc0000080eb006c0907000002780014528800c2
:101fd00084bf80002452880094bf8000345288005f
:101fe000b11124000080eb006309070000027800b3
:101ff00054528800a4bf800064528800b4bf80009f
:10200000745288005452800084007800400d2300f0
:102010009409070000027800845288000100220021
:10202000901922005409070000027800b452880079
:102030000100220060e621004f090700000278003d
:10204000c4528800843e2000d452880044012000fd
:10205000e45288000002eb00145388000082eb0079
:10206000245388000002eb00b45188000082eb008a
:10207000c451880074bf80008402780024bf8000af
:102080000501780084007800c0a020003b02070012
:1020900015178000040220000482620004f0a700eb
:1020a0000402ea000402e9004f22de000442780044
:1020b0000482fb00610262004522dd0016178000e9
:1020c000f5fd2f008502630004827200141788005a
:1020d000d762a900d602a800d742a900d702a9005a
:1020e000c4e2a800e2a2a900c522a800c4c2a900b7
:1020f000d042a800d662a800e822a800e202a90007
:10210000ca42a900e802a800cbc2a900d6c2a80012
:10211000d6a2a800e222a900d362a900d202a90097
:10212000d242a800cdc2a800cda2a800d222a80009
:10213000d322a900d342a900d302a900c182a800da
:10214000c1a2a800c0e2a900dea2a900c122a90084
:10215000c1c2a800c1e2a800e5a2a800e582a800cb
:10216000e5c2a800d282a800d2e2a800d382a800cb
:10217000d3a2a800cc62a800cc82a800e502a800e7
:10218000e522a800c142a800c0c2a900cc42a90013
:10219000d262a900e422a900de02a900c642a90079
:1021a000e402a900cde2a900c7c2a900d2c2a900d9
:1021b000d2a2a900de22a9008e00a9008600a900f3
:1021c000e40480000400a1000410a0000420a0008a
:1021d000e40488008220a9008c60a9008460a90022
:1021e000a404800004c0a00004d0a10004e0a0006a
:1021f000a40488008d60a9008560a900c404800043
:1022000004c0a00004d0a00004e0a100c404880021
:1022100085e0a900c200a8008de0a800d4048000d9
:1022200004c0a10004d0a10004e0a000d4048800f0
:102230008d20a900c40480000440a0000450a10027
:102240000460a000c40488008d40a900c40480007c
:102250000440a0000450a1000460a000c404880051
:102260008940a9009140a900440580000480a00095
:102270000490a00004a0a00044058800043a800057
:102280000480a1000490a10004a0a00004b0a0005c
:10229000043a8800f4002f0034108800140620004f
:1022a00024108800f1fb2d00b0532b0057f80700d5
:1022b000f1fb2d00a0f32b0057f8070004102000bd
:1022c000841c880004102000842288000042eb0057
:1022d00004407800a2e8b7000042eb000440780018
:1022e000a3e8b7000042eb0004407800e4e8b70040
:1022f0000042eb0004407800e5e8b70004f02f004e
:102300006410880044002000a4108800f4752700a1
:1023100074108800d4fa25002408880054fa250097
:102320008408880094d02300640888000002eb0031
:102330003408880084c0a90054f82500f4088800f7
:10234000d4f92500040988000002eb00c4088800c5
:1023500086c0a900440d2300e4088800f40d200085
:1023600034478800e40d2000544788000402200010
:10237000644788000002eb007447880014c0b30073
:1023800004407800f0e8b700f40b200044478800d0
:10239000608e20003018070004c4b30004407800a9
:1023a000f8e8b7000042eb0004407800f9e8b70015
:1023b000040220009447880004022000a4478800fb
:1023c00004022000b447880000c2eb0004407800fb
:1023d000fae8b70000c2eb0004407800fbe8b70061
:1023e000eb140700848a2100040f780074c0800079
:1023f000840278001e027800050a78001e8fe8002b
:1024000064c08000840278001e027800050a78000b
:102410001e8fe80054c08000840278001e027800fd
:10242000050a78001e8fe80044c08000840278000e
:102430001e027800050a7800648b2100040f7800e2
:1024400094c08000840278001e027800050a78009b
:102450001e8fe80084c08000840278001e0278008d
:10246000050a78000002eb0024c688006022b8004c
:10247000d4c58800e5c58800a4c08000e441880078
:102480000080fa00000006000200fa000002eb00e3
:10249000040f78000002eb0014c388004007a90075
:1024a00040e7a90040c7a9004027a90041e7a900cb
:1024b0004087a90041c7a9000002eb00f4c58800cd
:1024c0000002eb0014c68800608e20001918070077
:1024d0000041eb00a1c0b300208f2000e11c0700e9
:1024e000000278001e0f72000041eb00a1c0b30093
:1024f000208f2000db1c0700000278001e0f7200f6
:102500000041eb00a1c0b300208f2000d51c0700c4
:10251000000278001e0f7200a48f20001442780081
:102520000441780041c1b300208f2000cd1c07007a
:10253000000278001e0f7200b48f20001442780051
:102540000441780051c1b300208f2000c51c070052
:10255000000278001e0f720082cfb3008040eb00b3
:10256000208f2000bf1c0700000278001e0f7200a1
:102570000041eb0011c0b300208f2000b91c070000
:10258000000278001e0f72000041eb0021c0b30072
:10259000208f2000b31c0700000278001e0f72007d
:1025a0000041eb0031c0b300208f2000ad1c0700bc
:1025b000000278001e0f720004f02f009e026200dd
:1025c00004a02f00848f520007003a0015c380003a
:1025d000040820000482720014c3880084c28000b2
:1025e0000402e80084c288008040eb00208f2000b5
:1025f000ce1c070000027800040f7800f40f2000c2
:102600009e026200840f2000848f52000700320077
:1026100015c38000040820000482720014c38800df
:1026200084c280000402e80084c288000707070013
:102630000e070700110707000080fa0000000600df
:102640000600fa0014c680000402e80014c68800e0
:10265000e44180000402e800e4418800e441800095
:10266000a4c08800c522a900e08420004af7070022
:102670008085200048f70700420620004106200020
:10268000e08f2000ef0007004206200041062000f6
:10269000209b2000eb00070042062000410620009e
:1026a00000ac2000e70007004206200041062000a1
:1026b00060a62000e300070042062000410620003b
:1026c00040b72000df00070042062000410620003e
:1026d000a0b12000db000700e0060700d7060700d6
:1026e000870707008c60a9001517800004022000ee
:1026f0000482620004f0a7000402ea000402e90078
:102700004f22de00044278000482fb006102620076
:102710004522dd0016178000f5fd2f0085026300bd
:1027200004827200141788007a05070015178000cc
:10273000040220000482620004f0a7000402ea0000
:102740000402e9004f22de00044278000482fb000c
:10275000610262004522dd0016178000f5fd2f00a2
:102760008502630004827200141788003517800008
:102770000400240004826200e00f520014003a00ba
:10278000c441800051c3200004007800b507070051
:1027900000027800040f78000001eb009e00780032
:1027a000e08f200075000700d441800051c3200055
:1027b00004007800ab07070000027800040f7800df
:1027c0000001eb009e007800209b20006b000700ba
:1027d0006482200014427800e04f52000d003a005d
:1027e00004488000040078002d0a070000027800e9
:1027f000140798001e0090000612070000027800df
:10280000240798001e019000ae00900060a62000f2
:102810005a0007001517800004022000048262009d
:1028200004f0a7000402ea000402e9004f22de00df
:10283000044278000482fb00610262004522dd0050
:1028400016178000f5fd2f008502630004827200d8
:1028500014178800c5010700151780000402200026
:102860000482620004f0a7000402ea000402e90006
:102870004f22de00044278000482fb006102620005
:102880004522dd0016178000f5fd2f00850263004c
:102890000482720014178800560407001517800080
:1028a000040220000482620004f0a7000402ea008f
:1028b0000402e9004f22de00044278000482fb009b
:1028c000610262004522dd0016178000f5fd2f0031
:1028d00085026300048272001417880044c4b300a8
:1028e0000440780036e8b7008b12070064c0b300dc
:1028f0000440780036e8b7000080fa0000000600c7
:102900000000fa0011e1a80021e1a800f4cf27009f
:102910000415880084fe20001415880064342e00fd
:102920002415880034fe2e003415880074002c0015
:102930004415880084ff230054158800a1e2a800f4
:102940008560a9008d60a8008540a9008d40a80081
:102950008520a9008d20a8000de2a800e802a800ab
:102960000042eb0004407800b4f8b7008013070081
:102970000060fe000080fa00000006000600fa0079
:10298000000f780011079800220798001e027800b7
:10299000b40290001e029000848f520008003100a3
:1029a0001e027800b40290001e0278001502980002
:1029b000d4c280000402e800d4c2880003003700bb
:1029c0001e0278009e029000150298001e027800f8
:1029d000941a90002e029000848f5200080031005b
:1029e0001e027800941a90001e027800751298005a
:1029f000d4c280000402e800d4c28800030037007b
:102a00001e027800ae0290007512980065832000c7
:102a10009542780044c2b30084cf520004003200d3
:102a200042062000410620001e0078000500070035
:102a30001e007800540007000060fe000080fa00cd
:102a4000000006000a00fa002007980031079800ed
:102a500042079800be0290004e029000848f520000
:102a6000090039002e029000940290002e0290007e
:102a7000250298002e029000f41290002e02900081
:102a8000051a98003c0037002e02900014029000b6
:102a900005002000048fbe003e02900005002000cb
:102aa0001e03900004b3b900060378009e0378006b
:102ab00005b8b90080037800070343009e0378003f
:102ac000040278000722b80005034300860278005c
:102ad000048fbe00048fbe004e029000050020004f
:102ae0000401be001e00be0091f607000002be00f9
:102af000048fbe009e0278002e02900025029800ee
:102b00002e0290007412900005002000048fbe0079
:102b10003e029000050020001e03900004b3b9009f
:102b2000060378009e03780005b8b900800378009a
:102b3000070343009e037800040278000722b800d0
:102b40000503430086027800048fbe00048fbe0098
:102b50004e029000050020000401be001e00be00d1
:102b600073f607000002be00048fbe009e027800cc
:102b70002e029000051a98002e0090000200070017
:102b80000080fa00000006000600fa002007980006
:102b90002e029000d40290002e0290002402900099
:102ba0008500780004007800ae0607000002780077
:102bb000040f78002e0290006402900084007800d8
:102bc0001e007800a706070000027800040f7800b6
:102bd0002e02900074029000e00f52000c003400ae
:102be0002e029000740290000482ea009e0f5200b0
:102bf000030031000082eb00040f78000f00370063
:102c00002e029000740290001e0f42000b0037004d
:102c10002e029000740290000402ea009e0f5200ff
:102c2000030036000002eb00040f780003003700b9
:102c30002e029000740290001e0f42002e0290009f
:102c40009e027800450298002e029000b41a90006f
:102c50002e029000041a900085007800040078008d
:102c60008006070000027800140798002e029000ea
:102c7000441a9000840078001e0090007906070036
:102c800000027800140798002e029000541a900059
:102c9000e00f52000f0034002e029000541a9000f2
:102ca0008482ea001e029000848f520003003100eb
:102cb0000082eb0014079800150037002e029000e8
:102cc000541a90009e02900004824200140798005b
:102cd0000f0037002e029000541a90000402ea0000
:102ce000840278001e029000848f52000300360098
:102cf0000002eb0014079800050037002e02900038
:102d0000541a90009e02900004824200140798001a
:102d10002e0290009e029000251a98002e0290002c
:102d2000940a90002e029000240290008500780002
:102d3000040078004b06070000027800040f7800ba
:102d40002e029000240a9000840078001e00780073
:102d50004406070000027800040f78002e0290005d
:102d6000340a9000e00f52000c0034002e02900054
:102d7000340a90000482ea009e0f520003003100e2
:102d80000082eb00040f78000f0037002e02900045
:102d9000340a90001e0f42000b0037002e029000f4
:102da000340a90000402ea009e0f5200030036002d
:102db0000002eb00040f7800030037002e029000a1
:102dc000340a90001e0f42002e029000740a9000f8
:102dd000840078001e0078002206070000027800b8
:102de000ae029000d40a98002e02900004129000c7
:102df000840078001e0078001a06070000027800a0
:102e0000ae029000e40a98002e029000d40a9000ce
:102e10002e02900014129000848f520004003100a2
:102e20002e029000941290002e029000550a9800f5
:102e30002e029000f41a90002e029000041a9000c6
:102e4000850078000400780006060700000278007c
:102e5000140798002e02900004229000840078004d
:102e60001e009000ff05070000027800140798007c
:102e70002e02900014229000e00f52000f00340048
:102e80002e029000142290008482ea001e0290001c
:102e9000848f5200030031000082eb001407980079
:102ea000150037002e029000541a90009e029000e8
:102eb00004824200140798000f0037002e02900091
:102ec000142290000402ea00840278001e0290009e
:102ed000848f5200030036000002eb0014079800b4
:102ee000050037002e029000142290009e029000f0
:102ef00004824200140798002e0290005422900091
:102f0000840078001e009000d605070000027800bb
:102f1000ae029000b42298002e029000642290002d
:102f2000840078001e009000ce05070000027800a3
:102f3000ae029000c42298002e029000b4229000ad
:102f40002e02900074229000848f52000400310001
:102f50002e029000f42290002e029000352298005c
:102f60000060fe000080fa00000006001200fa0077
:102f7000a4002000f4c58800e45b800014079800da
:102f80001459800024079800745380003407980077
:102f9000d454800044079800445680005407980099
:102fa000a457800064079800344880007407980094
:102fb000d44d8000040f980014c0b300044f780073
:102fc0000042eb0014479800100037000e82e80022
:102fd00084007800608e2000e2150700004278002f
:102fe000044f78001e4290000442e8001447980005
:102ff0001e427800e04f520003003200c4c280003d
:103000000402e800c4c288000060fe009e4278000e
:103010000582fb000402ea004f22de0084427800b1
:1030200014c0b3001e439000f34f5300010036005c
:103030000042eb0004c26200e04f5200e3ff3a009e
:103040001e429000f34f52000200360000022000a2
:103050001b1407000080fa00000006000800fa00b8
:1030600094002000f4c58800043a800061026200e8
:10307000e00f52000300320014c380000440a0009f
:1030800014c38800053a800004082000048262000e
:10309000e00f52000400320015c38000040220003b
:1030a0000482720014c38800053a800004042000e2
:1030b00004826200e00f52000400320015c3800059
:1030c000040420000482720014c38800043a8000c3
:1030d00062026200e00f52000300320014c380005d
:1030e0000400a00014c38800053a800004002800f2
:1030f00004826200e00f52000300320014c380001b
:103100000410a00014c38800043a8000700262001a
:10311000e00f52000300320014c380000420a0001e
:1031200014c38800053a8000040024000482620071
:10313000e00f52000300320014c380000430a000ee
:1031400014c388000060fe003504800004042000e1
:1031500004826200e00f5200ba00320086c0a9006b
:10316000444280000402e8006f026200444288008a
:1031700044428000e00f520014003a00141780000f
:1031800061026200e00f520002003200e202a90078
:1031900001003700e202a800a5418000d40720000a
:1031a00004aab900040278008402d100944180008e
:1031b0008500780004007800d00507000002780040
:1031c000944188000002eb00a4418800351780007c
:1031d0000400220004826200e00f52000600320068
:1031e00054418000e00f52000300320068110700d4
:1031f0005f110700561107003517800004002200f8
:1032000004826200e00f520003003a001400200024
:1032100054418800020037000002eb00544188004e
:10322000980107006482200014427800e04f5200a9
:103230000d003a0004488000040078009807070059
:1032400000027800040f78001e007800710f07005c
:1032500000027800140798001e0178009e0090007c
:1032600060a62000c5fd070064832000144278009a
:10327000f44f52000500320065832000954278002b
:1032800044cab30084cf520018003a00420620001e
:103290008000eb00e08f2000eafd070042062000de
:1032a0008000eb00e08f2000e6fd070042062000d2
:1032b0008000eb0000ac2000e2fd07004206200089
:1032c0008000eb0060a62000defd07004206200023
:1032d0008000eb0040b72000dafd07004206200026
:1032e0008000eb00a0b12000d6fd07000a10070007
:1032f0009913070000027800e00f5200030032002b
:10330000c4e2a900d042a90002003700c4e2a8002c
:10331000d042a800c4822000144278000442e80091
:10332000044078002ce8b700c482200014427800e2
:103330006f426200044078002ce8b700c48220008d
:1033400014427800e04f520001003a003f000700ad
:10335000a1000700658320009542780044c4b300b3
:1033600084cf520005003a002504800004042000a8
:1033700004826200e00f520004003200fbfe0700ee
:10338000c30307000002eb001441880014418000d1
:10339000e00f520029003a009540800074c480007c
:1033a000848f520003003100944080000402e80042
:1033b0009440880064c48000050020002407980021
:1033c0003507980094408000050020003e039000df
:1033d00004b3b90006037800ae03900005b8b90045
:1033e0008003780007034300ae03900004027800d6
:1033f0000722b800050343008602780024079800de
:1034000035079800240798003507980074c4800099
:10341000050020000401be002e009000be009000b8
:1034200043f407000002be00240798003507980007
:103430002e02900084c48800020037000002eb00d6
:10344000944088000080fa00000006000200fa00a4
:1034500084002000f4c58800355c8000c45b8000d7
:1034600085007800040078007e04070000027800e0
:10347000040f7800445c8000840078001e0078000f
:103480007804070000027800040f7800545c800084
:103490001e0f42001e0278000402d100b4428800d0
:1034a000245c80000402d100a4428800e084200053
:1034b0009df3070065598000f4588000850078006e
:1034c000040078006704070000027800040f780009
:1034d00074598000840078001e00780061040700a1
:1034e00000027800040f7800845980001e0f42000b
:1034f0001e0278000402d100044388005459800061
:103500000402d100f44288008085200086f3070081
:1035100094428000040f78001e027800e00f5200f1
:1035200002003d000002eb00040f78001e0278004c
:1035300004024200040f780004d027009e027800a5
:10354000848f52000200360004d02700040f780058
:103550000002eb00045c88000002eb00f45b8800d2
:103560001e027800145c8800e4428000040f78009a
:103570001e027800e00f520002003d000002eb0046
:10358000040f78001e02780004024200040f780045
:1035900004d027009e027800848f5200020036007b
:1035a00004d02700040f78000002eb003459880093
:1035b0000002eb00245988001e027800445988005c
:1035c000a0b1200070fd070040b720006efd07008d
:1035d0000080fa00000006000800fa007441800034
:1035e00005002000048fbe009441800005002000eb
:1035f0001e03900004b3b900060378009e03780010
:1036000005b8b90080037800070343009e037800e3
:10361000040278000722b800050343008602780000
:10362000048fbe00048fbe001e02be004a2bdd00c8
:103630004622de0004027300c62ade00048fbe00ac
:103640001e0290006d22b900040378001e0278006b
:103650006022b90004027800040343009e0278004f
:10366000d4002000042ab800050343008602780035
:10367000048fbe00048fbe001e02be00452bdd007d
:103680004b22de0004027300cb2ade00048fbe0052
:10369000e4ff2f00050020001e03be00840f53002e
:1036a000858f5b00030036000082eb0084418800b8
:1036b000020037001e027800844188001e02be000e
:1036c000492bdd004722de0004027300c72ade001a
:1036d000048fbe009e027800f4072000048262007e
:1036e00024079800658320009542780044c4b30005
:1036f00084cf52000f00320065832000954278008d
:1037000044c3b30084cf52000a0032006583200016
:103710009542780054c3b30084cf520005003200b4
:10372000658320009542780084cab30084cf52009c
:103730000a003a002e02900084024200842b2800e6
:103740000482420094027800350798004206200067
:10375000be00900000ac2000bafc07000080fa0018
:10376000000006000400fa0074002000f4c5880080
:103770001417800062026200e00f5200370032002e
:10378000d6c2a900800c20000100200023190700e8
:1037900021c0b3000000eb00a61707000002be0026
:1037a000048fbe0004002000151121001e03be007e
:1037b000840f5300858f5b0006003a000002eb0087
:1037c00054428800a4c280000402e800a4c2880019
:1037d000020037001e02780054428800d6c2a800ba
:1037e000800c2000010020000c190700d6a2a900bf
:1037f000800c2000010020000819070021c0b30040
:103800000000eb008b1707000002be00048fbe0013
:1038100004002000151121001e03be00840f530078
:10382000858f5b0006003a000002eb0064428800ce
:10383000a4c280000402e800a4c28800020037008d
:103840001e02780064428800d6a2a800800c2000e6
:1038500001002000f1180700070037000002eb000c
:10386000644288000002eb0054428800b4c2800029
:103870000402e800b4c28800e222a9000080fa0035
:10388000000006000200fa0064002000f4c5880071
:1038900000cd2000ef18070000027800040f780028
:1038a000c44180009e0078000400780013040700e3
:1038b00000027800c441880000dd2000e518070000
:1038c00000027800040f7800d44180009e00780048
:1038d000040078000904070000027800d441880041
:1038e000351780000400240004826200e00f5200bb
:1038f00002003a00d441800074408800000d21008d
:10390000d418070000027800040f780014558000d6
:103910009e00780004007800f80307000002780099
:1039200014558800001d2100ca1807000002780005
:10393000040f7800b45380009e00780004007800e3
:10394000ee03070000027800b4538800003d210018
:10395000c018070000027800040f78008456800029
:103960009e00780004007800e4030700000278005d
:1039700084568800002d2100b61807000002780048
:10398000040f7800e45780009e007800040078005f
:10399000da03070000027800e4578800004d210098
:1039a000ac18070000027800040f7800744880000b
:1039b0009e00780004007800d00307000002780021
:1039c00074488800005d2100a218070000027800fa
:1039d000040f7800144e80009e00780004007800e8
:1039e000c603070000027800144e88000080fa0029
:1039f000000006000600fa00f4cf27000415880036
:103a0000e4fd20001415880064342e00241588007d
:103a100034fe2e003415880074002c0044158800f4
:103a200004fc230054158800a1e2a8000002eb006a
:103a3000040f78008000370000000000151580009a
:103a40000408200004826200e00f5200fbff3200f5
:103a50000002eb00140798003400370005148000c2
:103a60001e0278000403420004ed2000040243001b
:103a7000050a7800151480001e0278000403420035
:103a800004fd200004024300050a7800251480008c
:103a90001e02780004034200040d210004024300ca
:103aa000050a7800351480001e02780004034200e5
:103ab000041d210004024300050a7800451480001b
:103ac0001e02780004034200042d2100040243007a
:103ad000050a7800551480001e0278000403420095
:103ae000043d210004024300050a780065148000ab
:103af0001e02780004034200044d2100040243002a
:103b0000050a7800751480001e0278000403420044
:103b1000045d210004024300050a78001e0fe8003e
:103b20001e0290000402e800140798001e02900094
:103b3000e70f5200c9ff3600000000001515800095
:103b40000408200004826200e00f5200fbff3a00ec
:103b50000002eb0014079800340037008514800041
:103b60001e0278000403420004ed2000040243001a
:103b7000050a7800951480001e02780004034200b4
:103b800004fd200004024300050a7800a51480000b
:103b90001e02780004034200040d210004024300c9
:103ba000050a7800b51480001e0278000403420064
:103bb000041d210004024300050a7800c51480009a
:103bc0001e02780004034200042d21000402430079
:103bd000050a7800d51480001e0278000403420014
:103be000043d210004024300050a7800e51480002a
:103bf0001e02780004034200044d21000402430029
:103c0000050a7800f51480001e02780004034200c3
:103c1000045d210004024300050a78001e0fe8003d
:103c20001e0290000402e800140798001e02900093
:103c3000e70f5200c9ff3600f40720009e0278000b
:103c4000848f52007cff3600a1e2a90000ed200025
:103c50000018070000027800240798002e02900048
:103c60005459880000fd2000fa1707000002780070
:103c7000240798002e029000245c8800000d21008b
:103c8000f417070000027800240798002e02900025
:103c900014558800001d2100ee170700000278006f
:103ca000240798002e029000b4538800003d2100a4
:103cb000e817070000027800240798002e02900001
:103cc00084568800002d2100e217070000027800ca
:103cd000240798002e029000e4578800004d210030
:103ce000dc17070000027800240798002e029000dd
:103cf00074488800005d2100d61707000002780094
:103d0000240798002e029000144e88000080fa00cc
:103d1000000006000600fa00f4cf27000415880012
:103d2000e4fd20001415880064342e00241588005a
:103d300034fe2e003415880074002c0044158800d1
:103d40000403200054158800a1e2a8000002eb0043
:103d5000040f780086003700000000001515800071
:103d60000408200004826200e00f5200fbff3200d2
:103d70000002eb001407980037003700051480009c
:103d80001e0278000403420004cd20000402430018
:103d9000050a7800151480001e0278000403420012
:103da00004dd200004024300050a78001e0fe8002d
:103db000251480001e0278000403420004cd200078
:103dc00004024300050a7800351480001e027800c2
:103dd0000403420004dd200004024300050a7800c9
:103de0001e0fe800451480001e0278000403420004
:103df00004cd200004024300050a78005514800019
:103e00001e0278000403420004dd20000402430087
:103e1000050a78001e0fe800651480001e02780075
:103e20000403420004cd200004024300050a780088
:103e3000751480001e0278000403420004dd200097
:103e400004024300050a78001e0fe8001e029000dd
:103e50000402e800140798001e029000e30f5200cd
:103e6000c6ff360000000000151580000408200081
:103e700004826200e00f5200fbff3a000002eb00f8
:103e80001407980037003700851480001e02780060
:103e90000403420004cd200004024300050a780018
:103ea000951480001e0278000403420004dd200007
:103eb00004024300050a78001e0fe800a5148000e4
:103ec0001e0278000403420004cd200004024300d7
:103ed000050a7800b51480001e0278000403420031
:103ee00004dd200004024300050a78001e0fe800ec
:103ef000c51480001e0278000403420004cd200097
:103f000004024300050a7800d51480001e027800e0
:103f10000403420004dd200004024300050a780087
:103f20001e0fe800e51480001e0278000403420022
:103f300004cd200004024300050a7800f514800037
:103f40001e0278000403420004dd20000402430046
:103f5000050a78001e0fe8001e0290000402e80027
:103f6000140798001e029000e30f5200c6ff3600af
:103f7000f40720009e027800848f520076ff3600fe
:103f8000a1e2a90000cd200032170700000278004e
:103f9000240798002e029000c441880000dd200014
:103fa0002c17070000027800240798002e029000ca
:103fb000d44188000080fa00000006000400fa00e6
:103fc00094028000040f7800ff3ffc001402800080
:103fd0000450a0000460a0000470a0001402880037
:103fe0001e02780094028800000088000000000093
:103ff0000000000000000000000000008c60a9002c
:104000008e00a9009402800014079800ff3ffc0076
:10401000140280000450a1000460a1000470a100fb
:10402000140288001e02900094028800000088009c
:1040300003000700c522a8000080fa000000060067
:104040000200fa00848a2100040f78001e02780022
:104050001402780074c088001e8fe8001e027800e9
:104060001402780064c088001e8fe8001e027800e9
:104070001402780054c088001e8fe8001e027800e9
:104080001402780044c08800648b2100040f78007b
:104090001e0278001402780094c088001e8fe80089
:1040a0001e0278001402780084c08800053b80005e
:1040b0000400280004826200e00f5200fbff3a0077
:1040c00024c0800035c08000020220000400be0031
:1040d000d4f00700053b8000040028000482620041
:1040e000e00f5200fbff3a0024c0800035c0800082
:1040f000828021000400be00e9f007000080fa0081
:10410000000006000000fa005c0007004f000700f6
:1041100056000700420620008000eb00e08f2000e0
:1041200048fa0700420620008000eb00e08f2000e4
:1041300044fa0700420620008000eb0000ac20009b
:1041400040fa0700420620008000eb0060a6200035
:104150003cfa0700420620008000eb0040b7200038
:1041600038fa0700420620008000eb00a0b12000d2
:1041700034fa0700e084200087f0070080852000e3
:1041800085f0070005e1a9008e00a9008c60a90058
:104190008600a9008460a900c4c2a9000080fa00ba
:1041a000000006000000fa003400070005e1a90045
:1041b0008e00a9008c60a9008600a9008460a90077
:1041c000c4c2a9000080fa00000006000000fa0046
:1041d000e084200070f00700808520006ef007006a
:1041e000420620008000eb0060a6200015fa0700c0
:1041f000420620008000eb0000ac200011fa07000e
:10420000420620008000eb00a0b120000dfa07005c
:10421000420620008000eb0040b7200009fa0700aa
:104220000e000700050007000002eb0034088800bc
:1042300084c0a9000080fa00000006000000fa0017
:10424000d702a8000080fa00000006000000fa0073
:10425000d702a9000080fa00000006000000fa0062
:10426000d722a9000080fa00000006000000fa0032
:10427000d722a8000080fa00000006000000fa0023
:10428000d762a900d602a8000080fa00000006004c
:104290000400fa000002eb00040f78000002eb00bb
:1042a0001407980054002000f4c58800658320009e
:1042b0009542780044c3b30084cf52000f0032000f
:1042c000658320009542780044c4b30084cf520037
:1042d0000a003200658320009542780084cab3004a
:1042e00084cf52000500320065832000954278009b
:1042f00054c3b30084cf520005003a009e029000e0
:10430000f4f72f00048262001407980004003700bd
:104310009e02900004082000048272001407980096
:10432000c4c38000e00f5200040032001e0290005f
:104330000400a00014079800040037009e029000bb
:10434000e4ff2f00048262001407980094c38000e9
:10435000e00f5200020032001e20a00002003700d1
:10436000b4ff2f001e0f620035c3800004f02f0041
:1043700004826200e00f5200040032001e0290002e
:104380000440a00014079800040037009e0290002b
:10439000f4fe2f00048262001407980035c38000e9
:1043a000f40f200004826200e00f5200040032008b
:1043b0001e0290000410a0001407980004003700ab
:1043c0009e029000d4ff2f00048262001407980020
:1043d00065c3800004f02f0004826200e00f5200e9
:1043e000020032001e00a00002003700e4ff2f0090
:1043f0001e0f620065c38000f40f2000048262007b
:10440000e00f5200020032001e10a0000200370030
:10441000d4ff2f001e0f62006583200095427800b4
:1044200044c4b30084cf520004003a001e0290003e
:104430000420a00014079800040037009e0290009a
:10444000b4ff2f000482620014079800a48f20009c
:10445000144278000482fb009e0f520010003200cc
:104460001e0278000442780004407800fae8b700a1
:10447000a48f2000144278000441780041c1b300a9
:10448000208f2000f714070000027800e00f520090
:104490000300320084c280000402e80084c2880065
:1044a000b48f2000144278008482fb001e0290002a
:1044b000848f5200100032001e02900004427800e7
:1044c00004407800fbe8b700b48f20001442780065
:1044d0000441780051c1b300208f2000e11407008f
:1044e00000027800e00f52000300320084c2800016
:1044f0000402e80084c288000080fa000000060080
:104500000000fa00151680000400220004826200f8
:10451000e00f5200050032000042eb00044078003a
:10452000d2f6b700cbc2a9000400370014c0b30014
:1045300004407800d2f6b700cbc2a800d762a8002a
:10454000d602a90005e1a9000002eb0004088800da
:104550008460a9008c60a8007417200014088800eb
:1045600005e1a8000002eb003408880084c0a9001f
:104570000080fa00000006000a00fa0030079800e8
:10458000410798003e0290000500200014079800a3
:10459000250798001e029000ae029000c022dd00a8
:1045a0000400200014079800250798004e02900090
:1045b000050020000401be001e009000ae00900027
:1045c000dbef07000002be001407980025079800e3
:1045d0001e029000ae0290004d2bdd004322de0053
:1045e00004027300c32ade00140798002507980010
:1045f0001e039000ae03900004002000f5ff2f0082
:10460000060078000703780084037800050278002c
:10461000070060000402630005002000c022dd00e6
:10462000040020000403be006102b800040373000c
:1046300085837300e00f5300e08f5b0003003200be
:104640000082eb00040f7800020037001e02900089
:10465000040f78001e027800040078000080fa0041
:10466000000006000800fa002007980031079800b3
:104670002e02900005002000048fbe003e02900034
:10468000050020001e03900004b3b9000603780063
:104690009e03780005b8b900800378000703430043
:1046a0009e037800040278000722b8000503430047
:1046b00086027800048fbe00048fbe001e02be007a
:1046c000432bdd004d22de0004027300cd2ade0004
:1046d000048fbe00f4ff2f00050020001e03be0063
:1046e000840f5300858f5b0006003600f4ff2f0017
:1046f00005002000048fbe00e4c280000402e80030
:10470000e4c288001e027800240798002e02900060
:10471000040078000080fa00000006000a00fa0099
:1047200030079800410798003e029000e00f5200c9
:1047300002003a004e029000340798003e029000ba
:10474000050020001407980025079800ae0290008d
:10475000f40f200004aab900040378001e029000a0
:104760006022b90004027800040343009e02900016
:10477000f40f2000042ab8000503430086027800e5
:10478000140798002507980014079800250798003b
:104790004e029000050020001e039000ae03900022
:1047a0000602420087824a001407980025079800f5
:1047b0001e029000ae029000482bdd004822de0071
:1047c00004027300c82ade00140798002507980029
:1047d0001e029000040f78004e0290009e0f5200bf
:1047e000020036001e0fe800040037004e02900061
:1047f0009e0f5200010031001e0fe9001e027800da
:10480000040078000080fa00000006000a00fa00a8
:1048100030079800410798003e029000e00f5200d8
:1048200002003a004e029000340798003e029000c9
:10483000050020001407980025079800ae0290009c
:10484000f403200004aab900040378001e029000bb
:104850006022b90004027800040343009e02900025
:10486000f4032000042ab800050343008602780000
:10487000140798002507980014079800250798004a
:104880004e029000050020001e039000ae03900031
:104890000602420087824a00140798002507980004
:1048a0001e029000ae0290004a2bdd004622de0080
:1048b00004027300c62ade0014079800250798003a
:1048c0001e029000040f78004e0290009e0f5200ce
:1048d000020036001e0fe800040037004e02900070
:1048e0009e0f5200010031001e0fe9001e027800e9
:1048f000040078000080fa00000006000a00fa00b8
:1049000030079800410798003e029000e00f5200e7
:1049100002003a004e029000340798003e029000d8
:104920000500200014079800250798002e0290002b
:104930006f22b900040378001e0290006022b900c3
:1049400004027800040343009e029000f40020005b
:10495000042ab80005034300860278001407980073
:104960002507980014079800250798004e0290002c
:10497000050020001e039000ae03900006024200d6
:1049800087824a0014079800250798001e029000ad
:10499000ae0290004c2bdd004422de0004027300c6
:1049a000c42ade0014079800250798001e02900014
:1049b000040f78004e0290009e0f52000200360055
:1049c0001e0fe800040037004e0290009e0f5200b8
:1049d000010031001e0fe9001e027800040078007b
:1049e0000080fa000000060000a0fe00849fbe00c8
:1049f0000000fa00d602a80000000000000000003d
:104a00000000000000000000e222a8008600a900cb
:104a10008e00a90044002000f4c5880005e1a9002b
:104a20000002eb00040888008400200014088800bd
:104a30008c60a9008460a90005e1a8000002eb00d9
:104a4000244188000000000004088000e10f5200ab
:104a5000fdff36001516800004002100048262006c
:104a6000e00f520003003a001400200024418800a7
:104a7000010037000000000004088000e20f52002f
:104a8000fdff36001516800004002100048262003c
:104a9000e00f520003003a00140020002441880077
:104aa000010037000000000004088000e20f5200ff
:104ab000fdff36001516800004002100048262000c
:104ac000e00f520002003a00140020002441880048
:104ad0000002eb0064408800a416800070026200af
:104ae000e00f520005003200a516800004082000e7
:104af00004826200e00f5200020032001400200025
:104b000064408800e822a90000000000240480001e
:104b100068026200e00f5200fcff320015168000b0
:104b20000400220004826200e00f520005003200ff
:104b30000042eb0004407800d3f6b700cbc2a900d6
:104b40000400370014c0b30004407800d3f6b70067
:104b5000cbc2a800c4c2a900d602a90005e1a900e1
:104b60000002eb00040888008460a9008c60a800a3
:104b7000e41620001408880005e1a80000000000e9
:104b8000a416800070026200e00f520004003a0098
:104b900004088000f30f5200f9ff360001003700cf
:104ba00000000000a51680000408200004826200b6
:104bb000e00f52000300320004088000f30f52009f
:104bc000f8ff360004088000f30f5200030036009f
:104bd00004c380000402e80004c38800e822a8009f
:104be000a416800085e0a900046d2100144278001d
:104bf000e04f520003003200b4c480000402e80019
:104c0000b4c4880014c0b30004407800d0f6b700e4
:104c100014c0b30004407800d1f6b7000080fa0059
:104c20004f02be000080fe00004006003600f80083
:104c3000809fbe00829fbe00849fbe00869fbe00f4
:104c40000200fa0034002000f4c588008460a90046
:104c50008c60a90005e1a9000042eb00044f780038
:104c6000a416800064026200e00f52001e003200b1
:104c70004006200001002000e8130700a416800071
:104c800064026200e00f520017003200400620006c
:104c900001002000e1130700a416800064026200f6
:104ca000e00f5200100032004006200001002000fa
:104cb000da130700a416800064026200e00f5200bd
:104cc000090032004006200001002000d313070035
:104cd000a416800064026200e00f5200020032005d
:104ce00000202000be0c0700c4c2a8008600a90056
:104cf0008e00a8000080fa004f03be004f02be00e5
:104d00004f01be004f00be003600f9000040060013
:104d1000801f7800849fbe00861f78000000fa0084
:104d2000a042a9008560a900151780000402200098
:104d300004826200e00f520002003200e2a2a900e9
:104d400001003700e2a2a80014002000f4c588008a
:104d5000146d210014427800e04f5200040032002c
:104d60000042eb0004407800d1f6b7006200370043
:104d7000e4bc2000144278000482fb00051480008b
:104d80000403420004bd200004024300050a780029
:104d9000e4bc2000144278000482fb00151480005b
:104da0000403420004cd200004024300050a7800f9
:104db000e4bc2000144278000482fb00251480002b
:104dc0000403420004dd200004024300050a7800c9
:104dd000e4bc2000144278000482fb0035148000fb
:104de0000403420004ed200004024300050a780099
:104df000e4bc2000144278000482fb0045148000cb
:104e00000403420004fd200004024300050a780068
:104e1000e4bc2000144278000482fb00551480009a
:104e200004034200040d210004024300050a780037
:104e3000e4bc2000144278000482fb00651480006a
:104e400004034200041d210004024300050a780007
:104e5000e4bc2000144278000482fb00751480003a
:104e600004034200043d210004024300050a7800c7
:104e7000e4bc2000144278000482fb00851480000a
:104e800004034200042d210004024300050a7800b7
:104e9000e4bc2000144278000482fb0095148000da
:104ea00004034200044d210004024300050a780077
:104eb000e4bc2000144278000482fb00a5148000aa
:104ec00004034200045d210004024300050a780047
:104ed000e4bc2000144278000442e800044078005a
:104ee000ceebb700e4bc2000144278000474a100ab
:104ef00004407800ceebb700a042a8000080fa0082
:104f00004f0378004f02be004f00780000400600bb
:104f10003600f800809fbe00829fbe00849fbe00c6
:104f2000869fbe000000fa00a5168000040820003d
:104f300004826200e00f520012003a004006200096
:104f40000100200035130700a5168000040820008a
:104f500004826200e00f52000a003a00400620007e
:104f6000010020002d130700a51680000408200072
:104f700004826200e00f520002003a00004020006c
:104f8000330c070085e0a9000080fa004f03be0043
:104f90004f02be004f01be004f00be003600f900b8
:104fa00000400600841f78000000fa002400200062
:104fb000f4c588008940a900d4c480000402e80038
:104fc000d4c488000080fa004f0278000040060038
:104fd000841f78000000fa00d4002000f4c5880087
:104fe000143a800004c688000000000000000000a1
:104ff0000000fe000080fa004f027800004006002a
:10500000841f78000000fa00e4002000f4c5880046
:1050100000000000000000000000fe000080fa0018
:105020004f02780000400600841f78000000fa005c
:10503000f4002000f4c5880000000000000000001b
:105040000000fe000080fa004f02780000400600d9
:10505000841f78000000fa0004012000f4c58800d5
:1050600000000000000000000000fe000080fa00c8
:105070004f02780000400600841f78000000fa000c
:10508000c4ab2f00f4c58800000000000000000041
:105090000000fe000080fa004f0278000040060089
:1050a0000c00fa00500798005e02900005002000f6
:1050b000048fbe005e029000050020001e039000d9
:1050c00004b3b900060378009e03780005b8b90060
:1050d00080037800070343009e03780004027800f1
:1050e0000722b8000503430086027800048fbe0043
:1050f000048fbe001e02be00422bdd004e22de00e9
:1051000004027300ceaade00048fbe0064c18000da
:10511000cfa2de001e03900004b3b900060378009e
:105120009e03780005b8b9008003780007034300a8
:105130009e037800040278000722b80005034300ac
:1051400086027800048fbe00048fbe001e02be00df
:10515000c62bdd004a22de0004827300caaade00ec
:10516000048fbe001e02be00240798003507980079
:105170005e02900005002000048fbe0074c1800014
:10518000cfa2de001e03900004b3b900060378002e
:105190009e03780005b8b900800378000703430038
:1051a0009e037800040278000722b800050343003c
:1051b00086027800048fbe00048fbe001e02be006f
:1051c000462bdd004a22de0004027300caaade007c
:1051d000048fbe002e029000be0290003e034200eb
:1051e000ae834a000602be002407980035079800e7
:1051f00084c18000cfa2de00048fbe001e03be006b
:10520000423add00ce32de00850272004232dd001d
:10521000048fbe002e029000be0290003e034200aa
:10522000ae834a000602be002407980035079800a6
:10523000ae039000470798004e02900004007800eb
:105240000080fa00000006000000fa0074108000e0
:1052500062026200e00f5200010032000e22a9003b
:10526000448b210014427800e24f520001003200ca
:1052700007000700448b210014427800e24f5200df
:1052800001003a00080107000080fa000000060053
:105290000400fa00881f78003e00370020862000b6
:1052a0000712070000427800044f78001e42780081
:1052b000ef4f420037003a0020862000001207001e
:1052c00000427800044f78001e427800ee4f420002
:1052d00030003a0020862000f911070000427800d3
:1052e000044f78001e427800ed4f420029003a003a
:1052f00020862000f2110700004278000440780068
:10530000b0f8b70020862000ed11070000427800b9
:1053100004407800b2f8b70020862000e8110700aa
:105320000042780004407800b3f8b70020862000df
:10533000e31107000042780004407800b1f8b7009c
:1053400020862000de110700004278000482fb0066
:10535000140798001e0290004824dd0020862000db
:10536000d7110700004278000482fb0004024400c9
:10537000140798001e009000c6060700004278003f
:10538000e04f52000300320024c0b3000440780014
:10539000b4f8b700448b210014427800e04f52006b
:1053a00005003a0020862000e31107000042780043
:1053b000e84f5200b9ff3e004f0478000080fa0029
:1053c000000006000000fa00548b2100144278000f
:1053d000e04f52006e003200e1cfb300408a20005f
:1053e0009211070011cfb300408a20008f110700ef
:1053f000a4c48000e00f5200070032008440800007
:105400004822de000442780084407800408a200070
:105410008611070008003700844080004822de0023
:105420008442780004c8b30004c27200844078004b
:10543000408a20007d1107008440800004427800eb
:1054400084407800408a200078110700a440800042
:105450004822de000442780084407800408a200020
:1054600072110700a4408000044278008440780054
:10547000408a20006d110700c44080004822de00f1
:105480000442780084407800408a200067110700b9
:10549000c44080000442780084407800408a2000a4
:1054a00062110700e440800048a2de000442780058
:1054b00084407800408a20005c110700e4408000ae
:1054c0000442780084407800408a20005711070089
:1054d000f440800048a2de00044278008440780056
:1054e000408a200051110700f440800004427800f7
:1054f00084407800408a20004c110700144180004d
:105500004822de000442780084407800408a20006f
:10551000461107001441800004427800844078005e
:10552000408a200041110700544280004822de00da
:105530000442780084407800408a20003b11070034
:10554000544280000442780084407800408a200061
:1055500036110700751080000420200004826200cc
:10556000e00f52000a003a00408a20007d11070037
:1055700000427800e04f520005003200408a2000cf
:105580004f110700004278000482fb00841088005d
:105590000080fa00000006000600fa00204798008c
:1055a0003147980022079800548b2100144278005c
:1055b000e04f52003a003a002e019000be409000a9
:1055c0002e4090001c06070000027800040f7800af
:1055d00011cfb300408a20001411070021cfb3007f
:1055e000408a20001111070041cfb300408a2000fb
:1055f0000e110700ae409000408a20000b110700fa
:105600002e0290004822de00044278008440780098
:10561000408a2000051107002e0290000442780005
:1056200084407800408a200000110700be409000ae
:10563000408a2000fd1007001e0278004822de008c
:105640000442780084407800408a2000f710070068
:105650001e0278000442780084407800408a2000ce
:10566000f210070075108000042020000482620000
:10567000e00f52000a003a00408a2000391107006a
:1056800000427800e04f520005003200408a2000be
:105690000b110700004278000482fb008410880090
:1056a0000080fa00000006000a00fa00248b2100a6
:1056b000144278000482fb00140798001e02900038
:1056c0004822dd0014079800348b21001442780032
:1056d0000482fb009e02900004824200140798009e
:1056e0001e009000000f7800048b21001442780007
:1056f0000482fb0024079800048b210014427800e8
:105700000482fb006123b90004ff2f00f5ff2f0086
:105710000602420087824a00a60d200007002000f2
:10572000860f5200878f5a002a033e000460010052
:10573000da003700dd003700260337002503370085
:1057400024033700230337002203370021033700e7
:10575000200337001f0337001e0337001d033700e7
:105760001c0337001b0337001a03370019033700e7
:1057700018033700170337001603370015033700e7
:1057800014033700130337001203370011033700e7
:10579000100337000f0337000e033700c700370030
:1057a000d80237000b033700b30237000903370074
:1057b000e900370007033700060337000503370009
:1057c00004033700030337000203370001033700e7
:1057d00000033700ff023700fe023700fd023700ea
:1057e000fc023700fb023700fa023700f9023700eb
:1057f000e7023700f7023700f6023700f5023700fc
:10580000f4023700f3023700f2023700f1023700ea
:10581000f0023700ef023700ee023700ed023700ea
:10582000ec023700eb023700ea023700e9023700ea
:10583000d1003700dc003700fa00370018013700cc
:105840001c01370020013700e2023700e102370077
:10585000e0023700df023700de023700dd023700ea
:10586000dc023700db023700da023700d9023700ea
:10587000d8023700d7023700d6023700d5023700ea
:10588000d4023700d3023700d2023700d1023700ea
:10589000d0023700cf023700ce023700cd023700ea
:1058a000cc023700cb023700ca023700c9023700ea
:1058b000c8023700c7023700c6023700c5023700ea
:1058c000c4023700c3023700c2023700c1023700ea
:1058d000c0023700bf023700be023700bd023700ea
:1058e000bc023700bb023700ba023700b9023700ea
:1058f000b8023700b7023700b6023700b5023700ea
:10590000b4023700b3023700b2023700b1023700e9
:10591000b0023700af023700ae023700ad023700e9
:10592000ac023700ab023700aa023700a9023700e9
:10593000a8023700a7023700a6023700a5023700e9
:10594000a4023700a3023700a2023700a1023700e9
:10595000a00237009f0237009e0237009d023700e9
:105960009c0237009b0237009a02370099023700e9
:1059700098023700d90037009602370095023700a9
:1059800094023700930237009202370091023700e9
:10599000900237008f0237008e0237008d023700e9
:1059a0008c0237008b0237008a02370089023700e9
:1059b00088023700870237008602370085023700e9
:1059c00084023700830237008202370081023700e9
:1059d000800237007f0237007e0237007d023700e9
:1059e0007c0237007b0237007a02370079023700e9
:1059f00078023700770237007602370075023700e9
:105a000074023700730237007202370071023700e8
:105a1000700237006f0237006e0237006d023700e8
:105a20006c0237006b0237006a02370069023700e8
:105a3000b2003700ba003700c2003700d600370086
:105a4000de003700e6003700fa00370002013700b9
:105a50000a0137001e013700260137002e013700ea
:105a6000420137004a013700520137006601370012
:105a70006e013700760137008a0137009201370046
:105a80009a013700ae013700b6013700be0137007a
:105a9000d2013700da013700e20137000042eb00a3
:105aa0000440780026e8b7004a02370014c0b3006b
:105ab0000440780026e8b7004602370064822000e0
