:020000040000fa
:080000000001040000000000f3
:020000040000fa
:100008008c2b0000382b0000502b0000642b0000c4
:10001800782b00008c2b00008c2b00008c2b000010
:100028008c2b00008c2b00008c2b00000c2900006e
:100038008c2b00008c2b00008c2b00008c2b0000dc
:100048008c2b0000583c0000883c0000d829000098
:100058008c2b00008c2b00008c2b0000d82a000071
:10006800c62700008c2b00008c2b00008c2b000076
:100078008c2b00008c2b00008c2b00008c2b00009c
:100088008c2b00008c2b00008c2b00008c2b00008c
:100098008c2b00008c2b00008c2b00008c2b00007c
:1000a8008c2b00008c2b00008c2b00008c2b00006c
:1000b8008c2b00008c2b00008c2b00008c2b00005c
:1000c8008c2b00008c2b0000222b00008c2b0000b6
:1000d8008c2b00008c2b00008c2b00008c2b00003c
:1000e8008c2b00008c2b00008c2b00008c2b00002c
:0800f8008c2b00008c2b000092
:020000040000fa
:100108008c2b0000382b0000502b0000642b0000c3
:10011800782b00008c2b00008c2b00008c2b00000f
:100128008c2b00008c2b00008c2b00000c2900006d
:100138008c2b00008c2b00008c2b00008c2b0000db
:100148008c2b0000583c0000883c0000d829000097
:100158008c2b00008c2b00008c2b0000d82a000070
:10016800c62700008c2b00008c2b00008c2b000075
:100178008c2b00008c2b00008c2b00008c2b00009b
:100188008c2b00008c2b00008c2b00008c2b00008b
:100198008c2b00008c2b00008c2b00008c2b00007b
:1001a8008c2b00008c2b00008c2b00008c2b00006b
:1001b8008c2b00008c2b00008c2b00008c2b00005b
:1001c8008c2b00008c2b0000222b00008c2b0000b5
:1001d8008c2b00008c2b00008c2b00008c2b00003b
:1001e8008c2b00008c2b00008c2b00008c2b00002b
:0801f8008c2b00008c2b000091
:020000040000fa
:100200000f0022000e7f22000e0188000000000077
:1002100000012000200288000c000700e0472500b4
:100220000100200011000700000020000000e00095
:100230000200320000000200000000003450020002
:10024000000000000040da000000fe004440a90069
:10025000000820000000e000030032000000200041
:10026000a00188004440a800000006009101880019
:10027000800078000000eb0015003700e2804000ad
:1002800032a0b4009101ba00e280400032a0b40074
:100290009102ba00e280400032a0b4000002eb00fc
:1002a000472bde00f507b200602ce10004003a00a5
:1002b0000059eb008301e900fdff3e000400370018
:1002c0006128e100010032000082eb000400070019
:1002d0001101ba000200e000e8ff3a000000060049
:1002e0003159ba008301e9000c0032002159ba00eb
:1002f0008301e900080032000400e00003003a0036
:10030000e280400032a0b400f5ff370011d9ba00f6
:100310008301e900faff3a008100e800e180400033
:1003200032a0b40000000600881f78008a1f780001
:100330004400f800080f2000280288000004900004
:1003400010059000a000900030019000c0019000c6
:100350000300ca000280ca000030cb001a00cd00a2
:100360004604c3000100ca004604c0001e04c000c9
:100370000605c0000100cd0021009800050d7800a1
:10038000eaba9700052578004400f9004f05780087
:100390004f04780000000600801f78004000b00085
:1003a0000008eb004f007800801f780010009000dc
:1003b0000018eb000018eb000008eb004f0078007d
:1003c000000006004400f800020f2000220288000e
:1003d000910078003000ca003080ca000000cb00d5
:1003e0002080ca000000cb003100cd004000ca00d0
:1003f0000000cb000000cb000010cb003100cd008e
:100400001180cc004400f9000000060010118800a3
:100410000111880000000600401188003111880099
:10042000000006003200f800910188000008bb00bf
:10043000410424006210e1000400320000022000a8
:100440000010e1000a003a0051042400013b88003a
:100450000500fc0051052000313b8800a10a200066
:10046000313b880061e7a8000000000000000000a8
:100470003200f900000006003200f8006004240099
:10048000003b8800f2ff37003200f800910188003d
:1004900041002400013b88000208bb00ecff37004c
:1004a0003200f8009101880051002400013b8800cf
:1004b000030120003218bb008301e900fdff3a0070
:1004c000e3ff37003200f8009101880080027800d5
:1004d00062004000e08048003549ba003204e00084
:1004e0000410a700100032008301e9000e00320062
:1004f0002549ba003204e0000410a7000a003200c7
:100500008301e900080032000408a300eeff320076
:1005100015c9ba003204e0000410a700020032003e
:100520008301e900e8ff3a003200f900000006000c
:100530006022b800060220000000d0008180d200b6
:100540000482d2008582d2000000a0000202520084
:1005500083825a00030031000202420083824a0073
:100560000000a1000603e900f3ff3a0000000600c6
:10057000889fbe008a9fbe008c1f78000006eb009b
:10058000e00f5000e08f5800e00f5900e08f590055
:1005900007003d006044b8006055b80000005400fa
:1005a00081805c0002015d0083815d001c002000f1
:1005b000e00f5200e08f5a00e00f5b00e08f5b001d
:1005c00007003d006044b8006055b80004025400c4
:1005d00085825c0006035d0087835d000c00a2003d
:1005e0000c000700e00f5600060032006022b80041
:1005f0006033b8000000520081805a0002015b00a5
:1006000083815b004f0678004f05be004f04be009b
:1006100000000600889fbe008a9fbe008c9fbe001f
:100620000404b8000506b8008904460060854e0041
:100630000606b8000a054600e0854e000706b80029
:100640008b054600040eb800890446000a854e005a
:10065000e0854d00050eb8000a0546008b854e006a
:10066000060eb8008b0546000416b8000a054600c1
:100670008b854e000516b8008b054600041eb80099
:100680008b0546000800be000a01be004f06be00f2
:0c0690004f05be004f04be000000060035
:020000040000fa
:10069c0064000000640000006300000063000000c0
:1006ac0063000000620000006200000061000000b6
:1006bc006100000060000000600000005f000000ae
:1006cc005f0000005e0000005e0000005d000000a6
:1006dc005d0000005c0000005b0000005b0000009f
:1006ec005a0000005900000059000000580000009a
:1006fc005700000057000000560000005500000095
:10070c005400000054000000530000005200000090
:10071c005100000050000000500000004f0000008d
:10072c004e0000004d0000004c0000004b0000008b
:10073c004a0000004900000048000000470000008b
:10074c00460000004500000044000000430000008b
:10075c004200000041000000400000003f0000008b
:10076c003e0000003c0000003b0000003a0000008e
:10077c003900000038000000360000003500000091
:10078c003400000033000000310000003000000095
:020000040000fa
:10079c000a00fa0024842000144278000482fb0032
:1007ac0045032000850f5200140132004503200040
:1007bc00850f52000d003c00e60f52002e00320057
:1007cc00e60f520003003c00e40f52001b00320005
:1007dc005c033700f40f5200760032004502200013
:1007ec00850f52008c00320056033700050a20009a
:1007fc00850f520050033200050a2000850f52006d
:10080c0007003c0055032000850f520036013200d2
:10081c0045042000850f52007e0132004903370049
:10082c00450a2000850f520010033200850a200073
:10083c00850f52001e0332004203370047030700a6
:10084c00a6070700c3080700632107000002780011
:10085c00e00f52000400320004cab30004407800d8
:10086c0042e8b7003b03370044c1b30004407800b2
:10087c0042e8b70037033700551680000404200007
:10088c000482620004f0a7000402ea000402e900fa
:10089c004f22de00044278000482fb0061026200f9
:1008ac004622dd0056168000f5fb2f008502630002
:1008bc000482720054168800280307005516800025
:1008cc00040420000482620004f0a7000402ea0081
:1008dc000402e9004f22de00044278000482fb008f
:1008ec00610262004622dd0056168000f5fb2f00e7
:1008fc00850263000482720054168800e507070025
:10090c0055168000040420000482620004f0a70045
:10091c000402ea000402e9004f22de0004427800df
:10092c000482fb00610262004622dd005616800044
:10093c00f5fb2f00850263000482720054168800b8
:10094c00840807005516800004042000048262000d
:10095c0004f0a7000402ea000402e9004f22de00c2
:10096c00044278000482fb00610262004622dd0032
:10097c0056168000f5fb2f0085026300048272007e
:10098c00541688001421070000027800e00f520072
:10099c000400320004cab3000440780042e8b700f7
:1009ac00ec02370044c4b3000440780042e8b700be
:1009bc00e8023700390f0700120037003c0a070025
:1009cc00c61307000921070000027800e00f52004f
:1009dc000400320044cab3000440780042e8b70077
:1009ec000800370015168000040024000482620001
:1009fc00e00f520003003a0044c2b30004407800f8
:100a0c0042e8b7002484200014427800f44f5200ce
:100a1c00eaff3200cf023700520f07000002eb0052
:100a2c00040f78000002eb00f4c588006d0037005d
:100a3c001f0a0700a91307000000000000000000b7
:100a4c0000000000250480000404200004826200e1
:100a5c00e00f52002f0032001e0fe80084c0a900e6
:100a6c00351780000400210004826200e00f520060
:100a7c0003003200f4c58000e10f520011003a006f
:100a8c00a20020009e00780060ad200082080700c4
:100a9c00a20020009e007800c0a720007e0807005e
:100aac00a20020009e00780000b320007a08070006
:100abc00a20020009e007800a0b820007608070055
:100acc0014003700b4568000040178009e007800b2
:100adc0060ad200070080700e4538000040178002a
:100aec009e007800c0a720006b0807008459800086
:100afc00040178009e00780000b32000660807000f
:100b0c00545c8000040178009e007800a0b820009e
:100b1c0061080700b520070000027800e00f5200c2
:100b2c000400320044cab3000440780042e8b70025
:100b3c002c0037001516800004002400048262008b
:100b4c00e00f52000400320044c1b30004407800ae
:100b5c0042e8b70023003700440620009e027800cc
:100b6c00848f5200070036002d1e070044c3b300cb
:100b7c000440780042e8b7000002eb00f4c588009e
:100b8c001800370035178000040021000482620031
:100b9c00e00f52000a003a001e027800f40f5200d7
:100bac00070036001e1e070044c3b3000440780043
:100bbc0042e8b7000002eb00f4c5880009003700da
:100bcc00f4c58000e10f520006003a00141e070025
:100bdc0044c3b3000440780042e8b7000002eb00c5
:100bec00f4c58800258420009542780044c2b300e7
:100bfc0084cf52008eff320056023700cf0e070012
:100c0c0042062000410620004091200022080700e7
:100c1c004206200041062000809c20001e08070090
:100c2c00420620004106200060ad20001a08070093
:100c3c004206200041062000c0a72000160807002d
:100c4c004206200041062000a0b820001208070030
:100c5c00420620004106200000b320000e080700c9
:100c6c001b003700920907001c1307005f200700c8
:100c7c0000027800e00f52000400320084cab30076
:100c8c000440780042e8b7001100370015168000c8
:100c9c000400240004826200e00f520004003200c1
:100cac0044c1b3000440780042e8b70008003700a4
:100cbc00151680000400280004826200e00f520028
:100ccc0003003a0054c3b3000440780042e8b70074
:100cdc00258420009542780044c3b30084cf520091
:100cec00e0ff32001b0237002442800051c3200079
:100cfc0004007800c10f0700000278002407980058
:100d0c000001eb00ae00900040912000b0070700fe
:100d1c003442800051c3200004007800b70f070054
:100d2c0000027800240798000001eb00ae00900050
:100d3c00809c2000a60707000002eb001407980017
:100d4c00cbe2a9002d00370059090700e312070078
:100d5c00250480000404200004826200e00f52008d
:100d6c000400320084c0a9001e0290000402e800b6
:100d7c00140798001d20070000027800e00f5200b5
:100d8c000400320084cab3000440780042e8b70083
:100d9c001a0037001516800004002400048262003b
:100dac00e00f52000400320044c1b300044078004c
:100dbc0042e8b70011003700151680000400280027
:100dcc0004826200e00f52000400320044c3b300fe
:100ddc000440780042e8b700080037009e029000fb
:100dec0014032000848f52000400360044c4b30066
:100dfc000440780042e8b700270f07002584200044
:100e0c009542780054c3b30084cf5200ceff320019
:100e1c00d00137000002eb00544288000002eb00c6
:100e2c00744288000002eb00644288000002eb0070
:100e3c0094c788006022b80004c7880015c78800d2
:100e4c000042eb0004407800e6f6b7008c60a80086
:100e5c0080013700c400200064c788001409070013
:100e6c009e120700b542800044062000848f520079
:100e7c00090036001516800004002200048262006e
:100e8c00e00f5200040032000042eb0004407800f6
:100e9c00e9f6b700cbc2a900351780000400280082
:100eac0004826200e00f520003003a0024418000eb
:100ebc00044188000200370014418000044188007e
:100ecc00646e210014427800e04f5200450132005c
:100edc000002eb00b442880074418000e00f520025
:100eec0002003200004020007e1f0700b4002000ea
:100efc0064c788006541800004f02f00848f520085
:100f0c0003003e00644180000402e8006441880054
:100f1c0004c7800015c7800061024200e0824a00cd
:100f2c0004c7880015c78800e48c21003400be007b
:100f3c002401be0014002000050020006033b8001e
:100f4c000002420081824a0002034b0083834b0063
:100f5c00e08c21000498be000690be000442800084
:100f6c000402e80004428800630b0700846e210031
:100f7c001442780004407800451d0700956e21004e
:100f8c0095427800846e21001442780084cf520080
:100f9c000a003200b5488000b4452400848f52000a
:100fac0003003e000403210054b788001a003700e8
:100fbc000403200054b7880017003700946e2100fa
:100fcc0014427800e04f52000a003a00b548800005
:100fdc00b4452400848f520003003e000404210019
:100fec0054b788000c0037000404200054b7880064
:100ffc0009003700b5488000b4452400848f5200a6
:10100c0003003e000402210054b7880002003700a0
:10101c000402200054b78800946e2100144278001a
:10102c0004407800e8f6b70060ee20006726070061
:10103c0000027800f440880060fe20006326070060
:10104c0000027800d440880064418000fd0f5200fb
:10105c0008003e000002eb00444188000002eb0057
:10106c003441880014c0b300044078002ae8b7006b
:10107c00b10037000002eb00b440880065418000ed
:10108c00a4c58000848f52002300310094c58000d9
:10109c00050020003407980045079800a5c580007e
:1010ac006441800004825200050020004e03900031
:1010bc0004b3b90006037800be03900005b8b9006c
:1010cc008003780007034300be03900004027800fd
:1010dc000722b80005034300860278003407980005
:1010ec00450798003407980045079800a4c5800070
:1010fc00050020000401be003e009000ce009000d0
:10110c0008fd07000002be00340798004507980050
:10111c003e029000b4408800351780000400240083
:10112c0004826200e00f520011003a00b4c5800046
:10113c00e00f52000700320005418000b4408000ef
:10114c00048242000500200074408800854088001d
:10115c003100370005418000b44080000482520009
:10116c000500200074408800854088002a00370064
:10117c00b4c58000e00f520007003200054180002a
:10118c00b4408000048242000500200074408800b6
:10119c00854088000600370005418000b44080007f
:1011ac0004825200050020007440880085408800ad
:1011bc00344280006123b800744080008540800078
:1011cc0004b8b9000000780006a9b90082007800c4
:1011dc000100400006037800040278000432b800d5
:1011ec00050040008002780074408800854088002b
:1011fc007640800087408000a440800005002000dd
:10120c000401be000600be00c6fc07000002be00c2
:10121c007440880085408800f44080006123b80049
:10122c0074408000854080002403b0000580b0002d
:10123c00840f5300858f5b0004003900444180000b
:10124c000402e900444188000e003700f44080009d
:10125c006123b8007040800081408000e4fc2f00c6
:10126c00f5ff2f000002420081824a00840f5300d8
:10127c00858f5b0003003e00444180000402e800bf
:10128c0044418800e4408000250320008482420011
:10129c00d4408000848f520004003100344180001f
:1012ac00630252003441880009003700e44080009a
:1012bc00e5fc2f0084824200d4408000848f5200d1
:1012cc000300360034418000630242003441880040
:1012dc004541800004642000848f520003003400d8
:1012ec00046420004441880006003700454180001a
:1012fc00049c2f00848f520002003d00049c2f00a0
:10130c00444188003541800084252000848f5200a0
:10131c000300340084252000344188000600370087
:10132c003541800084da2f00848f520002003d008a
:10133c0084da2f00344188002442800051c32000fd
:10134c00040078002d0e0700000278002407980096
:10135c00e5408000743e2000848f5200040036006b
:10136c0034418000ae0290000482420024079800b1
:10137c000001eb00ae009000409120001406070025
:10138c00a440800051c32000040078001b0e07000d
:10139c00000278002407980005418000743e20006c
:1013ac00848f52000400360044418000ae0290004d
:1013bc0004824200240798000001eb00ae0090006c
:1013cc00809c2000020607007d0707000002eb004e
:1013dc003408880084c0a9000042eb000440780067
:1013ec00e6f6b700811e070000027800e00f5200fd
:1013fc0005003200570c070084cab3000440780083
:10140c0042e8b700130037001516800004002400d2
:10141c0004826200e00f5200050032004d0c070000
:10142c0044c1b3000440780042e8b700090037001b
:10143c00151680000400280004826200e00f5200a0
:10144c0004003200430c070044c3b300044078008e
:10145c0042e8b700258420009542780044c4b300cc
:10146c0084cf52007bfe32003a0037008b0c070011
:10147c00090037008e070700181107005b1e0700d4
:10148c0000027800e00f520003003a0044c1b300a0
:10149c000440780042e8b70025842000954278008b
:1014ac0044cab30084cf5200f2ff32002900370047
:1014bc00a20c07001a0037007d0707000711070070
:1014cc00551e070000027800e00f520004003200a5
:1014dc0044cab3000440780042e8b700100037005b
:1014ec00151680000400240004826200e00f5200f4
:1014fc000400320044cab3000440780042e8b7004c
:10150c0007003700391e070000027800e00f520078
:10151c0003003a0044c3b3000440780042e8b7002b
:10152c00258420009542780084cab30084cf5200f1
:10153c00e1ff3200070037005d070700e7100700e6
:10154c00fdff370004cab3000440780042e8b7003e
:10155c00000000000080fa00000006000200fa0003
:10156c001400200024c788001400200034c7880011
:10157c0064c78000944188000002eb0064c78800b7
:10158c000002eb0024c48800043a8000610262006f
:10159c00e00f52000300320024c480000440a0007d
:1015ac0024c48800053a80000408200004826200ec
:1015bc00e00f52000400320025c480000402200019
:1015cc000482720024c48800053a800004042000c0
:1015dc0004826200e00f52000400320025c4800037
:1015ec00040420000482720024c48800043a8000a1
:1015fc0062026200e00f52000300320024c480003b
:10160c000400a00024c48800053a800004002800cf
:10161c0004826200e00f52000300320024c48000f8
:10162c000410a00024c48800043a800070026200f8
:10163c00e00f52000300320024c480000420a000fc
:10164c0024c48800053a800004002400048262004f
:10165c00e00f52000300320024c480000430a000cc
:10166c0024c488000002eb0074c388000002eb0065
:10167c0084c388000002eb0094c388000002eb00d6
:10168c00a4c388000002eb00b4c388000002eb0086
:10169c00c4c388000002eb00d4c388000002eb0036
:1016ac00e4c388000002eb00f4c388000002eb00e6
:1016bc0004c48800a4c28000e4408800b4c2800046
:1016cc0024418800f4c2800014418800c4c2800008
:1016dc00a4c58800d4c2800074c58800e4c2800010
:1016ec0084c5880004c3800064b7880014c38000dc
:1016fc0074b788006480200074438800a4ff210024
:10170c0084438800e086200020fb0700f42820009a
:10171c0044c68800d4a3200054c68800d4a320005b
:10172c0064c68800e1862000808c210022fb070023
:10173c00048020002443880044ff210034438800a7
:10174c004086200011fb0700f428200014c68800f6
:10175c00d4a3200024c68800d4a3200034c688005b
:10176c0041862000208c210013fb07000060fe0046
:10177c0044062000e453880004d027001454880049
:10178c008080eb000080eb00e10c07000002780089
:10179c003454880064b880004454880074b88000c5
:1017ac0054548800a12a29000080eb00d80c0700b3
:1017bc00000278007454880084b880008454880037
:1017cc0094b880009454880074548000840078008d
:1017dc0000532700090d070000027800a45488006c
:1017ec000100220000802200c90c070000027800d2
:1017fc00d45488000100220000002100c40c070012
:10180c0000027800e4548800843e2000f4548800e0
:10181c002403200004558800841a2600745588007f
:10182c00311e29000080eb00b90c07000002780083
:10183c0094558800b4b88000a4558800c4b88000c2
:10184c00b455880011b52a000080eb00b00c0700dd
:10185c0000027800d4558800d4b88000e455880084
:10186c00e4b88000f4558800d455800084007800da
:10187c0000592600e10c070000027800045688008d
:10188c000100220030332200a10c07000002780076
:10189c003456880001002200c0cc21009c0c0700ab
:1018ac00000278004456880004fa20005456880040
:1018bc002403200064568800a4b8800084027800b9
:1018cc0054b880000501780084007800c0a720007f
:1018dc00bf04070024032000b456880004dc250054
:1018ec00e45688008080eb000080eb00880c070039
:1018fc00000278000457880084b9800014578800cf
:10190c0094b9800024578800a12a29000080eb009c
:10191c007f0c07000002780044578800a4b98000af
:10192c0054578800b4b9800064578800445780002d
:10193c0084007800801a2600b00c070000027800a2
:10194c00745788000100220000002400700c07006e
:10195c0000027800a457880001002200000021003a
:10196c006b0c070000027800b457880004fa2000c2
:10197c00c4578800840c2000d457880004dc250050
:10198c0044588800211e29000080eb00600c0700e1
:10199c000002780064588800d4b98000745888001c
:1019ac00e4b980008458880011b52a000080eb004f
:1019bc00570c070000027800a4588800f4b9800086
:1019cc00b458880004ba8000c4588800a458800019
:1019dc0084007800802c2300880c0700000278001b
:1019ec00d45888000100220000802200480c070017
:1019fc0000027800045988000100220000802100b8
:101a0c00430c0700000278001459880004fa2000e7
:101a1c0024598800840c200034598800c4b98000f3
:101a2c008402780074b98000050178008400780085
:101a3c0060ad200066040700847020008459880083
:101a4c00c4a22100b45988008000eb000080eb0098
:101a5c002f0c070000027800d4598800a4ba80002b
:101a6c00e4598800b4ba8000f4598800215e29003a
:101a7c000080eb00260c070000027800145a880046
:101a8c00c4ba8000245a8800d4ba8000345a880022
:101a9c00145a80008400780000c22100570c070003
:101aac0000027800445a880001002200901922009c
:101abc00170c070000027800745a880001002200fd
:101acc0060e62100120c070000027800845a88009e
:101adc00843e2000945a8800441f2000a45a880099
:101aec000002eb00145b88008000eb000080eb0030
:101afc00070c070000027800345b8800f4ba800001
:101b0c00445b880004bb8000545b88008000eb00c1
:101b1c000080eb00fe0b070000027800745b88006d
:101b2c0014bb8000845b880024bb8000945b88001d
:101b3c00745b8000840078000000eb002f0c070021
:101b4c0000027800a45b8800010022000000eb007a
:101b5c00ef0b070000027800d45b88000100220024
:101b6c000000eb00ea0b070000027800e45b880041
:101b7c000002eb00f45b88000002eb00045c8800c0
:101b8c00e4ba80008402780094ba800005017800e1
:101b9c008400780000b320000d040700847020003e
:101bac00545c880004772100845c88008000eb0082
:101bbc000080eb00d60b070000027800a45c8800c4
:101bcc00c4bb8000b45c8800d4bb8000c45c8800bb
:101bdc00215e29000080eb00cd0b0700000278008d
:101bec00e45c8800e4bb8000f45c8800f4bb8000fb
:101bfc00045d8800e45c800084007800a0862100ed
:101c0c00fe0b070000027800145d88000100220022
:101c1c0090192200be0b070000027800445d88007a
:101c2c000100220060e62100b90b070000027800d9
:101c3c00545d8800843e2000645d8800441f2000b1
:101c4c00745d88000002eb00e45d88008000eb000e
:101c5c000080eb00ae0b070000027800045e8800e9
:101c6c0014bc8000145e880024bc8000245e8800b4
:101c7c008000eb000080eb00a50b07000002780051
:101c8c00445e880034bc8000545e880044bc8000f4
:101c9c00645e8800445e8000840078000000eb00e5
:101cac00d60b070000027800745e88000100220049
:101cbc000000eb00960b070000027800a45e880081
:101ccc00010022000000eb00910b070000027800dd
:101cdc00b45e88000002eb00c45e88000002eb00da
:101cec00d45e880004bc800084027800b4bb800001
:101cfc000501780084007800a0b82000b403070028
:101d0c000002eb00a448880084a32400d448880077
:101d1c00517125000080eb007d0b0700000278005c
:101d2c00f4488800e4bc800004498800f4bc8000be
:101d3c0014498800811a26000080eb00740b070000
:101d4c00000278003449880004bd800044498800b2
:101d5c0014bd800054498800344980008400780008
:101d6c00c0c22400a50b070000027800644988005b
:101d7c00010022000000eb00650b07000002780058
:101d8c0094498800010022000000eb00600b070062
:101d9c0000027800a44988000002eb00b4498800d6
:101dac000002eb00c44988000002eb00344a8800b2
:101dbc008000eb000080eb00550b07000002780060
:101dcc00544a880034bd8000644a880044bd8000b9
:101ddc00744a88008000eb000080eb004c0b07007d
:101dec0000027800944a880054bd8000a44a880000
:101dfc0064bd8000b44a8800944a80008400780056
:101e0c000000eb007d0b070000027800c44a88003c
:101e1c00010022000000eb003d0b070000027800df
:101e2c00f44a8800010022000000eb00380b070088
:101e3c0000027800044b88000002eb00144b880071
:101e4c000002eb00244b880024bd80008402780043
:101e5c00d4bc8000050178008400780040912000fb
:101e6c005b0307000002eb00444e880084a32400af
:101e7c00744e8800517125000080eb00240b070084
:101e8c0000027800944e880004be8000a44e8800a6
:101e9c0014be8000b44e8800811a26000080eb002e
:101eac001b0b070000027800d44e880024be800073
:101ebc00e44e880034be8000f44e8800d44e80007e
:101ecc0084007800c0c224004c0b0700000278008c
:101edc00044f8800010022000000eb000c0b0700ef
:101eec0000027800344f8800010022000000eb0053
:101efc00070b070000027800444f88000002eb003b
:101f0c00544f88000002eb00644f88000002eb0085
:101f1c00d44f88008000eb000080eb00fc0a070027
:101f2c0000027800f44f880054be800004508800f2
:101f3c0064be8000145088008000eb000080eb0031
:101f4c00f30a0700000278003450880074be800049
:101f5c004450880084be8000545088003450800067
:101f6c00840078000000eb00240b070000027800ce
:101f7c0064508800010022000000eb00e40a070016
:101f8c000002780094508800010022000000eb0051
:101f9c00df0a070000027800a45088000002eb0062
:101fac00b45088000002eb00c450880044be80008e
:101fbc0084027800f4bd800005017800840078006c
:101fcc00809c2000020307000002eb00744b880089
:101fdc00846d2d00a44b88008000eb000080eb008a
:101fec00cb0a070000027800c44b880024bf800095
:101ffc00d44b880034bf8000e44b8800118a2d003c
:10200c000080eb00c20a070000027800044c880034
:10201c0044bf8000144c880054bf8000244c8800be
:10202c00044c80008400780000b22c00f30a0700f6
:10203c0000027800344c880001002200008022004d
:10204c00b30a070000027800644c880001002200eb
:10205c0090992100ae0a070000027800744c8800a9
:10206c00843e2000844c880044012000944c88005d
:10207c00c4ce2200044d88008000eb000080eb00f1
:10208c00a30a070000027800244d880074bf80006a
:10209c00344d880084bf8000444d8800b111240069
:1020ac000080eb009a0a070000027800644d88005b
:1020bc0094bf8000744d8800a4bf8000844d8800bc
:1020cc00644d800084007800400d2300cb0a07008b
:1020dc0000027800944d8800010022009019220023
:1020ec008b0a070000027800c44d88000100220012
:1020fc0060e62100860a070000027800d44d8800b3
:10210c00843e2000e44d880044012000f44d8800fa
:10211c000002eb00244e88000082eb00344e880055
:10212c000002eb00c44c88000082eb00d44c880009
:10213c0064bf80008402780014bf80000501780021
:10214c0084007800e0962000a10207000002eb005a
:10215c0014518800846d2d00445188008000eb00e0
:10216c000080eb006a0a07000002780064518800c6
:10217c0044c080007451880054c080008451880091
:10218c00118a2d000080eb00610a07000002780024
:10219c00a451880064c08000b451880074c08000d1
:1021ac00c4518800a45180008400780000b22c0037
:1021bc00920a070000027800d45188000100220026
:1021cc0000802200520a07000002780004528800a6
:1021dc0001002200909921004d0a070000027800ae
:1021ec0014528800843e20002452880044012000b0
:1021fc0034528800c4ce2200a45288008000eb0028
:10220c000080eb00420a070000027800c4528800ec
:10221c0094c08000d4528800a4c08000e45288008e
:10222c00b11124000080eb00390a0700000278008d
:10223c0004538800b4c0800014538800c4c08000cc
:10224c00245388000453800084007800400d230040
:10225c006a0a07000002780034538800010022004b
:10226c00901922002a0a07000002780064538800a3
:10227c000100220060e62100250a07000002780018
:10228c0074538800843e200084538800440120004d
:10229c00945388000002eb00c45388000082eb00ca
:1022ac00d45388000002eb00645288000082eb00db
:1022bc007452880084c080008402780034c080008e
:1022cc00050178008400780020a22000400207005d
:1022dc0055168000040420000482620004f0a7005c
:1022ec000402ea000402e9004f22de0004427800f6
:1022fc000482fb00610262004622dd00561680005b
:10230c00f5fb2f00850263000482720054168800ce
:10231c00d762a900d602a800d742a900d702a9000b
:10232c00c4e2a800cac2a900cbe2a800c4c2a9009a
:10233c00d042a800d662a800e2a2a800cae2a90076
:10234c00ca42a900e282a800cbc2a900d6c2a8004a
:10235c00d6a2a800c522a900d362a900d202a90066
:10236c00d242a800cdc2a800cda2a800d222a800bb
:10237c00d322a900d342a900d302a900c182a8008c
:10238c00c1a2a800c0e2a900c6c2a900c7e2a90068
:10239c00c1c2a800c1e2a800e5a2a800e582a8007d
:1023ac00e5c2a800e5e2a800d282a800d2e2a8000b
:1023bc00d382a800d3a2a800cc62a800cc82a8002b
:1023cc00e502a800e522a800c142a800c0c2a900ed
:1023dc00cc42a900d262a900dea2a900c6e2a900e3
:1023ec00c642a900de82a900cde2a900c7c2a9009d
:1023fc00d2c2a900d2a2a900c122a9008e00a900b4
:10240c008600a900e40480000400a1000410a000d0
:10241c000420a000e40488008220a9008c60a9009c
:10242c008460a900a404800004c0a00004d0a10012
:10243c0004e0a000a40488008d60a9008560a900b8
:10244c00c404800004c0a00004d0a00004e0a100db
:10245c00c404880085e0a900c200a8008de0a80093
:10246c00d404800004c0a10004d0a10004e0a000aa
:10247c00d40488008d20a900c40480000440a0006e
:10248c000450a1000460a000c40488008d40a90081
:10249c00c40480000440a0000450a1000460a0000b
:1024ac00c40488008940a9009140a900440580001b
:1024bc000480a0000490a00004a0a00044058800a3
:1024cc00043a80000480a1000490a10004a0a000a4
:1024dc0004b0a000043a8800f4002f0034108800e7
:1024ec001406200024108800f1fb2d00b0532b00a3
:1024fc00c3f70700f1fb2d00a0f32b00c3f7070077
:10250c0004102000841c8800041020008422880001
:10251c000042eb0004407800b8e8b7000042eb0042
:10252c0004407800b9e8b7000042eb0004407800a2
:10253c00fae8b7000042eb0004407800fbe8b70073
:10254c0004f02f006410880004042000a4108800fc
:10255c00f475270074108800d4fa2500240888002c
:10256c0054fa25008408880094d02300640888005d
:10257c000002eb003408880084c0a900d4fa2d00b6
:10258c009408880044422f007408880054f82500f1
:10259c00f4088800d4f92500040988000002eb0037
:1025ac00c408880086c0a900440d2300e4088800f4
:1025bc00f40d2000e4478800e40d20000448880056
:1025cc0004022000144888000002eb002448880014
:1025dc0014c0b3000440780006e9b70004022000e0
:1025ec00f4478800c08f2000c01a070004c4b30051
:1025fc00044078000ee9b7000042eb00044078007c
:10260c000fe9b700040220004448880004022000af
:10261c0054488800040220006448880000c2eb0083
:10262c000440780010e9b70000c2eb0004407800c9
:10263c0011e9b70082170700e48c2100040f780021
:10264c0084c18000840278001e027800050a78009c
:10265c001e8fe80074c18000840278001e0278008e
:10266c00050a78001e8fe80064c18000840278009f
:10267c001e027800050a78001e8fe80054c1800005
:10268c00840278001e027800050a7800c48d2100af
:10269c00040f7800a4c18000840278001e02780028
:1026ac00050a78001e8fe80094c18000840278002f
:1026bc001e027800050a78000002eb0094c788001f
:1026cc006022b80004c7880015c78800b4c1800018
:1026dc00444288000080fa00000006000200fa0064
:1026ec000002eb00040f78000002eb0024c4880009
:1026fc004007a90040e7a90040c7a9004027a9004e
:10270c0041e7a9004087a90041c7a9000002eb00de
:10271c0064c788000002eb0084c78800c08f2000cb
:10272c00a91a07000041eb00a1c0b3008090200063
:10273c00771f0700000278001e0f72000041eb00ab
:10274c00a1c0b30080902000711f07000002780028
:10275c001e0f72000041eb00a1c0b300809020005e
:10276c006b1f0700000278001e0f720004912000fe
:10277c00144278000441780041c1b30080902000dd
:10278c00631f0700000278001e0f720014912000d6
:10279c00144278000441780051c1b30080902000ad
:1027ac005b1f0700000278001e0f720082cfb3007f
:1027bc008040eb0080902000551f0700000278003d
:1027cc001e0f72000041eb0011c0b300809020007e
:1027dc004f1f0700000278001e0f72000041eb0033
:1027ec0021c0b30080902000491f07000002780030
:1027fc001e0f72000041eb0031c0b300809020002e
:10280c00431f0700000278001e0f720004f02f0017
:10281c009e02620004a02f00848f520007003a0031
:10282c0025c48000040820000482720024c488009f
:10283c0094c380000402e80094c388008040eb003d
:10284c0080902000641f070000027800040f7800bd
:10285c00f40f20009e026200840f2000848f52002f
:10286c000700320025c48000040820000482720096
:10287c0024c4880094c380000402e80094c3880038
:10288c00d8070700df070700e20707000080fa00ff
:10289c00000006000600fa0084c780000402e8006d
:1028ac0084c78800444280000402e8004442880047
:1028bc0044428000b4c18800cbe2a90040862000cd
:1028cc00b2f60700e0862000b0f6070042062000b2
:1028dc004106200040912000ef0007004206200036
:1028ec0041062000809c2000eb00070042062000df
:1028fc004106200060ad2000e700070042062000e2
:10290c0041062000c0a72000e3000700420620007b
:10291c0041062000a0b82000df000700420620007e
:10292c004106200000b32000db000700b1070700c0
:10293c00a8070700580807008c60a90055168000ee
:10294c00040420000482620004f0a7000402ea00e0
:10295c000402e9004f22de00044278000482fb00ee
:10296c00610262004622dd0056168000f5fb2f0046
:10297c008502630004827200541688004b0607001f
:10298c0055168000040420000482620004f0a700a5
:10299c000402ea000402e9004f22de00044278003f
:1029ac000482fb00610262004622dd0056168000a4
:1029bc00f5fb2f0085026300048272005416880018
:1029cc00351780000400240004826200e00f5200de
:1029dc0014003a002442800051c320000400780007
:1029ec008608070000027800040f78000001eb0055
:1029fc009e00780040912000750007003442800052
:102a0c0051c32000040078007c0807000002780005
:102a1c00040f78000001eb009e007800809c2000e1
:102a2c006b0007000483200014427800e04f520032
:102a3c000d003a00b4488000040078003d0b0700fc
:102a4c0000027800140798001e009000d7130700ae
:102a5c0000027800240798001e019000ae00900040
:102a6c00c0a720005a00070055168000040420005f
:102a7c000482620004f0a7000402ea000402e900e8
:102a8c004f22de00044278000482fb0061026200e7
:102a9c004622dd0056168000f5fb2f0085026300f0
:102aac000482720054168800c50107005516800078
:102abc00040420000482620004f0a7000402ea006f
:102acc000402e9004f22de00044278000482fb007d
:102adc00610262004622dd0056168000f5fb2f00d5
:102aec0085026300048272005416880027050700d3
:102afc0055168000040420000482620004f0a70034
:102b0c000402ea000402e9004f22de0004427800cd
:102b1c000482fb00610262004622dd005616800032
:102b2c00f5fb2f00850263000482720054168800a6
:102b3c0044c4b3000440780042e8b70022150700f3
:102b4c0064c0b3000440780042e8b7000080fa008b
:102b5c00000006000000fa0011e1a80021e1a80025
:102b6c00f4cf27000415880084fe2000141588007b
:102b7c0064342e002415880034fe2e003415880091
:102b8c0074002c004415880084ff23005415880021
:102b9c00a1e2a8008560a9008d60a8008540a9006d
:102bac008d40a8008520a9008d20a8000de2a8006a
:102bbc00e282a8000042eb0004407800daf8b7008b
:102bcc00171607000060fe000080fa0000000600e7
:102bdc000600fa00000f78001107980022079800f1
:102bec001e027800b40290001e029000848f5200e6
:102bfc00080031001e027800b40290001e0278001a
:102c0c0015029800e4c380000402e800e4c38800c5
:102c1c00030037001e0278009e02900015029800f7
:102c2c001e027800941a90002e029000848f52009d
:102c3c00080031001e027800941a90001e027800e1
:102c4c0075129800e4c380000402e800e4c3880015
:102c5c00030037001e027800ae0290007512980037
:102c6c00258420009542780044c2b30084cf5200e2
:102c7c000400320042062000410620001e007800ad
:102c8c00050007001e007800540007000060fe00dd
:102c9c000080fa00000006000a00fa0020079800e5
:102cac003107980042079800be0290004e02900037
:102cbc00848f5200090039002e029000940290007b
:102ccc002e029000250298002e029000f412900023
:102cdc002e029000051a98003c0037002e0290003e
:102cec001402900005002000048fbe003e029000ec
:102cfc00050020001e03900004b3b9000603780001
:102d0c009e03780005b8b9008003780007034300e0
:102d1c009e037800040278000722b80005034300e4
:102d2c0086027800048fbe00048fbe004e02900015
:102d3c00050020000401be001e00be00f9f50700ce
:102d4c000002be00048fbe009e0278002e0290008e
:102d5c00250298002e0290007412900005002000ad
:102d6c00048fbe003e029000050020001e03900060
:102d7c0004b3b900060378009e03780005b8b900c7
:102d8c0080037800070343009e0378000402780058
:102d9c000722b8000503430086027800048fbe00aa
:102dac00048fbe004e029000050020000401be00fe
:102dbc001e00be00dbf507000002be00048fbe0043
:102dcc009e0278002e029000051a98002e009000aa
:102ddc00020007000080fa00000006000600fa005e
:102dec00200798002e029000d40290002e02900032
:102dfc002402900085007800040078007f0707000b
:102e0c0000027800040f78002e02900064029000fb
:102e1c00840078001e007800780707000002780014
:102e2c00040f78002e02900074029000e00f520004
:102e3c000c0034002e029000740290000482ea0010
:102e4c009e0f5200030031000082eb00040f78004b
:102e5c000f0037002e029000740290001e0f4200eb
:102e6c000b0037002e029000740290000402ea005e
:102e7c009e0f5200030036000002eb00040f780096
:102e8c00030037002e029000740290001e0f4200c7
:102e9c002e0290009e027800450298002e029000af
:102eac00b41a90002e029000041a9000850078004d
:102ebc0004007800510707000002780014079800fe
:102ecc002e029000441a9000840078001e0090009e
:102edc004a07070000027800140798002e029000a1
:102eec00541a9000e00f52000f0034002e02900094
:102efc00541a90008482ea001e029000848f5200c3
:102f0c00030031000082eb00140798001500370015
:102f1c002e029000541a90009e02900004824200ef
:102f2c00140798000f0037002e029000541a9000de
:102f3c000402ea00840278001e029000848f520082
:102f4c00030036000002eb00140798000500370060
:102f5c002e029000541a90009e02900004824200af
:102f6c00140798002e0290009e029000251a9800db
:102f7c002e029000940a90002e02900024029000e1
:102f8c0085007800040078001c0707000002780018
:102f9c00040f78002e029000240a90008400780020
:102fac001e0078001507070000027800040f780057
:102fbc002e029000340a9000e00f52000c003400f6
:102fcc002e029000340a90000482ea009e0f5200f8
:102fdc00030031000082eb00040f78000f00370073
:102fec002e029000340a90001e0f42000b00370096
:102ffc002e029000340a90000402ea009e0f520048
:10300c00030036000002eb00040f780003003700c9
:10301c002e029000340a90001e0f42002e029000e7
:10302c00740a9000840078001e007800f3060700f4
:10303c0000027800ae029000d40a98002e02900094
:10304c0004129000840078001e007800eb06070044
:10305c0000027800ae029000e40a98002e02900064
:10306c00d40a90002e02900014129000848f52000b
:10307c00040031002e029000941290002e02900059
:10308c00550a98002e029000f41a90002e0290001f
:10309c00041a90008500780004007800d706070019
:1030ac0000027800140798002e0290000422900071
:1030bc00840078001e009000d00607000002780003
:1030cc00140798002e02900014229000e00f52007a
:1030dc000f0034002e029000142290008482ea002b
:1030ec001e029000848f5200030031000082eb001e
:1030fc0014079800150037002e029000541a900007
:10310c009e02900004824200140798000f003700c2
:10311c002e029000142290000402ea00840278002f
:10312c001e029000848f5200030036000002eb0058
:10313c0014079800050037002e029000142290000e
:10314c009e02900004824200140798002e02900008
:10315c0054229000840078001e009000a7060700ff
:10316c0000027800ae029000b42298002e0290006b
:10317c0064229000840078001e0090009f060700d7
:10318c0000027800ae029000c42298002e0290003b
:10319c00b42290002e02900074229000848f520072
:1031ac00040031002e029000f42290002e029000b8
:1031bc00352298000060fe000080fa000000060036
:1031cc001200fa00a400200064c78800945c800000
:1031dc0014079800c45980002407980024548000d8
:1031ec00340798008455800044079800f4568000fa
:1031fc00540798005458800064079800e4488000f5
:10320c0074079800844e8000040f980014c0b3001b
:10321c00044f78000042eb00144798001000370070
:10322c000e82e80084007800c08f2000721807001e
:10323c0000427800044f78001e4290000442e800df
:10324c00144798001e427800e04f520003003200f1
:10325c00d4c380000402e800d4c388000060fe00e0
:10326c009e4278000582fb000402ea004f22de0039
:10327c008442780014c0b3001e439000f34f5300f7
:10328c00010036000042eb0004c26200e04f520025
:10329c00e3ff3a001e429000f34f5200020036004a
:1032ac0000022000ab1607000080fa0000000600a8
:1032bc000c00fa009400200064c78800043a8000d7
:1032cc0061026200e00f52000300320024c480004f
:1032dc000440a00024c48800053a800004082000a3
:1032ec0004826200e00f52000400320025c480000a
:1032fc00040220000482720024c48800053a800075
:10330c000404200004826200e00f5200040032002a
:10331c0025c48000040420000482720024c48800a8
:10332c00043a800062026200e00f52000300320097
:10333c0024c480000400a00024c48800053a800046
:10334c000400280004826200e00f520003003200e7
:10335c0024c480000410a00024c48800043a800017
:10336c0070026200e00f52000300320024c480009f
:10337c000420a00024c48800053a80000400240026
:10338c0004826200e00f52000300320024c480006b
:10339c000430a00024c488000060fe0035048000c6
:1033ac000404200004826200e00f5200d7003200b7
:1033bc0086c0a900b44280000402e800b442880030
:1033cc00a44280000402e8006f026200a44288005c
:1033dc00a4428000e00f520015003a005516800000
:1033ec000408200004826200e00f52000200320048
:1033fc00cae2a90001003700cae2a8000542800019
:10340c00d407200004aab900040278008402d10079
:10341c00f441800085007800040078009d060700c8
:10342c0000027800f44188000002eb00044288009e
:10343c0044782d0075012000048fbe00c5c58000a6
:10344c0084152000848f520002003e009415200049
:10345c00c4c58800c4c58000050020000401be005e
:10346c001e00be002ff407000002be00048fbe0039
:10347c001e027800d4c588002504800004082000b2
:10348c0004826200e00f5200020032000002eb00e6
:10349c00d4c5880035178000040022000482620025
:1034ac00e00f520006003200a4418000e00f5200f1
:1034bc0003003200e2130700d9130700d0130700f2
:1034cc00351780000400220004826200e00f5200d5
:1034dc0003003a0014002000a441880002003700c9
:1034ec000002eb00a44188004c020700048320007a
:1034fc0014427800e04f52000d003a00b4488000ae
:10350c00040078008b08070000027800240798005c
:10351c002e00900025110700000278003407980057
:10352c002e019000be009000c0a72000a8fd07004f
:10353c002484200014427800f44f5200050032001d
:10354c00258420009542780044cab30084cf5200f1
:10355c0018003a00420620008000eb004091200049
:10356c00cdfd0700420620008000eb0040912000ba
:10357c00c9fd0700420620008000eb0060ad200072
:10358c00c5fd0700420620008000eb00c0a720000c
:10359c00c1fd0700420620008000eb00a0b820000f
:1035ac00bdfd0700420620008000eb0000b32000a8
:1035bc00b9fd0700841207000c1607000002780002
:1035cc00e00f520003003200c4e2a900d042a9006f
:1035dc0002003700c4e2a800d042a8008483200077
:1035ec00144278000442e8000440780038e8b70040
:1035fc0084832000144278006f42620004407800fb
:10360c0038e8b7008483200014427800e04f520061
:10361c0001003a003f000700a100070025842000ac
:10362c009542780044c4b30084cf520005003a00a0
:10363c00250480000404200004826200e00f520084
:10364c0004003200defe0700770407000002eb00e6
:10365c006441880064418000e00f520029003a0068
:10366c00c540800084c58000848f52000300310067
:10367c00c44080000402e800c440880074c5800087
:10368c00050020004407980055079800c4408000ae
:10369c00050020005e03900004b3b9000603780017
:1036ac00ce03900005b8b9008003780007034300ef
:1036bc00ce039000040278000722b80005034300f3
:1036cc008602780044079800550798004407980034
:1036dc005507980084c58000050020000401be0039
:1036ec004e009000de0090008ef307000002be003a
:1036fc0044079800550798004e02900094c5880026
:10370c00020037000002eb00c44088000080fa0081
:10371c00000006000200fa008400200064c7880044
:10372c00e55c8000745c8000850078000400780003
:10373c003205070000027800040f7800f45c80006a
:10374c00840078001e0078002c0507000002780029
:10375c00040f7800045d80001e0f42001e027800ea
:10376c000402d10064438800d45c80000402d100c0
:10377c005443880040862000e8f20700155a800068
:10378c00a459800085007800040078001b05070010
:10379c0000027800040f7800245a8000840078001e
:1037ac001e0078001505070000027800040f780051
:1037bc00345a80001e0f42001e0278000402d10011
:1037cc00b4438800045a80000402d100a44388004a
:1037dc00e0862000d1f2070044438000040f7800fb
:1037ec001e027800e00f520002003d000002eb00c8
:1037fc00040f78001e02780004024200040f7800c7
:10380c0004d027009e027800848f520002003600fc
:10381c0004d02700040f78000002eb00b45c880091
:10382c000002eb00a45c88001e027800c45c8800d7
:10383c0094438000040f78001e027800e00f5200c1
:10384c0002003d000002eb00040f78001e0278001d
:10385c0004024200040f780004d027009e02780076
:10386c00848f52000200360004d02700040f780029
:10387c000002eb00e45988000002eb00d4598800e8
:10388c001e027800f459880000b3200053fd070095
:10389c00a0b8200051fd07000080fa0000000600cf
:1038ac000c00fa00345780008400780060ad2000d2
:1038bc005f10070000027800cfa2de00048fbe006c
:1038cc009e0290000471220004aab900040378003f
:1038dc001e0278006022b900040278000403430041
:1038ec009e02780004712200042ab80005034300ec
:1038fc0086027800048fbe00048fbe0094588000ae
:10390c008400780060ad20007f1007000002780072
:10391c00cfa2de000401be001e00be0001f30700b2
:10392c000002be00048fbe001e027800f442880024
:10393c00c4428000e00f5200b6003a00d44180002f
:10394c0005002000048fbe00d4c5800005002000b7
:10395c001e03900004b3b900060378009e037800a0
:10396c0005b8b90080037800070343009e03780074
:10397c00040278000722b800050343008602780091
:10398c00048fbe00048fbe001e02be004a2bdd0059
:10399c004622de0004027300c62ade00048fbe003d
:1039ac001e0290006d22b900040378001e027800fc
:1039bc006022b90004027800040343009e027800e0
:1039cc00d4002000042ab8000503430086027800c6
:1039dc00048fbe00048fbe001e02be00452bdd000e
:1039ec004b22de0004027300cb2ade00048fbe00e3
:1039fc00e4ff2f00050020001e03be00840f5300bf
:103a0c00858f5b00030036000082eb00e4418800e8
:103a1c00020037001e027800e441880054b7800091
:103a2c0005042000850f520014003200050420000c
:103a3c00850f520007003e0005022000850f520042
:103a4c001c00320005032000850f52000f003200cd
:103a5c002e00370005032100850f52001d00320097
:103a6c0005042100850f52001600320005022100ca
:103a7c00850f52002100320024003700e441800001
:103a8c0005002000048fbe002400370065b78000bd
:103a9c00e44180000001eb00850078000400780010
:103aac00691b07000002780005002000048fbe008f
:103abc001a003700e441800005002000048fbe008e
:103acc0016003700e441800005002000048fbe0082
:103adc001200370075b78000e44180000001eb0054
:103aec008500780004007800571b0700000278005e
:103afc0005002000048fbe0008003700e441800060
:103b0c0005002000048fbe0004003700e441800053
:103b1c0005002000048fbe00000000001e02be0045
:103b2c00492bdd004722de0004027300c72ade00a9
:103b3c00048fbe009e027800f40320000482620011
:103b4c00440798004e029000240798002e02900023
:103b5c00e00f520002003c000002eb00240798002a
:103b6c00ae029000e4032000848f52000200340067
:103b7c00f403200024079800ae029000450798003b
:103b8c00ce029000f40320000482620044079800e7
:103b9c00258420009542780044c4b30084cf5200a1
:103bac000f003200258420009542780044c3b300f6
:103bbc0084cf52000a003200258420009542780000
:103bcc0054c3b30084cf520005003200258420007a
:103bdc009542780084cab30084cf520044003a0066
:103bec004e02900084024200e43428000482420019
:103bfc00140378005607980042062000de0090005f
:103c0c0060ad200024fc07005e02900014b8880010
:103c1c0037003700b542800044062000848f5200e4
:103c2c0003003600d54280003507980002003700ab
:103c3c00e64280003607980024b880000402e800b1
:103c4c0024b8880025b8800034062000848f5200e8
:103c5c00270036000002eb0024b888003e029000da
:103c6c00e5fc2f0084824200f4428000848f5200d5
:103c7c000900360014b880000402e80014b888006b
:103c8c0015b8800044062000848f520002003600d4
:103c9c004406200014b888003e0290002503200042
:103cac0084824200f4428000848f5200060031006e
:103cbc0014b88000e00f52000300320014b88000ea
:103ccc000402e90014b8880014b88000fd0f5200fb
:103cdc0002003e00e401200014b8880014b88000f3
:103cec00420620008400780060ad2000eafb07004b
:103cfc000080fa00000006000400fa0074002000a6
:103d0c0064c788002516800004202000048262000d
:103d1c00e00f520037003200d6c2a900800c200000
:103d2c00010020001b1b070021c0b3000000eb00aa
:103d3c006b1907000002be00048fbe0004002000b7
:103d4c00151121001e03be00840f5300858f5b00ec
:103d5c0006003a000002eb0004438800b4c3800064
:103d6c000402e800b4c38800020037001e02780089
:103d7c0004438800d6c2a800800c2000010020005b
:103d8c00041b0700d6a2a900800c20000100200013
:103d9c00001b070021c0b3000000eb005019070006
:103dac000002be00048fbe0004002000151121008b
:103dbc001e03be00840f5300858f5b0006003a0083
:103dcc000002eb0014438800b4c380000402e80036
:103ddc00b4c38800020037001e0278001443880028
:103dec00d6a2a800800c200001002000e91a0700d0
:103dfc00070037000002eb00144388000002eb00c0
:103e0c0004438800c4c380000402e800c4c38800d3
:103e1c00c522a9000080fa00000006000200fa008a
:103e2c006400200064c7880060ce2000e71a0700f9
:103e3c0000027800040f7800244280009e00780075
:103e4c000400780013040700000278002442880064
:103e5c0060de2000dd1a070000027800040f7800f5
:103e6c00344280009e0078000400780009040700aa
:103e7c0000027800344288003517800004002400ca
:103e8c0004826200e00f520002003a0034428000cb
:103e9c00a4408800600e2100cc1a070000027800b4
:103eac00040f7800c45580009e0078000400780050
:103ebc00f803070000027800c4558800601e21003a
:103ecc00c21a070000027800040f780064548000c6
:103edc009e00780004007800ee03070000027800d2
:103eec0064548800603e2100b81a07000002780074
:103efc00040f7800345780009e007800040078008e
:103f0c00e40307000002780034578800602e21007b
:103f1c00ae1a070000027800040f78009458800055
:103f2c009e00780004007800da0307000002780095
:103f3c0094588800604e2100a41a070000027800f3
:103f4c00040f7800244980009e007800040078005b
:103f5c00d00307000002780024498800605e21002d
:103f6c009a1a070000027800040f7800c44e8000f3
:103f7c009e00780004007800c60307000002780059
:103f8c00c44e88000080fa00000006000600fa000b
:103f9c00f4cf270004158800e4fd200014158800d8
:103fac0064342e002415880034fe2e00341588004d
:103fbc0074002c004415880004fc23005415880060
:103fcc00a1e2a8000002eb00040f7800800037008b
:103fdc000000000015158000040820000482620017
:103fec00e00f5200fbff32000002eb0014079800b8
:103ffc0034003700051480001e02780004034200d0
:10400c0064ee200004024300050a780015148000b9
:10401c001e0278000403420064fe200004024300e8
:10402c00050a7800251480001e0278000403420063
:10403c00640e210004024300050a78003514800048
:10404c001e02780004034200641e21000402430097
:10405c00050a7800451480001e0278000403420013
:10406c00642e210004024300050a780055148000d8
:10407c001e02780004034200643e21000402430047
:10408c00050a7800651480001e02780004034200c3
:10409c00644e210004024300050a78007514800068
:1040ac001e02780004034200645e210004024300f7
:1040bc00050a78001e0fe8001e0290000402e800ba
:1040cc00140798001e029000e70f5200c9ff36003b
:1040dc000000000015158000040820000482620016
:1040ec00e00f5200fbff3a000002eb0014079800af
:1040fc0034003700851480001e027800040342004f
:10410c0064ee200004024300050a78009514800038
:10411c001e0278000403420064fe200004024300e7
:10412c00050a7800a51480001e02780004034200e2
:10413c00640e210004024300050a7800b5148000c7
:10414c001e02780004034200641e21000402430096
:10415c00050a7800c51480001e0278000403420092
:10416c00642e210004024300050a7800d514800057
:10417c001e02780004034200643e21000402430046
:10418c00050a7800e51480001e0278000403420042
:10419c00644e210004024300050a7800f5148000e7
:1041ac001e02780004034200645e210004024300f6
:1041bc00050a78001e0fe8001e0290000402e800b9
:1041cc00140798001e029000e70f5200c9ff36003a
:1041dc00f40720009e027800848f52007cff36008a
:1041ec00a1e2a90060ee2000f81907000002780097
:1041fc00240798002e029000045a880060fe2000cc
:10420c00f219070000027800240798002e02900093
:10421c00d45c8800600e2100ec19070000027800c5
:10422c00240798002e029000c4558800601e2100bf
:10423c00e619070000027800240798002e0290006f
:10424c0064548800603e2100e019070000027800e9
:10425c00240798002e02900034578800602e21000d
:10426c00da19070000027800240798002e0290004b
:10427c0094588800604e2100d41907000002780081
:10428c00240798002e02900024498800605e2100cb
:10429c00ce19070000027800240798002e02900027
:1042ac00c44e88000080fa00000006000600fa00e8
:1042bc00f4cf270004158800e4fd200014158800b5
:1042cc0064342e002415880034fe2e00341588002a
:1042dc0074002c0044158800040320005415880039
:1042ec00a1e2a8000002eb00040f78008600370062
:1042fc0000000000151580000408200004826200f4
:10430c00e00f5200fbff32000002eb001407980094
:10431c0037003700051480001e02780004034200a9
:10432c0064ce200004024300050a780015148000b6
:10433c001e0278000403420064de200004024300e5
:10434c00050a78001e0fe800251480001e02780074
:10435c000403420064ce200004024300050a7800e6
:10436c00351480001e0278000403420064de200035
:10437c0004024300050a78001e0fe8004514800073
:10438c001e0278000403420064ce200004024300a5
:10439c00050a7800551480001e02780004034200c0
:1043ac0064de200004024300050a78001e0fe800ba
:1043bc00651480001e0278000403420064ce2000c5
:1043cc0004024300050a7800751480001e02780070
:1043dc000403420064de200004024300050a780056
:1043ec001e0fe8001e0290000402e800140798005b
:1043fc001e029000e30f5200c6ff360000000000c2
:10440c00151580000408200004826200e00f5200a1
:10441c00fbff3a000002eb0014079800370037004e
:10442c00851480001e0278000403420064ce200034
:10443c0004024300050a7800951480001e027800df
:10444c000403420064de200004024300050a7800e5
:10445c001e0fe800a51480001e0278000403420021
:10446c0064ce200004024300050a7800b5148000d5
:10447c001e0278000403420064de200004024300a4
:10448c00050a78001e0fe800c51480001e02780093
:10449c000403420064ce200004024300050a7800a5
:1044ac00d51480001e0278000403420064de200054
:1044bc0004024300050a78001e0fe800e514800092
:1044cc001e0278000403420064ce20000402430064
:1044dc00050a7800f51480001e02780004034200df
:1044ec0064de200004024300050a78001e0fe80079
:1044fc001e0290000402e800140798001e029000af
:10450c00e30f5200c6ff3600f40720009e0278002d
:10451c00848f520076ff3600a1e2a90060ce200005
:10452c002a19070000027800240798002e02900038
:10453c002442880060de2000241907000002780065
:10454c00240798002e029000344288000080fa0064
:10455c00000006000400fa0094028000040f7800aa
:10456c00ff3ffc00140280000450a0000460a00077
:10457c000470a000140288001e02780094028800c7
:10458c000000880000000000000000000000000097
:10459c00000000008c60a9008e00a900940280002d
:1045ac0014079800ff3ffc00140280000450a10087
:1045bc000460a1000470a100140288001e02900087
:1045cc00940288000000880003000700cbe2a800da
:1045dc000080fa00000006000200fa00e48c2100c2
:1045ec00040f78001e0278001402780084c1880041
:1045fc001e8fe8001e0278001402780074c1880037
:10460c001e8fe8001e0278001402780064c1880036
:10461c001e8fe8001e0278001402780054c1880036
:10462c00c48d2100040f78001e027800140278005b
:10463c00a4c188001e8fe8001e02780014027800c6
:10464c0094c18800053b80000400280004826200ad
:10465c00e00f5200fbff3a0034c1800045c18000de
:10466c00020220000400be006bef0700053b800037
:10467c000400280004826200e00f5200fbff3a00a5
:10468c0034c1800045c18000a28221000400be001c
:10469c0080ef07000080fa00000006000000fa001e
:1046ac005c0007004f000700560007004206200080
:1046bc008000eb004091200077f9070042062000b3
:1046cc008000eb004091200073f9070042062000a7
:1046dc008000eb0060ad20006ff90700420620005f
:1046ec008000eb00c0a720006bf9070042062000f9
:1046fc008000eb00a0b8200067f9070042062000fc
:10470c008000eb0000b3200063f907004086200016
:10471c001eef0700e08620001cef070005e1a90052
:10472c008e00a9008c60a9008600a9008460a900f5
:10473c00c4c2a9000080fa00000006000000fa00c4
:10474c003400070005e1a9008e00a9008c60a900c7
:10475c008600a9008460a900c4c2a9000080fa00e8
:10476c00000006000000fa004086200007ef07005a
:10477c00e086200005ef0700420620008000eb00d9
:10478c00c0a7200044f90700420620008000eb007f
:10479c0060ad200040f90700420620008000eb00cd
:1047ac0000b320003cf90700420620008000eb001b
:1047bc00a0b8200038f907000e000700050007001c
:1047cc000002eb003408880084c0a9000080fa00c5
:1047dc00000006000000fa00d702a8000080fa00d2
:1047ec00000006000000fa00d702a9000080fa00c1
:1047fc00000006000000fa00d722a8000080fa0092
:10480c00000006000000fa00d722a9000080fa0080
:10481c00000006000000fa00d762a900d602a8002a
:10482c000080fa00000006000400fa000002eb0011
:10483c00040f78000002eb001407980054002000cd
:10484c0064c78800258420009542780044c3b300d7
:10485c0084cf52000f00320025842000954278004e
:10486c0044c4b30084cf52000a00320025842000d7
:10487c009542780084cab30084cf52000500320000
:10488c00258420009542780054c3b30084cf520095
:10489c0005003a009e029000f4f72f00048262009b
:1048ac0014079800040037009e02900004082000b2
:1048bc000482720014079800d4c48000e00f5200e8
:1048cc00040032001e0290000400a000140798009f
:1048dc00040037009e029000e4ff2f000482620067
:1048ec0014079800a4c48000e00f520002003200ac
:1048fc001e20a00002003700b4ff2f001e0f620024
:10490c0045c4800004f02f0004826200e00f5200c6
:10491c00040032001e0290000440a000140798000e
:10492c00040037009e029000f4fe2f000482620007
:10493c001407980045c48000f40f20000482620024
:10494c00e00f5200040032001e0290000410a00080
:10495c0014079800040037009e029000d4ff2f002b
:10496c00048262001407980075c4800004f02f00c4
:10497c0004826200e00f5200020032001e00a00010
:10498c0002003700e4ff2f001e0f620075c4800088
:10499c00f40f200004826200e00f5200020032008b
:1049ac001e10a00002003700d4ff2f001e0f620063
:1049bc00258420009542780044c4b30084cf520073
:1049cc0004003a001e0290000420a0001407980076
:1049dc00040037009e029000b4ff2f000482620096
:1049ec001407980004912000144278000482fb0004
:1049fc009e0f5200100032001e0278000442780014
:104a0c000440780010e9b7000491200014427800ab
:104a1c000441780041c1b30080902000bc1607000f
:104a2c0000027800e00f52000300320094c38000b3
:104a3c000402e80094c3880014912000144278000a
:104a4c008482fb001e029000848f52001000320002
:104a5c001e029000044278000440780011e9b7006f
:104a6c0014912000144278000441780051c1b30025
:104a7c0080902000a616070000027800e00f52007c
:104a8c000300320094c380000402e80094c3880041
:104a9c000080fa00000006000000fa0015168000e5
:104aac000400220004826200e00f52000500320074
:104abc000042eb0004407800e8f6b700cbc2a90036
:104acc000400370014c0b30004407800e8f6b700c7
:104adc00cbc2a800d762a800d602a90005e1a900a4
:104aec000002eb00040888008460a9008c60a80018
:104afc00741720001408880005e1a8000002eb00e0
:104b0c003408880084c0a9000080fa000000060068
:104b1c000a00fa0030079800410798003e02900006
:104b2c000500200014079800250798001e0290002d
:104b3c00ae029000c022dd00040020001407980093
:104b4c00250798004e029000050020000401be00cd
:104b5c001e009000ae00900072ee07000002be0036
:104b6c0014079800250798001e029000ae029000d2
:104b7c004d2bdd004322de0004027300c32ade004d
:104b8c0014079800250798001e039000ae039000b0
:104b9c0004002000f5ff2f000600780007037800c2
:104bac0084037800050278000700600004026300ab
:104bbc0005002000c022dd00040020000403be001c
:104bcc006102b8000403730085837300e00f530087
:104bdc00e08f5b00030032000082eb00040f7800d2
:104bec00020037001e029000040f78001e027800ad
:104bfc00040078000080fa00000006000800fa00ab
:104c0c0020079800310798002e0290000500200024
:104c1c00048fbe003e029000050020001e03900091
:104c2c0004b3b900060378009e03780005b8b900f8
:104c3c0080037800070343009e0378000402780089
:104c4c000722b8000503430086027800048fbe00db
:104c5c00048fbe001e02be00432bdd004d22de0081
:104c6c0004027300cd2ade00048fbe00f4ff2f0077
:104c7c00050020001e03be00840f5300858f5b00cf
:104c8c0006003600f4ff2f0005002000048fbe0044
:104c9c00f4c380000402e800f4c388001e0278000c
:104cac00240798002e029000040078000080fa007f
:104cbc00000006000a00fa0030079800410798002f
:104ccc003e029000e00f520002003a004e029000ab
:104cdc00340798003e02900005002000140798004d
:104cec0025079800ae029000f40f200004aab9002a
:104cfc00040378001e0290006022b90004027800c0
:104d0c00040343009e029000f40f2000042ab80014
:104d1c0005034300860278001407980025079800c5
:104d2c0014079800250798004e02900005002000fb
:104d3c001e039000ae0390000602420087824a00d8
:104d4c0014079800250798001e029000ae029000f0
:104d5c00482bdd004822de0004027300c82ade0066
:104d6c0014079800250798001e029000040f780085
:104d7c004e0290009e0f5200020036001e0fe800fb
:104d8c00040037004e0290009e0f520001003100cb
:104d9c001e0fe9001e027800040078000080fa0063
:104dac00000006000a00fa0030079800410798003e
:104dbc003e029000e00f520002003a004e029000ba
:104dcc00340798003e02900005002000140798005c
:104ddc0025079800ae029000f403200004aab90045
:104dec00040378001e0290006022b90004027800cf
:104dfc00040343009e029000f4032000042ab80030
:104e0c0005034300860278001407980025079800d4
:104e1c0014079800250798004e029000050020000a
:104e2c001e039000ae0390000602420087824a00e7
:104e3c0014079800250798001e029000ae029000ff
:104e4c004a2bdd004622de0004027300c62ade0077
:104e5c0014079800250798001e029000040f780094
:104e6c004e0290009e0f5200020036001e0fe8000a
:104e7c00040037004e0290009e0f520001003100da
:104e8c001e0fe9001e027800040078000080fa0072
:104e9c00000006000a00fa0030079800410798004d
:104eac003e029000e00f520002003a004e029000c9
:104ebc00340798003e02900005002000140798006b
:104ecc00250798002e0290006f22b9000403780089
:104edc001e0290006022b900040278000403430013
:104eec009e029000f4002000042ab8000503430041
:104efc00860278001407980025079800140798007c
:104f0c00250798004e029000050020001e0390001b
:104f1c00ae0390000602420087824a0014079800f4
:104f2c00250798001e029000ae0290004c2bdd006d
:104f3c004422de0004027300c42ade001407980029
:104f4c00250798001e029000040f78004e02900076
:104f5c009e0f5200020036001e0fe80004003700be
:104f6c004e0290009e0f5200010031001e0fe9000e
:104f7c001e027800040078000080fa000000060091
:104f8c0000a0fe00849fbe000000fa00d602a8001c
:104f9c000000000000000000000000000000000005
:104fac00c522a8008600a9008e00a900440020009c
:104fbc0064c7880005e1a9000002eb000408880022
:104fcc0084002000140888008c60a9008460a9006b
:104fdc0005e1a8000002eb0074418800000000000d
:104fec0004088000e10f5200fdff3600151680000a
:104ffc000400210004826200e00f520003003a001a
:10500c0014002000744188000100370000000000eb
:10501c0004088000e20f5200fdff360015168000d8
:10502c000400210004826200e00f520003003a00e9
:10503c0014002000744188000100370000000000bb
:10504c0004088000e20f5200fdff360015168000a8
:10505c000400210004826200e00f520002003a00ba
:10506c0014002000744188000002eb0064408800aa
:10507c00a416800070026200e00f5200050032009e
:10508c00a51680000408200004826200e00f520084
:10509c00020032001400200064408800e2a2a90043
:1050ac0054088000c4c588000002eb005408880036
:1050bc00250480000408200004826200e00f5200e6
:1050cc000200320054422f00c4c5880084e0a900bd
:1050dc00000000002404800068026200e00f52000f
:1050ec00fcff3200151680000400220004826200ce
:1050fc00e00f5200050032000042eb000440780043
:10510c00e9f6b700cbc2a9000400370014c0b30005
:10511c0004407800e9f6b700cbc2a800c4c2a900cd
:10512c00d602a90005e1a9000002eb0004088800e2
:10513c008460a9008c60a800e41620001408880084
:10514c0005e1a80000000000a416800070026200b7
:10515c00e00f520004003a0004088000f30f5200e4
:10516c00f9ff36000100370000000000a516800092
:10517c000408200004826200e00f52000300320099
:10518c0004088000f30f5200f8ff3600040880007a
:10519c00f30f52000300360014c480000402e80030
:1051ac0014c48800e2a2a800a416800085e0a9001f
:1051bc00646e210014427800e04f5200030032006c
:1051cc00e4c580000402e800e4c58800b441800016
:1051dc00e00f5200030032000002eb006440880034
:1051ec000300370014c0b30004407800e6f6b700a3
:1051fc0014c0b30004407800e7f6b7000080fa0052
:10520c004f02be000080fe00004006003600f80091
:10521c00809fbe00829fbe00849fbe00869fbe0002
:10522c000200fa003400200064c788008460a900e2
:10523c008c60a90005e1a9000042eb00044f780046
:10524c00a416800064026200e00f52001e003200bf
:10525c004006200001002000ce150700a416800097
:10526c0064026200e00f520017003200400620007a
:10527c0001002000c7150700a4168000640262001c
:10528c00e00f520010003200400620000100200008
:10529c00c0150700a416800064026200e00f5200e3
:1052ac00090032004006200001002000b91507005b
:1052bc00a416800064026200e00f5200020032006b
:1052cc00002020006b0e070012000700000278007f
:1052dc00e00f52000300320014002000b44188009b
:1052ec00030037000002eb00b4418800c4c2a800e0
:1052fc008600a9008e00a8000080fa004f03be00b3
:10530c004f02be004f01be004f00be003600f90038
:10531c00004006000000fa0024c78000e00f520095
:10532c000300320034c78000e00f520002003a0044
:10533c000002eb001800370024c78000e10f520078
:10534c0005003a0034c78000e10f520002003a0019
:10535c000002eb001000370004b880000402e800e3
:10536c0004b8880005b8800034c78000848f5200d0
:10537c00020039000002eb0004b8880005b8800078
:10538c0024c78000848f5200020031000002eb0021
:10539c000100370014002000040078000080fa009f
:1053ac0000000600801f7800849fbe00861f7800d6
:1053bc000000fa00a042a9008560a90055168000e3
:1053cc000404200004826200e00f5200020032004c
:1053dc00cac2a90001003700cac2a80014002000ec
:1053ec0064c78800746e210014427800e04f5200ac
:1053fc00040032000042eb0004407800e7f6b700ee
:10540c006200370044be2000144278000482fb0086
:10541c00051480000403420064be20000402430013
:10542c00050a780044be2000144278000482fb0078
:10543c00151480000403420064ce200004024300d3
:10544c00050a780044be2000144278000482fb0058
:10545c00251480000403420064de20000402430093
:10546c00050a780044be2000144278000482fb0038
:10547c00351480000403420064ee20000402430053
:10548c00050a780044be2000144278000482fb0018
:10549c00451480000403420064fe20000402430013
:1054ac00050a780044be2000144278000482fb00f8
:1054bc005514800004034200640e210004024300d2
:1054cc00050a780044be2000144278000482fb00d8
:1054dc006514800004034200641e21000402430092
:1054ec00050a780044be2000144278000482fb00b8
:1054fc007514800004034200643e21000402430042
:10550c00050a780044be2000144278000482fb0097
:10551c008514800004034200642e21000402430021
:10552c00050a780044be2000144278000482fb0077
:10553c009514800004034200644e210004024300d1
:10554c00050a780044be2000144278000482fb0057
:10555c00a514800004034200645e21000402430091
:10556c00050a780044be2000144278000442e8008a
:10557c0004407800e4ebb70044be200014427800ed
:10558c000474a10004407800e4ebb700a042a8002a
:10559c000080fa004f0378004f02be004f007800e5
:1055ac00004006003600f800809fbe00829fbe00bf
:1055bc00849fbe00869fbe000000fa00a5168000e6
:1055cc000408200004826200e00f520012003a002e
:1055dc004006200001002000ee140700a5168000f4
:1055ec000408200004826200e00f52000a003a0016
:1055fc004006200001002000e6140700a5168000dc
:10560c000408200004826200e00f520002003a00fd
:10561c0000402000b30d070085e0a9000080fa00cf
:10562c004f03be004f02be004f01be004f00be0034
:10563c003600f90000400600841f78000000fa00d4
:10564c002400200064c788008940a90004c680009b
:10565c000402e80004c688000080fa004f027800bb
:10566c0000400600841f78000000fa00d4002000df
:10567c0064c78800143a800074c7880000000000da
:10568c00000000000000fe000080fa004f027800cd
:10569c0000400600841f78000000fa00e40020009f
:1056ac0064c7880000000000000000000000fe003d
:1056bc000080fa004f02780000400600841f78003a
:1056cc000000fa00f400200064c78800000000000d
:1056dc00000000000000fe000080fa004f0278007d
:1056ec0000400600841f78000000fa00040120002e
:1056fc0064c7880000000000000000000000fe00ed
:10570c000080fa004f02780000400600841f7800e9
:10571c000000fa00c4ab2f0064c788000000000032
:10572c00000000000000fe000080fa004f0278002c
:10573c00004006000c00fa00500798005e02900032
:10574c0005002000048fbe005e02900005002000c2
:10575c001e03900004b3b900060378009e03780082
:10576c0005b8b90080037800070343009e03780056
:10577c00040278000722b800050343008602780073
:10578c00048fbe00048fbe001e02be00422bdd0043
:10579c004e22de0004027300ceaade00048fbe008f
:1057ac0074c28000cfa2de001e03900004b3b900c7
:1057bc00060378009e03780005b8b90080037800d2
:1057cc00070343009e037800040278000722b80008
:1057dc000503430086027800048fbe00048fbe00d0
:1057ec001e02be00c62bdd004a22de0004827300be
:1057fc00caaade00048fbe001e02be002407980059
:10580c00350798005e02900005002000048fbe0052
:10581c0084c28000cfa2de001e03900004b3b90046
:10582c00060378009e03780005b8b9008003780061
:10583c00070343009e037800040278000722b80097
:10584c000503430086027800048fbe00048fbe005f
:10585c001e02be00462bdd004a22de00040273004d
:10586c00caaade00048fbe002e029000be02900079
:10587c003e034200ae834a000602be002407980095
:10588c003507980094c28000cfa2de00048fbe00c2
:10589c001e03be00423add00ce32de0085027200ed
:1058ac004232dd00048fbe002e029000be0290003a
:1058bc003e034200ae834a000602be002407980055
:1058cc0035079800ae039000470798004e029000f1
:1058dc00040078000080fa00000006000000fa00c6
:1058ec007410800062026200e00f5200010032006e
:1058fc000e22a900a48d210014427800e24f520020
:10590c000100320007000700a48d2100144278002a
:10591c00e24f520001003a00010107000080fa003a
:10592c00000006000400fa00881f78003e003700d3
:10593c00808720008d13070000427800044f780008
:10594c001e427800ef4f420037003a00808720005b
:10595c008613070000427800044f78001e4278003e
:10596c00ee4f420030003a00808720007f13070082
:10597c0000427800044f78001e427800ed4f420040
:10598c0029003a0080872000781307000042780035
:10599c0004407800d6f8b700808720007313070006
:1059ac000042780004407800d8f8b70080872000c7
:1059bc006e1307000042780004407800d9f8b70055
:1059cc0080872000691307000042780004407800ab
:1059dc00d7f8b700808720006413070000427800d6
:1059ec000482fb00140798001e0290004824dd007e
:1059fc00808720005d130700004278000482fb00c2
:105a0c0004024400140798001e009000870707004a
:105a1c0000427800e04f52000300320024c0b30073
:105a2c0004407800daf8b700a48d21001442780005
:105a3c00e04f520005003a008087200069130700f0
:105a4c0000427800e84f5200b9ff3e004f04780046
:105a5c000080fa00000006000000fa00b48d21005e
:105a6c0014427800e04f520067003200e1cfb300df
:105a7c00a08b20001813070011cfb300a08b2000bf
:105a8c00151307007440800085408000482bdd0012
:105a9c004822de0004027300c82ade0004427800ab
:105aac0084407800a08b20000b130700744080000a
