:020000040000fa
:080000000001040000000000f3
:020000040000fa
:100008000c260000b8250000d0250000e4250000db
:10001800f82500000c2600000c2600000c26000025
:100028000c2600000c2600000c26000030240000de
:100038000c2600000c2600000c2600000c260000f0
:100048000c2600005e3400008e340000a22400005c
:100058000c2600000c2600000c2600000c260000d0
:10006800aa2300000c2600000c2600000c26000025
:100078000c2600000c2600000c2600000c260000b0
:100088000c2600000c2600000c2600000c260000a0
:100098000c2600000c2600000c2600000c26000090
:1000a8000c2600000c2600000c2600000c26000080
:1000b8000c2600000c2600000c2600000c26000070
:1000c8000c2600000c260000a22500000c260000cb
:1000d8000c2600000c2600000c2600000c26000050
:1000e8000c2600000c2600000c2600000c26000040
:0800f8000c2600000c2600009c
:020000040000fa
:100108000c260000b8250000d0250000e4250000da
:10011800f82500000c2600000c2600000c26000024
:100128000c2600000c2600000c26000030240000dd
:100138000c2600000c2600000c2600000c260000ef
:100148000c2600005e3400008e340000a22400005b
:100158000c2600000c2600000c2600000c260000cf
:10016800aa2300000c2600000c2600000c26000024
:100178000c2600000c2600000c2600000c260000af
:100188000c2600000c2600000c2600000c2600009f
:100198000c2600000c2600000c2600000c2600008f
:1001a8000c2600000c2600000c2600000c2600007f
:1001b8000c2600000c2600000c2600000c2600006f
:1001c8000c2600000c260000a22500000c260000ca
:1001d8000c2600000c2600000c2600000c2600004f
:1001e8000c2600000c2600000c2600000c2600003f
:0801f8000c2600000c2600009b
:020000040000fa
:100200000f0022000e7f22000e0188000000000077
:1002100000012000200288000c00070000ab240031
:10022000010020001f000700000020000000e00087
:10023000020032000000020000000000c64602007a
:10024000000000000040da000000fe004440a90069
:10025000000820000000e000030032000000200041
:10026000a00188004440a80000000600f03fb10053
:100270000180b10006003500ee0309000000000017
:10028000403fb1000180b100fbff3d001000b00015
:10029000203fb0000200350000800900000000008f
:1002a0000000060091018800800078000000eb004b
:1002b00015003700e280400032a0b4009101ba007e
:1002c000e280400032a0b4009102ba00e280400017
:1002d00032a0b4000002eb00472bde00f507b200ad
:1002e000602ce10004003a000059eb008301e900b2
:1002f000fdff3e00040037006128e10001003200ec
:100300000082eb00040007001101ba000200e000c7
:10031000e8ff3a00000006003159ba008301e90005
:100320000c0032002159ba008301e90008003200b4
:100330000400e00003003a00e280400032a0b40074
:10034000f5ff370011d9ba008301e900faff3a003e
:100350008100e800e180400032a0b4000000060007
:100360003200f800910188008002780062004000ad
:10037000e08048003549ba003204e0000410a700cc
:10038000100032008301e9000e0032002549ba0056
:100390003204e0000410a7000a0032008301e900e3
:1003a000080032000408a300eeff320015c9ba00ad
:1003b0003204e0000410a700020032008301e900cb
:1003c000e8ff3a003200f900000006003200f800b1
:1003d000910188000008bb00410424006210e10084
:1003e00004003200000220000010e1000a003a0080
:1003f00051042400013b88000500fc005105200049
:10040000313b8800a10a2000313b880061e7a80049
:1004100000000000000000003200f90000000600ab
:100420003200f80060042400003b8800f2ff37002f
:100430003200f8009101880041002400013b88004f
:100440000208bb00ecff37003200f8009101880081
:1004500051002400013b8800030120003218bb003a
:100460008301e900fdff3a00e3ff37006022b80096
:10047000060220000000d0008180d2000482d20059
:100480008582d2000000a0000202520083825a003e
:10049000030031000202420083824a000000a100f2
:1004a0000603e900f3ff3a0000000600881f780009
:1004b0008a1f78004400f800080f200028028800f6
:1004c0000004900010059000a00090003001900002
:1004d000c00190000300ca000280ca000030cb00b7
:1004e0001a00cd004604c3000100ca004604c00043
:1004f0001e04c0000605c0000100cd0021009800c8
:10050000050d7800eaba9700052578004400f90047
:100510004f0578004f04780000000600801f780027
:100520004000b0000008eb004f007800801f78000a
:10053000100090000018eb000018eb000008eb0022
:100540004f007800000006004400f800020f200071
:1005500022028800910078003000ca003080ca0072
:100560000000cb002080ca000000cb003100cd008d
:100570004000ca000000cb000000cb000010cb0000
:100580003100cd001180cc004400f90000000600cd
:100590001011880001118800000006004011880039
:0805a000311188000000060083
:020000040000fa
:1005a80064000000630000006300000062000000b7
:1005b8006200000061000000600000005f000000b1
:1005c8005e0000005e0000005d0000005c000000ae
:1005d8005b0000005a0000005900000058000000ad
:1005e80057000000560000005400000053000000af
:1005f80052000000510000004f0000004e000000b3
:100608004d0000004b0000004a00000048000000b8
:1006180047000000450000004300000042000000c1
:10062800400000003e0000003d0000003b000000cc
:1006380039000000370000003500000033000000da
:10064800310000002f0000002d0000002b000000ea
:1006580029000000270000002500000023000000fa
:10066800200000001e0000001c000000190000000f
:100678001700000015000000120000001000000024
:100688000d0000000a00000008000000050000003e
:10069800030000000000000000000000000000004f
:020000040000fa
:1006a8000400fa00a4822000144278000482fb00af
:1006b80045032000850f5200140132004503200035
:1006c800850f52000d003c00e60f52002e0032004c
:1006d800e60f520003003c00e40f52001b003200fa
:1006e8001c023700f40f5200760032004502200049
:1006f800850f52008c00320016023700050a2000d0
:10070800850f520010023200050a2000850f5200a2
:1007180007003c0055032000850f520036013200c7
:1007280045042000850f52006a0132000902370093
:10073800450a2000850f5200d0013200850a2000aa
:10074800850f5200de01320002023700070207005f
:100758004506070055070700e91c07000002780056
:10076800e00f52000400320004cab30004407800cd
:100778002ae8b700fb01370044c1b3000440780001
:100788002ae8b700f7013700151780000402200097
:100798000482620004f0a7000402ea000402e900ef
:1007a8004f22de00044278000482fb0061026200ee
:1007b8004522dd0016178000f5fd2f008502630035
:1007c8000482720014178800e801070015178000da
:1007d800040220000482620004f0a7000402ea0078
:1007e8000402e9004f22de00044278000482fb0084
:1007f800610262004522dd0016178000f5fd2f001a
:1008080085026300048272001417880077060700c7
:1008180015178000040220000482620004f0a7007b
:100828000402ea000402e9004f22de0004427800d4
:100838000482fb00610262004522dd001617800079
:10084800f5fd2f00850263000482720014178800ea
:1008580016070700151780000402200004826200b2
:1008680004f0a7000402ea000402e9004f22de00b7
:10087800044278000482fb00610262004522dd0028
:1008880016178000f5fd2f008502630004827200b0
:10089800141788009a1c070000027800e00f520025
:1008a8000400320004cab300044078002ae8b70004
:1008b800ac01370044c4b300044078002ae8b7000c
:1008c800a8013700680d070012003700ce0807009e
:1008d800431107008f1c070000027800e00f520048
:1008e8000400320044cab300044078002ae8b70084
:1008f80008003700151680000400240004826200f6
:10090800e00f520003003a0044c2b30004407800ec
:100918002ae8b700a482200014427800f44f52005d
:10092800eaff32008f013700810d07000002eb005b
:10093800040f78000002eb0004c488006d00370043
:10094800b1080700261107000000000000000000a1
:1009580000000000250480000404200004826200d6
:10096800e00f52002f0032001e0fe80084c0a900db
:10097800351780000400210004826200e00f520055
:100988000300320004c48000e10f520011003a0055
:10099800a20020009e00780040ab2000140707004a
:1009a800a20020009e007800a0a5200010070700e4
:1009b800a20020009e007800e0b020000c0707008d
:1009c800a20020009e00780080b6200008070700db
:1009d80014003700a4558000040178009e007800b8
:1009e80040ab200002070700d452800004017800c1
:1009f8009e007800a0a52000fd060700745880001e
:100a0800040178009e007800e0b02000f806070096
:100a1800445b8000040178009e00780080b62000c6
:100a2800f30607003b1c070000027800e00f5200a5
:100a38000400320044cab300044078002ae8b70032
:100a48002c00370015168000040024000482620080
:100a5800e00f52000400320044c1b30004407800a3
:100a68002ae8b70023003700847020009e0278002f
:100a7800848f520007003600a719070044c3b3004b
:100a8800044078002ae8b7000002eb0004c488009c
:100a98001800370035178000040021000482620026
:100aa800e00f52000a003a001e027800f40f5200cc
:100ab800070036009819070044c3b30004407800c3
:100ac8002ae8b7000002eb0004c4880009003700d8
:100ad80004c48000e10f520006003a008e19070096
:100ae80044c3b300044078002ae8b7000002eb00d2
:100af80004c48800a58220009542780044c2b3004f
:100b080084cf52008eff320016013700fe0c07001a
:100b18004206200041062000208f2000b40607006e
:100b28004206200041062000609a2000b006070017
:100b3800420620004106200040ab2000ac0607001a
:100b48004206200041062000a0a52000a8060700b4
:100b5800420620004106200080b62000a4060700b7
:100b68004206200041062000e0b02000a006070051
:100b78001b0037002408070099100700e51b070031
:100b880000027800e00f52000400320084cab3006b
:100b9800044078002ae8b7001100370015168000d5
:100ba8000400240004826200e00f520004003200b6
:100bb80044c1b300044078002ae8b70008003700b1
:100bc800151680000400280004826200e00f52001d
:100bd80003003a0054c3b300044078002ae8b70081
:100be800a58220009542780044c3b30084cf520008
:100bf800e0ff3200db0037000002eb00140798002a
:100c0800c522a9002d003700ff0707007410070050
:100c1800250480000404200004826200e00f5200d2
:100c28000400320084c0a9001e0290000402e800fb
:100c380014079800b71b070000027800e00f520065
:100c48000400320084cab300044078002ae8b700e0
:100c58001a00370015168000040024000482620080
:100c6800e00f52000400320044c1b3000440780091
:100c78002ae8b70011003700151680000400280084
:100c880004826200e00f52000400320044c3b30043
:100c9800044078002ae8b700080037009e02900058
:100ca80014032000848f52000400360044c4b300ab
:100cb800044078002ae8b7006a0d0700a5822000e2
:100cc8009542780054c3b30084cf5200ceff32005f
:100cd800a40037000002eb00944188000002eb00fa
:100ce800b44188000002eb00a44188000002eb0038
:100cf80064c588006022b80014c5880025c588002e
:100d08000042eb0004407800c4f6b7008c60a800ed
:100d180054003700c400200034c58800ba07070013
:100d28002f100700446c210014427800e04f520055
:100d380030003200b400200034c58800c54080006f
:100d480004f02f00848f520003003e00c44080004e
:100d58000402e800c440880014c5800025c580004e
:100d680061024200e0824a0014c5880025c5880057
:100d7800048921003400be002401be0014002000b4
:100d8800050020006033b8000002420081824a005a
:100d980002034b0083834b00008921000498be00a6
:100da8000690be00444180000402e80044418800e7
:100db80029090700646c2100144278000440780077
:100dc800f1180700746c2100144278000440780080
:100dd800c6f6b700500707000002eb003408880089
:100de80084c0a9000042eb0004407800c4f6b700b4
:100df80055100700471b070000027800e00f52005b
:100e080005003200c60b070084cab300044078000e
:100e18002ae8b700130037001516800004002400e4
:100e280004826200e00f520005003200bc0b07008c
:100e380044c1b300044078002ae8b700090037002d
:100e4800151680000400280004826200e00f52009a
:100e580004003200b20b070044c3b300044078001a
:100e68002ae8b700a58220009542780044c4b30060
:100e780084cf5200a7ff32003a003700fa0b070070
:100e88000900370060070700d50f0700211b07007e
:100e980000027800e00f520003003a0044c1b3009a
:100ea800044078002ae8b700a5822000954278001f
:100eb80044cab30084cf5200f2ff32002900370041
:100ec800110c07001a0037004f070700c40f07006e
:100ed8001b1b070000027800e00f520004003200dc
:100ee80044cab300044078002ae8b700100037006d
:100ef800151680000400240004826200e00f5200ee
:100f08000400320044cab300044078002ae8b7005d
:100f180007003700ff1a070000027800e00f5200b0
:100f280003003a0044c3b300044078002ae8b7003d
:100f3800a58220009542780084cab30084cf52006d
:100f4800e1ff3200070037002f070700a40f070052
:100f5800fdff370004cab300044078002ae8b70050
:100f6800000000000080fa00000006000200fa00fd
:100f780034c58000e44088000002eb0034c58800d6
:100f88000002eb00a4c28800043a800061026200fb
:100f9800e00f520003003200a4c280000440a00009
:100fa800a4c28800053a8000040820000482620078
:100fb800e00f520004003200a5c2800004022000a5
:100fc80004827200a4c28800053a8000040420004c
:100fd80004826200e00f520004003200a5c28000c3
:100fe8000404200004827200a4c28800043a80002d
:100ff80062026200e00f520003003200a4c28000c7
:101008000400a000a4c28800053a8000040028005b
:1010180004826200e00f520003003200a4c2800084
:101028000410a000a4c28800043a80007002620084
:10103800e00f520003003200a4c280000420a00088
:10104800a4c28800053a80000400240004826200db
:10105800e00f520003003200a4c280000430a00058
:10106800a4c288000002eb0004c288000002eb0062
:1010780014c288000002eb0024c288000002eb00c2
:1010880034c288000002eb0044c288000002eb0072
:1010980054c288000002eb0064c288000002eb0022
:1010a80074c288000002eb0084c288000002eb00d2
:1010b80094c288006480200064428800a4ff210054
:1010c80074428800c084200012fd0700f428200024
:1010d80054c48800d4a3200064c48800d4a320008a
:1010e80074c48800c1842000a088210014fd070072
:1010f800048020001442880044ff21002442880014
:101108002084200003fd0700f428200024c4880060
:10111800d4a3200034c48800d4a3200044c4880089
:10112800218420004088210005fd07000060fe00a2
:1011380044062000d452880004d0270004538800b5
:1011480071322a000080eb00640c0700000278006e
:1011580024538800f4b680003453880004b7800014
:101168004453880061ae2a000080eb005b0c070046
:10117800000278006453880014b780007453880014
:1011880024b780008453880064538000840078006a
:10119800005327008c0c0700000278009453880045
:1011a80001002200008022004c0c07000002780099
:1011b800c45388000100220000002100470c0700ea
:1011c80000027800d4538800843e2000e45388004d
:1011d80024032000f4538800841a260064548800ed
:1011e80071322a000080eb003c0c070000027800f6
:1011f8008454880044b780009454880054b7800011
:10120800a454880061ae2a000080eb00330c07006c
:1012180000027800c454880064b78000d454880061
:1012280074b78000e4548800c454800084007800b7
:1012380000592600640c070000027800f454880066
:101248000100220030332200240c0700000278003d
:101258002455880001002200c0cc21001f0c070083
:10126800000278003455880004fa200044558800ac
:10127800240320005455880034b780008402780085
:10128800e4b680000501780084007800a0a520005d
:10129800a504070084252000a455880004dc250047
:1012a800d455880021eb26000080eb000b0c0700ca
:1012b80000027800f455880014b8800004568800ad
:1012c80024b8800014568800c1b02a000080eb00c2
:1012d800020c0700000278003456880034b88000f9
:1012e8004456880044b8800054568800345680001c
:1012f80084007800801a2600330c0700000278006a
:10130800645688000100220000802200f30b0700c9
:101318000002780094568800010022000080210015
:10132800ee0b070000027800a456880004fa20009b
:10133800b4568800840c2000c456880004dc2500bc
:10134800345788008080eb000080eb00e30b070037
:10135800000278005457880064b8800064578800f9
:1013680074b8800074578800c10428000080eb001e
:10137800da0b0700000278009457880084b88000d0
:10138800a457880094b88000b45788009457800008
:1013980084007800802c23000b0c070000027800e2
:1013a800c45788000100220000002400cb0b07006e
:1013b80000027800f4578800010022000000210094
:1013c800c60b0700000278000458880004fa2000c1
:1013d80014588800840c20002458880054b88000d1
:1013e8008402780004b88000050178008400780041
:1013f80040ab20004c04070084702000745888001b
:10140800c4a22100a45888008000eb000080eb00f3
:10141800b20b070000027800c458880034b9800075
:10142800d458880044b98000e4588800215e290017
:101438000080eb00a90b070000027800045988001f
:1014480054b980001459880064b980002459880070
:10145800045980008400780000c22100da0b0700dc
:1014680000027800345988000100220090192200f7
:101478009a0b0700000278006459880001002200d6
:1014880060e62100950b0700000278007459880077
:10149800843e200084598800441f20009459880005
:1014a8000002eb00045a88008000eb000080eb008b
:1014b8008a0b070000027800245a880084b980004b
:1014c800345a880094b98000445a88008000eb00a0
:1014d8000080eb00810b070000027800645a880046
:1014e800a4b98000745a8800b4b98000845a88006e
:1014f800645a8000840078000000eb00b20b0700fb
:1015080000027800945a8800010022000000eb00d5
:10151800720b070000027800c45a880001002200fc
:101528000000eb006d0b070000027800d45a880019
:101538000002eb00e45a88000002eb00f45a88002d
:1015480074b980008402780024b98000050178000d
:1015580084007800e0b02000f303070084702000c6
:10156800445b880004772100745b88008000eb00ee
:101578000080eb00590b070000027800945b88009c
:1015880054ba8000a45b880064ba8000b45b880009
:10159800215e29000080eb00500b07000002780054
:1015a800d45b880074ba8000e45b880084ba800049
:1015b800f45b8800d45b800084007800a08621005a
:1015c800810b070000027800045c880001002200fb
:1015d80090192200410b070000027800345c880053
:1015e8000100220060e621003c0b070000027800a1
:1015f800445c8800843e2000545c8800441f20001e
:10160800645c88000002eb00d45c88008000eb007a
:101618000080eb00310b070000027800f45c8800c2
:10162800a4ba8000045d8800b4ba8000145d880004
:101638008000eb000080eb00280b07000002780018
:10164800345d8800c4ba8000445d8800d4ba800044
:10165800545d8800345d8000840078000000eb0051
:10166800590b070000027800645d88000100220021
:101678000000eb00190b070000027800945d880059
:10168800010022000000eb00140b070000027800a4
:10169800a45d88000002eb00b45d88000002eb0046
:1016a800c45d880094ba80008402780044ba80003f
:1016b800050178008400780080b620009a030700ae
:1016c8000002eb009447880004e22400c447880025
:1016d800517125000080eb00000b07000002780024
:1016e800e447880074bb8000f447880084bb80000e
:1016f80004488800811a26000080eb00f70a0700da
:10170800000278002448880094bb80003448880090
:10171800a4bb8000444888002448800084007800e6
:10172800c0c22400280b0700000278005448880033
:10173800010022000000eb00e80a07000002780020
:1017480084488800010022000000eb00e30a07003b
:1017580000027800944888000002eb00a448880042
:101768000002eb00b44888000002eb00244988001e
:101778008000eb000080eb00d80a07000002780028
:1017880044498800c4bb800054498800d4bb800009
:10179800644988008000eb000080eb00cf0a070056
:1017a8000002780084498800e4bb800094498800de
:1017b800f4bb8000a4498800844980008400780034
:1017c8000000eb00000b070000027800b449880015
:1017d800010022000000eb00c00a070000027800a8
:1017e800e4498800010022000000eb00bb0a070062
:1017f80000027800f44988000002eb00044a8800df
:101808000002eb00144a8800b4bb80008402780010
:1018180064bb80000501780084007800208f2000d8
:10182800410307000002eb00344d880004e2240065
:10183800644d8800517125000080eb00a70a07005d
:1018480000027800844d880094bc8000944d880084
:10185800a4bc8000a44d8800811a26000080eb00fb
:101868009e0a070000027800c44d8800b4bc8000be
:10187800d44d8800c4bc8000e44d8800c44d80006d
:1018880084007800c0c22400cf0a07000002780054
:10189800f44d8800010022000000eb008f0a0700c9
:1018a80000027800244e8800010022000000eb00ae
:1018b8008a0a070000027800344e88000002eb0014
:1018c800444e88000002eb00544e88000002eb00f2
:1018d800c44e88008000eb000080eb007f0a070000
:1018e80000027800e44e8800e4bc8000f44e8800d2
:1018f800f4bc8000044f88008000eb000080eb00ff
:10190800760a070000027800244f880004bd800092
:10191800344f880014bd8000444f8800244f800055
:10192800840078000000eb00a70a07000002780096
:10193800544f8800010022000000eb00670a0700ee
:1019480000027800844f8800010022000000eb00ac
:10195800620a070000027800944f88000002eb003a
:10196800a44f88000002eb00b44f8800d4bc80006c
:101978008402780084bc8000050178008400780027
:10198800609a2000e80207000002eb00644a880021
:10199800846d2d00944a88008000eb000080eb00e5
:1019a8004e0a070000027800b44a8800b4bd8000df
:1019b800c44a8800c4bd8000d44a8800118a2d001a
:1019c8000080eb00450a070000027800f44a88000e
:1019d800d4bd8000044b8800e4bd8000144b88000f
:1019e800f44a80008400780000b22c00760a0700d0
:1019f80000027800244b88000100220000802200a9
:101a0800360a070000027800544b880001002200c3
:101a180090992100310a070000027800644b880081
:101a2800843e2000744b880044012000844b8800c9
:101a3800c4ce2200f44b88008000eb000080eb004d
:101a4800260a070000027800144c880004be8000b3
:101a5800244c880014be8000344c8800b111240046
:101a68000080eb001d0a070000027800544c880033
:101a780024be8000644c880034be8000744c88000a
:101a8800544c800084007800400d23004e0a070063
:101a980000027800844c880001002200901922007e
:101aa8000e0a070000027800b44c880001002200ea
:101ab80060e62100090a070000027800c44c88008b
:101ac800843e2000d44c880044012000e44c880067
:101ad8000002eb00144d88000082eb00244d8800c2
:101ae8000002eb00b44b88000082eb00c44b880076
:101af800f4bd800084027800a4bd80000501780050
:101b080084007800c0942000870207000002eb00e0
:101b180004508800846d2d00345088008000eb004c
:101b28000080eb00ed09070000027800545088009f
:101b3800d4be800064508800e4be800074508800e1
:101b4800118a2d000080eb00e409070000027800ec
:101b580094508800f4be8000a450880004bf800020
:101b6800b4508800945080008400780000b22c00a3
:101b7800150a070000027800c450880001002200fe
:101b880000802200d509070000027800f450880080
:101b98000100220090992100d00907000002780076
:101ba80004518800843e200014518800440120001c
:101bb80024518800c4ce2200945188008000eb0094
:101bc8000080eb00c509070000027800b4518800c6
:101bd80024bf8000c451880034bf8000d4518800dd
:101be800b11124000080eb00bc0907000002780056
:101bf800f451880044bf80000452880054bf80001c
:101c080014528800f451800084007800400d2300ad
:101c1800ed09070000027800245288000100220024
:101c280090192200ad09070000027800545288007c
:101c38000100220060e62100a809070000027800e0
:101c480064528800843e20007452880044012000b9
:101c5800845288000002eb00b45288000082eb0036
:101c6800c45288000002eb00545188000082eb0047
:101c78006451880014bf800084027800c4be8000cc
:101c8800050178008400780000a0200026020700e3
:101c980015178000040220000482620004f0a700e7
:101ca8000402ea000402e9004f22de000442780040
:101cb8000482fb00610262004522dd0016178000e5
:101cc800f5fd2f0085026300048272001417880056
:101cd800d762a900d602a800d742a900d702a90056
:101ce800c4e2a800e2a2a900c522a800c4c2a900b3
:101cf800d042a800d662a800e822a800e202a90003
:101d0800ca42a900e802a800cbc2a900d6c2a8000e
:101d1800d6a2a800e222a900d362a900d202a90093
:101d2800d242a800cdc2a800cda2a800d222a80005
:101d3800d322a900d342a900d302a900c182a800d6
:101d4800c1a2a800c0e2a900dea2a900c122a90080
:101d5800c1c2a800c1e2a800e5a2a800e582a800c7
:101d6800e5c2a800d282a800d2e2a800d382a800c7
:101d7800d3a2a800cc62a800cc82a800e502a800e3
:101d8800e522a800c142a800c0c2a900cc42a9000f
:101d9800d262a900e422a900de02a900c642a90075
:101da800e402a900cde2a900c7c2a900d2c2a900d5
:101db800d2a2a900de22a9008e00a9008600a900ef
:101dc800e40480000400a1000410a0000420a00086
:101dd800e40488008220a9008c60a9008460a9001e
:101de800a404800004c0a00004d0a10004e0a00066
:101df800a40488008d60a9008560a900c40480003f
:101e080004c0a10004d0a10004e0a000c40488001c
:101e18008d20a900c40480000440a0000450a00044
:101e28000460a100c40488008d40a900c404800097
:101e38000440a0000450a0000460a100c40488006d
:101e48008940a9009140a900440580000480a000b1
:101e58000490a00004a0a00044058800043a800073
:101e68000480a1000490a10004a0a00004b0a00078
:101e7800043a8800f4002f0034108800140620006b
:101e880024108800f1fb2d00b0532b00bef9070089
:101e9800f1fb2d00a0f32b00bef907000410200071
:101ea800841c880004102000842288000042eb0073
:101eb8000440780096e8b7000042eb000440780040
:101ec80097e8b7000042eb0004407800d8e8b70074
:101ed8000042eb0004407800d9e8b70004f02f0076
:101ee8006410880044002000a4108800f4752700be
:101ef80074108800d4fa25002408880054fa2500b4
:101f08008408880094d02300640888000002eb004d
:101f18003408880084c0a90054f82500f408880013
:101f2800d4f92500040988000002eb00c4088800e1
:101f380086c0a900440d2300e4088800f40d2000a1
:101f4800d4468800f40b2000e4468800e40d200005
:101f5800f446880004022000044788000002eb00d1
:101f68001447880014c0b30004407800e4e8b700c0
:101f7800a08d2000a717070004c4b3000440780010
:101f8800ece8b7000042eb0004407800ede8b70049
:101f980004022000344788000402200044478800d7
:101fa800040220005447880000c2eb000440780077
:101fb800eee8b70000c2eb0004407800efe8b70095
:101fc8005d14070004892100040f780014c0800004
:101fd800840278001e027800050a78001e8fe80047
:101fe80004c08000840278001e027800050a780088
:101ff8001e8fe800f4bf8000840278001e0278007b
:10200800050a78001e8fe800e4bf8000840278008b
:102018001e027800050a7800e4892100040f780080
:1020280034c08000840278001e027800050a780017
:102038001e8fe80024c08000840278001e02780009
:10204800050a78000002eb0064c588006022b80029
:1020580014c5880025c5880044c0800084418800d4
:102068000080fa00000006000200fa000002eb00ff
:10207800040f7800a08d20009d1707000041eb0099
:10208800a1c0b300608e2000651c07000002780024
:102098001e0f72000041eb00a1c0b300608e20004b
:1020a8005f1c0700000278001e0f72000041eb0061
:1020b800a1c0b300608e2000591c07000002780000
:1020c8001e0f7200e48e200014427800044178004c
:1020d80041c1b300608e2000511c07000002780047
:1020e8001e0f7200f48e200014427800044178001c
:1020f80051c1b300608e2000491c0700000278001f
:102108001e0f720082cfb3008040eb00608e20006b
:10211800431c0700000278001e0f72000041eb000c
:1021280011c0b300608e20003d1c0700000278003b
:102138001e0f72000041eb0021c0b300608e20002a
:10214800371c0700000278001e0f72000041eb00e8
:1021580031c0b300608e2000311c070000027800f7
:102168001e0f720004f02f009e02620004a02f00d0
:10217800848f520007003a00a5c28000040820009e
:1021880004827200a4c2880024c280000402e8000d
:1021980024c288008040eb00608e2000521c07009b
:1021a80000027800040f7800f40f20009e026200fd
:1021b800840f2000848f520007003200a5c28000df
:1021c8000408200004827200a4c2880024c280008f
:1021d8000402e80024c28800750707007c0707008e
:1021e8007f0707000080fa00000006000600fa00da
:1021f80054c580000402e80054c58800844180006a
:102208000402e800844188008441800044c08800ba
:10221800c522a90020842000bef80700c084200041
:10222800bcf807004206200041062000208f20004d
:10223800ef0007004206200041062000609a2000b7
:10224800eb000700420620004106200040ab2000ba
:10225800e70007004206200041062000a0a5200054
:10226800e3000700420620004106200080b6200057
:10227800df0007004206200041062000e0b02000f1
:10228800db0007004e07070045070700f5070700b2
:102298008c60a900151780000402200004826200e7
:1022a80004f0a7000402ea000402e9004f22de005d
:1022b800044278000482fb00610262004522dd00ce
:1022c80016178000f5fd2f00850263000482720056
:1022d80014178800e805070015178000040220007d
:1022e8000482620004f0a7000402ea000402e90084
:1022f8004f22de00044278000482fb006102620083
:102308004522dd0016178000f5fd2f0085026300c9
:102318000482720014178800351780000400240016
:1023280004826200e00f520014003a006441800009
:1023380051c3200004007800230807000002780039
:10234800040f78000001eb009e007800208f200029
:10235800750007007441800051c320000400780014
:102368001908070000027800040f78000001eb004c
:102378009e007800609a20006b000700a48120006e
:1023880014427800e04f52000d003a00a447800044
:1023980004007800280a0700000278001407980053
:1023a8001e0090008511070000027800240798009d
:1023b8001e019000ae009000a0a520005a00070062
:1023c80015178000040220000482620004f0a700b0
:1023d8000402ea000402e9004f22de000442780009
:1023e8000482fb00610262004522dd0016178000ae
:1023f800f5fd2f008502630004827200141788001f
:10240800c50107001517800004022000048262003d
:1024180004f0a7000402ea000402e9004f22de00eb
:10242800044278000482fb00610262004522dd005c
:1024380016178000f5fd2f008502630004827200e4
:1024480014178800c4040700151780000402200030
:102458000482620004f0a7000402ea000402e90012
:102468004f22de00044278000482fb006102620011
:102478004522dd0016178000f5fd2f008502630058
:10248800048272001417880044c4b3000440780022
:102498002ae8b7000a12070064c0b30004407800b5
:1024a8002ae8b7000080fa00000006000000fa00e1
:1024b80011e1a80021e1a800f4cf27000415880045
:1024c80084fe20001415880064342e00241588002a
:1024d80034fe2e003415880074002c004415880042
:1024e80084ff230054158800a1e2a8008560a90094
:1024f8008d60a8008540a9008d40a8008520a9000e
:102508008d20a8000de2a800e802a8000042eb0018
:10251800044078009cf8b700ff1207000060fe0036
:102528000080fa00000006000600fa00000f78009c
:1025380011079800220798001e027800b402900044
:102548001e029000848f5200080031001e0278009d
:10255800b40290001e0278001502980074c2800030
:102568000402e80074c28800030037001e027800e5
:102578009e029000150298001e027800941a90009e
:102588002e029000848f5200080031001e0278004d
:10259800941a90001e0278007512980074c2800088
:1025a8000402e80074c28800030037001e027800a5
:1025b800ae02900075129800a5822000954278001e
:1025c80044c2b30084cf5200040032004206200007
:1025d800410620001e007800050007001e00780054
:1025e800540007000060fe000080fa0000000600aa
:1025f8000a00fa002007980031079800420798005f
:10260800be0290004e029000848f520009003900eb
:102618002e029000940290002e029000250298004d
:102628002e029000f41290002e029000051a9800d5
:102638003c0037002e029000140290000500200094
:10264800048fbe003e029000050020001e0390008b
:1026580004b3b900060378009e03780005b8b900f2
:1026680080037800070343009e0378000402780083
:102678000722b8000503430086027800048fbe00d5
:10268800048fbe004e029000050020000401be0029
:102698001e00be0073f707000002be00048fbe00d4
:1026a8009e0278002e029000250298002e029000cb
:1026b8007412900005002000048fbe003e029000b6
:1026c800050020001e03900004b3b900060378003b
:1026d8009e03780005b8b90080037800070343001b
:1026e8009e037800040278000722b800050343001f
:1026f80086027800048fbe00048fbe004e02900050
:10270800050020000401be001e00be0055f70700aa
:102718000002be00048fbe009e0278002e029000c8
:10272800051a98002e009000020007000080fa00a9
:10273800000006000600fa00200798002e0290000c
:10274800d40290002e0290002402900085007800a8
:10275800040078001c07070000027800040f7800c6
:102768002e02900064029000840078001e00780019
:102778001507070000027800040f78002e02900069
:1027880074029000e00f52000c0034002e029000fa
:10279800740290000482ea009e0f52000300310088
:1027a8000082eb00040f78000f0037002e02900023
:1027b800740290001e0f42000b0037002e0290009a
:1027c800740290000402ea009e0f520003003600d3
:1027d8000002eb00040f7800030037002e0290007f
:1027e800740290001e0f42002e0290009e02780094
:1027f800450298002e029000b41a90002e02900014
:10280800041a90008500780004007800ee0607009e
:1028180000027800140798002e029000441a9000d5
:10282800840078001e009000e70607000002780088
:10283800140798002e029000541a9000e00f5200de
:102848000f0034002e029000541a90008482ea008f
:102858001e029000848f5200030031000082eb00ba
:1028680014079800150037002e029000541a9000a3
:102878009e02900004824200140798000f0037005f
:102888002e029000541a90000402ea008402780094
:102898001e029000848f5200030036000002eb00f5
:1028a80014079800050037002e029000541a900073
:1028b8009e02900004824200140798002e029000a5
:1028c8009e029000251a98002e029000940a90000b
:1028d8002e02900024029000850078000400780001
:1028e800b906070000027800040f78002e02900055
:1028f800240a9000840078001e007800b2060700c1
:1029080000027800040f78002e029000340a90002c
:10291800e00f52000c0034002e029000340a9000a0
:102928000482ea009e0f5200030031000082eb008f
:10293800040f78000f0037002e029000340a900030
:102948001e0f42000b0037002e029000340a900040
:102958000402ea009e0f5200030036000002eb005a
:10296800040f7800030037002e029000340a90000c
:102978001e0f42002e029000740a90008400780016
:102988001e0078009006070000027800ae02900052
:10299800d40a98002e029000041290008400780057
:1029a8001e0078008806070000027800ae0290003a
:1029b800e40a98002e029000d40a90002e0290009b
:1029c80014129000848f5200040031002e029000ef
:1029d800941290002e029000550a98002e02900042
:1029e800f41a90002e029000041a900085007800d6
:1029f80004007800740607000002780014079800a5
:102a08002e02900004229000840078001e0090009e
:102a18006d06070000027800140798002e02900047
:102a280014229000e00f52000f0034002e02900094
:102a3800142290008482ea001e029000848f5200c3
:102a4800030031000082eb001407980015003700de
:102a58002e029000541a90009e02900004824200b8
:102a6800140798000f0037002e02900014229000df
:102a78000402ea00840278001e029000848f52004b
:102a8800030036000002eb00140798000500370029
:102a98002e029000142290009e02900004824200b0
:102aa800140798002e0290005422900084007800a9
:102ab8001e0090004406070000027800ae02900055
:102ac800b42298002e0290006422900084007800be
:102ad8001e0090003c06070000027800ae0290003d
:102ae800c42298002e029000b42290002e0290007a
:102af80074229000848f5200040031002e0290004e
:102b0800f42290002e029000352298000060fe000a
:102b18000080fa00000006001200fa00a40020005d
:102b280034c58800845b800014079800b45880007e
:102b380024079800145380003407980074548000c8
:102b480044079800e45580005407980044578000d3
:102b580064079800d447800074079800744d80007b
:102b6800040f980014c0b300044f78000042eb0033
:102b780014479800100037000e82e800840078009f
:102b8800a08d20006615070000427800044f7800e9
:102b98001e4290000442e800144798001e42780044
:102ba800e04f52000300320064c280000402e800d3
:102bb80064c288000060fe009e4278000582fb0027
:102bc8000402ea004f22de008442780014c0b300f9
:102bd8001e439000f34f5300010036000042eb0003
:102be80004c26200e04f5200e3ff3a001e42900028
:102bf800f34f520002003600000220009f13070026
:102c08000080fa00000006000400fa00940020008a
:102c180034c58800043a800061026200e00f520067
:102c280003003200a4c280000440a000a4c28800af
:102c3800053a80000408200004826200e00f520078
:102c480004003200a5c28000040220000482720041
:102c5800a4c28800053a80000404200004826200af
:102c6800e00f520004003200a5c2800004042000d6
:102c780004827200a4c28800043a800062026200e2
:102c8800e00f520003003200a4c280000400a0003c
:102c9800a4c28800053a800004002800048262006b
:102ca800e00f520003003200a4c280000410a0000c
:102cb800a4c28800043a800070026200e00f52004b
:102cc80003003200a4c280000420a000a4c288002f
:102cd800053a80000400240004826200e00f5200dc
:102ce80003003200a4c280000430a000a4c28800ff
:102cf8000060fe00350480000404200004826200a5
:102d0800e00f52008c00320086c0a900e441800028
:102d18000402e8006f026200e4418800e441800098
:102d2800e00f520014003a0014178000610262009c
:102d3800e00f520002003200e202a9000100370051
:102d4800e202a80045418000d407200004aab90087
:102d5800040278008402d1003441800085007800a4
:102d6800040078003e06070000027800344188001d
:102d78000002eb004441880035178000040022005f
:102d880004826200e00f520006003200f440800026
:102d9800e00f520003003200e7100700de100700c2
:102da800d510070035178000040022000482620055
:102db800e00f520003003a0014002000f44088009d
:102dc800020037000002eb00f44088006a010700a7
:102dd800a481200014427800e04f52000d003a0010
:102de800a4478000040078009307070000027800d9
:102df800040f78001e007800f00e0700000278002b
:102e0800140798001e0178009e009000a0a52000dd
:102e1800c5fd0700a482200014427800f44f520038
:102e280005003200a58220009542780044cab3000c
:102e380084cf520018003a00420620008000eb00c0
:102e4800208f2000eafd0700420620008000eb00ea
:102e5800208f2000e6fd0700420620008000eb00de
:102e680040ab2000e2fd0700420620008000eb0096
:102e7800a0a52000defd0700420620008000eb0030
:102e880080b62000dafd0700420620008000eb0033
:102e9800e0b02000d6fd0700890f07001d130700ca
:102ea80000027800e00f520003003200c4e2a900db
:102eb800d042a90002003700c4e2a800d042a8000e
:102ec80004822000144278000442e800044078009c
:102ed80020e8b70004822000144278006f426200a4
:102ee8000440780020e8b7000482200014427800eb
:102ef800e04f520001003a0011000700730007007c
:102f0800a58220009542780044c4b30084cf5200c3
:102f180005003a00250480000404200004826200b1
:102f2800e00f520004003200fbfe070031040700e6
:102f38000002eb00c44088000080fa000000060090
:102f48000200fa008400200034c58800d55b8000a8
:102f5800645b800085007800040078001a0507008b
:102f680000027800040f7800e45b80008400780099
:102f78001e0078001405070000027800040f78008e
:102f8800f45b80001e0f42001e0278000402d1008c
:102f980054428800c45b80000402d1004442880087
:102fa800208420003ff507000559800094588000d0
:102fb8008500780004007800030507000002780007
:102fc800040f780014598000840078001e007800ef
:102fd800fd04070000027800040f780024598000df
:102fe8001e0f42001e0278000402d100a44288008d
:102ff800f45880000402d10094428800c084200064
:1030080028f5070034428000040f78001e0278007b
:10301800e00f520002003d000002eb00040f7800b0
:103028001e02780004024200040f780004d0270032
:103038009e027800848f52000200360004d02700d8
:10304800040f78000002eb00a45b88000002eb008c
:10305800945b88001e027800b45b8800844280007c
:10306800040f78001e027800e00f520002003d00b5
:103078000002eb00040f78001e02780004024200f0
:10308800040f780004d027009e027800848f520035
:103098000200360004d02700040f78000002eb007d
:1030a800d45888000002eb00c45888001e0278003b
:1030b800e4588800e0b020009efd070080b620009c
:1030c8009cfd07000080fa00000006000800fa00d6
:1030d8001441800005002000048fbe0034418000a8
:1030e800050020001e03900004b3b9000603780011
:1030f8009e03780005b8b9008003780007034300f1
:103108009e037800040278000722b80005034300f4
:1031180086027800048fbe00048fbe001e02be0027
:103128004a2bdd004622de0004027300c62ade00b8
:10313800048fbe001e0290006d22b90004037800bf
:103148001e0278006022b9000402780004034300dc
:103158009e027800d4002000042ab800050343002a
:1031680086027800048fbe00048fbe001e02be00d7
:10317800452bdd004b22de0004027300cb2ade0063
:10318800048fbe00e4ff2f00050020001e03be00d0
:10319800840f5300858f5b00030036000082eb002c
:1031a80024418800020037001e027800244188006c
:1031b8001e02be00492bdd004722de000402730018
:1031c800c72ade00048fbe009e027800f4072000a4
:1031d8000482620024079800a582200095427800a6
:1031e80044c4b30084cf52000f003200a5822000ef
:1031f8009542780044c3b30084cf52000a003200dd
:10320800a58220009542780054c3b30084cf5200b1
:1032180005003200a58220009542780084cab300d8
:1032280084cf52000a003a002e0290008402420025
:10323800442d280004824200940278003507980043
:1032480042062000be00900040ab2000e8fc0700ca
:103258000080fa00000006000400fa007400200054
:1032680034c588001417800062026200e00f520023
:1032780037003200d6c2a900800c200001002000cf
:10328800f8f3070021c0b3000000eb00581707004f
:103298000002be00048fbe000400200015112100aa
:1032a8001e03be00840f5300858f5b0006003a00a2
:1032b8000002eb00f441880044c280000402e800e8
:1032c80044c28800020037001e027800f4418800da
:1032d800d6c2a800800c200001002000e1f30700fe
:1032e800d6a2a900800c200001002000ddf3070011
:1032f80021c0b3000000eb003d1707000002be002c
:10330800048fbe0004002000151121001e03be001a
:10331800840f5300858f5b0006003a000002eb0023
:103328000442880044c280000402e80044c28800c5
:10333800020037001e02780004428800d6a2a800c6
:10334800800c200001002000c6f3070007003700aa
:103358000002eb00044288000002eb00f441880000
:1033680054c280000402e80054c28800e222a90086
:103378000080fa00000006000800fa00640020003f
:1033880034c5880040cc20008f1807000002780060
:1033980014079800644180009e00900004007800a3
:1033a800af040700000278006441880040dc200078
:1033b80085180700000278001407980074418000ff
:1033c8009e00900004007800a50407000002780021
:1033d8007441880040ec20007b1807000002780048
:1033e8008440880040fc200077180700000278001d
:1033f80064408800400c2100731807000002780020
:1034080014079800b45480009e00900004007800cf
:103418009304070000027800b4548800401c21007f
:1034280069180700000278001407980054538000b8
:103438009e009000040078008904070000027800cc
:1034480054538800403c21005f18070000027800b0
:1034580014079800245680009e009000040078000d
:103468007f0407000002780024568800402c2100c1
:103478005518070000027800140798008457800048
:103488009e00900004007800750407000002780090
:1034980084578800404c21004b1807000002780030
:1034a80014079800144880009e00900004007800db
:1034b8006b0407000002780014488800405c210073
:1034c800411807000002780014079800b44d8000e6
:1034d8009e00900004007800610407000002780054
:1034e800b44d8800c4408000e90f520074003600d3
:1034f8007540800034062000848f520002003e0090
:10350800440620007440880095408000340620005e
:10351800848f520002003e00440620009440880038
:103528007440800045062000848242006440800088
:10353800848f520004003100a44080006a025200c7
:10354800a44088000900370074408000c5f92f00a6
:103558008482420064408000848f52000300360059
:10356800a44080006a024200a4408800a540800070
:10357800047d2000848f520003003400047d200065
:10358800a440880006003700a540800004832f006f
:10359800848f520002003d0004832f00a44088005d
:1035a8009440800005002000240798003507980003
:1035b80064408000050020003e03900004b3b90079
:1035c80006037800ae03900005b8b90080037800c0
:1035d80007034300ae039000040278000722b800f6
:1035e80005034300860278002407980035079800f1
:1035f80024079800350798002e029000be0290001c
:1036080042582300030020000400be0095f3070081
:103618000002be0024079800350798008440800007
:103628006123b8002e029000be0290004406b0004c
:103638000580b000840f5300858f5b0004003900bb
:10364800b44080006a025200b44088000e0037007f
:10365800844080006123b8002e009000be009000d6
:10366800c4f92f00f5ff2f000002420081824a00b2
:10367800840f5300858f5b0003003e00b440800038
:103688006a024200b4408800b5408000046420000b
:10369800848f52000300340004642000b440880082
:1036a8000b003700b5408000049c2f00848f520027
:1036b80007003d00049c2f00b44088000400370038
:1036c8000002eb00b44088000002eb00a440880030
:1036d8006441800051c32000040078003a030700c9
:1036e80000027800040f780075408000743e2000c6
:1036f800848f520002003600a44080001e0f420052
:103708000001eb009e007800208f200086fb070058
:103718007441800051c32000040078002a03070088
:1037280000027800040f780095408000743e200065
:10373800848f520002003600b44080001e0f420001
:103748000001eb009e007800609a200076fb0700dd
:103758000080fa00000006000600fa00f4cf2700f7
:1037680004158800e4fd20001415880064342e0038
:103778002415880034fe2e003415880074002c00af
:103788004415880004fc230054158800a1e2a80011
:103798000002eb00040f78008000370000000000f2
:1037a800151580000408200004826200e00f520012
:1037b800fbff32000002eb001407980034003700ca
:1037c800051480001e0278000403420044ec200027
:1037d80004024300050a7800151480001e027800d0
:1037e8000403420044fc200004024300050a780058
:1037f800251480001e02780004034200440c2100b6
:1038080004024300050a7800351480001e0278007f
:1038180004034200441c210004024300050a780006
:10382800451480001e02780004034200442c210045
:1038380004024300050a7800551480001e0278002f
:1038480004034200443c210004024300050a7800b6
:10385800651480001e02780004034200444c2100d5
:1038680004024300050a7800751480001e027800df
:1038780004034200445c210004024300050a780066
:103888001e0fe8001e0290000402e80014079800ca
:103898001e029000e70f5200c9ff3600000000002a
:1038a800151580000408200004826200e00f520011
:1038b800fbff3a000002eb001407980034003700c1
:1038c800851480001e0278000403420044ec2000a6
:1038d80004024300050a7800951480001e0278004f
:1038e8000403420044fc200004024300050a780057
:1038f800a51480001e02780004034200440c210035
:1039080004024300050a7800b51480001e027800fe
:1039180004034200441c210004024300050a780005
:10392800c51480001e02780004034200442c2100c4
:1039380004024300050a7800d51480001e027800ae
:1039480004034200443c210004024300050a7800b5
:10395800e51480001e02780004034200444c210054
:1039680004024300050a7800f51480001e0278005e
:1039780004034200445c210004024300050a780065
:103988001e0fe8001e0290000402e80014079800c9
:103998001e029000e70f5200c9ff3600f40720000e
:1039a8009e027800848f52007cff3600a1e2a900b5
:1039b80040ec200004170700000278002407980054
:1039c8002e029000f458880040fc2000fe160700e4
:1039d80000027800240798002e029000c45b88003b
:1039e800400c2100f8160700000278002407980010
:1039f8002e029000b4548800401c2100f2160700e3
:103a080000027800240798002e0290005453880082
:103a1800403c2100ec1607000002780024079800bb
:103a28002e02900024568800402c2100e61607003c
:103a380000027800240798002e029000845788001e
:103a4800404c2100e0160700000278002407980087
:103a58002e02900014488800405c2100da16070006
:103a680000027800240798002e029000b44d8800c8
:103a78000080fa00000006000600fa00f4cf2700d4
:103a880004158800e4fd20001415880064342e0015
:103a98002415880034fe2e003415880074002c008c
:103aa800441588000403200054158800a1e2a800ea
:103ab8000002eb00040f78008600370000000000c9
:103ac800151580000408200004826200e00f5200ef
:103ad800fbff32000002eb001407980037003700a4
:103ae800051480001e0278000403420044cc200024
:103af80004024300050a7800151480001e027800ad
:103b08000403420044dc200004024300050a780054
:103b18001e0fe800251480001e02780004034200ee
:103b280044cc200004024300050a780035148000c4
:103b38001e0278000403420044dc20000402430013
:103b4800050a78001e0fe800451480001e02780060
:103b58000403420044cc200004024300050a780014
:103b6800551480001e0278000403420044dc200043
:103b780004024300050a78001e0fe800651480005f
:103b88001e0278000403420044cc200004024300d3
:103b9800050a7800751480001e02780004034200ac
:103ba80044dc200004024300050a78001e0fe800e8
:103bb8001e0290000402e800140798001e029000fc
:103bc800e30f5200c6ff3600000000001515800004
:103bd8000408200004826200e00f5200fbff3a0054
:103be8000002eb00140798003700370085148000a6
:103bf8001e0278000403420044cc20000402430063
:103c0800050a7800951480001e027800040342001b
:103c180044dc200004024300050a78001e0fe80077
:103c2800a51480001e0278000403420044cc200042
:103c380004024300050a7800b51480001e027800cb
:103c48000403420044dc200004024300050a780013
:103c58001e0fe800c51480001e027800040342000d
:103c680044cc200004024300050a7800d5148000e3
:103c78001e0278000403420044dc200004024300d2
:103c8800050a78001e0fe800e51480001e0278007f
:103c98000403420044cc200004024300050a7800d3
:103ca800f51480001e0278000403420044dc200062
:103cb80004024300050a78001e0fe8001e02900067
:103cc8000402e800140798001e029000e30f520057
:103cd800c6ff3600f40720009e027800848f520049
:103ce80076ff3600a1e2a90040cc20003616070076
:103cf80000027800240798002e0290006441880092
:103d080040dc2000301607000002780024079800e5
:103d18002e029000744188000080fa00000006001e
:103d28000400fa0094028000040f7800ff3ffc00b2
:103d3800140280000450a0000460a0000470a000d9
:103d4800140288001e02780094028800000088008f
:103d5800000000000000000000000000000000005b
:103d68008c60a9008e00a9009402800014079800b6
:103d7800ff3ffc00140280000450a1000460a10071
:103d88000470a100140288001e02900094028800aa
:103d98000000880003000700c522a8000080fa0080
:103da800000006000200fa0004892100040f7800d0
:103db8001e0278001402780014c088001e8fe800e4
:103dc8001e0278001402780004c088001e8fe800e4
:103dd8001e02780014027800f4bf88001e8fe800e5
:103de8001e02780014027800e4bf8800e4892100ec
:103df800040f78001e0278001402780034c088008e
:103e08001e8fe8001e0278001402780024c0880083
:103e1800053b80000400280004826200e00f520085
:103e2800fbff3a00c4bf8000d5bf8000020220001b
:103e38000400be0063f10700053b80000400280071
:103e480004826200e00f5200fbff3a00c4bf80000a
:103e5800d5bf8000c27f21000400be0078f10700b2
:103e68000080fa00000006000000fa005c0007006d
:103e78004f00070056000700420620008000eb00b4
:103e8800208f2000daf90700420620008000eb00ae
:103e9800208f2000d6f90700420620008000eb00a2
:103ea80040ab2000d2f90700420620008000eb005a
:103eb800a0a52000cef90700420620008000eb00f4
:103ec80080b62000caf90700420620008000eb00f7
:103ed800e0b02000c6f90700208420008df107001b
:103ee800c08420008bf1070005e1a9008e00a9001d
:103ef8008c60a9008600a9008460a900c4c2a9003a
:103f08000080fa00000006000000fa0034000700f4
:103f180005e1a9008e00a9008c60a9008600a9000f
:103f28008460a900c4c2a9000080fa00000006004d
:103f38000000fa002084200076f10700c0842000e9
:103f480074f10700420620008000eb00a0a52000c5
:103f5800a7f90700420620008000eb0040ab2000d4
:103f6800a3f90700420620008000eb00e0b0200023
:103f78009ff90700420620008000eb0080b6200071
:103f88009bf907000e000700050007000002eb0080
:103f98003408880084c0a9000080fa0000000600e8
:103fa8000000fa00d702a8000080fa00000006000e
:103fb8000000fa00d702a9000080fa0000000600fd
:103fc8000000fa00d722a9000080fa0000000600cd
:103fd8000000fa00d722a8000080fa0000000600be
:103fe8000000fa00d762a900d602a8000080fa00f3
:103ff800000006000400fa000002eb00040f78003d
:104008000002eb00140798005400200034c5880013
:10401800a58220009542780044c3b30084cf5200a3
:104028000f003200a58220009542780044c4b300f6
:1040380084cf52000a003200a58220009542780001
:1040480084cab30084cf520005003200a582200044
:104058009542780054c3b30084cf520005003a005b
:104068009e029000f4f72f00048262001407980063
:10407800040037009e0290000408200004827200a9
:104088001407980054c38000e00f52000400320067
:104098001e0290000400a0001407980004003700d6
:1040a8009e029000e4ff2f0004826200140798002b
:1040b80024c38000e00f5200020032001e20a0003e
:1040c80002003700b4ff2f001e0f6200c5c2800037
:1040d80004f02f0004826200e00f52000400320056
:1040e8001e0290000440a000140798000400370046
:1040f8009e029000f4fe2f000482620014079800cc
:10410800c5c28000f40f200004826200e00f520054
:10411800040032001e0290000410a000140798004a
:10412800040037009e029000d4ff2f000482620032
:1041380014079800f5c2800004f02f000482620082
:10414800e00f5200020032001e00a00002003700fb
:10415800e4ff2f001e0f6200f5c28000f40f20005c
:1041680004826200e00f5200020032001e10a0001c
:1041780002003700d4ff2f001e0f6200a582200026
:104188009542780044c4b30084cf520004003a003a
:104198001e0290000420a0001407980004003700b5
:1041a8009e029000b4ff2f0004826200140798005a
:1041b800e48e2000144278000482fb009e0f520017
:1041c800100032001e027800044278000440780093
:1041d800eee8b700e48e200014427800044178002d
:1041e80041c1b300608e20000d1407000002780062
:1041f800e00f52000300320024c280000402e800ed
:1042080024c28800f48e2000144278008482fb00c7
:104218001e029000848f5200100032001e0290008f
:104228000442780004407800efe8b700f48e2000dc
:10423800144278000441780051c1b300608e200018
:10424800f713070000027800e00f52000300320065
:1042580024c280000402e80024c288000080fa001a
:10426800000006000000fa00151680000400220075
:1042780004826200e00f5200050032000042eb00a9
:1042880004407800c6f6b700cbc2a9000400370086
:1042980014c0b30004407800c6f6b700cbc2a8002b
:1042a800d762a800d602a90005e1a9000002eb0028
:1042b800040888008460a9008c60a8007417200096
:1042c8001408880005e1a8000002eb003408880003
:1042d80084c0a9000080fa00000006000a00fa0065
:1042e80030079800410798003e0290000500200022
:1042f80014079800250798001e029000ae0290004f
:10430800c022dd000400200014079800250798004b
:104318004e029000050020000401be001e0090001f
:10432800ae0090004ff007000002be00140798008e
:10433800250798001e029000ae0290004d2bdd006c
:104348004322de0004027300c32ade00140798002b
:10435800250798001e039000ae039000040020007b
:10436800f5ff2f0006007800070378008403780023
:1043780005027800070060000402630005002000c1
:10438800c022dd00040020000403be006102b80062
:104398000403730085837300e00f5300e08f5b0014
:1043a800030032000082eb00040f7800020037009f
:1043b8001e029000040f78001e02780004007800a6
:1043c8000080fa00000006000800fa0020079800a4
:1043d800310798002e02900005002000048fbe00cf
:1043e8003e029000050020001e03900004b3b900af
:1043f800060378009e03780005b8b90080037800aa
:10440800070343009e037800040278000722b800df
:104418000503430086027800048fbe00048fbe00a7
:104428001e02be00432bdd004d22de000402730095
:10443800cd2ade00048fbe00f4ff2f000500200007
:104448001e03be00840f5300858f5b0006003600f4
:10445800f4ff2f0005002000048fbe0084c28000f6
:104468000402e80084c288001e027800240798002d
:104478002e029000040078000080fa000000060078
:104488000a00fa0030079800410798003e029000a1
:10449800e00f520002003a004e02900034079800e4
:1044a8003e02900005002000140798002507980098
:1044b800ae029000f40f200004aab90004037800ab
:1044c8001e0290006022b900040278000403430031
:1044d8009e029000f40f2000042ab8000503430050
:1044e800860278001407980025079800140798009a
:1044f800250798004e029000050020001e0390003a
:10450800ae0390000602420087824a001407980012
:10451800250798001e029000ae029000482bdd008f
:104528004822de0004027300c82ade00140798003f
:10453800250798001e029000040f78004e02900094
:104548009e0f5200020036001e0fe80004003700dc
:104558004e0290009e0f5200010031001e0fe9002c
:104568001e027800040078000080fa0000000600af
:104578000a00fa0030079800410798003e029000b0
:10458800e00f520002003a004e02900034079800f3
:104598003e029000050020001407980025079800a7
:1045a800ae029000f403200004aab90004037800c6
:1045b8001e0290006022b900040278000403430040
:1045c8009e029000f4032000042ab800050343006b
:1045d80086027800140798002507980014079800a9
:1045e800250798004e029000050020001e03900049
:1045f800ae0390000602420087824a001407980022
:10460800250798001e029000ae0290004a2bdd009c
:104618004622de0004027300c62ade001407980052
:10462800250798001e029000040f78004e029000a3
:104638009e0f5200020036001e0fe80004003700eb
:104648004e0290009e0f5200010031001e0fe9003b
:104658001e027800040078000080fa0000000600be
:104668000a00fa0030079800410798003e029000bf
:10467800e00f520002003a004e0290003407980002
:104688003e029000050020001407980025079800b6
:104698002e0290006f22b900040378001e029000d9
:1046a8006022b90004027800040343009e029000cf
:1046b800f4002000042ab8000503430086027800ad
:1046c80014079800250798001407980025079800f4
:1046d8004e029000050020001e039000ae039000db
:1046e8000602420087824a001407980025079800ae
:1046f8001e029000ae0290004c2bdd004422de002a
:1047080004027300c42ade001407980025079800e5
:104718001e029000040f78004e0290009e0f520077
:10472800020036001e0fe800040037004e02900019
:104738009e0f5200010031001e0fe9001e02780092
:10474800040078000080fa000000060000a0fe00c7
:10475800849fbe000000fa00d602a80000000000f6
:10476800000000000000000000000000e222a80095
:104778008600a9008e00a9004400200034c58800e6
:1047880005e1a9000002eb0004088800840020006d
:10479800140888008c60a9008460a90005e1a800bd
:1047a800000000002404800068026200e00f52004c
:1047b800fcff32001516800004002200048262000b
:1047c800e00f5200050032000042eb000440780080
:1047d800c7f6b700cbc2a9000400370014c0b30065
:1047e80004407800c7f6b700cbc2a800c4c2a9002d
:1047f800d602a90005e1a9000002eb000408880020
:104808008460a9008c60a800e416200014088800c1
:1048180005e1a800446c210014427800e04f5200e2
:1048280003003200f4c380000402e800f4c38800e7
:1048380014c0b30004407800c4f6b70014c0b30035
:1048480004407800c5f6b7000080fa004f02be00a9
:104858000080fe00004006003600f800809fbe0081
:10486800829fbe00849fbe00869fbe000200fa00a1
:104878003400200034c588008460a9008c60a90039
:1048880005e1a9000042eb00044f7800a41680005f
:1048980064026200e00f52001e0032004006200051
:1048a800010020006fee0700a41680006402620079
:1048b800e00f5200170032004006200001002000df
:1048c80068ee0700a416800064026200e00f520040
:1048d80010003200400620000100200061ee0700b1
:1048e800a416800064026200e00f52000900320042
:1048f80040062000010020005aee0700a4168000a0
:1049080064026200e00f5200020032000020200022
:10491800220c0700c4c2a8008600a9008e00a800c7
:104928000080fa004f03be004f02be004f01be00d8
:104938004f00be003600f90000400600801f7800d6
:10494800849fbe00861f78000000fa00a042a900dc
:104958008560a90015178000040220000482620007
:10496800e00f520002003200e2a2a9000100370065
:10497800e2a2a8001400200034c58800546c21006d
:1049880014427800e04f5200040032000042eb006d
:1049980004407800c5f6b7006200370024bc200048
:1049a800144278000482fb000514800004034200ce
:1049b80044bc200004024300050a780024bc2000ff
:1049c800144278000482fb0015148000040342009e
:1049d80044cc200004024300050a780024bc2000cf
:1049e800144278000482fb0025148000040342006e
:1049f80044dc200004024300050a780024bc20009f
:104a0800144278000482fb0035148000040342003d
:104a180044ec200004024300050a780024bc20006e
:104a2800144278000482fb0045148000040342000d
:104a380044fc200004024300050a780024bc20003e
:104a4800144278000482fb005514800004034200dd
:104a5800440c210004024300050a780024bc20000d
:104a6800144278000482fb006514800004034200ad
:104a7800441c210004024300050a780024bc2000dd
:104a8800144278000482fb0075148000040342007d
:104a9800443c210004024300050a780024bc20009d
:104aa800144278000482fb0085148000040342004d
:104ab800442c210004024300050a780024bc20008d
:104ac800144278000482fb0095148000040342001d
:104ad800444c210004024300050a780024bc20004d
:104ae800144278000482fb00a514800004034200ed
:104af800445c210004024300050a780024bc20001d
:104b0800144278000442e80004407800c2ebb70081
:104b180024bc2000144278000474a10004407800ea
:104b2800c2ebb700a042a8000080fa004f0378004b
:104b38004f02be004f00780000400600841f780036
:104b48000000fa002400200034c588008940a9002c
:104b580014c480000402e80014c488000080fa002d
:104b68004f02780000400600841f78000000fa0019
:104b7800d400200034c58800143a800044c5880059
:104b880000000000000000000000fe000080fa00a5
:104b98004f02780000400600841f78000000fa00e9
:104ba800e400200034c58800000000000000000078
:104bb8000000fe000080fa004f0278000040060066
:104bc800841f78000000fa00f400200034c5880033
:104bd80000000000000000000000fe000080fa0055
:104be8004f02780000400600841f78000000fa0099
:104bf8000401200034c58800000000000000000007
:104c08000000fe000080fa004f0278000040060015
:104c1800841f78000000fa00c4ab2f0034c5880058
:104c280000000000000000000000fe000080fa0004
:104c38004f027800004006000c00fa005007980068
:104c48005e02900005002000048fbe005e02900006
:104c5800050020001e03900004b3b9000603780085
:104c68009e03780005b8b900800378000703430065
:104c78009e037800040278000722b8000503430069
:104c880086027800048fbe00048fbe001e02be009c
:104c9800422bdd004e22de0004027300ceaade00a5
:104ca800048fbe0004c18000cfa2de001e03900066
:104cb80004b3b900060378009e03780005b8b9006c
:104cc80080037800070343009e03780004027800fd
:104cd8000722b8000503430086027800048fbe004f
:104ce800048fbe001e02be00c62bdd004a22de0075
:104cf80004827300caaade00048fbe001e02be0032
:104d080024079800350798005e02900005002000ef
:104d1800048fbe0014c18000cfa2de001e039000e5
:104d280004b3b900060378009e03780005b8b900fb
:104d380080037800070343009e037800040278008c
:104d48000722b8000503430086027800048fbe00de
:104d5800048fbe001e02be00462bdd004a22de0084
:104d680004027300caaade00048fbe002e0290005f
:104d7800be0290003e034200ae834a000602be0017
:104d8800240798003507980024c18000cfa2de00d0
:104d9800048fbe001e03be00423add00ce32de00a4
:104da800850272004232dd00048fbe002e029000a0
:104db800be0290003e034200ae834a000602be00d7
:104dc8002407980035079800ae039000470798001d
:104dd8004e029000040078000080fa0000000600ef
:104de8000000fa00c489210014427800e24f520002
:104df8000100320007000700c4892100144278002e
:104e0800e24f520001003a00ee0007000080fa006d
:104e1800000006000400fa00881f78003e003700f2
:104e2800608520009511070000427800044f780043
:104e38001e427800ef4f420037003a00608520009c
:104e48008e11070000427800044f78001e42780057
:104e5800ee4f420030003a006085200087110700bd
:104e680000427800044f78001e427800ed4f42005f
:104e780029003a0060852000801107000042780070
:104e88000440780098f8b700608520007b1107007f
:104e980000427800044078009af8b7006085200046
:104ea8007611070000427800044078009bf8b700ac
:104eb80060852000711107000042780004407800e6
:104ec80099f8b700608520006c110700004278004f
:104ed8000482fb00140798001e0290004824dd009d
:104ee8006085200065110700004278000482fb00fd
:104ef80004024400140798001e0090004f060700a3
:104f080000427800e04f52000300320024c0b30092
:104f1800044078009cf8b700c48921001442780046
:104f2800e04f520005003a0060852000711107002b
:104f380000427800e84f5200b9ff3e004f04780065
:104f48000080fa00000006000000fa00d489210061
:104f580014427800e04f520054003200e1cfb30011
:104f68008089200020110700644080004822de006c
:104f78000442780084407800808920001a110700d4
:104f880064408000044278008440780080892000d2
:104f980015110700844080004822de000442780092
:104fa80084407800808920000f1107008440800029
:104fb8000442780084407800808920000a110700a4
:104fc800a440800048a2de000442780084407800b3
:104fd8008089200004110700a44080000442780062
:104fe8008440780080892000ff100700b4408000ca
:104ff80048a2de00044278008440780080892000be
:10500800f9100700b440800004427800844078001a
:1050180080892000f4100700c44080004822de0088
:10502800044278008440780080892000ee10070050
:10503800c4408000044278008440780080892000c1
:10504800e9100700f44180004822de00044278009d
:105058008440780080892000e3100700f441800034
:10506800044278008440780080892000de10070020
:10507800751080000420200004826200e00f5200b6
:105088000a003a00808920002511070000427800b4
:10509800e04f52000500320080892000f710070019
:1050a800004278000482fb00841088000080fa0027
:1050b800000006000600fa002047980031479800d3
:1050c80022079800d489210014427800e04f52004a
:1050d8003a003a002e019000be4090002e40900009
:1050e800bf05070000027800040f780011cfb30055
:1050f80080892000bc10070021cfb30080892000e0
:10510800b910070041cfb30080892000b61007000e
:10511800ae40900080892000b31007002e02900056
:105128004822de000442780084407800808920000c
:10513800ad1007002e0290000442780084407800e9
:1051480080892000a8100700be40900080892000b8
:10515800a51007001e0278004822de0004427800ed
:1051680084407800808920009f1007001e02780084
:105178000442780084407800808920009a10070053
:10518800751080000420200004826200e00f5200a5
:105198000a003a0080892000e110070000427800e8
:1051a800e04f52000500320080892000b31007004c
:1051b800004278000482fb00841088000080fa0016
:1051c800000006000a00fa00a489210014427800b1
:1051d8000482fb00140798001e0290004822dd009c
:1051e80014079800b4892100144278000482fb0057
:1051f8009e02900004824200140798001e0090004e
:10520800000f780084892100144278000482fb0092
:105218002407980084892100144278000482fb0046
:105228006123b90004ff2f00f5ff2f00060242009a
:1052380087824a00a60d200007002000860f520032
:10524800878f5a00e3023e0004600100da0037004d
:10525800dd003700df023700de023700dd023700ed
:10526800dc023700db023700da023700d9023700e8
:10527800d8023700d7023700d6023700d5023700e8
:10528800d4023700d3023700d2023700d1023700e8
:10529800d0023700cf023700ce023700cd023700e8
:1052a800cc023700cb023700ca023700c9023700e8
:1052b800c8023700c7023700c7003700910237001d
:1052c800c40237006c023700c2023700e900370019
:1052d800c0023700bf023700be023700bd023700e8
:1052e800bc023700bb023700ba023700b9023700e8
:1052f800b8023700b7023700b6023700b5023700e8
:10530800b4023700b3023700b2023700a0023700f8
:10531800b0023700af023700ae023700ad023700e7
:10532800ac023700ab023700aa023700a9023700e7
:10533800a8023700a7023700a6023700a5023700e7
:10534800a4023700a3023700a2023700d1003700b9
:10535800dc003700de0037009e0237009d02370070
:105368009c0237009b0237009a02370099023700e7
:1053780098023700970237009602370095023700e7
:1053880094023700930237009202370091023700e7
:10539800900237008f0237008e0237008d023700e7
:1053a8008c0237008b0237008a02370089023700e7
:1053b80088023700870237008602370085023700e7
:1053c80084023700830237008202370081023700e7
:1053d800800237007f0237007e0237007d023700e7
:1053e8007c0237007b0237007a02370079023700e7
:1053f80078023700770237007602370075023700e7
:1054080074023700730237007202370071023700e6
:10541800700237006f0237006e0237006d023700e6
:105428006c0237006b0237006a02370069023700e6
:1054380068023700670237006602370065023700e6
:1054480064023700630237006202370061023700e6
:10545800600237005f0237005e0237005d023700e6
:105468005c0237005b0237005a02370059023700e6
:1054780058023700570237005602370055023700e6
:1054880054023700530237005202370051023700e6
:10549800920037004f0237004e0237004d023700a6
:1054a8004c0237004b0237004a02370049023700e6
:1054b80048023700470237004602370045023700e6
:1054c80044023700430237004202370041023700e6
:1054d800400237003f0237003e0237003d023700e6
:1054e8003c0237003b0237003a02370039023700e6
:1054f80038023700370237003602370035023700e6
:1055080034023700330237003202370031023700e5
:10551800300237002f0237002e0237002d023700e5
:105528002c0237002b0237002a02370029023700e5
:1055380028023700270237002602370025023700e5
:105548002402370023023700220237006b0037009d
:10555800730037007b0037008f0037009700370053
:105568009f003700b3003700bb003700c300370087
:10557800d7003700df003700e7003700fb003700af
:10558800030137000b0137001f01370027013700df
:105598002f013700430137004b0137005301370013
:1055a800670137006f013700770137008b0137003b
:1055b800930137009b0137000042eb00044078005c
:1055c8001ae8b7000302370014c0b300044078009b
:1055d8001ae8b700ff013700a481200014427800c0
:1055e800e04f5200f80132001e0290003407980084
:1055f8003e009000f104070000027800440798007c
:105608003e019000ce009000a0a52000c6f3070040
:10561800e4528000e4b688004454800034b788001f
:10562800053b80000400280004826200e00f52005d
:10563800fbff3a00c4b68000d5b680000202200005
:105648000400be005feb0700053b80000400280053
:1056580004826200e00f5200fbff3a00c4b68000eb
:10566800d5b68000c26d21000400be0074eb0700af
:10567800d801370094892100144278000482fb0085
:1056880004007800e001070000027800040f7800a9
:10569800d00137009489210014427800e14f52006c
:1056a80004003a0014c0b300044078009df8b70025
:1056b800c80137000042eb00044078009df8b700ad
:1056c800c40137001e02900074408800c1013700f1
:1056d8001e00900090408800be013700a58220007f
:1056e8009542780044c2b30084cf5200b8013a0012
:1056f8001400200004c48800b601370094892100f2
:10570800144278000482fb009e02900004034200c9
:10571800c46d210004024300050a7800ad0137007a
:1057280094892100144278000482fb00840242001c
:10573800c46d21000482420014027800040f78002e
:10574800a4013700053b80000400280004826200a1
:10575800e00f5200fbff3a00c4b68000d5b68000c7
:10576800020220000400be0016eb0700053b800083
:105778000400280004826200e00f5200fbff3a0098
:10578800c4b68000d5b68000c26d21000400be00fa
:105798002beb07008f013700948921001442780011
:1057a8000482fb009e029000040342000470210062
:1057b80004024300050a7800860137009489210015
:1057c800144278000482fb00840242000470210025
:1057d8000482420014027800040f78007d0137002b
:1057e800053b80000400280004826200e00f52009c
:1057f800fbff3a00e4b78000f5b780000202200002
:105808000400be00efea0700053b80000400280002
:1058180004826200e00f5200fbff3a00e4b7800008
:10582800f5b78000027021000400be0004eb0700f9
:105838006801370094892100144278000482fb0033
:105848009e029000040342004472210004024300b7
:10585800050a78005f013700948921001442780016
:105868000482fb0084024200447221000482420048
:1058780014027800040f780056013700053b8000b9
:105888000400280004826200e00f5200fbff3a0087
:1058980004b9800015b98000020220000400be008f
:1058a800c8ea0700053b8000040028000482620063
:1058b800e00f5200fbff3a0004b9800015b98000e0
:1058c800427221000400be00ddea070041013700f2
:1058d80094892100144278000482fb009e02900003
:1058e800040342008474210004024300050a78007e
:1058f8003801370094892100144278000482fb00a3
:105908008402420084742100048242001402780058
:10591800040f78002f013700053b800004002800a1
:1059280004826200e00f5200fbff3a0024ba8000b4
:1059380035ba8000020220000400be00a1ea070078
:10594800053b80000400280004826200e00f52003a
:10595800fbff3a0024ba800035ba80008274210027
:105968000400be00b6ea07001a0137009489210036
:10597800144278000482fb009e0290000403420057
:10598800c476210004024300050a7800110137009b
:1059980094892100144278000482fb0084024200aa
:1059a800c47621000482420014027800040f7800b3
:1059b80008013700053b80000400280004826200cb
:1059c800e00f5200fbff3a0044bb800055bb80004b
:1059d800020220000400be007aea0700053b8000ae
:1059e8000400280004826200e00f5200fbff3a0026
:1059f80044bb800055bb8000c27621000400be0075
:105a08008fea0700f30037009489210014427800d8
:105a18000482fb009e0290000403420004792100e6
:105a280004024300050a7800ea003700948921003f
:105a3800144278000482fb008402420004792100a9
:105a48000482420014027800040f7800e100370055
:105a5800053b80000400280004826200e00f520029
:105a6800fbff3a0064bc800075bc80000202200085
:105a78000400be0053ea0700053b8000040028002c
:105a880004826200e00f5200fbff3a0064bc800011
:105a980075bc8000027921000400be0068ea070096
:105aa800cc00370094892100144278000482fb005e
