:020000040000fa
:080000000001040000000000f3
:020000040000fa
:1000080042290000ee280000062900001a290000f5
:100018002e29000042290000422900004229000040
:100028004229000042290000422900001c27000044
:10003800422900004229000042290000422900000c
:10004800422900006e3900009e3900008e2700000a
:100058004229000042290000422900008e280000a1
:10006800e225000042290000422900004229000040
:1000780042290000422900004229000042290000cc
:1000880042290000422900004229000042290000bc
:1000980042290000422900004229000042290000ac
:1000a800422900004229000042290000422900009c
:1000b800422900004229000042290000422900008c
:1000c8004229000042290000d828000042290000e7
:1000d800422900004229000042290000422900006c
:1000e800422900004229000042290000422900005c
:0800f80042290000422900002a
:020000040000fa
:1001080042290000ee280000062900001a290000f4
:100118002e2900004229000042290000422900003f
:100128004229000042290000422900001c27000043
:10013800422900004229000042290000422900000b
:10014800422900006e3900009e3900008e27000009
:100158004229000042290000422900008e280000a0
:10016800e22500004229000042290000422900003f
:1001780042290000422900004229000042290000cb
:1001880042290000422900004229000042290000bb
:1001980042290000422900004229000042290000ab
:1001a800422900004229000042290000422900009b
:1001b800422900004229000042290000422900008b
:1001c8004229000042290000d828000042290000e6
:1001d800422900004229000042290000422900006b
:1001e800422900004229000042290000422900005b
:0801f800422900004229000029
:020000040000fa
:100200000f0022000e7f22000e0188000000000077
:1002100000012000200288000c000700a00025003b
:100220000100200011000700000020000000e00095
:10023000020032000000020000000000cc4b02006f
:10024000000000000040da000000fe004440a90069
:10025000000820000000e000030032000000200041
:10026000a00188004440a800000006009101880019
:10027000800078000000eb0015003700e2804000ad
:1002800032a0b4009101ba00e280400032a0b40074
:100290009102ba00e280400032a0b4000002eb00fc
:1002a000472bde00f507b200602ce10004003a00a5
:1002b0000059eb008301e900fdff3e000400370018
:1002c0006128e100010032000082eb000400070019
:1002d0001101ba000200e000e8ff3a000000060049
:1002e0003159ba008301e9000c0032002159ba00eb
:1002f0008301e900080032000400e00003003a0036
:10030000e280400032a0b400f5ff370011d9ba00f6
:100310008301e900faff3a008100e800e180400033
:1003200032a0b40000000600881f78008a1f780001
:100330004400f800080f2000280288000004900004
:1003400010059000a000900030019000c0019000c6
:100350000300ca000280ca000030cb001a00cd00a2
:100360004604c3000100ca004604c0001e04c000c9
:100370000605c0000100cd0021009800050d7800a1
:10038000eaba9700052578004400f9004f05780087
:100390004f04780000000600801f78004000b00085
:1003a0000008eb004f007800801f780010009000dc
:1003b0000018eb000018eb000008eb004f0078007d
:1003c000000006004400f800020f2000220288000e
:1003d000910078003000ca003080ca000000cb00d5
:1003e0002080ca000000cb003100cd004000ca00d0
:1003f0000000cb000000cb000010cb003100cd008e
:100400001180cc004400f9000000060010118800a3
:100410000111880000000600401188003111880099
:10042000000006003200f800910188000008bb00bf
:10043000410424006210e1000400320000022000a8
:100440000010e1000a003a0051042400013b88003a
:100450000500fc0051052000313b8800a10a200066
:10046000313b880061e7a8000000000000000000a8
:100470003200f900000006003200f8006004240099
:10048000003b8800f2ff37003200f800910188003d
:1004900041002400013b88000208bb00ecff37004c
:1004a0003200f8009101880051002400013b8800cf
:1004b000030120003218bb008301e900fdff3a0070
:1004c000e3ff37003200f8009101880080027800d5
:1004d00062004000e08048003549ba003204e00084
:1004e0000410a700100032008301e9000e00320062
:1004f0002549ba003204e0000410a7000a003200c7
:100500008301e900080032000408a300eeff320076
:1005100015c9ba003204e0000410a700020032003e
:100520008301e900e8ff3a003200f900000006000c
:100530006022b800060220000000d0008180d200b6
:100540000482d2008582d2000000a0000202520084
:1005500083825a00030031000202420083824a0073
:100560000000a1000603e900f3ff3a0000000600c6
:020000040000fa
:1005700064000000630000006300000062000000ef
:100580006200000061000000600000005f000000e9
:100590005e0000005e0000005d0000005c000000e6
:1005a0005b0000005a0000005900000058000000e5
:1005b00057000000560000005400000053000000e7
:1005c00052000000510000004f0000004e000000eb
:1005d0004d0000004b0000004a00000048000000f1
:1005e00047000000450000004300000042000000fa
:1005f000400000003e0000003d0000003b00000005
:100600003900000037000000350000003300000012
:10061000310000002f0000002d0000002b00000022
:100620002900000027000000250000002300000032
:10063000200000001e0000001c0000001900000047
:10064000170000001500000012000000100000005c
:100650000d0000000a000000080000000500000076
:100660000300000000000000000000000000000087
:020000040000fa
:100670000a00fa0004842000144278000482fb007f
:1006800045032000850f520014013200450320006d
:10069000850f52000d003c00e60f52002e00320084
:1006a000e60f520003003c00e40f52001b00320032
:1006b00039033700f40f5200760032004502200063
:1006c000850f52008c00320033033700050a2000ea
:1006d000850f52002d033200050a2000850f5200bd
:1006e00007003c0055032000850f52003601320000
:1006f00045042000850f52007e013200260337009a
:10070000450a2000850f5200ed023200850a2000c4
:10071000850f5200fb0232001f033700240307003d
:100720007b070700980807007a1f0700000278007f
:10073000e00f52000400320004cab3000440780005
:1007400040e8b7001803370044c1b3000440780004
:1007500040e8b70014033700551680000404200059
:100760000482620004f0a7000402ea000402e90027
:100770004f22de00044278000482fb006102620026
:100780004622dd0056168000f5fb2f00850263002f
:100790000482720054168800050307005516800075
:1007a000040420000482620004f0a7000402ea00ae
:1007b0000402e9004f22de00044278000482fb00bc
:1007c000610262004622dd0056168000f5fb2f0014
:1007d000850263000482720054168800ba0707007d
:1007e00055168000040420000482620004f0a70073
:1007f0000402ea000402e9004f22de00044278000d
:100800000482fb00610262004622dd005616800071
:10081000f5fb2f00850263000482720054168800e5
:100820005908070055168000040420000482620065
:1008300004f0a7000402ea000402e9004f22de00ef
:10084000044278000482fb00610262004622dd005f
:1008500056168000f5fb2f008502630004827200ab
:10086000541688002b1f070000027800e00f52008a
:100870000400320004cab3000440780040e8b70026
:10088000c902370044c4b3000440780040e8b70010
:10089000c5023700920e070012003700110a070048
:1008a000ec120700201f070000027800e00f520042
:1008b0000400320044cab3000440780040e8b700a6
:1008c000080037001516800004002400048262002e
:1008d000e00f520003003a0044c2b3000440780025
:1008e00040e8b7000484200014427800f44f52001e
:1008f000eaff3200ac023700ab0e07000002eb004b
:10090000040f78000002eb0064c588006d0037001a
:10091000f4090700cf1207000000000000000000eb
:10092000000000002504800004042000048262000e
:10093000e00f52002f0032001e0fe80084c0a90013
:10094000351780000400210004826200e00f52008d
:100950000300320064c58000e10f520011003a002c
:10096000a20020009e007800a0ac200057080700dd
:10097000a20020009e00780000a720005308070076
:10098000a20020009e00780040b220004f0807001f
:10099000a20020009e007800e0b720004b0807006e
:1009a0001400370054568000040178009e0078003f
:1009b000a0ac2000450807008453800004017800a3
:1009c0009e00780000a720004008070024598000fe
:1009d000040178009e00780040b220003b08070028
:1009e000f45b8000040178009e007800e0b72000ee
:1009f00036080700cc1e070000027800e00f520006
:100a00000400320044cab3000440780040e8b70054
:100a10002c003700151680000400240004826200b8
:100a2000e00f52000400320044c1b30004407800db
:100a300040e8b70023003700847020009e02780051
:100a4000848f5200070036003d1c070044c3b300ea
:100a50000440780040e8b7000002eb0064c588005d
:100a6000180037003517800004002100048262005e
:100a7000e00f52000a003a001e027800f40f520004
:100a8000070036002e1c070044c3b3000440780062
:100a900040e8b7000002eb0064c588000900370099
:100aa00064c58000e10f520006003a00241c0700d4
:100ab00044c3b3000440780040e8b7000002eb00f4
:100ac00064c58800058420009542780044c2b300c4
:100ad00084cf52008eff320033023700280e070009
:100ae000420620004106200080902000f707070002
:100af0004206200041062000c09b2000f3070700ab
:100b00004206200041062000a0ac2000ef070700ad
:100b1000420620004106200000a72000eb07070046
:100b20004206200041062000e0b72000e70707004a
:100b3000420620004106200040b22000e3070700e3
:100b40001b0037006709070042120700761e0700e6
:100b500000027800e00f52000400320084cab300a3
:100b60000440780040e8b7001100370015168000f7
:100b70000400240004826200e00f520004003200ee
:100b800044c1b3000440780040e8b70008003700d3
:100b9000151680000400280004826200e00f520055
:100ba00003003a0054c3b3000440780040e8b700a3
:100bb000058420009542780044c3b30084cf5200de
:100bc000e0ff3200f80137001442800051c32000da
:100bd000040078001a0f070000027800240798002c
:100be0000001eb00ae009000809020008507070018
:100bf0002442800051c3200004007800100f070039
:100c000000027800240798000001eb00ae0090007d
:100c1000c09b20007b0707000002eb001407980030
:100c2000cbe2a9002d0037002e09070009120700aa
:100c3000250480000404200004826200e00f5200ba
:100c40000400320084c0a9001e0290000402e800e3
:100c500014079800341e070000027800e00f5200cd
:100c60000400320084cab3000440780040e8b700b2
:100c70001a00370015168000040024000482620068
:100c8000e00f52000400320044c1b3000440780079
:100c900040e8b70011003700151680000400280056
:100ca00004826200e00f52000400320044c3b3002b
:100cb0000440780040e8b700080037009e0290002a
:100cc00014032000848f52000400360044c4b30093
:100cd0000440780040e8b700800e0700058420003b
:100ce0009542780054c3b30084cf5200ceff320047
:100cf000ad0137000002eb00444288000002eb0027
:100d0000644288000002eb00544288000002eb00bd
:100d1000e4c688006022b80074c6880085c68800d2
:100d20000042eb0004407800daf6b7008c60a800bf
:100d30005d013700c4002000b4c68800e908070040
:100d4000c4110700351780000400280004826200e7
:100d5000e00f520003003a00244180000441880063
:100d6000020037001441800004418800a46d210076
:100d700014427800e04f52002f013200744180008d
:100d8000e00f52000200320000402000a41d0700c6
:100d9000b4002000b4c688006541800004f02f0034
:100da000848f520003003e00644180000402e8008a
:100db0006441880074c6800085c6800061024200dc
:100dc000e0824a0074c6880085c68800c48b210072
:100dd0003400be002401be001400200005002000e5
:100de0006033b8000002420081824a0002034b00d7
:100df00083834b00c08b21000498be000690be0088
:100e0000f44180000402e800f4418800cb0a0700a6
:100e1000c46d21001442780004407800641b070070
:100e2000d56d210095427800c46d210014427800f0
:100e300084cf520003003200e4012000f4b68800a1
:100e400009003700d46d210014427800e04f5200b1
:100e500003003a0084022000f4b688000200370044
:100e600044012000f4b68800d46d210014427800bb
:100e700004407800dcf6b700a0ed200097240700be
:100e800000027800f4408800a0fd200093240700b1
:100e900000027800d440880064418000fd0f5200b9
:100ea00008003e000002eb00444188000002eb0015
:100eb0003441880014c0b300044078002ae8b70029
:100ec000b10037000002eb00b440880065418000ab
:100ed00014c58000848f52002300310004c58000b7
:100ee00005002000340798004507980015c58000cc
:100ef0006441800004825200050020004e039000ef
:100f000004b3b90006037800be03900005b8b90029
:100f10008003780007034300be03900004027800ba
:100f20000722b800050343008602780034079800c2
:100f300045079800340798004507980014c58000bd
:100f4000050020000401be003e009000ce0090008d
:100f500077fd07000002be0034079800450798009f
:100f60003e029000b4408800351780000400240041
:100f700004826200e00f520011003a0024c5800094
:100f8000e00f52000700320005418000b4408000ad
:100f900004824200050020007440880085408800db
:100fa0003100370005418000b440800004825200c7
:100fb0000500200074408800854088002a00370022
:100fc00024c58000e00f5200070032000541800078
:100fd000b440800004824200050020007440880074
:100fe000854088000600370005418000b44080003d
:100ff000048252000500200074408800854088006b
:10100000244280006123b800744080008540800045
:1010100004b8b9000000780006a9b9008200780081
:101020000100400006037800040278000432b80092
:1010300005004000800278007440880085408800e8
:101040007640800087408000a4408000050020009a
:101050000401be000600be0035fd07000002be0010
:101060007440880085408800f44080006123b80007
:1010700074408000854080002403b0000580b000eb
:10108000840f5300858f5b000400390044418000c9
:101090000402e900444188000e003700f44080005b
:1010a0006123b8007040800081408000e4fc2f0084
:1010b000f5ff2f000002420081824a00840f530096
:1010c000858f5b0003003e00444180000402e8007d
:1010d00044418800e44080002503200084824200cf
:1010e000d4408000848f52000400310034418000dd
:1010f000630252003441880009003700e440800058
:10110000e5fc2f0084824200d4408000848f52008e
:1011100003003600344180006302420034418800fd
:101120004541800004642000848f52000300340095
:1011300004642000444188000600370045418000d7
:10114000049c2f00848f520002003d00049c2f005d
:10115000444188003541800084252000848f52005e
:101160000300340084252000344188000600370045
:101170003541800084da2f00848f520002003d0048
:1011800084da2f00344188001442800051c32000cb
:1011900004007800aa0d07000002780024079800d8
:1011a000e5408000743e2000848f52000400360029
:1011b00034418000ae02900004824200240798006f
:1011c0000001eb00ae009000809020000d060700ab
:1011d000a440800051c3200004007800980d07004f
:1011e000000278002407980005418000743e20002a
:1011f000848f52000400360044418000ae0290000b
:1012000004824200240798000001eb00ae00900029
:10121000c09b2000fb050700760707000002eb00db
:101220003408880084c0a9000042eb000440780024
:10123000daf6b700e6100700bb1c070000027800d2
:10124000e00f520005003200d30b070084cab30040
:101250000440780040e8b7001300370015168000fe
:101260000400240004826200e00f520005003200f6
:10127000c90b070044c1b3000440780040e8b70040
:10128000090037001516800004002800048262005f
:10129000e00f520004003200bf0b070044c3b3004c
:1012a0000440780040e8b7000584200095427800ab
:1012b00044c4b30084cf52009efe32003a0037008f
:1012c000070c0700090037008607070061100700b8
:1012d000951c070000027800e00f520003003a005e
:1012e00044c1b3000440780040e8b7000584200002
:1012f0009542780044cab30084cf5200f2ff320016
:10130000290037001e0c07001a0037007507070078
:10131000501007008f1c070000027800e00f5200f9
:101320000400320044cab3000440780040e8b7002b
:1013300010003700151680000400240004826200ab
:10134000e00f52000400320044cab30004407800a9
:1013500040e8b70007003700731c07000002780060
:10136000e00f520003003a0044c3b3000440780089
:1013700040e8b700058420009542780084cab30095
:1013800084cf5200e1ff3200070037005507070005
:1013900030100700fdff370004cab3000440780096
:1013a00040e8b700000000000080fa0000000600de
:1013b0000200fa00b4c68000944188000002eb00ed
:1013c000b4c688000002eb0094c38800043a800091
:1013d00061026200e00f52000300320094c38000fb
:1013e0000440a00094c38800053a8000040820004f
:1013f00004826200e00f52000400320095c38000b6
:10140000040220000482720094c38800053a800020
:101410000404200004826200e00f52000400320045
:1014200095c38000040420000482720094c38800e5
:10143000043a800062026200e00f520003003200b2
:1014400094c380000400a00094c38800053a800083
:101450000400280004826200e00f52000300320002
:1014600094c380000410a00094c38800043a800054
:1014700070026200e00f52000300320094c380004b
:101480000420a00094c38800053a800004002400d2
:1014900004826200e00f52000300320094c3800017
:1014a0000430a00094c388000002eb00e4c288006e
:1014b0000002eb00f4c288000002eb0004c38800c5
:1014c0000002eb0014c388000002eb0024c3880074
:1014d0000002eb0034c388000002eb0044c3880024
:1014e0000002eb0054c388000002eb0064c38800d4
:1014f0000002eb0074c3880014c28000e44088003e
:1015000024c280002441880064c280001441880005
:1015100034c2800014c5880044c28000e4c488003e
:1015200054c28000f4c48800648020001443880002
:10153000a4ff2100244388002086200096fb07009a
:10154000f4282000b4c58800d4a32000c4c58800b6
:10155000d4a32000d4c5880021862000608b210000
:1015600098fb070004802000c442880044ff21004b
:10157000d44288008085200087fb0700f4282000e3
:1015800084c58800d4a3200094c58800d4a320007b
:10159000a4c5880081852000008b210089fb0700fd
:1015a0000060fe00440620008453880004d0270019
:1015b000b45388008080eb000080eb00650c0700ce
:1015c00000027800d4538800d4b78000e453880028
:1015d000e4b78000f4538800a12a29000080eb00c2
:1015e0005c0c07000002780014548800f4b78000f7
:1015f0002454880004b880003454880014548000b7
:1016000084007800005327008d0c0700000278004a
:101610004454880001002200008022004d0c070085
:1016200000027800745488000100220000002100ac
:10163000480c07000002780084548800843e200093
:101640009454880024032000a4548800841a26009f
:1016500014558800311e29000080eb003d0c070066
:10166000000278003455880024b880004455880072
:1016700034b880005455880011b52a000080eb0072
:10168000340c0700000278007455880044b88000cc
:101690008455880054b880009455880074558000a3
:1016a0008400780000592600650c070000027800cd
:1016b000a45588000100220030332200250c0700c9
:1016c00000027800d455880001002200c0cc21001f
:1016d000200c070000027800e455880004fa20007e
:1016e000f4558800240320000456880014b88000b4
:1016f00084027800c4b78000050178008400780077
:1017000000a72000bf04070084252000545688004d
:1017100004dc2500845688008080eb000080eb000c
:101720000c0c070000027800a4568800f4b8800072
:10173000b456880004b98000c4568800a12a290044
:101740000080eb00030c070000027800e4568800dc
:1017500014b98000f456880024b98000045788002a
:10176000e456800084007800801a2600340c0700bc
:1017700000027800145788000100220000002400b5
:10178000f40b070000027800445788000100220093
:1017900000002100ef0b070000027800545788007a
:1017a00004fa200064578800840c200074578800d5
:1017b00004dc2500e4578800211e29000080eb008e
:1017c000e40b0700000278000458880044b9800048
:1017d0001458880054b980002458880011b52a0094
:1017e0000080eb00db0b0700000278004458880003
:1017f00064b980005458880074b980006458880027
:101800004458800084007800802c23000c0c0700d2
:101810000002780074588800010022000080220035
:10182000cc0b070000027800a458880001002200b9
:1018300000802100c70b070000027800b458880020
:1018400004fa2000c4588800840c2000d458880072
:1018500034b9800084027800e4b880000501780083
:1018600084007800a0ac200066040700847020008b
:1018700024598800c4a22100545988008000eb003c
:101880000080eb00b30b0700000278007459880059
:1018900014ba80008459880024ba800094598800c2
:1018a000215e29000080eb00aa0b070000027800ef
:1018b000b459880034ba8000c459880044ba800002
:1018c000d4598800b45980008400780000c22100f7
:1018d000db0b070000027800e459880001002200b9
:1018e000901922009b0b070000027800145a880010
:1018f0000100220060e62100960b0700000278003c
:10190000245a8800843e2000345a8800441f200056
:10191000445a88000002eb00b45a88008000eb00b3
:101920000080eb008b0b070000027800d45a88007f
:1019300064ba8000e45a880074ba8000f45a8800bf
:101940008000eb000080eb00820b070000027800b3
:10195000145b880084ba8000245b880094ba8000fd
:10196000345b8800145b8000840078000000eb008a
:10197000b30b070000027800445b880001002200de
:101980000000eb00730b070000027800745b880016
:10199000010022000000eb006e0b0700000278003f
:1019a000845b88000002eb00945b88000002eb007f
:1019b000a45b880054ba80008402780004ba8000d6
:1019c000050178008400780040b220000d04070073
:1019d00084702000f45b880004772100245c880078
:1019e0008000eb000080eb005a0b0700000278003b
:1019f000445c880034bb8000545c880044bb800099
:101a0000645c8800215e29000080eb00510b070018
:101a100000027800845c880054bb8000945c8800dd
:101a200064bb8000a45c8800845c80008400780033
:101a3000a0862100820b070000027800b45c8800b9
:101a40000100220090192200420b070000027800da
:101a5000e45c88000100220060e621003d0b0700e5
:101a600000027800f45c8800843e2000045d880059
:101a7000441f2000145d88000002eb00845d880094
:101a80008000eb000080eb00320b070000027800c2
:101a9000a45d880084bb8000b45d880094bb800096
:101aa000c45d88008000eb000080eb00290b07007c
:101ab00000027800e45d8800a4bb8000f45d88002b
:101ac000b4bb8000045e8800e45d80008400780080
:101ad0000000eb005a0b070000027800145e88003b
:101ae000010022000000eb001a0b07000002780042
:101af000445e8800010022000000eb00150b070087
:101b000000027800545e88000002eb00645e8800ea
:101b10000002eb00745e880074bb800084027800d1
:101b200024bb80000501780084007800e0b7200025
:101b3000b40307000002eb004448880084a324009b
:101b400074488800517125000080eb00010b0700ec
:101b5000000278009448880054bc8000a4488800a3
:101b600064bc8000b4488800811a26000080eb0025
:101b7000f80a070000027800d448880074bc80008e
:101b8000e448880084bc8000f4488800d448800081
:101b900084007800c0c22400290b070000027800ee
:101ba00004498800010022000000eb00e90a070058
:101bb0000002780034498800010022000000eb0098
:101bc000e40a070000027800444988000002eb00a4
:101bd000544988000002eb00644988000002eb00d1
:101be000d44988008000eb000080eb00d90a070090
:101bf00000027800f4498800a4bc8000044a8800f0
:101c0000b4bc8000144a88008000eb000080eb0028
:101c1000d00a070000027800344a8800c4bc800063
:101c2000444a8800d4bc8000544a8800344a80006a
:101c3000840078000000eb00010b07000002780030
:101c4000644a8800010022000000eb00c10a07007e
:101c500000027800944a8800010022000000eb0096
:101c6000bc0a070000027800a44a88000002eb00ca
:101c7000b44a88000002eb00c44a880094bc80008b
:101c80008402780044bc800005017800840078005c
:101c9000809020005b0307000002eb00e44d880009
:101ca00084a32400144e8800517125000080eb00ad
:101cb000a80a070000027800344e880074bd800036
:101cc000444e880084bd8000544e8800811a26004e
:101cd0000080eb009f0a070000027800744e880025
:101ce00094bd8000844e8800a4bd8000944e88007e
:101cf000744e800084007800c0c22400d00a07001f
:101d000000027800a44e8800010022000000eb00d1
:101d1000900a070000027800d44e880001002200db
:101d20000000eb008b0a070000027800e44e8800f8
:101d30000002eb00f44e88000002eb00044f880024
:101d40000002eb00744f88008000eb000080eb0085
:101d5000800a070000027800944f8800c4bd80000c
:101d6000a44f8800d4bd8000b44f88008000eb00f1
:101d70000080eb00770a070000027800d44f88004b
:101d8000e4bd8000e44f8800f4bd8000f44f88007b
:101d9000d44f8000840078000000eb00a80a070000
:101da0000002780004508800010022000000eb00cf
:101db000680a070000027800345088000100220001
:101dc0000000eb00630a070000027800445088001e
:101dd0000002eb00545088000002eb0064508800c1
:101de000b4bd80008402780064bd800005017800e5
:101df00084007800c09b2000020307000002eb0073
:101e0000144b8800846d2d00444b88008000eb004b
:101e10000080eb004f0a070000027800644b880046
:101e200094be8000744b8800a4be8000844b880060
:101e3000118a2d000080eb00460a0700000278009e
:101e4000a44b8800b4be8000b44b8800c4be8000a0
:101e5000c44b8800a44b80008400780000b22c00a2
:101e6000770a070000027800d44b880001002200a6
:101e700000802200370a070000027800044c880026
:101e80000100220090992100320a07000002780028
:101e9000144c8800843e2000244c8800440120001b
:101ea000344c8800c4ce2200a44c88008000eb0093
:101eb0000080eb00270a070000027800c44c88006d
:101ec000e4be8000d44c8800f4be8000e44c88005e
:101ed000b11124000080eb001e0a07000002780008
:101ee000044d880004bf8000144d880014bf80009a
:101ef000244d8800044d800084007800400d2300ac
:101f00004f0a070000027800344d880001002200cb
:101f1000901922000f0a070000027800644d880023
:101f20000100220060e621000a0a07000002780092
:101f3000744d8800843e2000844d880044012000b8
:101f4000944d88000002eb00c44d88000082eb0035
:101f5000d44d88000002eb00644c88000082eb0046
:101f6000744c8800d4be80008402780084be800057
:101f7000050178008400780020962000a102070067
:101f80000002eb00b4508800846d2d00e4508800fe
:101f90008000eb000080eb00ee09070000027800f3
:101fa00004518800b4bf800014518800c4bf800071
:101fb00024518800118a2d000080eb00e5090700fc
:101fc0000002780044518800d4bf8000545188003a
:101fd000e4bf800064518800445180008400780090
:101fe00000b22c00160a0700000278007451880025
:101ff0000100220000802200d609070000027800bc
:10200000a45188000100220090992100d109070005
:1020100000027800b4518800843e2000c45188003a
:1020200044012000d4518800c4ce220044528800cc
:102030008000eb000080eb00c6090700000278007a
:102040006452880004c080007452880014c080006c
:1020500084528800b11124000080eb00bd09070004
:1020600000027800a452880024c08000b452880086
:1020700034c08000c4528800a452800084007800dc
:10208000400d2300ee09070000027800d4528800ba
:102090000100220090192200ae090700000278001a
:1020a000045388000100220060e62100a90907000e
:1020b0000002780014538800843e200024538800d6
:1020c00044012000345388000002eb006453880070
:1020d0000082eb00745388000002eb000452880079
:1020e0000082eb0014528800f4bf80008402780064
:1020f000a4bf8000050178008400780060a1200062
:10210000400207005516800004042000048262008b
:1021100004f0a7000402ea000402e9004f22de00f6
:10212000044278000482fb00610262004622dd0066
:1021300056168000f5fb2f008502630004827200b2
:1021400054168800d762a900d602a800d742a90079
:10215000d702a900c4e2a800cac2a900cbe2a80025
:10216000c4c2a900d042a800d662a800e2a2a8007a
:10217000cae2a900ca42a900e282a800cbc2a90013
:10218000d6c2a800d6a2a800c522a900d362a90081
:10219000d202a900d242a800cdc2a800cda2a800b8
:1021a000d222a800d322a900d342a900d302a900b9
:1021b000c182a800c1a2a800c0e2a900c6c2a900ad
:1021c000c7e2a900c1c2a800c1e2a800e5a2a80018
:1021d000e582a800e5c2a800e5e2a800d282a80036
:1021e000d2e2a800d382a800d3a2a800cc62a800a3
:1021f000cc82a800e502a800e522a800c142a80000
:10220000c0c2a900cc42a900d262a900dea2a900e6
:10221000c6e2a900c642a900de82a900cde2a9005b
:10222000c7c2a900d2c2a900d2a2a900c122a90096
:102230008e00a9008600a900e40480000400a1002b
:102240000410a0000420a000e40488008220a9005b
:102250008c60a9008460a900a404800004c0a000d0
:1022600004d0a10004e0a000a40488008d60a900af
:102270008560a900c404800004c0a00004d0a000b0
:1022800004e0a100c404880085e0a900c200a80001
:102290008de0a800d404800004c0a10004d0a100f7
:1022a00004e0a000d40488008d20a900c4048000ac
:1022b0000440a0000450a1000460a000c4048800f1
:1022c0008d40a900c40480000440a0000450a10077
:1022d0000460a000c40488008940a9009140a900be
:1022e000440580000480a0000490a00004a0a00089
:1022f00044058800043a80000480a1000490a100f5
:1023000004a0a00004b0a000043a8800f4002f004c
:10231000341088001406200024108800f1fb2d00e2
:10232000b0532b0039f80700f1fb2d00a0f32b0070
:1023300039f8070004102000841c880004102000d5
:10234000842288000042eb0004407800ace8b7002b
:102350000042eb0004407800ade8b7000042eb001b
:1023600004407800eee8b7000042eb00044078003b
:10237000efe8b70004f02f0064108800440020004c
:10238000a4108800f475270074108800d4fa250082
:102390002408880054fa25008408880094d023007b
:1023a000640888000002eb003408880084c0a9009b
:1023b000d4fa2d009408880044422f007408880045
:1023c00054f82500f4088800d4f925000409880091
:1023d0000002eb00c408880086c0a900440d230059
:1023e000e4088800f40d200084478800e40d2000f4
:1023f000a447880004022000b44788000002eb00d4
:10240000c447880014c0b30004407800fae8b7005d
:102410000402200094478800008f20000219070062
:1024200004c4b3000440780002e9b7000042eb00a6
:102430000440780003e9b70004022000e447880064
:1024400004022000f44788000402200004488800a9
:1024500000c2eb000440780004e9b70000c2eb00c2
:102460000440780005e9b700bd150700c48b2100c2
:10247000040f7800f4c08000840278001e02780007
:10248000050a78001e8fe800e4c08000840278000e
:102490001e027800050a78001e8fe800d4c0800074
:1024a000840278001e027800050a78001e8fe8007a
:1024b000c4c08000840278001e027800050a7800fb
:1024c000a48c2100040f780014c1800084027800dd
:1024d0001e027800050a78001e8fe80004c1800003
:1024e000840278001e027800050a78000002eb00e2
:1024f000e4c688006022b80074c6880085c68800db
:1025000024c18000344288000080fa0000000600e8
:102510000200fa000002eb00040f78000002eb005a
:1025200094c388004007a90040e7a90040c7a9005c
:102530004027a90041e7a9004087a90041c7a90099
:102540000002eb00b4c688000002eb00d4c688008d
:10255000008f2000eb1807000041eb00a1c0b30082
:10256000c08f2000b31d0700000278001e0f72000c
:102570000041eb00a1c0b300c08f2000ad1d0700db
:10258000000278001e0f72000041eb00a1c0b300f2
:10259000c08f2000a71d0700000278001e0f7200e8
:1025a00044902000144278000441780041c1b300f7
:1025b000c08f20009f1d0700000278001e0f7200d0
:1025c00054902000144278000441780051c1b300b7
:1025d000c08f2000971d0700000278001e0f7200b8
:1025e00082cfb3008040eb00c08f2000911d070018
:1025f000000278001e0f72000041eb0011c0b30012
:10260000c08f20008b1d0700000278001e0f720093
:102610000041eb0021c0b300c08f2000851d0700e2
:10262000000278001e0f72000041eb0031c0b300c1
:10263000c08f20007f1d0700000278001e0f72006f
:1026400004f02f009e02620004a02f00848f52002d
:1026500007003a0095c3800004082000048272003d
:1026600094c3880004c380000402e80004c3880007
:102670008040eb00c08f2000a01d07000002780002
:10268000040f7800f40f20009e026200840f2000e7
:10269000848f52000700320095c380000408200098
:1026a0000482720094c3880004c380000402e8001e
:1026b00004c388005c07070063070700660707007c
:1026c0000080fa00000006000600fa00d4c6800070
:1026d0000402e800d4c68800344280000402e80006
:1026e000344288003442800024c18800cbe2a90033
:1026f0008085200028f707002086200026f70700a5
:10270000420620004106200080902000ef000700d4
:102710004206200041062000c09b2000eb0007007d
:102720004206200041062000a0ac2000e700070080
:10273000420620004106200000a72000e300070019
:102740004206200041062000e0b72000df0007001d
:10275000420620004106200040b22000db000700b6
:10276000350707002c070700dc0707008c60a9006d
:1027700055168000040420000482620004f0a700c3
:102780000402ea000402e9004f22de00044278005d
:102790000482fb00610262004622dd0056168000c2
:1027a000f5fb2f0085026300048272005416880036
:1027b000cf05070055168000040420000482620043
:1027c00004f0a7000402ea000402e9004f22de0040
:1027d000044278000482fb00610262004622dd00b0
:1027e00056168000f5fb2f008502630004827200fc
:1027f000541688003517800004002400048262000b
:10280000e00f520014003a001442800051c320002f
:10281000040078000a08070000027800040f78001e
:102820000001eb009e0078008090200075000700fa
:102830002442800051c320000400780000080700f3
:1028400000027800040f78000001eb009e00780081
:10285000c09b20006b000700048320001442780016
:10286000e04f52000d003a00544880000400780008
:102870008e0a070000027800140798001e009000de
:10288000d812070000027800240798001e0190006b
:10289000ae00900000a720005a00070055168000e7
:1028a000040420000482620004f0a7000402ea008d
:1028b0000402e9004f22de00044278000482fb009b
:1028c000610262004622dd0056168000f5fb2f00f3
:1028d000850263000482720054168800c501070057
:1028e00055168000040420000482620004f0a70052
:1028f0000402ea000402e9004f22de0004427800ec
:102900000482fb00610262004622dd005616800050
:10291000f5fb2f00850263000482720054168800c4
:10292000ab040700551680000404200004826200f6
:1029300004f0a7000402ea000402e9004f22de00ce
:10294000044278000482fb00610262004622dd003e
:1029500056168000f5fb2f0085026300048272008a
:102960005416880044c4b3000440780040e8b7001f
:102970005d13070064c0b3000440780040e8b7006e
:102980000080fa00000006000000fa0011e1a80033
:1029900021e1a800f4cf27000415880084fe200060
:1029a0001415880064342e002415880034fe2e008f
:1029b0003415880074002c004415880084ff23001f
:1029c00054158800a1e2a8008560a9008d60a800c8
:1029d0008540a9008d40a8008520a9008d20a80071
:1029e0000de2a800e282a8000042eb00044078005b
:1029f000c8f8b700521407000060fe000080fa001b
:102a0000000006000600fa00000f78001107980089
:102a1000220798001e027800b40290001e02900067
:102a2000848f5200080031001e027800b40290002a
:102a30001e0278001502980054c380000402e800ca
:102a400054c38800030037001e0278009e029000e5
:102a5000150298001e027800941a90002e02900031
:102a6000848f5200080031001e027800941a9000f2
:102a70001e0278007512980054c380000402e8001a
:102a800054c38800030037001e027800ae02900095
:102a900075129800058420009542780044c2b30066
:102aa00084cf52000400320042062000410620007c
:102ab0001e007800050007001e0078005400070083
:102ac0000060fe000080fa00000006000a00fa0024
:102ad000200798003107980042079800be02900036
:102ae0004e029000848f5200090039002e0290009f
:102af000940290002e029000250298002e02900071
:102b0000f41290002e029000051a98003c00370045
:102b10002e0290001402900005002000048fbe00d9
:102b20003e029000050020001e03900004b3b9008f
:102b3000060378009e03780005b8b900800378008a
:102b4000070343009e037800040278000722b800c0
:102b50000503430086027800048fbe00048fbe0088
:102b60004e029000050020000401be001e00be00c1
:102b70006ff607000002be00048fbe009e027800c0
:102b80002e029000250298002e02900074129000f0
:102b900005002000048fbe003e02900005002000ca
:102ba0001e03900004b3b900060378009e0378006a
:102bb00005b8b90080037800070343009e0378003e
:102bc000040278000722b80005034300860278005b
:102bd000048fbe00048fbe004e029000050020004e
:102be0000401be001e00be0051f607000002be0038
:102bf000048fbe009e0278002e029000051a9800f5
:102c00002e009000020007000080fa00000006007d
:102c10000600fa00200798002e029000d4029000cf
:102c20002e029000240290008500780004007800b5
:102c30000307070000027800040f78002e029000be
:102c400064029000840078001e007800fc060700f3
:102c500000027800040f78002e02900074029000a9
:102c6000e00f52000c0034002e029000740290001d
:102c70000482ea009e0f5200030031000082eb0044
:102c8000040f78000f0037002e02900074029000ad
:102c90001e0f42000b0037002e02900074029000bd
:102ca0000402ea009e0f5200030036000002eb000f
:102cb000040f7800030037002e0290007402900089
:102cc0001e0f42002e0290009e02780045029800de
:102cd0002e029000b41a90002e029000041a900068
:102ce0008500780004007800d5060700000278000f
:102cf000140798002e029000441a90008400780077
:102d00001e009000ce06070000027800140798000d
:102d10002e029000541a9000e00f52000f00340071
:102d20002e029000541a90008482ea001e02900045
:102d3000848f5200030031000082eb0014079800da
:102d4000150037002e029000541a90009e02900049
:102d500004824200140798000f0037002e029000f2
:102d6000541a90000402ea00840278001e029000c7
:102d7000848f5200030036000002eb001407980015
:102d8000050037002e029000541a90009e02900019
:102d900004824200140798002e0290009e029000c8
:102da000251a98002e029000940a90002e0290009e
:102db000240290008500780004007800a006070037
:102dc00000027800040f78002e029000240a900080
:102dd000840078001e007800990607000002780041
:102de000040f78002e029000340a9000e00f520089
:102df0000c0034002e029000340a90000482ea0095
:102e00009e0f5200030031000082eb00040f780097
:102e10000f0037002e029000340a90001e0f42006f
:102e20000b0037002e029000340a90000402ea00e2
:102e30009e0f5200030036000002eb00040f7800e2
:102e4000030037002e029000340a90001e0f42004b
:102e50002e029000740a9000840078001e00780012
:102e60007706070000027800ae029000d40a9800ae
:102e70002e02900004129000840078001e0078005a
:102e80006f06070000027800ae029000e40a980086
:102e90002e029000d40a90002e029000141290008e
:102ea000848f5200040031002e0290009412900092
:102eb0002e029000550a98002e029000f41a9000fd
:102ec0002e029000041a900085007800040078001b
:102ed0005b06070000027800140798002e0290009d
:102ee00004229000840078001e0090005406070021
:102ef00000027800140798002e029000142290001f
:102f0000e00f52000f0034002e02900014229000b7
:102f10008482ea001e029000848f52000300310078
:102f20000082eb0014079800150037002e02900075
:102f3000541a90009e0290000482420014079800e8
:102f40000f0037002e029000142290000402ea00c5
:102f5000840278001e029000848f52000300360025
:102f60000002eb0014079800050037002e029000c5
:102f7000142290009e0290000482420014079800e0
:102f80002e02900054229000840078001e009000d1
:102f90002b06070000027800ae029000b4229800d1
:102fa0002e02900064229000840078001e009000a1
:102fb0002306070000027800ae029000c4229800a9
:102fc0002e029000b42290002e02900074229000f5
:102fd000848f5200040031002e029000f4229000f1
:102fe0002e029000352298000060fe000080fa005a
:102ff000000006001200fa00a4002000b4c68800f9
:10300000345c8000140798006459800024079800fd
:10301000c45380003407980024558000440798006a
:103020009456800054079800f45780006407980075
:103030008448800074079800244e8000040f980094
:1030400014c0b300044f78000042eb00144798000e
:10305000100037000e82e80084007800008f200006
:10306000b416070000427800044f78001e4290001a
:103070000442e800144798001e427800e04f5200d6
:103080000300320044c380000402e80044c3880007
:103090000060fe009e4278000582fb000402ea0008
:1030a0004f22de008442780014c0b3001e4390001b
:1030b000f34f5300010036000042eb0004c26200ef
:1030c000e04f5200e3ff3a001e429000f34f5200df
:1030d0000200360000022000ed1407000080fa0014
:1030e000000006000c00fa0094002000b4c688001e
:1030f000043a800061026200e00f520003003200d7
:1031000094c380000440a00094c38800053a800066
:103110000408200004826200e00f52000400320024
:1031200095c38000040220000482720094c38800ca
:10313000053a80000404200004826200e00f52007f
:103140000400320095c38000040420000482720051
:1031500094c38800043a800062026200e00f5200cb
:103160000300320094c380000400a00094c38800d0
:10317000053a80000400280004826200e00f52003b
:103180000300320094c380000410a00094c38800a0
:10319000043a800070026200e00f52000300320027
:1031a00094c380000420a00094c38800053a8000e6
:1031b0000400240004826200e00f52000300320089
:1031c00094c380000430a00094c388000060fe0017
:1031d000350480000404200004826200e00f5200e5
:1031e000d400320086c0a900944280000402e800a6
:1031f0006f0262009442880094428000e00f520007
:1032000015003a0055168000040820000482620070
:10321000e00f520002003200cae2a90001003700ac
:10322000cae2a800f5418000d407200004aab90032
:10323000040278008402d100e44180008500780017
:10324000040078002406070000027800e4418800aa
:103250000002eb00f441880044782d007501200045
:10326000048fbe0035c5800084152000848f520075
:1032700002003e009415200034c5880034c580004b
:10328000050020000401be001e00be00a8f40700d7
:103290000002be00048fbe001e02780044c58800f4
:1032a000250480000408200004826200e00f520020
:1032b000020032000002eb0044c588003517800090
:1032c0000400220004826200e00f52000600320077
:1032d000a4418000e00f52000300320020120700da
:1032e000171207000e120700351780000400220095
:1032f00004826200e00f520003003a001400200034
:10330000a4418800020037000002eb00a4418800bd
:10331000d30107000483200014427800e04f5200dc
:103320000d003a005448800004007800df070700d1
:1033300000027800240798002e0090002910070052
:1033400000027800340798002e019000be00900023
:1033500000a72000abfd0700048420001442780081
:10336000f44f520005003200058420009542780099
:1033700044cab30084cf520018003a00420620002d
:103380008000eb0080902000d0fd07004206200066
:103390008000eb0080902000ccfd0700420620005a
:1033a0008000eb00a0ac2000c8fd07004206200012
:1033b0008000eb0000a72000c4fd070042062000ab
:1033c0008000eb00e0b72000c0fd070042062000af
:1033d0008000eb0040b22000bcfd0700c2100700d7
:1033e0005114070000027800e00f52000300320081
:1033f000c4e2a900d042a90002003700c4e2a8003c
:10340000d042a80064832000144278000442e800ff
:103410000440780036e8b700648320001442780046
:103420006f4262000440780036e8b70064832000f1
:1034300014427800e04f520001003a003f000700bc
:10344000a1000700058420009542780044c4b30021
:1034500084cf520005003a002504800004042000b7
:1034600004826200e00f520004003200e1fe070017
:10347000fe0307000002eb00644188006441800005
:10348000e00f520029003a00c5408000f4c48000db
:10349000848f520003003100c44080000402e80021
:1034a000c4408800e4c48000050020004407980060
:1034b00055079800c4408000050020005e0390007e
:1034c00004b3b90006037800ce03900005b8b90034
:1034d0008003780007034300ce03900004027800c5
:1034e0000722b800050343008602780044079800cd
:1034f000550798004407980055079800f4c48000c9
:10350000050020000401be004e009000de00900087
:1035100007f407000002be00440798005507980012
:103520004e02900004c58800020037000002eb0044
:10353000c44088000080fa00000006000200fa0083
:1035400084002000b4c68800855c8000145c800084
:103550008500780004007800b904070000027800b4
:10356000040f7800945c8000840078001e007800ce
:10357000b304070000027800040f7800a45c800008
:103580001e0f42001e0278000402d100044388008e
:10359000745c80000402d100f44288008085200021
:1035a00061f30700b5598000445980008500780018
:1035b00004007800a204070000027800040f7800dd
:1035c000c4598000840078001e0078009c04070025
:1035d00000027800040f7800d45980001e0f4200ca
:1035e0001e0278000402d10054438800a4598000d0
:1035f0000402d10044438800208620004af30700db
:10360000e4428000040f78001e027800e00f5200b0
:1036100002003d000002eb00040f78001e0278005b
:1036200004024200040f780004d027009e027800b4
:10363000848f52000200360004d02700040f780067
:103640000002eb00545c88000002eb00445c880040
:103650001e027800645c880034438000040f780008
:103660001e027800e00f520002003d000002eb0055
:10367000040f78001e02780004024200040f780054
:1036800004d027009e027800848f5200020036008a
:1036900004d02700040f78000002eb008459880052
:1036a0000002eb00745988001e02780094598800cb
:1036b00040b2200056fd0700e0b7200054fd07008f
:1036c0000080fa00000006000a00fa00c4418000f1
:1036d00005002000140798002507980044c58000c5
:1036e000050020002e03900004b3b9000603780003
:1036f0009e03900005b8b9008003780007034300db
:103700009e039000040278000722b80005034300de
:10371000860278001407980025079800140798007f
:10372000250798001e029000ae0290004a2bdd0093
:103730004622de0004027300c62ade001407980049
:10374000250798002e0290006d22b900040378002e
:103750001e0290006022b9000402780004034300b6
:103760009e029000d4002000042ab8000503430004
:10377000860278001407980025079800140798001f
:10378000250798001e029000ae029000452bdd0038
:103790004b22de0004027300cb2ade0014079800df
:1037a000250798001e039000ae039000e4ff2f0051
:1037b00005002000840f5300858f5b000300360056
:1037c0000082eb00d4418800020037001e02900006
:1037d000d4418800f4b68000f40f520009003a008a
:1037e00015b78000d44180000001eb00850078000f
:1037f00004007800dd19070000027800d441880039
:103800000b003700f4b68000fe0f520008003a00ab
:1038100005b78000d44180000001eb0085007800ee
:1038200004007800d119070000027800d441880014
:10383000d441800005002000140798002507980057
:103840001e029000ae029000492bdd004722de00f0
:1038500004027300c72ade001407980025079800a9
:103860009e029000f4032000048262003407980056
:103870003e029000040f78001e027800e00f520014
:1038800002003c000002eb00040f7800e40320007b
:103890009e027800848f520002003400f40320005e
:1038a000040f78009e02780035079800be02900051
:1038b000f40320000482620034079800058420008d
:1038c0009542780044c4b30084cf52000f00320008
:1038d000058420009542780044c3b30084cf520091
:1038e0000a003200058420009542780054c3b300da
:1038f00084cf5200050032000584200095427800f4
:1039000084cab30084cf52000a003a003e029000fd
:1039100084024200842b28000482420014037800b1
:103920004607980042062000ce009000a0ac200080
:1039300066fc07000080fa00000006000400fa00a0
:1039400074002000b4c688002516800004202000e2
:1039500004826200e00f520037003200d6c2a90094
:10396000800c200001002000ce19070021c0b30008
:103970000000eb00231807000002be00048fbe0009
:1039800004002000151121001e03be00840f530007
:10399000858f5b0006003a000002eb00a44288001d
:1039a00024c380000402e80024c38800020037001a
:1039b0001e027800a4428800d6c2a800800c200015
:1039c00001002000b7190700d6a2a900800c200032
:1039d00001002000b319070021c0b3000000eb0074
:1039e000081807000002be00048fbe00040020007b
:1039f000151121001e03be00840f5300858f5b004c
:103a000006003a000002eb00b442880024c38000a4
:103a10000402e80024c38800020037001e02780078
:103a2000b4428800d6a2a800800c2000010020002b
:103a30009c190700070037000002eb00b442880021
:103a40000002eb00a442880034c380000402e800b6
:103a500034c38800c522a9000080fa0000000600d7
:103a60000200fa0064002000b4c68800a0cd200047
:103a70009a19070000027800040f780014428000b1
:103a80009e0078000400780013040700000278000c
:103a900014428800a0dd2000901907000002780081
:103aa000040f7800244280009e0078000400780013
:103ab00009040700000278002442880035178000be
:103ac0000400240004826200e00f520002003a0069
:103ad00024428000a4408800a00d21007f19070027
:103ae00000027800040f7800645580009e00780082
:103af00004007800f803070000027800645588008d
:103b0000a01d21007519070000027800040f78003d
:103b1000045480009e00780004007800ee03070043
:103b20000002780004548800a03d21006b190700b2
:103b300000027800040f7800d45680009e007800c0
:103b400004007800e403070000027800d4568800df
:103b5000a02d21006119070000027800040f7800f1
:103b6000345880009e00780004007800da030700d3
:103b70000002780034588800a04d21005719070032
:103b800000027800040f7800c44880009e0078008e
:103b900004007800d003070000027800c4488800c1
:103ba000a05d21004d19070000027800040f780085
:103bb000644e80009e00780004007800c603070071
:103bc00000027800644e88000080fa0000000600c1
:103bd0000600fa00f4cf270004158800e4fd200059
:103be0001415880064342e002415880034fe2e003d
:103bf0003415880074002c004415880004fc230050
:103c000054158800a1e2a8000002eb00040f780020
:103c10008000370000000000151580000408200017
:103c200004826200e00f5200fbff32000002eb0052
:103c30001407980034003700051480001e02780035
:103c400004034200a4ed200004024300050a7800aa
:103c5000151480001e02780004034200a4fd200019
:103c600004024300050a7800251480001e02780033
:103c700004034200a40d210004024300050a780059
:103c8000351480001e02780004034200a41d2100a8
:103c900004024300050a7800451480001e027800e3
:103ca00004034200a42d210004024300050a780009
:103cb000551480001e02780004034200a43d210038
:103cc00004024300050a7800651480001e02780093
:103cd00004034200a44d210004024300050a7800b9
:103ce000751480001e02780004034200a45d2100c8
:103cf00004024300050a78001e0fe8001e0290002f
:103d00000402e800140798001e029000e70f52001a
:103d1000c9ff3600000000001515800004082000cf
:103d200004826200e00f5200fbff3a000002eb0049
:103d30001407980034003700851480001e027800b4
:103d400004034200a4ed200004024300050a7800a9
:103d5000951480001e02780004034200a4fd200098
:103d600004024300050a7800a51480001e027800b2
:103d700004034200a40d210004024300050a780058
:103d8000b51480001e02780004034200a41d210027
:103d900004024300050a7800c51480001e02780062
:103da00004034200a42d210004024300050a780008
:103db000d51480001e02780004034200a43d2100b7
:103dc00004024300050a7800e51480001e02780012
:103dd00004034200a44d210004024300050a7800b8
:103de000f51480001e02780004034200a45d210047
:103df00004024300050a78001e0fe8001e0290002e
:103e00000402e800140798001e029000e70f520019
:103e1000c9ff3600f40720009e027800848f52000c
:103e20007cff3600a1e2a900a0ed2000ab1807003e
:103e300000027800240798002e029000a459880000
:103e4000a0fd2000a51807000002780024079800b4
:103e50002e029000745c8800a00d21009f180700be
:103e600000027800240798002e0290006455880014
:103e7000a01d21009918070000027800240798006f
:103e80002e02900004548800a03d210093180700e2
:103e900000027800240798002e029000d456880073
:103ea000a02d21008d18070000027800240798003b
:103eb0002e02900034588800a04d2100871807007a
:103ec00000027800240798002e029000c448880061
:103ed000a05d2100811807000002780024079800e7
:103ee0002e029000644e88000080fa000000060058
:103ef0000600fa00f4cf270004158800e4fd200036
:103f00001415880064342e002415880034fe2e0019
:103f10003415880074002c00441588000403200028
:103f200054158800a1e2a8000002eb00040f7800fd
:103f300086003700000000001515800004082000ee
:103f400004826200e00f5200fbff32000002eb002f
:103f50001407980037003700051480001e0278000f
:103f600004034200a4cd200004024300050a7800a7
:103f7000151480001e02780004034200a4dd200016
:103f800004024300050a78001e0fe8002514800093
:103f90001e02780004034200a4cd20000402430066
:103fa000050a7800351480001e02780004034200e0
:103fb000a4dd200004024300050a78001e0fe8007b
:103fc000451480001e02780004034200a4cd2000a6
:103fd00004024300050a7800551480001e02780090
:103fe00004034200a4dd200004024300050a780017
:103ff0001e0fe800651480001e02780004034200d2
:10400000a4cd200004024300050a78007514800046
:104010001e02780004034200a4dd200004024300d5
:10402000050a78001e0fe8001e0290000402e80056
:10403000140798001e029000e30f5200c6ff3600de
:1040400000000000151580000408200004826200b2
:10405000e00f5200fbff3a000002eb00140798004b
:1040600037003700851480001e02780004034200e8
:10407000a4cd200004024300050a780095148000b6
:104080001e02780004034200a4dd20000402430065
:10409000050a78001e0fe800a51480001e027800b3
:1040a00004034200a4cd200004024300050a780066
:1040b000b51480001e02780004034200a4dd200035
:1040c00004024300050a78001e0fe800c5148000b2
:1040d0001e02780004034200a4cd20000402430025
:1040e000050a7800d51480001e02780004034200ff
:1040f000a4dd200004024300050a78001e0fe8003a
:10410000e51480001e02780004034200a4cd2000c4
:1041100004024300050a7800f51480001e027800ae
:1041200004034200a4dd200004024300050a7800d5
:104130001e0fe8001e0290000402e8001407980019
:104140001e029000e30f5200c6ff3600f407200065
:104150009e027800848f520076ff3600a1e2a9000b
:10416000a0cd2000dd17070000027800240798008a
:104170002e02900014428800a0dd2000d71707000f
:1041800000027800240798002e0290002442880044
:104190000080fa00000006000400fa00940280008b
:1041a000040f7800ff3ffc00140280000450a000c0
:1041b0000460a0000470a000140288001e027800b1
:1041c0009402880000008800000000000000000049
:1041d00000000000000000008c60a9008e00a90013
:1041e0009402800014079800ff3ffc001402800036
:1041f0000450a1000460a1000470a1001402880012
:104200001e0290009402880000008800030007004e
:10421000cbe2a8000080fa00000006000200fa00cd
:10422000c48b2100040f78001e027800140278006d
:10423000f4c088001e8fe8001e0278001402780087
:10424000e4c088001e8fe8001e0278001402780087
:10425000d4c088001e8fe8001e0278001402780087
:10426000c4c08800a48c2100040f78001e027800ce
:104270001402780014c188001e8fe8001e02780026
:104280001402780004c18800053b80000400280067
:1042900004826200e00f5200fbff3a00a4c08000dd
:1042a000b5c08000020220000400be005df00700df
:1042b000053b80000400280004826200e00f5200e9
:1042c000fbff3a00a4c08000b5c0800082812100bd
:1042d0000400be0072f007000080fa000000060033
:1042e0000000fa005c0007004f00070056000700be
:1042f000420620008000eb0080902000f3f90700c8
:10430000420620008000eb0080902000eff90700bb
:10431000420620008000eb00a0ac2000ebf9070073
:10432000420620008000eb0000a72000e7f907000c
:10433000420620008000eb00e0b72000e3f9070010
:10434000420620008000eb0040b22000dff90700a9
:104350008085200010f00700208620000ef0070066
:1043600005e1a9008e00a9008c60a9008600a900c3
:104370008460a900c4c2a9000080fa000000060001
:104380000000fa003400070005e1a9008e00a90032
:104390008c60a9008600a9008460a900c4c2a9009d
:1043a0000080fa00000006000000fa00808520006e
:1043b000f9ef070020862000f7ef070042062000f3
:1043c0008000eb0000a72000c0f907004206200093
:1043d0008000eb00a0ac2000bcf9070042062000e2
:1043e0008000eb0040b22000b8f907004206200030
:1043f0008000eb00e0b72000b4f907000e000700d2
:10440000050007000002eb003408880084c0a90002
:104410000080fa00000006000000fa00d702a800a1
:104420000080fa00000006000000fa00d702a90090
:104430000080fa00000006000000fa00d722a80061
:104440000080fa00000006000000fa00d722a90050
:104450000080fa00000006000000fa00d762a90000
:10446000d602a8000080fa00000006000400fa004e
:104470000002eb00040f78000002eb001407980024
:1044800054002000b4c688000584200095427800be
:1044900044c3b30084cf52000f00320005842000d3
:1044a0009542780044c4b30084cf52000a00320021
:1044b000058420009542780084cab30084cf52005e
:1044c00005003200058420009542780054c3b300f3
:1044d00084cf520005003a009e029000f4f72f00ae
:1044e0000482620014079800040037009e029000c6
:1044f00004082000048272001407980044c480005d
:10450000e00f5200040032001e0290000400a000e0
:1045100014079800040037009e029000e4ff2f006b
:10452000048262001407980014c48000e00f520057
:10453000020032001e20a00002003700b4ff2f004e
:104540001e0f6200b5c3800004f02f0004826200d9
:10455000e00f5200040032001e0290000440a00050
:1045600014079800040037009e029000f4fe2f000c
:104570000482620014079800b5c38000f40f200085
:1045800004826200e00f5200040032001e0290001c
:104590000410a00014079800040037009e02900049
:1045a000d4ff2f000482620014079800e5c3800046
:1045b00004f02f0004826200e00f5200020032007b
:1045c0001e00a00002003700e4ff2f001e0f620053
:1045d000e5c38000f40f200004826200e00f520067
:1045e000020032001e10a00002003700d4ff2f008e
:1045f0001e0f6200058420009542780044c4b30079
:1046000084cf520004003a001e0290000420a00053
:1046100014079800040037009e029000b4ff2f009a
:10462000048262001407980044902000144278002d
:104630000482fb009e0f5200100032001e02780020
:10464000044278000440780004e9b7004490200058
:10465000144278000441780041c1b300c08f2000ab
:104660007415070000027800e00f520003003200ca
:1046700004c380000402e80004c3880054902000b2
:10468000144278008482fb001e029000848f520046
:10469000100032001e0290000442780004407800ae
:1046a00005e9b700549020001442780004417800d6
:1046b00051c1b300c08f20005e15070000027800d2
:1046c000e00f52000300320004c380000402e8003f
:1046d00004c388000080fa00000006000000fa0011
:1046e000151680000400220004826200e00f5200d0
:1046f000050032000042eb0004407800dcf6b70011
:10470000cbc2a9000400370014c0b30004407800f5
:10471000dcf6b700cbc2a800d762a800d602a90079
:1047200005e1a9000002eb00040888008460a900ec
:104730008c60a800741720001408880005e1a80008
:104740000002eb003408880084c0a9000080fa0051
:10475000000006000a00fa003007980041079800a0
:104760003e029000050020001407980025079800dd
:104770001e029000ae029000c022dd000400200066
:1047800014079800250798004e02900005002000ad
:104790000401be001e009000ae00900064ef070010
:1047a0000002be0014079800250798001e02900022
:1047b000ae0290004d2bdd004322de0004027300a8
:1047c000c32ade0014079800250798001e039000f6
:1047d000ae03900004002000f5ff2f0006007800d3
:1047e0000703780084037800050278000700600062
:1047f0000402630005002000c022dd000400200048
:104800000403be006102b8000403730085837300d3
:10481000e00f5300e08f5b00030032000082eb00ea
:10482000040f7800020037001e029000040f780089
:104830001e027800040078000080fa0000000600e4
:104840000800fa0020079800310798002e02900017
:1048500005002000048fbe003e02900005002000ed
:104860001e03900004b3b900060378009e0378008d
:1048700005b8b90080037800070343009e03780061
:10488000040278000722b80005034300860278007e
:10489000048fbe00048fbe001e02be00432bdd004d
:1048a0004d22de0004027300cd2ade00048fbe001c
:1048b000f4ff2f00050020001e03be00840f5300ec
:1048c000858f5b0006003600f4ff2f0005002000f6
:1048d000048fbe0064c380000402e80064c3880043
:1048e0001e027800240798002e0290000400780031
:1048f0000080fa00000006000a00fa003007980065
:10490000410798003e029000e00f520002003a007a
:104910004e029000340798003e02900005002000ef
:104920001407980025079800ae029000f40f2000ad
:1049300004aab900040378001e0290006022b900a6
:1049400004027800040343009e029000f40f20004c
:10495000042ab80005034300860278001407980073
:104960002507980014079800250798004e0290002c
:10497000050020001e039000ae03900006024200d6
:1049800087824a0014079800250798001e029000ad
:10499000ae029000482bdd004822de0004027300c6
:1049a000c82ade0014079800250798001e02900010
:1049b000040f78004e0290009e0f52000200360055
:1049c0001e0fe800040037004e0290009e0f5200b8
:1049d000010031001e0fe9001e027800040078007b
:1049e0000080fa00000006000a00fa003007980074
:1049f000410798003e029000e00f520002003a008a
:104a00004e029000340798003e02900005002000fe
:104a10001407980025079800ae029000f4032000c8
:104a200004aab900040378001e0290006022b900b5
:104a300004027800040343009e029000f403200067
:104a4000042ab80005034300860278001407980082
:104a50002507980014079800250798004e0290003b
:104a6000050020001e039000ae03900006024200e5
:104a700087824a0014079800250798001e029000bc
:104a8000ae0290004a2bdd004622de0004027300d5
:104a9000c62ade0014079800250798001e02900021
:104aa000040f78004e0290009e0f52000200360064
:104ab0001e0fe800040037004e0290009e0f5200c7
:104ac000010031001e0fe9001e027800040078008a
:104ad0000080fa00000006000a00fa003007980083
:104ae000410798003e029000e00f520002003a0099
:104af0004e029000340798003e029000050020000e
:104b000014079800250798002e0290006f22b90024
:104b1000040378001e0290006022b90004027800ad
:104b2000040343009e029000f4002000042ab80011
:104b300005034300860278001407980025079800b3
:104b400014079800250798004e02900005002000e9
:104b50001e039000ae0390000602420087824a00c6
:104b600014079800250798001e029000ae029000de
:104b70004c2bdd004422de0004027300c42ade0058
:104b800014079800250798001e029000040f780073
:104b90004e0290009e0f5200020036001e0fe800e9
:104ba000040037004e0290009e0f520001003100b9
:104bb0001e0fe9001e027800040078000080fa0051
:104bc0000000060000a0fe00849fbe000000fa0066
:104bd000d602a80000000000000000000000000055
:104be00000000000c522a8008600a9008e00a900d0
:104bf00044002000b4c6880005e1a9000002eb00d3
:104c00000408880084002000140888008c60a90033
:104c10008460a90005e1a8000002eb00744188004f
:104c20000000000004088000e10f5200fdff360084
:104c3000151680000400210004826200e00f52007b
:104c400003003a001400200074418800010037007e
:104c50000000000004088000e20f5200fdff360053
:104c6000151680000400210004826200e00f52004b
:104c700003003a001400200074418800010037004e
:104c80000000000004088000e20f5200fdff360023
:104c9000151680000400210004826200e00f52001b
:104ca00002003a0014002000744188000002eb006a
:104cb00064408800a416800070026200e00f520079
:104cc00005003200a516800004082000048262005e
:104cd000e00f5200020032001400200064408800ff
:104ce000e2a2a9005408800034c588000002eb004d
:104cf0005408880025048000040820000482620013
:104d0000e00f52000200320054422f0034c58800e8
:104d100084e0a90000000000240480006802620012
:104d2000e00f5200fcff3200151680000400220044
:104d300004826200e00f5200050032000042eb00e6
:104d400004407800ddf6b700cbc2a90004003700ac
:104d500014c0b30004407800ddf6b700cbc2a80051
:104d6000c4c2a900d602a90005e1a9000002eb0017
:104d7000040888008460a9008c60a800e416200064
:104d80001408880005e1a80000000000a4168000b7
:104d900070026200e00f520004003a000408800034
:104da000f30f5200f9ff3600010037000000000049
:104db000a51680000408200004826200e00f520063
:104dc0000300320004088000f30f5200f8ff3600a1
:104dd00004088000f30f52000300360084c38000f3
:104de0000402e80084c38800e2a2a800a4168000a0
:104df00085e0a900a46d210014427800e04f520024
:104e00000300320054c580000402e80054c5880045
:104e100014c0b30004407800daf6b70014c0b30041
:104e200004407800dbf6b7000080fa004f02be00b5
:104e30000080fe00004006003600f800809fbe00a3
:104e4000829fbe00849fbe00869fbe000200fa00c3
:104e500034002000b4c688008460a9008c60a900da
:104e600005e1a9000042eb00044f7800a416800081
:104e700064026200e00f52001e0032004006200073
:104e80000100200087140700a4168000640262005d
:104e9000e00f520017003200400620000100200001
:104ea00080140700a416800064026200e00f520024
:104eb0001000320040062000010020007914070095
:104ec000a416800064026200e00f52000900320064
:104ed000400620000100200072140700a416800084
:104ee00064026200e00f5200020032000020200045
:104ef0002f0d0700c4c2a8008600a9008e00a800dc
:104f00000080fa004f03be004f02be004f01be00fa
:104f10004f00be003600f90000400600801f7800f8
:104f2000849fbe00861f78000000fa00a042a900fe
:104f30008560a900551680000404200004826200e8
:104f4000e00f520002003200cac2a900010037007f
:104f5000cac2a80014002000b4c68800b46d2100a5
:104f600014427800e04f5200040032000042eb008f
:104f700004407800dbf6b7006200370084bd2000f3
:104f8000144278000482fb000514800004034200f0
:104f9000a4bd200004024300050a780084bd20005f
:104fa000144278000482fb001514800004034200c0
:104fb000a4cd200004024300050a780084bd20002f
:104fc000144278000482fb00251480000403420090
:104fd000a4dd200004024300050a780084bd2000ff
:104fe000144278000482fb00351480000403420060
:104ff000a4ed200004024300050a780084bd2000cf
:10500000144278000482fb0045148000040342002f
:10501000a4fd200004024300050a780084bd20009e
:10502000144278000482fb005514800004034200ff
:10503000a40d210004024300050a780084bd20006d
:10504000144278000482fb006514800004034200cf
:10505000a41d210004024300050a780084bd20003d
:10506000144278000482fb0075148000040342009f
:10507000a43d210004024300050a780084bd2000fd
:10508000144278000482fb0085148000040342006f
:10509000a42d210004024300050a780084bd2000ed
:1050a000144278000482fb0095148000040342003f
:1050b000a44d210004024300050a780084bd2000ad
:1050c000144278000482fb00a5148000040342000f
:1050d000a45d210004024300050a780084bd20007d
:1050e000144278000442e80004407800d8ebb7008e
:1050f00084bd2000144278000474a10004407800ac
:10510000d8ebb700a042a8000080fa004f03780057
:105110004f02be004f007800004006003600f80045
:10512000809fbe00829fbe00849fbe00869fbe00ff
:105130000000fa00a5168000040820000482620026
:10514000e00f520012003a0040062000010020004b
:10515000d4130700a5168000040820000482620012
:10516000e00f52000a003a00400620000100200033
:10517000cc130700a51680000408200004826200fa
:10518000e00f520002003a0000402000a40c07008b
:1051900085e0a9000080fa004f03be004f02be0068
:1051a0004f01be004f00be003600f900004006006f
:1051b000841f78000000fa0024002000b4c6880094
:1051c0008940a90074c580000402e80074c5880005
:1051d0000080fa004f02780000400600841f78002b
:1051e0000000fa00d4002000b4c68800143a800001
:1051f000c4c6880000000000000000000000fe009f
:105200000080fa004f02780000400600841f7800fa
:105210000000fa00e4002000b4c68800000000008e
:10522000000000000000fe000080fa004f0278003d
:1052300000400600841f78000000fa00f4002000ff
:10524000b4c6880000000000000000000000fe005e
:105250000080fa004f02780000400600841f7800aa
:105260000000fa0004012000b4c68800000000001d
:10527000000000000000fe000080fa004f027800ed
:1052800000400600841f78000000fa00c4ab2f0025
:10529000b4c6880000000000000000000000fe000e
:1052a0000080fa004f027800004006000c00fa006f
:1052b000500798005e02900005002000048fbe0099
:1052c0005e029000050020001e03900004b3b900a8
:1052d000060378009e03780005b8b90080037800c3
:1052e000070343009e037800040278000722b800f9
:1052f0000503430086027800048fbe00048fbe00c1
:105300001e02be00422bdd004e22de0004027300ae
:10531000ceaade00048fbe00e4c18000cfa2de0072
:105320001e03900004b3b900060378009e037800c2
:1053300005b8b90080037800070343009e03780096
:10534000040278000722b8000503430086027800b3
:10535000048fbe00048fbe001e02be00c62bdd00ff
:105360004a22de0004827300caaade00048fbe0057
:105370001e02be0024079800350798005e029000c8
:1053800005002000048fbe00f4c18000cfa2de0023
:105390001e03900004b3b900060378009e03780052
:1053a00005b8b90080037800070343009e03780026
:1053b000040278000722b800050343008602780043
:1053c000048fbe00048fbe001e02be00462bdd000f
:1053d0004a22de0004027300caaade00048fbe0067
:1053e0002e029000be0290003e034200ae834a00af
:1053f0000602be00240798003507980004c280000a
:10540000cfa2de00048fbe001e03be00423add00c4
:10541000ce32de00850272004232dd00048fbe0013
:105420002e029000be0290003e034200ae834a006e
:105430000602be002407980035079800ae039000ce
:10544000470798004e029000040078000080fa00a0
:10545000000006000000fa00741080006202620082
:10546000e00f5200010032000e22a900848c2100be
:1054700014427800e24f520001003200070007009a
:10548000848c210014427800e24f520001003a005f
:10549000010107000080fa00000006000400fa0085
:1054a000881f78003e003700c08620007812070071
:1054b00000427800044f78001e427800ef4f42000f
:1054c00037003a00c08620007112070000427800c1
:1054d000044f78001e427800ee4f420030003a0040
:1054e000c08620006a12070000427800044f78004e
:1054f0001e427800ed4f420029003a00c08620008d
:10550000631207000042780004407800c4f8b70036
:10551000c08620005e120700004278000440780038
:10552000c6f8b700c0862000591207000042780074
:1055300004407800c7f8b700c08620005412070066
:105540000042780004407800c5f8b700c08620000b
:105550004f120700004278000482fb0014079800f5
:105560001e0290004824dd00c0862000481207007b
:10557000004278000482fb000402440014079800f3
:105580001e0090003707070000427800e04f5200ed
:105590000300320024c0b30004407800c8f8b7000c
:1055a000848c210014427800e04f520005003a003c
:1055b000c08620005412070000427800e84f5200d5
:1055c000b9ff3e004f0478000080fa00000006009a
:1055d0000000fa00948c210014427800e04f520041
:1055e00067003200e1cfb300e08a20000312070019
:1055f00011cfb300e08a2000001207007440800041
:1056000085408000482bdd004822de000402730044
:10561000c82ade000442780084407800e08a200036
:10562000f611070074408000854080000442780035
:1056300084407800e08a2000f0110700d440800008
:105640004822de000442780084407800e08a20008e
:10565000ea110700d44080000442780084407800ba
:10566000e08a2000e5110700f44080004822de00b7
:105670000442780084407800e08a2000df110700af
:10568000f44080000442780084407800e08a2000e2
:10569000da1107003441800048a2de00044278009d
:1056a00084407800e08a2000d41107003441800053
:1056b0000442780084407800e08a2000cf1107007f
:1056c0004441800048a2de00044278008440780013
:1056d000e08a2000c911070044418000044278009c
:1056e00084407800e08a2000c411070064418000f3
:1056f0004822de000442780084407800e08a2000de
:10570000be110700644180000442780084407800a4
:10571000e08a2000b9110700a44280004822de0080
:105720000442780084407800e08a2000b31107002a
:10573000a44280000442780084407800e08a20007f
:10574000ae11070075108000042020000482620062
:10575000e00f52000a003a00e08a2000f51107002d
:1057600000427800e04f520005003200e08a20003d
:10577000c7110700004278000482fb0084108800f3
:105780000080fa00000006000600fa00204798009a
:105790003147980022079800948c21001442780029
:1057a000e04f52003a003a002e019000be409000b7
:1057b0002e4090009406070000027800040f780045
:1057c00011cfb300e08a20008c11070021cfb30075
:1057d000e08a20008911070041cfb300e08a200051
:1057e00086110700ae409000e08a20008311070078
:1057f0002e0290004822de000442780084407800a7
:10580000e08a20007d1107002e02900004427800fb
:1058100084407800e08a200078110700be409000a4
:10582000e08a2000751107001e0278004822de0081
:105830000442780084407800e08a20006f1107005d
:105840001e0278000442780084407800e08a20003c
:105850006a11070075108000042020000482620095
:10586000e00f52000a003a00e08a2000b111070060
:1058700000427800e04f520005003200e08a20002c
:1058800083110700004278000482fb008410880026
:105890000080fa00000006000a00fa00648c210073
:1058a000144278000482fb00140798001e02900046
:1058b0004822dd0014079800748c210014427800ff
:1058c0000482fb009e0290000482420014079800ac
:1058d0001e009000000f7800448c210014427800d4
:1058e0000482fb0024079800448c210014427800b5
:1058f0000482fb006123b90004ff2f00f5ff2f0095
:105900000602420087824a00a60d20000700200000
:10591000860f5200878f5a008e033e0004600100fc
:10592000da003700dd0037008a03370089033700cb
:105930008803370087033700860337008503370065
:105940008403370083033700820337008103370065
:10595000800337007f0337007e0337007d03370065
:105960007c0337007b0337007a0337007903370065
:105970007803370077033700760337007503370065
:10598000740337007303370072033700c700370012
:105990003c0337006f033700170337006d033700f0
:1059a000e90037006b0337006a03370069033700eb
:1059b0006803370067033700660337006503370065
:1059c0006403370063033700620337006103370065
:1059d000600337005f0337005e0337005d03370065
:1059e0004b0337005b0337005a0337005903370076
:1059f0005803370057033700560337005503370065
:105a00005403370053033700520337005103370064
:105a1000500337004f0337004e0337004d03370064
:105a2000d1003700dc003700fa00370037013700bb
:105a30005801370070013700150137004c0137005d
:105a40004e01370050013700420337004103370051
:105a5000400337003f0337003e0337003d03370064
:105a60003c0337003b0337003a0337003903370064
:105a70003803370037033700360337003503370064
:105a80003403370033033700320337003103370064
:105a9000300337002f0337002e0337002d03370064
:105aa0002c0337002b0337002a0337002903370064
:105ab0002803370027033700260337002503370064
