:020000040000fa
:080000000001040000000000f3
:020000040000fa
:10000800fe250000aa250000c2250000d625000014
:10001800ea250000fe250000fe250000fe25000060
:10002800fe250000fe250000fe2500002224000019
:10003800fe250000fe250000fe250000fe2500002c
:10004800fe25000082340000b23400009424000031
:10005800fe250000fe250000fe250000fe2500000c
:100068009c230000fe250000fe250000fe25000060
:10007800fe250000fe250000fe250000fe250000ec
:10008800fe250000fe250000fe250000fe250000dc
:10009800fe250000fe250000fe250000fe250000cc
:1000a800fe250000fe250000fe250000fe250000bc
:1000b800fe250000fe250000fe250000fe250000ac
:1000c800fe250000fe25000094250000fe25000006
:1000d800fe250000fe250000fe250000fe2500008c
:1000e800fe250000fe250000fe250000fe2500007c
:0800f800fe250000fe250000ba
:020000040000fa
:10010800fe250000aa250000c2250000d625000013
:10011800ea250000fe250000fe250000fe2500005f
:10012800fe250000fe250000fe2500002224000018
:10013800fe250000fe250000fe250000fe2500002b
:10014800fe25000082340000b23400009424000030
:10015800fe250000fe250000fe250000fe2500000b
:100168009c230000fe250000fe250000fe2500005f
:10017800fe250000fe250000fe250000fe250000eb
:10018800fe250000fe250000fe250000fe250000db
:10019800fe250000fe250000fe250000fe250000cb
:1001a800fe250000fe250000fe250000fe250000bb
:1001b800fe250000fe250000fe250000fe250000ab
:1001c800fe250000fe25000094250000fe25000005
:1001d800fe250000fe250000fe250000fe2500008b
:1001e800fe250000fe250000fe250000fe2500007b
:0801f800fe250000fe250000b9
:020000040000fa
:100200000f0022000e7f22000e0188000000000077
:1002100000012000200288000c00070040ad2400ef
:10022000010020001f000700000020000000e00087
:10023000020032000000020000000000ea46020056
:10024000000000000040da000000fe004440a90069
:10025000000820000000e000030032000000200041
:10026000a00188004440a80000000600f03fb10053
:100270000180b10006003500ee0309000000000017
:10028000403fb1000180b100fbff3d001000b00015
:10029000203fb0000200350000800900000000008f
:1002a0000000060091018800800078000000eb004b
:1002b00015003700e280400032a0b4009101ba007e
:1002c000e280400032a0b4009102ba00e280400017
:1002d00032a0b4000002eb00472bde00f507b200ad
:1002e000602ce10004003a000059eb008301e900b2
:1002f000fdff3e00040037006128e10001003200ec
:100300000082eb00040007001101ba000200e000c7
:10031000e8ff3a00000006003159ba008301e90005
:100320000c0032002159ba008301e90008003200b4
:100330000400e00003003a00e280400032a0b40074
:10034000f5ff370011d9ba008301e900faff3a003e
:100350008100e800e180400032a0b4000000060007
:100360003200f800910188008002780062004000ad
:10037000e08048003549ba003204e0000410a700cc
:10038000100032008301e9000e0032002549ba0056
:100390003204e0000410a7000a0032008301e900e3
:1003a000080032000408a300eeff320015c9ba00ad
:1003b0003204e0000410a700020032008301e900cb
:1003c000e8ff3a003200f900000006003200f800b1
:1003d000910188000008bb00410424006210e10084
:1003e00004003200000220000010e1000a003a0080
:1003f00051042400013b88000500fc005105200049
:10040000313b8800a10a2000313b880061e7a80049
:1004100000000000000000003200f90000000600ab
:100420003200f80060042400003b8800f2ff37002f
:100430003200f8009101880041002400013b88004f
:100440000208bb00ecff37003200f8009101880081
:1004500051002400013b8800030120003218bb003a
:100460008301e900fdff3a00e3ff37006022b80096
:10047000060220000000d0008180d2000482d20059
:100480008582d2000000a0000202520083825a003e
:10049000030031000202420083824a000000a100f2
:1004a0000603e900f3ff3a0000000600881f780009
:1004b0008a1f78004400f800080f200028028800f6
:1004c0000004900010059000a00090003001900002
:1004d000c00190000300ca000280ca000030cb00b7
:1004e0001a00cd004604c3000100ca004604c00043
:1004f0001e04c0000605c0000100cd0021009800c8
:10050000050d7800eaba9700052578004400f90047
:100510004f0578004f04780000000600801f780027
:100520004000b0000008eb004f007800801f78000a
:10053000100090000018eb000018eb000008eb0022
:100540004f007800000006004400f800020f200071
:1005500022028800910078003000ca003080ca0072
:100560000000cb002080ca000000cb003100cd008d
:100570004000ca000000cb000000cb000010cb0000
:100580003100cd001180cc004400f90000000600cd
:100590001011880001118800000006004011880039
:0805a000311188000000060083
:020000040000fa
:1005a80064000000630000006300000062000000b7
:1005b8006200000061000000600000005f000000b1
:1005c8005e0000005e0000005d0000005c000000ae
:1005d8005b0000005a0000005900000058000000ad
:1005e80057000000560000005400000053000000af
:1005f80052000000510000004f0000004e000000b3
:100608004d0000004b0000004a00000048000000b8
:1006180047000000450000004300000042000000c1
:10062800400000003e0000003d0000003b000000cc
:1006380039000000370000003500000033000000da
:10064800310000002f0000002d0000002b000000ea
:1006580029000000270000002500000023000000fa
:10066800200000001e0000001c000000190000000f
:100678001700000015000000120000001000000024
:100688000d0000000a00000008000000050000003e
:10069800030000000000000000000000000000004f
:020000040000fa
:1006a8000a00fa00a4822000144278000482fb00a9
:1006b80045032000850f5200140132004503200035
:1006c800850f52000d003c00e60f52002e0032004c
:1006d800e60f520003003c00e40f52001b003200fa
:1006e800b8023700f40f52007600320045022000ad
:1006f800850f52008c003200b2023700050a200034
:10070800850f5200ac023200050a2000850f520006
:1007180007003c0055032000850f520036013200c7
:1007280045042000850f52007e013200a5023700e3
:10073800450a2000850f52006c023200850a20000d
:10074800850f52007a0232009e023700a30207008a
:10075800e1060700f1070700fb1c0700000278000c
:10076800e00f52000400320004cab30004407800cd
:100778002ae8b7009702370044c1b3000440780064
:100788002ae8b700930237001517800004022000fa
:100798000482620004f0a7000402ea000402e900ef
:1007a8004f22de00044278000482fb0061026200ee
:1007b8004522dd0016178000f5fd2f008502630035
:1007c800048272001417880084020700151780003d
:1007d800040220000482620004f0a7000402ea0078
:1007e8000402e9004f22de00044278000482fb0084
:1007f800610262004522dd0016178000f5fd2f001a
:10080800850263000482720014178800130707002a
:1008180015178000040220000482620004f0a7007b
:100828000402ea000402e9004f22de0004427800d4
:100838000482fb00610262004522dd001617800079
:10084800f5fd2f00850263000482720014178800ea
:10085800b207070015178000040220000482620016
:1008680004f0a7000402ea000402e9004f22de00b7
:10087800044278000482fb00610262004522dd0028
:1008880016178000f5fd2f008502630004827200b0
:1008980014178800ac1c070000027800e00f520013
:1008a8000400320004cab300044078002ae8b70004
:1008b8004802370044c4b300044078002ae8b7006f
:1008c80044023700610d0700120037006a0907006b
:1008d8003c110700a11c070000027800e00f52003d
:1008e8000400320044cab300044078002ae8b70084
:1008f80008003700151680000400240004826200f6
:10090800e00f520003003a0044c2b30004407800ec
:100918002ae8b700a482200014427800f44f52005d
:10092800eaff32002b0237007a0d07000002eb00c5
:10093800040f78000002eb0004c488006d00370043
:100948004d0907001f11070000000000000000000b
:1009580000000000250480000404200004826200d6
:10096800e00f52002f0032001e0fe80084c0a900db
:10097800351780000400210004826200e00f520055
:100988000300320004c48000e10f520011003a0055
:10099800a20020009e00780040ab2000b0070700ae
:1009a800a20020009e007800a0a52000ac07070048
:1009b800a20020009e007800e0b02000a8070700f1
:1009c800a20020009e00780080b62000a40707003f
:1009d80014003700a4558000040178009e007800b8
:1009e80040ab20009e070700d45280000401780025
:1009f8009e007800a0a52000990707007458800081
:100a0800040178009e007800e0b0200094070700f9
:100a1800445b8000040178009e00780080b62000c6
:100a28008f0707004d1c070000027800e00f5200f6
:100a38000400320044cab300044078002ae8b70032
:100a48002c00370015168000040024000482620080
:100a5800e00f52000400320044c1b30004407800a3
:100a68002ae8b70023003700847020009e0278002f
:100a7800848f520007003600b919070044c3b30039
:100a8800044078002ae8b7000002eb0004c488009c
:100a98001800370035178000040021000482620026
:100aa800e00f52000a003a001e027800f40f5200cc
:100ab80007003600aa19070044c3b30004407800b1
:100ac8002ae8b7000002eb0004c4880009003700d8
:100ad80004c48000e10f520006003a00a019070084
:100ae80044c3b300044078002ae8b7000002eb00d2
:100af80004c48800a58220009542780044c2b3004f
:100b080084cf52008eff3200b2013700f70c070085
:100b18004206200041062000208f200050070700d1
:100b28004206200041062000609a20004c0707007a
:100b3800420620004106200040ab2000480707007d
:100b48004206200041062000a0a520004407070017
:100b5800420620004106200080b62000400707001a
:100b68004206200041062000e0b020003c070700b4
:100b78001b003700c008070092100700f71b07008a
:100b880000027800e00f52000400320084cab3006b
:100b9800044078002ae8b7001100370015168000d5
:100ba8000400240004826200e00f520004003200b6
:100bb80044c1b300044078002ae8b70008003700b1
:100bc800151680000400280004826200e00f52001d
:100bd80003003a0054c3b300044078002ae8b70081
:100be800a58220009542780044c3b30084cf520008
:100bf800e0ff3200770137006441800051c32000d4
:100c080004007800e90d0700000278002407980026
:100c18000001eb00ae009000208f2000de060700e8
:100c28007441800051c3200004007800df0d0700e4
:100c380000027800240798000001eb00ae00900045
:100c4800609a2000d40607000002eb001407980001
:100c5800c522a9002d003700870807005910070092
:100c6800250480000404200004826200e00f520082
:100c78000400320084c0a9001e0290000402e800ab
:100c880014079800b51b070000027800e00f520017
:100c98000400320084cab300044078002ae8b70090
:100ca8001a00370015168000040024000482620030
:100cb800e00f52000400320044c1b3000440780041
:100cc8002ae8b70011003700151680000400280034
:100cd80004826200e00f52000400320044c3b300f3
:100ce800044078002ae8b700080037009e02900008
:100cf80014032000848f52000400360044c4b3005b
:100d0800044078002ae8b7004f0d0700a5822000ac
:100d18009542780054c3b30084cf5200ceff32000e
:100d28002c0137000002eb00944188000002eb0020
:100d3800b44188000002eb00a44188000002eb00e7
:100d480064c588006022b80014c5880025c58800dd
:100d58000042eb0004407800c4f6b7008c60a8009d
:100d6800dc003700c400200034c5880042080700b2
:100d780014100700446c210014427800e04f520020
:100d8800b8003200b400200034c58800c540800097
:100d980004f02f00848f520003003e00c4408000fe
:100da8000402e800c440880014c5800025c58000fe
:100db80061024200e0824a0014c5880025c5880007
:100dc800048921003400be002401be001400200064
:100dd800050020006033b8000002420081824a000a
:100de80002034b0083834b00008921000498be0056
:100df8000690be00444180000402e8004441880097
:100e0800b1090700646c210014427800044078009e
:100e1800ef180700746c2100144278000440780031
:100e2800c6f6b70040ec2000f92107000002780060
:100e38008440880040fc2000f5210700000278006b
:100e480064408800c4408000f30f520005003e0053
:100e58000002eb00b44088000002eb00a4408800c8
:100e680054003700944080000500200034079800a3
:100e78004507980064408000050020004e0390005c
:100e880004b3b90006037800be03900005b8b900a2
:100e98008003780007034300be0390000402780033
:100ea8000722b8000503430086027800340798003b
:100eb800450798003407980045079800744080005b
:100ec800050020000401be003e009000ce00900006
:100ed80064fd07000002be0034079800450798002b
:100ee800844080006123b8003e029000ce0290004a
:100ef8002403b0000580b000840f5300858f5b0089
:100f080004003900b44080000402e900b4408800bd
:100f18000e003700844080006123b8003e00900036
:100f2800ce009000e4fc2f00f5ff2f0000024200e5
:100f380081824a00840f5300858f5b0003003e00c6
:100f4800b44080000402e800b4408800b540800046
:100f580004642000848f52000300340004642000dd
:100f6800b440880006003700b5408000049c2f007c
:100f7800848f520002003d00049c2f00b44088007a
:100f8800a540800084252000848f5200030034008f
:100f980084252000a440880006003700a540800072
:100fa80084da2f00848f520002003d0084da2f007b
:100fb800a44088006441800051c3200004007800e8
:100fc800fa0c07000002780024079800754080009a
:100fd800743e2000848f520004003600a440800034
:100fe800ae02900004824200240798000001eb0042
:100ff800ae009000208f2000e705070074418000b4
:1010080051c3200004007800e80c070000027800b3
:101018002407980095408000743e2000848f520079
:1010280004003600b4408000ae0290000482420002
:10103800240798000001eb00ae009000609a2000a1
:10104800d5050700500707000002eb0034088800a8
:1010580084c0a9000042eb0004407800c4f6b70041
:10106800b20f0700bd1a070000027800e00f520017
:1010780005003200230b070084cab300044078003f
:101088002ae8b70013003700151680000400240072
:1010980004826200e00f520005003200190b0700bd
:1010a80044c1b300044078002ae8b70009003700bb
:1010b800151680000400280004826200e00f520028
:1010c800040032000f0b070044c3b300044078004b
:1010d8002ae8b700a58220009542780044c4b300ee
:1010e80084cf52001fff32003a003700570b070029
:1010f8000900370060070700320f0700971a07003a
:1011080000027800e00f520003003a0044c1b30027
:10111800044078002ae8b700a582200095427800ac
:1011280044cab30084cf5200f2ff320029003700ce
:101138006e0b07001a0037004f070700210f070042
:10114800911a070000027800e00f520004003200f4
:1011580044cab300044078002ae8b70010003700fa
:10116800151680000400240004826200e00f52007b
:101178000400320044cab300044078002ae8b700eb
:1011880007003700751a070000027800e00f5200c8
:1011980003003a0044c3b300044078002ae8b700cb
:1011a800a58220009542780084cab30084cf5200fb
:1011b800e1ff3200070037002f070700010f070083
:1011c800fdff370004cab300044078002ae8b700de
:1011d800000000000080fa00000006000200fa008b
:1011e80034c58000e44088000002eb0034c5880064
:1011f8000002eb00a4c28800043a80006102620089
:10120800e00f520003003200a4c280000440a00096
:10121800a4c28800053a8000040820000482620005
:10122800e00f520004003200a5c280000402200032
:1012380004827200a4c28800053a800004042000d9
:1012480004826200e00f520004003200a5c2800050
:101258000404200004827200a4c28800043a8000ba
:1012680062026200e00f520003003200a4c2800054
:101278000400a000a4c28800053a800004002800e9
:1012880004826200e00f520003003200a4c2800012
:101298000410a000a4c28800043a80007002620012
:1012a800e00f520003003200a4c280000420a00016
:1012b800a4c28800053a8000040024000482620069
:1012c800e00f520003003200a4c280000430a000e6
:1012d800a4c288000002eb0004c288000002eb00f0
:1012e80014c288000002eb0024c288000002eb0050
:1012f80034c288000002eb0044c288000002eb0000
:1013080054c288000002eb0064c288000002eb00af
:1013180074c288000002eb0084c288000002eb005f
:1013280094c288006480200064428800a4ff2100e1
:1013380074428800c084200076fc0700f42820004e
:1013480054c48800d4a3200064c48800d4a3200017
:1013580074c48800c1842000a088210078fc07009c
:10136800048020001442880044ff210024428800a1
:101378002084200067fc0700f428200024c488008b
:10138800d4a3200034c48800d4a3200044c4880017
:10139800218420004088210069fc07000060fe00cd
:1013a80044062000d452880004d027000453880043
:1013b80071322a000080eb00c10b070000027800a0
:1013c80024538800f4b680003453880004b78000a2
:1013d8004453880061ae2a000080eb00b80b070078
:1013e800000278006453880014b7800074538800a2
:1013f80024b78000845388006453800084007800f8
:1014080000532700e90b0700000278009453880076
:101418000100220000802200a90b070000027800ca
:10142800c45388000100220000002100a40b07001b
:1014380000027800d4538800843e2000e4538800da
:1014480024032000f4538800841a2600645488007a
:1014580071322a000080eb00990b07000002780027
:101468008454880044b780009454880054b780009e
:10147800a454880061ae2a000080eb00900b07009e
:1014880000027800c454880064b78000d4548800ef
:1014980074b78000e4548800c45480008400780045
:1014a80000592600c10b070000027800f454880098
:1014b8000100220030332200810b0700000278006f
:1014c8002455880001002200c0cc21007c0b0700b5
:1014d800000278003455880004fa2000445588003a
:1014e800240320005455880034b780008402780013
:1014f800e4b680000501780084007800a0a52000eb
:10150800a504070084252000a455880004dc2500d4
:10151800d455880021eb26000080eb00680b0700fb
:1015280000027800f455880014b88000045688003a
:1015380024b8800014568800c1b02a000080eb004f
:101548005f0b0700000278003456880034b880002a
:101558004456880044b880005456880034568000a9
:1015680084007800801a2600900b0700000278009b
:10157800645688000100220000802200500b0700fa
:1015880000027800945688000100220000802100a3
:101598004b0b070000027800a456880004fa2000cc
:1015a800b4568800840c2000c456880004dc25004a
:1015b800345788008080eb000080eb00400b070068
:1015c800000278005457880064b880006457880087
:1015d80074b8800074578800c10428000080eb00ac
:1015e800370b0700000278009457880084b8800001
:1015f800a457880094b88000b45788009457800096
:1016080084007800802c2300680b07000002780013
:10161800c45788000100220000002400280b07009e
:1016280000027800f4578800010022000000210021
:10163800230b0700000278000458880004fa2000f1
:1016480014588800840c20002458880054b880005e
:101658008402780004b880000501780084007800ce
:1016680040ab20004c0407008470200074588800a8
:10167800c4a22100a45888008000eb000080eb0081
:101688000f0b070000027800c458880034b98000a6
:10169800d458880044b98000e4588800215e2900a5
:1016a8000080eb00060b0700000278000459880050
:1016b80054b980001459880064b9800024598800fe
:1016c800045980008400780000c22100370b07000d
:1016d8000002780034598800010022009019220085
:1016e800f70a070000027800645988000100220008
:1016f80060e62100f20a07000002780074598800a9
:10170800843e200084598800441f20009459880092
:101718000002eb00045a88008000eb000080eb0018
:10172800e70a070000027800245a880084b980007c
:10173800345a880094b98000445a88008000eb002d
:101748000080eb00de0a070000027800645a880077
:10175800a4b98000745a8800b4b98000845a8800fb
:10176800645a8000840078000000eb000f0b07002b
:1017780000027800945a8800010022000000eb0063
:10178800cf0a070000027800c45a8800010022002e
:101798000000eb00ca0a070000027800d45a88004b
:1017a8000002eb00e45a88000002eb00f45a8800bb
:1017b80074b980008402780024b98000050178009b
:1017c80084007800e0b02000f30307008470200054
:1017d800445b880004772100745b88008000eb007c
:1017e8000080eb00b60a070000027800945b8800ce
:1017f80054ba8000a45b880064ba8000b45b880097
:10180800215e29000080eb00ad0a07000002780085
:10181800d45b880074ba8000e45b880084ba8000d6
:10182800f45b8800d45b800084007800a0862100e7
:10183800de0a070000027800045c8800010022002c
:10184800901922009e0a070000027800345c880084
:101858000100220060e62100990a070000027800d2
:10186800445c8800843e2000545c8800441f2000ab
:10187800645c88000002eb00d45c88008000eb0008
:101888000080eb008e0a070000027800f45c8800f4
:10189800a4ba8000045d8800b4ba8000145d880092
:1018a8008000eb000080eb00850a0700000278004a
:1018b800345d8800c4ba8000445d8800d4ba8000d2
:1018c800545d8800345d8000840078000000eb00df
:1018d800b60a070000027800645d88000100220053
:1018e8000000eb00760a070000027800945d88008b
:1018f800010022000000eb00710a070000027800d6
:10190800a45d88000002eb00b45d88000002eb00d3
:10191800c45d880094ba80008402780044ba8000cc
:10192800050178008400780080b620009a0307003b
:101938000002eb009447880004e22400c4478800b2
:10194800517125000080eb005d0a07000002780055
:10195800e447880074bb8000f447880084bb80009b
:1019680004488800811a26000080eb00540a07000a
:10197800000278002448880094bb8000344888001e
:10198800a4bb800044488800244880008400780074
:10199800c0c22400850a0700000278005448880065
:1019a800010022000000eb00450a07000002780051
:1019b80084488800010022000000eb00400a07006c
:1019c80000027800944888000002eb00a4488800d0
:1019d8000002eb00b44888000002eb0024498800ac
:1019e8008000eb000080eb00350a07000002780059
:1019f80044498800c4bb800054498800d4bb800097
:101a0800644988008000eb000080eb002c0a070086
:101a18000002780084498800e4bb8000944988006b
:101a2800f4bb8000a44988008449800084007800c1
:101a38000000eb005d0a070000027800b449880046
:101a4800010022000000eb001d0a070000027800d8
:101a5800e4498800010022000000eb00180a070092
:101a680000027800f44988000002eb00044a88006c
:101a78000002eb00144a8800b4bb8000840278009e
:101a880064bb80000501780084007800208f200066
:101a9800410307000002eb00344d880004e22400f3
:101aa800644d8800517125000080eb00040a07008e
:101ab80000027800844d880094bc8000944d880012
:101ac800a4bc8000a44d8800811a26000080eb0089
:101ad800fb09070000027800c44d8800b4bc8000f0
:101ae800d44d8800c4bc8000e44d8800c44d8000fb
:101af80084007800c0c224002c0a07000002780085
:101b0800f44d8800010022000000eb00ec090700fa
:101b180000027800244e8800010022000000eb003b
:101b2800e709070000027800344e88000002eb0045
:101b3800444e88000002eb00544e88000002eb007f
:101b4800c44e88008000eb000080eb00dc09070031
:101b580000027800e44e8800e4bc8000f44e88005f
:101b6800f4bc8000044f88008000eb000080eb008c
:101b7800d309070000027800244f880004bd8000c4
:101b8800344f880014bd8000444f8800244f8000e3
:101b9800840078000000eb00040a070000027800c7
:101ba800544f8800010022000000eb00c409070020
:101bb80000027800844f8800010022000000eb003a
:101bc800bf09070000027800944f88000002eb006c
:101bd800a44f88000002eb00b44f8800d4bc8000fa
:101be8008402780084bc80000501780084007800b5
:101bf800609a2000e80207000002eb00644a8800af
:101c0800846d2d00944a88008000eb000080eb0072
:101c1800ab09070000027800b44a8800b4bd800010
:101c2800c44a8800c4bd8000d44a8800118a2d00a7
:101c38000080eb00a209070000027800f44a88003f
:101c4800d4bd8000044b8800e4bd8000144b88009c
:101c5800f44a80008400780000b22c00d309070001
:101c680000027800244b8800010022000080220036
:101c78009309070000027800544b880001002200f5
:101c8800909921008e09070000027800644b8800b3
:101c9800843e2000744b880044012000844b880057
:101ca800c4ce2200f44b88008000eb000080eb00db
:101cb8008309070000027800144c880004be8000e5
:101cc800244c880014be8000344c8800b1112400d4
:101cd8000080eb007a09070000027800544c880065
:101ce80024be8000644c880034be8000744c880098
:101cf800544c800084007800400d2300ab09070095
:101d080000027800844c880001002200901922000b
:101d18006b09070000027800b44c8800010022001b
:101d280060e621006609070000027800c44c8800bc
:101d3800843e2000d44c880044012000e44c8800f4
:101d48000002eb00144d88000082eb00244d88004f
:101d58000002eb00b44b88000082eb00c44b880003
:101d6800f4bd800084027800a4bd800005017800dd
:101d780084007800c0942000870207000002eb006e
:101d880004508800846d2d00345088008000eb00da
:101d98000080eb004a0907000002780054508800d0
:101da800d4be800064508800e4be8000745088006f
:101db800118a2d000080eb0041090700000278001d
:101dc80094508800f4be8000a450880004bf8000ae
:101dd800b4508800945080008400780000b22c0031
:101de8007209070000027800c45088000100220030
:101df800008022003209070000027800f4508800b1
:101e080001002200909921002d09070000027800a6
:101e180004518800843e20001451880044012000a9
:101e280024518800c4ce2200945188008000eb0021
:101e38000080eb002209070000027800b4518800f6
:101e480024bf8000c451880034bf8000d45188006a
:101e5800b11124000080eb00190907000002780086
:101e6800f451880044bf80000452880054bf8000a9
:101e780014528800f451800084007800400d23003b
:101e88004a09070000027800245288000100220055
:101e9800901922000a0907000002780054528800ad
:101ea8000100220060e62100050907000002780011
:101eb80064528800843e2000745288004401200047
:101ec800845288000002eb00b45288000082eb00c4
:101ed800c45288000002eb00545188000082eb00d5
:101ee8006451880014bf800084027800c4be80005a
:101ef800050178008400780000a020002602070071
:101f080015178000040220000482620004f0a70074
:101f18000402ea000402e9004f22de0004427800cd
:101f28000482fb00610262004522dd001617800072
:101f3800f5fd2f00850263000482720014178800e3
:101f4800d762a900d602a800d742a900d702a900e3
:101f5800c4e2a800e2a2a900c522a800c4c2a90040
:101f6800d042a800d662a800e822a800e202a90090
:101f7800ca42a900e802a800cbc2a900d6c2a8009c
:101f8800d6a2a800e222a900d362a900d202a90021
:101f9800d242a800cdc2a800cda2a800d222a80093
:101fa800d322a900d342a900d302a900c182a80064
:101fb800c1a2a800c0e2a900dea2a900c122a9000e
:101fc800c1c2a800c1e2a800e5a2a800e582a80055
:101fd800e5c2a800d282a800d2e2a800d382a80055
:101fe800d3a2a800cc62a800cc82a800e502a80071
:101ff800e522a800c142a800c0c2a900cc42a9009d
:10200800d262a900e422a900de02a900c642a90002
:10201800e402a900cde2a900c7c2a900d2c2a90062
:10202800d2a2a900de22a9008e00a9008600a9007c
:10203800e40480000400a1000410a0000420a00013
:10204800e40488008220a9008c60a9008460a900ab
:10205800a404800004c0a00004d0a10004e0a000f3
:10206800a40488008d60a9008560a900c4048000cc
:1020780004c0a10004d0a10004e0a000c4048800aa
:102088008d20a900c40480000440a0000450a000d2
:102098000460a100c40488008d40a900c404800025
:1020a8000440a0000450a0000460a100c4048800fb
:1020b8008940a9009140a900440580000480a0003f
:1020c8000490a00004a0a00044058800043a800001
:1020d8000480a1000490a10004a0a00004b0a00006
:1020e800043a8800f4002f003410880014062000f9
:1020f80024108800f1fb2d00b0532b0022f90700b3
:10210800f1fb2d00a0f32b0022f90700041020009a
:10211800841c880004102000842288000042eb0000
:102128000440780096e8b7000042eb0004407800cd
:1021380097e8b7000042eb0004407800d8e8b70001
:102148000042eb0004407800d9e8b70004f02f0003
:102158006410880044002000a4108800f47527004b
:1021680074108800d4fa25002408880054fa250041
:102178008408880094d02300640888000002eb00db
:102188003408880084c0a90054f82500f4088800a1
:10219800d4f92500040988000002eb00c40888006f
:1021a80086c0a900440d2300e4088800f40d20002f
:1021b800d4468800f40b2000e4468800e40d200093
:1021c800f446880004022000044788000002eb005f
:1021d8001447880014c0b30004407800e4e8b7004e
:1021e800a08d20001d17070004c4b3000440780028
:1021f800ece8b7000042eb0004407800ede8b700d7
:102208000402200034478800040220004447880064
:10221800040220005447880000c2eb000440780004
:10222800eee8b70000c2eb0004407800efe8b70022
:10223800d313070004892100040f780014c080001c
:10224800840278001e027800050a78001e8fe800d4
:1022580004c08000840278001e027800050a780015
:102268001e8fe800f4bf8000840278001e02780008
:10227800050a78001e8fe800e4bf80008402780019
:102288001e027800050a7800e4892100040f78000e
:1022980034c08000840278001e027800050a7800a5
:1022a8001e8fe80024c08000840278001e02780097
:1022b800050a78000002eb0064c588006022b800b7
:1022c80014c5880025c5880044c080008441880062
:1022d8000080fa00000006000200fa000002eb008d
:1022e800040f7800a08d2000131707000041eb00b1
:1022f800a1c0b300608e2000db1b0700000278003d
:102308001e0f72000041eb00a1c0b300608e2000d8
:10231800d51b0700000278001e0f72000041eb0079
:10232800a1c0b300608e2000cf1b07000002780018
:102338001e0f7200e48e20001442780004417800d9
:1023480041c1b300608e2000c71b0700000278005f
:102358001e0f7200f48e20001442780004417800a9
:1023680051c1b300608e2000bf1b07000002780037
:102378001e0f720082cfb3008040eb00608e2000f9
:10238800b91b0700000278001e0f72000041eb0025
:1023980011c0b300608e2000b31b07000002780054
:1023a8001e0f72000041eb0021c0b300608e2000b8
:1023b800ad1b0700000278001e0f72000041eb0001
:1023c80031c0b300608e2000a71b07000002780010
:1023d8001e0f720004f02f009e02620004a02f005e
:1023e800848f520007003a00a5c28000040820002c
:1023f80004827200a4c2880024c280000402e8009b
:1024080024c288008040eb00608e2000c81b0700b3
:1024180000027800040f7800f40f20009e0262008a
:10242800840f2000848f520007003200a5c280006c
:102438000408200004827200a4c2880024c280001c
:102448000402e80024c28800d2060700d906070063
:10245800dc0607000080fa00000006000600fa000b
:1024680054c580000402e80054c5880084418000f7
:102478000402e800844188008441800044c0880048
:10248800c522a9002084200022f80700c08420006b
:1024980020f807004206200041062000208f200077
:1024a800ef0007004206200041062000609a200045
:1024b800eb000700420620004106200040ab200048
:1024c800e70007004206200041062000a0a52000e2
:1024d800e3000700420620004106200080b62000e5
:1024e800df0007004206200041062000e0b020007f
:1024f800db000700ab060700a2060700520707002b
:102508008c60a90015178000040220000482620074
:1025180004f0a7000402ea000402e9004f22de00ea
:10252800044278000482fb00610262004522dd005b
:1025380016178000f5fd2f008502630004827200e3
:1025480014178800450507001517800004022000ad
:102558000482620004f0a7000402ea000402e90011
:102568004f22de00044278000482fb006102620010
:102578004522dd0016178000f5fd2f008502630057
:1025880004827200141788003517800004002400a4
:1025980004826200e00f520014003a006441800097
:1025a80051c320000400780080070700000278006b
:1025b800040f78000001eb009e007800208f2000b7
:1025c800750007007441800051c3200004007800a2
:1025d8007607070000027800040f78000001eb007e
:1025e8009e007800609a20006b000700a4812000fc
:1025f80014427800e04f52000d003a00a4478000d2
:102608000400780085090700000278001407980084
:102618001e009000fb1007000002780024079800b5
:102628001e019000ae009000a0a520005a000700ef
:1026380015178000040220000482620004f0a7003d
:102648000402ea000402e9004f22de000442780096
:102658000482fb00610262004522dd00161780003b
:10266800f5fd2f00850263000482720014178800ac
:10267800c5010700151780000402200004826200cb
:1026880004f0a7000402ea000402e9004f22de0079
:10269800044278000482fb00610262004522dd00ea
:1026a80016178000f5fd2f00850263000482720072
:1026b8001417880021040700151780000402200061
:1026c8000482620004f0a7000402ea000402e900a0
:1026d8004f22de00044278000482fb00610262009f
:1026e8004522dd0016178000f5fd2f0085026300e6
:1026f800048272001417880044c4b30004407800b0
:102708002ae8b7008011070064c0b30004407800cd
:102718002ae8b7000080fa00000006000000fa006e
:1027280011e1a80021e1a800f4cf270004158800d2
:1027380084fe20001415880064342e0024158800b7
:1027480034fe2e003415880074002c0044158800cf
:1027580084ff230054158800a1e2a8008560a90021
:102768008d60a8008540a9008d40a8008520a9009b
:102778008d20a8000de2a800e802a8000042eb00a6
:10278800044078009cf8b700751207000060fe004e
:102798000080fa00000006000600fa00000f78002a
:1027a80011079800220798001e027800b4029000d2
:1027b8001e029000848f5200080031001e0278002b
:1027c800b40290001e0278001502980074c28000be
:1027d8000402e80074c28800030037001e02780073
:1027e8009e029000150298001e027800941a90002c
:1027f8002e029000848f5200080031001e027800db
:10280800941a90001e0278007512980074c2800015
:102818000402e80074c28800030037001e02780032
:10282800ae02900075129800a582200095427800ab
:1028380044c2b30084cf5200040032004206200094
:10284800410620001e007800050007001e007800e1
:10285800540007000060fe000080fa000000060037
:102868000a00fa00200798003107980042079800ec
:10287800be0290004e029000848f52000900390079
:102888002e029000940290002e02900025029800db
:102898002e029000f41290002e029000051a980063
:1028a8003c0037002e029000140290000500200022
:1028b800048fbe003e029000050020001e03900019
:1028c80004b3b900060378009e03780005b8b90080
:1028d80080037800070343009e0378000402780011
:1028e8000722b8000503430086027800048fbe0063
:1028f800048fbe004e029000050020000401be00b7
:102908001e00be00d7f607000002be00048fbe00fe
:102918009e0278002e029000250298002e02900058
:102928007412900005002000048fbe003e02900043
:10293800050020001e03900004b3b90006037800c8
:102948009e03780005b8b9008003780007034300a8
:102958009e037800040278000722b80005034300ac
:1029680086027800048fbe00048fbe004e029000dd
:10297800050020000401be001e00be00b9f60700d5
:102988000002be00048fbe009e0278002e02900056
:10299800051a98002e009000020007000080fa0037
:1029a800000006000600fa00200798002e0290009a
:1029b800d40290002e029000240290008500780036
:1029c800040078007906070000027800040f7800f8
:1029d8002e02900064029000840078001e007800a7
:1029e8007206070000027800040f78002e0290009b
:1029f80074029000e00f52000c0034002e02900088
:102a0800740290000482ea009e0f52000300310015
:102a18000082eb00040f78000f0037002e029000b0
:102a2800740290001e0f42000b0037002e02900027
:102a3800740290000402ea009e0f52000300360060
:102a48000002eb00040f7800030037002e0290000c
:102a5800740290001e0f42002e0290009e02780021
:102a6800450298002e029000b41a90002e029000a1
:102a7800041a900085007800040078004b060700cf
:102a880000027800140798002e029000441a900063
:102a9800840078001e0090004406070000027800b9
:102aa800140798002e029000541a9000e00f52006c
:102ab8000f0034002e029000541a90008482ea001d
:102ac8001e029000848f5200030031000082eb0048
:102ad80014079800150037002e029000541a900031
:102ae8009e02900004824200140798000f003700ed
:102af8002e029000541a90000402ea008402780022
:102b08001e029000848f5200030036000002eb0082
:102b180014079800050037002e029000541a900000
:102b28009e02900004824200140798002e02900032
:102b38009e029000251a98002e029000940a900098
:102b48002e0290002402900085007800040078008e
:102b58001606070000027800040f78002e02900085
:102b6800240a9000840078001e0078000f060700f1
:102b780000027800040f78002e029000340a9000ba
:102b8800e00f52000c0034002e029000340a90002e
:102b98000482ea009e0f5200030031000082eb001d
:102ba800040f78000f0037002e029000340a9000be
:102bb8001e0f42000b0037002e029000340a9000ce
:102bc8000402ea009e0f5200030036000002eb00e8
:102bd800040f7800030037002e029000340a90009a
:102be8001e0f42002e029000740a900084007800a4
:102bf8001e007800ed05070000027800ae02900084
:102c0800d40a98002e0290000412900084007800e4
:102c18001e007800e505070000027800ae0290006b
:102c2800e40a98002e029000d40a90002e02900028
:102c380014129000848f5200040031002e0290007c
:102c4800941290002e029000550a98002e029000cf
:102c5800f41a90002e029000041a90008500780063
:102c680004007800d10507000002780014079800d6
:102c78002e02900004229000840078001e0090002c
:102c8800ca05070000027800140798002e02900079
:102c980014229000e00f52000f0034002e02900022
:102ca800142290008482ea001e029000848f520051
:102cb800030031000082eb0014079800150037006c
:102cc8002e029000541a90009e0290000482420046
:102cd800140798000f0037002e029000142290006d
:102ce8000402ea00840278001e029000848f5200d9
:102cf800030036000002eb001407980005003700b7
:102d08002e029000142290009e029000048242003d
:102d1800140798002e029000542290008400780036
:102d28001e009000a105070000027800ae02900086
:102d3800b42298002e02900064229000840078004b
:102d48001e0090009905070000027800ae0290006e
:102d5800c42298002e029000b42290002e02900007
:102d680074229000848f5200040031002e029000db
:102d7800f42290002e029000352298000060fe0098
:102d88000080fa00000006001200fa00a4002000eb
:102d980034c58800845b800014079800b45880000c
:102da8002407980014538000340798007454800056
:102db80044079800e4558000540798004457800061
:102dc80064079800d447800074079800744d800009
:102dd800040f980014c0b300044f78000042eb00c1
:102de80014479800100037000e82e800840078002d
:102df800a08d2000dc14070000427800044f780002
:102e08001e4290000442e800144798001e427800d1
:102e1800e04f52000300320064c280000402e80060
:102e280064c288000060fe009e4278000582fb00b4
:102e38000402ea004f22de008442780014c0b30086
:102e48001e439000f34f5300010036000042eb0090
:102e580004c26200e04f5200e3ff3a001e429000b5
:102e6800f34f52000200360000022000151307003d
:102e78000080fa00000006000400fa009400200018
:102e880034c58800043a800061026200e00f5200f5
:102e980003003200a4c280000440a000a4c288003d
:102ea800053a80000408200004826200e00f520006
:102eb80004003200a5c280000402200004827200cf
:102ec800a4c28800053a800004042000048262003d
:102ed800e00f520004003200a5c280000404200064
:102ee80004827200a4c28800043a80006202620070
:102ef800e00f520003003200a4c280000400a000ca
:102f0800a4c28800053a80000400280004826200f8
:102f1800e00f520003003200a4c280000410a00099
:102f2800a4c28800043a800070026200e00f5200d8
:102f380003003200a4c280000420a000a4c28800bc
:102f4800053a80000400240004826200e00f520069
:102f580003003200a4c280000430a000a4c288008c
:102f68000060fe0035048000040420000482620032
:102f7800e00f52008c00320086c0a900e4418000b6
:102f88000402e8006f026200e4418800e441800026
:102f9800e00f520014003a0014178000610262002a
:102fa800e00f520002003200e202a90001003700df
:102fb800e202a80045418000d407200004aab90015
:102fc800040278008402d100344180008500780032
:102fd800040078009b05070000027800344188004f
:102fe8000002eb00444188003517800004002200ed
:102ff80004826200e00f520006003200f4408000b4
:10300800e00f5200030032005d1007005410070063
:103018004b1007003517800004002200048262006c
:10302800e00f520003003a0014002000f44088002a
:10303800020037000002eb00f44088006a01070034
:10304800a481200014427800e04f52000d003a009d
:10305800a447800004007800f0060700000278000a
:10306800040f78001e007800660e07000002780042
:10307800140798001e0178009e009000a0a520006b
:10308800c5fd0700a482200014427800f44f5200c6
:1030980005003200a58220009542780044cab3009a
:1030a80084cf520018003a00420620008000eb004e
:1030b800208f2000eafd0700420620008000eb0078
:1030c800208f2000e6fd0700420620008000eb006c
:1030d80040ab2000e2fd0700420620008000eb0024
:1030e800a0a52000defd0700420620008000eb00be
:1030f80080b62000dafd0700420620008000eb00c1
:10310800e0b02000d6fd0700ff0e0700931207006d
:1031180000027800e00f520003003200c4e2a90068
:10312800d042a90002003700c4e2a800d042a8009b
:1031380004822000144278000442e8000440780029
:1031480020e8b70004822000144278006f42620031
:103158000440780020e8b700048220001442780078
:10316800e04f520001003a00110007007300070009
:10317800a58220009542780044c4b30084cf520051
:1031880005003a002504800004042000048262003f
:10319800e00f520004003200fbfe07008e03070018
:1031a8000002eb00c44088000080fa00000006001e
:1031b8000200fa008400200034c58800d55b800036
:1031c800645b8000850078000400780077040700bd
:1031d80000027800040f7800e45b80008400780027
:1031e8001e0078007104070000027800040f7800c0
:1031f800f45b80001e0f42001e0278000402d1001a
:1032080054428800c45b80000402d1004442880014
:1032180020842000a3f407000559800094588000fa
:103228008500780004007800600407000002780038
:10323800040f780014598000840078001e0078007c
:103248005a04070000027800040f7800245980000f
:103258001e0f42001e0278000402d100a44288001a
:10326800f45880000402d10094428800c0842000f1
:103278008cf4070034428000040f78001e027800a6
:10328800e00f520002003d000002eb00040f78003e
:103298001e02780004024200040f780004d02700c0
:1032a8009e027800848f52000200360004d0270066
:1032b800040f78000002eb00a45b88000002eb001a
:1032c800945b88001e027800b45b8800844280000a
:1032d800040f78001e027800e00f520002003d0043
:1032e8000002eb00040f78001e027800040242007e
:1032f800040f780004d027009e027800848f5200c3
:103308000200360004d02700040f78000002eb000a
:10331800d45888000002eb00c45888001e027800c8
:10332800e4588800e0b020009efd070080b6200029
:103338009cfd07000080fa00000006000800fa0063
:103348001441800005002000048fbe003441800035
:10335800050020001e03900004b3b900060378009e
:103368009e03780005b8b90080037800070343007e
:103378009e037800040278000722b8000503430082
:1033880086027800048fbe00048fbe001e02be00b5
:103398004a2bdd004622de0004027300c62ade0046
:1033a800048fbe001e0290006d22b900040378004d
:1033b8001e0278006022b90004027800040343006a
:1033c8009e027800d4002000042ab80005034300b8
:1033d80086027800048fbe00048fbe001e02be0065
:1033e800452bdd004b22de0004027300cb2ade00f1
:1033f800048fbe00e4ff2f00050020001e03be005e
:10340800840f5300858f5b00030036000082eb00b9
:1034180024418800020037001e02780024418800f9
:103428001e02be00492bdd004722de0004027300a5
:10343800c72ade00048fbe009e027800f407200031
:103448000482620024079800a58220009542780033
:1034580044c4b30084cf52000f003200a58220007c
:103468009542780044c3b30084cf52000a0032006a
:10347800a58220009542780054c3b30084cf52003f
:1034880005003200a58220009542780084cab30066
:1034980084cf52000a003a002e02900084024200b3
:1034a800442d2800048242009402780035079800d1
:1034b80042062000be00900040ab2000e8fc070058
:1034c8000080fa00000006000400fa0074002000e2
:1034d80034c588001417800062026200e00f5200b1
:1034e80037003200d6c2a900800c2000010020005d
:1034f8005cf3070021c0b3000000eb00ce16070004
:103508000002be00048fbe00040020001511210037
:103518001e03be00840f5300858f5b0006003a002f
:103528000002eb00f441880044c280000402e80075
:1035380044c28800020037001e027800f441880067
:10354800d6c2a800800c20000100200045f3070027
:10355800d6a2a900800c20000100200041f307003a
:1035680021c0b3000000eb00b31607000002be0044
:10357800048fbe0004002000151121001e03be00a8
:10358800840f5300858f5b0006003a000002eb00b1
:103598000442880044c280000402e80044c2880053
:1035a800020037001e02780004428800d6a2a80054
:1035b800800c2000010020002af3070007003700d4
:1035c8000002eb00044288000002eb00f44188008e
:1035d80054c280000402e80054c28800e222a90014
:1035e8000080fa00000006000200fa0064002000d3
:1035f80034c5880040cc2000051807000002780078
:10360800040f7800644180009e0078000400780070
:103618000c040700000278006441880040dc2000a8
:10362800fb17070000027800040f7800744180003f
:103638009e00780004007800020407000002780069
:1036480074418800400c2100f1170700000278003f
:10365800040f7800b45480009e00780004007800bd
:10366800f803070000027800b4548800401c2100c9
:10367800e717070000027800040f78005453800011
:103688009e00780004007800ee030700000278002e
:1036980054538800403c2100dd17070000027800e1
:1036a800040f7800245680009e00780004007800fb
:1036b800e40307000002780024568800402c21000b
:1036c800d317070000027800040f780084578000a1
:1036d8009e00780004007800da03070000027800f2
:1036e80084578800404c2100c91707000002780061
:1036f800040f7800144880009e00780004007800c9
:10370800d00307000002780014488800405c2100bc
:10371800bf17070000027800040f7800b44d80003e
:103728009e00780004007800c603070000027800b5
:10373800b44d88000080fa00000006000600fa0078
:10374800f4cf270004158800e4fd20001415880034
:1037580064342e002415880034fe2e0034158800a9
:1037680074002c004415880004fc230054158800bc
:10377800a1e2a8000002eb00040f780080003700e7
:103788000000000015158000040820000482620073
:10379800e00f5200fbff32000002eb001407980014
:1037a80034003700051480001e027800040342002c
:1037b80044ec200004024300050a78001514800038
:1037c8001e0278000403420044fc20000402430067
:1037d800050a7800251480001e02780004034200c0
:1037e800440c210004024300050a780035148000c7
:1037f8001e02780004034200441c21000402430016
:10380800050a7800451480001e027800040342006f
:10381800442c210004024300050a78005514800056
:103828001e02780004034200443c210004024300c5
:10383800050a7800651480001e027800040342001f
:10384800444c210004024300050a780075148000e6
:103858001e02780004034200445c21000402430075
:10386800050a78001e0fe8001e0290000402e80016
:10387800140798001e029000e70f5200c9ff360097
:103888000000000015158000040820000482620072
:10389800e00f5200fbff3a000002eb00140798000b
:1038a80034003700851480001e02780004034200ab
:1038b80044ec200004024300050a780095148000b7
:1038c8001e0278000403420044fc20000402430066
:1038d800050a7800a51480001e027800040342003f
:1038e800440c210004024300050a7800b514800046
:1038f8001e02780004034200441c21000402430015
:10390800050a7800c51480001e02780004034200ee
:10391800442c210004024300050a7800d5148000d5
:103928001e02780004034200443c210004024300c4
:10393800050a7800e51480001e027800040342009e
:10394800444c210004024300050a7800f514800065
:103958001e02780004034200445c21000402430074
:10396800050a78001e0fe8001e0290000402e80015
:10397800140798001e029000e70f5200c9ff360096
:10398800f40720009e027800848f52007cff3600e6
:10399800a1e2a90040ec20001d17070000027800f2
:1039a800240798002e029000f458880040fc20005c
:1039b8001717070000027800240798002e029000cd
:1039c800c45b8800400c2100111707000002780032
:1039d800240798002e029000b4548800401c21004f
:1039e8000b17070000027800240798002e029000a9
:1039f80054538800403c2100051707000002780056
:103a0800240798002e02900024568800402c21009c
:103a1800ff16070000027800240798002e02900085
:103a280084578800404c2100f916070000027800ee
:103a3800240798002e02900014488800405c21005a
:103a4800f316070000027800240798002e02900061
:103a5800b44d88000080fa00000006000600fa0055
:103a6800f4cf270004158800e4fd20001415880011
:103a780064342e002415880034fe2e003415880086
:103a880074002c0044158800040320005415880095
:103a9800a1e2a8000002eb00040f780086003700be
:103aa8000000000015158000040820000482620050
:103ab800e00f5200fbff32000002eb0014079800f1
:103ac80037003700051480001e0278000403420006
:103ad80044cc200004024300050a78001514800035
:103ae8001e0278000403420044dc20000402430064
:103af800050a78001e0fe800251480001e027800d1
:103b08000403420044cc200004024300050a780064
:103b1800351480001e0278000403420044dc2000b3
:103b280004024300050a78001e0fe80045148000cf
:103b38001e0278000403420044cc20000402430023
:103b4800050a7800551480001e027800040342001c
:103b580044dc200004024300050a78001e0fe80038
:103b6800651480001e0278000403420044cc200043
:103b780004024300050a7800751480001e027800cc
:103b88000403420044dc200004024300050a7800d4
:103b98001e0fe8001e0290000402e80014079800b7
:103ba8001e029000e30f5200c6ff3600000000001e
:103bb800151580000408200004826200e00f5200fe
:103bc800fbff3a000002eb001407980037003700ab
:103bd800851480001e0278000403420044cc2000b3
:103be80004024300050a7800951480001e0278003c
:103bf8000403420044dc200004024300050a780064
:103c08001e0fe800a51480001e027800040342007d
:103c180044cc200004024300050a7800b514800053
:103c28001e0278000403420044dc20000402430022
:103c3800050a78001e0fe800c51480001e027800ef
:103c48000403420044cc200004024300050a780023
:103c5800d51480001e0278000403420044dc2000d2
:103c680004024300050a78001e0fe800e5148000ee
:103c78001e0278000403420044cc200004024300e2
:103c8800050a7800f51480001e027800040342003b
:103c980044dc200004024300050a78001e0fe800f7
:103ca8001e0290000402e800140798001e0290000b
:103cb800e30f5200c6ff3600f40720009e0278008a
:103cc800848f520076ff3600a1e2a90040cc200084
:103cd8004f16070000027800240798002e02900073
:103ce8006441880040dc2000491607000002780083
:103cf800240798002e029000744188000080fa0082
:103d0800000006000400fa0094028000040f780006
:103d1800ff3ffc00140280000450a0000460a000d3
:103d28000470a000140288001e0278009402880023
:103d380000008800000000000000000000000000f3
:103d4800000000008c60a9008e00a9009402800089
:103d580014079800ff3ffc00140280000450a100e3
:103d68000460a1000470a100140288001e029000e3
:103d7800940288000000880003000700c522a800fc
:103d88000080fa00000006000200fa000489210001
:103d9800040f78001e0278001402780014c088000e
:103da8001e8fe8001e0278001402780004c0880004
:103db8001e8fe8001e02780014027800f4bf880005
:103dc8001e8fe8001e02780014027800e4bf880005
:103dd800e4892100040f78001e027800140278009c
:103de80034c088001e8fe8001e0278001402780094
:103df80024c08800053b800004002800048262007b
:103e0800e00f5200fbff3a00c4bf8000d5bf80001e
:103e1800020220000400be006af10700053b800092
:103e28000400280004826200e00f5200fbff3a0001
:103e3800c4bf8000d5bf8000c27f21000400be003f
:103e48007ff107000080fa00000006000000fa0079
:103e58005c0007004f0007005600070042062000dc
:103e68008000eb00208f20007dfa0700420620002a
:103e78008000eb00208f200079fa0700420620001e
:103e88008000eb0040ab200075fa070042062000d6
:103e98008000eb00a0a5200071fa07004206200070
:103ea8008000eb0080b620006dfa07004206200073
:103eb8008000eb00e0b0200069fa070020842000b1
:103ec80094f10700c084200092f1070005e1a900e1
:103ed8008e00a9008c60a9008600a9008460a90052
:103ee800c4c2a9000080fa00000006000000fa0021
:103ef8003400070005e1a9008e00a9008c60a90024
:103f08008600a9008460a900c4c2a9000080fa0044
:103f1800000006000000fa00208420007df1070060
:103f2800c08420007bf10700420620008000eb00df
:103f3800a0a520004afa0700420620008000eb00f6
:103f480040ab200046fa0700420620008000eb0044
:103f5800e0b0200042fa0700420620008000eb0093
:103f680080b620003efa07000e0007000500070093
:103f78000002eb003408880084c0a9000080fa0021
:103f8800000006000000fa00d702a8000080fa002e
:103f9800000006000000fa00d702a9000080fa001d
:103fa800000006000000fa00d722a9000080fa00ed
:103fb800000006000000fa00d722a8000080fa00de
:103fc800000006000000fa00d762a900d602a80087
:103fd8000080fa00000006000400fa000002eb006e
:103fe800040f78000002eb0014079800540020002a
:103ff80034c58800a58220009542780044c3b300e8
:1040080084cf52000f003200a5822000954278002c
:1040180044c4b30084cf52000a003200a5822000b5
:104028009542780084cab30084cf5200050032005c
:10403800a58220009542780054c3b30084cf520073
:1040480005003a009e029000f4f72f0004826200f7
:1040580014079800040037009e029000040820000e
:10406800048272001407980054c38000e00f5200c5
:10407800040032001e0290000400a00014079800fb
:10408800040037009e029000e4ff2f0004826200c3
:104098001407980024c38000e00f52000200320089
:1040a8001e20a00002003700b4ff2f001e0f620080
:1040b800c5c2800004f02f0004826200e00f5200a5
:1040c800040032001e0290000440a000140798006b
:1040d800040037009e029000f4fe2f000482620064
:1040e80014079800c5c28000f40f20000482620003
:1040f800e00f5200040032001e0290000410a000dd
:1041080014079800040037009e029000d4ff2f0087
:104118000482620014079800f5c2800004f02f00a2
:1041280004826200e00f5200020032001e00a0006c
:1041380002003700e4ff2f001e0f6200f5c2800066
:10414800f40f200004826200e00f520002003200e7
:104158001e10a00002003700d4ff2f001e0f6200bf
:10416800a58220009542780044c4b30084cf520051
:1041780004003a001e0290000420a00014079800d2
:10418800040037009e029000b4ff2f0004826200f2
:1041980014079800e48e2000144278000482fb0083
:1041a8009e0f5200100032001e0278000442780070
:1041b80004407800eee8b700e48e2000144278004e
:1041c8000441780041c1b300608e20002614070026
:1041d80000027800e00f52000300320024c2800081
:1041e8000402e80024c28800f48e200014427800fb
:1041f8008482fb001e029000848f5200100032005f
:104208001e0290000442780004407800efe8b700ee
:10421800f48e2000144278000441780051c1b300a4
:10422800608e20001014070000027800e00f520092
:104238000300320024c280000402e80024c288007f
:104248000080fa00000006000000fa001516800041
:104258000400220004826200e00f520005003200d0
:104268000042eb0004407800c6f6b700cbc2a900b4
:104278000400370014c0b30004407800c6f6b70045
:10428800cbc2a800d762a800d602a90005e1a90000
:104298000002eb00040888008460a9008c60a80074
:1042a800741720001408880005e1a8000002eb003c
:1042b8003408880084c0a9000080fa0000000600c5
:1042c8000a00fa0030079800410798003e02900063
:1042d8000500200014079800250798001e0290008a
:1042e800ae029000c022dd000400200014079800f0
:1042f800250798004e029000050020000401be002a
:104308001e009000ae00900056f007000002be00ac
:1043180014079800250798001e029000ae0290002e
:104328004d2bdd004322de0004027300c32ade00a9
:1043380014079800250798001e039000ae0390000c
:1043480004002000f5ff2f0006007800070378001e
:104358008403780005027800070060000402630007
:1043680005002000c022dd00040020000403be0078
:104378006102b8000403730085837300e00f5300e3
:10438800e08f5b00030032000082eb00040f78002e
:10439800020037001e029000040f78001e02780009
:1043a800040078000080fa00000006000800fa0007
:1043b80020079800310798002e0290000500200081
:1043c800048fbe003e029000050020001e039000ee
:1043d80004b3b900060378009e03780005b8b90055
:1043e80080037800070343009e03780004027800e6
:1043f8000722b8000503430086027800048fbe0038
:10440800048fbe001e02be00432bdd004d22de00dd
:1044180004027300cd2ade00048fbe00f4ff2f00d3
:10442800050020001e03be00840f5300858f5b002b
:1044380006003600f4ff2f0005002000048fbe00a0
:1044480084c280000402e80084c288001e0278004a
:10445800240798002e029000040078000080fa00db
:10446800000006000a00fa0030079800410798008b
:104478003e029000e00f520002003a004e02900007
:10448800340798003e0290000500200014079800a9
:1044980025079800ae029000f40f200004aab90086
:1044a800040378001e0290006022b900040278001c
:1044b800040343009e029000f40f2000042ab80071
:1044c8000503430086027800140798002507980022
:1044d80014079800250798004e0290000500200058
:1044e8001e039000ae0390000602420087824a0035
:1044f80014079800250798001e029000ae0290004d
:10450800482bdd004822de0004027300c82ade00c2
:1045180014079800250798001e029000040f7800e1
:104528004e0290009e0f5200020036001e0fe80057
:10453800040037004e0290009e0f52000100310027
:104548001e0fe9001e027800040078000080fa00bf
:10455800000006000a00fa0030079800410798009a
:104568003e029000e00f520002003a004e02900016
:10457800340798003e0290000500200014079800b8
:1045880025079800ae029000f403200004aab900a1
:10459800040378001e0290006022b900040278002b
:1045a800040343009e029000f4032000042ab8008c
:1045b8000503430086027800140798002507980031
:1045c80014079800250798004e0290000500200067
:1045d8001e039000ae0390000602420087824a0044
:1045e80014079800250798001e029000ae0290005c
:1045f8004a2bdd004622de0004027300c62ade00d4
:1046080014079800250798001e029000040f7800f0
:104618004e0290009e0f5200020036001e0fe80066
:10462800040037004e0290009e0f52000100310036
:104638001e0fe9001e027800040078000080fa00ce
:10464800000006000a00fa003007980041079800a9
:104658003e029000e00f520002003a004e02900025
:10466800340798003e0290000500200014079800c7
:10467800250798002e0290006f22b90004037800e5
:104688001e0290006022b90004027800040343006f
:104698009e029000f4002000042ab800050343009d
:1046a80086027800140798002507980014079800d8
:1046b800250798004e029000050020001e03900078
:1046c800ae0390000602420087824a001407980051
:1046d800250798001e029000ae0290004c2bdd00ca
:1046e8004422de0004027300c42ade001407980086
:1046f800250798001e029000040f78004e029000d3
:104708009e0f5200020036001e0fe800040037001a
:104718004e0290009e0f5200010031001e0fe9006a
:104728001e027800040078000080fa0000000600ed
:1047380000a0fe00849fbe000000fa00d602a80078
:104748000000000000000000000000000000000061
:10475800e222a8008600a9008e00a90044002000db
:1047680034c5880005e1a9000002eb0004088800b0
:1047780084002000140888008c60a9008460a900c7
:1047880005e1a8000000000024048000680262001f
:10479800e00f5200fcff32001516800004002200d2
:1047a80004826200e00f5200050032000042eb0074
:1047b80004407800c7f6b700cbc2a9000400370050
:1047c80014c0b30004407800c7f6b700cbc2a800f5
:1047d800c4c2a900d602a90005e1a9000002eb00a5
:1047e800040888008460a9008c60a800e4162000f2
:1047f8001408880005e1a800446c210014427800e0
:10480800e04f520003003200f4c380000402e800c5
:10481800f4c3880014c0b30004407800c4f6b7009d
:1048280014c0b30004407800c5f6b7000080fa0051
:104838004f02be000080fe00004006003600f8006f
:10484800809fbe00829fbe00849fbe00869fbe00e0
:104858000200fa003400200034c588008460a900f2
:104868008c60a90005e1a9000042eb00044f780024
:10487800a416800064026200e00f52001e0032009d
:10488800400620000100200076ee0700a4168000f4
:1048980064026200e00f5200170032004006200058
:1048a800010020006fee0700a41680006402620079
:1048b800e00f5200100032004006200001002000e6
:1048c80068ee0700a416800064026200e00f520040
:1048d80009003200400620000100200061ee0700b8
:1048e800a416800064026200e00f52000200320049
:1048f800002020003b0c0700c4c2a8008600a900c5
:104908008e00a8000080fa004f03be004f02be00d0
:104918004f01be004f00be003600f90000400600ff
:10492800801f7800849fbe00861f78000000fa0070
:10493800a042a9008560a900151780000402200084
:1049480004826200e00f520002003200e2a2a900d5
:1049580001003700e2a2a8001400200034c5880036
:10496800546c210014427800e04f520004003200d9
:104978000042eb0004407800c5f6b700620037003b
:1049880024bc2000144278000482fb000514800037
:104998000403420044bc200004024300050a7800d6
:1049a80024bc2000144278000482fb001514800007
:1049b8000403420044cc200004024300050a7800a6
:1049c80024bc2000144278000482fb0025148000d7
:1049d8000403420044dc200004024300050a780076
:1049e80024bc2000144278000482fb0035148000a7
:1049f8000403420044ec200004024300050a780046
:104a080024bc2000144278000482fb004514800076
:104a18000403420044fc200004024300050a780015
:104a280024bc2000144278000482fb005514800046
:104a380004034200440c210004024300050a7800e4
:104a480024bc2000144278000482fb006514800016
:104a580004034200441c210004024300050a7800b4
:104a680024bc2000144278000482fb0075148000e6
:104a780004034200443c210004024300050a780074
:104a880024bc2000144278000482fb0085148000b6
:104a980004034200442c210004024300050a780064
:104aa80024bc2000144278000482fb009514800086
:104ab80004034200444c210004024300050a780024
:104ac80024bc2000144278000482fb00a514800056
:104ad80004034200445c210004024300050a7800f4
:104ae80024bc2000144278000442e8000440780006
:104af800c2ebb70024bc2000144278000474a10063
:104b080004407800c2ebb700a042a8000080fa0079
:104b18004f0378004f02be004f00780000400600a7
:104b2800841f78000000fa002400200034c58800a3
:104b38008940a90014c480000402e80014c4880055
:104b48000080fa004f02780000400600841f7800b9
:104b58000000fa00d400200034c58800143a800010
:104b680044c5880000000000000000000000fe00ae
:104b78000080fa004f02780000400600841f780089
:104b88000000fa00e400200034c58800000000009e
:104b9800000000000000fe000080fa004f027800cc
:104ba80000400600841f78000000fa00f40020008e
:104bb80034c5880000000000000000000000fe006e
:104bc8000080fa004f02780000400600841f780039
:104bd8000000fa000401200034c58800000000002d
:104be800000000000000fe000080fa004f0278007c
:104bf80000400600841f78000000fa00c4ab2f00b4
:104c080034c5880000000000000000000000fe001d
:104c18000080fa004f027800004006000c00fa00fd
:104c2800500798005e02900005002000048fbe0027
:104c38005e029000050020001e03900004b3b90036
:104c4800060378009e03780005b8b9008003780051
:104c5800070343009e037800040278000722b80087
:104c68000503430086027800048fbe00048fbe004f
:104c78001e02be00422bdd004e22de00040273003d
:104c8800ceaade00048fbe0004c18000cfa2de00e1
:104c98001e03900004b3b900060378009e03780051
:104ca80005b8b90080037800070343009e03780025
:104cb800040278000722b800050343008602780042
:104cc800048fbe00048fbe001e02be00c62bdd008e
:104cd8004a22de0004827300caaade00048fbe00e6
:104ce8001e02be0024079800350798005e02900057
:104cf80005002000048fbe0014c18000cfa2de0092
:104d08001e03900004b3b900060378009e037800e0
:104d180005b8b90080037800070343009e037800b4
:104d2800040278000722b8000503430086027800d1
:104d3800048fbe00048fbe001e02be00462bdd009d
:104d48004a22de0004027300caaade00048fbe00f5
:104d58002e029000be0290003e034200ae834a003d
:104d68000602be00240798003507980024c1800079
:104d7800cfa2de00048fbe001e03be00423add0053
:104d8800ce32de00850272004232dd00048fbe00a2
:104d98002e029000be0290003e034200ae834a00fd
:104da8000602be002407980035079800ae0390005d
:104db800470798004e029000040078000080fa002f
:104dc800000006000000fa00c4892100144278009f
:104dd800e24f52000100320007000700c489210099
:104de80014427800e24f520001003a00f700070031
:104df8000080fa00000006000400fa00881f78000e
:104e08003e00370060852000ae11070000427800a0
:104e1800044f78001e427800ef4f420037003a00f6
:104e280060852000a711070000427800044f780031
:104e38001e427800ee4f420030003a0060852000a4
:104e4800a011070000427800044f78001e42780045
:104e5800ed4f420029003a006085200099110700b3
:104e6800004278000440780098f8b7006085200078
:104e78009411070000427800044078009af8b700bf
:104e8800608520008f1107000042780004407800f8
:104e98009bf8b700608520008a110700004278005f
:104ea8000440780099f8b700608520008511070054
:104eb800004278000482fb00140798001e0290004c
:104ec8004824dd00608520007e110700004278003c
:104ed8000482fb0004024400140798001e0090009e
:104ee8006806070000427800e04f520003003200d5
:104ef80024c0b300044078009cf8b700c48921009e
:104f080014427800e04f520005003a006085200006
:104f18008a11070000427800e84f5200b9ff3e00ae
:104f28004f0478000080fa00000006000000fa0034
:104f3800d489210014427800e04f52005d0032000d
:104f4800e1cfb300808920003911070011cfb300e9
:104f58008089200036110700a1cfb3008089200086
:104f680033110700b1cfb30080892000301107004a
:104f7800644080004822de000442780084407800c3
:104f8800808920002a1107006440800004427800cc
:104f98008440780080892000251107008440800023
:104fa8004822de000442780084407800808920008e
:104fb8001f11070084408000044278008440780074
:104fc800808920001a110700a440800048a2de0052
:104fd800044278008440780080892000141107007a
:104fe800a440800004427800844078008089200032
:104ff8000f110700b440800048a2de000442780088
:10500800844078008089200009110700b44080009e
:105018000442780084407800808920000411070049
:10502800c44080004822de000442780084407800b2
:1050380080892000fe100700c440800004427800e8
:105048008440780080892000f9100700f44180002e
:105058004822de00044278008440780080892000dd
:10506800f3100700f441800004427800844078007f
:1050780080892000ee1007007510800004202000b1
:1050880004826200e00f52000a003a008089200082
:105098003511070000427800e04f52000500320049
:1050a8008089200007110700004278000482fb0075
:1050b800841088000080fa00000006000600fa004c
:1050c800204798003147980022079800d48921008a
:1050d80014427800e04f52003a003a002e01900046
:1050e800be4090002e409000cf05070000027800d7
:1050f800040f780011cfb30080892000cc1007007e
:1051080021cfb30080892000c910070041cfb30028
:1051180080892000c6100700ae40900080892000da
:10512800c31007002e0290004822de0004427800d7
:105138008440780080892000bd1007002e0290006e
:10514800044278008440780080892000b810070065
:10515800be40900080892000b51007001e0278002c
:105168004822de00044278008440780080892000cc
:10517800af1007001e0278000442780084407800cf
:1051880080892000aa1007007510800004202000e4
:1051980004826200e00f52000a003a008089200071
:1051a800f110070000427800e04f5200050032007d
:1051b80080892000c3100700004278000482fb00a9
:1051c800841088000080fa00000006000a00fa0037
:1051d800a4892100144278000482fb001407980077
:1051e8001e0290004822dd0014079800b4892100af
:1051f800144278000482fb009e0290000482420060
:10520800140798001e009000000f78008489210080
:10521800144278000482fb00240798008489210046
:10522800144278000482fb006123b90004ff2f00b8
:10523800f5ff2f000602420087824a00a60d2000d3
:1052480007002000860f5200878f5a00f3023e00a5
:1052580004600100da003700dd003700ef02370094
:10526800ee023700ed023700ec023700eb023700a0
:10527800ea023700e9023700e8023700e7023700a0
:10528800e6023700e5023700e4023700e3023700a0
:10529800e2023700e1023700e0023700df023700a0
:1052a800de023700dd023700dc023700db023700a0
:1052b800da023700d9023700d8023700d7023700a0
:1052c800c70037009d023700d40237007802370044
:1052d800d2023700e9003700d0023700cf0237008a
:1052e800ce023700cd023700cc023700cb023700a0
:1052f800ca023700c9023700c8023700c7023700a0
:10530800c6023700c5023700c4023700c30237009f
:10531800c2023700ac023700c0023700bf023700b4
:10532800be023700bd023700bc023700bb0237009f
:10533800ba023700b9023700b8023700b70237009f
:10534800b6023700b5023700b4023700b30237009f
:10535800b2023700d1003700dc003700e400370024
:10536800ae023700ad023700ac023700ab0237009f
:10537800aa023700a9023700a8023700a70237009f
:10538800a6023700a5023700a4023700a30237009f
:10539800a2023700a1023700a00237009f0237009f
:1053a8009e0237009d0237009c0237009b0237009f
:1053b8009a0237009902370098023700970237009f
:1053c800960237009502370094023700930237009f
:1053d8009202370091023700900237008f0237009f
:1053e8008e0237008d0237008c0237008b0237009f
:1053f8008a0237008902370088023700870237009f
:10540800860237008502370084023700830237009e
:105418008202370081023700800237007f0237009e
:105428007e0237007d0237007c0237007b0237009e
:105438007a0237007902370078023700770237009e
:10544800760237007502370074023700730237009e
:105458007202370071023700700237006f0237009e
:105468006e0237006d0237006c0237006b0237009e
:105478006a0237006902370068023700670237009e
:10548800660237006502370064023700630237009e
:1054980062023700610237009e0037005f02370062
:1054a8005e0237005d0237005c0237005b0237009e
:1054b8005a0237005902370058023700570237009e
:1054c800560237005502370054023700530237009e
:1054d8005202370051023700500237004f0237009e
:1054e8004e0237004d0237004c0237004b0237009e
:1054f8004a0237004902370048023700470237009e
:10550800460237004502370044023700430237009d
:105518004202370041023700400237003f0237009d
:105528003e0237003d0237003c0237003b0237009d
:105538003a0237003902370038023700370237009d
:10554800360237003502370034023700330237009d
:1055580032023700770037007f00370087003700b6
:105568009b003700a3003700ab003700bf003700af
:10557800c7003700cf003700e3003700eb003700e3
:10558800f3003700070137000f0137001701370014
:105598002b013700330137003b0137004f0137003b
:1055a800570137005f013700730137007b0137006f
:1055b80083013700970137009f013700a7013700a3
:1055c8000042eb00044078001ae8b70013023700e5
:1055d80014c0b300044078001ae8b7000f0237007f
:1055e800a481200014427800e04f520004023200e7
:1055f8001e029000340798003e0090000105070045
:1056080000027800440798003e019000ce00900008
:10561800a0a5200060f40700e4528000e4b68800ea
:105628004454800034b78800053b800004002800fb
:1056380004826200e00f5200fbff3a00c4b680000b
:10564800d5b68000020220000400be005deb070012
:10565800053b80000400280004826200e00f52002d
:10566800fbff3a00c4b68000d5b68000c26d2100a9
:105678000400be0072eb0700e8013700948921009e
:10568800144278000482fb0004007800f00107004f
:1056980000027800040f7800e001370094892100a7
:1056a80014427800e14f520004003a0014c0b300dd
:1056b800044078009df8b700d80137000042eb009d
:1056c800044078009df8b700d40137001e0290000e
:1056d800744088007540800014032000848f5200b5
:1056e800c9013e002403200074408800cb01370024
:1056f8001e00900090408800954080001403200010
:10570800848f5200c2013e00240320009440880088
:10571800c2013700a58220009542780044c2b30038
:1057280084cf5200bc013a001400200004c4880051
:10573800ba01370094892100144278000482fb00e2
:105748009e02900004034200c46d2100040243003d
:10575800050a7800b10137009489210014427800c5
:105768000482fb0084024200c46d210004824200ce
:1057780014027800040f7800a8013700053b800068
:105788000400280004826200e00f5200fbff3a0088
:10579800c4b68000d5b68000020220000400be0016
:1057a80008eb0700053b8000040028000482620023
:1057b800e00f5200fbff3a00c4b68000d5b6800067
:1057c800c26d21000400be001deb070093013700e5
:1057d80094892100144278000482fb009e02900004
:1057e800040342000470210004024300050a780003
:1057f8008a01370094892100144278000482fb0052
:1058080084024200047021000482420014027800dd
:10581800040f780081013700053b80000400280050
:1058280004826200e00f5200fbff3a00e4b78000f8
:10583800f5b78000020220000400be00e1ea07007c
:10584800053b80000400280004826200e00f52003b
:10585800fbff3a00e4b78000f5b780000270210032
:105868000400be00f6ea07006c01370094892100a5
:10587800144278000482fb009e0290000403420058
:105888004472210004024300050a780063013700ce
:1058980094892100144278000482fb0084024200ab
:1058a800447221000482420014027800040f780038
:1058b8005a013700053b800004002800048262007a
:1058c800e00f5200fbff3a0004b9800015b98000d0
:1058d800020220000400be00baea0700053b80006f
:1058e8000400280004826200e00f5200fbff3a0027
:1058f80004b9800015b98000427221000400be007e
:10590800cfea070045013700948921001442780046
:105918000482fb009e02900004034200847421006c
:1059280004024300050a78003c01370094892100ed
:10593800144278000482fb0084024200847421002f
:105948000482420014027800040f78003301370003
:10595800053b80000400280004826200e00f52002a
:10596800fbff3a0024ba800035ba8000020220000a
:105978000400be0093ea0700053b800004002800ed
:1059880004826200e00f5200fbff3a0024ba800054
:1059980035ba8000827421000400be00a8ea07001e
:1059a8001e01370094892100144278000482fb000c
:1059b8009e02900004034200c476210004024300c2
:1059c800050a7800150137009489210014427800ef
:1059d8000482fb0084024200c47621000482420053
:1059e80014027800040f78000c013700053b800092
:1059f8000400280004826200e00f5200fbff3a0016
:105a080044bb800055bb8000020220000400be0099
:105a18006cea0700053b800004002800048262004d
:105a2800e00f5200fbff3a0044bb800055bb8000ea
:105a3800c27621000400be0081ea0700f7003700a3
:105a480094892100144278000482fb009e02900091
:105a5800040342000479210004024300050a780087
:105a6800ee00370094892100144278000482fb007c
:105a78008402420004792100048242001402780062
:105a8800040f7800e5003700053b8000040028007b
:105a980004826200e00f5200fbff3a0064bc800001
:105aa80075bc8000020220000400be0045ea070021
