:020000040000fa
:080000000001040000000000f3
:020000040000fa
:100008001c2e0000c82d0000e02d0000f42d00007b
:10001800082e00001c2e00001c2e00001c2e0000c4
:100028001c2e00001c2e00001c2e00009c2b000023
:100038001c2e00001c2e00001c2e00001c2e000090
:100048001c2e0000dc3900000c3a0000682c00006f
:100058001c2e00001c2e00001c2e0000682d000025
:10006800562a00001c2e00001c2e00001c2e00002a
:100078001c2e00001c2e00001c2e00001c2e000050
:100088001c2e00001c2e00001c2e00001c2e000040
:100098001c2e00001c2e00001c2e00001c2e000030
:1000a8001c2e00001c2e00001c2e00001c2e000020
:1000b8001c2e00001c2e00001c2e00001c2e000010
:1000c8001c2e00001c2e0000b22d00001c2e00006b
:1000d8001c2e00001c2e00001c2e00001c2e0000f0
:1000e8001c2e00001c2e00001c2e00001c2e0000e0
:0800f8001c2e00001c2e00006c
:020000040000fa
:100108001c2e0000c82d0000e02d0000f42d00007a
:10011800082e00001c2e00001c2e00001c2e0000c3
:100128001c2e00001c2e00001c2e00009c2b000022
:100138001c2e00001c2e00001c2e00001c2e00008f
:100148001c2e0000dc3900000c3a0000682c00006e
:100158001c2e00001c2e00001c2e0000682d000024
:10016800562a00001c2e00001c2e00001c2e000029
:100178001c2e00001c2e00001c2e00001c2e00004f
:100188001c2e00001c2e00001c2e00001c2e00003f
:100198001c2e00001c2e00001c2e00001c2e00002f
:1001a8001c2e00001c2e00001c2e00001c2e00001f
:1001b8001c2e00001c2e00001c2e00001c2e00000f
:1001c8001c2e00001c2e0000b22d00001c2e00006a
:1001d8001c2e00001c2e00001c2e00001c2e0000ef
:1001e8001c2e00001c2e00001c2e00001c2e0000df
:0801f8001c2e00001c2e00006b
:020000040000fa
:100200008f7b21004efe21000e01880000000000bf
:1002100000012000200288000c0007008057250004
:100220000100200011000700000020000000e00095
:10023000020032000000020000000000ca55020067
:10024000000000000040da000000fe004440a90069
:10025000002820000000e000030032000000200021
:10026000a00188004440a800000006009101880019
:10027000800078000000eb0015003700e2804000ad
:1002800032a0b4009101ba00e280400032a0b40074
:100290009102ba00e280400032a0b4000002eb00fc
:1002a000472bde00f507b200602ce10004003a00a5
:1002b0000059eb008301e900fdff3e000400370018
:1002c0006128e100010032000082eb000400070019
:1002d0001101ba000200e000e8ff3a000000060049
:1002e0003159ba008301e9000c0032002159ba00eb
:1002f0008301e900080032000400e00003003a0036
:10030000e280400032a0b400f5ff370011d9ba00f6
:100310008301e900faff3a008100e800e180400033
:1003200032a0b40000000600881f78008a1f780001
:100330004400f800080f2000280288000004900004
:1003400010059000a000900030019000c0019000c6
:100350000300ca000280ca000030cb001a00cd00a2
:100360004604c3000100ca004604c0001e04c000c9
:100370000605c0000100cd0021009800050d7800a1
:10038000eaba9700052578004400f9004f05780087
:100390004f04780000000600801f78004000b00085
:1003a0000008eb004f007800801f780010009000dc
:1003b0000018eb000018eb000008eb004f0078007d
:1003c000000006004400f800020f2000220288000e
:1003d000910078003000ca003080ca000000cb00d5
:1003e0002080ca000000cb003100cd004000ca00d0
:1003f0000000cb000000cb000010cb003100cd008e
:100400001180cc004400f9000000060010118800a3
:100410000111880000000600401188003111880099
:10042000000006003200f800910188000008bb00bf
:10043000410424006210e1000400320000022000a8
:100440000010e1000a003a0051042400013b88003a
:100450000500fc0051052000313b8800a10a200066
:10046000313b880061e7a8000000000000000000a8
:100470003200f900000006003200f8006004240099
:10048000003b8800f2ff37003200f800910188003d
:1004900041002400013b88000208bb00ecff37004c
:1004a0003200f8009101880051002400013b8800cf
:1004b000030120003218bb008301e900fdff3a0070
:1004c000e3ff37006022b800060220000000d000e1
:1004d0008180d2000482d2008582d2000000a00078
:1004e0000202520083825a000300310002024200dd
:1004f00083824a000000a1000603e900f3ff3a00ee
:1005000000000600889fbe008a9fbe008c1f7800f6
:100510000006eb00e00f5000e08f5800e00f59009c
:10052000e08f590007003d006044b8006055b800f6
:100530000000540081805c0002015d0083815d0049
:100540001c002000e00f5200e08f5a00e00f5b001b
:10055000e08f5b0007003d006044b8006055b800c4
:100560000402540085825c0006035d0087835d0001
:100570000c00a2000c000700e00f5600060032003d
:100580006022b8006033b8000000520081805a0039
:1005900002015b0083815b004f0678004f05be00bf
:1005a0004f04be0000000600889fbe008a9fbe0068
:1005b0008c9fbe000404b8000506b80089044600fc
:1005c00060854e000606b8000a054600e0854e002c
:1005d0000706b8008b054600040eb80089044600e3
:1005e0000a854e00e0854d00050eb8000a0546005c
:1005f0008b854e00060eb8008b0546000416b80029
:100600000a0546008b854e000516b8008b0546008e
:10061000041eb8008b0546000800be000a01be009b
:100620004f06be004f05be004f04be00000006008e
:020000040000fa
:1006300000000000c1c0000081c1000040010000b6
:1006400001c30000c00300008002000041c200009e
:1006500001c60000c00600008007000041c700007e
:1006600000050000c1c5000081c400004004000076
:1006700001cc0000c00c0000800d000041cd000046
:10068000000f0000c1cf000081ce0000400e00002e
:10069000000a0000c1ca000081cb0000400b00002e
:1006a00001c90000c00900008008000041c8000026
:1006b00001d80000c01800008019000041d90000d6
:1006c000001b0000c1db000081da0000401a0000be
:1006d000001e0000c1de000081df0000401f00009e
:1006e00001dd0000c01d0000801c000041dc000096
:1006f00000140000c1d4000081d5000040150000a6
:1007000001d70000c01700008016000041d600008d
:1007100001d20000c01200008013000041d300008d
:1007200000110000c1d1000081d000004010000085
:1007300001f00000c03000008031000041f10000f5
:1007400000330000c1f3000081f2000040320000dd
:1007500000360000c1f6000081f7000040370000bd
:1007600001f50000c03500008034000041f40000b5
:10077000003c0000c1fc000081fd0000403d000085
:1007800001ff0000c03f0000803e000041fe00006d
:1007900001fa0000c03a0000803b000041fb00006d
:1007a00000390000c1f9000081f800004038000065
:1007b00000280000c1e8000081e900004029000095
:1007c00001eb0000c02b0000802a000041ea00007d
:1007d00001ee0000c02e0000802f000041ef00005d
:1007e000002d0000c1ed000081ec0000402c000055
:1007f00001e40000c02400008025000041e5000065
:1008000000270000c1e7000081e60000402600004c
:1008100000220000c1e2000081e30000402300004c
:1008200001e10000c02100008020000041e0000044
:1008300001a00000c06000008061000041a1000034
:1008400000630000c1a3000081a20000406200001c
:1008500000660000c1a6000081a7000040670000fc
:1008600001a50000c06500008064000041a40000f4
:10087000006c0000c1ac000081ad0000406d0000c4
:1008800001af0000c06f0000806e000041ae0000ac
:1008900001aa0000c06a0000806b000041ab0000ac
:1008a00000690000c1a9000081a8000040680000a4
:1008b00000780000c1b8000081b900004079000054
:1008c00001bb0000c07b0000807a000041ba00003c
:1008d00001be0000c07e0000807f000041bf00001c
:1008e000007d0000c1bd000081bc0000407c000014
:1008f00001b40000c07400008075000041b5000024
:1009000000770000c1b7000081b60000407600000b
:1009100000720000c1b2000081b30000407300000b
:1009200001b10000c07100008070000041b0000003
:1009300000500000c1900000819100004051000073
:1009400001930000c053000080520000419200005b
:1009500001960000c056000080570000419700003b
:1009600000550000c1950000819400004054000033
:10097000019c0000c05c0000805d0000419d000003
:10098000005f0000c19f0000819e0000405e0000eb
:10099000005a0000c19a0000819b0000405b0000eb
:1009a00001990000c05900008058000041980000e3
:1009b00001880000c0480000804900004189000013
:1009c000004b0000c18b0000818a0000404a0000fb
:1009d000004e0000c18e0000818f0000404f0000db
:1009e000018d0000c04d0000804c0000418c0000d3
:1009f00000440000c18400008185000040450000e3
:100a000001870000c04700008046000041860000ca
:100a100001820000c04200008043000041830000ca
:100a200000410000c18100008180000040400000c2
:100a30006400000064000000630000006300000028
:100a4000630000006200000062000000610000001e
:100a50006100000060000000600000005f00000016
:100a60005f0000005e0000005e0000005d0000000e
:100a70005d0000005c0000005b0000005b00000007
:100a80005a00000059000000590000005800000002
:100a900057000000570000005600000055000000fd
:100aa00054000000540000005300000052000000f9
:100ab0005100000050000000500000004f000000f6
:100ac0004e0000004d0000004c0000004b000000f4
:100ad0004a000000490000004800000047000000f4
:100ae00046000000450000004400000043000000f4
:100af0004200000041000000400000003f000000f4
:100b00003e0000003c0000003b0000003a000000f6
:100b100039000000380000003600000035000000f9
:100b200034000000330000003100000030000000fd
:020000040000fa
:100b30000a00fa00c4842000144278000482fb00fa
:100b400045032000850f52001401320045032000a8
:100b5000850f52000d003c00e60f52002e003200bf
:100b6000e60f520003003c00e40f52001b0032006d
:100b70005c033700f40f520076003200450220007b
:100b8000850f52008c00320056033700050a200002
:100b9000850f520050033200050a2000850f5200d5
:100ba00007003c0055032000850f5200360132003b
:100bb00045042000850f52007e01320049033700b2
:100bc000450a2000850f520010033200850a2000dc
:100bd000850f52001e03320042033700470307000f
:100be0001e08070036090700401f070000027800b2
:100bf000e00f52000400320004cab3000440780041
:100c00004ce8b7003b03370044c1b3000440780010
:100c10004ce8b70037033700551680000404200065
:100c20000482620004f0a7000402ea000402e90062
:100c30004f22de00044278000482fb006102620061
:100c40004622dd0056168000f5fb2f00850263006a
:100c5000048272005416880028030700551680008d
:100c6000040420000482620004f0a7000402ea00e9
:100c70000402e9004f22de00044278000482fb00f7
:100c8000610262004622dd0056168000f5fb2f004f
:100c90008502630004827200541688005d08070014
:100ca00055168000040420000482620004f0a700ae
:100cb0000402ea000402e9004f22de000442780048
:100cc0000482fb00610262004622dd0056168000ad
:100cd000f5fb2f0085026300048272005416880021
:100ce000f708070055168000040420000482620003
:100cf00004f0a7000402ea000402e9004f22de002b
:100d0000044278000482fb00610262004622dd009a
:100d100056168000f5fb2f008502630004827200e6
:100d200054168800f11e070000027800e00f520000
:100d30000400320004cab300044078004ce8b70055
:100d4000ec02370044c4b300044078004ce8b7001c
:100d5000e80237009c0f070012003700af0a0700b7
:100d60001b140700e61e070000027800e00f520087
:100d70000400320044cab300044078004ce8b700d5
:100d80000800370015168000040024000482620069
:100d9000e00f520003003a0044c2b3000440780060
:100da0004ce8b700c484200014427800f44f52008d
:100db000eaff3200cf023700b50f07000002eb0058
:100dc000040f78000002eb0014bc88006d003700af
:100dd000920a0700fe130700000000000000000058
:100de000000000002504800004042000048262004a
:100df000e00f52002f0032001e0fe80084c0a9004f
:100e0000351780000400210004826200e00f5200c8
:100e10000300320014bc8000e10f520011003a00c0
:100e2000a20020009e00780000ae2000f508070018
:100e3000a20020009e00780060a82000f1080700b2
:100e4000a20020009e007800a0b32000ed0807005b
:100e5000a20020009e00780040b92000e9080700a9
:100e60001400370004578000040178009e007800c9
:100e700000ae2000e308070034548000040178002d
:100e80009e00780060a82000de080700d45980008a
:100e9000040178009e007800a0b32000d908070064
:100ea000a45c8000040178009e00780040b9200016
:100eb000d4080700921e070000027800e00f5200dd
:100ec0000400320044cab300044078004ce8b70084
:100ed0002c003700151680000400240004826200f4
:100ee000e00f52000400320044c1b3000440780017
:100ef0004ce8b70023003700440620009e0278002b
:100f0000848f5200070036000a1c070044c3b30058
:100f1000044078004ce8b7000002eb0014bc8800e5
:100f20001800370035178000040021000482620099
:100f3000e00f52000a003a001e027800f40f52003f
:100f400007003600fb1b070044c3b30004407800d1
:100f50004ce8b7000002eb0014bc88000900370021
:100f600014bc8000e10f520006003a00f11b07009c
:100f700044c3b300044078004ce8b7000002eb0023
:100f800014bc8800c58420009542780044c2b30098
:100f900084cf52008eff320056023700320f070016
:100fa0004206200041062000e0912000950807003d
:100fb0004206200041062000209d200091080700e5
:100fc000420620004106200000ae20008d080700e8
:100fd000420620004106200060a820008908070082
:100fe000420620004106200040b920008508070085
:100ff0004206200041062000a0b32000810807001f
:101000001b003700050a0700711307003c1e07008c
:1010100000027800e00f52000400320084cab300de
:10102000044078004ce8b700110037001516800026
:101030000400240004826200e00f52000400320029
:1010400044c1b300044078004ce8b7000800370002
:10105000151680000400280004826200e00f520090
:1010600003003a0054c3b300044078004ce8b700d2
:10107000c58420009542780044c3b30084cf520059
:10108000e0ff32001b0237007442800051c3200091
:10109000040078002410070000027800240798005c
:1010a0000001eb00ae009000e09120002308070053
:1010b0008442800051c32000040078001a10070009
:1010c00000027800240798000001eb00ae009000b9
:1010d000209d2000190807000002eb00140798006b
:1010e000cbe2a9002d003700cc0907003813070018
:1010f000250480000404200004826200e00f5200f6
:101100000400320084c0a9001e0290000402e8001e
:1011100014079800fa1d070000027800e00f520043
:101120000400320084cab300044078004ce8b700e1
:101130001a003700151680000400240004826200a3
:10114000e00f52000400320044c1b30004407800b4
:101150004ce8b70011003700151680000400280085
:1011600004826200e00f52000400320044c3b30066
:10117000044078004ce8b700080037009e02900059
:1011800014032000848f52000400360044c4b300ce
:10119000044078004ce8b7008a0f0700c58420009f
:1011a0009542780054c3b30084cf5200ceff320082
:1011b000d00137000002eb00a44288000002eb00df
:1011c000c44288000002eb00b44288000002eb0039
:1011d000b4bd88006022b80024bd880035bd8800f9
:1011e0000042eb0004407800f0f6b7008c60a800e5
:1011f00080013700c400200084bd880087090700f3
:10120000f31207000543800044062000848f52003b
:1012100009003600151680000400220004826200d6
:10122000e00f5200040032000042eb00044078005e
:10123000f3f6b700cbc2a9003517800004002800e0
:1012400004826200e00f520003003a007441800003
:1012500054418800020037006441800054418800f6
:10126000046f210014427800e04f52004501320023
:101270000002eb0004438800c4418000e00f5200ec
:1012800002003200004020005b1d0700b400200077
:1012900084bd8800b541800004f02f00848f520087
:1012a00003003e00b44180000402e800b44188001d
:1012b00024bd800035bd800061024200e0824a000a
:1012c00024bd880035bd8800247921003400be008b
:1012d0002401be0014002000050020006033b80087
:1012e0000002420081824a0002034b0083834b00cc
:1012f000207921000498be000690be005442800070
:101300000402e80054428800d60b0700246f210035
:101310001442780004407800221b0700356f21003a
:1013200095427800246f21001442780084cf520047
:101330000a00320005498000b4452400848f520021
:1013400003003e0004032100a4b788001a00370000
:1013500004032000a4b7880017003700346f210071
:1013600014427800e04f52000a003a00054980001c
:10137000b4452400848f520003003e000404210081
:10138000a4b788000c00370004042000a4b788002c
:101390000900370005498000b4452400848f5200bd
:1013a00003003e0004022100a4b7880002003700b9
:1013b00004022000a4b78800346f21001442780092
:1013c00004407800f2f6b70000ef20002426070062
:1013d000000278004441880000ff2000202607001a
:1013e0000002780024418800b4418000fd0f5200c3
:1013f00008003e000002eb00944188000002eb0070
:101400008441880014c0b3000440780034e8b70079
:10141000b10037000002eb0004418800b5418000b4
:10142000c4bb8000848f520023003100b4bb800015
:10143000050020003407980045079800c5bb8000d0
:10144000b441800004825200050020004e03900049
:1014500004b3b90006037800be03900005b8b900d4
:101460008003780007034300be0390000402780065
:101470000722b8000503430086027800340798006d
:10148000450798003407980045079800c4bb8000c2
:10149000050020000401be003e009000ce00900038
:1014a00008fc07000002be003407980045079800ba
:1014b0003e0290000441880035178000040024009b
:1014c00004826200e00f520011003a00d4bb800099
:1014d000e00f5200070032005541800004418000b7
:1014e0000482420005002000c4408800d5408800e6
:1014f00031003700554180000441800004825200d1
:1015000005002000c4408800d54088002a0037002c
:10151000d4bb8000e00f520007003200554180002c
:10152000044180000482420005002000c44088007d
:10153000d5408800060037005541800004418000f6
:101540000482520005002000c4408800d540880075
:10155000844280006123b800c4408000d5408000f0
:1015600004b8b9000000780006a9b900820078002c
:101570000100400006037800040278000432b8003d
:101580000500400080027800c4408800d5408800f3
:10159000c6408000d7408000f44080000500200055
:1015a0000401be000600be00c6fb07000002be002c
:1015b000c4408800d5408800444180006123b800c1
:1015c000c4408000d54080002403b0000580b000f6
:1015d000840f5300858f5b00040039009441800024
:1015e0000402e900944188000e0037004441800065
:1015f0006123b800c0408000d1408000e4fc2f008f
:10160000f5ff2f000002420081824a00840f530040
:10161000858f5b0003003e00944180000402e800d7
:1016200094418800344180002503200084824200d8
:1016300024418000848f52000400310084418000e6
:101640006302520084418800090037003441800061
:10165000e5fc2f008482420024418000848f5200e8
:101660000300360084418000630242008441880008
:101670009541800004642000848f520003003400f0
:1016800004642000944188000600370095418000e2
:10169000049c2f00848f520002003d00049c2f0008
:1016a000944188008541800084252000848f520069
:1016b00003003400842520008441880006003700a0
:1016c0008541800084da2f00848f520002003d00a3
:1016d00084da2f00844188007442800051c32000c6
:1016e00004007800900e070000027800240798009c
:1016f00035418000743e2000848f52000400360083
:1017000084418000ae0290000482420024079800c9
:101710000001eb00ae009000e0912000870607007a
:10172000f440800051c32000040078007e0e0700c2
:10173000000278002407980055418000743e200084
:10174000848f52000400360094418000ae02900065
:1017500004824200240798000001eb00ae009000d4
:10176000209d200075060700f00707000002eb002f
:101770003408880084c0a9000042eb0004407800cf
:10178000f0f6b7005e1c070000027800e00f520080
:1017900005003200ca0c070084cab3000440780078
:1017a0004ce8b70013003700151680000400240031
:1017b00004826200e00f520005003200c00c0700f6
:1017c00044c1b300044078004ce8b700090037007a
:1017d000151680000400280004826200e00f520009
:1017e00004003200b60c070044c3b3000440780084
:1017f0004ce8b700c58420009542780044c4b3008b
:1018000084cf52007bfe32003a003700ee0c070016
:1018100009003700010807006d110700381c070098
:1018200000027800e00f520003003a0044c1b30008
:10183000044078004ce8b700c58420009542780049
:1018400044cab30084cf5200f2ff320029003700af
:10185000050d07001a003700f00707005c110700ac
:10186000371c070000027800e00f5200040032002d
:1018700044cab300044078004ce8b70010003700b9
:10188000151680000400240004826200e00f52005c
:101890000400320044cab300044078004ce8b700aa
:1018a00007003700161c070000027800e00f520006
:1018b00003003a0044c3b300044078004ce8b7008a
:1018c000c58420009542780084cab30084cf5200ba
:1018d000e1ff320007003700d00707003c11070086
:1018e000fdff370004cab300044078004ce8b7009d
:1018f000000000000080fa00000006004400fa002a
:10190000881f78001400200044bd880014002000c7
:1019100054bd880084bd8000e44188000002eb00d3
:1019200084bd88000002eb00844088000002eb00c8
:10193000a44088000002eb0034b98800043a80001b
:1019400061026200e00f52000300320034b98000ef
:101950000440a00034b98800053a80000408200043
:1019600004826200e00f52000400320035b98000aa
:10197000040220000482720034b98800053a800015
:101980000404200004826200e00f520004003200d0
:1019900035b98000040420000482720034b9880044
:1019a000043a800062026200e00f5200030032003d
:1019b00034b980000400a00034b98800053a8000e2
:1019c0000400280004826200e00f5200030032008d
:1019d00034b980000410a00034b98800043a8000b3
:1019e00070026200e00f52000300320034b9800040
:1019f0000420a00034b98800053a800004002400c7
:101a000004826200e00f52000300320034b980000b
:101a10000430a00034b988000002eb0084b88800cc
:101a20000002eb0094b888000002eb00a4b8880024
:101a30000002eb00b4b888000002eb00c4b88800d4
:101a40000002eb00d4b888000002eb00e4b8880084
:101a50000002eb00f4b888000002eb0004b9880033
:101a60000002eb0014b988000002eb00344188004a
:101a70000002eb00744188000002eb006441880022
:101a80000002eb00c4bb88000002eb0094bb88009e
:101a90000002eb00a4bb88000002eb00040f7800fa
:101aa000250037001e0fe8000060fe00a440800003
:101ab0000402e800a44088001e027800ea0f5200e9
:101ac0000f0036002435200024179800e42e200053
:101ad00034179800f4ff270044179800f4ff2700fc
:101ae000541798008496220064179800440220003e
:101af0000e024200840078000000eb00601c07002a
:101b00001e027800ef0f52000b003600643b2000ed
:101b100024079800e42e200034079800f4ff2700e3
:101b200044079800f4ff2700540798008496220089
:101b300064079800070037006402470084007800bb
:101b40000000eb00331c070000027800e00f520099
:101b5000d4ff32000002eb00040f780007003700ca
:101b60001e0fe800a44080000402e800a4408800a2
:101b70001e027800e90f520008003e006402470090
:101b8000840078000000eb00bb1c07000002780016
:101b9000e00f5200f2ff32000100370000000000a9
:101ba0002e029000644088003e029000744088003d
:101bb0004e029000b4b788005e029000c4b788005f
:101bc0006e029000944088000002eb00040f780041
:101bd000450037000060fe001e0fe8001e0278007e
:101be000ea0f52001e0036000002eb002417980096
:101bf0000002eb00341798000002eb004417980035
:101c00000002eb00541798000002eb0064179800e4
:101c10000002eb00741798000002eb00041f98000c
:101c20000002eb00141f98000002eb00241f980034
:101c30000002eb00341f98000002eb00441f9800e4
:101c40000002eb00541f98000002eb00641f980094
:101c50000002eb00741f98000002eb0004279800bc
:101c60001e027800ef0f52001f0036000002eb004a
:101c7000240798000002eb00340798000002eb00f4
:101c8000440798000002eb00540798000002eb00a4
:101c9000640798000002eb00740798000002eb0054
:101ca000040f98000002eb00140f98000002eb00f4
:101cb000240f98000002eb00340f98000002eb00a4
:101cc000440f98000002eb00540f98000002eb0054
:101cd000640f98000002eb00740f98000002eb0004
:101ce000041798000700370064024700840078005a
:101cf00010002000c71b070000027800e00f520010
:101d0000b4ff32002479210014079800de0290000d
:101d10001e029000050a78001e0290000482e8006e
:101d200014079800ce0290001e029000050a780069
:101d30001e0290000482e80014079800be02900082
:101d40001e029000050a78001e0290000482e8003e
:101d500014079800ae0290001e029000050a780059
:101d6000047a210014079800fe0290001e029000e1
:101d7000050a78001e0290000482e800140798000b
:101d8000ee0290001e029000050a78000002eb00af
:101d9000b4bd88006022b80024bd880035bd88002d
:101da0000e0a90009442880064802000c44388009a
:101db000a4ff2100d44388008087200076f9070023
:101dc000f428200064bc8800d4a3200074bc8800e0
:101dd000d4a3200084bc880081872000c078210023
:101de00078f90700048020007443880044ff210034
:101df00084438800e086200067f90700f42820006b
:101e000034bc8800d4a3200044bc8800d4a32000a4
:101e100054bc8800e18620006078210069f9070041
:101e20000060fe00440620003454880004d02700df
:101e3000645488008080eb000080eb007f0c07007a
:101e40000002780084548800040022009454880022
:101e50000002eb00a4548800a12a29000080eb00b6
:101e6000760c070000027800c454880004002200a9
:101e7000d45488000002eb00e4548800c45480006d
:101e80008400780000532700a70c070000027800a8
:101e9000f45488000100220000802200670c070033
:101ea0000002780024558800010022000000210073
:101eb000620c07000002780034558800843e200040
:101ec000445588002403200054558800841a2600b5
:101ed000c4558800311e29000080eb00570c070014
:101ee00000027800e455880004002200f4558800c0
:101ef0000002eb000456880011b52a000080eb00b8
:101f00004e0c0700000278002456880004002200ce
:101f1000345688000002eb004456880024568000a6
:101f200084007800005926007f0c0700000278002a
:101f30005456880001002200303322003f0c070075
:101f4000000278008456880001002200c0cc2100e5
:101f50003a0c0700000278009456880004fa20002a
:101f6000a456880024032000b456880024032000cf
:101f70000457880004dc2500345788008080eb007b
:101f80000080eb002d0c07000002780054578800f9
:101f900004002200645788000002eb007457880098
:101fa000a12a29000080eb00240c07000002780021
:101fb0009457880004002200a45788000002eb0018
:101fc000b45788009457800084007800801a260057
:101fd000550c070000027800c45788000100220059
:101fe00000002400150c070000027800f457880058
:101ff0000100220000002100100c07000002780000
:102000000458880004fa200014588800840c20002a
:102010002458880004dc250094588800211e2900db
:102020000080eb00050c070000027800b45888001f
:1020300004002200c45888000002eb00d458880035
:1020400011b52a000080eb00fc0b070000027800ad
:10205000f458880004002200045988000002eb00b4
:1020600014598800f458800084007800802c2300e4
:102070002d0c07000002780024598800010022007e
:1020800000802200ed0b0700000278005459880000
:102090000100220000802100e80b07000002780008
:1020a0006459880004fa200074598800840c2000c8
:1020b0008459880098408000944080000400780093
:1020c00015150700000278000801780084007800e8
:1020d00000ae20001904070084702000d459880045
:1020e000c4a22100045a88008000eb000080eb00ad
:1020f000d20b070000027800245a88000400220056
:10210000345a88000002eb00445a8800215e2900fe
:102110000080eb00c90b070000027800645a8800b9
:1021200004002200745a88000002eb00845a8800e0
:10213000645a80008400780000c22100fa0b070076
:1021400000027800945a88000100220090192200b1
:10215000ba0b070000027800c45a88000100220070
:1021600060e62100b50b070000027800d45a880011
:10217000843e2000e45a8800441f2000f45a88005e
:102180000002eb00645b88008000eb000080eb0045
:10219000aa0b070000027800845b8800040022007c
:1021a000945b88000002eb00a45b88008000eb00d9
:1021b0000080eb00a10b070000027800c45b8800e0
:1021c00004002200d45b88000002eb00e45b88007e
:1021d000c45b8000840078000000eb00d20b070095
:1021e00000027800f45b8800010022000000eb0090
:1021f000920b070000027800245c88000100220096
:102200000000eb008d0b070000027800345c8800b2
:102210000002eb00445c88000002eb00545c880084
:1022200084702000a45c880004772100d45c8800be
:102230008000eb000080eb00800b070000027800bc
:10224000f45c880004002200045d88000002eb00ba
:10225000145d8800215e29000080eb00770b0700e9
:1022600000027800345d880004002200445d88008c
:102270000002eb00545d8800345d8000840078002b
:10228000a0862100a80b070000027800645d88008a
:102290000100220090192200680b0700000278005c
:1022a000945d88000100220060e62100630b0700b6
:1022b00000027800a45d8800843e2000b45d8800a0
:1022c000441f2000c45d88000002eb00345e8800db
:1022d0008000eb000080eb00580b07000002780044
:1022e000545e880004002200645e88000002eb0057
:1022f000745e88008000eb000080eb004f0b07004d
:1023000000027800945e880004002200a45e880029
:102310000002eb00b45e8800945e800084007800c8
:102320000000eb00800b070000027800c45e88000c
:10233000010022000000eb00400b070000027800c3
:10234000f45e8800010022000000eb003b0b070058
:1023500000027800045f88000002eb00145f880030
:102360000002eb00245f88000002eb00f4488800c4
:1023700004e2240024498800517125000080eb000c
:102380002e0b070000027800444988000400220058
:10239000544988000002eb0064498800811a260035
:1023a0000080eb00250b07000002780084498800bc
:1023b00004002200944988000002eb00a449880030
:1023c000844980008400780040012500560b0700f6
:1023d00000027800b4498800010022000000eb00f0
:1023e000160b070000027800e44988000100220073
:1023f0000000eb00110b070000027800f449880090
:102400000002eb00044a88000002eb00144a880036
:102410000002eb00844a88008000eb000080eb00a3
:10242000060b070000027800a44a8800040022007e
:10243000b44a88000002eb00c44a88008000eb0028
:102440000080eb00fd0a070000027800e44a8800e3
:1024500004002200f44a88000002eb00044b8800cc
:10246000e44a8000840078000000eb002e0b070097
:1024700000027800144b8800010022000000eb00ed
:10248000ee0a070000027800444b88000100220099
:102490000000eb00e90a070000027800544b8800b6
:1024a0000002eb00644b88000002eb00744b8800d4
:1024b0000271220001652400e09120001f03070043
:1024c0000002eb00944e880004e22400c44e880011
:1024d000517125000080eb00d80a07000002780047
:1024e000e44e880004002200f44e88000002eb0055
:1024f000044f8800811a26000080eb00cf0a0700f5
:1025000000027800244f880004002200344f880025
:102510000002eb00444f8800244f800084007800c4
:1025200040012500000b070000027800544f88008e
:10253000010022000000eb00c00a07000002780042
:10254000844f8800010022000000eb00bb0a070056
:1025500000027800944f88000002eb00a44f88002e
:102560000002eb00b44f88000002eb00245088000a
:102570008000eb000080eb00b00a0700000278004a
:102580004450880004002200545088000002eb00f0
:10259000645088008000eb000080eb00a70a070071
:1025a00000027800845088000400220094508800c3
:1025b0000002eb00a4508800845080008400780062
:1025c0000000eb00d80a070000027800b450880031
:1025d000010022000000eb00980a070000027800ca
:1025e000e4508800010022000000eb00930a07007d
:1025f00000027800f45088000002eb0004518800cb
:102600000002eb00145188000271220001e823004f
:10261000209d2000c90207000002eb00c44b880087
:10262000846d2d00f44b88008000eb000080eb00ef
:10263000820a070000027800144c8800040022007f
:10264000244c88000002eb00344c8800118a2d00d5
:102650000080eb00790a070000027800544c8800e3
:1026600004002200644c88000002eb00744c8800d7
:10267000544c80008400780000b22c00aa0a0700a5
:1026800000027800844c88000100220000802200b3
:102690006a0a070000027800b44c8800010022009a
:1026a00090992100650a070000027800c44c880058
:1026b000843e2000d44c880044012000e44c880073
:1026c000c4ce2200544d88008000eb000080eb0057
:1026d0005a0a070000027800744d880004002200a6
:1026e000844d88000002eb00944d8800b111240055
:1026f0000080eb00510a070000027800b44d88000a
:1027000004002200c44d88000002eb00d44d880074
:10271000b44d800084007800400d2300820a070039
:1027200000027800e44d8800010022009019220088
:10273000420a070000027800144e880001002200bf
:1027400060e621003d0a070000027800244e880060
:10275000843e2000344e880044012000444e88000e
:102760000002eb00744e88000082eb00844e88006b
:102770000002eb00144d88000082eb00244d88001d
:102780000002eb0064518800846d2d009451880094
:102790008000eb000080eb00280a070000027800b0
:1027a000b451880004002200c45188000002eb00ec
:1027b000d4518800118a2d000080eb001f0a070009
:1027c00000027800f45188000400220004528800be
:1027d0000002eb0014528800f4518000840078005d
:1027e00000b22c00500a0700000278002452880032
:1027f0000100220000802200100a07000002780079
:102800005452880001002200909921000b0a070011
:102810000002780064528800843e200074528800d0
:102820004401200084528800c4ce2200f452880063
:102830008000eb000080eb00000a07000002780037
:102840001453880004002200245388000002eb0087
:1028500034538800b11124000080eb00f709070011
:10286000000278005453880004002200645388005a
:102870000002eb00745388005453800084007800f9
:10288000400d2300280a07000002780084538800c6
:102890000100220090192200e809070000027800d8
:1028a000b45388000100220060e62100e30907001c
:1028b00000027800c4538800843e2000d45388006e
:1028c00044012000e45388000002eb001454880007
:1028d0000082eb00245488000002eb00b452880010
:1028e0000082eb00c45288005516800004042000ca
:1028f0000482620004f0a7000402ea000402e90076
:102900004f22de00044278000482fb006102620074
:102910004622dd0056168000f5fb2f00850263007d
:102920000482720054168800d762a900d602a8005b
:10293000d742a900d702a900c4e2a800cac2a900d0
:10294000cbe2a800c4c2a900d042a800d662a80069
:10295000e2a2a800cae2a900ca42a900e282a80035
:10296000cbc2a900d6c2a800d6a2a800c522a90041
:10297000d362a900d202a900d242a800cdc2a80009
:10298000cda2a800d222a800d322a900d342a90038
:10299000d302a900c182a800c1a2a800c0e2a90078
:1029a000c6c2a900c7e2a900c1c2a800c1e2a8002e
:1029b000e5a2a800e582a800e5c2a800e5e2a8001b
:1029c000d282a800d2e2a800d382a800d3a2a80095
:1029d000cc62a800cc82a800e502a800e522a800ed
:1029e000c142a800c0c2a900cc42a900d262a9007d
:1029f000dea2a900c6e2a900c642a900de82a900a3
:102a0000cde2a900c7c2a900d2c2a900d2a2a900e2
:102a1000c122a9008e00a9008600a900e40480005c
:102a20000400a1000410a0000420a000e404880019
:102a30008220a9008c60a9008460a900a404800001
:102a400004c0a00004d0a10004e0a000a4048800f9
:102a50008d60a9008560a900c404800004c0a000a6
:102a600004d0a00004e0a100c404880085e0a9000f
:102a7000c200a8008de0a800d404800004c0a1001a
:102a800004d0a10004e0a000d40488008d20a90097
:102a9000c40480000440a0000450a1000460a00011
:102aa000c40488008d40a900c40480000440a00034
:102ab0000450a1000460a000c40488008940a9005b
:102ac0009140a900440580000480a0000490a0006b
:102ad00004a0a00044058800043a80000480a100fe
:102ae0000490a10004a0a00004b0a000043a880053
:102af000f4002f00341088001406200024108800f1
:102b0000f1fb2d00b0532b0040f60700f1fb2d0028
:102b1000a0f32b0040f6070004102000841c88005e
:102b200004102000842288000042eb00044078005a
:102b3000c2e8b7000042eb0004407800c3e8b700e9
:102b40000042eb000440780004e9b7000042eb00cb
:102b50000440780005e9b70004f02f0064108800f5
:102b600004042000a4108800f47527007410880065
:102b7000d4fa25002408880054fa25008408880027
:102b800094d02300640888000002eb003408880019
:102b900084c0a900d4fa2d009408880044422f0074
:102ba0007408880054f82500f4088800d4f925003a
:102bb000040988000002eb00c408880086c0a90050
:102bc000440d2300e4088800f40d200034488800f8
:102bd000e40d200054488800040220006448880066
:102be0000002eb007448880014c0b3000440780071
:102bf00010e9b700040220004448880060902000db
:102c0000181a070004c4b3000440780018e9b7009c
:102c10000042eb000440780019e9b70004022000ec
:102c20009448880004022000a44888000402200080
:102c3000b448880000c2eb00044078001ae9b700ed
:102c400000c2eb00044078001be9b700c114070084
:102c50004f0478000080fa00000006000200fa002d
:102c60000002eb00040f78000002eb0034b988008a
:102c70004007a90040e7a90040c7a9004027a900d4
:102c800041e7a9004087a90041c7a9000002eb0065
:102c900084bd88000002eb00a4bd88006090200085
:102ca000271a07000041eb00a1c0b30020912000cb
:102cb000541e0700000278001e0f72000041eb0056
:102cc000a1c0b300209120004e1e07000002780032
:102cd0001e0f72000041eb00a1c0b3002091200044
:102ce000481e0700000278001e0f7200a491200009
:102cf000144278000441780041c1b30020912000c3
:102d0000401e0700000278001e0f7200b4912000e0
:102d1000144278000441780051c1b3002091200092
:102d2000381e0700000278001e0f720082cfb30029
:102d30008040eb0020912000321e07000002780046
:102d40001e0f72000041eb0011c0b3002091200063
:102d50002c1e0700000278001e0f72000041eb00dd
:102d600021c0b30020912000261e07000002780039
:102d70001e0f72000041eb0031c0b3002091200013
:102d8000201e0700000278001e0f720004f02f00c2
:102d90009e02620004a02f00848f520007003a00b8
:102da00035b98000040820000482720034b988001c
:102db000a4b880000402e800a4b888008040eb00ba
:102dc00020912000411e070000027800040f7800c7
:102dd000f40f20009e026200840f2000848f5200b6
:102de0000700320035b98000040820000482720018
:102df00034b98800a4b880000402e800a4b88800b0
:102e0000c3070700ca070700cd0707000080fa00c4
:102e1000000006000600fa00a4bd80000402e800dd
:102e2000a4bd8800cbe2a900e08620005af5070087
:102e30008087200058f50700420620004106200048
:102e4000e0912000ef00070042062000410620002c
:102e5000209d2000eb0007004206200041062000d4
:102e600000ae2000e70007004206200041062000d7
:102e700060a82000e3000700420620004106200071
:102e800040b92000df000700420620004106200074
:102e9000a0b32000db000700a10707009807070088
:102ea000480807008c60a900551680000404200023
:102eb0000482620004f0a7000402ea000402e900b0
:102ec0004f22de00044278000482fb0061026200af
:102ed0004622dd0056168000f5fb2f0085026300b8
:102ee00004827200541688004b06070055168000b5
:102ef000040420000482620004f0a7000402ea0037
:102f00000402e9004f22de00044278000482fb0044
:102f1000610262004622dd0056168000f5fb2f009c
:102f20008502630004827200541688003517800001
:102f30000400240004826200e00f520014003a00f2
:102f40007442800051c32000040078007608070016
:102f500000027800040f78000001eb009e0078006a
:102f6000e0912000750007008442800051c32000da
:102f7000040078006c08070000027800040f780055
:102f80000001eb009e007800209d20006b000700f0
:102f9000a483200014427800e04f52000d003a0054
:102fa00004498000040078002d0b0700000278001f
:102fb000140798001e0090004111070000027800dd
:102fc000240798001e019000ae00900060a8200029
:102fd0005a00070055168000040420000482620095
:102fe00004f0a7000402ea000402e9004f22de0018
:102ff000044278000482fb00610262004622dd0088
:1030000056168000f5fb2f008502630004827200d3
:1030100054168800c50107005516800004042000de
:103020000482620004f0a7000402ea000402e9003e
:103030004f22de00044278000482fb00610262003d
:103040004622dd0056168000f5fb2f008502630046
:103050000482720054168800270507005516800068
:10306000040420000482620004f0a7000402ea00c5
:103070000402e9004f22de00044278000482fb00d3
:10308000610262004622dd0056168000f5fb2f002b
:1030900085026300048272005416880044c4b300a1
:1030a000044078004ce8b7008c12070064c0b300fd
:1030b000044078004ce8b7000080fa0000000600e9
:1030c0000000fa0011e1a80021e1a800f4cf2700d8
:1030d0000415880084fe20001415880064342e0036
:1030e0002415880034fe2e003415880074002c004e
:1030f0004415880084ff230054158800a1e2a8002d
:103100008560a9008d60a8008540a9008d40a800b9
:103110008520a9008d20a8000de2a800e282a80069
:103120000042eb00044078009ef7b70081130700cf
:103130000060fe000080fa00000006000600fa00b1
:10314000000f780011079800220798001e027800ef
:10315000b40290001e029000848f520008003100db
:103160001e027800b40290001e027800150298003a
:10317000f4b880000402e800f4b8880003003700c7
:103180001e0278009e029000150298001e02780030
:10319000941a90002e029000848f52000800310093
:1031a0001e027800941a90001e0278007512980092
:1031b000f4b880000402e800f4b888000300370087
:1031c0001e027800ae02900075129800c58420009f
:1031d0009542780044c2b30084cf5200040032000c
:1031e00042062000410620001e007800050007006e
:1031f0001e007800540007000060fe000080fa0006
:10320000000006000a00fa00200798003107980025
:1032100042079800be0290004e029000848f520038
:10322000090039002e029000940290002e029000b6
:10323000250298002e029000f41290002e029000b9
:10324000051a98003c0037002e02900014029000ee
:1032500005002000048fbe003e0290000500200003
:103260001e03900004b3b900060378009e037800a3
:1032700005b8b90080037800070343009e03780077
:10328000040278000722b800050343008602780094
:10329000048fbe00048fbe004e0290000500200087
:1032a0000401be001e00be0086f407000002be003e
:1032b000048fbe009e0278002e0290002502980026
:1032c0002e0290007412900005002000048fbe00b2
:1032d0003e029000050020001e03900004b3b900d8
:1032e000060378009e03780005b8b90080037800d3
:1032f000070343009e037800040278000722b80009
:103300000503430086027800048fbe00048fbe00d0
:103310004e029000050020000401be001e00be0009
:1033200068f407000002be00048fbe009e02780011
:103330002e029000051a98002e009000020007004f
:103340000080fa00000006000600fa00200798003e
:103350002e029000d40290002e02900024029000d1
:1033600085007800040078006f07070000027800ed
:10337000040f78002e029000640290008400780010
:103380001e0078006807070000027800040f78002c
:103390002e02900074029000e00f52000c003400e6
:1033a0002e029000740290000482ea009e0f5200e8
:1033b000030031000082eb00040f78000f0037009b
:1033c0002e029000740290001e0f42000b00370086
:1033d0002e029000740290000402ea009e0f520038
:1033e000030036000002eb00040f780003003700f2
:1033f0002e029000740290001e0f42002e029000d8
:103400009e027800450298002e029000b41a9000a7
:103410002e029000041a90008500780004007800c5
:103420004107070000027800140798002e02900060
:10343000441a9000840078001e0090003a070700ac
:1034400000027800140798002e029000541a900091
:10345000e00f52000f0034002e029000541a90002a
:103460008482ea001e029000848f52000300310023
:103470000082eb0014079800150037002e02900020
:10348000541a90009e029000048242001407980093
:103490000f0037002e029000541a90000402ea0038
:1034a000840278001e029000848f520003003600d0
:1034b0000002eb0014079800050037002e02900070
:1034c000541a90009e029000048242001407980053
:1034d0002e0290009e029000251a98002e02900065
:1034e000940a90002e02900024029000850078003b
:1034f000040078000c07070000027800040f780031
:103500002e029000240a9000840078001e007800ab
:103510000507070000027800040f78002e029000d3
:10352000340a9000e00f52000c0034002e0290008c
:10353000340a90000482ea009e0f5200030031001a
:103540000082eb00040f78000f0037002e0290007d
:10355000340a90001e0f42000b0037002e0290002c
:10356000340a90000402ea009e0f52000300360065
:103570000002eb00040f7800030037002e029000d9
:10358000340a90001e0f42002e029000740a900030
:10359000840078001e007800e3060700000278002f
:1035a000ae029000d40a98002e02900004129000ff
:1035b000840078001e007800db0607000002780017
:1035c000ae029000e40a98002e029000d40a900007
:1035d0002e02900014129000848f520004003100db
:1035e0002e029000941290002e029000550a98002e
:1035f0002e029000f41a90002e029000041a9000ff
:103600008500780004007800c706070000027800f3
:10361000140798002e029000042290008400780085
:103620001e009000c00607000002780014079800f2
:103630002e02900014229000e00f52000f00340080
:103640002e029000142290008482ea001e02900054
:10365000848f5200030031000082eb0014079800b1
:10366000150037002e029000541a90009e02900020
:1036700004824200140798000f0037002e029000c9
:10368000142290000402ea00840278001e029000d6
:10369000848f5200030036000002eb0014079800ec
:1036a000050037002e029000142290009e02900028
:1036b00004824200140798002e02900054229000c9
:1036c000840078001e009000970607000002780032
:1036d000ae029000b42298002e0290006422900066
:1036e000840078001e0090008f060700000278001a
:1036f000ae029000c42298002e029000b4229000e6
:103700002e02900074229000848f52000400310039
:103710002e029000f42290002e0290003522980094
:103720000060fe000080fa00000006001200fa00af
:10373000a400200084bd8800e45c80001407980089
:10374000145a8000240798007454800034079800ad
:10375000d4558000440798004457800054079800cf
:10376000a4588000640798003449800074079800ca
:10377000d44e8000040f980014c0b300044f7800aa
:103780000042eb0014479800100037000e82e8005a
:103790008400780060902000f51707000042780050
:1037a000044f78001e4290000442e800144798003d
:1037b0001e427800e04f520003003200e4b880005f
:1037c0000402e800e4b888000060fe009e42780031
:1037d0000582fb000402ea004f22de0084427800ea
:1037e00014c0b3001e439000f34f53000100360095
:1037f0000042eb0004c26200e04f5200e3ff3a00d7
:103800001e429000f34f52000200360000022000da
:10381000151407000080fa00000006000c00fa00f2
:103820009400200084bd8800043a80006102620098
:10383000e00f52000300320034b980000440a000c1
:1038400034b98800053a8000040820000482620030
:10385000e00f52000400320035b98000040220005d
:103860000482720034b98800053a80000404200004
:1038700004826200e00f52000400320035b980007b
:10388000040420000482720034b98800043a8000e5
:1038900062026200e00f52000300320034b980007f
:1038a0000400a00034b98800053a80000400280014
:1038b00004826200e00f52000300320034b980003d
:1038c0000410a00034b98800043a8000700262003d
:1038d000e00f52000300320034b980000420a00041
:1038e00034b98800053a8000040024000482620094
:1038f000e00f52000300320034b980000430a00011
:1039000034b988000060fe00350480000404200003
:1039100004826200e00f5200d700320086c0a90086
:10392000044380000402e80004438800f44280005d
:103930000402e8006f026200f4428800f442800052
:10394000e00f520015003a005516800004082000d0
:1039500004826200e00f520002003200cae2a900b5
:1039600001003700cae2a80055428000d4072000b9
:1039700004aab900040278008402d1004442800005
:1039800085007800040078008d06070000027800aa
:10399000444288000002eb005442880044782d0025
:1039a00075012000048fbe00e5bb80008415200057
:1039b000848f520002003e0094152000e4bb880072
:1039c000e4bb8000050020000401be001e00be0014
:1039d000bcf207000002be00048fbe001e02780089
:1039e000f4bb8800250480000408200004826200e3
:1039f000e00f5200020032000002eb00f4bb88002e
:103a0000351780000400220004826200e00f52009b
:103a100006003200f4418000e00f52000300320043
:103a20004c110700431107003a11070035178000b9
:103a30000400220004826200e00f520003003a00fa
:103a400014002000f4418800020037000002eb005f
:103a5000f44188004c020700a4832000144278003f
:103a6000e04f52000d003a00044980000400780045
:103a70007b08070000027800240798002e009000c1
:103a80008f0e070000027800340798002e01900086
:103a9000be00900060a82000a8fd0700c48420009c
:103aa00014427800f44f520005003200c584200013
:103ab0009542780044cab30084cf520018003a00ff
:103ac000420620008000eb00e0912000cdfd0700c1
:103ad000420620008000eb00e0912000c9fd0700b5
:103ae000420620008000eb0000ae2000c5fd07006c
:103af000420620008000eb0060a82000c1fd070006
:103b0000420620008000eb0040b92000bdfd070008
:103b1000420620008000eb00a0b32000b9fd0700a2
:103b2000ee0f07007613070000027800e00f520046
:103b300003003200c4e2a900d042a900020037000d
:103b4000c4e2a800d042a8002484200014427800d7
:103b50000442e8000440780042e8b70024842000d2
:103b6000144278006f4262000440780042e8b700d7
:103b70002484200014427800e04f520001003a00f3
:103b80003f000700a1000700c5842000954278008f
:103b900044c4b30084cf520005003a0025048000dd
:103ba0000404200004826200e00f5200040032008e
:103bb000defe0700670407000002eb00b441880046
:103bc000b4418000e00f520029003a001541800006
:103bd000a4bb8000848f5200030031001441800098
:103be0000402e8001441880094bb80000500200016
:103bf00044079800550798001441800005002000f4
:103c00005e03900004b3b90006037800ce03900071
:103c100005b8b9008003780007034300ce03900085
:103c2000040278000722b8000503430086027800ea
:103c300044079800550798004407980055079800d6
:103c4000a4bb8000050020000401be004e009000cf
:103c5000de0090001bf207000002be00440798003f
:103c6000550798004e029000b4bb88000200370050
:103c70000002eb00144188000080fa0000000600fa
:103c80000200fa008400200084bd8800355d8000b9
:103c9000c45c8000850078000400780022050700dd
:103ca00000027800040f7800445d800084007800f2
:103cb0001e0078001c05070000027800040f780041
:103cc000545d80001e0f42001e0278000402d100e5
:103cd000b4438800245d80000402d100a44388001e
:103ce000e086200090f10700655a8000f4598000ba
:103cf00085007800040078000b05070000027800ba
:103d0000040f7800745a8000840078001e00780048
:103d10000505070000027800040f7800845a80002f
:103d20001e0f42001e0278000402d10004448800e5
:103d3000545a80000402d100f44388008087200098
:103d400079f1070094438000040f78001e02780088
:103d5000e00f520002003d000002eb00040f78006b
:103d60001e02780004024200040f780004d02700ed
:103d70009e027800848f52000200360004d0270093
:103d8000040f78000002eb00045d88000002eb00e5
:103d9000f45c88001e027800145d8800e443800013
:103da000040f78001e027800e00f520002003d0070
:103db0000002eb00040f78001e02780004024200ab
:103dc000040f780004d027009e027800848f5200f0
:103dd0000200360004d02700040f78000002eb0038
:103de000345a88000002eb00245a88001e02780032
:103df000445a8800a0b3200053fd070040b92000ba
:103e000051fd07000080fa00000006000c00fa00d7
:103e1000845780008400780000ae2000c90d0700a0
:103e200000027800cfa2de00048fbe009e02900048
:103e30000471220004aab900040378001e0278006d
:103e40006022b90004027800040343009e02780057
:103e500004712200042ab80005034300860278009a
:103e6000048fbe00048fbe00e458800084007800f8
:103e700000ae2000e90d070000027800cfa2de00ae
:103e80000401be001e00be008ef107000002be004d
:103e9000048fbe001e027800444388001443800053
:103ea000e00f5200b6003a002442800005002000d6
:103eb000048fbe00f4bb8000050020001e039000ac
:103ec00004b3b900060378009e03780005b8b90072
:103ed00080037800070343009e0378000402780003
:103ee0000722b8000503430086027800048fbe0055
:103ef000048fbe001e02be004a2bdd004622de00fb
:103f000004027300c62ade00048fbe001e02900069
:103f10006d22b900040378001e0278006022b90007
:103f200004027800040343009e027800d4002000bd
:103f3000042ab8000503430086027800048fbe00ff
:103f4000048fbe001e02be00452bdd004b22de00aa
:103f500004027300cb2ade00048fbe00e4ff2f00b2
:103f6000050020001e03be00840f5300858f5b00f8
:103f7000030036000082eb00344288000200370064
:103f80001e02780034428800a4b780000504200097
:103f9000850f52001400320005042000850f5200e6
:103fa00007003e0005022000850f52001c00320071
:103fb00005032000850f52000f0032002e0037004d
:103fc00005032100850f52001d0032000504210069
:103fd000850f52001600320005022100850f5200a5
:103fe0002100320024003700344280000500200008
:103ff000048fbe0024003700b5b780003442800033
:104000000001eb0085007800040078008e1a07009c
:104010000002780005002000048fbe001a0037005f
:104020003442800005002000048fbe0016003700d7
:104030003442800005002000048fbe0012003700cb
:10404000c5b78000344280000001eb008500780095
:10405000040078007c1a07000002780005002000a8
:10406000048fbe00080037003442800005002000a5
:10407000048fbe0004003700344280000500200099
:10408000048fbe00000000001e02be00492bdd00b0
:104090004722de0004027300c72ade00048fbe0040
:1040a0009e027800f4032000048262004407980016
:1040b0004e029000240798002e029000e00f52005c
:1040c00002003c000002eb0024079800ae029000c2
:1040d000e4032000848f520002003400f403200027
:1040e00024079800ae02900045079800ce02900089
:1040f000f40320000482620044079800c584200075
:104100009542780044c4b30084cf52000f003200bf
:10411000c58420009542780044c3b30084cf520088
:104120000a003200c58420009542780054c3b300d1
:1041300084cf520005003200c584200095427800eb
:1041400084cab30084cf520044003a004e0290006b
:104150008402420084512800048242001403780043
:104160005607980042062000de00900000ae2000b6
:1041700024fc07005e02900064b888003700370016
:104180000543800044062000848f5200030036005f
:104190002543800035079800020037003643800031
:1041a0003607980074b880000402e80074b88800ec
:1041b00075b8800034062000848f52002700360036
:1041c0000002eb0074b888003e029000e5fc2f006e
:1041d0008482420044438000848f520009003600ec
:1041e00064b880000402e80064b8880065b8800004
:1041f00044062000848f520002003600440620004e
:1042000064b888003e0290002503200084824200aa
:1042100044438000848f52000600310064b880005f
:10422000e00f52000300320064b880000402e9008d
:1042300064b8880064b88000fd0f520002003e00a0
:10424000e401200064b8880064b8800042062000c1
:104250008400780000ae2000eafb07000080fa002e
:10426000000006000400fa007400200084bd8800ed
:10427000251680000420200004826200e00f520016
:1042800037003200d6c2a900800c200001002000b7
:10429000651a070021c0b3000000eb004d180700ad
:1042a0000002be00048fbe00040020001511210092
:1042b0001e03be00840f5300858f5b0006003a008a
:1042c0000002eb0054438800c4b880000402e800f8
:1042d000c4b88800020037001e02780054438800ea
:1042e000d6c2a800800c2000010020004e1a070052
:1042f000d6a2a900800c2000010020004a1a070065
:1043000021c0b3000000eb00321807000002be001d
:10431000048fbe0004002000151121001e03be0002
:10432000840f5300858f5b0006003a000002eb000b
:1043300064438800c4b880000402e800c4b8880060
:10434000020037001e02780064438800d6a2a8004d
:10435000800c200001002000331a070007003700fe
:104360000002eb00644388000002eb005443880025
:10437000d4b880000402e800d4b88800c522a9009f
:104380000080fa00000006000200fa00640020002d
:1043900084bd880000cf2000311a07000002780099
:1043a000040f7800744280009e00780004007800ba
:1043b00003040700000278007442880000df200038
:1043c000271a070000027800040f7800844280005a
:1043d0009e00780004007800f903070000027800ce
:1043e00084428800351780000400240004826200a3
:1043f000e00f520002003a0084428000f44088003e
:10440000000f2100161a070000027800040f780040
:10441000145680009e00780004007800e80307002e
:104420000002780014568800001f21000c1a0700b3
:1044300000027800040f7800b45480009e007800d9
:1044400004007800de03070000027800b4548800fe
:10445000003f2100021a070000027800040f7800d4
:10446000845780009e00780004007800d403070081
:104470000002780084578800002f2100f8190700f7
:1044800000027800040f7800e45880009e00780055
:1044900004007800ca03070000027800e45888008e
:1044a000004f2100ee19070000027800040f780089
:1044b000744980009e00780004007800c003070063
:1044c0000002780074498800005f2100e4190700a9
:1044d00000027800040f7800144f80009e007800de
:1044e00004007800b603070000027800144f88002b
:1044f0000080fa00000006000600fa00f4cf270052
:1045000004158800e4fd20001415880064342e0092
:104510002415880034fe2e003415880074002c0009
:104520004415880004fc230054158800a1e2a8006b
:104530000002eb00040f780080003700000000004c
:10454000151580000408200004826200e00f52006c
:10455000fbff32000002eb00140798003400370024
:10456000051480001e0278000403420004ef2000be
:1045700004024300050a7800151480001e0278002a
:104580000403420004ff200004024300050a7800ef
:10459000251480001e02780004034200040f21004d
:1045a00004024300050a7800351480001e027800da
:1045b00004034200041f210004024300050a78009e
:1045c000451480001e02780004034200042f2100dd
:1045d00004024300050a7800551480001e0278008a
:1045e00004034200043f210004024300050a78004e
:1045f000651480001e02780004034200044f21006d
:1046000004024300050a7800751480001e02780039
:1046100004034200045f210004024300050a7800fd
:104620001e0fe8001e0290000402e8001407980024
:104630001e029000e70f5200c9ff36000000000084
:10464000151580000408200004826200e00f52006b
:10465000fbff3a000002eb0014079800340037001b
:10466000851480001e0278000403420004ef20003d
:1046700004024300050a7800951480001e027800a9
:104680000403420004ff200004024300050a7800ee
:10469000a51480001e02780004034200040f2100cc
:1046a00004024300050a7800b51480001e02780059
:1046b00004034200041f210004024300050a78009d
:1046c000c51480001e02780004034200042f21005c
:1046d00004024300050a7800d51480001e02780009
:1046e00004034200043f210004024300050a78004d
:1046f000e51480001e02780004034200044f2100ec
:1047000004024300050a7800f51480001e027800b8
:1047100004034200045f210004024300050a7800fc
:104720001e0fe8001e0290000402e8001407980023
:104730001e029000e70f5200c9ff3600f407200068
:104740009e027800848f52007cff3600a1e2a9000f
:1047500000ef2000421907000002780024079800ab
:104760002e029000545a880000ff20003c190700d8
:1047700000027800240798002e029000245d880033
:10478000000f210036190700000278002407980066
:104790002e02900014568800001f210030190700d7
:1047a00000027800240798002e029000b45488007c
:1047b000003f21002a190700000278002407980012
:1047c0002e02900084578800002f21002419070032
:1047d00000027800240798002e029000e458880018
:1047e000004f21001e1907000002780024079800de
:1047f0002e02900074498800005f210018190700fc
:1048000000027800240798002e029000144f8800c0
:104810000080fa00000006000600fa00f4cf27002e
:1048200004158800e4fd20001415880064342e006f
:104830002415880034fe2e003415880074002c00e6
:10484000441588000403200054158800a1e2a80044
:104850000002eb00040f7800860037000000000023
:10486000151580000408200004826200e00f520049
:10487000fbff32000002eb001407980037003700fe
:10488000051480001e0278000403420004cf2000bb
:1048900004024300050a7800151480001e02780007
:1048a0000403420004df200004024300050a7800ec
:1048b0001e0fe800251480001e0278000403420049
:1048c00004cf200004024300050a7800351480005c
:1048d0001e0278000403420004df200004024300ab
:1048e000050a78001e0fe800451480001e027800bb
:1048f0000403420004cf200004024300050a7800ac
:10490000551480001e0278000403420004df2000da
:1049100004024300050a78001e0fe80065148000b9
:104920001e0278000403420004cf2000040243006a
:10493000050a7800751480001e0278000403420006
:1049400004df200004024300050a78001e0fe8007f
:104950001e0290000402e800140798001e02900056
:10496000e30f5200c6ff360000000000151580005e
:104970000408200004826200e00f5200fbff3a00ae
:104980000002eb0014079800370037008514800000
:104990001e0278000403420004cf200004024300fa
:1049a000050a7800951480001e0278000403420076
:1049b00004df200004024300050a78001e0fe8000f
:1049c000a51480001e0278000403420004cf2000da
:1049d00004024300050a7800b51480001e02780026
:1049e0000403420004df200004024300050a7800ab
:1049f0001e0fe800c51480001e0278000403420068
:104a000004cf200004024300050a7800d51480007a
:104a10001e0278000403420004df20000402430069
:104a2000050a78001e0fe800e51480001e027800d9
:104a30000403420004cf200004024300050a78006a
:104a4000f51480001e0278000403420004df2000f9
:104a500004024300050a78001e0fe8001e029000c1
:104a60000402e800140798001e029000e30f5200b1
:104a7000c6ff3600f40720009e027800848f5200a3
:104a800076ff3600a1e2a90000cf200074180700cd
:104a900000027800240798002e02900074428800db
:104aa00000df20006e18070000027800240798003d
:104ab0002e029000844288000080fa000000060068
:104ac0000400fa0094028000040f7800ff3ffc000d
:104ad000140280000450a0000460a0000470a00034
:104ae000140288001e0278009402880000008800ea
:104af00000000000000000000000000000000000b6
:104b00008c60a9008e00a900940280001407980010
:104b1000ff3ffc00140280000450a1000460a100cb
:104b20000470a100140288001e0290009402880004
:104b30000000880003000700cbe2a8000080fa0014
:104b4000000006002200fa0024792100040f7800fa
:104b50001e02780014027800440798001e8fe800b7
:104b60001e02780014027800340798001e8fe800b7
:104b70001e02780014027800240798001e8fe800b7
:104b80001e0278001402780014079800047a2100ad
:104b9000040f78001e027800140278006407980061
:104ba0001e8fe8001e027800140278005407980057
:104bb0000e82e800840078001000200048100700f2
:104bc0000080fa00000006000000fa005c00070008
:104bd0004f00070056000700420620008000eb004f
:104be000e091200087f90700420620008000eb00da
:104bf000e091200083f90700420620008000eb00ce
:104c000000ae20007ff90700420620008000eb0084
:104c100060a820007bf90700420620008000eb001e
:104c200040b9200077f90700420620008000eb0021
:104c3000a0b3200073f90700e0862000d6ed07003e
:104c400080872000d4ed070005e1a9008e00a900af
:104c50008c60a9008600a9008460a900c4c2a900d4
:104c60000080fa00000006000000fa00340007008f
:104c700005e1a9008e00a9008c60a9008600a900aa
:104c80008460a900c4c2a9000080fa0000000600e8
:104c90000000fa00e0862000bfed070080872000ba
:104ca000bded0700420620008000eb0060a8200058
:104cb00054f90700420620008000eb0000ae2000ff
:104cc00050f90700420620008000eb00a0b320004e
:104cd0004cf90700420620008000eb0040b920009c
:104ce00048f907000e000700050007000002eb006e
:104cf0003408880084c0a9000080fa000000060083
:104d00000000fa00d702a8000080fa0000000600a8
:104d10000000fa00d702a9000080fa000000060097
:104d20000000fa00d722a8000080fa000000060068
:104d30000000fa00d722a9000080fa000000060057
:104d40000000fa00d762a900d602a8000080fa008d
:104d5000000006000400fa000002eb00040f7800d7
:104d60000002eb00140798005400200084bd880066
:104d7000c58420009542780044c3b30084cf52001c
:104d80000f003200c58420009542780044c4b3006f
:104d900084cf52000a003200c5842000954278007a
:104da00084cab30084cf520005003200c5842000bd
:104db0009542780054c3b30084cf520005003a00f6
:104dc0009e029000f4f72f000482620014079800fe
:104dd000040037009e029000040820000482720044
:104de00014079800e4b98000e00f5200040032007c
:104df0001e0290000400a000140798000400370071
:104e00009e029000e4ff2f000482620014079800c5
:104e1000b4b98000e00f5200020032001e20a00052
:104e200002003700b4ff2f001e0f620055b980004a
:104e300004f02f0004826200e00f520004003200f0
:104e40001e0290000440a0001407980004003700e0
:104e50009e029000f4fe2f00048262001407980066
:104e600055b98000f40f200004826200e00f520068
:104e7000040032001e0290000410a00014079800e5
:104e8000040037009e029000d4ff2f0004826200cd
:104e90001407980085b9800004f02f000482620096
:104ea000e00f5200020032001e00a0000200370096
:104eb000e4ff2f001e0f620085b98000f40f200070
:104ec00004826200e00f5200020032001e10a000b7
:104ed00002003700d4ff2f001e0f6200c58420009f
:104ee0009542780044c4b30084cf520004003a00d5
:104ef0001e0290000420a000140798000400370050
:104f00009e029000b4ff2f000482620014079800f4
:104f1000a4912000144278000482fb009e0f5200ee
:104f2000100032001e02780004427800044078002d
:104f30001ae9b700a49120001442780004417800d7
:104f400041c1b30020912000ae1507000002780097
:104f5000e00f520003003200a4b880000402e80011
:104f6000a4b88800b4912000144278008482fb0029
:104f70001e029000848f5200100032001e0290002a
:104f800004427800044078001be9b700b491200087
:104f9000144278000441780051c1b30020912000f0
:104fa0009815070000027800e00f5200030032005d
:104fb000a4b880000402e800a4b888000080fa00c9
:104fc000000006000000fa00151680000400220010
:104fd00004826200e00f5200050032000042eb0044
:104fe00004407800f2f6b700cbc2a90004003700f5
:104ff00014c0b30004407800f2f6b700cbc2a8009a
:10500000d762a800d602a90005e1a9000002eb00c2
:10501000040888008460a9008c60a8007417200030
:105020001408880005e1a8000002eb00340888009d
:1050300084c0a9000080fa00000006000a00fa00ff
:1050400030079800410798003e02900005002000bc
:1050500014079800250798001e029000ae029000e9
:10506000c022dd00040020001407980025079800e6
:105070004e029000050020000401be001e009000ba
:10508000ae0090000fed07000002be00140798006c
:10509000250798001e029000ae0290004d2bdd0007
:1050a0004322de0004027300c32ade0014079800c6
:1050b000250798001e039000ae0390000400200016
:1050c000f5ff2f00060078000703780084037800be
:1050d000050278000700600004026300050020005c
:1050e000c022dd00040020000403be006102b800fd
:1050f0000403730085837300e00f5300e08f5b00af
:10510000030032000082eb00040f78000200370039
:105110001e029000040f78001e0278000400780040
:105120000080fa00000006000800fa00200798003e
:10513000310798002e02900005002000048fbe0069
:105140003e029000050020001e03900004b3b90049
:10515000060378009e03780005b8b9008003780044
:10516000070343009e037800040278000722b8007a
:105170000503430086027800048fbe00048fbe0042
:105180001e02be00432bdd004d22de000402730030
:10519000cd2ade00048fbe00f4ff2f0005002000a2
:1051a0001e03be00840f5300858f5b00060036008f
:1051b000f4ff2f0005002000048fbe0004b980001a
:1051c0000402e80004b988001e0278002407980051
:1051d0002e029000040078000080fa000000060013
:1051e0000a00fa0030079800410798003e0290003c
:1051f000e00f520002003a004e029000340798007f
:105200003e02900005002000140798002507980032
:10521000ae029000f40f200004aab9000403780045
:105220001e0290006022b9000402780004034300cb
:105230009e029000f40f2000042ab80005034300ea
:105240008602780014079800250798001407980034
:10525000250798004e029000050020001e039000d4
:10526000ae0390000602420087824a0014079800ad
:10527000250798001e029000ae029000482bdd002a
:105280004822de0004027300c82ade0014079800da
:10529000250798001e029000040f78004e0290002f
:1052a0009e0f5200020036001e0fe8000400370077
:1052b0004e0290009e0f5200010031001e0fe900c7
:1052c0001e027800040078000080fa00000006004a
:1052d0000a00fa0030079800410798003e0290004b
:1052e000e00f520002003a004e029000340798008e
:1052f0003e02900005002000140798002507980042
:10530000ae029000f403200004aab9000403780060
:105310001e0290006022b9000402780004034300da
:105320009e029000f4032000042ab8000503430005
:105330008602780014079800250798001407980043
:10534000250798004e029000050020001e039000e3
:10535000ae0390000602420087824a0014079800bc
:10536000250798001e029000ae0290004a2bdd0037
:105370004622de0004027300c62ade0014079800ed
:10538000250798001e029000040f78004e0290003e
:105390009e0f5200020036001e0fe8000400370086
:1053a0004e0290009e0f5200010031001e0fe900d6
:1053b0001e027800040078000080fa000000060059
:1053c0000a00fa0030079800410798003e0290005a
:1053d000e00f520002003a004e029000340798009d
:1053e0003e02900005002000140798002507980051
:1053f0002e0290006f22b900040378001e02900074
:105400006022b90004027800040343009e02900069
:10541000f4002000042ab800050343008602780047
:10542000140798002507980014079800250798008e
:105430004e029000050020001e039000ae03900075
:105440000602420087824a00140798002507980048
:105450001e029000ae0290004c2bdd004422de00c4
:1054600004027300c42ade00140798002507980080
:105470001e029000040f78004e0290009e0f520012
:10548000020036001e0fe800040037004e029000b4
:105490009e0f5200010031001e0fe9001e0278002d
:1054a000040078000080fa000000060000a0fe0062
:1054b000849fbe000000fa00d602a8000000000091
:1054c000000000000000000000000000c522a8004d
:1054d0008600a9008e00a9004400200084bd880039
:1054e00005e1a9000002eb00040888008400200008
:1054f000140888008c60a9008460a90005e1a80058
:105500000002eb00c4418800000000000408800095
:10551000e10f5200fdff3600151680000400210047
:1055200004826200e00f520003003a0014002000e1
:10553000c44188000100370000000000040880001a
:10554000e20f5200fdff3600151680000400210016
:1055500004826200e00f520003003a0014002000b1
:10556000c4418800010037000000000004088000ea
:10557000e20f5200fdff36001516800004002100e6
:1055800004826200e00f520002003a001400200082
:10559000c44188000002eb00b4408800a4168000db
:1055a00070026200e00f520005003200a516800074
:1055b0000408200004826200e00f52000200320062
:1055c00014002000b4408800e2a2a9005408800022
:1055d000e4bb88000002eb0054088800250480002a
:1055e0000408200004826200e00f52000200320032
:1055f00054422f00e4bb880084e0a90000000000b2
:105600002404800068026200e00f5200fcff3200b8
:10561000151680000400220004826200e00f520090
:10562000050032000042eb0004407800f3f6b700ba
:10563000cbc2a9000400370014c0b30004407800b6
:10564000f3f6b700cbc2a800c4c2a900d602a900d5
:1056500005e1a9000002eb00040888008460a900ad
:105660008c60a800e41620001408880005e1a8005a
:1056700000000000a416800070026200e00f5200db
:1056800004003a0004088000f30f5200f9ff3600ce
:105690000100370000000000a5168000040820006b
:1056a00004826200e00f5200030032000408800010
:1056b000f30f5200f8ff360004088000f30f520089
:1056c0000300360024b980000402e80024b98800f1
:1056d000e2a2a800a416800085e0a900046f2100c2
:1056e00014427800e04f52000300320004bc8000f6
:1056f0000402e80004bc880004428000e00f52006d
:10570000030032000002eb00b440880003003700c1
:1057100014c0b30004407800f0f6b70014c0b30022
:1057200004407800f1f6b7000080fa004f02be0096
:105730000080fe00004006003600f800809fbe009a
:10574000829fbe00849fbe00869fbe000200fa00ba
:105750003400200084bd88008460a9008c60a9000a
:1057600005e1a9000042eb00044f7800a416800078
:1057700064026200e00f52001e003200400620006a
:105780000100200028150700a416800064026200b2
:10579000e00f5200170032004006200001002000f8
:1057a00021150700a416800064026200e00f520079
:1057b0001000320040062000010020001a150700ea
:1057c000a416800064026200e00f5200090032005b
:1057d000400620000100200013150700a4168000d9
:1057e00064026200e00f520002003200002020003c
:1057f000e50b07001200070000027800e00f5200de
:105800000300320014002000044288000300370027
:105810000002eb0004428800c4c2a8008600a90070
:105820008e00a8000080fa004f03be004f02be00a9
:105830004f01be004f00be003600f90000400600d8
:105840000000fa0044bd8000e00f52000300320067
:1058500054bd8000e00f520002003a000002eb004d
:105860001800370044bd8000e10f520005003a00e7
:1058700054bd8000e10f520002003a000002eb002c
:105880001000370054b880000402e80054b88800c3
:1058900055b8800054bd8000848f5200020039004a
:1058a0000002eb0054b8880055b8800044bd800069
:1058b000848f5200020031000002eb00010037002b
:1058c00014002000040078000080fa0000000600a8
:1058d000801f7800849fbe00861f78000000fa00b9
:1058e000a042a9008560a90055168000040420008c
:1058f00004826200e00f520002003200cac2a90016
:1059000001003700cac2a8001400200084bd88002e
:10591000146f210014427800e04f5200040032005e
:105920000042eb0004407800f1f6b7006200370057
:10593000e4be2000144278000482fb0005148000bd
:105940000403420004bf200004024300050a78005b
:10595000e4be2000144278000482fb00151480008d
:105960000403420004cf200004024300050a78002b
:10597000e4be2000144278000482fb00251480005d
:105980000403420004df200004024300050a7800fb
:10599000e4be2000144278000482fb00351480002d
:1059a0000403420004ef200004024300050a7800cb
:1059b000e4be2000144278000482fb0045148000fd
:1059c0000403420004ff200004024300050a78009b
:1059d000e4be2000144278000482fb0055148000cd
:1059e00004034200040f210004024300050a78006a
:1059f000e4be2000144278000482fb00651480009d
:105a000004034200041f210004024300050a780039
:105a1000e4be2000144278000482fb00751480006c
:105a200004034200043f210004024300050a7800f9
:105a3000e4be2000144278000482fb00851480003c
:105a400004034200042f210004024300050a7800e9
:105a5000e4be2000144278000482fb00951480000c
:105a600004034200044f210004024300050a7800a9
:105a7000e4be2000144278000482fb00a5148000dc
:105a800004034200045f210004024300050a780079
:105a9000e4be2000144278000442e800044078008c
:105aa000eeebb700e4be2000144278000474a100bd
:105ab00004407800eeebb700a042a8000080fa0096
