:020000040000fa
:080000000001040000000000f3
:020000040000fa
:10000800362a0000e2290000fa2900000e2a000022
:10001800222a0000362a0000362a0000362a00006c
:10002800362a0000362a0000362a0000b6270000cb
:10003800362a0000362a0000362a0000362a000038
:10004800362a0000c03a0000f03a0000822800007a
:10005800362a0000362a0000362a000082290000cd
:1000680070260000362a0000362a0000362a0000d2
:10007800362a0000362a0000362a0000362a0000f8
:10008800362a0000362a0000362a0000362a0000e8
:10009800362a0000362a0000362a0000362a0000d8
:1000a800362a0000362a0000362a0000362a0000c8
:1000b800362a0000362a0000362a0000362a0000b8
:1000c800362a0000362a0000cc290000362a000013
:1000d800362a0000362a0000362a0000362a000098
:1000e800362a0000362a0000362a0000362a000088
:0800f800362a0000362a000040
:020000040000fa
:10010800362a0000e2290000fa2900000e2a000021
:10011800222a0000362a0000362a0000362a00006b
:10012800362a0000362a0000362a0000b6270000ca
:10013800362a0000362a0000362a0000362a000037
:10014800362a0000c03a0000f03a00008228000079
:10015800362a0000362a0000362a000082290000cc
:1001680070260000362a0000362a0000362a0000d1
:10017800362a0000362a0000362a0000362a0000f7
:10018800362a0000362a0000362a0000362a0000e7
:10019800362a0000362a0000362a0000362a0000d7
:1001a800362a0000362a0000362a0000362a0000c7
:1001b800362a0000362a0000362a0000362a0000b7
:1001c800362a0000362a0000cc290000362a000012
:1001d800362a0000362a0000362a0000362a000097
:1001e800362a0000362a0000362a0000362a000087
:0801f800362a0000362a00003f
:020000040000fa
:100200000f0022000e7f22000e0188000000000077
:1002100000012000200288000c000700802e25002d
:100220000100200011000700000020000000e00095
:10023000020032000000020000000000aa4e02008e
:10024000000000000040da000000fe004440a90069
:10025000000820000000e000030032000000200041
:10026000a00188004440a800000006009101880019
:10027000800078000000eb0015003700e2804000ad
:1002800032a0b4009101ba00e280400032a0b40074
:100290009102ba00e280400032a0b4000002eb00fc
:1002a000472bde00f507b200602ce10004003a00a5
:1002b0000059eb008301e900fdff3e000400370018
:1002c0006128e100010032000082eb000400070019
:1002d0001101ba000200e000e8ff3a000000060049
:1002e0003159ba008301e9000c0032002159ba00eb
:1002f0008301e900080032000400e00003003a0036
:10030000e280400032a0b400f5ff370011d9ba00f6
:100310008301e900faff3a008100e800e180400033
:1003200032a0b40000000600881f78008a1f780001
:100330004400f800080f2000280288000004900004
:1003400010059000a000900030019000c0019000c6
:100350000300ca000280ca000030cb001a00cd00a2
:100360004604c3000100ca004604c0001e04c000c9
:100370000605c0000100cd0021009800050d7800a1
:10038000eaba9700052578004400f9004f05780087
:100390004f04780000000600801f78004000b00085
:1003a0000008eb004f007800801f780010009000dc
:1003b0000018eb000018eb000008eb004f0078007d
:1003c000000006004400f800020f2000220288000e
:1003d000910078003000ca003080ca000000cb00d5
:1003e0002080ca000000cb003100cd004000ca00d0
:1003f0000000cb000000cb000010cb003100cd008e
:100400001180cc004400f9000000060010118800a3
:100410000111880000000600401188003111880099
:10042000000006003200f800910188000008bb00bf
:10043000410424006210e1000400320000022000a8
:100440000010e1000a003a0051042400013b88003a
:100450000500fc0051052000313b8800a10a200066
:10046000313b880061e7a8000000000000000000a8
:100470003200f900000006003200f8006004240099
:10048000003b8800f2ff37003200f800910188003d
:1004900041002400013b88000208bb00ecff37004c
:1004a0003200f8009101880051002400013b8800cf
:1004b000030120003218bb008301e900fdff3a0070
:1004c000e3ff37003200f8009101880080027800d5
:1004d00062004000e08048003549ba003204e00084
:1004e0000410a700100032008301e9000e00320062
:1004f0002549ba003204e0000410a7000a003200c7
:100500008301e900080032000408a300eeff320076
:1005100015c9ba003204e0000410a700020032003e
:100520008301e900e8ff3a003200f900000006000c
:100530006022b800060220000000d0008180d200b6
:100540000482d2008582d2000000a0000202520084
:1005500083825a00030031000202420083824a0073
:100560000000a1000603e900f3ff3a0000000600c6
:020000040000fa
:1005700064000000640000006300000063000000ed
:1005800063000000620000006200000061000000e3
:100590006100000060000000600000005f000000db
:1005a0005f0000005e0000005e0000005d000000d3
:1005b0005d0000005c0000005b0000005b000000cc
:1005c0005a000000590000005900000058000000c7
:1005d00057000000570000005600000055000000c2
:1005e00054000000540000005300000052000000be
:1005f0005100000050000000500000004f000000bb
:100600004e0000004d0000004c0000004b000000b8
:100610004a000000490000004800000047000000b8
:1006200046000000450000004400000043000000b8
:100630004200000041000000400000003f000000b8
:100640003e0000003c0000003b0000003a000000bb
:1006500039000000380000003600000035000000be
:1006600034000000330000003100000030000000c2
:020000040000fa
:100670000a00fa0024842000144278000482fb005f
:1006800045032000850f520014013200450320006d
:10069000850f52000d003c00e60f52002e00320084
:1006a000e60f520003003c00e40f52001b00320032
:1006b0005c033700f40f5200760032004502200040
:1006c000850f52008c00320056033700050a2000c7
:1006d000850f520050033200050a2000850f52009a
:1006e00007003c0055032000850f52003601320000
:1006f00045042000850f52007e0132004903370077
:10070000450a2000850f520010033200850a2000a0
:10071000850f52001e0332004203370047030700d3
:10072000a6070700c3080700e920070000027800b9
:10073000e00f52000400320004cab3000440780005
:1007400042e8b7003b03370044c1b30004407800df
:1007500042e8b70037033700551680000404200034
:100760000482620004f0a7000402ea000402e90027
:100770004f22de00044278000482fb006102620026
:100780004622dd0056168000f5fb2f00850263002f
:100790000482720054168800280307005516800052
:1007a000040420000482620004f0a7000402ea00ae
:1007b0000402e9004f22de00044278000482fb00bc
:1007c000610262004622dd0056168000f5fb2f0014
:1007d000850263000482720054168800e507070052
:1007e00055168000040420000482620004f0a70073
:1007f0000402ea000402e9004f22de00044278000d
:100800000482fb00610262004622dd005616800071
:10081000f5fb2f00850263000482720054168800e5
:10082000840807005516800004042000048262003a
:1008300004f0a7000402ea000402e9004f22de00ef
:10084000044278000482fb00610262004622dd005f
:1008500056168000f5fb2f008502630004827200ab
:10086000541688009a20070000027800e00f52001a
:100870000400320004cab3000440780042e8b70024
:10088000ec02370044c4b3000440780042e8b700eb
:10089000e8023700d90e0700120037003c0a0700b3
:1008a000661307008f20070000027800e00f520057
:1008b0000400320044cab3000440780042e8b700a4
:1008c000080037001516800004002400048262002e
:1008d000e00f520003003a0044c2b3000440780025
:1008e00042e8b7002484200014427800f44f5200fc
:1008f000eaff3200cf023700f20e07000002eb00e1
:10090000040f78000002eb0094c588006d003700ea
:100910001f0a070049130700000000000000000044
:10092000000000002504800004042000048262000e
:10093000e00f52002f0032001e0fe80084c0a90013
:10094000351780000400210004826200e00f52008d
:100950000300320094c58000e10f520011003a00fc
:10096000a20020009e007800e0ac20008208070072
:10097000a20020009e00780040a720007e0807000b
:10098000a20020009e00780080b220007a080700b4
:10099000a20020009e00780020b820007608070002
:1009a0001400370074568000040178009e0078001f
:1009b000e0ac200070080700a45380000401780018
:1009c0009e00780040a720006b0807004459800073
:1009d000040178009e00780080b2200066080700bd
:1009e000145c8000040178009e00780020b820008c
:1009f000610807003b20070000027800e00f52006a
:100a00000400320044cab3000440780042e8b70052
:100a10002c003700151680000400240004826200b8
:100a2000e00f52000400320044c1b30004407800db
:100a300042e8b70023003700440620009e027800f9
:100a4000848f520007003600ac1d070044c3b3007a
:100a50000440780042e8b7000002eb0094c588002b
:100a6000180037003517800004002100048262005e
:100a7000e00f52000a003a001e027800f40f520004
:100a8000070036009d1d070044c3b30004407800f2
:100a900042e8b7000002eb0094c588000900370067
:100aa00094c58000e10f520006003a00931d070034
:100ab00044c3b3000440780042e8b7000002eb00f2
:100ac00094c58800258420009542780044c2b30074
:100ad00084cf52008eff3200560237006f0e07009f
:100ae0004206200041062000c09020002208070096
:100af0004206200041062000009c20001e0807003e
:100b00004206200041062000e0ac20001a08070041
:100b1000420620004106200040a7200016080700da
:100b2000420620004106200020b8200012080700dd
:100b3000420620004106200080b220000e08070077
:100b40001b00370092090700bc120700e51f0700d1
:100b500000027800e00f52000400320084cab300a3
:100b60000440780042e8b7001100370015168000f5
:100b70000400240004826200e00f520004003200ee
:100b800044c1b3000440780042e8b70008003700d1
:100b9000151680000400280004826200e00f520055
:100ba00003003a0054c3b3000440780042e8b700a1
:100bb000258420009542780044c3b30084cf5200be
:100bc000e0ff32001b0237002442800051c32000a6
:100bd00004007800610f07000002780024079800e5
:100be0000001eb00ae009000c0902000b0070700ad
:100bf0003442800051c3200004007800570f0700e2
:100c000000027800240798000001eb00ae0090007d
:100c1000009c2000a60707000002eb0014079800c4
:100c2000cbe2a9002d003700590907008312070005
:100c3000250480000404200004826200e00f5200ba
:100c40000400320084c0a9001e0290000402e800e3
:100c500014079800a31f070000027800e00f52005d
:100c60000400320084cab3000440780042e8b700b0
:100c70001a00370015168000040024000482620068
:100c8000e00f52000400320044c1b3000440780079
:100c900042e8b70011003700151680000400280054
:100ca00004826200e00f52000400320044c3b3002b
:100cb0000440780042e8b700080037009e02900028
:100cc00014032000848f52000400360044c4b30093
:100cd0000440780042e8b700c70e070025842000d2
:100ce0009542780054c3b30084cf5200ceff320047
:100cf000d00137000002eb00544288000002eb00f4
:100d0000744288000002eb00644288000002eb009d
:100d100034c788006022b800a4c68800b5c6880021
:100d20000042eb0004407800def6b7008c60a800bb
:100d300080013700c400200004c7880014090700a0
:100d40003e120700b542800044062000848f520006
:100d5000090036001516800004002200048262009b
:100d6000e00f5200040032000042eb000440780023
:100d7000e1f6b700cbc2a9003517800004002800b7
:100d800004826200e00f520003003a002441800018
:100d900004418800020037001441800004418800ab
:100da000e46d210014427800e04f5200450132000a
:100db0000002eb00b442880074418000e00f520052
:100dc0000200320000402000041f0700b400200091
:100dd00004c788006541800004f02f00848f520012
:100de00003003e00644180000402e8006441880082
:100df000a4c68000b5c6800061024200e0824a00bd
:100e0000a4c68800b5c68800248c21003400be002a
:100e10002401be0014002000050020006033b8004b
:100e20000002420081824a0002034b0083834b0090
:100e3000208c21000498be000690be000442800071
:100e40000402e80004428800030b0700046e21003e
:100e50001442780004407800c41c0700156e21007d
:100e600095427800046e21001442780084cf52002d
:100e70000a00320075488000b4452400848f520077
:100e800003003e000403210014b788001a00370055
:100e90000403200014b7880017003700146e2100e7
:100ea00014427800e04f52000a003a007548800072
:100eb000b4452400848f520003003e000404210046
:100ec00014b788000c0037000404200014b7880011
:100ed0000900370075488000b4452400848f520013
:100ee00003003e000402210014b78800020037000e
:100ef0000402200014b78800146e21001442780008
:100f000004407800e0f6b700e0ed2000e725070098
:100f100000027800f4408800e0fd2000e32507008f
:100f200000027800d440880064418000fd0f520028
:100f300008003e000002eb00444188000002eb0084
:100f40003441880014c0b300044078002ae8b70098
:100f5000b10037000002eb00b4408800654180001a
:100f600044c58000848f52002300310034c58000c6
:100f700005002000340798004507980045c580000b
:100f80006441800004825200050020004e0390005e
:100f900004b3b90006037800be03900005b8b90099
:100fa0008003780007034300be039000040278002a
:100fb0000722b80005034300860278003407980032
:100fc00045079800340798004507980044c58000fd
:100fd000050020000401be003e009000ce009000fd
:100fe00053fd07000002be00340798004507980033
:100ff0003e029000b44088003517800004002400b1
:1010000004826200e00f520011003a0054c58000d3
:10101000e00f52000700320005418000b44080001c
:10102000048242000500200074408800854088004a
:101030003100370005418000b44080000482520036
:101040000500200074408800854088002a00370091
:1010500054c58000e00f52000700320005418000b7
:10106000b4408000048242000500200074408800e3
:10107000854088000600370005418000b4408000ac
:1010800004825200050020007440880085408800da
:10109000344280006123b8007440800085408000a5
:1010a00004b8b9000000780006a9b90082007800f1
:1010b0000100400006037800040278000432b80002
:1010c0000500400080027800744088008540880058
:1010d0007640800087408000a4408000050020000a
:1010e0000401be000600be0011fd07000002be00a4
:1010f0007440880085408800f44080006123b80077
:1011000074408000854080002403b0000580b0005a
:10111000840f5300858f5b00040039004441800038
:101120000402e900444188000e003700f4408000ca
:101130006123b8007040800081408000e4fc2f00f3
:10114000f5ff2f000002420081824a00840f530005
:10115000858f5b0003003e00444180000402e800ec
:1011600044418800e440800025032000848242003e
:10117000d4408000848f520004003100344180004c
:10118000630252003441880009003700e4408000c7
:10119000e5fc2f0084824200d4408000848f5200fe
:1011a000030036003441800063024200344188006d
:1011b0004541800004642000848f52000300340005
:1011c0000464200044418800060037004541800047
:1011d000049c2f00848f520002003d00049c2f00cd
:1011e000444188003541800084252000848f5200ce
:1011f00003003400842520003441880006003700b5
:101200003541800084da2f00848f520002003d00b7
:1012100084da2f00344188002442800051c320002a
:1012200004007800cd0d0700000278002407980024
:10123000e5408000743e2000848f52000400360098
:1012400034418000ae0290000482420024079800de
:101250000001eb00ae009000c090200014060700d3
:10126000a440800051c3200004007800bb0d07009b
:10127000000278002407980005418000743e200099
:10128000848f52000400360044418000ae0290007a
:1012900004824200240798000001eb00ae00900099
:1012a000009c2000020607007d0707000002eb00fb
:1012b0003408880084c0a9000042eb000440780094
:1012c000def6b700071e070000027800e00f5200ac
:1012d00005003200f70b070084cab3000440780011
:1012e00042e8b70013003700151680000400240000
:1012f00004826200e00f520005003200ed0b07008f
:1013000044c1b3000440780042e8b7000900370048
:10131000151680000400280004826200e00f5200cd
:1013200004003200e30b070044c3b300044078001c
:1013300042e8b700258420009542780044c4b300f9
:1013400084cf52007bfe32003a0037002b0c07009e
:10135000090037008e070700b8100700e11d0700dd
:1013600000027800e00f520003003a0044c1b300cd
:101370000440780042e8b7002584200095427800b8
:1013800044cab30084cf5200f2ff32002900370074
:10139000420c07001a0037007d070700a71007005e
:1013a000db1d070000027800e00f5200040032004d
:1013b00044cab3000440780042e8b7001000370088
:1013c000151680000400240004826200e00f520021
:1013d0000400320044cab3000440780042e8b70079
:1013e00007003700bf1d070000027800e00f520021
:1013f00003003a0044c3b3000440780042e8b70059
:10140000258420009542780084cab30084cf52001e
:10141000e1ff3200070037005d0707008710070073
:10142000fdff370004cab3000440780042e8b7006b
:10143000000000000080fa00000006000200fa0030
:1014400014002000c4c6880014002000d4c6880000
:1014500004c78000944188000002eb0004c78800a4
:101460000002eb00c4c38800043a800061026200fd
:10147000e00f520003003200c4c380000440a0000b
:10148000c4c38800053a800004082000048262007a
:10149000e00f520004003200c5c3800004022000a7
:1014a00004827200c4c38800053a8000040420004e
:1014b00004826200e00f520004003200c5c38000c5
:1014c0000404200004827200c4c38800043a80002f
:1014d00062026200e00f520003003200c4c38000c9
:1014e0000400a000c4c38800053a8000040028005e
:1014f00004826200e00f520003003200c4c3800087
:101500000410a000c4c38800043a80007002620086
:10151000e00f520003003200c4c380000420a0008a
:10152000c4c38800053a80000400240004826200dd
:10153000e00f520003003200c4c380000430a0005a
:10154000c4c388000002eb0014c388000002eb0053
:1015500024c388000002eb0034c388000002eb00c3
:1015600044c388000002eb0054c388000002eb0073
:1015700064c388000002eb0074c388000002eb0023
:1015800084c388000002eb0094c388000002eb00d3
:10159000a4c3880044c28000e440880054c2800094
:1015a0002441880094c280001441880064c28000f5
:1015b00044c5880074c2800014c5880084c28000bd
:1015c00024c58800a4c2800024b78800b4c280006b
:1015d00034b788006480200034438800a4ff2100d1
:1015e00044438800608620006bfb0700f42820003d
:1015f000e4c58800d4a32000f4c58800d4a320004b
:1016000004c6880061862000c08b21006dfb0700a6
:1016100004802000e442880044ff2100f442880056
:10162000c08520005cfb0700f4282000b4c58800ba
:10163000d4a32000c4c58800d4a32000d4c588004a
:10164000c1852000608b21005efb07000060fe006a
:1016500044062000a453880004d02700d4538800f7
:101660008080eb000080eb00810c07000002780016
:10167000f453880004b880000454880014b8800033
:1016800014548800a12a29000080eb00780c070080
:10169000000278003454880024b880004454880044
:1016a00034b880005454880034548000840078009a
:1016b00000532700a90c070000027800645488003a
:1016c0000100220000802200690c0700000278005f
:1016d000945488000100220000002100640c0700df
:1016e00000027800a4548800843e2000b45488008e
:1016f00024032000c4548800841a2600345588002e
:10170000311e29000080eb00590c07000002780010
:101710005455880054b880006455880064b880002f
:101720007455880011b52a000080eb00500c0700aa
:10173000000278009455880074b88000a455880091
:1017400084b88000b45588009455800084007800e7
:1017500000592600810c070000027800c45588005b
:101760000100220030332200410c07000002780003
:10177000f455880001002200c0cc21003c0c070079
:10178000000278000456880004fa200014568800ed
:10179000240320002456880044b880008402780086
:1017a000f4b78000050178008400780040a720008d
:1017b000bf040700240320007456880004dc2500c1
:1017c000a45688008080eb000080eb00280c070006
:1017d00000027800c456880024b98000d4568800de
:1017e00034b98000e4568800a12a29000080eb006b
:1017f0001f0c0700000278000457880044b98000dd
:101800001457880054b9800024578800045780007a
:1018100084007800801a2600500c0700000278002f
:10182000345788000100220000002400100c07003b
:1018300000027800645788000100220000002100a7
:101840000b0c0700000278007457880004fa20008f
:1018500084578800840c20009457880004dc2500fd
:1018600004588800211e29000080eb00000c0700ae
:10187000000278002458880074b980003458880029
:1018800084b980004458880011b52a000080eb001c
:10189000f70b0700000278006458880094b98000b4
:1018a00074588800a4b98000845888006458800067
:1018b00084007800802c2300280c070000027800a8
:1018c000945888000100220000802200e80b0700e5
:1018d00000027800c4588800010022000080210026
:1018e000e30b070000027800d458880004fa2000b7
:1018f000e4588800840c2000f458880064b9800003
:101900008402780014b98000050178008400780012
:10191000e0ac200066040700847020004459880071
:10192000c4a22100745988008000eb000080eb0005
:10193000cf0b0700000278009459880044ba800059
:10194000a459880054ba8000b4598800215e290047
:101950000080eb00c60b070000027800d459880015
:1019600064ba8000e459880074ba8000f459880091
:10197000d45980008400780000c22100f70b0700d2
:1019800000027800045a8800010022009019220009
:10199000b70b070000027800345a880001002200cb
:1019a00060e62100b20b070000027800445a88006c
:1019b000843e2000545a8800441f2000645a880046
:1019c0000002eb00d45a88008000eb000080eb009e
:1019d000a70b070000027800f45a880094ba800030
:1019e000045b8800a4ba8000145b88008000eb00d0
:1019f0000080eb009e0b070000027800345b88003b
:101a0000b4ba8000445b8800c4ba8000545b88008c
:101a1000345b8000840078000000eb00cf0b0700ef
:101a200000027800645b8800010022000000eb00e7
:101a30008f0b070000027800945b880001002200f1
:101a40000000eb008a0b070000027800a45b88000e
:101a50000002eb00b45b88000002eb00c45b88006e
:101a600084ba80008402780034ba800005017800ce
:101a70008400780080b220000d04070084702000ec
:101a8000145c880004772100445c88008000eb002f
:101a90000080eb00760b070000027800645c880091
:101aa00064bb8000745c880074bb8000845c880028
:101ab000215e29000080eb006d0b0700000278001a
:101ac000a45c880084bb8000b45c880094bb800068
:101ad000c45c8800a45c800084007800a08621009b
:101ae0009e0b070000027800d45c880001002200f1
:101af000901922005e0b070000027800045d880048
:101b00000100220060e62100590b07000002780066
:101b1000145d8800843e2000245d8800441f20005e
:101b2000345d88000002eb00a45d88008000eb00bb
:101b30000080eb004e0b070000027800c45d8800b7
:101b4000b4bb8000d45d8800c4bb8000e45d880025
:101b50008000eb000080eb00450b070000027800de
:101b6000045e8800d4bb8000145e8800e4bb800063
:101b7000245e8800045e8000840078000000eb0092
:101b8000760b070000027800345e88000100220016
:101b90000000eb00360b070000027800645e88004e
:101ba000010022000000eb00310b0700000278006a
:101bb000745e88000002eb00845e88000002eb0087
:101bc000945e8800a4bb80008402780054bb80002f
:101bd000050178008400780020b82000b4030700d5
:101be0000002eb006448880084a324009448880025
:101bf000517125000080eb001d0b070000027800ea
:101c0000b448880084bc8000c448880094bc80002c
:101c1000d4488800811a26000080eb00140b0700ce
:101c200000027800f4488800a4bc800004498800c1
:101c3000b4bc800014498800f44880008400780017
:101c4000c0c22400450b0700000278002449880028
:101c5000010022000000eb00050b070000027800e5
:101c600054498800010022000000eb00000b07002f
:101c700000027800644988000002eb007449880083
:101c80000002eb00844988000002eb00f449880060
:101c90008000eb000080eb00f50a070000027800ee
:101ca000144a8800d4bc8000244a8800e4bc800028
:101cb000344a88008000eb000080eb00ec0a07004b
:101cc00000027800544a8800f4bc8000644a88000e
:101cd00004bd8000744a8800544a80008400780063
:101ce0000000eb001d0b070000027800844a88000a
:101cf000010022000000eb00dd0a0700000278006e
:101d0000b44a8800010022000000eb00d80a070056
:101d100000027800c44a88000002eb00d44a880020
:101d20000002eb00e44a8800c4bc80008402780012
:101d300074bc80000501780084007800c090200009
:101d40005b0307000002eb00044e880084a324001c
:101d5000344e8800517125000080eb00c40a070052
:101d600000027800544e8800a4bd8000644e8800b4
:101d7000b4bd8000744e8800811a26000080eb00fc
:101d8000bb0a070000027800944e8800c4bd8000a2
:101d9000a44e8800d4bd8000b44e8800944e8000cc
:101da00084007800c0c22400ec0a0700000278001a
:101db000c44e8800010022000000eb00ac0a0700be
:101dc00000027800f44e8800010022000000eb00c1
:101dd000a70a070000027800044f88000002eb0009
:101de000144f88000002eb00244f88000002eb0033
:101df000944f88008000eb000080eb009c0a0700f5
:101e000000027800b44f8800f4bd8000c44f880001
:101e100004be8000d44f88008000eb000080eb00ff
:101e2000930a070000027800f44f880014be800077
:101e30000450880024be800014508800f44f8000b5
:101e4000840078000000eb00c40a0700000278005c
:101e500024508800010022000000eb00840a0700e3
:101e60000002780054508800010022000000eb00be
:101e70007f0a070000027800645088000002eb002f
:101e8000745088000002eb0084508800e4bd80009c
:101e90008402780094bd80000501780084007800f9
:101ea000009c2000020307000002eb00344b880076
:101eb000846d2d00644b88008000eb000080eb00f7
:101ec0006b0a070000027800844b8800c4be8000c3
:101ed000944b8800d4be8000a44b8800118a2d004a
:101ee0000080eb00620a070000027800c44b880003
:101ef000e4be8000d44b8800f4be8000e44b880030
:101f0000c44b80008400780000b22c00930a0700c4
:101f100000027800f44b88000100220000802200bb
:101f2000530a070000027800244c880001002200b8
:101f3000909921004e0a070000027800344c880076
:101f4000843e2000444c880044012000544c88000a
:101f5000c4ce2200c44c88008000eb000080eb005f
:101f6000430a070000027800e44c880014bf800098
:101f7000f44c880024bf8000044d8800b111240077
:101f80000080eb003a0a070000027800244d880028
:101f900034bf8000344d880044bf8000444d880029
:101fa000244d800084007800400d23006b0a070058
:101fb00000027800544d8800010022009019220090
:101fc0002b0a070000027800844d880001002200df
:101fd00060e62100260a070000027800944d880080
:101fe000843e2000a44d880044012000b44d8800a8
:101ff0000002eb00e44d88000082eb00f44d880005
:102000000002eb00844c88000082eb00944c8800b6
:1020100004bf800084027800b4be8000050178000f
:102020008400780060962000a10207000002eb0007
:10203000d4508800846d2d00045188008000eb008e
:102040000080eb000a0a0700000278002451880093
:10205000e4bf800034518800f4bf80004451880000
:10206000118a2d000080eb00010a070000027800b1
:102070006451880004c080007451880014c080003e
:1020800084518800645180008400780000b22c00e4
:10209000320a0700000278009451880001002200f3
:1020a00000802200f209070000027800c451880075
:1020b0000100220090992100ed090700000278003c
:1020c000d4518800843e2000e4518800440120005f
:1020d000f4518800c4ce2200645288008000eb00d6
:1020e0000080eb00e20907000002780084528800bb
:1020f00034c080009452880044c08000a4528800fc
:10210000b11124000080eb00d9090700000278001b
:10211000c452880054c08000d452880064c080003b
:10212000e4528800c452800084007800400d2300ef
:102130000a0a070000027800f45288000100220019
:1021400090192200ca090700000278002453880071
:102150000100220060e62100c509070000027800a6
:1021600034538800843e20004453880044012000fa
:10217000545388000002eb00845388000082eb0077
:10218000945388000002eb00245288000082eb0088
:102190003452880024c0800084027800d4bf8000bc
:1021a0000501780084007800a0a12000400207000b
:1021b00055168000040420000482620004f0a70089
:1021c0000402ea000402e9004f22de000442780023
:1021d0000482fb00610262004622dd005616800088
:1021e000f5fb2f00850263000482720054168800fc
:1021f000d762a900d602a800d742a900d702a90039
:10220000c4e2a800cac2a900cbe2a800c4c2a900c7
:10221000d042a800d662a800e2a2a800cae2a900a3
:10222000ca42a900e282a800cbc2a900d6c2a80077
:10223000d6a2a800c522a900d362a900d202a90093
:10224000d242a800cdc2a800cda2a800d222a800e8
:10225000d322a900d342a900d302a900c182a800b9
:10226000c1a2a800c0e2a900c6c2a900c7e2a90095
:10227000c1c2a800c1e2a800e5a2a800e582a800aa
:10228000e5c2a800e5e2a800d282a800d2e2a80038
:10229000d382a800d3a2a800cc62a800cc82a80058
:1022a000e502a800e522a800c142a800c0c2a9001a
:1022b000cc42a900d262a900dea2a900c6e2a90010
:1022c000c642a900de82a900cde2a900c7c2a900ca
:1022d000d2c2a900d2a2a900c122a9008e00a900e1
:1022e0008600a900e40480000400a1000410a000fe
:1022f0000420a000e40488008220a9008c60a900ca
:102300008460a900a404800004c0a00004d0a1003f
:1023100004e0a000a40488008d60a9008560a900e5
:10232000c404800004c0a00004d0a00004e0a10008
:10233000c404880085e0a900c200a8008de0a800c0
:10234000d404800004c0a10004d0a10004e0a000d7
:10235000d40488008d20a900c40480000440a0009b
:102360000450a1000460a000c40488008d40a900ae
:10237000c40480000440a0000450a1000460a00038
:10238000c40488008940a9009140a9004405800048
:102390000480a0000490a00004a0a00044058800d0
:1023a000043a80000480a1000490a10004a0a000d1
:1023b00004b0a000043a8800f4002f003410880014
:1023c0001406200024108800f1fb2d00b0532b00d0
:1023d0000ef80700f1fb2d00a0f32b000ef807000c
:1023e00004102000841c880004102000842288002f
:1023f0000042eb0004407800b0e8b7000042eb0078
:1024000004407800b1e8b7000042eb0004407800d7
:10241000f2e8b7000042eb0004407800f3e8b700b0
:1024200004f02f006410880004042000a410880029
:10243000f475270074108800d4fa25002408880059
:1024400054fa25008408880094d02300640888008a
:102450000002eb003408880084c0a900d4fa2d00e3
:102460009408880044422f007408880054f825001e
:10247000f4088800d4f92500040988000002eb0064
:10248000c408880086c0a900440d2300e408880021
:10249000f40d2000a4478800e40d2000c447880004
:1024a00004022000d44788000002eb00e4478800c3
:1024b00014c0b30004407800fee8b7000402200016
:1024c000b4478800408f2000461a070004c4b300b8
:1024d0000440780006e9b7000042eb0004407800b1
:1024e00007e9b70004022000044888000402200025
:1024f00014488800040220002448880000c2eb0031
:102500000440780008e9b70000c2eb0004407800fe
:1025100009e9b70001170700248c2100040f780097
:1025200024c18000840278001e027800050a780029
:102530001e8fe80014c18000840278001e0278001b
:10254000050a78001e8fe80004c18000840278002c
:102550001e027800050a78001e8fe800f4c0800093
:10256000840278001e027800050a7800048d21009c
:10257000040f780044c18000840278001e027800b5
:10258000050a78001e8fe80034c1800084027800bc
:102590001e027800050a78000002eb0034c78800ac
:1025a0006022b800a4c68800b5c6880054c1800067
:1025b000444288000080fa00000006000200fa0091
:1025c0000002eb00040f78000002eb00c4c3880097
:1025d0004007a90040e7a90040c7a9004027a9007b
:1025e00041e7a9004087a90041c7a9000002eb000c
:1025f00004c788000002eb0024c78800408f200039
:102600002f1a07000041eb00a1c0b300009020008a
:10261000f71e0700000278001e0f72000041eb0059
:10262000a1c0b30000902000f11e07000002780056
:102630001e0f72000041eb00a1c0b300009020000b
:10264000eb1e0700000278001e0f7200849020002d
:10265000144278000441780041c1b300009020008a
:10266000e31e0700000278001e0f72009490200005
:10267000144278000441780051c1b300009020005a
:10268000db1e0700000278001e0f720082cfb3002d
:102690008040eb0000902000d51e0700000278006b
:1026a0001e0f72000041eb0011c0b300009020002b
:1026b000cf1e0700000278001e0f72000041eb00e1
:1026c00021c0b30000902000c91e0700000278005e
:1026d0001e0f72000041eb0031c0b30000902000db
:1026e000c31e0700000278001e0f720004f02f00c6
:1026f0009e02620004a02f00848f520007003a005f
:10270000c5c380000408200004827200c4c388008e
:1027100034c380000402e80034c388008040eb002a
:1027200000902000e41e070000027800040f7800eb
:10273000f40f20009e026200840f2000848f52005c
:1027400007003200c5c38000040820000482720024
:10275000c4c3880034c380000402e80034c3880086
:10276000780707007f070700820707000080fa004c
:10277000000006000600fa0024c780000402e800fa
:1027800024c78800444280000402e80044428800d4
:102790004442800054c18800cbe2a900c0852000db
:1027a000fdf6070060862000fbf6070042062000c9
:1027b00041062000c0902000ef00070042062000e4
:1027c00041062000009c2000eb000700420620008c
:1027d00041062000e0ac2000e70007004206200090
:1027e0004106200040a72000e30007004206200029
:1027f0004106200020b82000df000700420620002c
:102800004106200080b22000db00070051070700ce
:1028100048070700f80707008c60a90055168000dc
:10282000040420000482620004f0a7000402ea000d
:102830000402e9004f22de00044278000482fb001b
:10284000610262004622dd0056168000f5fb2f0073
:10285000850263000482720054168800eb050700ad
:1028600055168000040420000482620004f0a700d2
:102870000402ea000402e9004f22de00044278006c
:102880000482fb00610262004622dd0056168000d1
:10289000f5fb2f0085026300048272005416880045
:1028a000351780000400240004826200e00f52000b
:1028b00014003a002442800051c320000400780034
:1028c0002608070000027800040f78000001eb00e2
:1028d0009e007800c0902000750007003442800000
:1028e00051c32000040078001c0807000002780093
:1028f000040f78000001eb009e007800009c20008f
:102900006b0007000483200014427800e04f52005f
:102910000d003a007448800004007800dd0a0700ca
:1029200000027800140798001e009000561307005c
:1029300000027800240798001e019000ae0090006d
:1029400040a720005a00070055168000040420000c
:102950000482620004f0a7000402ea000402e90015
:102960004f22de00044278000482fb006102620014
:102970004622dd0056168000f5fb2f00850263001d
:102980000482720054168800c501070055168000a5
:10299000040420000482620004f0a7000402ea009c
:1029a0000402e9004f22de00044278000482fb00aa
:1029b000610262004622dd0056168000f5fb2f0002
:1029c000850263000482720054168800c704070061
:1029d00055168000040420000482620004f0a70061
:1029e0000402ea000402e9004f22de0004427800fb
:1029f0000482fb00610262004622dd005616800060
:102a0000f5fb2f00850263000482720054168800d3
:102a100044c4b3000440780042e8b700a1140700a2
:102a200064c0b3000440780042e8b7000080fa00b8
:102a3000000006000000fa0011e1a80021e1a80052
:102a4000f4cf27000415880084fe200014158800a8
:102a500064342e002415880034fe2e0034158800be
:102a600074002c004415880084ff2300541588004e
:102a7000a1e2a8008560a9008d60a8008540a9009a
:102a80008d40a8008520a9008d20a8000de2a80097
:102a9000e282a8000042eb0004407800cef8b700c4
:102aa000961507000060fe000080fa000000060096
:102ab0000600fa00000f780011079800220798001e
:102ac0001e027800b40290001e029000848f520013
:102ad000080031001e027800b40290001e02780047
:102ae0001502980084c380000402e80084c38800b3
:102af000030037001e0278009e0290001502980025
:102b00001e027800941a90002e029000848f5200ca
:102b1000080031001e027800941a90001e0278000e
:102b20007512980084c380000402e80084c3880002
:102b3000030037001e027800ae0290007512980064
:102b4000258420009542780044c2b30084cf52000f
:102b50000400320042062000410620001e007800da
:102b6000050007001e007800540007000060fe000a
:102b70000080fa00000006000a00fa002007980012
:102b80003107980042079800be0290004e02900064
:102b9000848f5200090039002e02900094029000a8
:102ba0002e029000250298002e029000f412900050
:102bb0002e029000051a98003c0037002e0290006b
:102bc0001402900005002000048fbe003e02900019
:102bd000050020001e03900004b3b900060378002e
:102be0009e03780005b8b90080037800070343000e
:102bf0009e037800040278000722b8000503430012
:102c000086027800048fbe00048fbe004e02900042
:102c1000050020000401be001e00be0044f60700af
:102c20000002be00048fbe009e0278002e029000bb
:102c3000250298002e0290007412900005002000da
:102c4000048fbe003e029000050020001e0390008d
:102c500004b3b900060378009e03780005b8b900f4
:102c600080037800070343009e0378000402780085
:102c70000722b8000503430086027800048fbe00d7
:102c8000048fbe004e029000050020000401be002b
:102c90001e00be0026f607000002be00048fbe0024
:102ca0009e0278002e029000051a98002e009000d7
:102cb000020007000080fa00000006000600fa008b
:102cc000200798002e029000d40290002e0290005f
:102cd0002402900085007800040078001f07070098
:102ce00000027800040f78002e0290006402900029
:102cf000840078001e0078001807070000027800a2
:102d0000040f78002e02900074029000e00f520031
:102d10000c0034002e029000740290000482ea003d
:102d20009e0f5200030031000082eb00040f780078
:102d30000f0037002e029000740290001e0f420018
:102d40000b0037002e029000740290000402ea008b
:102d50009e0f5200030036000002eb00040f7800c3
:102d6000030037002e029000740290001e0f4200f4
:102d70002e0290009e027800450298002e029000dc
:102d8000b41a90002e029000041a9000850078007a
:102d900004007800f106070000027800140798008c
:102da0002e029000441a9000840078001e009000cb
:102db000ea06070000027800140798002e0290002f
:102dc000541a9000e00f52000f0034002e029000c1
:102dd000541a90008482ea001e029000848f5200f0
:102de000030031000082eb00140798001500370043
:102df0002e029000541a90009e029000048242001d
:102e0000140798000f0037002e029000541a90000b
:102e10000402ea00840278001e029000848f5200af
:102e2000030036000002eb0014079800050037008d
:102e30002e029000541a90009e02900004824200dc
:102e4000140798002e0290009e029000251a980008
:102e50002e029000940a90002e029000240290000e
:102e60008500780004007800bc06070000027800a6
:102e7000040f78002e029000240a9000840078004d
:102e80001e007800b506070000027800040f7800e5
:102e90002e029000340a9000e00f52000c00340023
:102ea0002e029000340a90000482ea009e0f520025
:102eb000030031000082eb00040f78000f003700a0
:102ec0002e029000340a90001e0f42000b003700c3
:102ed0002e029000340a90000402ea009e0f520075
:102ee000030036000002eb00040f780003003700f7
:102ef0002e029000340a90001e0f42002e02900015
:102f0000740a9000840078001e0078009306070081
:102f100000027800ae029000d40a98002e029000c1
:102f200004129000840078001e0078008b060700d1
:102f300000027800ae029000e40a98002e02900091
:102f4000d40a90002e02900014129000848f520038
:102f5000040031002e029000941290002e02900086
:102f6000550a98002e029000f41a90002e0290004c
:102f7000041a9000850078000400780077060700a6
:102f800000027800140798002e029000042290009e
:102f9000840078001e009000700607000002780090
:102fa000140798002e02900014229000e00f5200a7
:102fb0000f0034002e029000142290008482ea0058
:102fc0001e029000848f5200030031000082eb004b
:102fd00014079800150037002e029000541a900034
:102fe0009e02900004824200140798000f003700f0
:102ff0002e029000142290000402ea00840278005d
:103000001e029000848f5200030036000002eb0085
:1030100014079800050037002e029000142290003b
:103020009e02900004824200140798002e02900035
:1030300054229000840078001e009000470607008c
:1030400000027800ae029000b42298002e02900098
:1030500064229000840078001e0090003f06070064
:1030600000027800ae029000c42298002e02900068
:10307000b42290002e02900074229000848f52009f
:10308000040031002e029000f42290002e029000e5
:10309000352298000060fe000080fa000000060063
:1030a0001200fa00a400200004c78800545c8000cd
:1030b000140798008459800024079800e453800086
:1030c000340798004455800044079800b4568000a7
:1030d000540798001458800064079800a4488000a2
:1030e00074079800444e8000040f980014c0b30089
:1030f000044f78000042eb0014479800100037009e
:103100000e82e80084007800408f2000f817070046
:1031100000427800044f78001e4290000442e8000c
:10312000144798001e427800e04f5200030032001e
:1031300074c380000402e80074c388000060fe00cd
:103140009e4278000582fb000402ea004f22de0066
:103150008442780014c0b3001e439000f34f530024
:10316000010036000042eb0004c26200e04f520052
:10317000e3ff3a001e429000f34f52000200360077
:1031800000022000311607000080fa00000006004f
:103190000c00fa009400200004c78800043a800064
:1031a00061026200e00f520003003200c4c38000dd
:1031b0000440a000c4c38800053a80000408200031
:1031c00004826200e00f520004003200c5c3800098
:1031d0000402200004827200c4c38800053a800003
:1031e0000404200004826200e00f52000400320058
:1031f000c5c380000404200004827200c4c3880098
:10320000043a800062026200e00f520003003200c4
:10321000c4c380000400a000c4c38800053a800035
:103220000400280004826200e00f52000300320014
:10323000c4c380000410a000c4c38800043a800006
:1032400070026200e00f520003003200c4c380002d
:103250000420a000c4c38800053a800004002400b4
:1032600004826200e00f520003003200c4c38000f9
:103270000430a000c4c388000060fe003504800054
:103280000404200004826200e00f5200d7003200e4
:1032900086c0a900b44280000402e800b44288005d
:1032a000a44280000402e8006f026200a442880089
:1032b000a4428000e00f520015003a00551680002d
:1032c0000408200004826200e00f52000200320075
:1032d000cae2a90001003700cae2a8000542800046
:1032e000d407200004aab900040278008402d100a7
:1032f000f441800085007800040078003d06070056
:1033000000027800f44188000002eb0004428800cb
:1033100044782d0075012000048fbe0065c5800033
:1033200084152000848f520002003e009415200076
:1033300064c5880064c58000050020000401be004b
:103340001e00be007af407000002be00048fbe001b
:103350001e02780074c5880025048000040820003f
:1033600004826200e00f5200020032000002eb0013
:1033700074c58800351780000400220004826200b2
:10338000e00f520006003200a4418000e00f52001e
:103390000300320061130700581307004f130700a2
:1033a000351780000400220004826200e00f520002
:1033b00003003a0014002000a441880002003700f6
:1033c0000002eb00a4418800ec0107000483200008
:1033d00014427800e04f52000d003a00744880001b
:1033e000040078002b0807000002780024079800ea
:1033f0002e009000a4100700000278003407980007
:103400002e019000be00900040a72000a8fd0700fc
:103410002484200014427800f44f5200050032004a
:10342000258420009542780044cab30084cf52001e
:1034300018003a00420620008000eb00c0902000f7
:10344000cdfd0700420620008000eb00c090200068
:10345000c9fd0700420620008000eb00e0ac200020
:10346000c5fd0700420620008000eb0040a72000b9
:10347000c1fd0700420620008000eb0020b82000bc
:10348000bdfd0700420620008000eb0080b2200056
:10349000b9fd07000312070092150700000278002b
:1034a000e00f520003003200c4e2a900d042a9009c
:1034b00002003700c4e2a800d042a80084832000a4
:1034c000144278000442e8000440780038e8b7006d
:1034d00084832000144278006f4262000440780028
:1034e00038e8b7008483200014427800e04f52008f
:1034f00001003a003f000700a100070025842000da
:103500009542780044c4b30084cf520005003a00cd
:10351000250480000404200004826200e00f5200b1
:1035200004003200defe0700170407000002eb0073
:103530006441880064418000e00f520029003a0095
:10354000c540800024c58000848f520003003100f4
:10355000c44080000402e800c440880014c5800014
:10356000050020004407980055079800c4408000db
:10357000050020005e03900004b3b9000603780044
:10358000ce03900005b8b90080037800070343001c
:10359000ce039000040278000722b8000503430020
:1035a0008602780044079800550798004407980061
:1035b0005507980024c58000050020000401be00c6
:1035c0004e009000de009000d9f307000002be001c
:1035d00044079800550798004e02900034c58800b3
:1035e000020037000002eb00c44088000080fa00af
:1035f000000006000200fa008400200004c78800d2
:10360000a55c8000345c80008500780004007800b0
:10361000d204070000027800040f7800b45c800038
:10362000840078001e007800cc04070000027800b7
:10363000040f7800c45c80001e0f42001e02780058
:103640000402d10024438800945c80000402d1006d
:1036500014438800c085200033f30700d55980004b
:10366000645980008500780004007800bb040700de
:1036700000027800040f7800e4598000840078008c
:103680001e007800b504070000027800040f7800df
:10369000f45980001e0f42001e0278000402d1007f
:1036a00074438800c45980000402d1006443880038
:1036b000608620001cf3070004438000040f78009c
:1036c0001e027800e00f520002003d000002eb00f5
:1036d000040f78001e02780004024200040f7800f4
:1036e00004d027009e027800848f5200020036002a
:1036f00004d02700040f78000002eb00745c8800ff
:103700000002eb00645c88001e027800845c880084
:1037100054438000040f78001e027800e00f52002e
:1037200002003d000002eb00040f78001e0278004a
:1037300004024200040f780004d027009e027800a3
:10374000848f52000200360004d02700040f780056
:103750000002eb00a45988000002eb009459880095
:103760001e027800b459880080b2200053fd070083
:1037700020b8200051fd07000080fa00000006007c
:103780000a00fa00d441800005002000048fbe002a
:1037900074c58000050020001e03900004b3b9002a
:1037a000060378009e03780005b8b900800378000e
:1037b000070343009e037800040278000722b80044
:1037c0000503430086027800048fbe00048fbe000c
:1037d0001e02be004a2bdd004622de0004027300fa
:1037e000c62ade00048fbe001e0290006d22b900c2
:1037f000040378001e0278006022b90004027800f9
:10380000040343009e027800d4002000042ab8007c
:103810000503430086027800048fbe00048fbe00bb
:103820001e02be00452bdd004b22de0004027300a9
:10383000cb2ade00048fbe00e4ff2f00050020002d
:103840001e03be00840f5300858f5b00030036000b
:103850000082eb00e4418800020037001e0278007d
:10386000e441880014b7800005042000850f520051
:103870001400320005042000850f520007003e00ae
:1038800005022000850f52001c00320005032000b5
:10389000850f52000f0032002e0037000503210073
:1038a000850f52001d00320005042100850f5200d3
:1038b0001600320005022100850f5200210032005f
:1038c00024003700e441800005002000048fbe0082
:1038d0002400370025b78000e44180000001eb00a0
:1038e00085007800040078000f1b070000027800b4
:1038f00005002000048fbe001a003700e44180005c
:1039000005002000048fbe0016003700e44180004f
:1039100005002000048fbe001200370035b780007c
:10392000e44180000001eb0085007800040078008d
:10393000fd1a07000002780005002000048fbe0079
:1039400008003700e441800005002000048fbe001d
:1039500004003700e441800005002000048fbe0011
:10396000000000001e02be00492bdd004722de00e1
:1039700004027300c72ade00048fbe009e02780096
:10398000f403200004826200340798003e02900095
:10399000240798002e029000e00f520002003c0025
:1039a0000002eb0024079800ae029000e403200020
:1039b000848f520002003400f40320002407980092
:1039c000ae02900035079800be029000f40320007c
:1039d0000482620034079800258420009542780014
:1039e00044c4b30084cf52000f003200258420006d
:1039f0009542780044c3b30084cf52000a003200dd
:103a0000258420009542780054c3b30084cf52002f
:103a100005003200258420009542780084cab30056
:103a200084cf52000a003a003e0290008402420015
:103a3000842b280004824200140378004607980073
:103a400042062000ce009000e0ac20004afc0700b7
:103a50000080fa00000006000400fa007400200054
:103a600004c788002516800004202000048262001c
:103a7000e00f520037003200d6c2a900800c2000af
:103a800001002000fb1a070021c0b3000000eb007a
:103a90004b1907000002be00048fbe000400200086
:103aa000151121001e03be00840f5300858f5b009b
:103ab00006003a000002eb00c442880054c38000b4
:103ac0000402e80054c38800020037001e02780098
:103ad000c4428800d6c2a800800c2000010020004b
:103ae000e41a0700d6a2a900800c200001002000e3
:103af000e01a070021c0b3000000eb0030190700f6
:103b00000002be00048fbe00040020001511210039
:103b10001e03be00840f5300858f5b0006003a0031
:103b20000002eb00d442880054c380000402e80085
:103b300054c38800020037001e027800d442880077
:103b4000d6a2a800800c200001002000c91a07009e
:103b5000070037000002eb00d44288000002eb00af
:103b6000c442880064c380000402e80064c3880083
:103b7000c522a9000080fa00000006000200fa0039
:103b80006400200004c78800e0cd2000c71a0700a9
:103b900000027800040f7800244280009e00780024
:103ba0000400780013040700000278002442880013
:103bb000e0dd2000bd1a070000027800040f780045
:103bc000344280009e007800040078000904070059
:103bd0000002780034428800351780000400240079
:103be00004826200e00f520002003a00344280007a
:103bf000a4408800e00d2100ac1a07000002780004
:103c0000040f7800845580009e007800040078003e
:103c1000f80307000002780084558800e01d2100a9
:103c2000a21a070000027800040f780024548000d4
:103c30009e00780004007800ee0307000002780080
:103c400024548800e03d2100981a07000002780003
:103c5000040f7800f45680009e007800040078007d
:103c6000e403070000027800f4568800e02d2100ec
:103c70008e1a070000027800040f78005458800064
:103c80009e00780004007800da0307000002780044
:103c900054588800e04d2100841a07000002780083
:103ca000040f7800e44880009e007800040078004b
:103cb000d003070000027800e4488800e05d21009e
:103cc0007a1a070000027800040f7800844e800002
:103cd0009e00780004007800c60307000002780008
:103ce000844e88000080fa00000006000600fa00fa
:103cf000f4cf270004158800e4fd20001415880087
:103d000064342e002415880034fe2e0034158800fb
:103d100074002c004415880004fc2300541588000e
:103d2000a1e2a8000002eb00040f78008000370039
:103d300000000000151580000408200004826200c5
:103d4000e00f5200fbff32000002eb001407980066
:103d500034003700051480001e027800040342007e
:103d6000e4ed200004024300050a780015148000e9
:103d70001e02780004034200e4fd20000402430018
:103d8000050a7800251480001e0278000403420012
:103d9000e40d210004024300050a78003514800078
:103da0001e02780004034200e41d210004024300c7
:103db000050a7800451480001e02780004034200c2
:103dc000e42d210004024300050a78005514800008
:103dd0001e02780004034200e43d21000402430077
:103de000050a7800651480001e0278000403420072
:103df000e44d210004024300050a78007514800098
:103e00001e02780004034200e45d21000402430026
:103e1000050a78001e0fe8001e0290000402e80068
:103e2000140798001e029000e70f5200c9ff3600e9
:103e300000000000151580000408200004826200c4
:103e4000e00f5200fbff3a000002eb00140798005d
:103e500034003700851480001e02780004034200fd
:103e6000e4ed200004024300050a78009514800068
:103e70001e02780004034200e4fd20000402430017
:103e8000050a7800a51480001e0278000403420091
:103e9000e40d210004024300050a7800b5148000f7
:103ea0001e02780004034200e41d210004024300c6
:103eb000050a7800c51480001e0278000403420041
:103ec000e42d210004024300050a7800d514800087
:103ed0001e02780004034200e43d21000402430076
:103ee000050a7800e51480001e02780004034200f1
:103ef000e44d210004024300050a7800f514800017
:103f00001e02780004034200e45d21000402430025
:103f1000050a78001e0fe8001e0290000402e80067
:103f2000140798001e029000e70f5200c9ff3600e8
:103f3000f40720009e027800848f52007cff360038
:103f4000a1e2a900e0ed2000d819070000027800e6
:103f5000240798002e029000c4598800e0fd20003c
:103f6000d219070000027800240798002e02900062
:103f7000945c8800e00d2100cc1907000002780055
:103f8000240798002e02900084558800e01d21002f
:103f9000c619070000027800240798002e0290003e
:103fa00024548800e03d2100c01907000002780079
:103fb000240798002e029000f4568800e02d21007e
:103fc000ba19070000027800240798002e0290001a
:103fd00054588800e04d2100b41907000002780011
:103fe000240798002e029000e4488800e05d21003c
:103ff000ae19070000027800240798002e029000f6
:10400000844e88000080fa00000006000600fa00d6
:10401000f4cf270004158800e4fd20001415880063
:1040200064342e002415880034fe2e0034158800d8
:1040300074002c00441588000403200054158800e7
:10404000a1e2a8000002eb00040f78008600370010
:1040500000000000151580000408200004826200a2
:10406000e00f5200fbff32000002eb001407980043
:1040700037003700051480001e0278000403420058
:10408000e4cd200004024300050a780015148000e6
:104090001e02780004034200e4dd20000402430015
:1040a000050a78001e0fe800251480001e02780023
:1040b00004034200e4cd200004024300050a780016
:1040c000351480001e02780004034200e4dd200065
:1040d00004024300050a78001e0fe8004514800022
:1040e0001e02780004034200e4cd200004024300d5
:1040f000050a7800551480001e027800040342006f
:10410000e4dd200004024300050a78001e0fe800e9
:10411000651480001e02780004034200e4cd2000f4
:1041200004024300050a7800751480001e0278001e
:1041300004034200e4dd200004024300050a780085
:104140001e0fe8001e0290000402e8001407980009
:104150001e029000e30f5200c6ff36000000000070
:10416000151580000408200004826200e00f520050
:10417000fbff3a000002eb001407980037003700fd
:10418000851480001e02780004034200e4cd200064
:1041900004024300050a7800951480001e0278008e
:1041a00004034200e4dd200004024300050a780015
:1041b0001e0fe800a51480001e02780004034200d0
:1041c000e4cd200004024300050a7800b514800005
:1041d0001e02780004034200e4dd200004024300d4
:1041e000050a78001e0fe800c51480001e02780042
:1041f00004034200e4cd200004024300050a7800d5
:10420000d51480001e02780004034200e4dd200083
:1042100004024300050a78001e0fe800e514800040
:104220001e02780004034200e4cd20000402430093
:10423000050a7800f51480001e027800040342008d
:10424000e4dd200004024300050a78001e0fe800a8
:104250001e0290000402e800140798001e0290005d
:10426000e30f5200c6ff3600f40720009e027800dc
:10427000848f520076ff3600a1e2a900e0cd200035
:104280000a19070000027800240798002e02900007
:1042900024428800e0dd20000419070000027800b5
:1042a000240798002e029000344288000080fa0013
:1042b000000006000400fa0094028000040f780059
:1042c000ff3ffc00140280000450a0000460a00026
:1042d0000470a000140288001e0278009402880076
:1042e0000000880000000000000000000000000046
:1042f000000000008c60a9008e00a90094028000dc
:1043000014079800ff3ffc00140280000450a10035
:104310000460a1000470a100140288001e02900035
:10432000940288000000880003000700cbe2a80088
:104330000080fa00000006000200fa00248c210030
:10434000040f78001e0278001402780024c188004f
:104350001e8fe8001e0278001402780014c1880045
:104360001e8fe8001e0278001402780004c1880045
:104370001e8fe8001e02780014027800f4c0880046
:10438000048d2100040f78001e02780014027800ca
:1043900044c188001e8fe8001e02780014027800d5
:1043a00034c18800053b80000400280004826200bc
:1043b000e00f5200fbff3a00d4c08000e5c080004f
:1043c000020220000400be0016f00700053b80003a
:1043d0000400280004826200e00f5200fbff3a0054
:1043e000d4c08000e5c08000e28121000400be004e
:1043f0002bf007000080fa00000006000000fa0021
:104400005c0007004f00070056000700420620002e
:104410008000eb00c0902000d7f907004206200082
:104420008000eb00c0902000d3f907004206200076
:104430008000eb00e0ac2000cff90700420620002e
:104440008000eb0040a72000cbf9070042062000c7
:104450008000eb0020b82000c7f9070042062000ca
:104460008000eb0080b22000c3f90700c085200067
:10447000c9ef070060862000c7ef070005e1a9002b
:104480008e00a9008c60a9008600a9008460a900a4
:10449000c4c2a9000080fa00000006000000fa0073
:1044a0003400070005e1a9008e00a9008c60a90076
:1044b0008600a9008460a900c4c2a9000080fa0097
:1044c000000006000000fa00c0852000b2ef0700df
:1044d00060862000b0ef0700420620008000eb005d
:1044e00040a72000a4f90700420620008000eb004e
:1044f000e0ac2000a0f90700420620008000eb009d
:1045000080b220009cf90700420620008000eb00ea
:1045100020b8200098f907000e00070005000700ea
:104520000002eb003408880084c0a9000080fa0073
:10453000000006000000fa00d702a8000080fa0080
:10454000000006000000fa00d702a9000080fa006f
:10455000000006000000fa00d722a8000080fa0040
:10456000000006000000fa00d722a9000080fa002f
:10457000000006000000fa00d762a900d602a800d9
:104580000080fa00000006000400fa000002eb00c0
:10459000040f78000002eb0014079800540020007c
:1045a00004c78800258420009542780044c3b300e6
:1045b00084cf52000f0032002584200095427800fd
:1045c00044c4b30084cf52000a0032002584200086
:1045d0009542780084cab30084cf520005003200af
:1045e000258420009542780054c3b30084cf520044
:1045f00005003a009e029000f4f72f00048262004a
:1046000014079800040037009e0290000408200060
:10461000048272001407980074c48000e00f5200f6
:10462000040032001e0290000400a000140798004d
:10463000040037009e029000e4ff2f000482620015
:104640001407980044c48000e00f520002003200ba
:104650001e20a00002003700b4ff2f001e0f6200d2
:10466000e5c3800004f02f0004826200e00f5200d6
:10467000040032001e0290000440a00014079800bd
:10468000040037009e029000f4fe2f0004826200b6
:1046900014079800e5c38000f40f20000482620034
:1046a000e00f5200040032001e0290000410a0002f
:1046b00014079800040037009e029000d4ff2f00da
:1046c000048262001407980015c4800004f02f00d3
:1046d00004826200e00f5200020032001e00a000bf
:1046e00002003700e4ff2f001e0f620015c4800097
:1046f000f40f200004826200e00f5200020032003a
:104700001e10a00002003700d4ff2f001e0f620011
:10471000258420009542780044c4b30084cf520021
:1047200004003a001e0290000420a0001407980024
:10473000040037009e029000b4ff2f000482620044
:104740001407980084902000144278000482fb0033
:104750009e0f5200100032001e02780004427800c2
:104760000440780008e9b7008490200014427800e3
:104770000441780041c1b300009020009c1607005e
:1047800000027800e00f52000300320034c38000c2
:104790000402e80034c3880094902000144278009a
:1047a0008482fb001e029000848f520010003200b1
:1047b0001e029000044278000440780009e9b70026
:1047c00094902000144278000441780051c1b30055
:1047d000009020008616070000027800e00f5200cb
:1047e0000300320034c380000402e80034c38800b0
:1047f0000080fa00000006000000fa001516800094
:104800000400220004826200e00f52000500320022
:104810000042eb0004407800e0f6b700cbc2a900ec
:104820000400370014c0b30004407800e0f6b7007d
:10483000cbc2a800d762a800d602a90005e1a90052
:104840000002eb00040888008460a9008c60a800c6
:10485000741720001408880005e1a8000002eb008e
:104860003408880084c0a9000080fa000000060017
:104870000a00fa0030079800410798003e029000b5
:104880000500200014079800250798001e029000dc
:10489000ae029000c022dd00040020001407980042
:1048a000250798004e029000050020000401be007c
:1048b0001e009000ae0090001def07000002be0039
:1048c00014079800250798001e029000ae02900081
:1048d0004d2bdd004322de0004027300c32ade00fc
:1048e00014079800250798001e039000ae0390005f
:1048f00004002000f5ff2f00060078000703780071
:104900008403780005027800070060000402630059
:1049100005002000c022dd00040020000403be00ca
:104920006102b8000403730085837300e00f530035
:10493000e08f5b00030032000082eb00040f780080
:10494000020037001e029000040f78001e0278005b
:10495000040078000080fa00000006000800fa0059
:1049600020079800310798002e02900005002000d3
:10497000048fbe003e029000050020001e03900040
:1049800004b3b900060378009e03780005b8b900a7
:1049900080037800070343009e0378000402780038
:1049a0000722b8000503430086027800048fbe008a
:1049b000048fbe001e02be00432bdd004d22de0030
:1049c00004027300cd2ade00048fbe00f4ff2f0026
:1049d000050020001e03be00840f5300858f5b007e
:1049e00006003600f4ff2f0005002000048fbe00f3
:1049f00094c380000402e80094c388001e0278007b
:104a0000240798002e029000040078000080fa002d
:104a1000000006000a00fa003007980041079800dd
:104a20003e029000e00f520002003a004e02900059
:104a3000340798003e0290000500200014079800fb
:104a400025079800ae029000f40f200004aab900d8
:104a5000040378001e0290006022b900040278006e
:104a6000040343009e029000f40f2000042ab800c3
:104a70000503430086027800140798002507980074
:104a800014079800250798004e02900005002000aa
:104a90001e039000ae0390000602420087824a0087
:104aa00014079800250798001e029000ae0290009f
:104ab000482bdd004822de0004027300c82ade0015
:104ac00014079800250798001e029000040f780034
:104ad0004e0290009e0f5200020036001e0fe800aa
:104ae000040037004e0290009e0f5200010031007a
:104af0001e0fe9001e027800040078000080fa0012
:104b0000000006000a00fa003007980041079800ec
:104b10003e029000e00f520002003a004e02900068
:104b2000340798003e02900005002000140798000a
:104b300025079800ae029000f403200004aab900f3
:104b4000040378001e0290006022b900040278007d
:104b5000040343009e029000f4032000042ab800de
:104b60000503430086027800140798002507980083
:104b700014079800250798004e02900005002000b9
:104b80001e039000ae0390000602420087824a0096
:104b900014079800250798001e029000ae029000ae
:104ba0004a2bdd004622de0004027300c62ade0026
:104bb00014079800250798001e029000040f780043
:104bc0004e0290009e0f5200020036001e0fe800b9
:104bd000040037004e0290009e0f52000100310089
:104be0001e0fe9001e027800040078000080fa0021
:104bf000000006000a00fa003007980041079800fc
:104c00003e029000e00f520002003a004e02900077
:104c1000340798003e029000050020001407980019
:104c2000250798002e0290006f22b9000403780037
:104c30001e0290006022b9000402780004034300c1
:104c40009e029000f4002000042ab80005034300ef
:104c5000860278001407980025079800140798002a
:104c6000250798004e029000050020001e039000ca
:104c7000ae0390000602420087824a0014079800a3
:104c8000250798001e029000ae0290004c2bdd001c
:104c90004422de0004027300c42ade0014079800d8
:104ca000250798001e029000040f78004e02900025
:104cb0009e0f5200020036001e0fe800040037006d
:104cc0004e0290009e0f5200010031001e0fe900bd
:104cd0001e027800040078000080fa000000060040
:104ce00000a0fe00849fbe000000fa00d602a800cb
:104cf00000000000000000000000000000000000b4
:104d0000c522a8008600a9008e00a900440020004a
:104d100004c7880005e1a9000002eb000408880030
:104d200084002000140888008c60a9008460a90019
:104d300005e1a8000002eb007441880000000000bb
:104d400004088000e10f5200fdff360015168000b8
:104d50000400210004826200e00f520003003a00c8
:104d6000140020007441880001003700000000009a
:104d700004088000e20f5200fdff36001516800087
:104d80000400210004826200e00f520003003a0098
:104d9000140020007441880001003700000000006a
:104da00004088000e20f5200fdff36001516800057
:104db0000400210004826200e00f520002003a0069
:104dc00014002000744188000002eb006440880059
:104dd000a416800070026200e00f5200050032004d
:104de000a51680000408200004826200e00f520033
:104df000020032001400200064408800e2a2a900f2
:104e00005408800064c588000002eb005408880044
:104e1000250480000408200004826200e00f520094
:104e20000200320054422f0064c5880084e0a900cb
:104e3000000000002404800068026200e00f5200bd
:104e4000fcff32001516800004002200048262007c
:104e5000e00f5200050032000042eb0004407800f1
:104e6000e1f6b700cbc2a9000400370014c0b300bc
:104e700004407800e1f6b700cbc2a800c4c2a90084
:104e8000d602a90005e1a9000002eb000408880091
:104e90008460a9008c60a800e41620001408880033
:104ea00005e1a80000000000a41680007002620066
:104eb000e00f520004003a0004088000f30f520093
:104ec000f9ff36000100370000000000a516800041
:104ed0000408200004826200e00f52000300320048
:104ee00004088000f30f5200f8ff36000408800029
:104ef000f30f520003003600b4c380000402e80040
:104f0000b4c38800e2a2a800a416800085e0a9002e
:104f1000e46d210014427800e04f5200030032009b
:104f200084c580000402e80084c58800b441800084
:104f3000e00f5200030032000002eb0064408800e2
:104f40000300370014c0b30004407800def6b70059
:104f500014c0b30004407800dff6b7000080fa0008
:104f60004f02be000080fe00004006003600f80040
:104f7000809fbe00829fbe00849fbe00869fbe00b1
:104f80000200fa003400200004c788008460a900f1
:104f90008c60a90005e1a9000042eb00044f7800f5
:104fa000a416800064026200e00f52001e0032006e
:104fb0004006200001002000ae150700a416800066
:104fc00064026200e00f5200170032004006200029
:104fd00001002000a7150700a416800064026200eb
:104fe000e00f5200100032004006200001002000b7
:104ff000a0150700a416800064026200e00f5200b2
:105000000900320040062000010020009915070029
:10501000a416800064026200e00f52000200320019
:1050200000202000510e0700120007000002780047
:10503000e00f52000300320014002000b441880049
:10504000030037000002eb00b4418800c4c2a8008e
:105050008600a9008e00a8000080fa004f03be0061
:105060004f02be004f01be004f00be003600f900e7
:10507000004006000000fa00c4c68000e00f5200a5
:1050800003003200d4c68000e00f520002003a0054
:105090000002eb0018003700c4c68000e10f520088
:1050a00005003a00d4c68000e10f520002003a0029
:1050b0000002eb0010003700c4b780000402e800d3
:1050c000c4b78800c5b78000d4c68000848f520062
:1050d000020039000002eb00c4b78800c5b78000a9
:1050e000c4c68000848f5200020031000002eb0031
:1050f0000100370014002000040078000080fa004e
:1051000000000600801f7800849fbe00861f780084
:105110000000fa00a042a9008560a9005516800091
:105120000404200004826200e00f520002003200fa
:10513000cac2a90001003700cac2a800140020009a
:1051400004c78800f46d210014427800e04f52003b
:10515000040032000042eb0004407800dff6b700a4
:1051600062003700c4bd2000144278000482fb00b6
:105170000514800004034200e4bd20000402430043
:10518000050a7800c4bd2000144278000482fb00a8
:105190001514800004034200e4cd20000402430003
:1051a000050a7800c4bd2000144278000482fb0088
:1051b0002514800004034200e4dd200004024300c3
:1051c000050a7800c4bd2000144278000482fb0068
:1051d0003514800004034200e4ed20000402430083
:1051e000050a7800c4bd2000144278000482fb0048
:1051f0004514800004034200e4fd20000402430043
:10520000050a7800c4bd2000144278000482fb0027
:105210005514800004034200e40d21000402430001
:10522000050a7800c4bd2000144278000482fb0007
:105230006514800004034200e41d210004024300c1
:10524000050a7800c4bd2000144278000482fb00e7
:105250007514800004034200e43d21000402430071
:10526000050a7800c4bd2000144278000482fb00c7
:105270008514800004034200e42d21000402430051
:10528000050a7800c4bd2000144278000482fb00a7
:105290009514800004034200e44d21000402430001
:1052a000050a7800c4bd2000144278000482fb0087
:1052b000a514800004034200e45d210004024300c1
:1052c000050a7800c4bd2000144278000442e800ba
:1052d00004407800dcebb700c4bd20001442780025
:1052e0000474a10004407800dcebb700a042a800e1
:1052f0000080fa004f0378004f02be004f00780094
:10530000004006003600f800809fbe00829fbe006d
:10531000849fbe00869fbe000000fa00a516800094
:105320000408200004826200e00f520012003a00dc
:105330004006200001002000ce140700a5168000c2
:105340000408200004826200e00f52000a003a00c4
:105350004006200001002000c6140700a5168000aa
:105360000408200004826200e00f520002003a00ac
:1053700000402000990d070085e0a9000080fa0098
:105380004f03be004f02be004f01be004f00be00e3
:105390003600f90000400600841f78000000fa0083
:1053a0002400200004c788008940a900a4c580000b
:1053b0000402e800a4c588000080fa004f027800cb
:1053c00000400600841f78000000fa00d40020008e
:1053d00004c78800143a800014c788000000000049
:1053e000000000000000fe000080fa004f0278007c
:1053f00000400600841f78000000fa00e40020004e
:1054000004c7880000000000000000000000fe004b
:105410000080fa004f02780000400600841f7800e8
:105420000000fa00f400200004c78800000000001b
:10543000000000000000fe000080fa004f0278002b
:1054400000400600841f78000000fa0004012000dc
:1054500004c7880000000000000000000000fe00fb
:105460000080fa004f02780000400600841f780098
:105470000000fa00c4ab2f0004c788000000000041
:10548000000000000000fe000080fa004f027800db
:10549000004006000c00fa00500798005e029000e1
:1054a00005002000048fbe005e0290000500200071
:1054b0001e03900004b3b900060378009e03780031
:1054c00005b8b90080037800070343009e03780005
:1054d000040278000722b800050343008602780022
:1054e000048fbe00048fbe001e02be00422bdd00f2
:1054f0004e22de0004027300ceaade00048fbe003e
:1055000014c28000cfa2de001e03900004b3b900d5
:10551000060378009e03780005b8b9008003780080
:10552000070343009e037800040278000722b800b6
:105530000503430086027800048fbe00048fbe007e
:105540001e02be00c62bdd004a22de00048273006c
:10555000caaade00048fbe001e02be002407980007
:10556000350798005e02900005002000048fbe0001
:1055700024c28000cfa2de001e03900004b3b90055
:10558000060378009e03780005b8b9008003780010
:10559000070343009e037800040278000722b80046
:1055a0000503430086027800048fbe00048fbe000e
:1055b0001e02be00462bdd004a22de0004027300fc
:1055c000caaade00048fbe002e029000be02900028
:1055d0003e034200ae834a000602be002407980044
:1055e0003507980034c28000cfa2de00048fbe00d1
:1055f0001e03be00423add00ce32de00850272009c
:105600004232dd00048fbe002e029000be029000e8
:105610003e034200ae834a000602be002407980003
:1056200035079800ae039000470798004e0290009f
:10563000040078000080fa00000006000000fa0074
:105640007410800062026200e00f5200010032001c
:105650000e22a900e48c210014427800e24f52008f
:105660000100320007000700e48c2100144278009a
:10567000e24f520001003a00010107000080fa00e9
:10568000000006000400fa00881f78003e00370082
:10569000008720006d13070000427800044f780057
:1056a0001e427800ef4f420037003a00008720008a
:1056b0006613070000427800044f78001e4278000d
:1056c000ee4f420030003a00008720005f130700d1
:1056d00000427800044f78001e427800ed4f4200ef
:1056e00029003a0000872000581307000042780084
:1056f00004407800caf8b700008720005313070061
:105700000042780004407800ccf8b7000087200001
:105710004e1307000042780004407800cdf8b7002f
:1057200000872000491307000042780004407800f9
:10573000cbf8b70000872000441307000042780030
:105740000482fb00140798001e0290004824dd002c
:10575000008720003d130700004278000482fb0010
:1057600004024400140798001e009000660707001a
:1057700000427800e04f52000300320024c0b30022
:1057800004407800cef8b700e48c21001442780081
:10579000e04f520005003a0000872000491307003f
:1057a00000427800e84f5200b9ff3e004f047800f5
:1057b0000080fa00000006000000fa00f48c2100ce
:1057c00014427800e04f520067003200e1cfb3008e
:1057d000208b2000f812070011cfb300208b20008f
:1057e000f51207007440800085408000482bdd00e2
:1057f0004822de0004027300c82ade00044278005a
:1058000084407800208b2000eb1207007440800059
:10581000854080000442780084407800208b20007e
:10582000e5120700d44080004822de0004427800e0
:1058300084407800208b2000df120700d4408000d5
:105840000442780084407800208b2000da120700a0
:10585000f44080004822de00044278008440780052
:10586000208b2000d4120700f4408000044278000e
:1058700084407800208b2000cf1207003441800044
:1058800048a2de000442780084407800208b20008b
:10589000c912070034418000044278008440780037
:1058a000208b2000c41207004441800048a2de0083
:1058b0000442780084407800208b2000be1207004c
:1058c000444180000442780084407800208b20000e
:1058d000b9120700644180004822de0004427800cb
:1058e00084407800208b2000b312070064418000c0
:1058f0000442780084407800208b2000ae1207001c
:10590000c44280004822de000442780084407800cf
:10591000208b2000a8120700c442800004427800b7
:1059200084407800208b2000a312070075108000af
:105930000420200004826200e00f52000a003a00b6
:10594000208b2000ea12070000427800e04f52004e
:1059500005003200208b2000bc12070000427800b6
:105960000482fb00841088000080fa00000006001a
:105970000600fa0020479800314798002207980057
:10598000f48c210014427800e04f52003a003a00b3
:105990002e019000be4090002e409000c3060700ec
:1059a00000027800040f780011cfb300208b200094
:1059b0008112070021cfb300208b20007e12070048
:1059c00041cfb300208b20007b120700ae40900037
:1059d000208b2000781207002e0290004822de0063
:1059e0000442780084407800208b20007212070067
:1059f0002e0290000442780084407800208b200022
:105a00006d120700be409000208b20006a12070034
:105a10001e0278004822de000442780084407800ac
:105a2000208b2000641207001e02780004427800d8
:105a300084407800208b20005f12070075108000e2
:105a40000420200004826200e00f52000a003a00a5
:105a5000208b2000a612070000427800e04f520081
:105a600005003200208b20007812070000427800e9
:105a70000482fb00841088000080fa000000060009
:105a80000a00fa00c48c2100144278000482fb0052
:105a9000140798001e0290004822dd0014079800a9
:105aa000d48c2100144278000482fb009e029000f6
:105ab00004824200140798001e009000000f780036
