:020000040000fa
:080000000001040000000000f3
:020000040000fa
:10000800d42700008027000098270000ac270000b4
:10001800c0270000d4270000d4270000d427000000
:10002800d4270000d4270000d4270000ae25000004
:10003800d4270000d4270000d4270000d4270000cc
:10004800d4270000f23600002237000020260000e6
:10005800d4270000d4270000d42700002027000060
:100068008c240000d4270000d4270000d4270000e7
:10007800d4270000d4270000d4270000d42700008c
:10008800d4270000d4270000d4270000d42700007c
:10009800d4270000d4270000d4270000d42700006c
:1000a800d4270000d4270000d4270000d42700005c
:1000b800d4270000d4270000d4270000d42700004c
:1000c800d4270000d42700006a270000d4270000a6
:1000d800d4270000d4270000d4270000d42700002c
:1000e800d4270000d4270000d4270000d42700001c
:0800f800d4270000d42700000a
:020000040000fa
:10010800d42700008027000098270000ac270000b3
:10011800c0270000d4270000d4270000d4270000ff
:10012800d4270000d4270000d4270000ae25000003
:10013800d4270000d4270000d4270000d4270000cb
:10014800d4270000f23600002237000020260000e5
:10015800d4270000d4270000d4270000202700005f
:100168008c240000d4270000d4270000d4270000e6
:10017800d4270000d4270000d4270000d42700008b
:10018800d4270000d4270000d4270000d42700007b
:10019800d4270000d4270000d4270000d42700006b
:1001a800d4270000d4270000d4270000d42700005b
:1001b800d4270000d4270000d4270000d42700004b
:1001c800d4270000d42700006a270000d4270000a5
:1001d800d4270000d4270000d4270000d42700002b
:1001e800d4270000d4270000d4270000d42700001b
:0801f800d4270000d427000009
:020000040000fa
:100200000f0022000e7f22000e0188000000000077
:1002100000012000200288000c000700a0d3240069
:100220000100200011000700000020000000e00095
:1002300002003200000002000000000050490200ed
:10024000000000000040da000000fe004440a90069
:10025000000820000000e000030032000000200041
:10026000a00188004440a800000006009101880019
:10027000800078000000eb0015003700e2804000ad
:1002800032a0b4009101ba00e280400032a0b40074
:100290009102ba00e280400032a0b4000002eb00fc
:1002a000472bde00f507b200602ce10004003a00a5
:1002b0000059eb008301e900fdff3e000400370018
:1002c0006128e100010032000082eb000400070019
:1002d0001101ba000200e000e8ff3a000000060049
:1002e0003159ba008301e9000c0032002159ba00eb
:1002f0008301e900080032000400e00003003a0036
:10030000e280400032a0b400f5ff370011d9ba00f6
:100310008301e900faff3a008100e800e180400033
:1003200032a0b40000000600881f78008a1f780001
:100330004400f800080f2000280288000004900004
:1003400010059000a000900030019000c0019000c6
:100350000300ca000280ca000030cb001a00cd00a2
:100360004604c3000100ca004604c0001e04c000c9
:100370000605c0000100cd0021009800050d7800a1
:10038000eaba9700052578004400f9004f05780087
:100390004f04780000000600801f78004000b00085
:1003a0000008eb004f007800801f780010009000dc
:1003b0000018eb000018eb000008eb004f0078007d
:1003c000000006004400f800020f2000220288000e
:1003d000910078003000ca003080ca000000cb00d5
:1003e0002080ca000000cb003100cd004000ca00d0
:1003f0000000cb000000cb000010cb003100cd008e
:100400001180cc004400f9000000060010118800a3
:100410000111880000000600401188003111880099
:10042000000006003200f800910188000008bb00bf
:10043000410424006210e1000400320000022000a8
:100440000010e1000a003a0051042400013b88003a
:100450000500fc0051052000313b8800a10a200066
:10046000313b880061e7a8000000000000000000a8
:100470003200f900000006003200f8006004240099
:10048000003b8800f2ff37003200f800910188003d
:1004900041002400013b88000208bb00ecff37004c
:1004a0003200f8009101880051002400013b8800cf
:1004b000030120003218bb008301e900fdff3a0070
:1004c000e3ff37003200f8009101880080027800d5
:1004d00062004000e08048003549ba003204e00084
:1004e0000410a700100032008301e9000e00320062
:1004f0002549ba003204e0000410a7000a003200c7
:100500008301e900080032000408a300eeff320076
:1005100015c9ba003204e0000410a700020032003e
:100520008301e900e8ff3a003200f900000006000c
:100530006022b800060220000000d0008180d200b6
:100540000482d2008582d2000000a0000202520084
:1005500083825a00030031000202420083824a0073
:100560000000a1000603e900f3ff3a0000000600c6
:020000040000fa
:1005700064000000630000006300000062000000ef
:100580006200000061000000600000005f000000e9
:100590005e0000005e0000005d0000005c000000e6
:1005a0005b0000005a0000005900000058000000e5
:1005b00057000000560000005400000053000000e7
:1005c00052000000510000004f0000004e000000eb
:1005d0004d0000004b0000004a00000048000000f1
:1005e00047000000450000004300000042000000fa
:1005f000400000003e0000003d0000003b00000005
:100600003900000037000000350000003300000012
:10061000310000002f0000002d0000002b00000022
:100620002900000027000000250000002300000032
:10063000200000001e0000001c0000001900000047
:10064000170000001500000012000000100000005c
:100650000d0000000a000000080000000500000076
:100660000300000000000000000000000000000087
:020000040000fa
:100670000e00fa0044832000144278000482fb003c
:1006800045032000850f520014013200450320006d
:10069000850f52000d003c00e60f52002e00320084
:1006a000e60f520003003c00e40f52001b00320032
:1006b0001e033700f40f520076003200450220007e
:1006c000850f52008c00320018033700050a200005
:1006d000850f520012033200050a2000850f5200d8
:1006e00007003c0055032000850f52003601320000
:1006f00045042000850f52007e0132000b033700b5
:10070000450a2000850f5200d2023200850a2000df
:10071000850f5200e002320004033700090307008e
:1007200053070700700807003c1e0700000278000e
:10073000e00f52000400320004cab3000440780005
:1007400034e8b700fd02370044c1b300044078002c
:1007500034e8b700f90237001517800004022000c2
:100760000482620004f0a7000402ea000402e90027
:100770004f22de00044278000482fb006102620026
:100780004522dd0016178000f5fd2f00850263006d
:100790000482720014178800ea020700151780000f
:1007a000040220000482620004f0a7000402ea00b0
:1007b0000402e9004f22de00044278000482fb00bc
:1007c000610262004522dd0016178000f5fd2f0052
:1007d00085026300048272001417880092070700e4
:1007e00015178000040220000482620004f0a700b4
:1007f0000402ea000402e9004f22de00044278000d
:100800000482fb00610262004522dd0016178000b1
:10081000f5fd2f0085026300048272001417880022
:1008200031080700151780000402200004826200ce
:1008300004f0a7000402ea000402e9004f22de00ef
:10084000044278000482fb00610262004522dd0060
:1008500016178000f5fd2f008502630004827200e8
:1008600014178800ed1d070000027800e00f520009
:100870000400320004cab3000440780034e8b70032
:10088000ae02370044c4b3000440780034e8b70037
:10089000aa023700e70d070012003700e909070038
:1008a00035120700e21d070000027800e00f520039
:1008b0000400320044cab3000440780034e8b700b2
:1008c000080037001516800004002400048262002e
:1008d000e00f520003003a0044c2b3000440780025
:1008e00034e8b7004483200014427800f44f5200eb
:1008f000eaff320091023700000e07000002eb0011
:10090000040f78000002eb0094c488006d003700eb
:10091000cc090700181207000000000000000000ca
:10092000000000002504800004042000048262000e
:10093000e00f52002f0032001e0fe80084c0a90013
:10094000351780000400210004826200e00f52008d
:100950000300320094c48000e10f520011003a00fd
:10096000a20020009e007800e0ab20002f080700c6
:10097000a20020009e00780040a620002b0807005f
:10098000a20020009e00780080b120002708070008
:10099000a20020009e00780020b720002308070056
:1009a00014003700f4558000040178009e007800a0
:1009b000e0ab20001d0807002453800004017800ec
:1009c0009e00780040a6200018080700c458800048
:1009d000040178009e00780080b120001308070011
:1009e000945b8000040178009e00780020b720000e
:1009f0000e0807008e1d070000027800e00f52006d
:100a00000400320044cab3000440780034e8b70060
:100a10002c003700151680000400240004826200b8
:100a2000e00f52000400320044c1b30004407800db
:100a300034e8b70023003700847020009e0278005d
:100a4000848f520007003600ff1a070044c3b3002a
:100a50000440780034e8b7000002eb0094c488003a
:100a6000180037003517800004002100048262005e
:100a7000e00f52000a003a001e027800f40f520004
:100a800007003600f01a070044c3b30004407800a2
:100a900034e8b7000002eb0094c488000900370076
:100aa00094c48000e10f520006003a00e61a0700e5
:100ab00044c3b3000440780034e8b7000002eb0000
:100ac00094c48800458320009542780044c2b30056
:100ad00084cf52008eff3200180237007d0d0700d0
:100ae0004206200041062000c08f2000cf070700eb
:100af0004206200041062000009b2000cb07070093
:100b00004206200041062000e0ab2000c707070096
:100b1000420620004106200040a62000c30707002f
:100b2000420620004106200020b72000bf07070032
:100b3000420620004106200080b12000bb070700cc
:100b40001b0037003f0907008b110700381d070005
:100b500000027800e00f52000400320084cab300a3
:100b60000440780034e8b700110037001516800003
:100b70000400240004826200e00f520004003200ee
:100b800044c1b3000440780034e8b70008003700df
:100b9000151680000400280004826200e00f520055
:100ba00003003a0054c3b3000440780034e8b700af
:100bb000458320009542780044c3b30084cf52009f
:100bc000e0ff3200dd013700b441800051c3200056
:100bd000040078006f0e07000002780044079800b8
:100be0000001eb00ce009000c08f20005d070700e1
:100bf000c441800051c3200004007800650e070046
:100c000000027800440798000001eb00ce0090003d
:100c1000009b2000530707000002eb001407980018
:100c2000c522a9002d003700060907005211070050
:100c3000250480000404200004826200e00f5200ba
:100c40000400320084c0a9001e0290000402e800e3
:100c500014079800f61c070000027800e00f52000d
:100c60000400320084cab3000440780034e8b700be
:100c70001a00370015168000040024000482620068
:100c8000e00f52000400320044c1b3000440780079
:100c900034e8b70011003700151680000400280062
:100ca00004826200e00f52000400320044c3b3002b
:100cb0000440780034e8b700080037009e02900036
:100cc00014032000848f52000400360044c4b30093
:100cd0000440780034e8b700d50d070045832000b4
:100ce0009542780054c3b30084cf5200ceff320047
:100cf000920137000002eb00e44188000002eb00a3
:100d0000044288000002eb00f44188000002eb007e
:100d1000f4c588006022b800a4c58800b5c5880065
:100d20000042eb0004407800cef6b7008c60a800cb
:100d300042013700c4002000c4c58800c108070074
:100d40000d110700e46c210014427800e04f5200be
:100d50001e01320014418000e00f520002003200f8
:100d600000402000701c0700b4002000c4c58800ab
:100d70000541800004f02f00848f520003003e00e4
:100d8000044180000402e80004418800a4c58000fa
:100d9000b5c5800061024200e0824a00a4c5880017
:100da000b5c58800248a21003400be002401be009d
:100db00014002000050020006033b800000242004b
:100dc00081824a0002034b0083834b00208a21006a
:100dd0000498be000690be00944180000402e80022
:100de000944188002b0a0700046d2100144278000a
:100df00004407800301a0700146d21001442780076
:100e000004407800d0f6b700e0ec2000452307004e
:100e100000027800b4408800e0fc20004123070075
:100e2000000278009440880004418000fd0f5200c9
:100e300008003e000002eb00e44088000002eb00e6
:100e4000d440880014c0b300044078001ee8b70006
:100e5000b20037000002eb008440880005418000aa
:100e600064c48000848f52002300310054c4800089
:100e700005002000540798006507980065c48000ad
:100e80000441800004825200050020006e0390009f
:100e900004b3b90006037800de03900005b8b9007a
:100ea0008003780007034300de039000040278000b
:100eb0000722b80005034300860278005407980013
:100ec00065079800540798006507980064c480007f
:100ed000050020000401be005e009000ee009000be
:100ee00093fd07000002be005407980065079800b4
:100ef0005e029000844088003517800004002400c2
:100f000004826200e00f520011003a0074c48000b5
:100f1000e00f520007003200c5408000844080008e
:100f2000048242000500200024079800350798003d
:100f300032003700c54080008440800004825200a7
:100f40000500200024079800350798002b00370083
:100f500074c48000e00f520007003200c5408000da
:100f6000844080000482420005002000240798008d
:100f70003507980006003700c54080008440800097
:100f800004825200050020002407980035079800cd
:100f9000c4418000050020003e03900004b3b90066
:100fa00006037800ae03900005b8b900800378000e
:100fb00007034300ae039000040278000722b80044
:100fc000050343008602780024079800350798003f
:100fd0002407980035079800744080000500200021
:100fe0000401be002e009000be00900050fd0700de
:100ff0000002be002407980035079800b440800026
:101000006123b8002e029000be0290002403b000bd
:101010000580b000840f5300858f5b000400390009
:10102000e440800063025200e44088000e00370074
:10103000b44080006123b8002e009000be009000f4
:10104000e4fc2f00f5ff2f000002420081824a00dd
:10105000840f5300858f5b0003003e00e440800056
:1010600063024200e4408800a44080002503200081
:101070008482420094408000848f5200040031003a
:10108000d440800063025200d44088000900370039
:10109000a4408000e5fc2f00848242009440800040
:1010a000848f520003003600d44080006302420067
:1010b000d4408800e540800004642000848f520002
:1010c0000300340004642000e44088000600370078
:1010d000e5408000049c2f00848f520002003d00f8
:1010e000049c2f00e4408800d54080008425200027
:1010f000848f52000300340084252000d4408800ef
:1011000006003700d540800084da2f00848f52001b
:1011100002003d0084da2f00d4408800b4418000f2
:1011200051c32000040078001a0d07000002780067
:1011300044079800a5408000743e2000848f520030
:1011400004003600d4408000ce02900004824200a9
:10115000440798000001eb00ce009000c08f2000f3
:10116000000607007440800051c32000040078008e
:10117000080d07000002780044079800c540800071
:10118000743e2000848f520004003600e44080004a
:10119000ce02900004824200440798000001eb0058
:1011a000ce009000009b2000ee05070069070700b5
:1011b0000002eb003408880084c0a9000042eb0064
:1011c00004407800cef6b7004a100700981b0700cd
:1011d00000027800e00f520005003200430b0700c8
:1011e00084cab3000440780034e8b7001300370025
:1011f000151680000400240004826200e00f5200f3
:1012000005003200390b070044c1b30004407800e8
:1012100034e8b700090037001516800004002800e4
:1012200004826200e00f5200040032002f0b07001e
:1012300044c3b3000440780034e8b700458320007d
:101240009542780044c4b30084cf5200b9fe320006
:101250003a003700770b07000900370079070700cd
:10126000c50f0700721b070000027800e00f520054
:1012700003003a0044c1b3000440780034e8b700ea
:10128000458320009542780044cab30084cf5200c1
:10129000f2ff3200290037008e0b07001a003700da
:1012a00068070700b40f07006c1b070000027800f6
:1012b000e00f52000400320044cab300044078003a
:1012c00034e8b70010003700151680000400240031
:1012d00004826200e00f52000400320044cab300ee
:1012e0000440780034e8b70007003700501b0700bf
:1012f00000027800e00f520003003a0044c3b3003c
:101300000440780034e8b700458320009542780017
:1013100084cab30084cf5200e1ff320007003700d7
:1013200048070700940f0700fdff370004cab30009
:101330000440780034e8b700000000000080fa00a4
:10134000000006000200fa00c4c580003441880095
:101350000002eb00c4c588000002eb0004c3880053
:10136000043a800061026200e00f52000300320084
:1013700004c380000440a00004c38800053a800034
:101380000408200004826200e00f520004003200d2
:1013900005c38000040220000482720004c3880098
:1013a000053a80000404200004826200e00f52002d
:1013b0000400320005c3800004042000048272008f
:1013c00004c38800043a800062026200e00f520009
:1013d0000300320004c380000400a00004c388009e
:1013e000053a80000400280004826200e00f5200e9
:1013f0000300320004c380000410a00004c388006e
:10140000043a800070026200e00f520003003200d4
:1014100004c380000420a00004c38800053a8000b3
:101420000400240004826200e00f52000300320036
:1014300004c380000430a00004c388000002eb0055
:1014400054c288000002eb0064c288000002eb0076
:1014500074c288000002eb0084c288000002eb0026
:1014600094c288000002eb00a4c288000002eb00d6
:10147000b4c288000002eb00c4c288000002eb0086
:10148000d4c288000002eb00e4c2880084c180005e
:10149000a440880094c18000c4408800648020007b
:1014a000b4428800a4ff2100c44288006085200067
:1014b000b9fb0700f4282000e4c48800d4a320006e
:1014c000f4c48800d4a3200004c5880061852000ee
:1014d000c0892100bbfb0700048020006442880013
:1014e00044ff210074428800c0842000aafb07004a
:1014f000f4282000b4c48800d4a32000c4c4880009
:10150000d4a32000d4c48800c184200060892100b5
:10151000acfb07000060fe00440620002453880056
:1015200004d027005453880071322a000080eb0059
:10153000dd0b0700000278007453880044b7800078
:101540008453880054b780009453880061ae2a0009
:101550000080eb00d40b070000027800b453880031
:1015600064b78000c453880074b78000d4538800e7
:10157000b45380008400780000532700050c070056
:1015800000027800e453880001002200008022005d
:10159000c50b0700000278001454880001002200e7
:1015a00000002100c00b07000002780024548800ce
:1015b000843e2000345488002403200044548800d2
:1015c000841a2600b454880071322a000080eb008f
:1015d000b50b070000027800d454880094b780004f
:1015e000e4548800a4b78000f454880061ae2a0057
:1015f0000080eb00ac0b0700000278001455880057
:10160000b4b7800024558800c4b7800034558800e2
:10161000145580008400780000592600dd0b070077
:101620000002780044558800010022003033220077
:101630009d0b07000002780074558800010022000d
:10164000c0cc2100980b0700000278008455880068
:1016500004fa20009455880024032000a455880033
:1016600084b780008402780034b7800005017800d8
:101670008400780040a62000ba04070084252000da
:10168000f455880004dc25002456880021eb260050
:101690000080eb00840b07000002780044568800ad
:1016a00064b880005456880074b88000645688007e
:1016b000c1b02a000080eb007b0b0700000278001d
:1016c0008456880084b880009456880094b88000be
:1016d000a45688008456800084007800801a260072
:1016e000ac0b070000027800b4568800010022000d
:1016f000008022006c0b070000027800e45688008e
:101700000100220000802100670b07000002780022
:10171000f456880004fa200004578800840c200046
:101720001457880004dc2500845788008080eb0073
:101730000080eb005c0b070000027800a4578800d3
:10174000b4b88000b4578800c4b88000c45788007b
:10175000c10428000080eb00530b07000002780052
:10176000e4578800d4b88000f4578800e4b88000bb
:1017700004588800e457800084007800802c2300ff
:10178000840b070000027800145888000100220032
:1017900000002400440b0700000278004458880031
:1017a00001002200000021003f0b0700000278002a
:1017b0005458880004fa200064588800840c2000e3
:1017c00074588800a4b880008402780054b880005f
:1017d0000501780084007800e0ab20006104070078
:1017e00084702000c4588800c4a22100f4588800e6
:1017f0008000eb000080eb002b0b0700000278005c
:101800001459880084b980002459880094b9800054
:1018100034598800215e29000080eb00220b07006c
:101820000002780054598800a4b9800064598800e7
:10183000b4b980007459880054598000840078003d
:1018400000c22100530b0700000278008459880071
:101850000100220090192200130b070000027800fb
:10186000b45988000100220060e621000e0b070039
:1018700000027800c4598800843e2000d4598800b2
:10188000441f2000e45988000002eb00545a8800ed
:101890008000eb000080eb00030b070000027800e3
:1018a000745a8800d4b98000845a8800e4b9800052
:1018b000945a88008000eb000080eb00fa0a0700d1
:1018c00000027800b45a8800f4b98000c45a880035
:1018d00004ba8000d45a8800b45a8000840078008a
:1018e0000000eb002b0b070000027800e45a880090
:1018f000010022000000eb00eb0a07000002780064
:10190000145b8800010022000000eb00e60a0700db
:1019100000027800245b88000002eb00345b880042
:101920000002eb00445b8800c4b9800084027800a8
:1019300074b98000050178008400780080b120002f
:101940000804070084702000945b8800047721005d
:10195000c45b88008000eb000080eb00d20a070027
:1019600000027800e45b8800a4ba8000f45b880081
:10197000b4ba8000045c8800215e29000080eb007e
:10198000c90a070000027800245c8800c4ba8000fd
:10199000345c8800d4ba8000445c8800245c8000f9
:1019a00084007800a0862100fa0a0700000278006f
:1019b000545c88000100220090192200ba0a070036
:1019c00000027800845c88000100220060e62100ab
:1019d000b50a070000027800945c8800843e20006d
:1019e000a45c8800441f2000b45c88000002eb0067
:1019f000245d88008000eb000080eb00aa0a07004d
:101a000000027800445d8800f4ba8000545d8800cc
:101a100004bb8000645d88008000eb000080eb0068
:101a2000a10a070000027800845d880014bb8000d2
:101a3000945d880024bb8000a45d8800845d8000e4
:101a4000840078000000eb00d20a07000002780052
:101a5000b45d8800010022000000eb00920a07003c
:101a600000027800e45d8800010022000000eb0025
:101a70008d0a070000027800f45d88000002eb0088
:101a8000045e88000002eb00145e8800e4ba800067
:101a90008402780094ba8000050178008400780000
:101aa00020b72000af0307000002eb00e4478800e6
:101ab00004e2240014488800517125000080eb00e6
:101ac000790a07000002780034488800c4bb80000f
:101ad00044488800d4bb800054488800811a2600fe
:101ae0000080eb00700a070000027800744888004c
:101af000e4bb800084488800f4bb800094488800e0
:101b00007448800084007800c0c22400a10a070045
:101b100000027800a4488800010022000000eb00c9
:101b2000610a070000027800d44888000100220002
:101b30000000eb005c0a070000027800e44888001f
:101b40000002eb00f44888000002eb000449880022
:101b50000002eb00744988008000eb000080eb007d
:101b6000510a0700000278009449880014bc8000e4
:101b7000a449880024bc8000b44988008000eb00a0
:101b80000080eb00480a070000027800d449880072
:101b900034bc8000e449880044bc8000f4498800db
:101ba000d4498000840078000000eb00790a070027
:101bb00000027800044a8800010022000000eb00c7
:101bc000390a070000027800344a88000100220028
:101bd0000000eb00340a070000027800444a880045
:101be0000002eb00544a88000002eb00644a8800bf
:101bf00004bc800084027800b4bb8000050178003a
:101c000084007800c08f2000560307000002eb001c
:101c1000844d880004e22400b44d880051712500f1
:101c20000080eb00200a070000027800d44d8800f5
:101c3000e4bc8000e44d8800f4bc8000f44d8800d2
:101c4000811a26000080eb00170a070000027800c6
:101c5000144e880004bd8000244e880014bd80000e
:101c6000344e8800144e800084007800c0c22400e6
:101c7000480a070000027800444e88000100220054
:101c80000000eb00080a070000027800744e88008c
:101c9000010022000000eb00030a070000027800a8
:101ca000844e88000002eb00944e88000002eb0096
:101cb000a44e88000002eb00144f88008000eb0067
:101cc0000080eb00f809070000027800344f88001c
:101cd00034bd8000444f880044bd8000544f8800cc
:101ce0008000eb000080eb00ef09070000027800a5
:101cf000744f880054bd8000844f880064bd80000c
:101d0000944f8800744f8000840078000000eb003e
:101d1000200a070000027800a44f8800010022007a
:101d20000000eb00e009070000027800d44f8800b3
:101d3000010022000000eb00db0907000002780030
:101d4000e44f88000002eb00f44f88000002eb0033
:101d50000450880024bd800084027800d4bc800038
:101d60000501780084007800009b2000fd02070038
:101d70000002eb00b44a8800846d2d00e44a88001c
:101d80008000eb000080eb00c7090700000278002c
:101d9000044b880004be8000144b880014be8000f1
:101da000244b8800118a2d000080eb00be0907003b
:101db00000027800444b880024be8000544b880009
:101dc00034be8000644b8800444b8000840078005f
:101dd00000b22c00ef09070000027800744b880065
:101de0000100220000802200af09070000027800f5
:101df000a44b88000100220090992100aa09070045
:101e000000027800b44b8800843e2000c44b880058
:101e100044012000d44b8800c4ce2200444c8800ea
:101e20008000eb000080eb009f09070000027800b3
:101e3000644c880054be8000744c880064be8000ee
:101e4000844c8800b11124000080eb009609070043
:101e500000027800a44c880074be8000b44c880056
:101e600084be8000c44c8800a44c800084007800ac
:101e7000400d2300c709070000027800d44c8800f9
:101e80000100220090192200870907000002780053
:101e9000044d88000100220060e62100820907004d
:101ea00000027800144d8800843e2000244d8800f4
:101eb00044012000344d88000002eb00644d88008e
:101ec0000082eb00744d88000002eb00044c880097
:101ed0000082eb00144c880044be8000840278002d
:101ee000f4bd800005017800840078006095200032
:101ef0009c0207000002eb0054508800846d2d0006
:101f0000845088008000eb000080eb006609070029
:101f100000027800a450880024bf8000b4508800dc
:101f200034bf8000c4508800118a2d000080eb006f
:101f30005d09070000027800e450880044bf80007b
:101f4000f450880054bf800004518800e4508000a1
:101f50008400780000b22c008e090700000278008f
:101f60001451880001002200008022004e09070061
:101f7000000278004451880001002200909921005d
:101f8000490907000002780054518800843e20006f
:101f9000645188004401200074518800c4ce22009e
:101fa000e45188008000eb000080eb003e09070050
:101fb000000278000452880074bf80001452880028
:101fc00084bf800024528800b11124000080eb00ff
:101fd00035090700000278004452880094bf800051
:101fe00054528800a4bf800064528800445280008c
:101ff00084007800400d2300660907000002780085
:10200000745288000100220090192200260907005e
:1020100000027800a45288000100220060e621003e
:102020002109070000027800b4528800843e200095
:10203000c452880044012000d45288000002eb0002
:10204000045388000082eb00145388000002eb0068
:10205000a45188000082eb00b451880064bf800066
:102060008402780014bf80000501780084007800a5
:10207000a0a020003b0207001517800004022000ea
:102080000482620004f0a7000402ea000402e900ee
:102090004f22de00044278000482fb0061026200ed
:1020a0004522dd0016178000f5fd2f008502630034
:1020b0000482720014178800d762a900d602a80013
:1020c000d742a900d702a900c4e2a800e2a2a90051
:1020d000c522a800c4c2a900d042a800d662a800a8
:1020e000e822a800e202a900ca42a900e802a8006a
:1020f000cbc2a900d6c2a800d6a2a800e222a9009d
:10210000d362a900d202a900d242a800cdc2a80081
:10211000cda2a800d222a800d322a900d342a900b0
:10212000d302a900c182a800c1a2a800c0e2a900f0
:10213000dea2a900c122a900c1c2a800c1e2a80074
:10214000e5a2a800e582a800e5c2a800d282a80006
:10215000d2e2a800d382a800d3a2a800cc62a80033
:10216000cc82a800e502a800e522a800c142a80090
:10217000c0c2a900cc42a900d262a900e422a900f1
:10218000de02a900c642a900e402a900cde2a9002e
:10219000c7c2a900d2c2a900d2a2a900de22a9000a
:1021a0008e00a9008600a900e40480000400a100bc
:1021b0000410a0000420a000e40488008220a900ec
:1021c0008c60a9008460a900a404800004c0a00061
:1021d00004d0a10004e0a000a40488008d60a90040
:1021e0008560a900c404800004c0a00004d0a00041
:1021f00004e0a100c404880085e0a900c200a80092
:102200008de0a800d404800004c0a10004d0a10087
:1022100004e0a000d40488008d20a900c40480003c
:102220000440a0000450a1000460a000c404880081
:102230008d40a900c40480000440a0000450a10007
:102240000460a000c40488008940a9009140a9004e
:10225000440580000480a0000490a00004a0a00019
:1022600044058800043a80000480a1000490a10085
:1022700004a0a00004b0a000043a8800f4002f00dd
:10228000341088001406200024108800f1fb2d0073
:10229000b0532b005df80700f1fb2d00a0f32b00dd
:1022a0005df8070004102000841c88000410200042
:1022b000842288000042eb0004407800a0e8b700c8
:1022c0000042eb0004407800a1e8b7000042eb00b8
:1022d00004407800e2e8b7000042eb0004407800d8
:1022e000e3e8b70004f02f006410880044002000e9
:1022f000a4108800f475270074108800d4fa250013
:102300002408880054fa25008408880094d023000b
:10231000640888000002eb003408880084c0a9002b
:1023200054f82500f4088800d4f925000409880031
:102330000002eb00c408880086c0a900440d2300f9
:10234000e4088800f40d200024478800e40d2000f4
:102350004447880004022000544788000002eb0034
:102360006447880014c0b30004407800eee8b7006a
:10237000f40b200034478800408e2000ec17070043
:1023800004c4b30004407800f6e8b7000042eb0054
:1023900004407800f7e8b700040220008447880072
:1023a000040220009447880004022000a44788000b
:1023b00000c2eb0004407800f8e8b70000c2eb0070
:1023c00004407800f9e8b700a7140700248a210028
:1023d000040f780064c08000840278001e02780038
:1023e000050a78001e8fe80054c08000840278003f
:1023f0001e027800050a78001e8fe80044c08000a5
:10240000840278001e027800050a78001e8fe8001a
:1024100034c08000840278001e027800050a78002b
:10242000048b2100040f780084c0800084027800af
:102430001e027800050a78001e8fe80074c0800034
:10244000840278001e027800050a78000002eb0082
:10245000f4c588006022b800a4c58800b5c588000e
:1024600094c08000d44188000080fa00000006007b
:102470000200fa000002eb00040f78000002eb00fb
:1024800004c388004007a90040e7a90040c7a9008d
:102490004027a90041e7a9004087a90041c7a9003a
:1024a0000002eb00c4c588000002eb00e4c5880010
:1024b000408e2000d51707000041eb00a1c0b300fb
:1024c000008f20009d1c0700000278001e0f720084
:1024d0000041eb00a1c0b300008f2000971c070053
:1024e000000278001e0f72000041eb00a1c0b30093
:1024f000008f2000911c0700000278001e0f720060
:10250000848f2000144278000441780041c1b30058
:10251000008f2000891c0700000278001e0f720047
:10252000948f2000144278000441780051c1b30018
:10253000008f2000811c0700000278001e0f72002f
:1025400082cfb3008040eb00008f20007b1c07008f
:10255000000278001e0f72000041eb0011c0b300b2
:10256000008f2000751c0700000278001e0f72000b
:102570000041eb0021c0b300008f20006f1c07005a
:10258000000278001e0f72000041eb0031c0b30062
:10259000008f2000691c0700000278001e0f7200e7
:1025a00004f02f009e02620004a02f00848f5200ce
:1025b00007003a0005c3800004082000048272006e
:1025c00004c3880074c280000402e80074c288005a
:1025d0008040eb00008f20008a1c0700000278007a
:1025e000040f7800f40f20009e026200840f200088
:1025f000848f52000700320005c3800004082000c9
:102600000482720004c3880074c280000402e800df
:1026100074c28800d9060700e0060700e306070039
:102620000080fa00000006000600fa00e4c5800001
:102630000402e800e4c58800d44180000402e800f8
:10264000d4418800d441800094c08800c522a900ec
:10265000c084200050f70700608520004ef7070077
:102660004206200041062000c08f2000ef00070036
:102670004206200041062000009b2000eb000700de
:102680004206200041062000e0ab2000e7000700e2
:10269000420620004106200040a62000e30007007b
:1026a000420620004106200020b72000df0007007e
:1026b000420620004106200080b12000db00070018
:1026c000b2060700a9060700590707008c60a90099
:1026d00015178000040220000482620004f0a700a5
:1026e0000402ea000402e9004f22de0004427800fe
:1026f0000482fb00610262004522dd0016178000a3
:10270000f5fd2f0085026300048272001417880013
:102710004c050700151780000402200004826200a7
:1027200004f0a7000402ea000402e9004f22de00e0
:10273000044278000482fb00610262004522dd0051
:1027400016178000f5fd2f008502630004827200d9
:1027500014178800351780000400240004826200ea
:10276000e00f520014003a00b441800051c3200031
:10277000040078008707070000027800040f780043
:102780000001eb009e007800c08f2000750007005c
:10279000c441800051c32000040078007d07070079
:1027a00000027800040f78000001eb009e00780022
:1027b000009b20006b000700448220001442780038
:1027c000e04f52000d003a00f4478000040078000a
:1027d000ff09070000027800140798001e0090000f
:1027e000c211070000027800240798001e01900023
:1027f000ae00900040a620005a0007001517800088
:10280000040220000482620004f0a7000402ea002f
:102810000402e9004f22de00044278000482fb003b
:10282000610262004522dd0016178000f5fd2f00d1
:10283000850263000482720014178800c501070036
:1028400015178000040220000482620004f0a70033
:102850000402ea000402e9004f22de00044278008c
:102860000482fb00610262004522dd001617800031
:10287000f5fd2f00850263000482720014178800a2
:10288000280407001517800004022000048262005b
:1028900004f0a7000402ea000402e9004f22de006f
:1028a000044278000482fb00610262004522dd00e0
:1028b00016178000f5fd2f00850263000482720068
:1028c0001417880044c4b3000440780034e8b7000b
:1028d0004712070064c0b3000440780034e8b70032
:1028e0000080fa00000006000000fa0011e1a800d4
:1028f00021e1a800f4cf27000415880084fe200001
:102900001415880064342e002415880034fe2e002f
:102910003415880074002c004415880084ff2300bf
:1029200054158800a1e2a8008560a9008d60a80068
:102930008540a9008d40a8008520a9008d20a80011
:102940000de2a800e802a8000042eb000440780075
:10295000aef8b7003c1307000060fe000080fa00ec
:10296000000006000600fa00000f7800110798002a
:10297000220798001e027800b40290001e02900008
:10298000848f5200080031001e027800b4029000cb
:102990001e02780015029800c4c280000402e800fc
:1029a000c4c28800030037001e0278009e02900017
:1029b000150298001e027800941a90002e029000d2
:1029c000848f5200080031001e027800941a900093
:1029d0001e02780075129800c4c280000402e8004c
:1029e000c4c28800030037001e027800ae029000c7
:1029f00075129800458320009542780044c2b300c8
:102a000084cf52000400320042062000410620001c
:102a10001e007800050007001e0078005400070023
:102a20000060fe000080fa00000006000a00fa00c4
:102a3000200798003107980042079800be029000d6
:102a40004e029000848f5200090039002e0290003f
:102a5000940290002e029000250298002e02900011
:102a6000f41290002e029000051a98003c003700e6
:102a70002e0290001402900005002000048fbe007a
:102a80003e029000050020001e03900004b3b90030
:102a9000060378009e03780005b8b900800378002b
:102aa000070343009e037800040278000722b80061
:102ab0000503430086027800048fbe00048fbe0029
:102ac0004e029000050020000401be001e00be0062
:102ad00097f607000002be00048fbe009e02780039
:102ae0002e029000250298002e0290007412900091
:102af00005002000048fbe003e029000050020006b
:102b00001e03900004b3b900060378009e0378000a
:102b100005b8b90080037800070343009e037800de
:102b2000040278000722b8000503430086027800fb
:102b3000048fbe00048fbe004e02900005002000ee
:102b40000401be001e00be0079f607000002be00b0
:102b5000048fbe009e0278002e029000051a980095
:102b60002e009000020007000080fa00000006001e
:102b70000600fa00200798002e029000d402900070
:102b80002e02900024029000850078000400780056
:102b90008006070000027800040f78002e029000e3
:102ba00064029000840078001e0078007906070017
:102bb00000027800040f78002e029000740290004a
:102bc000e00f52000c0034002e02900074029000be
:102bd0000482ea009e0f5200030031000082eb00e5
:102be000040f78000f0037002e029000740290004e
:102bf0001e0f42000b0037002e029000740290005e
:102c00000402ea009e0f5200030036000002eb00af
:102c1000040f7800030037002e0290007402900029
:102c20001e0f42002e0290009e027800450298007e
:102c30002e029000b41a90002e029000041a900008
:102c40008500780004007800520607000002780032
:102c5000140798002e029000441a90008400780017
:102c60001e0090004b060700000278001407980031
:102c70002e029000541a9000e00f52000f00340012
:102c80002e029000541a90008482ea001e029000e6
:102c9000848f5200030031000082eb00140798007b
:102ca000150037002e029000541a90009e029000ea
:102cb00004824200140798000f0037002e02900093
:102cc000541a90000402ea00840278001e02900068
:102cd000848f5200030036000002eb0014079800b6
:102ce000050037002e029000541a90009e029000ba
:102cf00004824200140798002e0290009e02900069
:102d0000251a98002e029000940a90002e0290003e
:102d10002402900085007800040078001d0607005a
:102d200000027800040f78002e029000240a900020
:102d3000840078001e007800160607000002780064
:102d4000040f78002e029000340a9000e00f520029
:102d50000c0034002e029000340a90000482ea0035
:102d60009e0f5200030031000082eb00040f780038
:102d70000f0037002e029000340a90001e0f420010
:102d80000b0037002e029000340a90000402ea0083
:102d90009e0f5200030036000002eb00040f780083
:102da000030037002e029000340a90001e0f4200ec
:102db0002e029000740a9000840078001e007800b3
:102dc000f405070000027800ae029000d40a9800d3
:102dd0002e02900004129000840078001e007800fb
:102de000ec05070000027800ae029000e40a9800ab
:102df0002e029000d40a90002e029000141290002f
:102e0000848f5200040031002e0290009412900032
:102e10002e029000550a98002e029000f41a90009d
:102e20002e029000041a90008500780004007800bb
:102e3000d805070000027800140798002e029000c1
:102e400004229000840078001e009000d105070045
:102e500000027800140798002e02900014229000bf
:102e6000e00f52000f0034002e0290001422900058
:102e70008482ea001e029000848f52000300310019
:102e80000082eb0014079800150037002e02900016
:102e9000541a90009e029000048242001407980089
:102ea0000f0037002e029000142290000402ea0066
:102eb000840278001e029000848f520003003600c6
:102ec0000002eb0014079800050037002e02900066
:102ed000142290009e029000048242001407980081
:102ee0002e02900054229000840078001e00900072
:102ef000a805070000027800ae029000b4229800f6
:102f00002e02900064229000840078001e00900041
:102f1000a005070000027800ae029000c4229800cd
:102f20002e029000b42290002e0290007422900095
:102f3000848f5200040031002e029000f422900091
:102f40002e029000352298000060fe000080fa00fa
:102f5000000006001200fa00a4002000c4c588008a
:102f6000d45b80001407980004598000240798005f
:102f70006453800034079800c454800044079800cc
:102f800034568000540798009457800064079800d6
:102f90002448800074079800c44d8000040f9800f6
:102fa00014c0b300044f78000042eb0014479800af
:102fb000100037000e82e80084007800408e200068
:102fc0009e15070000427800044f78001e429000d2
:102fd0000442e800144798001e427800e04f520077
:102fe00003003200b4c280000402e800b4c28800ca
:102ff0000060fe009e4278000582fb000402ea00a9
:103000004f22de008442780014c0b3001e439000bb
:10301000f34f5300010036000042eb0004c262008f
:10302000e04f5200e3ff3a001e429000f34f52007f
:103030000200360000022000d71307000080fa00cb
:10304000000006000400fa0094002000c4c58800b7
:10305000043a800061026200e00f52000300320077
:1030600004c380000440a00004c38800053a800027
:103070000408200004826200e00f520004003200c5
:1030800005c38000040220000482720004c388008b
:10309000053a80000404200004826200e00f520020
:1030a0000400320005c38000040420000482720082
:1030b00004c38800043a800062026200e00f5200fc
:1030c0000300320004c380000400a00004c3880091
:1030d000053a80000400280004826200e00f5200dc
:1030e0000300320004c380000410a00004c3880061
:1030f000043a800070026200e00f520003003200c8
:1031000004c380000420a00004c38800053a8000a6
:103110000400240004826200e00f52000300320029
:1031200004c380000430a00004c388000060fe00d7
:10313000350480000404200004826200e00f520085
:103140008c00320086c0a900344280000402e800ee
:103150006f0262003442880034428000e00f520067
:1031600014003a001417800061026200e00f520060
:1031700002003200e202a90001003700e202a800ca
:1031800095418000d407200004aab9000402780009
:103190008402d1008441800085007800040078001a
:1031a000a205070000027800844188000002eb00bd
:1031b00094418800351780000400220004826200d8
:1031c000e00f52000600320044418000e00f520040
:1031d00003003200241107001b1107001211070021
:1031e000351780000400220004826200e00f5200c4
:1031f00003003a0014002000444188000200370018
:103200000002eb00444188006a010700448220006c
:1032100014427800e04f52000d003a00f44780005d
:10322000040078006a07070000027800040f7800a5
:103230001e0078002d0f0700000278001407980088
:103240001e0178009e00900040a62000c5fd0700ea
:103250004483200014427800f44f520005003200ed
:10326000458320009542780044cab30084cf5200c1
:1032700018003a00420620008000eb00c08f2000ba
:10328000eafd0700420620008000eb00c08f20000e
:10329000e6fd0700420620008000eb00e0ab2000c6
:1032a000e2fd0700420620008000eb0040a620005f
:1032b000defd0700420620008000eb0020b7200062
:1032c000dafd0700420620008000eb0080b12000fc
:1032d000d6fd0700c60f070055130700000278004f
:1032e000e00f520003003200c4e2a900d042a9005e
:1032f00002003700c4e2a800d042a800a482200047
:10330000144278000442e800044078002ae8b7003c
:10331000a4822000144278006f42620004407800ca
:103320002ae8b700a482200014427800e04f52003f
:1033300001003a00110007007300070045832000d8
:103340009542780044c4b30084cf520005003a008f
:10335000250480000404200004826200e00f520073
:1033600004003200fbfe0700950307000002eb009b
:10337000044188000080fa00000006000200fa0004
:1033800084002000c4c58800255c8000b45b8000f8
:1033900085007800040078007e04070000027800b1
:1033a000040f7800345c8000840078001e007800f0
:1033b0007804070000027800040f7800445c800065
:1033c0001e0f42001e0278000402d100a4428800b1
:1033d000145c80000402d10094428800c084200064
:1033e000d1f3070055598000e4588000850078002b
:1033f000040078006704070000027800040f7800da
:1034000064598000840078001e0078006104070081
:1034100000027800040f7800745980001e0f4200eb
:103420001e0278000402d100f44288004459800052
:103430000402d100e442880060852000baf307004e
:1034400084428000040f78001e027800e00f5200d2
:1034500002003d000002eb00040f78001e0278001d
:1034600004024200040f780004d027009e02780076
:10347000848f52000200360004d02700040f780029
:103480000002eb00f45b88000002eb00e45b8800c4
:103490001e027800045c8800d4428000040f78008b
:1034a0001e027800e00f520002003d000002eb0017
:1034b000040f78001e02780004024200040f780016
:1034c00004d027009e027800848f5200020036004c
:1034d00004d02700040f78000002eb002459880074
:1034e0000002eb00145988001e027800345988004d
:1034f00080b120009efd070020b720009cfd070042
:103500000080fa00000006000800fa006441800014
:1035100005002000048fbe008441800005002000cb
:103520001e03900004b3b900060378009e037800e0
:1035300005b8b90080037800070343009e037800b4
:10354000040278000722b8000503430086027800d1
:10355000048fbe00048fbe001e02be004a2bdd0099
:103560004622de0004027300c62ade00048fbe007d
:103570001e0290006d22b900040378001e0278003c
:103580006022b90004027800040343009e02780020
:10359000d4002000042ab800050343008602780006
:1035a000048fbe00048fbe001e02be00452bdd004e
:1035b0004b22de0004027300cb2ade00048fbe0023
:1035c000e4ff2f00050020001e03be00840f5300ff
:1035d000858f5b00030036000082eb007441880099
:1035e000020037001e027800744188001e02be00ef
:1035f000492bdd004722de0004027300c72ade00eb
:10360000048fbe009e027800f4072000048262004e
:1036100024079800458320009542780044c4b300f5
:1036200084cf52000f00320045832000954278007d
:1036300044c3b30084cf52000a0032004583200007
:103640009542780054c3b30084cf52000500320085
:10365000458320009542780084cab30084cf52008d
:103660000a003a002e02900084024200842b2800b7
:103670000482420094027800350798004206200038
:10368000be009000e0ab2000e8fc07000080fa00dc
:10369000000006000400fa0074002000c4c5880081
:1036a0001417800062026200e00f520037003200ff
:1036b000d6c2a900800c2000010020000b190700d1
:1036c00021c0b3000000eb00901707000002be000d
:1036d000048fbe0004002000151121001e03be004f
:1036e000840f5300858f5b0006003a000002eb0058
:1036f0004442880094c280000402e80094c288001a
:10370000020037001e02780044428800d6c2a8009a
:10371000800c200001002000f4180700d6a2a900a8
:10372000800c200001002000f018070021c0b30029
:103730000000eb00751707000002be00048fbe00fa
:1037400004002000151121001e03be00840f530049
:10375000858f5b0006003a000002eb0054428800af
:1037600094c280000402e80094c28800020037007e
:103770001e02780054428800d6a2a800800c2000c7
:1037800001002000d9180700070037000002eb00f5
:10379000544288000002eb0044428800a4c280002a
:1037a0000402e800a4c28800e222a9000080fa0016
:1037b000000006000200fa0064002000c4c5880072
:1037c000e0cc2000d718070000027800040f780032
:1037d000b44180009e0078000400780013040700c4
:1037e00000027800b4418800e0dc2000cd1807001a
:1037f00000027800040f7800c44180009e00780029
:10380000040078000904070000027800c441880021
:10381000351780000400240004826200e00f52008b
:1038200002003a00c441800074408800e00c21008e
:10383000bc18070000027800040f780004558000cf
:103840009e00780004007800f8030700000278006a
:1038500004558800e01c2100b2180700000278001f
:10386000040f7800a45380009e00780004007800c4
:10387000ee03070000027800a4538800e03c21001a
:10388000a818070000027800040f78007456800022
:103890009e00780004007800e4030700000278002e
:1038a00074568800e02c21009e1807000002780062
:1038b000040f7800d45780009e0078000400780040
:1038c000da03070000027800d4578800e04c21009a
:1038d0009418070000027800040f78006448800004
:1038e0009e00780004007800d003070000027800f2
:1038f00064488800e05c21008a1807000002780014
:10390000040f7800044e80009e00780004007800c8
:10391000c603070000027800044e88000080fa0009
:10392000000006000600fa00f4cf27000415880006
:10393000e4fd20001415880064342e00241588004e
:1039400034fe2e003415880074002c0044158800c5
:1039500004fc230054158800a1e2a8000002eb003b
:10396000040f78008000370000000000151580006b
:103970000408200004826200e00f5200fbff3200c6
:103980000002eb0014079800340037000514800093
:103990001e02780004034200e4ec2000040243000d
:1039a000050a7800151480001e0278000403420006
:1039b000e4fc200004024300050a7800251480007e
:1039c0001e02780004034200e40c210004024300bc
:1039d000050a7800351480001e02780004034200b6
:1039e000e41c210004024300050a7800451480000d
:1039f0001e02780004034200e42c2100040243006c
:103a0000050a7800551480001e0278000403420065
:103a1000e43c210004024300050a7800651480009c
:103a20001e02780004034200e44c2100040243001b
:103a3000050a7800751480001e0278000403420015
:103a4000e45c210004024300050a78001e0fe80030
:103a50001e0290000402e800140798001e02900065
:103a6000e70f5200c9ff3600000000001515800066
:103a70000408200004826200e00f5200fbff3a00bd
:103a80000002eb0014079800340037008514800012
:103a90001e02780004034200e4ec2000040243000c
:103aa000050a7800951480001e0278000403420085
:103ab000e4fc200004024300050a7800a5148000fd
:103ac0001e02780004034200e40c210004024300bb
:103ad000050a7800b51480001e0278000403420035
:103ae000e41c210004024300050a7800c51480008c
:103af0001e02780004034200e42c2100040243006b
:103b0000050a7800d51480001e02780004034200e4
:103b1000e43c210004024300050a7800e51480001b
:103b20001e02780004034200e44c2100040243001a
:103b3000050a7800f51480001e0278000403420094
:103b4000e45c210004024300050a78001e0fe8002f
:103b50001e0290000402e800140798001e02900064
:103b6000e70f5200c9ff3600f40720009e027800dc
:103b7000848f52007cff3600a1e2a900e0ec200017
:103b8000e817070000027800240798002e02900032
:103b900044598800e0fc2000e2170700000278008a
:103ba000240798002e029000145c8800e00c21008d
:103bb000dc17070000027800240798002e0290000e
:103bc00004558800e01c2100d61707000002780089
:103bd000240798002e029000a4538800e03c2100a6
:103be000d017070000027800240798002e029000ea
:103bf00074568800e02c2100ca17070000027800e4
:103c0000240798002e029000d4578800e04c210031
:103c1000c417070000027800240798002e029000c5
:103c200064488800e05c2100be17070000027800ad
:103c3000240798002e029000044e88000080fa00ad
:103c4000000006000600fa00f4cf270004158800e3
:103c5000e4fd20001415880064342e00241588002b
:103c600034fe2e003415880074002c0044158800a2
:103c70000403200054158800a1e2a8000002eb0014
:103c8000040f780086003700000000001515800042
:103c90000408200004826200e00f5200fbff3200a3
:103ca0000002eb001407980037003700051480006d
:103cb0001e02780004034200e4cc2000040243000a
:103cc000050a7800151480001e02780004034200e3
:103cd000e4dc200004024300050a78001e0fe8001f
:103ce000251480001e02780004034200e4cc20006a
:103cf00004024300050a7800351480001e02780093
:103d000004034200e4dc200004024300050a7800ba
:103d10001e0fe800451480001e02780004034200d4
:103d2000e4cc200004024300050a7800551480000a
:103d30001e02780004034200e4dc20000402430079
:103d4000050a78001e0fe800651480001e02780046
:103d500004034200e4cc200004024300050a78007a
:103d6000751480001e02780004034200e4dc200089
:103d700004024300050a78001e0fe8001e029000ae
:103d80000402e800140798001e029000e30f52009e
:103d9000c6ff360000000000151580000408200052
:103da00004826200e00f5200fbff3a000002eb00c9
:103db0001407980037003700851480001e02780031
:103dc00004034200e4cc200004024300050a78000a
:103dd000951480001e02780004034200e4dc2000f9
:103de00004024300050a78001e0fe800a5148000b5
:103df0001e02780004034200e4cc200004024300c9
:103e0000050a7800b51480001e0278000403420001
:103e1000e4dc200004024300050a78001e0fe800dd
:103e2000c51480001e02780004034200e4cc200088
:103e300004024300050a7800d51480001e027800b1
:103e400004034200e4dc200004024300050a780079
:103e50001e0fe800e51480001e02780004034200f3
:103e6000e4cc200004024300050a7800f514800029
:103e70001e02780004034200e4dc20000402430038
:103e8000050a78001e0fe8001e0290000402e800f8
:103e9000140798001e029000e30f5200c6ff360080
:103ea000f40720009e027800848f520076ff3600cf
:103eb000a1e2a900e0cc20001a1707000002780058
:103ec000240798002e029000b4418800e0dc200016
:103ed0001417070000027800240798002e029000b3
:103ee000c44188000080fa00000006000400fa00c7
:103ef00094028000040f7800ff3ffc001402800051
:103f00000450a0000460a0000470a0001402880007
:103f10001e02780094028800000088000000000063
:103f20000000000000000000000000008c60a900fc
:103f30008e00a9009402800014079800ff3ffc0047
:103f4000140280000450a1000460a1000470a100cc
:103f5000140288001e02900094028800000088006d
:103f600003000700c522a8000080fa000000060038
:103f70000200fa00248a2100040f78001e02780053
:103f80001402780064c088001e8fe8001e027800ca
:103f90001402780054c088001e8fe8001e027800ca
:103fa0001402780044c088001e8fe8001e027800ca
:103fb0001402780034c08800048b2100040f7800bc
:103fc0001e0278001402780084c088001e8fe8006a
:103fd0001e0278001402780074c08800053b80003f
:103fe0000400280004826200e00f5200fbff3a0048
:103ff00014c0800025c08000020220000400be0022
:1040000008f10700053b80000400280004826200dc
:10401000e00f5200fbff3a0014c0800025c0800072
:10402000628021000400be001df107000080fa003c
:10403000000006000000fa005c0007004f000700c7
:1040400056000700420620008000eb00c08f2000d1
:1040500076fa0700420620008000eb00c08f2000a7
:1040600072fa0700420620008000eb00e0ab20005f
:104070006efa0700420620008000eb0040a62000f8
:104080006afa0700420620008000eb0020b72000fb
:1040900066fa0700420620008000eb0080b1200095
:1040a00062fa0700c0842000bbf007006085200092
:1040b000b9f0070005e1a9008e00a9008c60a900f5
:1040c0008600a9008460a900c4c2a9000080fa008b
:1040d000000006000000fa003400070005e1a90016
:1040e0008e00a9008c60a9008600a9008460a90048
:1040f000c4c2a9000080fa00000006000000fa0017
:10410000c0842000a4f0070060852000a2f0070012
:10411000420620008000eb0040a6200043fa070082
:10412000420620008000eb00e0ab20003ffa0700d1
:10413000420620008000eb0080b120003bfa07001f
:10414000420620008000eb0020b7200037fa07006d
:104150000e000700050007000002eb00340888008d
:1041600084c0a9000080fa00000006000000fa00e8
:10417000d702a8000080fa00000006000000fa0044
:10418000d702a9000080fa00000006000000fa0033
:10419000d722a9000080fa00000006000000fa0003
:1041a000d722a8000080fa00000006000000fa00f4
:1041b000d762a900d602a8000080fa00000006001d
:1041c0000400fa000002eb00040f78000002eb008c
:1041d0001407980054002000c4c5880045832000bf
:1041e0009542780044c3b30084cf52000f003200e0
:1041f000458320009542780044c4b30084cf520028
:104200000a003200458320009542780084cab3003a
:1042100084cf52000500320045832000954278008b
:1042200054c3b30084cf520005003a009e029000b0
:10423000f4f72f000482620014079800040037008e
:104240009e02900004082000048272001407980067
:10425000b4c38000e00f5200040032001e02900040
:104260000400a00014079800040037009e0290008c
:10427000e4ff2f00048262001407980084c38000ca
:10428000e00f5200020032001e20a00002003700a2
:10429000b4ff2f001e0f620025c3800004f02f0022
:1042a00004826200e00f5200040032001e029000ff
:1042b0000440a00014079800040037009e029000fc
:1042c000f4fe2f00048262001407980025c38000ca
:1042d000f40f200004826200e00f5200040032005c
:1042e0001e0290000410a00014079800040037007c
:1042f0009e029000d4ff2f000482620014079800f1
:1043000055c3800004f02f0004826200e00f5200c9
:10431000020032001e00a00002003700e4ff2f0060
:104320001e0f620055c38000f40f2000048262005b
:10433000e00f5200020032001e10a0000200370001
:10434000d4ff2f001e0f62004583200095427800a5
:1043500044c4b30084cf520004003a001e0290000f
:104360000420a00014079800040037009e0290006b
:10437000b4ff2f000482620014079800848f20008d
:10438000144278000482fb009e0f5200100032009d
:104390001e0278000442780004407800f8e8b70074
:1043a000848f2000144278000441780041c1b3009a
:1043b000008f2000e114070000027800e00f520097
:1043c0000300320074c280000402e80074c2880056
:1043d000948f2000144278008482fb001e0290001b
:1043e000848f5200100032001e02900004427800b8
:1043f00004407800f9e8b700948f20001442780058
:104400000441780051c1b300008f2000cb14070095
:1044100000027800e00f52000300320074c28000f6
:104420000402e80074c288000080fa000000060060
:104430000000fa00151680000400220004826200c9
:10444000e00f5200050032000042eb00044078000b
:10445000d0f6b700cbc2a9000400370014c0b300e7
:1044600004407800d0f6b700cbc2a800d762a800fd
:10447000d602a90005e1a9000002eb0004088800ab
:104480008460a9008c60a8007417200014088800bc
:1044900005e1a8000002eb003408880084c0a900f0
:1044a0000080fa00000006000a00fa0030079800b9
:1044b000410798003e029000050020001407980074
:1044c000250798001e029000ae029000c022dd0079
:1044d0000400200014079800250798004e02900061
:1044e000050020000401be001e009000ae009000f8
:1044f0000ff007000002be0014079800250798007f
:104500001e029000ae0290004d2bdd004322de0023
:1045100004027300c32ade001407980025079800e0
:104520001e039000ae03900004002000f5ff2f0052
:1045300006007800070378008403780005027800fd
:10454000070060000402630005002000c022dd00b7
:10455000040020000403be006102b80004037300dd
:1045600085837300e00f5300e08f5b00030032008f
:104570000082eb00040f7800020037001e0290005a
:10458000040f78001e027800040078000080fa0012
:10459000000006000800fa00200798003107980084
:1045a0002e02900005002000048fbe003e02900005
:1045b000050020001e03900004b3b9000603780034
:1045c0009e03780005b8b900800378000703430014
:1045d0009e037800040278000722b8000503430018
:1045e00086027800048fbe00048fbe001e02be004b
:1045f000432bdd004d22de0004027300cd2ade00d5
:10460000048fbe00f4ff2f00050020001e03be0033
:10461000840f5300858f5b0006003600f4ff2f00e7
:1046200005002000048fbe00d4c280000402e80010
:10463000d4c288001e027800240798002e02900041
:10464000040078000080fa00000006000a00fa006a
:1046500030079800410798003e029000e00f52009a
:1046600002003a004e029000340798003e0290008b
:10467000050020001407980025079800ae0290005e
:10468000f40f200004aab900040378001e02900071
:104690006022b90004027800040343009e029000e7
:1046a000f40f2000042ab8000503430086027800b6
:1046b000140798002507980014079800250798000c
:1046c0004e029000050020001e039000ae039000f3
:1046d0000602420087824a001407980025079800c6
:1046e0001e029000ae029000482bdd004822de0042
:1046f00004027300c82ade001407980025079800fa
:104700001e029000040f78004e0290009e0f52008f
:10471000020036001e0fe800040037004e02900031
:104720009e0f5200010031001e0fe9001e027800aa
:10473000040078000080fa00000006000a00fa0079
:1047400030079800410798003e029000e00f5200a9
:1047500002003a004e029000340798003e0290009a
:10476000050020001407980025079800ae0290006d
:10477000f403200004aab900040378001e0290008c
:104780006022b90004027800040343009e029000f6
:10479000f4032000042ab8000503430086027800d1
:1047a000140798002507980014079800250798001b
:1047b0004e029000050020001e039000ae03900002
:1047c0000602420087824a001407980025079800d5
:1047d0001e029000ae0290004a2bdd004622de0051
:1047e00004027300c62ade0014079800250798000b
:1047f0001e029000040f78004e0290009e0f52009f
:10480000020036001e0fe800040037004e02900040
:104810009e0f5200010031001e0fe9001e027800b9
:10482000040078000080fa00000006000a00fa0088
:1048300030079800410798003e029000e00f5200b8
:1048400002003a004e029000340798003e029000a9
:104850000500200014079800250798002e029000fc
:104860006f22b900040378001e0290006022b90094
:1048700004027800040343009e029000f40020002c
:10488000042ab80005034300860278001407980044
:104890002507980014079800250798004e029000fd
:1048a000050020001e039000ae03900006024200a7
:1048b00087824a0014079800250798001e0290007e
:1048c000ae0290004c2bdd004422de000402730097
:1048d000c42ade0014079800250798001e029000e5
:1048e000040f78004e0290009e0f52000200360026
:1048f0001e0fe800040037004e0290009e0f520089
:10490000010031001e0fe9001e027800040078004b
:104910000080fa000000060000a0fe00849fbe0098
:104920000000fa00d602a80000000000000000000d
:104930000000000000000000e222a8008600a9009c
:104940008e00a90044002000c4c5880005e1a9002c
:104950000002eb000408880084002000140888008e
:104960008c60a9008460a90005e1a8000002eb00aa
:10497000144188000000000004088000e10f52008c
:10498000fdff36001516800004002100048262003d
:10499000e00f520003003a00140020001441880088
:1049a000010037000000000004088000e20f520000
:1049b000fdff36001516800004002100048262000d
:1049c000e00f520003003a00140020001441880058
:1049d000010037000000000004088000e20f5200d0
:1049e000fdff3600151680000400210004826200dd
:1049f000e00f520002003a00140020001441880029
:104a00000002eb0064408800a4168000700262007f
:104a1000e00f520005003200a516800004082000b7
:104a200004826200e00f52000200320014002000f5
:104a300064408800e822a9000000000024048000ef
:104a400068026200e00f5200fcff32001516800081
:104a50000400220004826200e00f520005003200d0
:104a60000042eb0004407800d1f6b700cbc2a900a9
:104a70000400370014c0b30004407800d1f6b7003a
:104a8000cbc2a800c4c2a900d602a90005e1a900b2
:104a90000002eb00040888008460a9008c60a80074
:104aa000e41620001408880005e1a80000000000ba
:104ab000a416800070026200e00f520004003a0069
:104ac00004088000f30f5200f9ff360001003700a0
:104ad00000000000a5168000040820000482620087
:104ae000e00f52000300320004088000f30f520070
:104af000f8ff360004088000f30f52000300360070
:104b0000f4c280000402e800f4c28800e822a80091
:104b1000a416800085e0a900e46c2100144278000e
:104b2000e04f52000300320084c480000402e80019
:104b300084c4880014c0b30004407800cef6b700e7
:104b400014c0b30004407800cff6b7000080fa002c
:104b50004f02be000080fe00004006003600f80054
:104b6000809fbe00829fbe00849fbe00869fbe00c5
:104b70000200fa0034002000c4c588008460a90047
:104b80008c60a90005e1a9000042eb00044f780009
:104b9000a416800064026200e00f52001e00320082
:104ba0004006200001002000d0130700a41680005a
:104bb00064026200e00f520017003200400620003d
:104bc00001002000c9130700a416800064026200df
:104bd000e00f5200100032004006200001002000cb
:104be000c2130700a416800064026200e00f5200a6
:104bf000090032004006200001002000bb1307001e
:104c0000a416800064026200e00f5200020032002d
:104c100000202000a80c0700c4c2a8008600a9003c
:104c20008e00a8000080fa004f03be004f02be00b5
:104c30004f01be004f00be003600f90000400600e4
:104c4000801f7800849fbe00861f78000000fa0055
:104c5000a042a9008560a900151780000402200069
:104c600004826200e00f520002003200e2a2a900ba
:104c700001003700e2a2a80014002000c4c588008b
:104c8000f46c210014427800e04f5200040032001e
:104c90000042eb0004407800cff6b7006200370016
:104ca000c4bc2000144278000482fb00051480007c
:104cb00004034200e4bc200004024300050a78001b
:104cc000c4bc2000144278000482fb00151480004c
:104cd00004034200e4cc200004024300050a7800eb
:104ce000c4bc2000144278000482fb00251480001c
:104cf00004034200e4dc200004024300050a7800bb
:104d0000c4bc2000144278000482fb0035148000eb
:104d100004034200e4ec200004024300050a78008a
:104d2000c4bc2000144278000482fb0045148000bb
:104d300004034200e4fc200004024300050a78005a
:104d4000c4bc2000144278000482fb00551480008b
:104d500004034200e40c210004024300050a780029
:104d6000c4bc2000144278000482fb00651480005b
:104d700004034200e41c210004024300050a7800f9
:104d8000c4bc2000144278000482fb00751480002b
:104d900004034200e43c210004024300050a7800b9
:104da000c4bc2000144278000482fb0085148000fb
:104db00004034200e42c210004024300050a7800a9
:104dc000c4bc2000144278000482fb0095148000cb
:104dd00004034200e44c210004024300050a780069
:104de000c4bc2000144278000482fb00a51480009b
:104df00004034200e45c210004024300050a780039
:104e0000c4bc2000144278000442e800044078004a
:104e1000ccebb700c4bc2000144278000474a1009d
:104e200004407800ccebb700a042a8000080fa0054
:104e30004f0378004f02be004f007800004006008c
:104e40003600f800809fbe00829fbe00849fbe0097
:104e5000869fbe000000fa00a5168000040820000e
:104e600004826200e00f520012003a004006200067
:104e7000010020001d130700a51680000408200073
:104e800004826200e00f52000a003a00400620004f
:104e90000100200015130700a5168000040820005b
:104ea00004826200e00f520002003a00004020003d
:104eb0001d0c070085e0a9000080fa004f03be002a
:104ec0004f02be004f01be004f00be003600f90089
:104ed00000400600841f78000000fa002400200033
:104ee000c4c588008940a900a4c480000402e80069
:104ef000a4c488000080fa004f0278000040060039
:104f0000841f78000000fa00d4002000c4c5880087
:104f1000143a8000d4c588000000000000000000a2
:104f20000000fe000080fa004f02780000400600fa
:104f3000841f78000000fa00e4002000c4c5880047
:104f400000000000000000000000fe000080fa00e9
:104f50004f02780000400600841f78000000fa002d
:104f6000f4002000c4c5880000000000000000001c
:104f70000000fe000080fa004f02780000400600aa
:104f8000841f78000000fa0004012000c4c58800d6
:104f900000000000000000000000fe000080fa0099
:104fa0004f02780000400600841f78000000fa00dd
:104fb000c4ab2f00c4c58800000000000000000042
:104fc0000000fe000080fa004f027800004006005a
:104fd0000c00fa00500798005e02900005002000c7
:104fe000048fbe005e029000050020001e039000aa
:104ff00004b3b900060378009e03780005b8b90031
:1050000080037800070343009e03780004027800c1
:105010000722b8000503430086027800048fbe0013
:10502000048fbe001e02be00422bdd004e22de00b9
:1050300004027300ceaade00048fbe0054c18000bb
:10504000cfa2de001e03900004b3b900060378006f
:105050009e03780005b8b900800378000703430079
:105060009e037800040278000722b800050343007d
:1050700086027800048fbe00048fbe001e02be00b0
:10508000c62bdd004a22de0004827300caaade00bd
:10509000048fbe001e02be0024079800350798004a
:1050a0005e02900005002000048fbe0064c18000f5
:1050b000cfa2de001e03900004b3b90006037800ff
:1050c0009e03780005b8b900800378000703430009
:1050d0009e037800040278000722b800050343000d
:1050e00086027800048fbe00048fbe001e02be0040
:1050f000462bdd004a22de0004027300caaade004d
:10510000048fbe002e029000be0290003e034200bb
:10511000ae834a000602be002407980035079800b7
:1051200074c18000cfa2de00048fbe001e03be004b
:10513000423add00ce32de00850272004232dd00ee
:10514000048fbe002e029000be0290003e0342007b
:10515000ae834a000602be00240798003507980077
:10516000ae039000470798004e02900004007800bc
:105170000080fa00000006000000fa0074108000b1
:1051800062026200e00f5200010032000e22a9000c
:10519000e48a210014427800e24f520001003200fc
:1051a00007000700e48a210014427800e24f520011
:1051b00001003a00080107000080fa000000060024
:1051c0000400fa00881f78003e00370000862000a7
:1051d000f111070000427800044f78001e42780069
:1051e000ef4f420037003a0000862000ea11070026
:1051f00000427800044f78001e427800ee4f4200d3
:1052000030003a0000862000e311070000427800d9
:10521000044f78001e427800ed4f420029003a000a
:1052200000862000dc11070000427800044078006e
:10523000aaf8b70000862000d711070000427800c6
:1052400004407800acf8b70000862000d2110700b7
:105250000042780004407800adf8b70000862000d6
:10526000cd1107000042780004407800abf8b70089
:1052700000862000c8110700004278000482fb006d
:10528000140798001e0290004824dd0000862000cc
:10529000c1110700004278000482fb0004024400b0
:1052a000140798001e009000b00607000042780026
:1052b000e04f52000300320024c0b30004407800e5
:1052c000aef8b700e48a210014427800e04f5200a3
:1052d00005003a0000862000cd110700004278004a
:1052e000e84f5200b9ff3e004f0478000080fa00fa
:1052f000000006000000fa00f48a21001442780041
:10530000e04f52006e003200e1cfb300208a20004f
:105310007c11070011cfb300208a2000791107000b
:1053200074c48000e00f5200070032008440800007
:105330004822de000442780084407800208a200061
:105340007011070008003700844080004822de000a
:105350008442780004c8b30004c27200844078001c
:10536000208a2000671107008440800004427800f2
:1053700084407800208a2000621107009440800059
:105380004822de000442780084407800208a200011
:105390005c1107009440800004427800844078004b
:1053a000208a200057110700b44080004822de0008
:1053b0000442780084407800208a200051110700c0
:1053c000b44080000442780084407800208a2000a5
:1053d0004c110700d440800048a2de00044278004f
:1053e00084407800208a200046110700d4408000c5
:1053f0000442780084407800208a20004111070090
:10540000e440800048a2de00044278008440780036
:10541000208a20003b110700e4408000044278000d
:1054200084407800208a2000361107000441800063
:105430004822de000442780084407800208a200060
:105440003011070004418000044278008440780055
:10545000208a20002b110700444280004822de00f1
:105460000442780084407800208a2000251107003b
:10547000444280000442780084407800208a200062
:1054800020110700751080000420200004826200b3
:10549000e00f52000a003a00208a2000671107003e
:1054a00000427800e04f520005003200208a2000c0
:1054b00039110700004278000482fb008410880044
:1054c0000080fa00000006000600fa00204798005d
:1054d0003147980022079800f48a2100144278008e
:1054e000e04f52003a003a002e019000be4090007a
:1054f0002e4090000606070000027800040f780096
:1055000011cfb300208a2000fe10070021cfb30086
:10551000208a2000fb10070041cfb300208a200022
:10552000f8100700ae409000208a2000f510070018
:105530002e0290004822de00044278008440780069
:10554000208a2000ef1007002e029000044278000d
:1055500084407800208a2000ea100700be409000b6
:10556000208a2000e71007001e0278004822de0093
:105570000442780084407800208a2000e11007006f
:105580001e0278000442780084407800208a2000bf
:10559000dc100700751080000420200004826200e7
:1055a000e00f52000a003a00208a20002311070071
:1055b00000427800e04f520005003200208a2000af
:1055c000f5100700004278000482fb008410880078
:1055d0000080fa00000006000a00fa00c48a2100d8
:1055e000144278000482fb00140798001e02900009
:1055f0004822dd0014079800d48a21001442780064
:105600000482fb009e02900004824200140798006e
:105610001e009000000f7800a48a21001442780038
:105620000482fb0024079800a48a21001442780019
:105630000482fb006123b90004ff2f00f5ff2f0057
:105640000602420087824a00a60d200007002000c3
:10565000860f5200878f5a0024033e000460010029
:10566000da003700dd003700200337001f03370062
:105670001e0337001d0337001c0337001b033700d0
:105680001a033700190337001803370017033700d0
:1056900016033700150337001403370013033700d0
:1056a0001203370011033700100337000f033700d0
:1056b0000e0337000d0337000c0337000b033700d0
:1056c0000a0337000903370008033700c700370013
:1056d000d202370005033700ad023700030337005d
:1056e000e90037000103370000033700ff023700ed
:1056f000fe023700fd023700fc023700fb023700d4
:10570000fa023700f9023700f8023700f7023700d3
:10571000f6023700f5023700f4023700f3023700d3
:10572000e1023700f1023700f0023700ef023700e4
:10573000ee023700ed023700ec023700eb023700d3
:10574000ea023700e9023700e8023700e7023700d3
:10575000e6023700e5023700e4023700e3023700d3
:10576000d1003700dc003700fa003700180137009d
:105770001a0137001c013700dc023700db0237005a
:10578000da023700d9023700d8023700d7023700d3
:10579000d6023700d5023700d4023700d3023700d3
:1057a000d2023700d1023700d0023700cf023700d3
:1057b000ce023700cd023700cc023700cb023700d3
:1057c000ca023700c9023700c8023700c7023700d3
:1057d000c6023700c5023700c4023700c3023700d3
:1057e000c2023700c1023700c0023700bf023700d3
:1057f000be023700bd023700bc023700bb023700d3
:10580000ba023700b9023700b8023700b7023700d2
:10581000b6023700b5023700b4023700b3023700d2
:10582000b2023700b1023700b0023700af023700d2
:10583000ae023700ad023700ac023700ab023700d2
:10584000aa023700a9023700a8023700a7023700d2
:10585000a6023700a5023700a4023700a3023700d2
:10586000a2023700a1023700a00237009f023700d2
:105870009e0237009d0237009c0237009b023700d2
:105880009a023700990237009802370097023700d2
:1058900096023700950237009402370093023700d2
:1058a00092023700d3003700900237008f02370092
:1058b0008e0237008d0237008c0237008b023700d2
:1058c0008a023700890237008802370087023700d2
:1058d00086023700850237008402370083023700d2
:1058e0008202370081023700800237007f023700d2
:1058f0007e0237007d0237007c0237007b023700d2
:105900007a023700790237007802370077023700d1
:1059100076023700750237007402370073023700d1
:105920007202370071023700700237006f023700d1
:105930006e0237006d0237006c0237006b023700d1
:105940006a023700690237006802370067023700d1
:1059500066023700650237006402370063023700d1
:10596000ac003700b4003700bc003700d00037006f
:10597000d8003700e0003700f4003700fc003700a3
:1059800004013700180137002001370028013700d3
:105990003c013700440137004c01370060013700fb
:1059a0006801370070013700840137008c0137002f
:1059b00094013700a8013700b0013700b801370063
:1059c000cc013700d4013700dc0137000042eb0086
:1059d0000440780024e8b7004402370014c0b30044
:1059e0000440780024e8b7004002370044822000d9
:1059f00014427800e04f5200390232001e0290003b
:105a0000340798003e009000380507000002780037
:105a1000440798003e019000ce00900040a6200070
:105a2000d0f307003453800034b7880094548000ca
:105a300084b78800053b80000400280004826200cf
:105a4000e00f5200fbff3a0014b7800025b780003a
:105a5000020220000400be0072ea0700053b80003d
:105a60000400280004826200e00f5200fbff3a00ad
:105a700014b7800025b78000626e21000400be00cc
:105a800087ea070019023700b48a2100144278001f
:105a90000482fb0004007800210207000002780065
:105aa000040f780011023700b48a210014427800f4
:105ab000e14f520004003a0014c0b30004407800e3
