:020000040000fa
:080000000001040000000000f3
:020000040000fa
:100008005426000000260000182600002c260000b8
:100018004026000054260000542600005426000004
:1000280054260000542600005426000078240000be
:1000380054260000542600005426000054260000d0
:10004800542600002835000058350000ea24000036
:1000580054260000542600005426000054260000b0
:10006800f223000054260000542600005426000005
:100078005426000054260000542600005426000090
:100088005426000054260000542600005426000080
:100098005426000054260000542600005426000070
:1000a8005426000054260000542600005426000060
:1000b8005426000054260000542600005426000050
:1000c8005426000054260000ea25000054260000ab
:1000d8005426000054260000542600005426000030
:1000e8005426000054260000542600005426000020
:0800f80054260000542600000c
:020000040000fa
:100108005426000000260000182600002c260000b7
:100118004026000054260000542600005426000003
:1001280054260000542600005426000078240000bd
:1001380054260000542600005426000054260000cf
:10014800542600002835000058350000ea24000035
:1001580054260000542600005426000054260000af
:10016800f223000054260000542600005426000004
:10017800542600005426000054260000542600008f
:10018800542600005426000054260000542600007f
:10019800542600005426000054260000542600006f
:1001a800542600005426000054260000542600005f
:1001b800542600005426000054260000542600004f
:1001c8005426000054260000ea25000054260000aa
:1001d800542600005426000054260000542600002f
:1001e800542600005426000054260000542600001f
:0801f80054260000542600000b
:020000040000fa
:100200000f0022000e7f22000e0188000000000077
:1002100000012000200288000c000700a0b7240085
:10022000010020001f000700000020000000e00087
:1002300002003200000002000000000090470200af
:10024000000000000040da000000fe004440a90069
:10025000000820000000e000030032000000200041
:10026000a00188004440a80000000600f03fb10053
:100270000180b10006003500ee0309000000000017
:10028000403fb1000180b100fbff3d001000b00015
:10029000203fb0000200350000800900000000008f
:1002a0000000060091018800800078000000eb004b
:1002b00015003700e280400032a0b4009101ba007e
:1002c000e280400032a0b4009102ba00e280400017
:1002d00032a0b4000002eb00472bde00f507b200ad
:1002e000602ce10004003a000059eb008301e900b2
:1002f000fdff3e00040037006128e10001003200ec
:100300000082eb00040007001101ba000200e000c7
:10031000e8ff3a00000006003159ba008301e90005
:100320000c0032002159ba008301e90008003200b4
:100330000400e00003003a00e280400032a0b40074
:10034000f5ff370011d9ba008301e900faff3a003e
:100350008100e800e180400032a0b4000000060007
:100360003200f800910188008002780062004000ad
:10037000e08048003549ba003204e0000410a700cc
:10038000100032008301e9000e0032002549ba0056
:100390003204e0000410a7000a0032008301e900e3
:1003a000080032000408a300eeff320015c9ba00ad
:1003b0003204e0000410a700020032008301e900cb
:1003c000e8ff3a003200f900000006003200f800b1
:1003d000910188000008bb00410424006210e10084
:1003e00004003200000220000010e1000a003a0080
:1003f00051042400013b88000500fc005105200049
:10040000313b8800a10a2000313b880061e7a80049
:1004100000000000000000003200f90000000600ab
:100420003200f80060042400003b8800f2ff37002f
:100430003200f8009101880041002400013b88004f
:100440000208bb00ecff37003200f8009101880081
:1004500051002400013b8800030120003218bb003a
:100460008301e900fdff3a00e3ff37006022b80096
:10047000060220000000d0008180d2000482d20059
:100480008582d2000000a0000202520083825a003e
:10049000030031000202420083824a000000a100f2
:1004a0000603e900f3ff3a0000000600881f780009
:1004b0008a1f78004400f800080f200028028800f6
:1004c0000004900010059000a00090003001900002
:1004d000c00190000300ca000280ca000030cb00b7
:1004e0001a00cd004604c3000100ca004604c00043
:1004f0001e04c0000605c0000100cd0021009800c8
:10050000050d7800eaba9700052578004400f90047
:100510004f0578004f04780000000600801f780027
:100520004000b0000008eb004f007800801f78000a
:10053000100090000018eb000018eb000008eb0022
:100540004f007800000006004400f800020f200071
:1005500022028800910078003000ca003080ca0072
:100560000000cb002080ca000000cb003100cd008d
:100570004000ca000000cb000000cb000010cb0000
:100580003100cd001180cc004400f90000000600cd
:100590001011880001118800000006004011880039
:0805a000311188000000060083
:020000040000fa
:1005a80064000000630000006300000062000000b7
:1005b8006200000061000000600000005f000000b1
:1005c8005e0000005e0000005d0000005c000000ae
:1005d8005b0000005a0000005900000058000000ad
:1005e80057000000560000005400000053000000af
:1005f80052000000510000004f0000004e000000b3
:100608004d0000004b0000004a00000048000000b8
:1006180047000000450000004300000042000000c1
:10062800400000003e0000003d0000003b000000cc
:1006380039000000370000003500000033000000da
:10064800310000002f0000002d0000002b000000ea
:1006580029000000270000002500000023000000fa
:10066800200000001e0000001c000000190000000f
:100678001700000015000000120000001000000024
:100688000d0000000a00000008000000050000003e
:10069800030000000000000000000000000000004f
:020000040000fa
:1006a8000a00fa00c4822000144278000482fb0089
:1006b80045032000850f5200140132004503200035
:1006c800850f52000d003c00e60f52002e0032004c
:1006d800e60f520003003c00e40f52001b003200fa
:1006e800df023700f40f5200760032004502200086
:1006f800850f52008c003200d9023700050a20000d
:10070800850f5200d3023200050a2000850f5200df
:1007180007003c0055032000850f520036013200c7
:1007280045042000850f52007e013200cc023700bc
:10073800450a2000850f520093023200850a2000e6
:10074800850f5200a1023200c5023700ca02070015
:100758000c0707001c0807004e1d07000002780060
:10076800e00f52000400320004cab30004407800cd
:100778002ce8b700be02370044c1b300044078003b
:100788002ce8b700ba0237001517800004022000d1
:100798000482620004f0a7000402ea000402e900ef
:1007a8004f22de00044278000482fb0061026200ee
:1007b8004522dd0016178000f5fd2f008502630035
:1007c8000482720014178800ab0207001517800016
:1007d800040220000482620004f0a7000402ea0078
:1007e8000402e9004f22de00044278000482fb0084
:1007f800610262004522dd0016178000f5fd2f001a
:100808008502630004827200141788003e070700ff
:1008180015178000040220000482620004f0a7007b
:100828000402ea000402e9004f22de0004427800d4
:100838000482fb00610262004522dd001617800079
:10084800f5fd2f00850263000482720014178800ea
:10085800dd070700151780000402200004826200eb
:1008680004f0a7000402ea000402e9004f22de00b7
:10087800044278000482fb00610262004522dd0028
:1008880016178000f5fd2f008502630004827200b0
:1008980014178800ff1c070000027800e00f5200c0
:1008a8000400320004cab300044078002ce8b70002
:1008b8006f02370044c4b300044078002ce8b70046
:1008c8006b0237008c0d07001200370095090700ee
:1008d80067110700f41c070000027800e00f5200bf
:1008e8000400320044cab300044078002ce8b70082
:1008f80008003700151680000400240004826200f6
:10090800e00f520003003a0044c2b30004407800ec
:100918002ce8b700c482200014427800f44f52003b
:10092800eaff320052023700a50d07000002eb0073
:10093800040f78000002eb0014c488006d00370033
:10094800780907004a1107000000000000000000b5
:1009580000000000250480000404200004826200d6
:10096800e00f52002f0032001e0fe80084c0a900db
:10097800351780000400210004826200e00f520055
:100988000300320014c48000e10f520011003a0045
:10099800a20020009e00780060ab2000db07070063
:1009a800a20020009e007800c0a52000d7070700fd
:1009b800a20020009e00780000b12000d3070700a5
:1009c800a20020009e007800a0b62000cf070700f4
:1009d80014003700b4558000040178009e007800a8
:1009e80060ab2000c9070700e452800004017800ca
:1009f8009e007800c0a52000c40707008458800026
:100a0800040178009e00780000b12000bf070700ad
:100a1800545b8000040178009e007800a0b6200096
:100a2800ba070700a01c070000027800e00f520078
:100a38000400320044cab300044078002ce8b70030
:100a48002c00370015168000040024000482620080
:100a5800e00f52000400320044c1b30004407800a3
:100a68002ce8b70023003700847020009e0278002d
:100a7800848f5200070036000c1a070044c3b300e5
:100a8800044078002ce8b7000002eb0014c488008a
:100a98001800370035178000040021000482620026
:100aa800e00f52000a003a001e027800f40f5200cc
:100ab80007003600fd19070044c3b300044078005e
:100ac8002ce8b7000002eb0014c4880009003700c6
:100ad80014c48000e10f520006003a00f319070021
:100ae80044c3b300044078002ce8b7000002eb00d0
:100af80014c48800c58220009542780044c2b3001f
:100b080084cf52008eff3200d9013700220d070032
:100b18004206200041062000408f20007b07070086
:100b28004206200041062000809a2000770707002f
:100b3800420620004106200060ab20007307070032
:100b48004206200041062000c0a520006f070700cc
:100b58004206200041062000a0b620006b070700cf
:100b6800420620004106200000b120006707070068
:100b78001b003700eb080700bd1007004a1c0700e0
:100b880000027800e00f52000400320084cab3006b
:100b9800044078002ce8b7001100370015168000d3
:100ba8000400240004826200e00f520004003200b6
:100bb80044c1b300044078002ce8b70008003700af
:100bc800151680000400280004826200e00f52001d
:100bd80003003a0054c3b300044078002ce8b7007f
:100be800c58220009542780044c3b30084cf5200e8
:100bf800e0ff32009e0137007441800051c320009d
:100c080004007800140e07000002780024079800fa
:100c18000001eb00ae009000408f2000090707009c
:100c28008441800051c32000040078000a0e0700a8
:100c380000027800240798000001eb00ae00900045
:100c4800809a2000ff0607000002eb0014079800b6
:100c5800c522a9002d003700b2080700841007003c
:100c6800250480000404200004826200e00f520082
:100c78000400320084c0a9001e0290000402e800ab
:100c880014079800081c070000027800e00f5200c3
:100c98000400320084cab300044078002ce8b7008e
:100ca8001a00370015168000040024000482620030
:100cb800e00f52000400320044c1b3000440780041
:100cc8002ce8b70011003700151680000400280032
:100cd80004826200e00f52000400320044c3b300f3
:100ce800044078002ce8b700080037009e02900006
:100cf80014032000848f52000400360044c4b3005b
:100d0800044078002ce8b7007a0d0700c58220005f
:100d18009542780054c3b30084cf5200ceff32000e
:100d2800530137000002eb00a44188000002eb00e9
:100d3800c44188000002eb00b44188000002eb00c7
:100d480074c588006022b80024c5880035c58800ad
:100d58000042eb0004407800c6f6b7008c60a8009b
:100d680003013700c400200044c588006d0807004f
:100d78003f100700646c210014427800e04f5200d5
:100d8800df003200b400200044c58800d540800050
:100d980004f02f00848f520003003e00d4408000ee
:100da8000402e800d440880024c5800035c58000ce
:100db80061024200e0824a0024c5880035c58800e7
:100dc800248921003400be002401be001400200044
:100dd800050020006033b8000002420081824a000a
:100de80002034b0083834b00208921000498be0036
:100df8000690be00544180000402e8005441880077
:100e0800dc090700846c2100144278000440780053
:100e180042190700946c21001442780004407800bd
:100e2800c8f6b70060ec20004c22070000027800ea
:100e38008440880060fc20004822070000027800f7
:100e480064408800d4408000fd0f520008003e0036
:100e58000002eb00b44088000002eb00a4408800c8
:100e680014c0b3000440780018e8b70078003700d1
:100e7800944080000500200034079800450798003a
:100e880064408000050020004e03900004b3b900c0
:100e980006037800be03900005b8b9008003780007
:100ea80007034300be039000040278000722b8003d
:100eb8000503430086027800340798004507980028
:100ec800340798004507980074408000050020000a
:100ed8000401be003e009000ce00900061fd0700b6
:100ee8000002be003407980045079800848120005e
:100ef80014427800e04f5200200032008440800005
:100f08006123b8003e029000ce0290002403b00096
:100f18000580b000840f5300858f5b000400390002
:100f2800b440800069025200b44088002e003700a7
:100f3800844080006123b8003e009000ce009000fd
:100f4800e4fc2f00f5ff2f000002420081824a00d6
:100f5800840f5300858f5b0004003e00b44080007e
:100f680069024200b44088001f0037000042eb00cd
:100f78000440780018e8b7001b0037008440800060
:100f88006123b8003e029000ce0290002403b00016
:100f98000580b000840f5300858f5b000400390082
:100fa800b440800063025200b44088000e0037004d
:100fb800844080006123b8003e009000ce0090007d
:100fc800e4fc2f00f5ff2f000002420081824a0056
:100fd800840f5300858f5b0003003e00b4408000ff
:100fe80063024200b4408800b540800004642000d9
:100ff800848f52000300340004642000b440880049
:1010080006003700b5408000049c2f00848f5200f2
:1010180002003d00049c2f00b4408800a5408000d9
:1010280084252000848f520003003400842520008a
:10103800a440880006003700a540800084da2f000d
:10104800848f520002003d0084da2f00a4408800fb
:101058007441800051c3200004007800fe0c070092
:10106800000278002407980075408000743e200034
:10107800848f520004003600a4408000ae02900025
:1010880004824200240798000001eb00ae009000a3
:10109800408f2000eb0507008441800051c32000e9
:1010a80004007800ec0c0700000278002407980080
:1010b80095408000743e2000848f52000400360062
:1010c800b4408000ae0290000482420024079800d9
:1010d8000001eb00ae009000809a2000d9050700bf
:1010e800540707000002eb003408880084c0a900f8
:1010f8000042eb0004407800c6f6b700b60f0700c0
:10110800e91a070000027800e00f520005003200db
:10111800270b070084cab300044078002ce8b70006
:1011280013003700151680000400240004826200b2
:10113800e00f5200050032001d0b070044c1b30048
:10114800044078002ce8b700090037001516800025
:101158000400280004826200e00f520004003200fc
:10116800130b070044c3b300044078002ce8b70011
:10117800c58220009542780044c4b30084cf520051
:10118800f8fe32003a0037005b0b07000900370011
:1011980064070700360f0700c31a0700000278002b
:1011a800e00f520003003a0044c1b3000440780045
:1011b8002ce8b700c58220009542780044cab300e5
:1011c80084cf5200f2ff320029003700720b07006b
:1011d8001a00370053070700250f0700bd1a07003c
:1011e80000027800e00f52000400320044cab30045
:1011f800044078002ce8b70010003700151680006e
:101208000400240004826200e00f5200040032004f
:1012180044cab300044078002ce8b7000700370040
:10122800a11a070000027800e00f520003003a00fc
:1012380044c3b300044078002ce8b700c5822000fe
:101248009542780084cab30084cf5200e1ff32008f
:101258000700370033070700050f0700fdff3700b9
:1012680004cab300044078002ce8b700000000006e
:101278000080fa00000006000200fa0044c5800061
:10128800f44088000002eb0044c588000002eb002f
:10129800b4c28800043a800061026200e00f520084
:1012a80003003200b4c280000440a000b4c2880029
:1012b800053a80000408200004826200e00f520012
:1012c80004003200b5c280000402200004827200cb
:1012d800b4c28800053a8000040420000482620039
:1012e800e00f520004003200b5c280000404200060
:1012f80004827200b4c28800043a8000620262006c
:10130800e00f520003003200b4c280000400a000c5
:10131800b4c28800053a80000400280004826200f4
:10132800e00f520003003200b4c280000410a00095
:10133800b4c28800043a800070026200e00f5200d4
:1013480003003200b4c280000420a000b4c28800a8
:10135800053a80000400240004826200e00f520075
:1013680003003200b4c280000430a000b4c2880078
:101378000002eb0014c288000002eb0024c28800bf
:101388000002eb0034c288000002eb0044c288006f
:101398000002eb0054c288000002eb0064c288001f
:1013a8000002eb0074c288000002eb0084c28800cf
:1013b8000002eb0094c288000002eb00a4c288007f
:1013c80044c180007440880054c180009440880063
:1013d8006480200074428800a4ff210084428800b1
:1013e800e08420004bfc0700f428200064c4880037
:1013f800d4a3200074c48800d4a3200084c4880027
:10140800e1842000c08821004dfc070004802000f2
:101418002442880044ff2100344288004084200090
:101428003cfc0700f428200034c48800d4a3200022
:1014380044c48800d4a3200054c4880041842000f8
:10144800608821003efc07000060fe004406200082
:10145800e452880004d027001453880071322a000f
:101468000080eb00c10b07000002780034538800ad
:1014780004b780004453880014b780005453880090
:1014880061ae2a000080eb00b80b0700000278006c
:101498007453880024b780008453880034b78000d0
:1014a8009453880074538000840078000053270008
:1014b800e90b070000027800a4538800010022000d
:1014c80000802200a90b070000027800d45388008e
:1014d8000100220000002100a40b07000002780090
:1014e800e4538800843e2000f4538800240320003d
:1014f80004548800841a26007454880071322a0023
:101508000080eb00990b07000002780094548800d3
:1015180054b78000a454880064b78000b45488008d
:1015280061ae2a000080eb00900b070000027800f3
:10153800d454880074b78000e454880084b78000cd
:10154800f4548800d45480008400780000592600a0
:10155800c10b070000027800045588000100220032
:1015680030332200810b07000002780034558800d0
:1015780001002200c0cc21007c0b0700000278008b
:101588004455880004fa200054558800240320009c
:101598006455880044b7800084027800f4b680005f
:1015a8000501780084007800c0a52000a504070084
:1015b80084252000b455880004dc2500e455880003
:1015c80021eb26000080eb00680b07000002780082
:1015d8000456880024b880001456880034b8800067
:1015e80024568800c1b02a000080eb005f0b07007a
:1015f800000278004456880044b880005456880099
:1016080054b88000645688004456800084007800ee
:10161800801a2600900b0700000278007456880094
:101628000100220000802200500b07000002780011
:10163800a456880001002200008021004b0b0700ff
:1016480000027800b456880004fa2000c4568800c6
:10165800840c2000d456880004dc250044578800f8
:101668008080eb000080eb00400b07000002780050
:101678006457880074b880007457880084b8800064
:1016880084578800c10428000080eb00370b07004e
:1016980000027800a457880094b88000b4578800e6
:1016a800a4b88000c4578800a4578000840078003c
:1016b800802c2300680b070000027800d4578800ac
:1016c8000100220000002400280b07000002780017
:1016d800045888000100220000002100230b0700a5
:1016e800000278001458880004fa20002458880062
:1016f800840c20003458880064b880008402780084
:1017080014b88000050178008400780060ab2000e0
:101718004c0407008470200084588800c4a221006b
:10172800b45888008000eb000080eb000f0b070026
:1017380000027800d458880044b98000e458880032
:1017480054b98000f4588800215e29000080eb001d
:10175800060b0700000278001459880064b980005d
:101768002459880074b980003459880014598000bd
:101778008400780000c22100370b070000027800bf
:10178800445988000100220090192200f70a070036
:1017980000027800745988000100220060e62100e8
:1017a800f20a07000002780084598800843e20006d
:1017b80094598800441f2000a45988000002eb00b7
:1017c800145a88008000eb000080eb00e70a07004d
:1017d80000027800345a880094b98000445a88007e
:1017e800a4b98000545a88008000eb000080eb0008
:1017f800de0a070000027800745a8800b4b9800035
:10180800845a8800c4b98000945a8800745a8000a9
:10181800840078000000eb000f0b0700000278003e
:10182800a45a8800010022000000eb00cf0a07003c
:1018380000027800d45a8800010022000000eb0062
:10184800ca0a070000027800e45a88000002eb0088
:10185800f45a88000002eb00045b880084b9800019
:101868008402780034b9800005017800840078008b
:1018780000b12000f303070084702000545b880047
:1018880004772100845b88008000eb000080eb0077
:10189800b60a070000027800a45b880064ba8000da
:1018a800b45b880074ba8000c45b8800215e29009c
:1018b8000080eb00ad0a070000027800e45b8800b6
:1018c80084ba8000f45b880094ba8000045c8800c5
:1018d800e45b800084007800a0862100de0a07000f
:1018e80000027800145c8800010022009019220090
:1018f8009e0a070000027800445c8800010022006c
:1019080060e62100990a070000027800545c88000c
:10191800843e2000645c8800441f2000745c8800ba
:101928000002eb00e45c88008000eb000080eb0024
:101938008e0a070000027800045d8800b4ba8000af
:10194800145d8800c4ba8000245d88008000eb0024
:101958000080eb00850a070000027800445d8800db
:10196800d4ba8000545d8800e4ba8000645d8800c1
:10197800445d8000840078000000eb00b60a070090
:1019880000027800745d8800010022000000eb006e
:10199800760a070000027800a45d88000100220092
:1019a8000000eb00710a070000027800b45d8800af
:1019b8000002eb00c45d88000002eb00d45d8800e3
:1019c800a4ba80008402780054ba80000501780027
:1019d80084007800a0b620009a0307000002eb00fc
:1019e800a447880004e22400d447880051712500e8
:1019f8000080eb005d0a070000027800f4478800c9
:101a080084bb80000448880094bb80001448880088
:101a1800811a26000080eb00540a070000027800b3
:101a280034488800a4bb800044488800b4bb8000c8
:101a3800544888003448800084007800c0c22400dc
:101a4800850a070000027800644888000100220027
:101a58000000eb00450a070000027800944888005f
:101a6800010022000000eb00400a07000002780095
:101a7800a44888000002eb00b44888000002eb008c
:101a8800c44888000002eb00344988008000eb005d
:101a98000080eb00350a07000002780054498800ee
:101aa800d4bb800064498800e4bb80007449880086
:101ab8008000eb000080eb002c0a07000002780091
:101ac80094498800f4bb8000a449880004bc8000c5
:101ad800b449880094498000840078000000eb0035
:101ae8005d0a070000027800c4498800010022004e
:101af8000000eb001d0a070000027800f449880086
:101b0800010022000000eb00180a0700000278001c
:101b1800044a88000002eb00144a88000002eb0027
:101b2800244a8800c4bb80008402780074bb80000b
:101b38000501780084007800408f200041030700e9
:101b48000002eb00444d880004e22400744d880034
:101b5800517125000080eb00040a0700000278009c
:101b6800944d8800a4bc8000a44d8800b4bc8000bb
:101b7800b44d8800811a26000080eb00fb0907009d
:101b880000027800d44d8800c4bc8000e44d880071
:101b9800d4bc8000f44d8800d44d800084007800c7
:101ba800c0c224002c0a070000027800044e8800f6
:101bb800010022000000eb00ec0907000002780099
:101bc800344e8800010022000000eb00e7090700fe
:101bd80000027800444e88000002eb00544e880052
:101be8000002eb00644e88000002eb00d44e88002f
:101bf8008000eb000080eb00dc09070000027800a1
:101c0800f44e8800f4bc8000044f880004bd8000b6
:101c1800144f88008000eb000080eb00d309070018
:101c280000027800344f880014bd8000444f8800bb
:101c380024bd8000544f8800344f80008400780011
:101c48000000eb00040a070000027800644f8800d7
:101c5800010022000000eb00c40907000002780020
:101c6800944f8800010022000000eb00bf09070024
:101c780000027800a44f88000002eb00b44f8800ef
:101c88000002eb00c44f8800e4bc800084027800a6
:101c980094bc80000501780084007800809a2000b8
:101ca800e80207000002eb00744a8800846d2d00ea
:101cb800a44a88008000eb000080eb00ab09070015
:101cc80000027800c44a8800c4bd8000d44a880055
:101cd800d4bd8000e44a8800118a2d000080eb0002
:101ce800a209070000027800044b8800e4bd8000c8
:101cf800144b8800f4bd8000244b8800044b8000fe
:101d08008400780000b22c00d30907000002780094
:101d1800344b88000100220000802200930907004c
:101d280000027800644b880001002200909921008d
:101d38008e09070000027800744b8800843e20005a
:101d4800844b880044012000944b8800c4ce2200b4
:101d5800044c88008000eb000080eb00830907003a
:101d680000027800244c880014be8000344c88009f
:101d780024be8000444c8800b11124000080eb0090
:101d88007a09070000027800644c880034be80009d
:101d9800744c880044be8000844c8800644c8000e9
:101da80084007800400d2300ab090700000278008a
:101db800944c880001002200901922006b0907004a
:101dc80000027800c44c88000100220060e621006f
:101dd8006609070000027800d44c8800843e200081
:101de800e44c880044012000f44c88000002eb0019
:101df800244d88000082eb00344d88000002eb007f
:101e0800c44b88000082eb00d44b880004be8000dd
:101e180084027800b4bd8000050178008400780051
:101e2800e0942000870207000002eb0014508800ad
:101e3800846d2d00445088008000eb000080eb008a
:101e48004a0907000002780064508800e4be800058
:101e580074508800f4be800084508800118a2d00d8
:101e68000080eb004109070000027800a4508800b8
:101e780004bf8000b450880014bf8000c45088009c
:101e8800a45080008400780000b22c00720907007a
:101e980000027800d450880001002200008022004f
:101ea800320907000002780004518800010022006e
:101eb800909921002d09070000027800145188002c
:101ec800843e2000245188004401200034518800b9
:101ed800c4ce2200a45188008000eb000080eb00f3
:101ee8002209070000027800c451880034bf80002e
:101ef800d451880044bf8000e4518800b111240007
:101f08000080eb00190907000002780004528800dd
:101f180054bf80001452880064bf80002452880097
:101f28000452800084007800400d23004a0907000d
:101f38000002780034528800010022009019220023
:101f48000a09070000027800645288000100220094
:101f580060e6210005090700000278007452880035
:101f6800843e200084528800440120009452880056
:101f78000002eb00c45288000082eb00d4528800b3
:101f88000002eb00645188000082eb007451880065
:101f980024bf800084027800d4be80000501780048
:101fa8008400780020a02000260207001517800072
:101fb800040220000482620004f0a7000402ea0080
:101fc8000402e9004f22de00044278000482fb008c
:101fd800610262004522dd0016178000f5fd2f0022
:101fe800850263000482720014178800d762a90072
:101ff800d602a800d742a900d702a900c4e2a800c7
:10200800e2a2a900c522a800c4c2a900d042a80023
:10201800d662a800e822a800e202a900ca42a900e4
:10202800e802a800cbc2a900d6c2a800d6a2a80080
:10203800e222a900d362a900d202a900d242a800d4
:10204800cdc2a800cda2a800d222a800d322a90000
:10205800d342a900d302a900c182a800c1a2a80046
:10206800c0e2a900dea2a900c122a900c1c2a8003d
:10207800c1e2a800e5a2a800e582a800e5c2a80080
:10208800d282a800d2e2a800d382a800d3a2a800d6
:10209800cc62a800cc82a800e502a800e522a8002e
:1020a800c142a800c0c2a900cc42a900d262a900be
:1020b800e422a900de02a900c642a900e402a900a0
:1020c800cde2a900c7c2a900d2c2a900d2a2a90024
:1020d800de22a9008e00a9008600a900e404800081
:1020e8000400a1000410a0000420a000e40488005b
:1020f8008220a9008c60a9008460a900a404800043
:1021080004c0a00004d0a10004e0a000a40488003a
:102118008d60a9008560a900c404800004c0a100e6
:1021280004d0a10004e0a000c40488008d20a90008
:10213800c40480000440a0000450a0000460a10072
:10214800c40488008d40a900c40480000440a00095
:102158000450a0000460a100c40488008940a900bc
:102168009140a900440580000480a0000490a000cc
:1021780004a0a00044058800043a80000480a1005f
:102188000490a10004a0a00004b0a000043a8800b4
:10219800f4002f0034108800140620002410880052
:1021a800f1fb2d00b0532b00f7f80700f1fb2d00d1
:1021b800a0f32b00f7f8070004102000841c880007
:1021c80004102000842288000042eb0004407800bc
:1021d80098e8b7000042eb000440780099e8b7009f
:1021e8000042eb0004407800dae8b7000042eb0058
:1021f80004407800dbe8b70004f02f006410880082
:1022080044002000a4108800f4752700741088008a
:10221800d4fa25002408880054fa25008408880088
:1022280094d02300640888000002eb00340888007a
:1022380084c0a90054f82500f4088800d4f92500c2
:10224800040988000002eb00c408880086c0a900c1
:10225800440d2300e4088800f40d2000e4468800bb
:10226800f40b2000f4468800e40d200004478800a1
:1022780004022000144788000002eb00244788006d
:1022880014c0b30004407800e6e8b700c08d200011
:102298004517070004c4b30004407800eee8b7000f
:1022a8000042eb0004407800efe8b7000402200089
:1022b8004447880004022000544788000402200094
:1022c8006447880000c2eb0004407800f0e8b700db
:1022d80000c2eb0004407800f1e8b700fb130700e8
:1022e80024892100040f780024c08000840278002b
:1022f8001e027800050a78001e8fe80014c08000ce
:10230800840278001e027800050a78001e8fe80013
:1023180004c08000840278001e027800050a780054
:102328001e8fe800f4bf8000840278001e02780047
:10233800050a7800048a2100040f780044c0800050
:10234800840278001e027800050a78001e8fe800d3
:1023580034c08000840278001e027800050a7800e4
:102368000002eb0074c588006022b80024c588000c
:1023780035c5880054c08000944188000080fa0068
:10238800000006000200fa000002eb00040f7800cb
:10239800c08d20003b1707000041eb00a1c0b3002f
:1023a800808e2000031c0700000278001e0f7200b8
:1023b8000041eb00a1c0b300808e2000fd1b070088
:1023c800000278001e0f72000041eb00a1c0b300ac
:1023d800808e2000f71b0700000278001e0f720095
:1023e800048f2000144278000441780041c1b300f2
:1023f800808e2000ef1b0700000278001e0f72007d
:10240800148f2000144278000441780051c1b300b1
:10241800808e2000e71b0700000278001e0f720064
:1024280082cfb3008040eb00808e2000e11b0700c4
:10243800000278001e0f72000041eb0011c0b300cb
:10244800808e2000db1b0700000278001e0f720040
:102458000041eb0021c0b300808e2000d51b07008f
:10246800000278001e0f72000041eb0031c0b3007b
:10247800808e2000cf1b0700000278001e0f72001c
:1024880004f02f009e02620004a02f00848f5200e7
:1024980007003a00b5c280000408200004827200d8
:1024a800b4c2880034c280000402e80034c2880044
:1024b8008040eb00808e2000f01b070000027800af
:1024c800040f7800f40f20009e026200840f2000a1
:1024d800848f520007003200b5c280000408200033
:1024e80004827200b4c2880034c280000402e8008a
:1024f80034c28800d2060700d9060700dc060700a8
:102508000080fa00000006000600fa0064c580009a
:102518000402e80064c58800944180000402e800d1
:10252800944188009441800054c08800c522a900c5
:1025380040842000f7f70700e0842000f5f7070043
:102548004206200041062000408f2000ef000700cf
:102558004206200041062000809a2000eb00070078
:10256800420620004106200060ab2000e70007007b
:102578004206200041062000c0a52000e300070015
:102588004206200041062000a0b62000df00070018
:10259800420620004106200000b12000db000700b1
:1025a800ab060700a2060700520707008c60a900c7
:1025b80015178000040220000482620004f0a700be
:1025c8000402ea000402e9004f22de000442780017
:1025d8000482fb00610262004522dd0016178000bc
:1025e800f5fd2f008502630004827200141788002d
:1025f80045050700151780000402200004826200c8
:1026080004f0a7000402ea000402e9004f22de00f9
:10261800044278000482fb00610262004522dd006a
:1026280016178000f5fd2f008502630004827200f2
:102638001417880035178000040024000482620003
:10264800e00f520014003a007441800051c320008a
:10265800040078008007070000027800040f780063
:102668000001eb009e007800408f200075000700f5
:102678008441800051c320000400780076070700d9
:1026880000027800040f78000001eb009e0078003b
:10269800809a20006b000700c48120001442780053
:1026a800e04f52000d003a00b44780000400780063
:1026b8008509070000027800140798001e009000a2
:1026c8002311070000027800240798001e019000db
:1026d800ae009000c0a520005a0007001517800022
:1026e800040220000482620004f0a7000402ea0049
:1026f8000402e9004f22de00044278000482fb0055
:10270800610262004522dd0016178000f5fd2f00ea
:10271800850263000482720014178800c50107004f
:1027280015178000040220000482620004f0a7004c
:102738000402ea000402e9004f22de0004427800a5
:102748000482fb00610262004522dd00161780004a
:10275800f5fd2f00850263000482720014178800bb
:10276800210407001517800004022000048262007b
:1027780004f0a7000402ea000402e9004f22de0088
:10278800044278000482fb00610262004522dd00f9
:1027980016178000f5fd2f00850263000482720081
:1027a8001417880044c4b300044078002ce8b7002c
:1027b800a811070064c0b300044078002ce8b700f3
:1027c8000080fa00000006000000fa0011e1a800ed
:1027d80021e1a800f4cf27000415880084fe20001a
:1027e8001415880064342e002415880034fe2e0049
:1027f8003415880074002c004415880084ff2300d9
:1028080054158800a1e2a8008560a9008d60a80081
:102818008540a9008d40a8008520a9008d20a8002a
:102828000de2a800e802a8000042eb00044078008e
:102838009ef8b7009d1207000060fe000080fa00b5
:10284800000006000600fa00000f78001107980043
:10285800220798001e027800b40290001e02900021
:10286800848f5200080031001e027800b4029000e4
:102878001e0278001502980084c280000402e80055
:1028880084c28800030037001e0278009e02900070
:10289800150298001e027800941a90002e029000eb
:1028a800848f5200080031001e027800941a9000ac
:1028b8001e0278007512980084c280000402e800a5
:1028c80084c28800030037001e027800ae02900020
:1028d80075129800c58220009542780044c2b30062
:1028e80084cf520004003200420620004106200036
:1028f8001e007800050007001e007800540007003d
:102908000060fe000080fa00000006000a00fa00dd
:10291800200798003107980042079800be029000ef
:102928004e029000848f5200090039002e02900058
:10293800940290002e029000250298002e0290002a
:10294800f41290002e029000051a98003c003700ff
:102958002e0290001402900005002000048fbe0093
:102968003e029000050020001e03900004b3b90049
:10297800060378009e03780005b8b9008003780044
:10298800070343009e037800040278000722b8007a
:102998000503430086027800048fbe00048fbe0042
:1029a8004e029000050020000401be001e00be007b
:1029b800acf607000002be00048fbe009e0278003d
:1029c8002e029000250298002e02900074129000aa
:1029d80005002000048fbe003e0290000500200084
:1029e8001e03900004b3b900060378009e03780024
:1029f80005b8b90080037800070343009e037800f8
:102a0800040278000722b800050343008602780014
:102a1800048fbe00048fbe004e0290000500200007
:102a28000401be001e00be008ef607000002be00b4
:102a3800048fbe009e0278002e029000051a9800ae
:102a48002e009000020007000080fa000000060037
:102a58000600fa00200798002e029000d402900089
:102a68002e0290002402900085007800040078006f
:102a78007906070000027800040f78002e02900003
:102a880064029000840078001e0078007206070037
:102a980000027800040f78002e0290007402900063
:102aa800e00f52000c0034002e02900074029000d7
:102ab8000482ea009e0f5200030031000082eb00fe
:102ac800040f78000f0037002e0290007402900067
:102ad8001e0f42000b0037002e0290007402900077
:102ae8000402ea009e0f5200030036000002eb00c9
:102af800040f7800030037002e0290007402900043
:102b08001e0f42002e0290009e0278004502980097
:102b18002e029000b41a90002e029000041a900021
:102b280085007800040078004b0607000002780052
:102b3800140798002e029000441a90008400780030
:102b48001e00900044060700000278001407980051
:102b58002e029000541a9000e00f52000f0034002b
:102b68002e029000541a90008482ea001e029000ff
:102b7800848f5200030031000082eb001407980094
:102b8800150037002e029000541a90009e02900003
:102b980004824200140798000f0037002e029000ac
:102ba800541a90000402ea00840278001e02900081
:102bb800848f5200030036000002eb0014079800cf
:102bc800050037002e029000541a90009e029000d3
:102bd80004824200140798002e0290009e02900082
:102be800251a98002e029000940a90002e02900058
:102bf800240290008500780004007800160607007b
:102c080000027800040f78002e029000240a900039
:102c1800840078001e0078000f0607000002780084
:102c2800040f78002e029000340a9000e00f520042
:102c38000c0034002e029000340a90000482ea004e
:102c48009e0f5200030031000082eb00040f780051
:102c58000f0037002e029000340a90001e0f420029
:102c68000b0037002e029000340a90000402ea009c
:102c78009e0f5200030036000002eb00040f78009c
:102c8800030037002e029000340a90001e0f420005
:102c98002e029000740a9000840078001e007800cc
:102ca800ed05070000027800ae029000d40a9800f3
:102cb8002e02900004129000840078001e00780014
:102cc800e505070000027800ae029000e40a9800cb
:102cd8002e029000d40a90002e0290001412900048
:102ce800848f5200040031002e029000941290004c
:102cf8002e029000550a98002e029000f41a9000b7
:102d08002e029000041a90008500780004007800d4
:102d1800d105070000027800140798002e029000e1
:102d280004229000840078001e009000ca05070065
:102d380000027800140798002e02900014229000d8
:102d4800e00f52000f0034002e0290001422900071
:102d58008482ea001e029000848f52000300310032
:102d68000082eb0014079800150037002e0290002f
:102d7800541a90009e0290000482420014079800a2
:102d88000f0037002e029000142290000402ea007f
:102d9800840278001e029000848f520003003600df
:102da8000002eb0014079800050037002e0290007f
:102db800142290009e02900004824200140798009a
:102dc8002e02900054229000840078001e0090008b
:102dd800a105070000027800ae029000b422980016
:102de8002e02900064229000840078001e0090005b
:102df8009905070000027800ae029000c4229800ee
:102e08002e029000b42290002e02900074229000ae
:102e1800848f5200040031002e029000f4229000aa
:102e28002e029000352298000060fe000080fa0013
:102e3800000006001200fa00a400200044c5880023
:102e4800945b800014079800c458800024079800f9
:102e58002453800034079800845480004407980065
:102e6800f455800054079800545780006407980070
:102e7800e447800074079800844d8000040f980090
:102e880014c0b300044f78000042eb0014479800c8
:102e9800100037000e82e80084007800c08d200002
:102ea8000415070000427800044f78001e42900085
:102eb8000442e800144798001e427800e04f520090
:102ec8000300320074c280000402e80074c2880063
:102ed8000060fe009e4278000582fb000402ea00c2
:102ee8004f22de008442780014c0b3001e439000d5
:102ef800f34f5300010036000042eb0004c26200a9
:102f0800e04f5200e3ff3a001e429000f34f520098
:102f180002003600000220003d1307000080fa007e
:102f2800000006000400fa009400200044c5880050
:102f3800043a800061026200e00f52000300320090
:102f4800b4c280000440a000b4c28800053a8000e2
:102f58000408200004826200e00f520004003200de
:102f6800b5c280000402200004827200b4c2880046
:102f7800053a80000404200004826200e00f520039
:102f880004003200b5c280000404200004827200ec
:102f9800b4c28800043a800062026200e00f520066
:102fa80003003200b4c280000400a000b4c288004c
:102fb800053a80000400280004826200e00f5200f5
:102fc80003003200b4c280000410a000b4c288001c
:102fd800043a800070026200e00f520003003200e1
:102fe800b4c280000420a000b4c28800053a800062
:102ff8000400240004826200e00f52000300320043
:10300800b4c280000430a000b4c288000060fe0092
:10301800350480000404200004826200e00f52009e
:103028008c00320086c0a900f44180000402e80048
:103038006f026200f4418800f4418000e00f520002
:1030480014003a001417800061026200e00f520079
:1030580002003200e202a90001003700e202a800e3
:1030680055418000d407200004aab9000402780062
:103078008402d10044418000850078000400780073
:103088009b05070000027800444188000002eb001d
:103098005441880035178000040022000482620031
:1030a800e00f52000600320004418000e00f520099
:1030b80003003200851007007c100700731007001a
:1030c800351780000400220004826200e00f5200dd
:1030d80003003a0014002000044188000200370071
:1030e8000002eb00044188006a010700c481200047
:1030f80014427800e04f52000d003a00b4478000b7
:1031080004007800f006070000027800040f780039
:103118001e0078008e0e0700000278001407980041
:103128001e0178009e009000c0a52000c5fd070084
:10313800c482200014427800f44f52000500320087
:10314800c58220009542780044cab30084cf52005b
:1031580018003a00420620008000eb00408f200053
:10316800eafd0700420620008000eb00408f2000a7
:10317800e6fd0700420620008000eb0060ab20005f
:10318800e2fd0700420620008000eb00c0a52000f9
:10319800defd0700420620008000eb00a0b62000fc
:1031a800dafd0700420620008000eb0000b1200095
:1031b800d6fd0700270f0700bb12070000027800a2
:1031c800e00f520003003200c4e2a900d042a90077
:1031d80002003700c4e2a800d042a80024822000e0
:1031e800144278000442e8000440780022e8b7005e
:1031f80024822000144278006f4262000440780064
:1032080022e8b7002482200014427800e04f5200e0
:1032180001003a001100070073000700c582200072
:103228009542780044c4b30084cf520005003a00a8
:10323800250480000404200004826200e00f52008c
:1032480004003200fbfe07008e0307000002eb00bb
:10325800d44088000080fa00000006000200fa004e
:103268008400200044c58800e55b8000745b800012
:1032780085007800040078007704070000027800d1
:10328800040f7800f45b8000840078001e0078004a
:103298007104070000027800040f7800045c8000c5
:1032a8001e0f42001e0278000402d100644288000a
:1032b800d45b80000402d10054428800408420007e
:1032c80078f4070015598000a4588000850078001c
:1032d800040078006004070000027800040f7800fa
:1032e80024598000840078001e0078005a040700e2
:1032f80000027800040f7800345980001e0f420045
:103308001e0278000402d100b442880004598000eb
:103318000402d100a4428800e084200061f4070080
:1033280044428000040f78001e027800e00f52002b
:1033380002003d000002eb00040f78001e02780036
:1033480004024200040f780004d027009e0278008f
:10335800848f52000200360004d02700040f780042
:103368000002eb00b45b88000002eb00a45b88005d
:103378001e027800c45b880094428000040f780025
:103388001e027800e00f520002003d000002eb0030
:10339800040f78001e02780004024200040f78002f
:1033a80004d027009e027800848f52000200360065
:1033b80004d02700040f78000002eb00e4588800ce
:1033c8000002eb00d45888001e027800f4588800e8
:1033d80000b120009efd0700a0b620009cfd07005c
:1033e8000080fa00000006000800fa00244180006e
:1033f80005002000048fbe00444180000500200025
:103408001e03900004b3b900060378009e037800f9
:1034180005b8b90080037800070343009e037800cd
:10342800040278000722b8000503430086027800ea
:10343800048fbe00048fbe001e02be004a2bdd00b2
:103448004622de0004027300c62ade00048fbe0096
:103458001e0290006d22b900040378001e02780055
:103468006022b90004027800040343009e02780039
:10347800d4002000042ab80005034300860278001f
:10348800048fbe00048fbe001e02be00452bdd0067
:103498004b22de0004027300cb2ade00048fbe003c
:1034a800e4ff2f00050020001e03be00840f530018
:1034b800858f5b00030036000082eb0034418800f2
:1034c800020037001e027800344188001e02be0048
:1034d800492bdd004722de0004027300c72ade0004
:1034e800048fbe009e027800f40720000482620068
:1034f80024079800c58220009542780044c4b30090
:1035080084cf52000f003200c58220009542780017
:1035180044c3b30084cf52000a003200c5822000a1
:103528009542780054c3b30084cf5200050032009e
:10353800c58220009542780084cab30084cf520027
:103548000a003a002e02900084024200442d28000e
:103558000482420094027800350798004206200051
:10356800be00900060ab2000e8fc07000080fa0075
:10357800000006000400fa007400200044c588001a
:103588001417800062026200e00f52003700320018
:10359800d6c2a900800c20000100200031f30700ea
:1035a80021c0b3000000eb00f61607000002be00c1
:1035b800048fbe0004002000151121001e03be0068
:1035c800840f5300858f5b0006003a000002eb0071
:1035d8000442880054c280000402e80054c28800f3
:1035e800020037001e02780004428800d6c2a800f4
:1035f800800c2000010020001af30700d6a2a900c1
:10360800800c20000100200016f3070021c0b30041
:103618000000eb00db1607000002be00048fbe00ae
:1036280004002000151121001e03be00840f530062
:10363800858f5b0006003a000002eb001442880008
:1036480054c280000402e80054c288000200370017
:103658001e02780014428800d6a2a800800c200020
:1036680001002000fff20700070037000002eb000e
:10367800144288000002eb000442880064c2800003
:103688000402e80064c28800e222a9000080fa006f
:10369800000006000200fa006400200044c588000b
:1036a80060cc20002d18070000027800040f780075
:1036b800744180009e007800040078000c04070024
:1036c800000278007441880060dc2000231807009d
:1036d80000027800040f7800844180009e00780082
:1036e8000400780002040700000278008441880082
:1036f800600c21001918070000027800040f7800f8
:10370800c45480009e00780004007800f803070085
:1037180000027800c4548800601c21000f180700bc
:1037280000027800040f7800645380009e0078003f
:1037380004007800ee030700000278006453880054
:10374800603c21000518070000027800040f78008b
:10375800345680009e00780004007800e4030700d7
:103768000002780034568800602c2100fb170700ff
:1037780000027800040f7800945780009e007800bb
:1037880004007800da0307000002780094578800e4
:10379800604c2100f117070000027800040f780040
:1037a800244880009e00780004007800d0030700b9
:1037b8000002780024488800605c2100e7170700b1
:1037c80000027800040f7800c44d80009e00780045
:1037d80004007800c603070000027800c44d880082
:1037e8000080fa00000006000600fa00f4cf270067
:1037f80004158800e4fd20001415880064342e00a8
:103808002415880034fe2e003415880074002c001e
:103818004415880004fc230054158800a1e2a80080
:103828000002eb00040f7800800037000000000061
:10383800151580000408200004826200e00f520081
:10384800fbff32000002eb00140798003400370039
:10385800051480001e0278000403420064ec200076
:1038680004024300050a7800151480001e0278003f
:103878000403420064fc200004024300050a7800a7
:10388800251480001e02780004034200640c210005
:1038980004024300050a7800351480001e027800ef
:1038a80004034200641c210004024300050a780056
:1038b800451480001e02780004034200642c210095
:1038c80004024300050a7800551480001e0278009f
:1038d80004034200643c210004024300050a780006
:1038e800651480001e02780004034200644c210025
:1038f80004024300050a7800751480001e0278004f
:1039080004034200645c210004024300050a7800b5
:103918001e0fe8001e0290000402e8001407980039
:103928001e029000e70f5200c9ff36000000000099
:10393800151580000408200004826200e00f520080
:10394800fbff3a000002eb00140798003400370030
:10395800851480001e0278000403420064ec2000f5
:1039680004024300050a7800951480001e027800be
:103978000403420064fc200004024300050a7800a6
:10398800a51480001e02780004034200640c210084
:1039980004024300050a7800b51480001e0278006e
:1039a80004034200641c210004024300050a780055
:1039b800c51480001e02780004034200642c210014
:1039c80004024300050a7800d51480001e0278001e
:1039d80004034200643c210004024300050a780005
:1039e800e51480001e02780004034200644c2100a4
:1039f80004024300050a7800f51480001e027800ce
:103a080004034200645c210004024300050a7800b4
:103a18001e0fe8001e0290000402e8001407980038
:103a28001e029000e70f5200c9ff3600f40720007d
:103a38009e027800848f52007cff3600a1e2a90024
:103a480060ec200045170700000278002407980062
:103a58002e0290000459880060fc20003f170700e0
:103a680000027800240798002e029000d45b88009a
:103a7800600c21003917070000027800240798001d
:103a88002e029000c4548800601c210033170700e0
:103a980000027800240798002e02900064538800e2
:103aa800603c21002d1707000002780024079800c9
:103ab8002e02900034568800602c2100271707003a
:103ac80000027800240798002e029000945788007e
:103ad800604c210021170700000278002407980095
:103ae8002e02900024488800605c21001b17070004
:103af80000027800240798002e029000c44d880028
:103b08000080fa00000006000600fa00f4cf270043
:103b180004158800e4fd20001415880064342e0084
:103b28002415880034fe2e003415880074002c00fb
:103b3800441588000403200054158800a1e2a80059
:103b48000002eb00040f7800860037000000000038
:103b5800151580000408200004826200e00f52005e
:103b6800fbff32000002eb00140798003700370013
:103b7800051480001e0278000403420064cc200073
:103b880004024300050a7800151480001e0278001c
:103b98000403420064dc200004024300050a7800a4
:103ba8001e0fe800251480001e027800040342005e
:103bb80064cc200004024300050a78003514800014
:103bc8001e0278000403420064dc20000402430063
:103bd800050a78001e0fe800451480001e027800d0
:103be8000403420064cc200004024300050a780064
:103bf800551480001e0278000403420064dc200093
:103c080004024300050a78001e0fe80065148000ce
:103c18001e0278000403420064cc20000402430022
:103c2800050a7800751480001e027800040342001b
:103c380064dc200004024300050a78001e0fe80037
:103c48001e0290000402e800140798001e0290006b
:103c5800e30f5200c6ff3600000000001515800073
:103c68000408200004826200e00f5200fbff3a00c3
:103c78000002eb0014079800370037008514800015
:103c88001e0278000403420064cc200004024300b2
:103c9800050a7800951480001e027800040342008b
:103ca80064dc200004024300050a78001e0fe800c7
:103cb800a51480001e0278000403420064cc200092
:103cc80004024300050a7800b51480001e0278003b
:103cd8000403420064dc200004024300050a780063
:103ce8001e0fe800c51480001e027800040342007d
:103cf80064cc200004024300050a7800d514800033
:103d08001e0278000403420064dc20000402430021
:103d1800050a78001e0fe800e51480001e027800ee
:103d28000403420064cc200004024300050a780022
:103d3800f51480001e0278000403420064dc2000b1
:103d480004024300050a78001e0fe8001e029000d6
:103d58000402e800140798001e029000e30f5200c6
:103d6800c6ff3600f40720009e027800848f5200b8
:103d780076ff3600a1e2a90060cc20007716070084
:103d880000027800240798002e02900074418800f1
:103d980060dc2000711607000002780024079800f4
:103da8002e029000844188000080fa00000006007e
:103db8000400fa0094028000040f7800ff3ffc0022
:103dc800140280000450a0000460a0000470a00049
:103dd800140288001e0278009402880000008800ff
:103de80000000000000000000000000000000000cb
:103df8008c60a9008e00a900940280001407980026
:103e0800ff3ffc00140280000450a1000460a100e0
:103e18000470a100140288001e0290009402880019
:103e28000000880003000700c522a8000080fa00ef
:103e3800000006000200fa0024892100040f78001f
:103e48001e0278001402780024c088001e8fe80043
:103e58001e0278001402780014c088001e8fe80043
:103e68001e0278001402780004c088001e8fe80043
:103e78001e02780014027800f4bf8800048a21002a
:103e8800040f78001e0278001402780044c08800ed
:103e98001e8fe8001e0278001402780034c08800e3
:103ea800053b80000400280004826200e00f5200f5
:103eb800fbff3a00d4bf8000e5bf8000020220006b
:103ec8000400be003ff10700053b80000400280005
:103ed80004826200e00f5200fbff3a00d4bf80006a
:103ee800e5bf8000e27f21000400be0054f1070016
:103ef8000080fa00000006000000fa005c000700dd
:103f08004f00070056000700420620008000eb0023
:103f1800408f20007dfa0700420620008000eb0059
:103f2800408f200079fa0700420620008000eb004d
:103f380060ab200075fa0700420620008000eb0005
:103f4800c0a5200071fa0700420620008000eb009f
:103f5800a0b620006dfa0700420620008000eb00a2
:103f680000b1200069fa07004084200069f10700c9
:103f7800e084200067f1070005e1a9008e00a90090
:103f88008c60a9008600a9008460a900c4c2a900a9
:103f98000080fa00000006000000fa003400070064
:103fa80005e1a9008e00a9008c60a9008600a9007f
:103fb8008460a900c4c2a9000080fa0000000600bd
:103fc8000000fa004084200052f10700e08420003d
:103fd80050f10700420620008000eb00c0a5200039
:103fe8004afa0700420620008000eb0060ab200080
:103ff80046fa0700420620008000eb0000b12000ce
:1040080042fa0700420620008000eb00a0b620001c
:104018003efa07000e000700050007000002eb004b
:104028003408880084c0a9000080fa000000060057
:104038000000fa00d702a8000080fa00000006007d
:104048000000fa00d702a9000080fa00000006006c
:104058000000fa00d722a9000080fa00000006003c
:104068000000fa00d722a8000080fa00000006002d
:104078000000fa00d762a900d602a8000080fa0062
:10408800000006000400fa000002eb00040f7800ac
:104098000002eb00140798005400200044c5880073
:1040a800c58220009542780044c3b30084cf5200f3
:1040b8000f003200c58220009542780044c4b30046
:1040c80084cf52000a003200c58220009542780051
:1040d80084cab30084cf520005003200c582200094
:1040e8009542780054c3b30084cf520005003a00cb
:1040f8009e029000f4f72f000482620014079800d3
:10410800040037009e029000040820000482720018
:104118001407980064c38000e00f520004003200c6
:104128001e0290000400a000140798000400370045
:104138009e029000e4ff2f0004826200140798009a
:1041480034c38000e00f5200020032001e20a0009d
:1041580002003700b4ff2f001e0f6200d5c2800096
:1041680004f02f0004826200e00f520004003200c5
:104178001e0290000440a0001407980004003700b5
:104188009e029000f4fe2f0004826200140798003b
:10419800d5c28000f40f200004826200e00f5200b4
:1041a800040032001e0290000410a00014079800ba
:1041b800040037009e029000d4ff2f0004826200a2
:1041c8001407980005c3800004f02f0004826200e1
:1041d800e00f5200020032001e00a000020037006b
:1041e800e4ff2f001e0f620005c38000f40f2000bb
:1041f80004826200e00f5200020032001e10a0008c
:1042080002003700d4ff2f001e0f6200c582200075
:104218009542780044c4b30084cf520004003a00a9
:104228001e0290000420a000140798000400370024
:104238009e029000b4ff2f000482620014079800c9
:10424800048f2000144278000482fb009e0f520065
:10425800100032001e027800044278000440780002
:10426800f0e8b700048f2000144278000441780079
:1042780041c1b300808e20004e1407000002780070
:10428800e00f52000300320034c280000402e8004c
:1042980034c28800148f2000144278008482fb0006
:1042a8001e029000848f5200100032001e029000ff
:1042b8000442780004407800f1e8b700148f200029
:1042c800144278000441780051c1b300808e200068
:1042d8003814070000027800e00f52000300320093
:1042e80034c280000402e80034c288000080fa006a
:1042f800000006000000fa001516800004002200e5
:1043080004826200e00f5200050032000042eb0018
:1043180004407800c8f6b700cbc2a90004003700f3
:1043280014c0b30004407800c8f6b700cbc2a80098
:10433800d762a800d602a90005e1a9000002eb0097
:10434800040888008460a9008c60a8007417200005
:104358001408880005e1a8000002eb003408880072
:1043680084c0a9000080fa00000006000a00fa00d4
:1043780030079800410798003e0290000500200091
:1043880014079800250798001e029000ae029000be
:10439800c022dd00040020001407980025079800bb
:1043a8004e029000050020000401be001e0090008f
:1043b800ae0090002bf007000002be001407980022
:1043c800250798001e029000ae0290004d2bdd00dc
:1043d8004322de0004027300c32ade00140798009b
:1043e800250798001e039000ae03900004002000eb
:1043f800f5ff2f0006007800070378008403780093
:104408000502780007006000040263000500200030
:10441800c022dd00040020000403be006102b800d1
:104428000403730085837300e00f5300e08f5b0083
:10443800030032000082eb00040f7800020037000e
:104448001e029000040f78001e0278000400780015
:104458000080fa00000006000800fa002007980013
:10446800310798002e02900005002000048fbe003e
:104478003e029000050020001e03900004b3b9001e
:10448800060378009e03780005b8b9008003780019
:10449800070343009e037800040278000722b8004f
:1044a8000503430086027800048fbe00048fbe0017
:1044b8001e02be00432bdd004d22de000402730005
:1044c800cd2ade00048fbe00f4ff2f000500200077
:1044d8001e03be00840f5300858f5b000600360064
:1044e800f4ff2f0005002000048fbe0094c2800056
:1044f8000402e80094c288001e027800240798008d
:104508002e029000040078000080fa0000000600e7
:104518000a00fa0030079800410798003e02900010
:10452800e00f520002003a004e0290003407980053
:104538003e02900005002000140798002507980007
:10454800ae029000f40f200004aab900040378001a
:104558001e0290006022b9000402780004034300a0
:104568009e029000f40f2000042ab80005034300bf
:104578008602780014079800250798001407980009
:10458800250798004e029000050020001e039000a9
:10459800ae0390000602420087824a001407980082
:1045a800250798001e029000ae029000482bdd00ff
:1045b8004822de0004027300c82ade0014079800af
:1045c800250798001e029000040f78004e02900004
:1045d8009e0f5200020036001e0fe800040037004c
:1045e8004e0290009e0f5200010031001e0fe9009c
:1045f8001e027800040078000080fa00000006001f
:104608000a00fa0030079800410798003e0290001f
:10461800e00f520002003a004e0290003407980062
:104628003e02900005002000140798002507980016
:10463800ae029000f403200004aab9000403780035
:104648001e0290006022b9000402780004034300af
:104658009e029000f4032000042ab80005034300da
:104668008602780014079800250798001407980018
:10467800250798004e029000050020001e039000b8
:10468800ae0390000602420087824a001407980091
:10469800250798001e029000ae0290004a2bdd000c
:1046a8004622de0004027300c62ade0014079800c2
:1046b800250798001e029000040f78004e02900013
:1046c8009e0f5200020036001e0fe800040037005b
:1046d8004e0290009e0f5200010031001e0fe900ab
:1046e8001e027800040078000080fa00000006002e
:1046f8000a00fa0030079800410798003e0290002f
:10470800e00f520002003a004e0290003407980071
:104718003e02900005002000140798002507980025
:104728002e0290006f22b900040378001e02900048
:104738006022b90004027800040343009e0290003e
:10474800f4002000042ab80005034300860278001c
:104758001407980025079800140798002507980063
:104768004e029000050020001e039000ae0390004a
:104778000602420087824a0014079800250798001d
:104788001e029000ae0290004c2bdd004422de0099
:1047980004027300c42ade00140798002507980055
:1047a8001e029000040f78004e0290009e0f5200e7
:1047b800020036001e0fe800040037004e02900089
:1047c8009e0f5200010031001e0fe9001e02780002
:1047d800040078000080fa000000060000a0fe0037
:1047e800849fbe000000fa00d602a8000000000066
:1047f800000000000000000000000000e222a80005
:104808008600a9008e00a9004400200044c5880045
:1048180005e1a9000002eb000408880084002000dc
:10482800140888008c60a9008460a90005e1a8002c
:10483800000000002404800068026200e00f5200bb
:10484800fcff32001516800004002200048262007a
:10485800e00f5200050032000042eb0004407800ef
:10486800c9f6b700cbc2a9000400370014c0b300d2
:1048780004407800c9f6b700cbc2a800c4c2a9009a
:10488800d602a90005e1a9000002eb00040888008f
:104898008460a9008c60a800e41620001408880031
:1048a80005e1a800646c210014427800e04f520032
:1048b8000300320004c480000402e80004c4880035
:1048c80014c0b30004407800c6f6b70014c0b300a3
:1048d80004407800c7f6b7000080fa004f02be0017
:1048e8000080fe00004006003600f800809fbe00f1
:1048f800829fbe00849fbe00869fbe000200fa0011
:104908003400200044c588008460a9008c60a90098
:1049180005e1a9000042eb00044f7800a4168000ce
:1049280064026200e00f52001e00320040062000c0
:10493800010020004bee0700a4168000640262000c
:10494800e00f52001700320040062000010020004e
:1049580044ee0700a416800064026200e00f5200d3
:104968001000320040062000010020003dee070044
:10497800a416800064026200e00f520009003200b1
:10498800400620000100200036ee0700a416800033
:1049980064026200e00f5200020032000020200092
:1049a800630c0700c4c2a8008600a9008e00a800f6
:1049b8000080fa004f03be004f02be004f01be0048
:1049c8004f00be003600f90000400600801f780046
:1049d800849fbe00861f78000000fa00a042a9004c
:1049e8008560a90015178000040220000482620077
:1049f800e00f520002003200e2a2a90001003700d5
:104a0800e2a2a8001400200044c58800746c2100ac
:104a180014427800e04f5200040032000042eb00dc
:104a280004407800c7f6b7006200370044bc200095
:104a3800144278000482fb0005148000040342003d
:104a480064bc200004024300050a780044bc20002e
:104a5800144278000482fb0015148000040342000d
:104a680064cc200004024300050a780044bc2000fe
:104a7800144278000482fb002514800004034200dd
:104a880064dc200004024300050a780044bc2000ce
:104a9800144278000482fb003514800004034200ad
:104aa80064ec200004024300050a780044bc20009e
:104ab800144278000482fb0045148000040342007d
:104ac80064fc200004024300050a780044bc20006e
:104ad800144278000482fb0055148000040342004d
:104ae800640c210004024300050a780044bc20003d
:104af800144278000482fb0065148000040342001d
:104b0800641c210004024300050a780044bc20000c
:104b1800144278000482fb007514800004034200ec
:104b2800643c210004024300050a780044bc2000cc
:104b3800144278000482fb008514800004034200bc
:104b4800642c210004024300050a780044bc2000bc
:104b5800144278000482fb0095148000040342008c
:104b6800644c210004024300050a780044bc20007c
:104b7800144278000482fb00a5148000040342005c
:104b8800645c210004024300050a780044bc20004c
:104b9800144278000442e80004407800c4ebb700ef
:104ba80044bc2000144278000474a100044078003a
:104bb800c4ebb700a042a8000080fa004f037800b9
:104bc8004f02be004f00780000400600841f7800a6
:104bd8000000fa002400200044c588008940a9008c
:104be80024c480000402e80024c488000080fa007d
:104bf8004f02780000400600841f78000000fa0089
:104c0800d400200044c58800143a800054c58800a8
:104c180000000000000000000000fe000080fa0014
:104c28004f02780000400600841f78000000fa0058
:104c3800e400200044c588000000000000000000d7
:104c48000000fe000080fa004f02780000400600d5
:104c5800841f78000000fa00f400200044c5880092
:104c680000000000000000000000fe000080fa00c4
:104c78004f02780000400600841f78000000fa0008
:104c88000401200044c58800000000000000000066
:104c98000000fe000080fa004f0278000040060085
:104ca800841f78000000fa00c4ab2f0044c58800b8
:104cb80000000000000000000000fe000080fa0074
:104cc8004f027800004006000c00fa0050079800d8
:104cd8005e02900005002000048fbe005e02900076
:104ce800050020001e03900004b3b90006037800f5
:104cf8009e03780005b8b9008003780007034300d5
:104d08009e037800040278000722b80005034300d8
:104d180086027800048fbe00048fbe001e02be000b
:104d2800422bdd004e22de0004027300ceaade0014
:104d3800048fbe0014c18000cfa2de001e039000c5
:104d480004b3b900060378009e03780005b8b900db
:104d580080037800070343009e037800040278006c
:104d68000722b8000503430086027800048fbe00be
:104d7800048fbe001e02be00c62bdd004a22de00e4
:104d880004827300caaade00048fbe001e02be00a1
:104d980024079800350798005e029000050020005f
:104da800048fbe0024c18000cfa2de001e03900045
:104db80004b3b900060378009e03780005b8b9006b
:104dc80080037800070343009e03780004027800fc
:104dd8000722b8000503430086027800048fbe004e
:104de800048fbe001e02be00462bdd004a22de00f4
:104df80004027300caaade00048fbe002e029000cf
:104e0800be0290003e034200ae834a000602be0086
:104e1800240798003507980034c18000cfa2de002f
:104e2800048fbe001e03be00423add00ce32de0013
:104e3800850272004232dd00048fbe002e0290000f
:104e4800be0290003e034200ae834a000602be0046
:104e58002407980035079800ae039000470798008c
:104e68004e029000040078000080fa00000006005e
:104e78000000fa00e489210014427800e24f520051
:104e88000100320007000700e4892100144278007d
:104e9800e24f520001003a00f70007000080fa00d4
:104ea800000006000400fa00881f78003e00370062
:104eb80080852000d611070000427800044f780052
:104ec8001e427800ef4f420037003a0080852000ec
:104ed800cf11070000427800044f78001e42780086
:104ee800ee4f420030003a0080852000c8110700cc
:104ef80000427800044f78001e427800ed4f4200cf
:104f080029003a0080852000c1110700004278007e
:104f1800044078009af8b70080852000bc1107008b
:104f280000427800044078009cf8b7008085200093
:104f3800b711070000427800044078009df8b700d8
:104f480080852000b21107000042780004407800f4
:104f58009bf8b70080852000ad110700004278005b
:104f68000482fb00140798001e0290004824dd000c
:104f780080852000a6110700004278000482fb000b
:104f880004024400140798001e00900090060700d1
:104f980000427800e04f52000300320024c0b30002
:104fa800044078009ef8b700e48921001442780094
:104fb800e04f520005003a0080852000b21107003a
:104fc80000427800e84f5200b9ff3e004f047800d5
:104fd8000080fa00000006000000fa00f4892100b1
:104fe80014427800e04f52005d003200e1cfb30078
:104ff800a08920006111070011cfb300a08920000b
:105008005e110700a1cfb300a08920005b11070043
:10501800b1cfb300a0892000581107006440800078
:105028004822de000442780084407800a0892000ed
:1050380052110700644080000442780084407800e0
:10504800a08920004d110700844080004822de001e
:105058000442780084407800a089200047110700a6
:10506800844080000442780084407800a0892000b1
:1050780042110700a440800048a2de0004427800e4
:1050880084407800a08920003c110700a4408000db
:105098000442780084407800a08920003711070076
:1050a800b440800048a2de000442780084407800c2
:1050b800a089200031110700b44080000442780024
:1050c80084407800a08920002c110700d44080007b
:1050d8004822de000442780084407800a08920003d
:1050e80026110700d44080000442780084407800ec
:1050f800a089200021110700044280004822de0018
:105108000442780084407800a08920001b11070021
:10511800044280000442780084407800a08920007e
:105128001611070075108000042020000482620018
:10513800e00f52000a003a00a08920005d11070024
:1051480000427800e04f520005003200a08920009c
:105158002f110700004278000482fb0084108800a9
:105168000080fa00000006000600fa0020479800b8
:105178003147980022079800f489210014427800ea
:10518800e04f52003a003a002e019000be409000d5
:105198002e409000f705070000027800040f780001
:1051a80011cfb300a0892000f410070021cfb3006d
:1051b800a0892000f110070041cfb300a08920008a
:1051c800ee100700ae409000a0892000eb10070009
:1051d8002e0290004822de000442780084407800c5
:1051e800a0892000e51007002e02900004427800f4
:1051f80084407800a0892000e0100700be4090009d
:10520800a0892000dd1007001e0278004822de0079
:105218000442780084407800a0892000d710070055
:105228001e0278000442780084407800a08920009b
:10523800d21007007510800004202000048262004c
:10524800e00f52000a003a00a08920001911070057
:1052580000427800e04f520005003200a08920008b
:10526800eb100700004278000482fb0084108800dd
:105278000080fa00000006000a00fa00c489210034
:10528800144278000482fb00140798001e02900064
:105298004822dd0014079800d489210014427800c0
:1052a8000482fb009e0290000482420014079800ca
:1052b8001e009000000f7800a48921001442780095
:1052c8000482fb0024079800a48921001442780076
:1052d8000482fb006123b90004ff2f00f5ff2f00b3
:1052e8000602420087824a00a60d2000070020001f
:1052f800860f5200878f5a001b033e00046001008e
:10530800da003700dd0037001703370016033700cf
:10531800150337001403370013033700120337004f
:1053280011033700100337000f0337000e0337004f
:105338000d0337000c0337000b0337000a0337004f
:10534800090337000803370007033700060337004f
:10535800050337000403370003033700020337004f
:105368000103370000033700ff023700c70037008a
:10537800c9023700fc023700a4023700fa023700de
:10538800e9003700f8023700f7023700f602370065
:10539800f5023700f4023700f3023700f202370053
:1053a800f1023700f0023700ef023700ee02370053
:1053b800ed023700ec023700eb023700ea02370053
:1053c800d8023700e8023700e7023700e602370064
:1053d800e5023700e4023700e3023700e202370053
:1053e800e1023700e0023700df023700de02370053
:1053f800dd023700dc023700db023700da02370053
:10540800d1003700dc003700fa003700d602370039
:10541800d5023700d4023700d3023700d202370052
:10542800d1023700d0023700cf023700ce02370052
:10543800cd023700cc023700cb023700ca02370052
:10544800c9023700c8023700c7023700c602370052
:10545800c5023700c4023700c3023700c202370052
:10546800c1023700c0023700bf023700be02370052
:10547800bd023700bc023700bb023700ba02370052
:10548800b9023700b8023700b7023700b602370052
:10549800b5023700b4023700b3023700b202370052
:1054a800b1023700b0023700af023700ae02370052
:1054b800ad023700ac023700ab023700aa02370052
:1054c800a9023700a8023700a7023700a602370052
:1054d800a5023700a4023700a3023700a202370052
:1054e800a1023700a00237009f0237009e02370052
:1054f8009d0237009c0237009b0237009a02370052
:105508009902370098023700970237009602370051
:105518009502370094023700930237009202370051
:1055280091023700900237008f0237008e02370051
:105538008d0237008c0237008b0237008a02370051
:1055480089023700ca003700870237008602370011
:105558008502370084023700830237008202370051
:1055680081023700800237007f0237007e02370051
:105578007d0237007c0237007b0237007a02370051
:105588007902370078023700770237007602370051
:105598007502370074023700730237007202370051
:1055a80071023700700237006f0237006e02370051
:1055b8006d0237006c0237006b0237006a02370051
:1055c8006902370068023700670237006602370051
:1055d8006502370064023700630237006202370051
:1055e80061023700600237005f0237005e02370051
:1055f8005d0237005c0237005b0237005a02370051
:10560800a3003700ab003700b3003700c7003700ee
:10561800cf003700d7003700eb003700f300370022
:10562800fb0037000f013700170137001f01370053
:10563800330137003b01370043013700570137007a
:105648005f013700670137007b01370083013700ae
:105658008b0137009f013700a7013700af013700e2
:10566800c3013700cb013700d30137000042eb00fc
:10567800044078001ce8b7003b02370014c0b300b0
:10568800044078001ce8b70037023700c4812000c6
:1056980014427800e04f5200300232001e0290009f
:1056a800340798003e0090002905070000027800a2
:1056b800440798003e019000ce009000c0a520004d
:1056c80060f40700f4528000f4b688005454800057
:1056d80044b78800053b800004002800048262006b
:1056e800e00f5200fbff3a00d4b68000e5b6800018
:1056f800020220000400be0032eb0700053b8000d8
:105708000400280004826200e00f5200fbff3a0008
:10571800d4b68000e5b68000e26d21000400be002a
:1057280047eb070010023700b489210014427800c3
:105738000482fb00040078001802070000027800c9
:10574800040f780008023700b48921001442780059
:10575800e14f520004003a0014c0b300044078003e
:105768009ff8b700000237000042eb0004407800c1
:105778009ff8b700fc0137001e02900074408800b3
:105788007540800014032000848f520002003e0000
:1057980024032000744088007440800044c18800bd
:1057a800053b80000400280004826200e00f5200dc
:1057b800fbff3a00f4c0800005c18000020220000f
:1057c8000400be00ffea0700053b80000400280033
:1057d80004826200e00f5200fbff3a00f4c0800030
:1057e80005c18000228221000400be0014eb0700de
:1057f800dd0137001e009000904088009540800031
:1058080014032000848f520002003e00240320006d
:10581800944088009440800054c18800053b800073
:105828000400280004826200e00f5200fbff3a00e7
:10583800f4c0800005c18000020220000400be0000
:10584800e0ea0700053b80000400280004826200ab
:10585800e00f5200fbff3a00f4c0800005c1800051
:10586800228221000400be00f5ea0700be013700cd
:10587800c58220009542780044c2b30084cf52000c
:10588800b8013a001400200014c48800b60137009b
:10589800b4892100144278000482fb009e02900023
:1058a80004034200e46d210004024300050a780065
:1058b800ad013700b4892100144278000482fb004e
:1058c80084024200e46d2100048242001402780040
:1058d800040f7800a4013700053b8000040028006d
:1058e80004826200e00f5200fbff3a00d4b6800049
:1058f800e5b68000020220000400be00b1ea0700fd
:10590800053b80000400280004826200e00f52007a
:10591800fbff3a00d4b68000e5b68000e26d2100b6
:105928000400be00c6ea07008f013700b4892100d1
:10593800144278000482fb009e0290000403420097
:105948002470210004024300050a7800860137000c
:10595800b4892100144278000482fb0084024200ca
:10596800247021000482420014027800040f780099
:105978007d013700053b8000040028000482620096
:10598800e00f5200fbff3a00f4b7800005b8800032
:10599800020220000400be008aea0700053b8000de
:1059a8000400280004826200e00f5200fbff3a0066
:1059b800f4b7800005b88000227021000400be0002
:1059c8009fea070068013700b48921001442780073
:1059d8000482fb009e0290000403420064722100ce
:1059e80004024300050a78005f013700b4892100ea
:1059f800144278000482fb00840242006472210091
:105a08000482420014027800040f7800560137001f
:105a1800053b80000400280004826200e00f520069
:105a2800fbff3a0014b9800025b98000020220006b
:105a38000400be0063ea0700053b8000040028005c
:105a480004826200e00f5200fbff3a0014b98000a4
:105a580025b98000627221000400be0078ea0700c0
:105a680041013700b4892100144278000482fb0008
:105a78009e02900004034200a47421000402430023
:105a8800050a780038013700b489210014427800eb
:105a98000482fb0084024200a474210004824200b4
:105aa80014027800040f78002f013700053b8000ae
