:020000040000fa
:080000000001040000000000f3
:020000040000fa
:1000080016300000c22f0000da2f0000ee2f00008b
:1000180002300000163000001630000016300000d4
:10002800163000001630000016300000942c000036
:1000380016300000163000001630000016300000a0
:1000480016300000ea3b00001a3c0000602e000059
:10005800163000001630000016300000622f000035
:10006800462b000016300000163000001630000045
:100078001630000016300000163000001630000060
:100088001630000016300000163000001630000050
:100098001630000016300000163000001630000040
:1000a8001630000016300000163000001630000030
:1000b8001630000016300000163000001630000020
:1000c8001630000016300000ac2f0000163000007b
:1000d8001630000016300000163000001630000000
:1000e80016300000163000001630000016300000f0
:0800f800163000001630000074
:020000040000fa
:1001080016300000c22f0000da2f0000ee2f00008a
:1001180002300000163000001630000016300000d3
:10012800163000001630000016300000942c000035
:10013800163000001630000016300000163000009f
:1001480016300000ea3b00001a3c0000602e000058
:10015800163000001630000016300000622f000034
:10016800462b000016300000163000001630000044
:10017800163000001630000016300000163000005f
:10018800163000001630000016300000163000004f
:10019800163000001630000016300000163000003f
:1001a800163000001630000016300000163000002f
:1001b800163000001630000016300000163000001f
:1001c8001630000016300000ac2f0000163000007a
:1001d80016300000163000001630000016300000ff
:1001e80016300000163000001630000016300000ef
:0801f800163000001630000073
:020000040000fa
:100200004f7c21004efe21000e01880000000000fe
:10021000000020000000e000020032000001200089
:10022000200288000c000700a080250001002000ab
:1002300011000700000020000000e0000200320072
:100240000000020000000000ba5702000000000099
:100250000040da000000fe004440a9000028200011
:100260000000e0000300320000002000a001880030
:100270004440a8000000060091018800800078003a
:100280000000eb0015003700e280400032a0b4000f
:100290009101ba00e280400032a0b4009102ba009d
:1002a000e280400032a0b4000002eb00472bde00e9
:1002b000f507b200602ce10004003a000059eb00a1
:1002c0008301e900fdff3e00040037006128e100e2
:1002d000010032000082eb00040007001101ba00a7
:1002e0000200e000e8ff3a00000006003159ba00c1
:1002f0008301e9000c0032002159ba008301e900b2
:10030000080032000400e00003003a00e2804000f0
:1003100032a0b400f5ff370011d9ba008301e9001b
:10032000faff3a008100e800e180400032a0b4000a
:1003300000000600881f78008a1f78004400f8003b
:10034000080f20002802880000049000100590008b
:10035000a000900030019000c00190000300ca008e
:100360000280ca000030cb001a00cd004604c30052
:100370000100ca004604c0001e04c0000605c000fb
:100380000100cd0021009800050d7800eaba970021
:10039000052578004400f9004f0578004f047800e7
:1003a00000000600801f78004000b0000008eb004d
:1003b0004f007800801f7800100090000018eb00bc
:1003c0000018eb000008eb004f007800000006006a
:1003d0004400f800020f20002202880091007800fb
:1003e0003000ca003080ca000000cb002080ca0064
:1003f0000000cb003100cd004000ca000000cb005f
:100400000000cb000010cb003100cd001180cc00eb
:100410004400f90000000600101188000111880056
:10042000000006004011880031118800000006001d
:100430003200f800910188000008bb00410424004c
:100440006210e10004003200000220000010e10010
:100450000a003a0051042400013b88000500fc001a
:1004600051052000313b8800a10a2000313b880063
:1004700061e7a80000000000000000003200f90061
:10048000000006003200f80060042400003b8800f1
:10049000f2ff37003200f80091018800410024008b
:1004a000013b88000208bb00ecff37003200f80077
:1004b0009101880051002400013b880003012000c5
:1004c0003218bb008301e900fdff3a00e3ff37006b
:1004d0006022b800060220000000d0008180d20017
:1004e0000482d2008582d2000000a00002025200e5
:1004f00083825a00030031000202420083824a00d4
:100500000000a1000603e900f3ff3a000000060026
:10051000889fbe008a9fbe008c1f78000006eb00fb
:10052000e00f5000e08f5800e00f5900e08f5900b5
:1005300007003d006044b8006055b8001c00200072
:100540000000540081805c0002015d0083815d0039
:10055000e00f5200e08f5a00e00f5b00e08f5b007d
:1005600007003d006044b8006055b8000c00a200d0
:100570000402540085825c0006035d0087835d00f1
:100580000c000700e00f5600060032006022b800a1
:100590006033b8000000520081805a0002015b0005
:1005a00083815b004f0678004f05be004f04be00fc
:1005b00000000600889fbe008a9fbe008c9fbe0080
:1005c0000404b8000506b8008904460060854e00a2
:1005d0000606b8000a054600e0854e000706b8008a
:1005e0008b054600040eb800890446000a854e00bb
:1005f000e0854d00050eb8000a0546008b854e00cb
:10060000060eb8008b0546000416b8000a05460021
:100610008b854e000516b8008b054600041eb800f9
:100620008b0546000800be000a01be004f06be0052
:0c0630004f05be004f04be000000060095
:020000040000fa
:10063c0000000000c1c0000081c1000040010000aa
:10064c0001c30000c00300008002000041c2000092
:10065c0001c60000c00600008007000041c7000072
:10066c0000050000c1c5000081c40000400400006a
:10067c0001cc0000c00c0000800d000041cd00003a
:10068c00000f0000c1cf000081ce0000400e000022
:10069c00000a0000c1ca000081cb0000400b000022
:1006ac0001c90000c00900008008000041c800001a
:1006bc0001d80000c01800008019000041d90000ca
:1006cc00001b0000c1db000081da0000401a0000b2
:1006dc00001e0000c1de000081df0000401f000092
:1006ec0001dd0000c01d0000801c000041dc00008a
:1006fc0000140000c1d4000081d50000401500009a
:10070c0001d70000c01700008016000041d6000081
:10071c0001d20000c01200008013000041d3000081
:10072c0000110000c1d1000081d000004010000079
:10073c0001f00000c03000008031000041f10000e9
:10074c0000330000c1f3000081f2000040320000d1
:10075c0000360000c1f6000081f7000040370000b1
:10076c0001f50000c03500008034000041f40000a9
:10077c00003c0000c1fc000081fd0000403d000079
:10078c0001ff0000c03f0000803e000041fe000061
:10079c0001fa0000c03a0000803b000041fb000061
:1007ac0000390000c1f9000081f800004038000059
:1007bc0000280000c1e8000081e900004029000089
:1007cc0001eb0000c02b0000802a000041ea000071
:1007dc0001ee0000c02e0000802f000041ef000051
:1007ec00002d0000c1ed000081ec0000402c000049
:1007fc0001e40000c02400008025000041e5000059
:10080c0000270000c1e7000081e600004026000040
:10081c0000220000c1e2000081e300004023000040
:10082c0001e10000c02100008020000041e0000038
:10083c0001a00000c06000008061000041a1000028
:10084c0000630000c1a3000081a200004062000010
:10085c0000660000c1a6000081a7000040670000f0
:10086c0001a50000c06500008064000041a40000e8
:10087c00006c0000c1ac000081ad0000406d0000b8
:10088c0001af0000c06f0000806e000041ae0000a0
:10089c0001aa0000c06a0000806b000041ab0000a0
:1008ac0000690000c1a9000081a800004068000098
:1008bc0000780000c1b8000081b900004079000048
:1008cc0001bb0000c07b0000807a000041ba000030
:1008dc0001be0000c07e0000807f000041bf000010
:1008ec00007d0000c1bd000081bc0000407c000008
:1008fc0001b40000c07400008075000041b5000018
:10090c0000770000c1b7000081b6000040760000ff
:10091c0000720000c1b2000081b3000040730000ff
:10092c0001b10000c07100008070000041b00000f7
:10093c0000500000c1900000819100004051000067
:10094c0001930000c053000080520000419200004f
:10095c0001960000c056000080570000419700002f
:10096c0000550000c1950000819400004054000027
:10097c00019c0000c05c0000805d0000419d0000f7
:10098c00005f0000c19f0000819e0000405e0000df
:10099c00005a0000c19a0000819b0000405b0000df
:1009ac0001990000c05900008058000041980000d7
:1009bc0001880000c0480000804900004189000007
:1009cc00004b0000c18b0000818a0000404a0000ef
:1009dc00004e0000c18e0000818f0000404f0000cf
:1009ec00018d0000c04d0000804c0000418c0000c7
:1009fc0000440000c18400008185000040450000d7
:100a0c0001870000c04700008046000041860000be
:100a1c0001820000c04200008043000041830000be
:100a2c0000410000c18100008180000040400000b6
:100a3c00640000006400000063000000630000001c
:100a4c006300000062000000620000006100000012
:100a5c006100000060000000600000005f0000000a
:100a6c005f0000005e0000005e0000005d00000002
:100a7c005d0000005c0000005b0000005b000000fb
:100a8c005a000000590000005900000058000000f6
:100a9c0057000000570000005600000055000000f1
:100aac0054000000540000005300000052000000ed
:100abc005100000050000000500000004f000000ea
:100acc004e0000004d0000004c0000004b000000e8
:100adc004a000000490000004800000047000000e8
:100aec0046000000450000004400000043000000e8
:100afc004200000041000000400000003f000000e8
:100b0c003e0000003c0000003b0000003a000000ea
:100b1c0039000000380000003600000035000000ed
:100b2c0034000000330000003100000030000000f1
:020000040000fa
:100b3c000a00fa0084852000144278000482fb002d
:100b4c0045032000850f52001f0132004503200091
:100b5c00850f52000d003c00e60f520030003200b1
:100b6c00e60f520003003c00e40f52001b00320061
:100b7c0093033700f40f52007a0032004502200034
:100b8c00850f5200920032008d033700050a2000b9
:100b9c00850f520087033200050a2000850f520092
:100bac0007003c0055032000850f52004401320021
:100bbc0045042000850f520090013200800337005d
:100bcc00450a2000850f520043033200850a20009d
:100bdc00850f520052033200790337007f03070060
:100bec005f080700790907005c2007000002780005
:100bfc00e00f52000500320004cab3000443780031
:100c0c0085852000864a78007203370044c1b30002
:100c1c000443780085852000864a78006d033700f0
:100c2c0055168000040420000482620004f0a70022
:100c3c000402ea000402e9004f22de0004427800bc
:100c4c000482fb00610262004622dd005616800021
:100c5c00f5fb2f0085026300050272005416880014
:100c6c005e03070055168000040420000482620015
:100c7c0004f0a7000402ea000402e9004f22de009f
:100c8c00044278000482fb00610262004622dd000f
:100c9c0056168000f5fb2f008502630005027200da
:100cac00541688009c080700551680000404200088
:100cbc000482620004f0a7000402ea000402e900c6
:100ccc004f22de00044278000482fb0061026200c5
:100cdc004622dd0056168000f5fb2f0085026300ce
:100cec00050272005416880038090700551680005a
:100cfc00040420000482620004f0a7000402ea004d
:100d0c000402e9004f22de00044278000482fb005a
:100d1c00610262004622dd0056168000f5fb2f00b2
:100d2c008502630005027200541688000b20070030
:100d3c0000027800e00f52000500320004cab30034
:100d4c000443780085852000864a7800210337000b
:100d5c0044c4b3000443780085852000864a78009b
:100d6c001c0337000910070014003700ef0a0700b6
:100d7c0011150700fe1f070000027800e00f52005b
:100d8c000500320044cab300044378008585200076
:100d9c00864a7800090037001516800004002400ec
:100dac0004826200e00f520004003a0044c2b30017
:100dbc000443780085852000864a780084852000cd
:100dcc0014427800f44f5200e8ff32000103370060
:100ddc00201007000002eb00040f78000002eb006b
:100dec001442880072003700d00a0700f214070082
:100dfc00000000000000000000000000250480003e
:100e0c000404200004826200e00f52002f00320024
:100e1c001e0fe80084c0a9003517800004002100d3
:100e2c0004826200e00f5200030032001442800082
:100e3c00e10f520011003a00a20020009e00780041
:100e4c0080af200033090700a20020009e0078002c
:100e5c00e0a920002f090700a20020009e007800c6
:100e6c0020b520002b090700a20020009e0078006e
:100e7c00c0ba20002709070014003700c4578000af
:100e8c00040178009e00780080af20002109070043
:100e9c00f4548000040178009e007800e0a9200042
:100eac001c090700945a8000040178009e00780009
:100ebc0020b5200017090700645d8000040178004c
:100ecc009e007800c0ba200012090700a81f070076
:100edc0000027800e00f52000500320044cab30053
:100eec000443780085852000864a7800300037005e
:100efc00151680000400240004826200e00f5200ea
:100f0c000500320044c1b3000443780085852000fd
:100f1c00864a780026003700440620009e0278009e
:100f2c00848f520008003600161d070044c3b3001e
:100f3c000443780085852000864a78000002eb0087
:100f4c00144288001a003700351780000400210075
:100f5c0004826200e00f52000b003a001e0278007f
:100f6c00f40f520008003600061d070044c3b300fe
:100f7c000443780085852000864a78000002eb0047
:100f8c00144288000a00370014428000e10f52001e
:100f9c0007003a00fb1c070044c3b300044378006d
:100fac0085852000864a78000002eb0014428800f8
:100fbc00858520009542780044c2b30084cf52004e
:100fcc0089ff320083023700980f07004206200089
:100fdc004106200060932000ce0807004206200046
:100fec0041062000a09e2000ca08070042062000ef
:100ffc004106200080af2000c608070042062000f2
:10100c0041062000e0a92000c2080700420620008b
:10101c0041062000c0ba2000be080700420620008e
:10102c004106200020b52000ba0807001e0037003a
:10103c003e0a0700601407004d1f070000027800ed
:10104c00e00f52000500320084cab300044378005c
:10105c0085852000864a780013003700151680001d
:10106c000400240004826200e00f520005003200ec
:10107c0044c1b3000443780085852000864a78007b
:10108c000900370015168000040028000482620055
:10109c00e00f520004003a0054c3b300044378003c
:1010ac0085852000864a7800858520009542780049
:1010bc0044c3b30084cf5200ddff32004502370039
:1010cc00d442800051c32000040078008b1007002c
:1010dc0000027800240798000001eb00ae0090009d
:1010ec006093200059080700e442800051c320009f
:1010fc000400780081100700000278002407980093
:10110c000001eb00ae009000a09e20004f080700ed
:10111c000002eb0014079800cbe2a9003100370065
:10112c00020a070024140700250480000404200090
:10113c0004826200e00f52000400320084c0a90057
:10114c001e0290000402e80014079800081f070014
:10115c0000027800e00f52000500320084cab30090
:10116c000443780085852000864a78001d003700ee
:10117c00151680000400240004826200e00f520067
:10118c000500320044c1b30004437800858520007b
:10119c00864a7800130037001516800004002800da
:1011ac0004826200e00f52000500320044c3b30019
:1011bc000443780085852000864a780009003700b2
:1011cc009e02900014032000848f5200050036000c
:1011dc0044c4b3000443780085852000864a780017
:1011ec00eb0f0700858520009542780054c3b300af
:1011fc0084cf5200caff3200f60137000002eb0028
:10120c00044388000002eb00244388000002eb003a
:10121c00144388000002eb0014be88006022b80062
:10122c0084bd880095bd88000042eb000443780023
:10123c0085702100864a78000042eb000443780058
:10124c00c5742100864a78000042eb000443780004
:10125c00d5742100864a78000002eb0074ba88002d
:10126c000002eb0024079800090037002e029000c2
:10127c008402420004752100048242008002eb00cb
:10128c00050a78002e0290000402e800240798005a
:10129c002e029000e20f5200f4ff36008c60a80082
:1012ac0087013700c4002000e4bd88009f090700b7
:1012bc00c11307006543800044062000848f520050
:1012cc000a00360015168000040022000482620019
:1012dc00e00f5200050032000042eb00044378009e
:1012ec00b5702100864a7800cbc2a9003517800062
:1012fc000400280004826200e00f520003003a0050
:10130c0094418000744188000200370084418000c1
:10131c00744188008470210014427800e04f520020
:10132c00480132000002eb0064438800e441800075
:10133c00e00f520002003200004020004a1e07005d
:10134c00b4002000e4bd8800d541800004f02f00db
:10135c00848f520003003e00d44180000402e80058
:10136c00d441880084bd800095bd8000610242009c
:10137c00e0824a0084bd880095bd8800e479210094
:10138c003400be002401be00140020000500200023
:10139c006033b8000002420081824a0002034b0015
:1013ac0083834b00e07921000498be000690be00b8
:1013bc00b44280000402e800b44288001a0c070012
:1013cc00a47021001442780004407800111c07001e
:1013dc00b570210095427800a47021001442780069
:1013ec0084cf52000a003200c5498000b445240065
:1013fc00848f520003003e000403210064b888006f
:10140c001a0037000403200064b888001700370066
:10141c00b470210014427800e04f52000a003a00e8
:10142c00c5498000b4452400848f520003003e005f
:10143c000404210064b888000c0037000404200068
:10144c0064b8880009003700c5498000b445240001
:10145c00848f520003003e000402210064b888000f
:10146c00020037000402200064b88800b470210028
:10147c001442780004437800a5702100864a780055
:10148c0080f020000f2707000002780064418800dc
:10149c00800021000b2707000002780044418800df
:1014ac00d4418000fd0f520009003e000002eb0009
:1014bc00b44188000002eb00a441880014c0b300c2
:1014cc000443780085832000864a7800b1003700f9
:1014dc000002eb0024418800d5418000d4bc800080
:1014ec00848f52002300310004418000050020004d
:1014fc003407980045079800d5bc8000d441800083
:10150c0004825200050020004e03900004b3b90081
:10151c0006037800be03900005b8b900800378007c
:10152c0007034300be039000040278000722b800b2
:10153c00050343008602780034079800450798009d
:10154c003407980045079800d4bc800005002000a3
:10155c000401be003e009000ce009000d9fb0700b5
:10156c000002be0034079800450798003e02900028
:10157c002441880035178000040024000482620096
:10158c00e00f520011003a0014418000e00f5200ad
:10159c000700320075418000244180000482420023
:1015ac0005002000c4408800d54088003100370079
:1015bc007541800024418000048252000500200007
:1015cc00c4408800d54088002a00370014418000b0
:1015dc00e00f52000700320075418000244180006a
:1015ec000482420005002000c4408800d5408800d9
:1015fc0006003700754180002441800004825200af
:10160c0005002000c4408800d5408800e4428000da
:10161c006123b800c4408000d540800004b8b900f4
:10162c000000780006a9b900820078000100400093
:10163c0006037800040278000432b800050040006c
:10164c0080027800c4408800d5408800c6408000e5
:10165c00d7408000f4408000050020000401be004b
:10166c000600be0097fb07000002be00c4408800c5
:10167c00d5408800644180006123b800c4408000dc
:10168c00d54080002403b0000580b000840f5300c7
:10169c00858f5b0004003900b44180000402e9002e
:1016ac00b44188000e003700644180006123b8000b
:1016bc00c0408000d1408000e4fc2f00f5ff2f00db
:1016cc000002420081824a00840f5300858f5b0028
:1016dc0003003e00b44180000402e800b4418800dd
:1016ec005441800025032000848242004441800044
:1016fc00848f520004003100a44180006302520028
:10170c00a44188000900370054418000e5fc2f00fb
:10171c008482420044418000848f520003003600d2
:10172c00a441800063024200a4418800b5418000be
:10173c0004642000848f52000300340004642000f1
:10174c00b441880006003700b5418000049c2f008e
:10175c00848f520002003d00049c2f00b44188008d
:10176c00a541800084252000848f520003003400a2
:10177c0084252000a441880006003700a541800084
:10178c0084da2f00848f520002003d0084da2f008f
:10179c00a4418800d442800051c32000040078008a
:1017ac00d60e0700000278002407980055418000ef
:1017bc00743e2000848f520004003600a441800047
:1017cc00ae02900004824200240798000001eb0056
:1017dc00ae009000609320009c060700f44080004f
:1017ec0051c3200004007800c40e070000027800ea
:1017fc002407980075418000743e2000848f5200ad
:10180c0004003600b4418000ae0290000482420015
:10181c00240798000001eb00ae009000a09e200071
:10182c008a060700050807000002eb003408880050
:10183c0084c0a9000042eb000443780085702100ad
:10184c00864a78004a1d070000027800e00f52001b
:10185c00060032000b0d070084cab3000443780065
:10186c0085852000864a7800150037001516800003
:10187c000400240004826200e00f520006003200d3
:10188c00000d070044c1b300044378008585200097
:10189c00864a78000a0037001516800004002800dc
:1018ac0004826200e00f520005003200f50c0700c4
:1018bc0044c3b3000443780085852000864a780031
:1018cc00858520009542780044c4b30084cf520033
:1018dc0074fe32003f0037002c0d07000a00370061
:1018ec001208070034120700211d070000027800bf
:1018fc00e00f520004003a0044c1b30004437800e6
:10190c0085852000864a78008585200095427800e0
:10191c0044cab30084cf5200f1ff32002d003700cf
:10192c00420d07001d0037000008070022120700b7
:10193c001f1d070000027800e00f52000500320066
:10194c0044cab3000443780085852000864a780099
:10195c001200370015168000040024000482620077
:10196c00e00f52000500320044cab3000443780073
:10197c0085852000864a780008003700fc1c07008b
:10198c0000027800e00f520004003a0044c3b30098
:10199c000443780085852000864a780085852000e0
:1019ac009542780084cab30084cf5200deff320027
:1019bc0008003700dd070700ff110700fdff3700a7
:1019cc0004cab3000443780085852000864a780059
:1019dc00000000000080fa00000006004400fa003d
:1019ec00881f780014002000a4bd8800140020007b
:1019fc00b4bd8800e4bd8000344288000002eb00d6
:101a0c00e4bd88000002eb00844088000002eb007b
:101a1c00a44088000002eb00f4b98800043a80006e
:101a2c0061026200e00f520003003200f4b9800042
:101a3c000440a000f4b98800053a80000408200096
:101a4c0004826200e00f520004003200f5b98000fd
:101a5c000402200005027200f4b98800053a8000e7
:101a6c000404200004826200e00f520004003200e3
:101a7c00f5b980000404200005027200f4b9880056
:101a8c00043a800062026200e00f52000300320050
:101a9c00f4b980000400a000f4b98800053a800075
:101aac000400280004826200e00f520003003200a0
:101abc00f4b980000410a000f4b98800043a800046
:101acc0070026200e00f520003003200f4b9800093
:101adc000420a000f4b98800053a8000040024001a
:101aec0004826200e00f520003003200f4b980005f
:101afc000430a000f4b988000002eb0044b988005f
:101b0c000002eb0054b988000002eb0064b98800b5
:101b1c000002eb0074b988000002eb0084b9880065
:101b2c000002eb0094b988000002eb00a4b9880015
:101b3c000002eb00b4b988000002eb00c4b98800c5
:101b4c000002eb00d4b988000002eb00544188007d
:101b5c000002eb00944188000002eb0084418800f5
:101b6c000002eb00d4bc88000002eb00b4bc88007f
:101b7c000002eb00c4bc88000002eb00040f7800ec
:101b8c00250037001e0fe8000060fe00a440800016
:101b9c000402e800a44088001e027800ea0f5200fc
:101bac000f0036002435200024179800e42e200066
:101bbc0034179800f4ff270044179800f4ff27000f
:101bcc005417980084962200641798004402200051
:101bdc000e024200840078000000eb00441d070058
:101bec001e027800ef0f52000b003600643b200001
:101bfc0024079800e42e200034079800f4ff2700f7
:101c0c0044079800f4ff270054079800849622009c
:101c1c0064079800070037006402470084007800ce
:101c2c000000eb00171d070000027800e00f5200c7
:101c3c00d4ff32000002eb00040f780007003700dd
:101c4c001e0fe800a44080000402e800a4408800b5
:101c5c001e027800e90f520008003e0064024700a3
:101c6c00840078000000eb009f1d07000002780044
:101c7c00e00f5200f2ff32000100370000000000bc
:101c8c002e029000644088003e0290007440880050
:101c9c004e02900074b888005e02900084b88800f0
:101cac006e029000944088000002eb00040f780054
:101cbc00450037000060fe001e0fe8001e02780091
:101ccc00ea0f52001e0036000002eb0024179800a9
:101cdc000002eb00341798000002eb004417980048
:101cec000002eb00541798000002eb0064179800f8
:101cfc000002eb00741798000002eb00041f980020
:101d0c000002eb00141f98000002eb00241f980047
:101d1c000002eb00341f98000002eb00441f9800f7
:101d2c000002eb00541f98000002eb00641f9800a7
:101d3c000002eb00741f98000002eb0004279800cf
:101d4c001e027800ef0f52001f0036000002eb005d
:101d5c00240798000002eb00340798000002eb0007
:101d6c00440798000002eb00540798000002eb00b7
:101d7c00640798000002eb00740798000002eb0067
:101d8c00040f98000002eb00140f98000002eb0007
:101d9c00240f98000002eb00340f98000002eb00b7
:101dac00440f98000002eb00540f98000002eb0067
:101dbc00640f98000002eb00740f98000002eb0017
:101dcc00041798000700370064024700840078006d
:101ddc0010002000ab1c070000027800e00f52003e
:101dec00b4ff3200e479210014079800de02900061
:101dfc001e029000050a78001e0290000482e80082
:101e0c0014079800ce0290001e029000050a78007c
:101e1c001e0290000482e80014079800be02900095
:101e2c001e029000050a78001e0290000482e80051
:101e3c0014079800ae0290001e029000050a78006c
:101e4c00c47a210014079800fe0290001e02900034
:101e5c00050a78001e0290000482e800140798001e
:101e6c00ee0290001e029000050a78000002eb00c2
:101e7c0014be88006022b80084bd880095bd88001f
:101e8c000e0a9000f44288006480200054448800bc
:101e9c00a4ff210064448800a08820003ef90700bc
:101eac00f4282000a4448800d4a32000b444880063
:101ebc00d4a32000c4448800a188200040892000bd
:101ecc0040f9070004802000d443880044ff21001f
:101edc00e4438800a08720002ff90700f428200095
:101eec0024448800d4a3200034448800d4a32000c8
:101efc0044448800a18720004088200031f9070065
:101f0c000060fe0044062000f454880004d0270032
:101f1c00245588008080eb000080eb00bc0c07008f
:101f2c0000027800445588000400220054558800b3
:101f3c000002eb0064558800a12a29000080eb0008
:101f4c00b30c0700000278008455880004002200be
:101f5c00945588000002eb00a4558800845580003d
:101f6c008400780000532700e40c0700000278007e
:101f7c00b45588000100220000802200a40c070048
:101f8c0000027800e45588000100220000002100c6
:101f9c009f0c070000027800f4558800843e200056
:101fac00045688002403200014568800841a260046
:101fbc0084568800311e29000080eb00940c070029
:101fcc0000027800a456880004002200b456880051
:101fdc000002eb00c456880011b52a000080eb000b
:101fec008b0c070000027800e456880004002200e5
:101ffc00f45688000002eb0004578800e456800079
:10200c008400780000592600bc0c07000002780000
:10201c001457880001002200303322007c0c07008a
:10202c00000278004457880001002200c0cc210037
:10203c00770c0700000278005457880004fa20003f
:10204c006457880024032000745788002403200060
:10205c00c457880004dc2500f45788008080eb000e
:10206c000080eb006a0c070000027800145888000e
:10207c0004002200245888000002eb003458880029
:10208c00a12a29000080eb00610c070000027800f7
:10209c005458880004002200645888000002eb00a9
:1020ac00745888005458800084007800801a2600e8
:1020bc00920c07000002780084588800010022006e
:1020cc0000002400520c070000027800b45888006d
:1020dc0001002200000021004d0c070000027800d6
:1020ec00c458880004fa2000d4588800840c2000be
:1020fc00e458880004dc250054598800211e29006e
:10210c000080eb00420c0700000278007459880034
:10211c0004002200845988000002eb0094598800c6
:10212c0011b52a000080eb00390c07000002780082
:10213c00b459880004002200c45988000002eb0046
:10214c00d4598800b459800084007800802c230076
:10215c006a0c070000027800e45988000100220094
:10216c00008022002a0c070000027800145a880014
:10217c000100220000802100250c070000027800dd
:10218c00245a880004fa2000345a8800840c200059
:10219c00445a8800984080009440800004007800e5
:1021ac00e11507000002780008017800840078002f
:1021bc0080af20002504070084702000945a88000a
:1021cc00c4a22100c45a88008000eb000080eb0000
:1021dc000f0c070000027800e45a8800040022006b
:1021ec00f45a88000002eb00045b8800215e290091
:1021fc000080eb00060c070000027800245b8800ce
:10220c0004002200345b88000002eb00445b880071
:10221c00245b80008400780000c22100370c07008a
:10222c0000027800545b8800010022009019220003
:10223c00f70b070000027800845b88000100220085
:10224c0060e62100f20b070000027800945b880026
:10225c00843e2000a45b8800441f2000b45b8800ef
:10226c000002eb00245c88008000eb000080eb0097
:10227c00e70b070000027800445c88000400220091
:10228c00545c88000002eb00645c88008000eb006a
:10229c000080eb00de0b070000027800845c8800f5
:1022ac0004002200945c88000002eb00a45c88000f
:1022bc00845c8000840078000000eb000f0c0700a9
:1022cc0000027800b45c8800010022000000eb00e2
:1022dc00cf0b070000027800e45c880001002200ac
:1022ec000000eb00ca0b070000027800f45c8800c9
:1022fc000002eb00045d88000002eb00145d880016
:10230c0084702000645d880004772100945d88004f
:10231c008000eb000080eb00bd0b07000002780092
:10232c00b45d880004002200c45d88000002eb004c
:10233c00d45d8800215e29000080eb00b40b0700ff
:10234c0000027800f45d880004002200045e88001e
:10235c000002eb00145e8800f45d800084007800bd
:10236c00a0862100e50b070000027800245e88009f
:10237c000100220090192200a50b07000002780032
:10238c00545e88000100220060e62100a00b0700cb
:10239c0000027800645e8800843e2000745e880031
:1023ac00441f2000845e88000002eb00f45e88006d
:1023bc008000eb000080eb00950b0700000278001a
:1023cc00145f880004002200245f88000002eb00e8
:1023dc00345f88008000eb000080eb008c0b070062
:1023ec0000027800545f880004002200645f8800bb
:1023fc000002eb00745f8800545f8000840078005a
:10240c000000eb00bd0b070000027800845f880021
:10241c00010022000000eb007d0b07000002780099
:10242c00b45f8800010022000000eb00780b07006d
:10243c0000027800c45f88000002eb00d45f8800c3
:10244c000002eb00e45f88000002eb00b449880056
:10245c0084a32400e4498800517125000080eb001e
:10246c006b0b070000027800044a8800040022006d
:10247c00144a88000002eb00244a8800811a2600c6
:10248c000080eb00620b070000027800444a8800d1
:10249c0004002200544a88000002eb00644a8800c1
:1024ac00444a800084007800c0c22400930b0700cb
:1024bc0000027800744a8800010022000000eb0042
:1024cc00530b070000027800a44a88000100220088
:1024dc000000eb004e0b070000027800b44a8800a5
:1024ec000002eb00c44a88000002eb00d44a8800ca
:1024fc000002eb00444b88008000eb000080eb00f6
:10250c00430b070000027800644b88000400220093
:10251c00744b88000002eb00844b88008000eb00b9
:10252c000080eb003a0b070000027800a44b8800f7
:10253c0004002200b44b88000002eb00c44b88005e
:10254c00a44b8000840078000000eb006b0b0700ac
:10255c0000027800d44b8800010022000000eb0040
:10256c002b0b070000027800044c880001002200ad
:10257c000000eb00260b070000027800144c8800ca
:10258c000002eb00244c88000002eb00344c880065
:10259c000271220001652400609320002b030700c8
:1025ac000002eb00544f880084a32400844f880061
:1025bc00517125000080eb00150b0700000278001c
:1025cc00a44f880004002200b44f88000002eb00e6
:1025dc00c44f8800811a26000080eb000c0b07000a
:1025ec0000027800e44f880004002200f44f8800b9
:1025fc000002eb0004508800e44f80008400780057
:10260c00c0c224003d0b0700000278001450880063
:10261c00010022000000eb00fd0a07000002780018
:10262c0044508800010022000000eb00f80a07006b
:10263c0000027800545088000002eb0064508800bf
:10264c000002eb00745088000002eb00e45088009c
:10265c008000eb000080eb00ed0a07000002780020
:10266c000451880004002200145188000002eb0081
:10267c00245188008000eb000080eb00e40a070086
:10268c000002780044518800040022005451880054
:10269c000002eb00645188004451800084007800f3
:1026ac000000eb00150b0700000278007451880045
:1026bc00010022000000eb00d50a070000027800a0
:1026cc00a4518800010022000000eb00d00a070092
:1026dc0000027800b45188000002eb00c45188005d
:1026ec000002eb00d45188000271220001e82300a3
:1026fc00a09e2000d50207000002eb00844c88004d
:10270c00846d2d00b44c88008000eb000080eb0041
:10271c00bf0a070000027800d44c88000400220095
:10272c00e44c88000002eb00f44c8800118a2d0068
:10273c000080eb00b60a070000027800144d8800f8
:10274c0004002200244d88000002eb00344d880068
:10275c00144d80008400780000b22c00e70a0700ba
:10276c0000027800444d8800010022000080220005
:10277c00a70a070000027800744d880001002200af
:10278c0090992100a20a070000027800844d88006d
:10279c00843e2000944d880044012000a44d880004
:1027ac00c4ce2200144e88008000eb000080eb00a9
:1027bc00970a070000027800344e880004002200bb
:1027cc00444e88000002eb00544e8800b1112400e6
:1027dc000080eb008e0a070000027800744e88001f
:1027ec0004002200844e88000002eb00944e880006
:1027fc00744e800084007800400d2300bf0a07004f
:10280c0000027800a44e88000100220090192200da
:10281c007f0a070000027800d44e880001002200d5
:10282c0060e621007a0a070000027800e44e880076
:10283c00843e2000f44e880044012000044f8800a0
:10284c000002eb00344f88000082eb00444f8800fc
:10285c000002eb00d44d88000082eb00e44d8800b0
:10286c000002eb0024528800846d2d005452880025
:10287c008000eb000080eb00650a07000002780086
:10288c007452880004002200845288000002eb007d
:10289c0094528800118a2d000080eb005c0a07001e
:1028ac0000027800b452880004002200c452880050
:1028bc000002eb00d4528800b452800084007800ef
:1028cc0000b22c008d0a070000027800e452880048
:1028dc0001002200008022004d0a0700000278004f
:1028ec00145388000100220090992100480a070027
:1028fc000002780024538800843e20003453880062
:10290c004401200044538800c4ce2200b4538800f4
:10291c008000eb000080eb003d0a0700000278000d
:10292c00d453880004002200e45388000002eb001a
:10293c00f4538800b11124000080eb00340a070026
:10294c0000027800145488000400220024548800eb
:10295c000002eb003454880014548000840078008a
:10296c00400d2300650a07000002780044548800db
:10297c000100220090192200250a070000027800ad
:10298c00745488000100220060e62100200a070030
:10299c000002780084548800843e200094548800ff
:1029ac0044012000a45488000002eb00d454880099
:1029bc000082eb00e45488000002eb0074538800a2
:1029cc000082eb008453880055168000040420001c
:1029dc000482620004f0a7000402ea000402e90089
:1029ec004f22de00044278000482fb006102620088
:1029fc004622dd0056168000f5fb2f008502630091
:102a0c000502720054168800d762a900d602a800ed
:102a1c00d742a900d702a900c4e2a800cac2a900e3
:102a2c00cbe2a800c4c2a900d042a800d662a8007c
:102a3c00e2a2a800cae2a900ca42a900e282a80048
:102a4c00cbc2a900d6c2a800d6a2a800c522a90054
:102a5c00d362a900d202a900d242a800cdc2a8001c
:102a6c00cda2a800d222a800d322a900d342a9004b
:102a7c00d302a900c182a800c1a2a800c0e2a9008b
:102a8c00c6c2a900c7e2a900c1c2a800c1e2a80041
:102a9c00e5a2a800e582a800e5c2a800e5e2a8002e
:102aac00d282a800d2e2a800d382a800d3a2a800a8
:102abc00cc62a800cc82a800e502a800e522a80000
:102acc00c142a800c0c2a900cc42a900d262a90090
:102adc00dea2a900c6e2a900c642a900de82a900b6
:102aec00cde2a900c7c2a900d2c2a900d2a2a900f6
:102afc00c122a9008e00a9008600a900e404800070
:102b0c000400a1000410a0000420a000e40488002c
:102b1c008220a9008c60a9008460a900a404800014
:102b2c0004c0a00004d0a10004e0a000a40488000c
:102b3c008d60a9008560a900c404800004c0a000b9
:102b4c0004d0a00004e0a100c404880085e0a90022
:102b5c00c200a8008de0a800d404800004c0a1002d
:102b6c0004d0a10004e0a000d40488008d20a900aa
:102b7c00c40480000440a0000450a1000460a00024
:102b8c00c40488008d40a900c40480000440a00047
:102b9c000450a1000460a000c40488008940a9006e
:102bac009140a900440580000480a0000490a0007e
:102bbc0004a0a00044058800043a80000480a10011
:102bcc000490a10004a0a00004b0a000043a880066
:102bdc00f4002f0034108800140620002410880004
:102bec00f1fb2d00b0532b0008f60700f1fb2d0074
:102bfc00a0f32b0008f6070004102000841c8800aa
:102c0c0004102000842288000042eb00044378006a
:102c1c00a58d2000864a78000042eb000443780022
:102c2c00b58d2000864a78000042eb000443780002
:102c3c00c5912000864a78000042eb0004437800de
:102c4c00d5912000864a780004f02f00641088008b
:102c5c0004042000a4108800f47527007410880068
:102c6c00d4fa25002408880054fa2500840888002a
:102c7c0094d02300640888000002eb00340888001c
:102c8c0084c0a900d4fa2d009408880044422f0077
:102c9c007408880054f82500f4088800d4f925003d
:102cac00040988000002eb00c408880086c0a90053
:102cbc00440d2300e4088800f40d2000f44888003b
:102ccc00e40d2000144988000402200024498800e7
:102cdc000002eb003449880014c0b30004437800b0
:102cec0085922000864a780004022000044988005e
:102cfc00e0912000f71a070004c4b30004437800e5
:102d0c0005932000864a78000042eb0004437800cb
:102d1c0015932000864a780004022000544988004c
:102d2c0004022000644988000402200074498800d1
:102d3c0000c2eb000443780025932000864a7800fb
:102d4c0000c2eb000443780035932000864a7800db
:102d5c00941507004f0478000080fa00000006006c
:102d6c000200fa000002eb00040f78000002eb00f6
:102d7c00f4b988004007a90040e7a90040c7a900a2
:102d8c004027a90041e7a9004087a90041c7a90035
:102d9c000002eb00e4bd88000002eb0004be8800da
:102dac00e0912000021b07000041eb00a1c0b30022
:102dbc00a09220002f1f0700000278001e0f720047
:102dcc000041eb00a1c0b300a0922000291f070016
:102ddc00000278001e0f72000041eb00a1c0b3008e
:102dec00a0922000231f0700000278001e0f720023
:102dfc0024932000144278000441780041c1b300b0
:102e0c00a09220001b1f0700000278001e0f72000a
:102e1c0034932000144278000441780051c1b3006f
:102e2c00a0922000131f0700000278001e0f7200f2
:102e3c0082cfb3008040eb00a09220000d1f070052
:102e4c00000278001e0f72000041eb0011c0b300ad
:102e5c00a0922000071f0700000278001e0f7200ce
:102e6c000041eb0021c0b300a0922000011f07001d
:102e7c00000278001e0f72000041eb0031c0b3005d
:102e8c00a0922000fb1e0700000278001e0f7200ab
:102e9c0004f02f009e02620004a02f00848f5200c9
:102eac0007003a00f5b98000040820000502720002
:102ebc00f4b9880064b980000402e80064b98800a1
:102ecc008040eb00a09220001c1f0700000278003d
:102edc00040f7800f40f20009e026200840f200083
:102eec00848f520007003200f5b9800004082000de
:102efc0005027200f4b9880064b980000402e8008d
:102f0c0064b98800f3070700fa070700fd070700fc
:102f1c000080fa00000006000600fa0004be8000e3
:102f2c000402e80004be8800cbe2a900a0872000c0
:102f3c0019f50700a088200017f5070042062000ad
:102f4c004106200060932000f2000700420620009a
:102f5c0041062000a09e2000ee0007004206200043
:102f6c004106200080af2000ea0007004206200046
:102f7c0041062000e0a92000e600070042062000e0
:102f8c0041062000c0ba2000e200070042062000e3
:102f9c004106200020b52000de000700d107070005
:102fac00c80707007a0807008c60a9005516800036
:102fbc00040420000482620004f0a7000402ea006a
:102fcc000402e9004f22de00044278000482fb0078
:102fdc00610262004622dd0056168000f5fb2f00d0
:102fec008502630005027200541688007b060700f8
:102ffc0055168000040420000482620004f0a7002f
:10300c000402ea000402e9004f22de0004427800c8
:10301c000482fb00610262004622dd00561680002d
:10302c00f5fb2f0085026300050272005416880020
:10303c00351780000400240004826200e00f520067
:10304c0014003a00d442800051c3200004007800e0
:10305c00aa08070000027800040f78000001eb00ba
:10306c009e0078006093200078000700e442800006
:10307c0051c3200004007800a0080700000278006b
:10308c00040f78000001eb009e007800a09e200049
:10309c006e0007004484200014427800e04f520078
:1030ac000d003a00c449800004007800e60b0700cc
:1030bc0000027800140798001e009000041207000c
:1030cc0000027800240798001e019000ae009000ca
:1030dc00e0a920005d0007005516800004042000c4
:1030ec000482620004f0a7000402ea000402e90072
:1030fc004f22de00044278000482fb006102620071
:10310c004622dd0056168000f5fb2f008502630079
:10311c000502720054168800c8010700551680007d
:10312c00040420000482620004f0a7000402ea00f8
:10313c000402e9004f22de00044278000482fb0006
:10314c00610262004622dd0056168000f5fb2f005e
:10315c0085026300050272005416880057050700ab
:10316c0055168000040420000482620004f0a700bd
:10317c000402ea000402e9004f22de000442780057
:10318c000482fb00610262004622dd0056168000bc
:10319c00f5fb2f00850263000502720054168800af
:1031ac0044c4b3000443780085852000864a780027
:1031bc004e13070064c0b3000443780085852000db
:1031cc00864a78000080fa00000006000000fa0031
:1031dc0011e1a80021e1a800f4cf27000415880014
:1031ec0084fe20001415880064342e0024158800f9
:1031fc0034fe2e003415880074002c004415880011
:10320c0084ff230054158800a1e2a8008560a90062
:10321c008d60a8008540a9008d40a8008520a900dc
:10322c008d20a8000de2a800e282a8000042eb006d
:10323c0004437800a57a2100864a780051140700cf
:10324c000060fe000080fa00000006000600fa0094
:10325c00000f780011079800220798001e027800d2
:10326c00b40290001e029000848f520008003100be
:10327c001e027800b40290001e027800150298001d
:10328c00b4b980000402e800b4b988000300370028
:10329c001e0278009e029000150298001e02780013
:1032ac00941a90002e029000848f52000800310076
:1032bc001e027800941a90001e0278007512980075
:1032cc00b4b980000402e800b4b9880003003700e8
:1032dc001e027800ae0290007512980085852000c1
:1032ec009542780044c2b30084cf520004003200ef
:1032fc0042062000410620001e0078000500070051
:10330c001e007800540007000060fe000080fa00e8
:10331c00000006000a00fa00200798003107980008
:10332c0042079800be0290004e029000848f52001b
:10333c00090039002e029000940290002e02900099
:10334c00250298002e029000f41290002e0290009c
:10335c00051a98003c0037002e02900014029000d1
:10336c0005002000048fbe003e02900005002000e6
:10337c001e03900004b3b900060378009e03780086
:10338c0005b8b90080037800070343009e0378005a
:10339c00040278000722b800050343008602780077
:1033ac00048fbe00048fbe004e029000050020006a
:1033bc000401be001e00be0042f407000002be0065
:1033cc00048fbe009e0278002e0290002502980009
:1033dc002e0290007412900005002000048fbe0095
:1033ec003e029000050020001e03900004b3b900bb
:1033fc00060378009e03780005b8b90080037800b6
:10340c00070343009e037800040278000722b800eb
:10341c000503430086027800048fbe00048fbe00b3
:10342c004e029000050020000401be001e00be00ec
:10343c0024f407000002be00048fbe009e02780038
:10344c002e029000051a98002e0090000200070032
:10345c000080fa00000006000600fa002007980021
:10346c002e029000d40290002e02900024029000b4
:10347c008500780004007800a0070700000278009f
:10348c00040f78002e0290006402900084007800f3
:10349c001e0078009907070000027800040f7800de
:1034ac002e02900074029000e00f52000c003400c9
:1034bc002e029000740290000482ea009e0f5200cb
:1034cc00030031000082eb00040f78000f0037007e
:1034dc002e029000740290001e0f42000b00370069
:1034ec002e029000740290000402ea009e0f52001b
:1034fc00030036000002eb00040f780003003700d5
:10350c002e029000740290001e0f42002e029000ba
:10351c009e027800450298002e029000b41a90008a
:10352c002e029000041a90008500780004007800a8
:10353c007207070000027800140798002e02900012
:10354c00441a9000840078001e0090006b0707005e
:10355c0000027800140798002e029000541a900074
:10356c00e00f52000f0034002e029000541a90000d
:10357c008482ea001e029000848f52000300310006
:10358c000082eb0014079800150037002e02900003
:10359c00541a90009e029000048242001407980076
:1035ac000f0037002e029000541a90000402ea001b
:1035bc00840278001e029000848f520003003600b3
:1035cc000002eb0014079800050037002e02900053
:1035dc00541a90009e029000048242001407980036
:1035ec002e0290009e029000251a98002e02900048
:1035fc00940a90002e02900024029000850078001e
:10360c00040078003d07070000027800040f7800e2
:10361c002e029000240a9000840078001e0078008e
:10362c003607070000027800040f78002e02900085
:10363c00340a9000e00f52000c0034002e0290006f
:10364c00340a90000482ea009e0f520003003100fd
:10365c000082eb00040f78000f0037002e02900060
:10366c00340a90001e0f42000b0037002e0290000f
:10367c00340a90000402ea009e0f52000300360048
:10368c000002eb00040f7800030037002e029000bc
:10369c00340a90001e0f42002e029000740a900013
:1036ac00840078001e0078001407070000027800e0
:1036bc00ae029000d40a98002e02900004129000e2
:1036cc00840078001e0078000c07070000027800c8
:1036dc00ae029000e40a98002e029000d40a9000ea
:1036ec002e02900014129000848f520004003100be
:1036fc002e029000941290002e029000550a980011
:10370c002e029000f41a90002e029000041a9000e1
:10371c008500780004007800f806070000027800a5
:10372c00140798002e029000042290008400780068
:10373c001e009000f10607000002780014079800a4
:10374c002e02900014229000e00f52000f00340063
:10375c002e029000142290008482ea001e02900037
:10376c00848f5200030031000082eb001407980094
:10377c00150037002e029000541a90009e02900003
:10378c0004824200140798000f0037002e029000ac
:10379c00142290000402ea00840278001e029000b9
:1037ac00848f5200030036000002eb0014079800cf
:1037bc00050037002e029000142290009e0290000b
:1037cc0004824200140798002e02900054229000ac
:1037dc00840078001e009000c806070000027800e4
:1037ec00ae029000b42298002e0290006422900049
:1037fc00840078001e009000c006070000027800cc
:10380c00ae029000c42298002e029000b4229000c8
:10381c002e02900074229000848f5200040031001c
:10382c002e029000f42290002e0290003522980077
:10383c000060fe000080fa00000006001200fa0092
:10384c00a4002000e4bd8800a45d8000140798004b
:10385c00d45a80002407980034558000340798000f
:10386c009456800044079800045880005407980030
:10387c006459800064079800f4498000740798002c
:10388c00944f8000040f980014c0b300044f7800cc
:10389c000042eb0014479800100037000e82e8003d
:1038ac0084007800e0912000cd18070000427800d9
:1038bc00044f78001e4290000442e8001447980020
:1038cc001e427800e04f520003003200a4b9800081
:1038dc000402e800a4b988000060fe009e42780053
:1038ec000582fb000402ea004f22de0084427800cd
:1038fc0014c0b3001e439000f34f53000100360078
:10390c000042eb0004c26200e04f5200e3ff3a00b9
:10391c001e429000f34f52000200360000022000bd
:10392c00ed1407000080fa00000006000c00fa00fd
:10393c0094002000e4bd8800043a8000610262001b
:10394c00e00f520003003200f4b980000440a000e4
:10395c00f4b98800053a8000040820000482620053
:10396c00e00f520004003200f5b980000402200080
:10397c0005027200f4b98800053a800004042000a6
:10398c0004826200e00f520004003200f5b980009e
:10399c000404200005027200f4b98800043a800087
:1039ac0062026200e00f520003003200f4b98000a2
:1039bc000400a000f4b98800053a80000400280037
:1039cc0004826200e00f520003003200f4b9800060
:1039dc000410a000f4b98800043a80007002620060
:1039ec00e00f520003003200f4b980000420a00064
:1039fc00f4b98800053a80000400240004826200b7
:103a0c00e00f520003003200f4b980000430a00033
:103a1c00f4b988000060fe00350480000404200026
:103a2c0004826200e00f52000401320086c0a9003b
:103a3c00644380000402e80064438800d4742100cd
:103a4c0014427800e04f520024003200d47421005c
:103a5c0014427800e24f52001a003e000002eb00c4
:103a6c00040f7800130037001e0278008402420015
:103a7c00047521000482420014027800e00f520009
:103a8c000b0034001e0278008402420004752100f1
:103a9c0004824200140278008402e9001e027800bd
:103aac00040342000475210004024300050a780057
:103abc001e0fe8001e027800e20f5200eaff3600eb
:103acc000600370074ba8000e00f52000300340087
:103adc0074ba80000402e90074ba88005443800070
:103aec000402e8006f0262005443880054438000d3
:103afc00e00f520015003a00551680000408200013
:103b0c0004826200e00f520002003200cae2a900f7
:103b1c0001003700cae2a800b5428000d40720009b
:103b2c0004aab900040278008402d100a4428000e7
:103b3c0085007800040078009606070000027800e3
:103b4c00a44288000002eb00b442880044782d00a7
:103b5c00750120001407980025079800e5bc80002b
:103b6c0084152000848f520002003e009415200022
:103b7c00e4bc8800e4bc8000050020000401be0009
:103b8c001e009000ae0090004ef207000002be0036
:103b9c0014079800250798001e029000f441880035
:103bac00250480000408200004826200e00f52000b
:103bbc00020032000002eb00f4418800351780004f
:103bcc000400220004826200e00f52000600320062
:103bdc0054428000e00f520003003200f111070044
:103bec00e8110700df1107003517800004002200e0
:103bfc0004826200e00f520003003a00140020001f
:103c0c0054428800020037000002eb005442880046
:103c1c004e0207004484200014427800e04f52000a
:103c2c000d003a00c4498000040078000609070022
:103c3c0000027800340798003e009000240f070023
:103c4c0000027800040f78003e0190009e0078007e
:103c5c00e0a920007dfd0700848520001442780037
:103c6c00f44f520005003200858520009542780003
:103c7c0044cab30084cf520018003a004206200018
:103c8c008000eb0060932000a2fd0700420620009c
:103c9c008000eb00609320009efd07004206200090
:103cac008000eb0080af20009afd07004206200048
:103cbc008000eb00e0a9200096fd070042062000e2
:103ccc008000eb00c0ba200092fd070042062000e5
:103cdc008000eb0020b520008efd0700831007004c
:103cec002314070000027800e00f5200030032009a
:103cfc00c4e2a900d042a90002003700c4e2a80027
:103d0c00d042a800e4842000144278000442e80069
:103d1c0004437800e5842000864a7800e48420007f
:103d2c00144278006f42620004437800e58420005e
:103d3c00864a7800e484200014427800e04f520058
:103d4c0001003a003f000700a10007008585200014
:103d5c009542780044c4b30084cf520005003a0069
:103d6c00250480000404200004826200e00f52004d
:103d7c0004003200b1fe0700670407000002eb00ec
:103d8c00d4418800d4418000e00f520029003a0051
:103d9c0035418000c4bc8000848f52000300310088
:103dac00344180000402e80034418800b4bc800037
:103dbc000500200044079800550798003441800006
:103dcc00050020005e03900004b3b90006037800e0
:103ddc00ce03900005b8b9008003780007034300b8
:103dec00ce039000040278000722b80005034300bc
:103dfc0086027800440798005507980044079800fd
:103e0c0055079800c4bc8000050020000401be00ca
:103e1c004e009000de009000aaf107000002be00e8
:103e2c0044079800550798004e0290000441880002
:103e3c00020037000002eb00344188000080fa00d9
:103e4c00000006000200fa0084002000e4bd880097
:103e5c00f55d8000845d80008500780004007800aa
:103e6c002605070000027800040f7800045e80002d
:103e7c00840078001e0078002005070000027800fe
:103e8c00040f7800145e80001e0f42001e027800a2
:103e9c000402d10014448800e45d80000402d100c7
:103eac0004448800a08720001ff10700255b8000d8
:103ebc00b45a800085007800040078000f050700d4
:103ecc0000027800040f7800345b800084007800d6
:103edc001e0078000905070000027800040f780026
:103eec00445b80001e0f42001e0278000402d100c9
:103efc0094448800145b80000402d1008444880040
:103f0c00a088200008f10700f4438000040f78001b
:103f1c001e027800e00f520002003d000002eb0090
:103f2c00040f78001e02780004024200040f78008f
:103f3c0004d027009e027800848f520002003600c5
:103f4c0004d02700040f78000002eb00c45d880049
:103f5c000002eb00b45d88001e027800d45d88007e
:103f6c0074448000040f78001e027800e00f5200a9
:103f7c0002003d000002eb00040f78001e027800e6
:103f8c0004024200040f780004d027009e0278003f
:103f9c00848f52000200360004d02700040f7800f2
:103fac000002eb00f45a88000002eb00e45a88008f
:103fbc001e027800045b880020b5200026fd070057
:103fcc00c0ba200024fd07000080fa0000000600a3
:103fdc000c00fa00445880008400780080af200068
:103fec005c0e07000002780005002000048fbe0064
:103ffc009e0290000471220004aab9000403780008
:10400c001e0278006022b900040278000403430009
:10401c009e02780004712200042ab80005034300b4
:10402c0086027800048fbe00048fbe00a459800065
:10403c008400780080af20007c0e0700000278001e
:10404c00050020000401be001e00be001df107008b
:10405c000002be00048fbe001e027800a44388003c
:10406c0074438000e00f5200b6003a008442800096
:10407c0005002000048fbe00f441800005002000e4
:10408c001e03900004b3b900060378009e03780069
:10409c0005b8b90080037800070343009e0378003d
:1040ac00040278000722b80005034300860278005a
:1040bc00048fbe00048fbe001e02be004a2bdd0022
:1040cc004622de0004027300c62ade00048fbe0006
:1040dc001e0290006d22b900040378001e027800c5
:1040ec006022b90004027800040343009e027800a9
:1040fc00d4002000042ab80005034300860278008f
:10410c00048fbe00048fbe001e02be00452bdd00d6
:10411c004b22de0004027300cb2ade00048fbe00ab
:10412c00e4ff2f00050020001e03be00840f530087
:10413c00858f5b00030036000082eb009442880000
:10414c00020037001e0278009442880064b8800098
:10415c0005042000850f52001400320005042000d5
:10416c00850f520007003e0005022000850f52000b
:10417c001c00320005032000850f52000f00320096
:10418c002e00370005032100850f52001d00320060
:10419c0005042100850f5200160032000502210093
:1041ac00850f520021003200240037009442800019
:1041bc0005002000048fbe002400370075b8800075
:1041cc00944280000001eb00850078000400780028
:1041dc003b1b07000002780005002000048fbe0086
:1041ec001a0037009442800005002000048fbe00a6
:1041fc00160037009442800005002000048fbe009a
:10420c001200370085b88000944280000001eb005a
:10421c008500780004007800291b07000002780054
:10422c0005002000048fbe00080037009442800077
:10423c0005002000048fbe0004003700944280006b
:10424c0005002000048fbe00000000001e02be000e
:10425c00492bdd004722de0004027300c72ade0072
:10426c00048fbe009e027800f403200004826200da
:10427c00440798004e029000240798002e029000ec
:10428c00e00f520002003c000002eb0024079800f3
:10429c00ae029000e4032000848f52000200340030
:1042ac00f403200024079800ae0290004507980004
:1042bc00ce029000f40320000482620044079800b0
:1042cc00858520009542780044c4b30084cf520009
:1042dc000f003200858520009542780044c3b3005e
:1042ec0084cf52000a003200858520009542780068
:1042fc0054c3b30084cf52000500320085852000e2
:10430c009542780084cab30084cf520044003a002e
:10431c004e02900084024200e451280004824200c4
:10432c00140378005607980042062000de00900027
:10433c0080af2000f7fb07005e02900024b98800d4
:10434c00370037006543800044062000848f5200fc
:10435c0003003600854380003507980002003700c3
:10436c00964380003607980034b980000402e800b8
:10437c0034b9880035b9800034062000848f52008f
:10438c00270036000002eb0034b988003e02900092
:10439c00e5fc2f0084824200a4438000848f5200ed
:1043ac000900360024b980000402e80024b9880012
:1043bc0025b9800044062000848f5200020036008c
:1043cc004406200024b988003e02900025032000fa
:1043dc0084824200a4438000848f52000600310086
:1043ec0024b98000e00f52000300320024b9800091
:1043fc000402e90024b9880024b98000fd0f5200a2
:10440c0002003e00e401200024b9880024b9800099
:10441c00420620008400780080af2000bdfb07001e
:10442c000080fa00000006000400fa00740020006e
:10443c00e4bd880025168000042020000482620060
:10444c00e00f520037003200d6c2a900800c2000c9
:10445c00010020000d1b070021c0b3000000eb0081
:10446c00f81807000002be00048fbe0004002000f4
:10447c00151121001e03be00840f5300858f5b00b5
:10448c0006003a000002eb00b443880084b98000b7
:10449c000402e80084b98800020037001e0278008c
:1044ac00b4438800d6c2a800800c20000100200074
:1044bc00f61a0700d6a2a900800c200001002000eb
:1044cc00f21a070021c0b3000000eb00dd18070052
:1044dc000002be00048fbe00040020001511210054
:1044ec001e03be00840f5300858f5b0006003a004c
:1044fc000002eb00c443880084b980000402e80089
:10450c0084b98800020037001e027800c44388007a
:10451c00d6a2a800800c200001002000db1a0700a6
:10452c00070037000002eb00c44388000002eb00d8
:10453c00b443880094b980000402e80094b9880060
:10454c00c522a9000080fa00000006000200fa0053
:10455c0064002000e4bd880080d02000d91a070038
:10456c0000027800040f7800d44280009e0078008e
:10457c00040078000704070000027800d442880089
:10458c0080e02000cf1a070000027800040f7800aa
:10459c00e44280009e00780004007800fd030700d0
:1045ac0000027800e44288003517800004002400e3
:1045bc0004826200e00f520002003a00e4428000e4
:1045cc00f440880080102100be1a07000002780019
:1045dc00040f7800d45680009e0078000400780008
:1045ec00ec03070000027800d456880080202100dc
:1045fc00b41a070000027800040f7800745580008c
:10460c009e00780004007800e203070000027800a6
:10461c007455880080402100aa1a07000002780017
:10462c00040f7800445880009e0078000400780045
:10463c00d80307000002780044588800803021001d
:10464c00a01a070000027800040f7800a45980001b
:10465c009e00780004007800ce030700000278006a
:10466c00a459880080502100961a07000002780097
:10467c00040f7800344a80009e0078000400780013
:10468c00c403070000027800344a880080602100cf
:10469c008c1a070000027800040f7800d44f8000b9
:1046ac009e00780004007800ba030700000278002e
:1046bc00d44f88000080fa00000006000600fa00c3
:1046cc00f4cf270004158800e4fd200014158800a1
:1046dc0064342e002415880034fe2e003415880016
:1046ec0074002c004415880004fc23005415880029
:1046fc00a1e2a8000002eb00040f78008000370054
:10470c0000000000151580000408200004826200df
:10471c00e00f5200fbff32000002eb001407980080
:10472c0034003700051480001e0278000403420098
:10473c0084f0200004024300050a78001514800060
:10474c001e0278000403420084002100040243008e
:10475c00050a7800251480001e027800040342002c
:10476c008410210004024300050a780035148000ef
:10477c001e0278000403420084202100040243003e
:10478c00050a7800451480001e02780004034200dc
:10479c008430210004024300050a7800551480007f
:1047ac001e027800040342008440210004024300ee
:1047bc00050a7800651480001e027800040342008c
:1047cc008450210004024300050a7800751480000f
:1047dc001e0278000403420084602100040243009e
:1047ec00050a78001e0fe8001e0290000402e80083
:1047fc00140798001e029000e70f5200c9ff360004
:10480c0000000000151580000408200004826200de
:10481c00e00f5200fbff3a000002eb001407980077
:10482c0034003700851480001e0278000403420017
:10483c0084f0200004024300050a780095148000df
:10484c001e0278000403420084002100040243008d
:10485c00050a7800a51480001e02780004034200ab
:10486c008410210004024300050a7800b51480006e
:10487c001e0278000403420084202100040243003d
:10488c00050a7800c51480001e027800040342005b
:10489c008430210004024300050a7800d5148000fe
:1048ac001e027800040342008440210004024300ed
:1048bc00050a7800e51480001e027800040342000b
:1048cc008450210004024300050a7800f51480008e
:1048dc001e0278000403420084602100040243009d
:1048ec00050a78001e0fe8001e0290000402e80082
:1048fc00140798001e029000e70f5200c9ff360003
:10490c00f40720009e027800848f52007cff360052
:10491c00a1e2a90080f02000ea190700000278004b
:10492c00240798002e029000145b88008000210060
:10493c00e419070000027800240798002e0290006a
:10494c00e45d880080102100de1907000002780069
:10495c00240798002e029000d45688008020210055
:10496c00d819070000027800240798002e02900046
:10497c007455880080402100d2190700000278008d
:10498c00240798002e0290004458880080302100a3
:10499c00cc19070000027800240798002e02900022
:1049ac00a459880080502100c61907000002780025
:1049bc00240798002e029000344a88008060210061
:1049cc00c019070000027800240798002e029000fe
:1049dc00d44f88000080fa00000006000600fa00a0
:1049ec00f4cf270004158800e4fd2000141588007e
:1049fc0064342e002415880034fe2e0034158800f3
:104a0c0074002c0044158800040320005415880001
:104a1c00a1e2a8000002eb00040f7800860037002a
:104a2c0000000000151580000408200004826200bc
:104a3c00e00f5200fbff32000002eb00140798005d
:104a4c0037003700051480001e0278000403420072
:104a5c0084d0200004024300050a7800151480005d
:104a6c001e0278000403420084e02000040243008c
:104a7c00050a78001e0fe800251480001e0278003d
:104a8c000403420084d0200004024300050a78008d
:104a9c00351480001e0278000403420084e02000dc
:104aac0004024300050a78001e0fe800451480003c
:104abc001e0278000403420084d02000040243004c
:104acc00050a7800551480001e0278000403420089
:104adc0084e0200004024300050a78001e0fe80061
:104aec00651480001e0278000403420084d020006c
:104afc0004024300050a7800751480001e02780039
:104b0c000403420084e0200004024300050a7800fc
:104b1c001e0fe8001e0290000402e8001407980023
:104b2c001e029000e30f5200c6ff3600000000008a
:104b3c00151580000408200004826200e00f52006a
:104b4c00fbff3a000002eb00140798003700370017
:104b5c00851480001e0278000403420084d02000db
:104b6c0004024300050a7800951480001e027800a8
:104b7c000403420084e0200004024300050a78008c
:104b8c001e0fe800a51480001e02780004034200ea
:104b9c0084d0200004024300050a7800b51480007c
:104bac001e0278000403420084e02000040243004b
:104bbc00050a78001e0fe800c51480001e0278005c
:104bcc000403420084d0200004024300050a78004c
:104bdc00d51480001e0278000403420084e02000fb
:104bec0004024300050a78001e0fe800e51480005b
:104bfc001e0278000403420084d02000040243000b
:104c0c00050a7800f51480001e02780004034200a7
:104c1c0084e0200004024300050a78001e0fe8001f
:104c2c001e0290000402e800140798001e02900077
:104c3c00e30f5200c6ff3600f40720009e027800f6
:104c4c00848f520076ff3600a1e2a90080d02000ac
:104c5c001c19070000027800240798002e0290000f
:104c6c00d442880080e0200016190700000278006a
:104c7c00240798002e029000e44288000080fa007d
:104c8c00000006000400fa0094028000040f780073
:104c9c00ff3ffc00140280000450a0000460a00040
:104cac000470a000140288001e0278009402880090
:104cbc000000880000000000000000000000000060
:104ccc00000000008c60a9008e00a90094028000f6
:104cdc0014079800ff3ffc00140280000450a10050
:104cec000460a1000470a100140288001e02900050
:104cfc00940288000000880003000700cbe2a800a3
:104d0c000080fa00000006002200fa00e47921007d
:104d1c00040f78001e0278001402780044079800f3
:104d2c001e8fe8001e0278001402780034079800e9
:104d3c001e8fe8001e0278001402780024079800e9
:104d4c001e8fe8001e0278001402780014079800e9
:104d5c00c47a2100040f78001e0278001402780037
:104d6c00640798001e8fe8001e0278001402780079
:104d7c00540798000e82e800840078001000200090
:104d8c00f31007000080fa00000006000000fa0093
:104d9c005c0007004f000700560007004206200089
:104dac008000eb00609320005af9070042062000b7
:104dbc008000eb006093200056f9070042062000ab
:104dcc008000eb0080af200052f907004206200063
:104ddc008000eb00e0a920004ef9070042062000fd
:104dec008000eb00c0ba20004af907004206200000
:104dfc008000eb0020b5200046f90700a0872000ba
:104e0c0065ed0700a088200063ed070005e1a9000f
:104e1c008e00a9008c60a9008600a9008460a900fe
:104e2c00c4c2a9000080fa00000006000000fa00cd
:104e3c003400070005e1a9008e00a9008c60a900d0
:104e4c008600a9008460a900c4c2a9000080fa00f1
:104e5c00000006000000fa00a08720004eed0700bd
:104e6c00a08820004ced0700420620008000eb00db
:104e7c00e0a9200027f90700420620008000eb0083
:104e8c0080af200023f90700420620008000eb00d1
:104e9c0020b520001ff90700420620008000eb001f
:104eac00c0ba20001bf907000e0007000500070020
:104ebc000002eb003408880084c0a9000080fa00ce
:104ecc00000006000000fa00d702a8000080fa00db
:104edc00000006000000fa00d702a9000080fa00ca
:104eec00000006000000fa00d722a8000080fa009b
:104efc00000006000000fa00d722a9000080fa008a
:104f0c00000006000000fa00d762a900d602a80033
:104f1c000080fa00000006000400fa000002eb001a
:104f2c00040f78000002eb001407980054002000d6
:104f3c00e4bd8800858520009542780044c3b30009
:104f4c0084cf52000f0032008585200095427800f6
:104f5c0044c4b30084cf52000a003200858520007f
:104f6c009542780084cab30084cf52000500320009
:104f7c00858520009542780054c3b30084cf52003d
:104f8c0005003a009e029000f4f72f0004826200a4
:104f9c0014079800040037009e02900004082000bb
:104fac00050272001407980004bb8000e00f520049
:104fbc00040032001e0290000400a00014079800a8
:104fcc00040037009e029000e4ff2f000482620070
:104fdc0014079800d4ba8000e00f5200020032008f
:104fec001e20a00002003700b4ff2f001e0f62002d
:104ffc0015ba800004f02f0004826200e00f52000a
:10500c00040032001e0290000440a0001407980017
:10501c00040037009e029000f4fe2f000482620010
:10502c001407980015ba8000f40f20000482620067
:10503c00e00f5200040032001e0290000410a00089
:10504c0014079800040037009e029000d4ff2f0034
:10505c00048262001407980045ba800004f02f0007
:10506c0004826200e00f5200020032001e00a00019
:10507c0002003700e4ff2f001e0f620045ba8000cb
:10508c00f40f200004826200e00f52000200320094
:10509c001e10a00002003700d4ff2f001e0f62006c
:1050ac00858520009542780044c4b30084cf52001b
:1050bc0004003a001e0290000420a000140798007f
:1050cc00040037009e029000b4ff2f00048262009f
:1050dc001407980024932000144278000482fb00eb
:1050ec009e0f5200110032001e027800044278001c
:1050fc000443780025932000864a780024932000ee
:10510c00144278000441780041c1b300a092200001
:10511c005816070000027800e00f5200030032001e
:10512c0064b980000402e80064b98800349320005c
:10513c00144278008482fb001e029000848f52007f
:10514c00110032001e0290000442780004437800e3
:10515c0035932000864a780034932000144278005e
:10516c000441780051c1b300a09220004116070001
:10517c0000027800e00f52000300320064b9800096
:10518c000402e80064b988000080fa000000060000
:10519c000000fa0015168000040022000482620050
:1051ac00e00f5200060032000042eb00044378008e
:1051bc00a5702100864a7800cbc2a90005003700f3
:1051cc0014c0b30004437800a5702100864a78000f
:1051dc00cbc2a800d762a800d602a90005e1a9009d
:1051ec000002eb00040888008460a9008c60a80011
:1051fc00741720001408880005e1a8000002eb00d9
:10520c003408880084c0a9000080fa000000060061
:10521c000a00fa0030079800410798003e029000ff
:10522c000500200014079800250798001e02900026
:10523c00ae029000c022dd0004002000140798008c
:10524c00250798004e029000050020000401be00c6
:10525c001e009000ae0090009aec07000002be0009
:10526c0014079800250798001e029000ae029000cb
:10527c004d2bdd004322de0004027300c32ade0046
:10528c0014079800250798001e039000ae039000a9
:10529c0004002000f5ff2f000600780007037800bb
:1052ac0084037800050278000700600004026300a4
:1052bc0005002000c022dd00040020000403be0015
:1052cc006102b8000403730085837300e00f530080
:1052dc00e08f5b00030032000082eb00040f7800cb
:1052ec00020037001e029000040f78001e027800a6
:1052fc00040078000080fa00000006000800fa00a4
:10530c0020079800310798002e029000050020001d
:10531c00048fbe003e029000050020001e0390008a
:10532c0004b3b900060378009e03780005b8b900f1
:10533c0080037800070343009e0378000402780082
:10534c000722b8000503430086027800048fbe00d4
:10535c00048fbe001e02be00432bdd004d22de007a
:10536c0004027300cd2ade00048fbe00f4ff2f0070
:10537c00050020001e03be00840f5300858f5b00c8
:10538c0006003600f4ff2f0005002000048fbe003d
:10539c00c4b980000402e800c4b988001e02780079
:1053ac00240798002e029000040078000080fa0078
:1053bc00000006000a00fa00300798004107980028
:1053cc003e029000e00f520002003a004e029000a4
:1053dc00340798003e029000050020001407980046
:1053ec0025079800ae029000f40f200004aab90023
:1053fc00040378001e0290006022b90004027800b9
:10540c00040343009e029000f40f2000042ab8000d
:10541c0005034300860278001407980025079800be
:10542c0014079800250798004e02900005002000f4
:10543c001e039000ae0390000602420087824a00d1
:10544c0014079800250798001e029000ae029000e9
:10545c00482bdd004822de0004027300c82ade005f
:10546c0014079800250798001e029000040f78007e
:10547c004e0290009e0f5200020036001e0fe800f4
:10548c00040037004e0290009e0f520001003100c4
:10549c001e0fe9001e027800040078000080fa005c
:1054ac00000006000a00fa00300798004107980037
:1054bc003e029000e00f520002003a004e029000b3
:1054cc00340798003e029000050020001407980055
:1054dc0025079800ae029000f403200004aab9003e
:1054ec00040378001e0290006022b90004027800c8
:1054fc00040343009e029000f4032000042ab80029
:10550c0005034300860278001407980025079800cd
:10551c0014079800250798004e0290000500200003
:10552c001e039000ae0390000602420087824a00e0
:10553c0014079800250798001e029000ae029000f8
:10554c004a2bdd004622de0004027300c62ade0070
:10555c0014079800250798001e029000040f78008d
:10556c004e0290009e0f5200020036001e0fe80003
:10557c00040037004e0290009e0f520001003100d3
:10558c001e0fe9001e027800040078000080fa006b
:10559c00000006000a00fa00300798004107980046
:1055ac003e029000e00f520002003a004e029000c2
:1055bc00340798003e029000050020001407980064
:1055cc00250798002e0290006f22b9000403780082
:1055dc001e0290006022b90004027800040343000c
:1055ec009e029000f4002000042ab800050343003a
:1055fc008602780014079800250798001407980075
:10560c00250798004e029000050020001e03900014
:10561c00ae0390000602420087824a0014079800ed
:10562c00250798001e029000ae0290004c2bdd0066
:10563c004422de0004027300c42ade001407980022
:10564c00250798001e029000040f78004e0290006f
:10565c009e0f5200020036001e0fe80004003700b7
:10566c004e0290009e0f5200010031001e0fe90007
:10567c001e027800040078000080fa00000006008a
:10568c00849fbe00861f78000000fa00d602a80096
:10569c0000000000000000000000000000000000fe
:1056ac00c522a8008600a9008e00a9004400200095
:1056bc00e4bd880005e1a9000002eb0004088800a5
:1056cc0084002000140888008c60a9008460a90064
:1056dc0005e1a8000002eb00e44188000000000096
:1056ec0004088000e10f5200fdff36001516800003
:1056fc000400210004826200e00f520003003a0013
:10570c0014002000e4418800010037000000000074
:10571c0004088000e20f5200fdff360015168000d1
:10572c000400210004826200e00f520003003a00e2
:10573c0014002000e4418800010037000000000044
:10574c0004088000e30f5200fdff360015168000a0
:10575c000400210004826200e00f520002003a00b3
:10576c0014002000e44188000002eb00b4408800e3
:10577c00a416800070026200e00f52000500320097
:10578c00a51680000408200004826200e00f52007d
:10579c000200320014002000b4408800e2a2a900ec
:1057ac0054088000e4bc88000002eb005408880018
:1057bc00250480000408200004826200e00f5200df
:1057cc000200320054422f00e4bc880084e0a9009f
:1057dc00000000002404800068026200e00f520008
:1057ec00fcff3200151680000400220004826200c7
:1057fc00e00f5200060032000042eb000443780038
:10580c00b5702100864a7800cbc2a900050037008c
:10581c0014c0b30004437800b5702100864a7800a8
:10582c00cbc2a800c4c2a900d602a90005e1a900f8
:10583c000002eb00040888008460a9008c60a800ba
:10584c00e41620001408880005e1a8000000000000
:10585c00a416800070026200e00f520004003a00af
:10586c0004088000f30f5200f9ff360001003700e6
:10587c0000000000a51680000408200004826200cd
:10588c00e00f52000300320004088000f30f5200b6
:10589c00f8ff360004088000f30f520003003600b6
:1058ac00e4b980000402e800e4b98800e2a2a80090
:1058bc00a416800085e0a9008470210014427800b1
:1058cc00e04f520003003200044280000402e80062
:1058dc000442880064428000e00f52000300320052
:1058ec000002eb00b44088000400370014c0b30081
:1058fc000443780085702100864a780014c0b300f8
:10590c000443780095702100864a78000080fa00e4
:10591c004f0378004f02be00004006003600f8002e
:10592c00809fbe00829fbe00849fbe00869fbe00eb
:10593c000200fa000042eb00044f78003400200013
:10594c00e4bd88008460a9008c60a90005e1a90071
:10595c00c474210014427800e04f520094003a00c5
:10596c000042eb00044f7800a41680006402620031
:10597c00e00f520021003200400620000100200000
:10598c00c2150700a416800064026200e00f5200ea
:10599c001a0032004006200001002000bb15070051
:1059ac00a416800064026200e00f52001300320063
:1059bc004006200001002000b4150700a41680004a
:1059cc0064026200e00f52000c003200400620001e
:1059dc0001002000ad150700a416800064026200cf
:1059ec00e00f52000500320014c0b300044f7800e1
:1059fc00b4ba80000402e800b4ba88001e427800f1
:105a0c00e04f520027003200d47421001442780079
:105a1c00e04f520007003a004406200084ba880088
:105a2c0014c0b30004437800d5742100864a780072
:105a3c001c003700d4742100144278000442e800a2
:105a4c0004437800d5742100864a7800d474210070
:105a5c0014427800e24f52000900360034c0b30003
:105a6c0004437800d5742100864a780014c0b30032
:105a7c0004437800c5742100864a78000900370079
:105a8c00d4742100144278000482fb000402e90063
:105a9c008402420004752100048242004506200065
:105aac00050a7800c474210014427800e04f5200bb
