:020000040000fa
:080000000001040000000000f3
:020000040000fa
:1000080000260000ac250000c4250000d82500000b
:10001800ec25000000260000002600000026000055
:10002800002600000026000000260000da23000059
:100038000026000000260000002600000026000020
:10004800002600005e3300008e3300004c240000c0
:100058000026000000260000002600004c250000b5
:10006800be22000000260000002600000026000036
:1000780000260000002600000026000000260000e0
:1000880000260000002600000026000000260000d0
:1000980000260000002600000026000000260000c0
:1000a80000260000002600000026000000260000b0
:1000b80000260000002600000026000000260000a0
:1000c80000260000002600009625000000260000fb
:1000d8000026000000260000002600000026000080
:1000e8000026000000260000002600000026000070
:0800f8000026000000260000b4
:020000040000fa
:1001080000260000ac250000c4250000d82500000a
:10011800ec25000000260000002600000026000054
:10012800002600000026000000260000da23000058
:10013800002600000026000000260000002600001f
:10014800002600005e3300008e3300004c240000bf
:100158000026000000260000002600004c250000b4
:10016800be22000000260000002600000026000035
:1001780000260000002600000026000000260000df
:1001880000260000002600000026000000260000cf
:1001980000260000002600000026000000260000bf
:1001a80000260000002600000026000000260000af
:1001b800002600000026000000260000002600009f
:1001c80000260000002600009625000000260000fa
:1001d800002600000026000000260000002600007f
:1001e800002600000026000000260000002600006f
:0801f8000026000000260000b3
:020000040000fa
:100200000f0022000e7f22000e0188000000000077
:1002100000012000200288000c000700e09a240062
:10022000010020001f000700000020000000e00087
:10023000020032000000020000000000c44502007d
:10024000000000000040da000000fe004440a90069
:10025000000820000000e000030032000000200041
:10026000a00188004440a80000000600f03fb10053
:100270000180b10006003500ee0309000000000017
:10028000403fb1000180b100fbff3d001000b00015
:10029000203fb0000200350000800900000000008f
:1002a0000000060091018800800078000000eb004b
:1002b00015003700e280400032a0b4009101ba007e
:1002c000e280400032a0b4009102ba00e280400017
:1002d00032a0b4000002eb00472bde00f507b200ad
:1002e000602ce10004003a000059eb008301e900b2
:1002f000fdff3e00040037006128e10001003200ec
:100300000082eb00040007001101ba000200e000c7
:10031000e8ff3a00000006003159ba008301e90005
:100320000c0032002159ba008301e90008003200b4
:100330000400e00003003a00e280400032a0b40074
:10034000f5ff370011d9ba008301e900faff3a003e
:100350008100e800e180400032a0b4000000060007
:100360003200f800910188008002780062004000ad
:10037000e08048003549ba003204e0000410a700cc
:10038000100032008301e9000e0032002549ba0056
:100390003204e0000410a7000a0032008301e900e3
:1003a000080032000408a300eeff320015c9ba00ad
:1003b0003204e0000410a700020032008301e900cb
:1003c000e8ff3a003200f900000006003200f800b1
:1003d000910188000008bb00410424006210e10084
:1003e00004003200000220000010e1000a003a0080
:1003f00051042400013b88000500fc005105200049
:10040000313b8800a10a2000313b880061e7a80049
:1004100000000000000000003200f90000000600ab
:100420003200f80060042400003b8800f2ff37002f
:100430003200f8009101880041002400013b88004f
:100440000208bb00ecff37003200f8009101880081
:1004500051002400013b8800030120003218bb003a
:100460008301e900fdff3a00e3ff37006022b80096
:10047000060220000000d0008180d2000482d20059
:100480008582d2000000a0000202520083825a003e
:10049000030031000202420083824a000000a100f2
:1004a0000603e900f3ff3a0000000600881f780009
:1004b0008a1f78004400f800080f200028028800f6
:1004c0000004900010059000a00090003001900002
:1004d000c00190000300ca000280ca000030cb00b7
:1004e0001a00cd004604c3000100ca004604c00043
:1004f0001e04c0000605c0000100cd0021009800c8
:10050000050d7800eaba9700052578004400f90047
:100510004f0578004f04780000000600801f780027
:100520004000b0000008eb004f007800801f78000a
:10053000100090000018eb000018eb000008eb0022
:100540004f007800000006004400f800020f200071
:1005500022028800910078003000ca003080ca0072
:100560000000cb002080ca000000cb003100cd008d
:100570004000ca000000cb000000cb000010cb0000
:100580003100cd001180cc004400f90000000600cd
:100590001011880001118800000006004011880039
:0805a000311188000000060083
:020000040000fa
:1005a80064000000630000006300000062000000b7
:1005b8006200000061000000600000005f000000b1
:1005c8005e0000005e0000005d0000005c000000ae
:1005d8005b0000005a0000005900000058000000ad
:1005e80057000000560000005400000053000000af
:1005f80052000000510000004f0000004e000000b3
:100608004d0000004b0000004a00000048000000b8
:1006180047000000450000004300000042000000c1
:10062800400000003e0000003d0000003b000000cc
:1006380039000000370000003500000033000000da
:10064800310000002f0000002d0000002b000000ea
:1006580029000000270000002500000023000000fa
:10066800200000001e0000001c000000190000000f
:100678001700000015000000120000001000000024
:100688000d0000000a00000008000000050000003e
:10069800030000000000000000000000000000004f
:020000040000fa
:1006a8000400fa00e4812000144278000482fb0070
:1006b80045032000850f5200140132004503200035
:1006c800850f52000d003c00e60f52002e0032004c
:1006d800e60f520003003c00e40f52001b003200fa
:1006e80014023700f40f5200760032004502200051
:1006f800850f52008c0032000e023700050a2000d8
:10070800850f520008023200050a2000850f5200aa
:1007180007003c0055032000850f520036013200c7
:1007280045042000850f52006a013200010237009b
:10073800450a2000850f5200c8013200850a2000b2
:10074800850f5200d6013200fa013700ff01070079
:100758004506070055070700641c070000027800db
:10076800e00f52000400320004cab30004407800cd
:100778001ee8b700f301370044c1b3000440780015
:100788001ee8b700ef01370055168000040420006a
:100798000482620004f0a7000402ea000402e900ef
:1007a8004f22de00044278000482fb0061026200ee
:1007b8004622dd0056168000f5fb2f0085026300f7
:1007c8000482720054168800e00107005516800064
:1007d800040420000482620004f0a7000402ea0076
:1007e8000402e9004f22de00044278000482fb0084
:1007f800610262004622dd0056168000f5fb2f00dc
:100808008502630004827200541688007706070088
:1008180055168000040420000482620004f0a7003a
:100828000402ea000402e9004f22de0004427800d4
:100838000482fb00610262004622dd005616800039
:10084800f5fb2f00850263000482720054168800ad
:100858001607070055168000040420000482620071
:1008680004f0a7000402ea000402e9004f22de00b7
:10087800044278000482fb00610262004622dd0027
:1008880056168000f5fb2f00850263000482720073
:1008980054168800151c070000027800e00f52006b
:1008a8000400320004cab300044078001ee8b70010
:1008b800a401370044c4b300044078001ee8b70020
:1008c800a0013700f20c070012003700ce0807001d
:1008d8003d1107000a1c070000027800e00f5200d3
:1008e8000400320044cab300044078001ee8b70090
:1008f80008003700151680000400240004826200f6
:10090800e00f520003003a0044c2b30004407800ec
:100918001ee8b700e481200014427800f44f52002a
:10092800eaff3200870137000b0d07000002eb00d9
:10093800040f78000002eb00a4c388006d003700a4
:10094800b1080700201107000000000000000000a7
:1009580000000000250480000404200004826200d6
:10096800e00f52002f0032001e0fe80084c0a900db
:10097800351780000400210004826200e00f520055
:1009880003003200a4c38000e10f520011003a00b6
:10099800a20020009e00780080aa2000140707000b
:1009a800a20020009e007800e0a4200010070700a5
:1009b800a20020009e00780020b020000c0707004d
:1009c800a20020009e007800c0b52000080707009c
:1009d8001400370044558000040178009e00780018
:1009e80080aa2000020707007452800004017800e2
:1009f8009e007800e0a42000fd060700145880003f
:100a0800040178009e00780020b02000f806070056
:100a1800e45a8000040178009e007800c0b52000e8
:100a2800f3060700b61b070000027800e00f52002b
:100a38000400320044cab300044078001ee8b7003e
:100a48002c00370015168000040024000482620080
:100a5800e00f52000400320044c1b30004407800a3
:100a68001ee8b70023003700847020009e0278003b
:100a7800848f5200070036002719070044c3b300cb
:100a8800044078001ee8b7000002eb00a4c3880009
:100a98001800370035178000040021000482620026
:100aa800e00f52000a003a001e027800f40f5200cc
:100ab800070036001819070044c3b3000440780043
:100ac8001ee8b7000002eb00a4c388000900370045
:100ad800a4c38000e10f520006003a000e19070077
:100ae80044c3b300044078001ee8b7000002eb00de
:100af800a4c38800e58120009542780044c2b30071
:100b080084cf52008eff32000e013700880c070098
:100b18004206200041062000608e2000b40607002f
:100b28004206200041062000a0992000b0060700d8
:100b3800420620004106200080aa2000ac060700db
:100b48004206200041062000e0a42000a806070075
:100b58004206200041062000c0b52000a406070078
:100b6800420620004106200020b02000a006070011
:100b78001b0037002408070093100700601b0700bc
:100b880000027800e00f52000400320084cab3006b
:100b9800044078001ee8b7001100370015168000e1
:100ba8000400240004826200e00f520004003200b6
:100bb80044c1b300044078001ee8b70008003700bd
:100bc800151680000400280004826200e00f52001d
:100bd80003003a0054c3b300044078001ee8b7008d
:100be800e58120009542780044c3b30084cf5200c9
:100bf800e0ff3200d30037000002eb001407980032
:100c0800cbe2a9002d003700ff0707006e10070090
:100c1800250480000404200004826200e00f5200d2
:100c28000400320084c0a9001e0290000402e800fb
:100c380014079800321b070000027800e00f5200ea
:100c48000400320084cab300044078001ee8b700ec
:100c58001a00370015168000040024000482620080
:100c6800e00f52000400320044c1b3000440780091
:100c78001ee8b70011003700151680000400280090
:100c880004826200e00f52000400320044c3b30043
:100c9800044078001ee8b700080037009e02900064
:100ca80014032000848f52000400360044c4b300ab
:100cb800044078001ee8b700f40c0700e581200026
:100cc8009542780054c3b30084cf5200ceff32005f
:100cd8009c0037000002eb00344188000002eb0062
:100ce800544188000002eb00444188000002eb00f8
:100cf80004c588006022b800b4c48800c5c4880050
:100d08000042eb0004407800b8f6b7008c60a800f9
:100d18004c003700c4002000d4c48800ba0707007c
:100d280029100700846b210014427800e04f52001c
:100d380028003200b4002000d4c48800b4c4800065
:100d4800c5c4800061024200e0824a00b4c4880041
:100d5800c5c48800448821003400be002401be00b8
:100d680014002000050020006033b8000002420093
:100d780081824a0002034b0083834b004088210094
:100d88000498be000690be00e44080000402e8001b
:100d9800e44088002f090700a46b21001442780062
:100da8000440780078180700b46b210014427800da
:100db80004407800baf6b700570707000002eb00b6
:100dc8003408880084c0a9000042eb000440780081
:100dd800b8f6b700ca1a070000027800e00f520000
:100de80005003200580b070084cab300044078009d
:100df8001ee8b70013003700151680000400240011
:100e080004826200e00f5200050032004e0b07001a
:100e180044c1b300044078001ee8b7000900370059
:100e2800151680000400280004826200e00f5200ba
:100e380004003200440b070044c3b30004407800a8
:100e48001ee8b700e58120009542780044c4b3004d
:100e580084cf5200afff32003a0037008c0b0700f6
:100e68000900370068070700d70f0700a41a070012
:100e780000027800e00f520003003a0044c1b300ba
:100e8800044078001ee8b700e5812000954278000c
:100e980044cab30084cf5200f2ff32002900370061
:100ea800a30b07001a00370057070700c60f0700f3
:100eb8009e1a070000027800e00f5200040032007a
:100ec80044cab300044078001ee8b7001000370099
:100ed800151680000400240004826200e00f52000e
:100ee8000400320044cab300044078001ee8b7008a
:100ef80007003700821a070000027800e00f52004e
:100f080003003a0044c3b300044078001ee8b70069
:100f1800e58120009542780084cab30084cf52004e
:100f2800e1ff32000700370037070700a60f070068
:100f3800fdff370004cab300044078001ee8b7007c
:100f4800000000000080fa00000006000200fa001d
:100f5800d4c48000844088000002eb00d4c4880018
:100f68000002eb0044c28800043a8000610262007b
:100f7800e00f52000300320044c280000440a00089
:100f880044c28800053a80000408200004826200f8
:100f9800e00f52000400320045c280000402200025
:100fa8000482720044c28800053a800004042000cc
:100fb80004826200e00f52000400320045c2800043
:100fc800040420000482720044c28800043a8000ad
:100fd80062026200e00f52000300320044c2800047
:100fe8000400a00044c28800053a800004002800dc
:100ff80004826200e00f52000300320044c2800005
:101008000410a00044c28800043a80007002620004
:10101800e00f52000300320044c280000420a00008
:1010280044c28800053a800004002400048262005b
:10103800e00f52000300320044c280000430a000d8
:1010480044c288000002eb00a4c188000002eb0043
:10105800b4c188000002eb00c4c188000002eb00a4
:10106800d4c188000002eb00e4c188000002eb0054
:10107800f4c188000002eb0004c288000002eb0003
:1010880014c288000002eb0024c288000002eb00b2
:1010980034c288006480200004428800a4ff210034
:1010a80014428800008420001afd0700f42820005c
:1010b800f4c38800d4a3200004c48800d4a320006b
:1010c80014c4880001842000e08721001cfd07006b
:1010d80004802000b441880044ff2100c4418800f6
:1010e800608320000bfd0700f4282000c4c388009b
:1010f800d4a32000d4c38800d4a32000e4c388006c
:1011080061832000808721000dfd07000060fe003c
:10111800440620007452880004d02700a452880096
:101128008080eb000080eb00f60b070000027800df
:10113800c452880094b68000d4528800a4b68000b7
:10114800e4528800c12729000080eb00ed0b07005e
:101158000002780004538800b4b680001453880055
:10116800c4b68000245388000453800084007800ab
:10117800005327001e0c0700000278003453880033
:101188000100220000802200de0b07000002780028
:10119800645388000100220000002100d90b0700d9
:1011a8000002780074538800843e2000845388002d
:1011b8002403200094538800841a260004548800cd
:1011c800313e2d000080eb00ce0b070000027800b6
:1011d80024548800e4b6800034548800f4b68000b3
:1011e8004454880091bd2a000080eb00c50b07001d
:1011f800000278006454880004b7800074548800a2
:1012080014b78000845488006454800084007800f7
:1012180000592600f60b0700000278009454880055
:101228000100220030332200b60b070000027800cc
:10123800c454880001002200c0cc2100b10b070073
:1012480000027800d454880004fa2000e45488008e
:1012580024032000f4548800d4b680008402780067
:1012680084b680000501780084007800e0a420009e
:10127800ad040700842520004455880004dc2500bf
:10128800745588008080eb000080eb009d0b070000
:101298000002780094558800b4b78000a4558800ef
:1012a800c4b78000b4558800c12729000080eb002e
:1012b800940b070000027800d4558800d4b780004a
:1012c800e4558800e4b78000f4558800d4558000c0
:1012d80084007800801a2600c50b070000027800f9
:1012e800045688000100220000802200850b0700b8
:1012f8000002780034568800010022000080210096
:10130800800b0700000278004456880004fa200089
:1013180054568800840c20006456880004dc25009c
:10132800d4568800f1fd2a000080eb00750b0700f9
:1013380000027800f456880004b88000045788003a
:1013480014b8800014578800f1aa27000080eb0029
:101358006c0b0700000278003457880024b880001e
:101368004457880034b880005457880034578000a8
:1013780084007800802c23009d0b07000002780071
:101388006457880001002200000024005d0b07005c
:101398000002780094578800010022000000210014
:1013a800580b070000027800a457880004fa2000b0
:1013b800b4578800840c2000c4578800f4b7800014
:1013c80084027800a4b780000501780084007800c2
:1013d80080aa200054040700847020001458880054
:1013e800c4a22100445888008000eb000080eb0074
:1013f800440b07000002780064588800d4b88000c5
:1014080074588800e4b8800084588800215e290058
:101418000080eb003b0b070000027800a45888000e
:10142800f4b88000b458880004b98000c458880013
:10143800a45880008400780000c221006c0b0700cb
:1014480000027800d4588800010022009019220078
:101458002c0b0700000278000459880001002200c4
:1014680060e62100270b0700000278001459880065
:10147800843e200024598800441f200034598800e5
:101488000002eb00a45988008000eb000080eb000c
:101498001c0b070000027800c459880024b980009a
:1014a800d459880034b98000e45988008000eb00e2
:1014b8000080eb00130b070000027800045a880034
:1014c80044b98000145a880054b98000245a88000e
:1014d800045a8000840078000000eb00440b0700e9
:1014e80000027800345a8800010022000000eb0056
:1014f800040b070000027800645a880001002200eb
:101508000000eb00ff0a070000027800745a880008
:101518000002eb00845a88000002eb00945a88000d
:1015280014b9800084027800c4b8800005017800ee
:101538008400780020b02000fb030700847020009e
:10154800e45a880004772100145b88008000eb00cf
:101558000080eb00eb0a070000027800345b88008b
:10156800f4b98000445b880004ba8000545b8800aa
:10157800215e29000080eb00e20a070000027800e3
:10158800745b880014ba8000845b880024ba8000e9
:10159800945b8800745b800084007800a08621003a
:1015a800130b070000027800a45b880001002200ea
:1015b80090192200d30a070000027800d45b880043
:1015c8000100220060e62100ce0a07000002780030
:1015d800e45b8800843e2000f45b8800441f200000
:1015e800045c88000002eb00745c88008000eb005b
:1015f8000080eb00c30a070000027800945c8800b2
:1016080044ba8000a45c880054ba8000b45c8800a6
:101618008000eb000080eb00ba0a070000027800a7
:10162800d45c880064ba8000e45c880074ba8000e6
:10163800f45c8800d45c8000840078000000eb0033
:10164800eb0a070000027800045d88000100220010
:101658000000eb00ab0a070000027800345d880048
:10166800010022000000eb00a60a07000002780033
:10167800445d88000002eb00545d88000002eb0026
:10168800645d880034ba800084027800e4b9800080
:101698000501780084007800c0b52000a203070087
:1016a8000002eb003447880004e224006447880005
:1016b800517125000080eb00920a070000027800b3
:1016c8008447880014bb80009447880024bb8000ae
:1016d800a4478800811a26000080eb00890a0700c9
:1016e80000027800c447880034bb8000d4478800d3
:1016f80044bb8000e4478800c44780008400780029
:10170800c0c22400ba0a070000027800f447880023
:10171800010022000000eb007a0a070000027800ae
:1017280024488800010022000000eb00750a070029
:1017380000027800344888000002eb004448880022
:101748000002eb00544888000002eb00c4488800ff
:101758008000eb000080eb006a0a070000027800b6
:10176800e448880064bb8000f448880074bb8000ab
:10177800044988008000eb000080eb00610a070044
:10178800000278002449880084bb8000344988001e
:1017980094bb800044498800244980008400780074
:1017a8000000eb00920a0700000278005449880004
:1017b800010022000000eb00520a07000002780036
:1017c80084498800010022000000eb004d0a070050
:1017d80000027800944988000002eb00a4498800c0
:1017e8000002eb00b449880054bb800084027800f2
:1017f80004bb80000501780084007800608e20001a
:10180800490307000002eb00d44c880004e22400de
:10181800044d8800517125000080eb00390a07004b
:1018280000027800244d880034bc8000344d8800c4
:1018380044bc8000444d8800811a26000080eb00db
:10184800300a070000027800644d880054bc80000c
:10185800744d880064bc8000844d8800644d80000d
:1018680084007800c0c22400610a070000027800e2
:10187800944d8800010022000000eb00210a0700b7
:1018880000027800c44d8800010022000000eb002f
:101898001c0a070000027800d44d88000002eb0003
:1018a800e44d88000002eb00f44d88000002eb00d4
:1018b800644e88008000eb000080eb00110a0700ee
:1018c80000027800844e880084bc8000944e880012
:1018d80094bc8000a44e88008000eb000080eb00e0
:1018e800080a070000027800c44e8800a4bc8000e3
:1018f800d44e8800b4bc8000e44e8800c44e8000fa
:10190800840078000000eb00390a07000002780024
:10191800f44e8800010022000000eb00f9090700de
:1019280000027800244f8800010022000000eb002c
:10193800f409070000027800344f88000002eb0029
:10194800444f88000002eb00544f880074bc8000ac
:101958008402780024bc80000501780084007800a7
:10196800a0992000f00207000002eb00044a88005a
:10197800846d2d00344a88008000eb000080eb0065
:10198800e009070000027800544a880054bd80002e
:10199800644a880064bd8000744a8800118a2d005a
:1019a8000080eb00d709070000027800944a8800fd
:1019b80074bd8000a44a880084bd8000b44a8800b1
:1019c800944a80008400780000b22c00080a0700be
:1019d80000027800c44a880001002200008022002a
:1019e800c809070000027800f44a880001002200b4
:1019f80090992100c309070000027800044b880071
:101a0800843e2000144b880044012000244b8800a9
:101a1800c4ce2200944b88008000eb000080eb00cd
:101a2800b809070000027800b44b8800a4bd800004
:101a3800c44b8800b4bd8000d44b8800b111240089
:101a48000080eb00af09070000027800f44b880023
:101a5800c4bd8000044c8800d4bd8000144c8800ac
:101a6800f44b800084007800400d2300e009070053
:101a780000027800244c88000100220090192200fe
:101a8800a009070000027800544c880001002200d9
:101a980060e621009b09070000027800644c88007a
:101aa800843e2000744c880044012000844c880047
:101ab8000002eb00b44c88000082eb00c44c8800a4
:101ac8000002eb00544b88000082eb00644b880056
:101ad80094bd80008402780044bd80000501780030
:101ae80084007800009420008f0207000002eb00b9
:101af800a44f8800846d2d00d44f88008000eb002f
:101b08000080eb007f09070000027800f44f88008e
:101b180074be80000450880084be80001450880081
:101b2800118a2d000080eb0076090700000278007a
:101b38003450880094be800044508800a4be8000c1
:101b480054508800345080008400780000b22c0083
:101b5800a7090700000278006450880001002200ed
:101b6800008022006709070000027800945088006e
:101b78000100220090992100620907000002780004
:101b8800a4508800843e2000b450880044012000fe
:101b9800c4508800c4ce2200345188008000eb0075
:101ba8000080eb00570907000002780054518800b4
:101bb800c4be800064518800d4be8000745188007f
:101bc800b11124000080eb004e09070000027800e4
:101bd80094518800e4be8000a4518800f4be8000bf
:101be800b45188009451800084007800400d23008f
:101bf8007f09070000027800c45188000100220014
:101c0800901922003f09070000027800f45188006b
:101c18000100220060e621003a090700000278006e
:101c280004528800843e2000145288004401200099
:101c3800245288000002eb00545288000082eb0016
:101c4800645288000002eb00f45088000082eb0028
:101c580004518800b4be80008402780064be80000d
:101c68000501780084007800409f20002e020700bc
:101c780055168000040420000482620004f0a700c6
:101c88000402ea000402e9004f22de000442780060
:101c98000482fb00610262004622dd0056168000c5
:101ca800f5fb2f0085026300048272005416880039
:101cb800d762a900d602a800d742a900d702a90076
:101cc800c4e2a800cac2a900cbe2a800c4c2a90005
:101cd800d042a800d662a800e2a2a800cae2a900e1
:101ce800ca42a900e282a800cbc2a900d6c2a800b5
:101cf800d6a2a800c522a900d362a900d202a900d1
:101d0800d242a800cdc2a800cda2a800d222a80025
:101d1800d322a900d342a900d302a900c182a800f6
:101d2800c1a2a800c0e2a900c6c2a900c7e2a900d2
:101d3800c1c2a800c1e2a800e5a2a800e582a800e7
:101d4800e5c2a800d282a800d2e2a800d382a800e7
:101d5800d3a2a800cc62a800cc82a800e502a80003
:101d6800e522a800c142a800c0c2a900cc42a9002f
:101d7800d262a900dea2a900c6e2a900c642a90053
:101d8800de82a900cde2a900c7c2a900d2c2a9007b
:101d9800d2a2a900c122a9008e00a9008600a9002c
:101da800e40480000400a1000410a0000420a000a6
:101db800e40488008220a9008c60a9008460a9003e
:101dc800a404800004c0a00004d0a10004e0a00086
:101dd800a40488008d60a9008560a900c40480005f
:101de80004c0a00004d0a00004e0a100c40488003e
:101df80085e0a900c200a8008de0a800d4048000f6
:101e080004c0a10004d0a10004e0a000d40488000c
:101e18008d20a900c40480000440a0000450a10043
:101e28000460a000c40488008d40a900c404800098
:101e38000440a0000450a1000460a000c40488006d
:101e48008940a9009140a900440580000480a000b1
:101e58000490a00004a0a00044058800043a800073
:101e68000480a1000490a10004a0a00004b0a00078
:101e7800043a8800f4002f0034108800140620006b
:101e880024108800f1fb2d00b0532b00bef9070089
:101e9800f1fb2d00a0f32b00bef907000410200071
:101ea800841c880004102000842288000042eb0073
:101eb800044078008ae8b7000042eb00044078004c
:101ec8008be8b7000042eb0004407800cce8b7008c
:101ed8000042eb0004407800cde8b70004f02f0082
:101ee8006410880044002000a4108800f4752700be
:101ef80074108800d4fa25002408880054fa2500b4
:101f08008408880094d02300640888000002eb004d
:101f18003408880084c0a90054f82500f408880013
:101f2800d4f92500040988000002eb00c4088800e1
:101f380086c0a900440d2300e4088800f40d2000a1
:101f480074468800e40d20009446880004022000ae
:101f5800a44688000002eb00b446880014c0b30011
:101f680004407800d8e8b7000402200084468800be
:101f7800e08c20002617070004c4b3000440780052
:101f8800e0e8b7000042eb0004407800e1e8b70061
:101f980004022000d446880004022000e446880099
:101fa80004022000f446880000c2eb0004407800d8
:101fb800e2e8b70000c2eb0004407800e3e8b700ad
:101fc800dd13070044882100040f7800b4bf8000a7
:101fd800840278001e027800050a78001e8fe80047
:101fe800a4bf8000840278001e027800050a7800e9
:101ff8001e8fe80094bf8000840278001e027800db
:10200800050a78001e8fe80084bf800084027800eb
:102018001e027800050a780024892100040f780040
:10202800d4bf8000840278001e027800050a780078
:102038001e8fe800c4bf8000840278001e0278006a
:10204800050a78000002eb0004c588006022b80089
:10205800b4c48800c5c48800e4bf80002441880057
:102068000080fa00000006000200fa000002eb00ff
:10207800040f7800e08c20001c1707000041eb00db
:10208800a1c0b300a08d2000e41b07000002780067
:102098001e0f72000041eb00a1c0b300a08d20000c
:1020a800de1b0700000278001e0f72000041eb00e3
:1020b800a1c0b300a08d2000d81b07000002780043
:1020c8001e0f7200248e200014427800044178000c
:1020d80041c1b300a08d2000d01b0700000278008a
:1020e8001e0f7200348e20001442780004417800dc
:1020f80051c1b300a08d2000c81b07000002780062
:102108001e0f720082cfb3008040eb00a08d20002c
:10211800c21b0700000278001e0f72000041eb008e
:1021280011c0b300a08d2000bc1b0700000278007e
:102138001e0f72000041eb0021c0b300a08d2000eb
:10214800b61b0700000278001e0f72000041eb006a
:1021580031c0b300a08d2000b01b0700000278003a
:102168001e0f720004f02f009e02620004a02f00d0
:10217800848f520007003a0045c2800004082000fe
:102188000482720044c28800c4c180000402e800ce
:10219800c4c188008040eb00a08d2000d11b07003f
:1021a80000027800040f7800f40f20009e026200fd
:1021b800840f2000848f52000700320045c280003f
:1021c800040820000482720044c28800c4c1800050
:1021d8000402e800c4c18800ff06070006070700dc
:1021e800090707000080fa00000006000600fa0050
:1021f800f4c480000402e800f4c48800244180008c
:102208000402e8002441880024418000e4bf8800db
:10221800cbe2a90060832000bef8070000842000fc
:10222800bcf807004206200041062000608e20000e
:10223800ef0007004206200041062000a099200078
:10224800eb000700420620004106200080aa20007b
:10225800e70007004206200041062000e0a4200015
:10226800e30007004206200041062000c0b5200018
:10227800df000700420620004106200020b02000b1
:10228800db000700d8060700cf0607007f07070016
:102298008c60a900551680000404200004826200a6
:1022a80004f0a7000402ea000402e9004f22de005d
:1022b800044278000482fb00610262004622dd00cd
:1022c80056168000f5fb2f00850263000482720019
:1022d8005416880072050700551680000404200073
:1022e8000482620004f0a7000402ea000402e90084
:1022f8004f22de00044278000482fb006102620083
:102308004622dd0056168000f5fb2f00850263008b
:1023180004827200541688003517800004002400d7
:1023280004826200e00f520014003a000441800069
:1023380051c3200004007800ad07070000027800b0
:10234800040f78000001eb009e007800608e2000ea
:10235800750007001441800051c320000400780074
:10236800a307070000027800040f78000001eb00c3
:102378009e007800a09920006b000700e4802000f0
:1023880014427800e04f52000d003a0044478000a4
:1023980004007800220a0700000278001407980059
:1023a8001e0090000511070000027800240798001d
:1023b8001e019000ae009000e0a420005a00070023
:1023c80055168000040420000482620004f0a7006f
:1023d8000402ea000402e9004f22de000442780009
:1023e8000482fb00610262004622dd00561680006e
:1023f800f5fb2f00850263000482720054168800e2
:10240800c5010700551680000404200004826200fc
:1024180004f0a7000402ea000402e9004f22de00eb
:10242800044278000482fb00610262004622dd005b
:1024380056168000f5fb2f008502630004827200a7
:10244800541688004e040700551680000404200026
:102458000482620004f0a7000402ea000402e90012
:102468004f22de00044278000482fb006102620011
:102478004622dd0056168000f5fb2f00850263001a
:10248800048272005416880044c4b30004407800e3
:102498001ee8b7008a11070064c0b3000440780042
:1024a8001ee8b7000080fa00000006000000fa00ed
:1024b80011e1a80021e1a800f4cf27000415880045
:1024c80084fe20001415880064342e00241588002a
:1024d80034fe2e003415880074002c004415880042
:1024e80084ff230054158800a1e2a8008560a90094
:1024f8008d60a8008540a9008d40a8008520a9000e
:102508008d20a8000de2a800e282a8000042eb009e
:102518000440780090f8b7007f1207000060fe00c2
:102528000080fa00000006000600fa00000f78009c
:1025380011079800220798001e027800b402900044
:102548001e029000848f5200080031001e0278009d
:10255800b40290001e0278001502980014c2800090
:102568000402e80014c28800030037001e02780045
:102578009e029000150298001e027800941a90009e
:102588002e029000848f5200080031001e0278004d
:10259800941a90001e0278007512980014c28000e8
:1025a8000402e80014c28800030037001e02780005
:1025b800ae02900075129800e581200095427800df
:1025c80044c2b30084cf5200040032004206200007
:1025d800410620001e007800050007001e00780054
:1025e800540007000060fe000080fa0000000600aa
:1025f8000a00fa002007980031079800420798005f
:10260800be0290004e029000848f520009003900eb
:102618002e029000940290002e029000250298004d
:102628002e029000f41290002e029000051a9800d5
:102638003c0037002e029000140290000500200094
:10264800048fbe003e029000050020001e0390008b
:1026580004b3b900060378009e03780005b8b900f2
:1026680080037800070343009e0378000402780083
:102678000722b8000503430086027800048fbe00d5
:10268800048fbe004e029000050020000401be0029
:102698001e00be0073f707000002be00048fbe00d4
:1026a8009e0278002e029000250298002e029000cb
:1026b8007412900005002000048fbe003e029000b6
:1026c800050020001e03900004b3b900060378003b
:1026d8009e03780005b8b90080037800070343001b
:1026e8009e037800040278000722b800050343001f
:1026f80086027800048fbe00048fbe004e02900050
:10270800050020000401be001e00be0055f70700aa
:102718000002be00048fbe009e0278002e029000c8
:10272800051a98002e009000020007000080fa00a9
:10273800000006000600fa00200798002e0290000c
:10274800d40290002e0290002402900085007800a8
:1027580004007800a606070000027800040f78003d
:102768002e02900064029000840078001e00780019
:102778009f06070000027800040f78002e029000e0
:1027880074029000e00f52000c0034002e029000fa
:10279800740290000482ea009e0f52000300310088
:1027a8000082eb00040f78000f0037002e02900023
:1027b800740290001e0f42000b0037002e0290009a
:1027c800740290000402ea009e0f520003003600d3
:1027d8000002eb00040f7800030037002e0290007f
:1027e800740290001e0f42002e0290009e02780094
:1027f800450298002e029000b41a90002e02900014
:10280800041a900085007800040078007806070014
:1028180000027800140798002e029000441a9000d5
:10282800840078001e0090007106070000027800fe
:10283800140798002e029000541a9000e00f5200de
:102848000f0034002e029000541a90008482ea008f
:102858001e029000848f5200030031000082eb00ba
:1028680014079800150037002e029000541a9000a3
:102878009e02900004824200140798000f0037005f
:102888002e029000541a90000402ea008402780094
:102898001e029000848f5200030036000002eb00f5
:1028a80014079800050037002e029000541a900073
:1028b8009e02900004824200140798002e029000a5
:1028c8009e029000251a98002e029000940a90000b
:1028d8002e02900024029000850078000400780001
:1028e8004306070000027800040f78002e029000cb
:1028f800240a9000840078001e0078003c06070037
:1029080000027800040f78002e029000340a90002c
:10291800e00f52000c0034002e029000340a9000a0
:102928000482ea009e0f5200030031000082eb008f
:10293800040f78000f0037002e029000340a900030
:102948001e0f42000b0037002e029000340a900040
:102958000402ea009e0f5200030036000002eb005a
:10296800040f7800030037002e029000340a90000c
:102978001e0f42002e029000740a90008400780016
:102988001e0078001a06070000027800ae029000c8
:10299800d40a98002e029000041290008400780057
:1029a8001e0078001206070000027800ae029000b0
:1029b800e40a98002e029000d40a90002e0290009b
:1029c80014129000848f5200040031002e029000ef
:1029d800941290002e029000550a98002e02900042
:1029e800f41a90002e029000041a900085007800d6
:1029f80004007800fe05070000027800140798001c
:102a08002e02900004229000840078001e0090009e
:102a1800f705070000027800140798002e029000be
:102a280014229000e00f52000f0034002e02900094
:102a3800142290008482ea001e029000848f5200c3
:102a4800030031000082eb001407980015003700de
:102a58002e029000541a90009e02900004824200b8
:102a6800140798000f0037002e02900014229000df
:102a78000402ea00840278001e029000848f52004b
:102a8800030036000002eb00140798000500370029
:102a98002e029000142290009e02900004824200b0
:102aa800140798002e0290005422900084007800a9
:102ab8001e009000ce05070000027800ae029000cc
:102ac800b42298002e0290006422900084007800be
:102ad8001e009000c605070000027800ae029000b4
:102ae800c42298002e029000b42290002e0290007a
:102af80074229000848f5200040031002e0290004e
:102b0800f42290002e029000352298000060fe000a
:102b18000080fa00000006001200fa00a40020005d
:102b2800d4c48800245b800014079800545880009f
:102b380024079800b4528000340798001454800089
:102b4800440798008455800054079800e456800094
:102b5800640798007447800074079800144d80003b
:102b6800040f980014c0b300044f78000042eb0033
:102b780014479800100037000e82e800840078009f
:102b8800e08c2000e514070000427800044f78002c
:102b98001e4290000442e800144798001e42780044
:102ba800e04f52000300320004c280000402e80033
:102bb80004c288000060fe009e4278000582fb0087
:102bc8000402ea004f22de008442780014c0b300f9
:102bd8001e439000f34f5300010036000042eb0003
:102be80004c26200e04f5200e3ff3a001e42900028
:102bf800f34f520002003600000220001a130700ab
:102c08000080fa00000006000400fa00940020008a
:102c1800d4c48800043a800061026200e00f5200c8
:102c28000300320044c280000440a00044c288006f
:102c3800053a80000408200004826200e00f520078
:102c48000400320045c280000402200004827200a1
:102c580044c28800053a800004042000048262000f
:102c6800e00f52000400320045c280000404200036
:102c78000482720044c28800043a80006202620042
:102c8800e00f52000300320044c280000400a0009c
:102c980044c28800053a80000400280004826200cb
:102ca800e00f52000300320044c280000410a0006c
:102cb80044c28800043a800070026200e00f5200ab
:102cc8000300320044c280000420a00044c28800ef
:102cd800053a80000400240004826200e00f5200dc
:102ce8000300320044c280000430a00044c28800bf
:102cf8000060fe00350480000404200004826200a5
:102d0800e00f52008b00320086c0a9008441800089
:102d18000402e8006f026200844188008441800058
:102d2800e00f520015003a005516800004082000f4
:102d380004826200e00f520002003200cae2a900d9
:102d480001003700cae2a800e5408000d40720004f
:102d580004aab900040278008402d100d44080009b
:102d68008500780004007800c70507000002780095
:102d7800d44088000002eb00e4408800351780004a
:102d88000400220004826200e00f520006003200b4
:102d980094408000e00f52000300320066100700e4
:102da8005d1007005410070035178000040022004a
:102db80004826200e00f520003003a001400200071
:102dc80094408800020037000002eb00944088001d
:102dd80069010700e480200014427800e04f5200a7
:102de8000d003a0044478000040078008c07070073
:102df80000027800040f78001e0078006f0e0700ac
:102e080000027800140798001e0178009e009000c8
:102e1800e0a42000c4fd0700e481200014427800eb
:102e2800f44f520005003200e581200095427800f9
:102e380044cab30084cf520018003a00420620006a
:102e48008000eb00608e2000e9fd070042062000ac
:102e58008000eb00608e2000e5fd070042062000a0
:102e68008000eb0080aa2000e1fd07004206200058
:102e78008000eb00e0a42000ddfd070042062000f2
:102e88008000eb00c0b52000d9fd070042062000f5
:102e98008000eb0020b02000d5fd0700080f0700d8
:102ea8009712070000027800e00f5200030032007a
:102eb800c4e2a900d042a90002003700c4e2a80079
:102ec800d042a80044812000144278000442e8005f
:102ed8000440780014e8b7004481200014427800c8
:102ee8006f4262000440780014e8b7004481200073
:102ef80014427800e04f520001003a000f0007002a
:102f080071000700e58120009542780044c4b300b1
:102f180084cf520005003a002504800004042000f4
:102f280004826200e00f520002003200fafe07003d
:102f3800ba0307000080fa00000006000200fa0049
:102f480084002000d4c48800755b8000045b800086
:102f58008500780004007800a504070000027800c6
:102f6800040f7800845b8000840078001e007800dd
:102f78009f04070000027800040f7800945b80002b
:102f88001e0f42001e0278000402d100f44188009e
:102f9800645b80000402d100e44188006083200063
:102fa80040f50700a5588000345880008500780057
:102fb800040078008e04070000027800040f7800ef
:102fc800b4588000840078001e0078008804070048
:102fd80000027800040f7800c45880001e0f4200d9
:102fe8001e0278000402d1004442880094588000f0
:102ff8000402d100344288000084200029f507002b
:10300800d4418000040f78001e027800e00f5200bf
:1030180002003d000002eb00040f78001e02780059
:1030280004024200040f780004d027009e027800b2
:10303800848f52000200360004d02700040f780065
:103048000002eb00445b88000002eb00345b880060
:103058001e027800545b880024428000040f780028
:103068001e027800e00f520002003d000002eb0053
:10307800040f78001e02780004024200040f780052
:1030880004d027009e027800848f52000200360088
:1030980004d02700040f78000002eb007458880061
:1030a8000002eb00645888001e02780084588800eb
:1030b80020b020009ffd0700c0b520009dfd07003f
:1030c8000080fa00000006000800fa00b440800002
:1030d80005002000048fbe00d440800005002000b9
:1030e8001e03900004b3b900060378009e0378001d
:1030f80005b8b90080037800070343009e037800f1
:10310800040278000722b80005034300860278000d
:10311800048fbe00048fbe001e02be004a2bdd00d5
:103128004622de0004027300c62ade00048fbe00b9
:103138001e0290006d22b900040378001e02780078
:103148006022b90004027800040343009e0278005c
:10315800d4002000042ab800050343008602780042
:10316800048fbe00048fbe001e02be00452bdd008a
:103178004b22de0004027300cb2ade00048fbe005f
:10318800e4ff2f00050020001e03be00840f53003b
:10319800858f5b00030036000082eb00c440880086
:1031a800020037001e027800c44088001e02be00dc
:1031b800492bdd004722de0004027300c72ade0027
:1031c800048fbe009e027800f4072000048262008b
:1031d80024079800e58120009542780044c4b30094
:1031e80084cf52000f003200e5812000954278001c
:1031f80044c3b30084cf52000a003200e5812000a6
:103208009542780054c3b30084cf520005003200c1
:10321800e58120009542780084cab30084cf52002b
:103228000a003a002e02900084024200442d280031
:103238000482420094027800350798004206200074
:10324800be00900080aa2000e9fc07000080fa0078
:10325800000006000400fa0074002000d4c48800ae
:10326800251680000420200004826200e00f52002e
:1032780037003200d6c2a900800c200001002000cf
:10328800f8f3070021c0b3000000eb00d7160700d1
:103298000002be00048fbe000400200015112100aa
:1032a8001e03be00840f5300858f5b0006003a00a2
:1032b8000002eb0094418800e4c180000402e800a9
:1032c800e4c18800020037001e027800944188009b
:1032d800d6c2a800800c200001002000e1f30700fe
:1032e800d6a2a900800c200001002000ddf3070011
:1032f80021c0b3000000eb00bc1607000002be00ae
:10330800048fbe0004002000151121001e03be001a
:10331800840f5300858f5b0006003a000002eb0023
:10332800a4418800e4c180000402e800e4c18800e8
:10333800020037001e027800a4418800d6a2a80027
:10334800800c200001002000c6f3070007003700aa
:103358000002eb00a44188000002eb0094418800c1
:10336800f4c180000402e800f4c18800c522a90065
:103378000080fa00000006000400fa006400200043
:10338800d4c4880080cb20000e1807000002780003
:10339800040f7800044180009e0078000400780043
:1033a800c1030700000278000441880080db200088
:1033b8000418070000027800040f78001441800008
:1033c8009e00780004007800b70307000002780028
:1033d800144188003517800004002400048262002c
:1033e800e00f520014003a000441800051c320004d
:1033f800040078007e030700000278001407980094
:103408000001eb009e009000608e200046fc070043
:103418001441800051c320000400780074030700a1
:1034280000027800140798000001eb009e0090004d
:10343800a09920003cfc070080eb2000e117070062
:1034480000027800040f7800945880009e007800ed
:10345800040078000c0407000002780094588800e3
:1034680080fb2000d717070000027800040f7800bf
:10347800645b80009e007800040078000204070066
:1034880000027800645b8800800b2100cd170700dc
:1034980000027800040f7800545480009e007800e1
:1034a80004007800f80307000002780054548800ec
:1034b800801b2100c317070000027800040f780062
:1034c800f45280009e00780004007800ee030700a4
:1034d80000027800f4528800803b2100b9170700e9
:1034e80000027800040f7800c45580009e00780020
:1034f80004007800e403070000027800c45588003f
:10350800802b2100af17070000027800040f780015
:10351800245780009e00780004007800da03070032
:103528000002780024578800804b2100a517070067
:1035380000027800040f7800b44780009e007800ed
:1035480004007800d003070000027800b447880020
:10355800805b21009b17070000027800040f7800a9
:10356800544d80009e00780004007800c6030700d0
:1035780000027800544d88000080fa000000060020
:103588000600fa00f4cf270004158800e4fd2000a7
:103598001415880064342e002415880034fe2e008b
:1035a8003415880074002c004415880004fc23009e
:1035b80054158800a1e2a8000002eb00040f78006f
:1035c8008000370000000000151580000408200066
:1035d80004826200e00f5200fbff32000002eb00a1
:1035e8001407980034003700051480001e02780084
:1035f8000403420084eb200004024300050a78001b
:10360800151480001e0278000403420084fb200089
:1036180004024300050a7800251480001e02780081
:1036280004034200840b210004024300050a7800c9
:10363800351480001e02780004034200841b210018
:1036480004024300050a7800451480001e02780031
:1036580004034200842b210004024300050a780079
:10366800551480001e02780004034200843b2100a8
:1036780004024300050a7800651480001e027800e1
:1036880004034200844b210004024300050a780029
:10369800751480001e02780004034200845b210038
:1036a80004024300050a78001e0fe8001e0290007d
:1036b8000402e800140798001e029000e70f520069
:1036c800c9ff36000000000015158000040820001e
:1036d80004826200e00f5200fbff3a000002eb0098
:1036e8001407980034003700851480001e02780003
:1036f8000403420084eb200004024300050a78001a
:10370800951480001e0278000403420084fb200008
:1037180004024300050a7800a51480001e02780000
:1037280004034200840b210004024300050a7800c8
:10373800b51480001e02780004034200841b210097
:1037480004024300050a7800c51480001e027800b0
:1037580004034200842b210004024300050a780078
:10376800d51480001e02780004034200843b210027
:1037780004024300050a7800e51480001e02780060
:1037880004034200844b210004024300050a780028
:10379800f51480001e02780004034200845b2100b7
:1037a80004024300050a78001e0fe8001e0290007c
:1037b8000402e800140798001e029000e70f520068
:1037c800c9ff3600f40720009e027800848f52005b
:1037d8007cff3600a1e2a90080eb2000f916070063
:1037e80000027800240798002e0290009458880060
:1037f80080fb2000f31607000002780024079800d9
:103808002e029000645b8800800b2100ed160700f3
:1038180000027800240798002e0290005454880073
:10382800801b2100e7160700000278002407980093
:103838002e029000f4528800803b2100e116070018
:1038480000027800240798002e029000c4558800d2
:10385800802b2100db16070000027800240798005f
:103868002e02900024578800804b2100d5160700af
:1038780000027800240798002e029000b4478800c0
:10388800805b2100cf16070000027800240798000b
:103898002e029000544d88000080fa0000000600b7
:1038a8000600fa00f4cf270004158800e4fd200084
:1038b8001415880064342e002415880034fe2e0068
:1038c8003415880074002c00441588000403200077
:1038d80054158800a1e2a8000002eb00040f78004c
:1038e800860037000000000015158000040820003d
:1038f80004826200e00f5200fbff32000002eb007e
:103908001407980037003700051480001e0278005d
:103918000403420084cb200004024300050a780017
:10392800151480001e0278000403420084db200086
:1039380004024300050a78001e0fe80025148000e1
:103948001e0278000403420084cb200004024300d6
:10395800050a7800351480001e027800040342002e
:1039680084db200004024300050a78001e0fe800eb
:10397800451480001e0278000403420084cb200016
:1039880004024300050a7800551480001e027800de
:103998000403420084db200004024300050a780087
:1039a8001e0fe800651480001e0278000403420020
:1039b80084cb200004024300050a780075148000b7
:1039c8001e0278000403420084db20000402430046
:1039d800050a78001e0fe8001e0290000402e800a5
:1039e800140798001e029000e30f5200c6ff36002d
:1039f8000000000015158000040820000482620001
:103a0800e00f5200fbff3a000002eb001407980099
:103a180037003700851480001e0278000403420036
:103a280084cb200004024300050a78009514800026
:103a38001e0278000403420084db200004024300d5
:103a4800050a78001e0fe800a51480001e02780001
:103a58000403420084cb200004024300050a7800d6
:103a6800b51480001e0278000403420084db2000a5
:103a780004024300050a78001e0fe800c514800000
:103a88001e0278000403420084cb20000402430095
:103a9800050a7800d51480001e027800040342004d
:103aa80084db200004024300050a78001e0fe800aa
:103ab800e51480001e0278000403420084cb200035
:103ac80004024300050a7800f51480001e027800fd
:103ad8000403420084db200004024300050a780046
:103ae8001e0fe8001e0290000402e8001407980068
:103af8001e029000e30f5200c6ff3600f4072000b4
:103b08009e027800848f520076ff3600a1e2a90059
:103b180080cb20002b1607000002780024079800ad
:103b28002e0290000441880080db20002516070043
:103b380000027800240798002e02900014418800a3
:103b48000080fa00000006000400fa0094028000d9
:103b5800040f7800ff3ffc00140280000450a0000e
:103b68000460a0000470a000140288001e027800ff
:103b78009402880000008800000000000000000097
:103b880000000000000000008c60a9008e00a90061
:103b98009402800014079800ff3ffc001402800084
:103ba8000450a1000460a1000470a1001402880060
:103bb8001e0290009402880000008800030007009d
:103bc800cbe2a8000080fa00000006000200fa001c
:103bd80044882100040f78001e027800140278003f
:103be800b4bf88001e8fe8001e0278001402780017
:103bf800a4bf88001e8fe8001e0278001402780017
:103c080094bf88001e8fe8001e0278001402780016
:103c180084bf880024892100040f78001e027800e0
:103c280014027800d4bf88001e8fe8001e027800b6
:103c380014027800c4bf8800053b800004002800f7
:103c480004826200e00f5200fbff3a0064bf80006c
:103c580075bf8000020220000400be00d9f10700f1
:103c6800053b80000400280004826200e00f520037
:103c7800fbff3a0064bf800075bf8000027f21000f
:103c88000400be00eef107000080fa000000060004
:103c98000000fa005c0007004f000700560007000c
:103ca800420620008000eb00608e200050fa0700da
:103cb800420620008000eb00608e20004cfa0700ce
:103cc800420620008000eb0080aa200048fa070086
:103cd800420620008000eb00e0a4200044fa070020
:103ce800420620008000eb00c0b5200040fa070023
:103cf800420620008000eb0020b020003cfa0700bc
:103d08006083200003f207000084200001f207000e
:103d180005e1a9008e00a9008c60a9008600a90011
:103d28008460a900c4c2a9000080fa00000006004f
:103d38000000fa003400070005e1a9008e00a90080
:103d48008c60a9008600a9008460a900c4c2a900eb
:103d58000080fa00000006000000fa0060832000de
:103d6800ecf1070000842000eaf107004206200079
:103d78008000eb00e0a420001dfa070042062000a6
:103d88008000eb0080aa200019fa070042062000f4
:103d98008000eb0020b0200015fa07004206200042
:103da8008000eb00c0b5200011fa07000e000700e4
:103db800050007000002eb003408880084c0a90051
:103dc8000080fa00000006000000fa00d702a800f0
:103dd8000080fa00000006000000fa00d702a900df
:103de8000080fa00000006000000fa00d722a800b0
:103df8000080fa00000006000000fa00d722a9009f
:103e08000080fa00000006000000fa00d762a9004e
:103e1800d602a8000080fa00000006000400fa009c
:103e28000002eb00040f78000002eb001407980072
:103e380054002000d4c48800e58120009542780011
:103e480044c3b30084cf52000f003200e581200044
:103e58009542780044c4b30084cf52000a0032006f
:103e6800e58120009542780084cab30084cf5200cf
:103e780005003200e58120009542780054c3b30064
:103e880084cf520005003a009e029000f4f72f00fc
:103e98000482620014079800040037009e02900014
:103ea800040820000482720014079800f4c28000fd
:103eb800e00f5200040032001e0290000400a0002f
:103ec80014079800040037009e029000e4ff2f00ba
:103ed8000482620014079800c4c28000e00f5200f8
:103ee800020032001e20a00002003700b4ff2f009d
:103ef8001e0f620065c2800004f02f000482620079
:103f0800e00f5200040032001e0290000440a0009e
:103f180014079800040037009e029000f4fe2f005a
:103f2800048262001407980065c28000f40f200024
:103f380004826200e00f5200040032001e0290006a
:103f48000410a00014079800040037009e02900097
:103f5800d4ff2f00048262001407980095c28000e5
:103f680004f02f0004826200e00f520002003200c9
:103f78001e00a00002003700e4ff2f001e0f6200a1
:103f880095c28000f40f200004826200e00f520006
:103f9800020032001e10a00002003700d4ff2f00dc
:103fa8001e0f6200e58120009542780044c4b300ea
:103fb80084cf520004003a001e0290000420a000a2
:103fc80014079800040037009e029000b4ff2f00e9
:103fd8000482620014079800248e2000144278009e
:103fe8000482fb009e0f5200100032001e0278006f
:103ff8000442780004407800e2e8b700248e2000ec
:10400800144278000441780041c1b300a08d20001b
:104018000214070000027800e00f5200030032008b
:10402800c4c180000402e800c4c18800348e2000a6
:10403800144278008482fb001e029000848f520094
:10404800100032001e0290000442780004407800fc
:10405800e3e8b700348e2000144278000441780069
:1040680051c1b300a08d2000ec13070000027800b6
:10407800e00f520003003200c4c180000402e800cf
:10408800c4c188000080fa00000006000000fa00a1
:10409800151680000400220004826200e00f52001e
:1040a800050032000042eb0004407800baf6b70081
:1040b800cbc2a9000400370014c0b3000440780044
:1040c800baf6b700cbc2a800d762a800d602a900ea
:1040d80005e1a9000002eb00040888008460a9003b
:1040e8008c60a800741720001408880005e1a80057
:1040f8000002eb003408880084c0a9000080fa00a0
:10410800000006000a00fa003007980041079800ee
:104118003e0290000500200014079800250798002b
:104128001e029000ae029000c022dd0004002000b4
:1041380014079800250798004e02900005002000fb
:104148000401be001e009000ae009000c5f00700fc
:104158000002be0014079800250798001e02900070
:10416800ae0290004d2bdd004322de0004027300f6
:10417800c32ade0014079800250798001e03900044
:10418800ae03900004002000f5ff2f000600780021
:1041980007037800840378000502780007006000b0
:1041a8000402630005002000c022dd000400200096
:1041b8000403be006102b800040373008583730022
:1041c800e00f5300e08f5b00030032000082eb0039
:1041d800040f7800020037001e029000040f7800d8
:1041e8001e027800040078000080fa000000060033
:1041f8000800fa0020079800310798002e02900066
:1042080005002000048fbe003e029000050020003b
:104218001e03900004b3b900060378009e037800db
:1042280005b8b90080037800070343009e037800af
:10423800040278000722b8000503430086027800cc
:10424800048fbe00048fbe001e02be00432bdd009b
:104258004d22de0004027300cd2ade00048fbe006a
:10426800f4ff2f00050020001e03be00840f53003a
:10427800858f5b0006003600f4ff2f000500200044
:10428800048fbe0024c280000402e80024c2880013
:104298001e027800240798002e029000040078007f
:1042a8000080fa00000006000a00fa0030079800b3
:1042b800410798003e029000e00f520002003a00c9
:1042c8004e029000340798003e029000050020003e
:1042d8001407980025079800ae029000f40f2000fc
:1042e80004aab900040378001e0290006022b900f5
:1042f80004027800040343009e029000f40f20009b
:10430800042ab800050343008602780014079800c1
:104318002507980014079800250798004e0290007a
:10432800050020001e039000ae0390000602420024
:1043380087824a0014079800250798001e029000fb
:10434800ae029000482bdd004822de000402730014
:10435800c82ade0014079800250798001e0290005e
:10436800040f78004e0290009e0f520002003600a3
:104378001e0fe800040037004e0290009e0f520006
:10438800010031001e0fe9001e02780004007800c9
:104398000080fa00000006000a00fa0030079800c2
:1043a800410798003e029000e00f520002003a00d8
:1043b8004e029000340798003e029000050020004d
:1043c8001407980025079800ae029000f403200017
:1043d80004aab900040378001e0290006022b90004
:1043e80004027800040343009e029000f4032000b6
:1043f800042ab800050343008602780014079800d1
:104408002507980014079800250798004e02900089
:10441800050020001e039000ae0390000602420033
:1044280087824a0014079800250798001e0290000a
:10443800ae0290004a2bdd004622de000402730023
:10444800c62ade0014079800250798001e0290006f
:10445800040f78004e0290009e0f520002003600b2
:104468001e0fe800040037004e0290009e0f520015
:10447800010031001e0fe9001e02780004007800d8
:104488000080fa00000006000a00fa0030079800d1
:10449800410798003e029000e00f520002003a00e7
:1044a8004e029000340798003e029000050020005c
:1044b80014079800250798002e0290006f22b90073
:1044c800040378001e0290006022b90004027800fc
:1044d800040343009e029000f4002000042ab80060
:1044e8000503430086027800140798002507980002
:1044f80014079800250798004e0290000500200038
:104508001e039000ae0390000602420087824a0014
:1045180014079800250798001e029000ae0290002c
:104528004c2bdd004422de0004027300c42ade00a6
:1045380014079800250798001e029000040f7800c1
:104548004e0290009e0f5200020036001e0fe80037
:10455800040037004e0290009e0f52000100310007
:104568001e0fe9001e027800040078000080fa009f
:104578000000060000a0fe00849fbe000200fa00b2
:10458800d602a8000000000000000000c522a80014
:104598008600a9008e00a90044002000d4c4880029
:1045a80005e1a9000002eb0004088800840020004f
:1045b800140888008c60a9008460a90005e1a8009f
:1045c8000002eb00040f78000000000004088000df
:1045d800e00f5200fdff3200151680000400210094
:1045e80004826200e00f520003003a001400200029
:1045f800040f780001003700000000000408800064
:10460800e10f5200fdff360015168000040021005e
:1046180004826200e00f520003003a0014002000f8
:10462800040f780001003700000000000408800033
:10463800e20f5200fdff360015168000040021002d
:1046480004826200e00f520003003a0014002000c8
:10465800040f780001003700000000000408800003
:10466800e20f5200fdff36001516800004002100fd
:1046780004826200e00f520002003a001400200099
:10468800040f78000002eb0064408800a416800044
:1046980070026200e00f520005003200a51680008b
:1046a8000408200004826200e00f52000200320079
:1046b8001400200064408800e2a2a9000000000065
:1046c8002404800068026200e00f5200fcff320000
:1046d800151680000400220004826200e00f5200d8
:1046e800050032000042eb0004407800bbf6b7003a
:1046f800cbc2a9000400370014c0b30004407800fe
:10470800bbf6b700cbc2a800c4c2a900d602a90054
:1047180005e1a9000002eb00040888008460a900f4
:104728008c60a800e41620001408880005e1a800a1
:1047380000000000a416800070026200e00f520022
:10474800fcff320000000000a516800004082000cd
:1047580004826200e00f5200fbff3a00e2a2a800c8
:10476800a416800085e0a900846b2100144278001b
:10477800e04f52000300320094c380000402e800b6
:1047880094c3880014c0b30004407800b8f6b7009a
:1047980014c0b30004407800b9f6b7000080fa00ee
:1047a8004f02be000080fe00004006003600f80000
:1047b800809fbe00829fbe00849fbe00869fbe0071
:1047c8000200fa0034002000d4c488008460a900e4
:1047d8008c60a90005e1a9000042eb00044f7800b5
:1047e800a416800064026200e00f52001e0032002e
:1047f80040062000010020009aee0700a416800061
:1048080064026200e00f52001700320040062000e8
:104818000100200093ee0700a416800064026200e5
:10482800e00f520010003200400620000100200076
:104838008cee0700a416800064026200e00f5200ac
:1048480009003200400620000100200085ee070024
:10485800a416800064026200e00f520002003200d9
:1048680000202000c80b0700c4c2a8008600a900c9
:104878008e00a8000080fa004f03be004f02be0061
:104888004f01be004f00be003600f9000040060090
:10489800801f7800849fbe00861f78000000fa0001
:1048a800a042a9008560a9005516800004042000d4
:1048b80004826200e00f520002003200cac2a9005e
:1048c80001003700cac2a80014002000d4c4880020
:1048d800946b210014427800e04f5200040032002b
:1048e8000042eb0004407800b9f6b70062003700d8
:1048f80064bb2000144278000482fb000514800089
:104908000403420084bb200004024300050a780027
:1049180064bb2000144278000482fb001514800058
:104928000403420084cb200004024300050a7800f7
:1049380064bb2000144278000482fb002514800028
:104948000403420084db200004024300050a7800c7
:1049580064bb2000144278000482fb0035148000f8
:104968000403420084eb200004024300050a780097
:1049780064bb2000144278000482fb0045148000c8
:104988000403420084fb200004024300050a780067
:1049980064bb2000144278000482fb005514800098
:1049a80004034200840b210004024300050a780036
:1049b80064bb2000144278000482fb006514800068
:1049c80004034200841b210004024300050a780006
:1049d80064bb2000144278000482fb007514800038
:1049e80004034200843b210004024300050a7800c6
:1049f80064bb2000144278000482fb008514800008
:104a080004034200842b210004024300050a7800b5
:104a180064bb2000144278000482fb0095148000d7
:104a280004034200844b210004024300050a780075
:104a380064bb2000144278000482fb00a5148000a7
:104a480004034200845b210004024300050a780045
:104a580064bb2000144278000442e8000440780057
:104a6800b6ebb70064bb2000144278000474a100c0
:104a780004407800b6ebb700a042a8000080fa0016
:104a88004f0378004f02be004f0078000040060038
:104a98003600f800809fbe00829fbe00849fbe0043
:104aa800869fbe000000fa00a516800004082000ba
:104ab80004826200e00f520012003a004006200013
:104ac80001002000e7ed0700a5168000040820007b
:104ad80004826200e00f52000a003a0040062000fb
:104ae80001002000dfed0700a51680000408200063
:104af80004826200e00f520002003a0000402000e9
:104b08003d0b070085e0a9000080fa004f03be00b6
:104b18004f02be004f01be004f00be003600f90034
:104b280000400600841f78000000fa0024002000de
:104b3800d4c488008940a900b4c380000402e800f6
:104b4800b4c388000080fa004f02780000400600d5
:104b5800841f78000000fa00d4002000d4c4880024
:104b6800143a8000e4c4880000000000000000003f
:104b78000000fe000080fa004f02780000400600a6
:104b8800841f78000000fa00e4002000d4c48800e4
:104b980000000000000000000000fe000080fa0095
:104ba8004f02780000400600841f78000000fa00d9
:104bb800f4002000d4c488000000000000000000b9
:104bc8000000fe000080fa004f0278000040060056
:104bd800841f78000000fa0004012000d4c4880073
:104be80000000000000000000000fe000080fa0045
:104bf8004f02780000400600841f78000000fa0089
:104c0800c4ab2f00d4c488000000000000000000de
:104c18000000fe000080fa004f0278000040060005
:104c28000c00fa00500798005e0290000500200072
:104c3800048fbe005e029000050020001e03900055
:104c480004b3b900060378009e03780005b8b900dc
:104c580080037800070343009e037800040278006d
:104c68000722b8000503430086027800048fbe00bf
:104c7800048fbe001e02be00422bdd004e22de0065
:104c880004027300ceaade00048fbe00a4c0800018
:104c9800cfa2de001e03900004b3b900060378001b
:104ca8009e03780005b8b900800378000703430025
:104cb8009e037800040278000722b8000503430029
:104cc80086027800048fbe00048fbe001e02be005c
:104cd800c62bdd004a22de0004827300caaade0069
:104ce800048fbe001e02be002407980035079800f6
:104cf8005e02900005002000048fbe00b4c0800052
:104d0800cfa2de001e03900004b3b90006037800aa
:104d18009e03780005b8b9008003780007034300b4
:104d28009e037800040278000722b80005034300b8
:104d380086027800048fbe00048fbe001e02be00eb
:104d4800462bdd004a22de0004027300caaade00f8
:104d5800048fbe002e029000be0290003e03420067
:104d6800ae834a000602be00240798003507980063
:104d7800c4c08000cfa2de00048fbe001e03be00a8
:104d8800423add00ce32de00850272004232dd009a
:104d9800048fbe002e029000be0290003e03420027
:104da800ae834a000602be00240798003507980023
:104db800ae039000470798004e0290000400780068
:104dc8000080fa00000006000000fa00741080005d
:104dd80062026200e00f5200010032000e22a900b8
:104de8000489210014427800e24f52000100320089
:104df800070007000489210014427800e24f52009e
:104e080001003a008f0007000080fa000000060049
:104e18000400fa00881f78003e003700a0842000b4
:104e28001511070000427800044f78001e427800f0
:104e3800ef4f420037003a00a08420000e1107000f
:104e480000427800044f78001e427800ee4f42007e
:104e580030003a00a08420000711070000427800c3
:104e6800044f78001e427800ed4f420029003a00b6
:104e7800a084200000110700004278000440780058
:104e88008cf8b700a0842000fb10070000427800cf
:104e9800044078008ef8b700a0842000f6100700c0
:104ea80000427800044078008ff8b700a084200002
:104eb800f110070000427800044078008df8b70030
:104ec800a0842000ec100700004278000482fb0058
:104ed800140798001e0290004824dd00a0842000da
:104ee800e5100700004278000482fb000402440039
:104ef800140798001e009000d005070000427800b3
:104f0800e04f52000300320024c0b3000440780090
:104f180090f8b7000489210014427800e04f52004d
:104f280005003a00a0842000f11007000042780034
:104f3800e84f5200b9ff3e004f0478000080fa00a5
:104f4800000006000600fa00204798003147980044
:104f5800220798002e019000be4090002e4090003d
:104f68009f05070000027800040f780011cfb300f6
:104f7800c08820009b10070021cfb300c088200004
:104f88009810070041cfb300c08820009510070093
:104f9800ae409000c0882000921007002e029000ba
:104fa8004822de000442780084407800c08820004f
:104fb8008c1007002e02900004427800844078008c
:104fc800c088200087100700be409000c0882000dd
:104fd800841007001e0278004822de000442780090
:104fe80084407800c08820007e1007001e027800e8
:104ff8000442780084407800c088200079100700b7
:10500800751080000420200004826200e00f520026
:105018000a003a00c0882000c0100700004278004b
:10502800e04f520005003200c088200092100700af
:10503800004278000482fb00841088000080fa0097
:10504800000006000a00fa00e488210014427800f3
:105058000482fb00140798001e0290004822dd001d
:1050680014079800f4882100144278000482fb0099
:105078009e02900004824200140798001e009000cf
:10508800000f7800c4882100144278000482fb00d5
:1050980024079800c4882100144278000482fb0089
:1050a8006123b90004ff2f00f5ff2f00060242001c
:1050b80087824a00a60d200007002000860f5200b4
:1050c800878f5a00d1023e0004600100da003700e1
:1050d800dd003700cd023700cc023700cb023700a5
:1050e800ca023700c9023700c8023700c7023700b2
:1050f800c6023700c5023700c4023700c3023700b2
:10510800c2023700c1023700c0023700bf023700b1
:10511800be023700bd023700bc023700bb023700b1
:10512800ba023700b9023700b8023700b7023700b1
:10513800b6023700b5023700c70037007f023700d4
:10514800b20237005a023700b0023700e9003700d0
:10515800ae023700ad023700ac023700ab023700b1
:10516800aa023700a9023700a8023700a7023700b1
:10517800a6023700a5023700a4023700a3023700b1
:10518800a2023700a1023700a00237008e023700c2
:105198009e0237009d0237009c0237009b023700b1
:1051a8009a023700990237009802370097023700b1
:1051b80096023700950237009402370093023700b1
:1051c8009202370091023700900237008f023700b1
:1051d8008e0237008d0237008c0237008b023700b1
:1051e8008a023700890237008802370087023700b1
:1051f80086023700850237008402370083023700b1
:105208008202370081023700800237007f023700b0
:105218007e0237007d0237007c0237007b023700b0
:105228007a023700790237007802370077023700b0
:1052380076023700750237007402370073023700b0
:105248007202370071023700700237006f023700b0
:105258006e0237006d0237006c0237006b023700b0
:105268006a023700690237006802370067023700b0
:1052780066023700650237006402370063023700b0
:105288006202370061023700600237005f023700b0
:105298005e0237005d0237005c0237005b023700b0
:1052a8005a023700590237005802370057023700b0
:1052b80056023700550237005402370053023700b0
:1052c8005202370051023700500237004f023700b0
:1052d8004e0237004d0237004c0237004b023700b0
:1052e8004a023700490237004802370047023700b0
:1052f80046023700450237004402370043023700b0
:105308004202370041023700400237003f023700af
:10531800800037003d0237003c0237003b0237006f
:105328003a023700390237003802370037023700af
:1053380036023700350237003402370033023700af
:105348003202370031023700300237002f023700af
:105358002e0237002d0237002c0237002b023700af
:105368002a023700290237002802370027023700af
:1053780026023700250237002402370023023700af
:105388002202370021023700200237001f023700af
:105398001e0237001d0237001c0237001b023700af
:1053a8001a023700190237001802370017023700af
:1053b80016023700150237001402370013023700af
:1053c8001202370011023700100237005900370067
:1053d80061003700690037007d003700850037001d
:1053e8008d003700a1003700a9003700b100370051
:1053f800c5003700cd003700d5003700e900370079
:10540800f1003700f90037000d01370015013700aa
:105418001d013700310137003901370041013700dc
:10542800550137005d013700650137007901370004
:1054380081013700890137000042eb000440780001
:105448000ee8b700f101370014c0b300044078003b
:105458000ee8b700ed013700e48020001442780020
:10546800e04f5200e60132001e0290003407980017
:105478003e009000d104070000027800440798001d
:105488003e019000ce009000e0a4200026f4070022
:105498008452800084b68800e4538000d4b6880023
:1054a800053b80000400280004826200e00f5200df
:1054b800fbff3a0064b6800075b680000202200047
:1054c8000400be00bfeb0700053b80000400280075
:1054d80004826200e00f5200fbff3a0064b68000cd
:1054e80075b68000026d21000400be00d4eb0700f1
:1054f800c6013700d4882100144278000482fb00da
:1055080004007800ce01070000027800040f78003c
:10551800be013700e58120009542780044c2b300ff
:1055280084cf5200b8013a0014002000a4c38800b8
:10553800b6013700d4882100144278000482fb00a9
:105548009e02900004034200046d210004024300ff
:10555800050a7800ad013700d4882100144278008c
:105568000482fb0084024200046d21000482420090
:1055780014027800040f7800a4013700053b80006e
:105588000400280004826200e00f5200fbff3a008a
:1055980064b6800075b68000020220000400be00d8
:1055a80088eb0700053b80000400280004826200a5
:1055b800e00f5200fbff3a0064b6800075b6800029
:1055c800026d21000400be009deb07008f0137002b
:1055d800d4882100144278000482fb009e029000c7
:1055e80004034200446f210004024300050a7800c6
:1055f80086013700d4882100144278000482fb0019
:1056080084024200446f21000482420014027800a0
:10561800040f78007d013700053b80000400280056
:1056280004826200e00f5200fbff3a0084b780005a
:1056380095b78000020220000400be0061eb07005d
:10564800053b80000400280004826200e00f52003d
:10565800fbff3a0084b7800095b78000426f2100b5
:105668000400be0076eb070068013700d4882100eb
:10567800144278000482fb009e029000040342005a
:105688008471210004024300050a78005f01370095
:10569800d4882100144278000482fb00840242006e
:1056a800847121000482420014027800040f7800fb
:1056b80056013700053b8000040028000482620080
:1056c800e00f5200fbff3a00a4b88000b5b8800094
:1056d800020220000400be003aeb0700053b8000f0
:1056e8000400280004826200e00f5200fbff3a0029
:1056f800a4b88000b5b88000827121000400be0003
:105708004feb070041013700d4882100144278008c
:105718000482fb009e02900004034200c47321002f
:1057280004024300050a780038013700d4882100b4
:10573800144278000482fb0084024200c4732100f2
:105748000482420014027800040f78002f01370009
:10575800053b80000400280004826200e00f52002c
:10576800fbff3a00c4b98000d5b9800002022000ce
:105778000400be0013eb0700053b8000040028006e
:1057880004826200e00f5200fbff3a00c4b98000b7
:10579800d5b98000c27321000400be0028eb0700c1
:1057a8001a013700d4882100144278000482fb00d3
:1057b8009e02900004034200047621000402430084
:1057c800050a780011013700d488210014427800b6
:1057d8000482fb0084024200047621000482420015
:1057e80014027800040f780008013700053b800098
:1057f8000400280004826200e00f5200fbff3a0018
:10580800e4ba8000f5ba8000020220000400be005d
:10581800ecea0700053b80000400280004826200cf
:10582800e00f5200fbff3a00e4ba8000f5ba8000ae
:10583800027621000400be0001eb0700f3003700e8
:10584800d4882100144278000482fb009e02900054
:10585800040342004478210004024300050a78004a
:10586800ea003700d4882100144278000482fb0043
:105878008402420044782100048242001402780025
:10588800040f7800e1003700053b80000400280081
:1058980004826200e00f5200fbff3a0004bc800063
:1058a80015bc8000020220000400be00c5ea070003
:1058b800053b80000400280004826200e00f5200cb
:1058c800fbff3a0004bc800015bc80004278210030
:1058d8000400be00daea0700cc003700d4882100b3
:1058e800144278000482fb009e02900004034200e8
:1058f800847a210004024300050a7800c3003700b7
:10590800d4882100144278000482fb0084024200fb
:10591800847a21000482420014027800040f78007f
:10592800ba003700053b80000400280004826200aa
:10593800e00f5200fbff3a0024bd800035bd800017
:10594800020220000400be009eea0700053b80001a
:105958000400280004826200e00f5200fbff3a00b6
:1059680024bd800035bd8000827a21000400be007d
:10597800b3ea0700a5003700d48821001442780054
:105988000482fb009e02900004034200c47c2100b4
:1059980004024300050a78009c003700d4882100df
:1059a800144278000482fb0084024200c47c210077
:1059b8000482420014027800040f78009300370034
:1059c800053b80000400280004826200e00f5200ba
:1059d800fbff3a0044be800055be80000202200052
:1059e8000400be0077ea0700053b80000400280099
:1059f80004826200e00f5200fbff3a0044be8000c0
:105a080055be8000c27c21000400be008cea07005d
:105a18007e003700d4882100144278000482fb00fd
:105a28009e029000040342004481210004024300c6
:105a3800050a780075003700d488210014427800e0
:105a48000482fb0084024200448121000482420057
:105a580014027800040f78006c003700053b8000c2
:105a68000400280004826200e00f5200fbff3a00a5
:105a780084c0800095c08000020220000400be009f
:105a880050ea0700053b80000400280004826200f9
:105a9800e00f5200fbff3a0084c0800095c08000f0
:105aa800428121000400be0065ea07005700370064
