:020000040000fa
:080000000001040000000000f3
:020000040000fa
:100008003a280000e6270000fe270000122800001a
:10001800262800003a2800003a2800003a28000064
:100028003a2800003a2800003a2800001426000068
:100038003a2800003a2800003a2800003a28000030
:100048003a280000ee3700001e380000862600001f
:100058003a2800003a2800003a28000086270000c5
:10006800f22400003a2800003a2800003a2800004c
:100078003a2800003a2800003a2800003a280000f0
:100088003a2800003a2800003a2800003a280000e0
:100098003a2800003a2800003a2800003a280000d0
:1000a8003a2800003a2800003a2800003a280000c0
:1000b8003a2800003a2800003a2800003a280000b0
:1000c8003a2800003a280000d02700003a2800000b
:1000d8003a2800003a2800003a2800003a28000090
:1000e8003a2800003a2800003a2800003a28000080
:0800f8003a2800003a2800003c
:020000040000fa
:100108003a280000e6270000fe2700001228000019
:10011800262800003a2800003a2800003a28000063
:100128003a2800003a2800003a2800001426000067
:100138003a2800003a2800003a2800003a2800002f
:100148003a280000ee3700001e380000862600001e
:100158003a2800003a2800003a28000086270000c4
:10016800f22400003a2800003a2800003a2800004b
:100178003a2800003a2800003a2800003a280000ef
:100188003a2800003a2800003a2800003a280000df
:100198003a2800003a2800003a2800003a280000cf
:1001a8003a2800003a2800003a2800003a280000bf
:1001b8003a2800003a2800003a2800003a280000af
:1001c8003a2800003a280000d02700003a2800000a
:1001d8003a2800003a2800003a2800003a2800008f
:1001e8003a2800003a2800003a2800003a2800007f
:0801f8003a2800003a2800003b
:020000040000fa
:100200000f0022000e7f22000e0188000000000077
:1002100000012000200288000c00070060e3240099
:100220000100200011000700000020000000e00095
:100230000200320000000200000000004c4a0200f0
:10024000000000000040da000000fe004440a90069
:10025000000820000000e000030032000000200041
:10026000a00188004440a800000006009101880019
:10027000800078000000eb0015003700e2804000ad
:1002800032a0b4009101ba00e280400032a0b40074
:100290009102ba00e280400032a0b4000002eb00fc
:1002a000472bde00f507b200602ce10004003a00a5
:1002b0000059eb008301e900fdff3e000400370018
:1002c0006128e100010032000082eb000400070019
:1002d0001101ba000200e000e8ff3a000000060049
:1002e0003159ba008301e9000c0032002159ba00eb
:1002f0008301e900080032000400e00003003a0036
:10030000e280400032a0b400f5ff370011d9ba00f6
:100310008301e900faff3a008100e800e180400033
:1003200032a0b40000000600881f78008a1f780001
:100330004400f800080f2000280288000004900004
:1003400010059000a000900030019000c0019000c6
:100350000300ca000280ca000030cb001a00cd00a2
:100360004604c3000100ca004604c0001e04c000c9
:100370000605c0000100cd0021009800050d7800a1
:10038000eaba9700052578004400f9004f05780087
:100390004f04780000000600801f78004000b00085
:1003a0000008eb004f007800801f780010009000dc
:1003b0000018eb000018eb000008eb004f0078007d
:1003c000000006004400f800020f2000220288000e
:1003d000910078003000ca003080ca000000cb00d5
:1003e0002080ca000000cb003100cd004000ca00d0
:1003f0000000cb000000cb000010cb003100cd008e
:100400001180cc004400f9000000060010118800a3
:100410000111880000000600401188003111880099
:10042000000006003200f800910188000008bb00bf
:10043000410424006210e1000400320000022000a8
:100440000010e1000a003a0051042400013b88003a
:100450000500fc0051052000313b8800a10a200066
:10046000313b880061e7a8000000000000000000a8
:100470003200f900000006003200f8006004240099
:10048000003b8800f2ff37003200f800910188003d
:1004900041002400013b88000208bb00ecff37004c
:1004a0003200f8009101880051002400013b8800cf
:1004b000030120003218bb008301e900fdff3a0070
:1004c000e3ff37003200f8009101880080027800d5
:1004d00062004000e08048003549ba003204e00084
:1004e0000410a700100032008301e9000e00320062
:1004f0002549ba003204e0000410a7000a003200c7
:100500008301e900080032000408a300eeff320076
:1005100015c9ba003204e0000410a700020032003e
:100520008301e900e8ff3a003200f900000006000c
:100530006022b800060220000000d0008180d200b6
:100540000482d2008582d2000000a0000202520084
:1005500083825a00030031000202420083824a0073
:100560000000a1000603e900f3ff3a0000000600c6
:020000040000fa
:1005700064000000630000006300000062000000ef
:100580006200000061000000600000005f000000e9
:100590005e0000005e0000005d0000005c000000e6
:1005a0005b0000005a0000005900000058000000e5
:1005b00057000000560000005400000053000000e7
:1005c00052000000510000004f0000004e000000eb
:1005d0004d0000004b0000004a00000048000000f1
:1005e00047000000450000004300000042000000fa
:1005f000400000003e0000003d0000003b00000005
:100600003900000037000000350000003300000012
:10061000310000002f0000002d0000002b00000022
:100620002900000027000000250000002300000032
:10063000200000001e0000001c0000001900000047
:10064000170000001500000012000000100000005c
:100650000d0000000a000000080000000500000076
:100660000300000000000000000000000000000087
:020000040000fa
:100670000a00fa00a4832000144278000482fb00e0
:1006800045032000850f520014013200450320006d
:10069000850f52000d003c00e60f52002e00320084
:1006a000e60f520003003c00e40f52001b00320032
:1006b0001d033700f40f520076003200450220007f
:1006c000850f52008c00320017033700050a200006
:1006d000850f520011033200050a2000850f5200d9
:1006e00007003c0055032000850f52003601320000
:1006f00045042000850f52007e0132000a033700b6
:10070000450a2000850f5200d1023200850a2000e0
:10071000850f5200df023200030337000803070091
:100720005807070075080700ba1e07000002780086
:10073000e00f52000400320004cab3000440780005
:100740003ae8b700fc02370044c1b3000440780027
:100750003ae8b700f80237001517800004022000bd
:100760000482620004f0a7000402ea000402e90027
:100770004f22de00044278000482fb006102620026
:100780004522dd0016178000f5fd2f00850263006d
:100790000482720014178800e90207001517800010
:1007a000040220000482620004f0a7000402ea00b0
:1007b0000402e9004f22de00044278000482fb00bc
:1007c000610262004522dd0016178000f5fd2f0052
:1007d00085026300048272001417880097070700df
:1007e00015178000040220000482620004f0a700b4
:1007f0000402ea000402e9004f22de00044278000d
:100800000482fb00610262004522dd0016178000b1
:10081000f5fd2f0085026300048272001417880022
:1008200036080700151780000402200004826200c9
:1008300004f0a7000402ea000402e9004f22de00ef
:10084000044278000482fb00610262004522dd0060
:1008500016178000f5fd2f008502630004827200e8
:10086000141788006b1e070000027800e00f52008a
:100870000400320004cab300044078003ae8b7002c
:10088000ad02370044c4b300044078003ae8b70032
:10089000a90237001a0e070012003700ee09070000
:1008a00068120700601e070000027800e00f520087
:1008b0000400320044cab300044078003ae8b700ac
:1008c000080037001516800004002400048262002e
:1008d000e00f520003003a0044c2b3000440780025
:1008e0003ae8b700a483200014427800f44f520085
:1008f000eaff320090023700330e07000002eb00df
:10090000040f78000002eb00e4c488006d0037009b
:10091000d10907004b120700000000000000000092
:10092000000000002504800004042000048262000e
:10093000e00f52002f0032001e0fe80084c0a90013
:10094000351780000400210004826200e00f52008d
:1009500003003200e4c48000e10f520011003a00ad
:10096000a20020009e00780040ac20003408070060
:10097000a20020009e007800a0a6200030080700fa
:10098000a20020009e007800e0b120002c080700a3
:10099000a20020009e00780080b7200028080700f1
:1009a0001400370024568000040178009e0078006f
:1009b00040ac200022080700545380000401780056
:1009c0009e007800a0a620001d080700f4588000b3
:1009d000040178009e007800e0b1200018080700ac
:1009e000c45b8000040178009e00780080b720007e
:1009f000130807000c1e070000027800e00f5200e9
:100a00000400320044cab300044078003ae8b7005a
:100a10002c003700151680000400240004826200b8
:100a2000e00f52000400320044c1b30004407800db
:100a30003ae8b70023003700847020009e02780057
:100a4000848f5200070036007d1b070044c3b300ab
:100a5000044078003ae8b7000002eb00e4c48800e4
:100a6000180037003517800004002100048262005e
:100a7000e00f52000a003a001e027800f40f520004
:100a8000070036006e1b070044c3b3000440780023
:100a90003ae8b7000002eb00e4c488000900370020
:100aa000e4c48000e10f520006003a00641b070016
:100ab00044c3b300044078003ae8b7000002eb00fa
:100ac000e4c48800a58320009542780044c2b300a6
:100ad00084cf52008eff320017023700b00d07009e
:100ae000420620004106200020902000d407070085
:100af0004206200041062000609b2000d00707002e
:100b0000420620004106200040ac2000cc07070030
:100b10004206200041062000a0a62000c8070700ca
:100b2000420620004106200080b72000c4070700cd
:100b30004206200041062000e0b12000c007070067
:100b40001b00370044090700be110700b61d07004f
:100b500000027800e00f52000400320084cab300a3
:100b6000044078003ae8b7001100370015168000fd
:100b70000400240004826200e00f520004003200ee
:100b800044c1b300044078003ae8b70008003700d9
:100b9000151680000400280004826200e00f520055
:100ba00003003a0054c3b300044078003ae8b700a9
:100bb000a58320009542780044c3b30084cf52003f
:100bc000e0ff3200dc013700e441800051c3200027
:100bd00004007800a20e07000002780024079800a5
:100be0000001eb00ae00900020902000620707009b
:100bf000f441800051c3200004007800980e0700e3
:100c000000027800240798000001eb00ae0090007d
:100c1000609b2000580707000002eb0014079800b3
:100c2000c522a9002d0037000b0907008511070018
:100c3000250480000404200004826200e00f5200ba
:100c40000400320084c0a9001e0290000402e800e3
:100c500014079800741d070000027800e00f52008e
:100c60000400320084cab300044078003ae8b700b8
:100c70001a00370015168000040024000482620068
:100c8000e00f52000400320044c1b3000440780079
:100c90003ae8b7001100370015168000040028005c
:100ca00004826200e00f52000400320044c3b3002b
:100cb000044078003ae8b700080037009e02900030
:100cc00014032000848f52000400360044c4b30093
:100cd000044078003ae8b700080e0700a58320001a
:100ce0009542780054c3b30084cf5200ceff320047
:100cf000910137000002eb00144288000002eb0073
:100d0000344288000002eb00244288000002eb001d
:100d100044c688006022b800f4c5880005c6880073
:100d20000042eb0004407800d4f6b7008c60a800c5
:100d300041013700c400200014c68800c60807001f
:100d400040110700446d210014427800e04f52002a
:100d50001d01320044418000e00f520002003200c9
:100d600000402000ee1c0700b400200014c68800dc
:100d70003541800004f02f00848f520003003e00b4
:100d8000344180000402e80034418800f4c580004a
:100d900005c6800061024200e0824a00f4c5880076
:100da00005c68800c48a21003400be002401be00ac
:100db00014002000050020006033b800000242004b
:100dc00081824a0002034b0083834b00c08a2100ca
:100dd0000498be000690be00c44180000402e800f2
:100de000c44188005e0a0700646d21001442780047
:100df00004407800ae1a0700746d21001442780098
:100e000004407800d6f6b70040ed2000c523070067
:100e100000027800e440880040fd2000c123070064
:100e200000027800c440880034418000fd0f520069
:100e300008003e000002eb00144188000002eb00b5
:100e40000441880014c0b3000440780024e8b700cf
:100e5000b10037000002eb00a4408800354180005b
:100e6000b4c48000848f520023003100a4c48000e9
:100e7000050020003407980045079800b5c480009d
:100e80003441800004825200050020004e0390008f
:100e900004b3b90006037800be03900005b8b9009a
:100ea0008003780007034300be039000040278002b
:100eb0000722b80005034300860278003407980033
:100ec000450798003407980045079800b4c480008f
:100ed000050020000401be003e009000ce009000fe
:100ee00093fd07000002be003407980045079800f4
:100ef0003e029000a44088003517800004002400c2
:100f000004826200e00f520011003a00c4c4800065
:100f1000e00f520007003200f5408000a44080003e
:100f2000048242000500200074408800854088004b
:100f300031003700f5408000a44080000482520058
:100f40000500200074408800854088002a00370092
:100f5000c4c48000e00f520007003200f54080005a
:100f6000a4408000048242000500200074408800f4
:100f70008540880006003700f5408000a4408000ce
:100f800004825200050020007440880085408800db
:100f9000f44180006123b8007440800085408000e7
:100fa00004b8b9000000780006a9b90082007800f2
:100fb0000100400006037800040278000432b80003
:100fc0000500400080027800744088008540880059
:100fd000764080008740800094408000050020001b
:100fe0000401be000600be0051fd07000002be0065
:100ff0007440880085408800e44080006123b80088
:1010000074408000854080002403b0000580b0005b
:10101000840f5300858f5b00040039001441800069
:101020000402e900144188000e003700e44080000b
:101030006123b8007040800081408000e4fc2f00f4
:10104000f5ff2f000002420081824a00840f530006
:10105000858f5b0003003e00144180000402e8001d
:1010600014418800d440800025032000848242007f
:10107000c4408000848f520004003100044180008d
:10108000630252000441880009003700d440800008
:10109000e5fc2f0084824200c4408000848f52000f
:1010a00003003600044180006302420004418800ce
:1010b0001541800004642000848f52000300340036
:1010c00004642000144188000600370015418000a8
:1010d000049c2f00848f520002003d00049c2f00ce
:1010e000144188000541800084252000848f52002f
:1010f00003003400842520000441880006003700e6
:101100000541800084da2f00848f520002003d00e8
:1011100084da2f0004418800e441800051c320009c
:10112000040078004e0d07000002780024079800a4
:10113000d5408000743e2000848f520004003600a9
:1011400004418000ae02900004824200240798000f
:101150000001eb00ae009000209020000606070082
:101160009440800051c32000040078003c0d07002b
:101170000002780024079800f5408000743e2000ab
:10118000848f52000400360014418000ae029000ab
:1011900004824200240798000001eb00ae0090009a
:1011a000609b2000f40507006f0707000002eb00ba
:1011b0003408880084c0a9000042eb000440780095
:1011c000d4f6b7007e100700171c07000002780055
:1011d000e00f520005003200770b070084cab3000d
:1011e000044078003ae8b700130037001516800075
:1011f0000400240004826200e00f52000500320067
:101200006d0b070044c1b300044078003ae8b70012
:1012100009003700151680000400280004826200cf
:10122000e00f520004003200630b070044c3b30018
:10123000044078003ae8b700a58320009542780082
:1012400044c4b30084cf5200bafe32003a003700e3
:10125000ab0b0700090037007f070700f90f0700f5
:10126000f11b070000027800e00f520003003a0073
:1012700044c1b300044078003ae8b700a5832000d9
:101280009542780044cab30084cf5200f2ff320086
:1012900029003700c20b07001a0037006e0707004d
:1012a000e80f0700eb1b070000027800e00f520078
:1012b0000400320044cab300044078003ae8b700a2
:1012c000100037001516800004002400048262001c
:1012d000e00f52000400320044cab300044078001a
:1012e0003ae8b70007003700cf1b0700000278007c
:1012f000e00f520003003a0044c3b30004407800fa
:101300003ae8b700a58320009542780084cab3006c
:1013100084cf5200e1ff3200070037004e0707007c
:10132000c80f0700fdff370004cab300044078006f
:101330003ae8b700000000000080fa000000060054
:101340000200fa0014c68000644188000002eb002d
:1013500014c688000002eb0034c38800043a800001
:1013600061026200e00f52000300320034c38000cb
:101370000440a00034c38800053a8000040820001f
:1013800004826200e00f52000400320035c3800086
:10139000040220000482720034c38800053a8000f1
:1013a0000404200004826200e00f520004003200b6
:1013b00035c38000040420000482720034c3880016
:1013c000043a800062026200e00f52000300320023
:1013d00034c380000400a00034c38800053a8000b4
:1013e0000400280004826200e00f52000300320073
:1013f00034c380000410a00034c38800043a800085
:1014000070026200e00f52000300320034c380001b
:101410000420a00034c38800053a800004002400a2
:1014200004826200e00f52000300320034c38000e7
:101430000430a00034c388000002eb0084c288009e
:101440000002eb0094c288000002eb00a4c28800f6
:101450000002eb00b4c288000002eb00c4c28800a6
:101460000002eb00d4c288000002eb00e4c2880056
:101470000002eb00f4c288000002eb0004c3880005
:101480000002eb0014c38800b4c18000d44088007f
:10149000c4c18000f4408800d4c18000b4c4880076
:1014a000e4c1800084c48800f4c1800094c4880032
:1014b00064802000e4428800a4ff2100f4428800f8
:1014c000c0852000b4fb0700f428200034c5880044
:1014d000d4a3200044c58800d4a3200054c58800ac
:1014e000c1852000608a2100b6fb0700048020002f
:1014f0009442880044ff2100a442880020852000f7
:10150000a5fb0700f428200004c58800d4a3200010
:1015100014c58800d4a3200024c58800218520009c
:10152000008a2100a7fb07000060fe00440620009f
:101530005453880004d027008453880071322a0055
:101540000080eb000b0c070000027800a453880019
:1015500074b78000b453880084b78000c4538800f7
:1015600061ae2a000080eb00020c07000002780048
:10157000e453880094b78000f4538800a4b7800037
:1015800004548800e453800084007800005327004e
:10159000330c070000027800145488000100220078
:1015a00000802200f30b07000002780044548800fa
:1015b0000100220000002100ee0b0700000278006d
:1015c00054548800843e2000645488002403200082
:1015d00074548800841a2600e454880071322a006a
:1015e0000080eb00e30b0700000278000455880040
:1015f000c4b7800014558800d4b7800024558800f3
:1016000061ae2a000080eb00da0b070000027800d0
:1016100044558800e4b7800054558800f4b7800032
:1016200064558800445580008400780000592600e5
:101630000b0c07000002780074558800010022009e
:1016400030332200cb0b070000027800a45588003d
:1016500001002200c0cc2100c60b07000002780068
:10166000b455880004fa2000c455880024032000e3
:10167000d4558800b4b780008402780064b7800035
:101680000501780084007800a0a62000ba040700b5
:10169000842520002456880004dc25005456880048
:1016a00021eb26000080eb00b20b0700000278005f
:1016b0007456880094b8800084568800a4b88000ce
:1016c00094568800c1b02a000080eb00a90b0700e7
:1016d00000027800b4568800b4b88000c456880070
:1016e000c4b88000d4568800b456800084007800c6
:1016f000801a2600da0b070000027800e456880002
:1017000001002200008022009a0b070000027800ee
:10171000145788000100220000802100950b07006b
:10172000000278002457880004fa2000345788000b
:10173000840c20004457880004dc2500b45788003e
:101740008080eb000080eb008a0b0700000278002d
:10175000d4578800e4b88000e4578800f4b88000cb
:10176000f4578800c10428000080eb00810b0700bb
:10177000000278001458880004b9800024588800ba
:1017800014b9800034588800145880008400780010
:10179000802c2300b20b0700000278004458880018
:1017a0000100220000002400720b070000027800f4
:1017b0007458880001002200000021006d0b070012
:1017c000000278008458880004fa200094588800a9
:1017d000840c2000a4588800d4b8800084027800cb
:1017e00084b88000050178008400780040ac2000b7
:1017f0006104070084702000f4588800c4a221000e
:10180000245988008000eb000080eb00590b070092
:101810000002780044598800b4b980005459880007
:10182000c4b9800064598800215e29000080eb0063
:10183000500b07000002780084598800d4b980005a
:1018400094598800e4b98000a45988008459800024
:101850008400780000c22100810b0700000278009c
:10186000b45988000100220090192200410b0700a2
:1018700000027800e45988000100220060e621009f
:101880003c0b070000027800f4598800843e2000d9
:10189000045a8800441f2000145a88000002eb00fc
:1018a000845a88008000eb000080eb00310b0700b9
:1018b00000027800a45a880004ba8000b45a880054
:1018c00014ba8000c45a88008000eb000080eb004e
:1018d000280b070000027800e45a880024ba800030
:1018e000f45a880034ba8000045b8800e45a80000f
:1018f000840078000000eb00590b0700000278001c
:10190000145b8800010022000000eb00190b0700a7
:1019100000027800445b8800010022000000eb0018
:10192000140b070000027800545b88000002eb00f3
:10193000645b88000002eb00745b8800f4b98000ef
:1019400084027800a4b98000050178008400780042
:10195000e0b120000804070084702000c45b880008
:1019600004772100f45b88008000eb000080eb002e
:10197000000b070000027800145c8800d4ba8000d5
:10198000245c8800e4ba8000345c8800215e290071
:101990000080eb00f70a070000027800545c880022
:1019a000f4ba8000645c880004bb8000745c88002a
:1019b000545c800084007800a0862100280b07007a
:1019c00000027800845c8800010022009019220047
:1019d000e80a070000027800b45c880001002200d9
:1019e00060e62100e30a070000027800c45c88007a
:1019f000843e2000d45c8800441f2000e45c880002
:101a00000002eb00545d88008000eb000080eb00da
:101a1000d80a070000027800745d880024bb8000ab
:101a2000845d880034bb8000945d88008000eb00fa
:101a30000080eb00cf0a070000027800b45d880048
:101a400044bb8000c45d880054bb8000d45d880026
:101a5000b45d8000840078000000eb00000b0700fc
:101a600000027800e45d8800010022000000eb0025
:101a7000c00a070000027800145e880001002200fe
:101a80000000eb00bb0a070000027800245e88001b
:101a90000002eb00345e88000002eb00445e880028
:101aa00014bb800084027800c4ba8000050178006d
:101ab0008400780080b72000af0307000002eb002d
:101ac0001448880004e2240044488800517125002d
:101ad0000080eb00a70a0700000278006448880035
:101ae000f4bb80007448880004bc800084488800ef
:101af000811a26000080eb009e0a07000002780091
:101b0000a448880014bc8000b448880024bc80002d
:101b1000c4488800a448800084007800c0c2240023
:101b2000cf0a070000027800d44888000100220094
:101b30000000eb008f0a07000002780004498800cb
:101b4000010022000000eb008a0a07000002780072
:101b5000144988000002eb00244988000002eb00d1
:101b6000344988000002eb00a44988008000eb00a3
:101b70000080eb007f0a070000027800c44988005b
:101b800044bc8000d449880054bc8000e4498800eb
:101b90008000eb000080eb00760a0700000278006e
:101ba000044a880064bc8000144a880074bc800029
:101bb000244a8800044a8000840078000000eb007a
:101bc000a70a070000027800344a880001002200ba
:101bd0000000eb00670a070000027800644a8800f2
:101be000010022000000eb00620a070000027800fa
:101bf000744a88000002eb00844a88000002eb006f
:101c0000944a880034bc800084027800e4bb8000e1
:101c1000050178008400780020902000560307001a
:101c20000002eb00b44d880004e22400e44d88007b
:101c3000517125000080eb004e0a07000002780079
:101c4000044e880014bd8000144e880024bd80001e
:101c5000244e8800811a26000080eb00450a070008
:101c600000027800444e880034bd8000544e880045
:101c700044bd8000644e8800444e8000840078009b
:101c8000c0c22400760a070000027800744e880063
:101c9000010022000000eb00360a07000002780075
:101ca000a44e8800010022000000eb00310a07006a
:101cb00000027800b44e88000002eb00c44e880099
:101cc0000002eb00d44e88000002eb00444f880075
:101cd0008000eb000080eb00260a0700000278007d
:101ce000644f880064bd8000744f880074bd80001c
:101cf000844f88008000eb000080eb001d0a070085
:101d000000027800a44f880084bd8000b44f880092
:101d100094bd8000c44f8800a44f800084007800e8
:101d20000000eb004e0a070000027800d44f880044
:101d3000010022000000eb000e0a070000027800fc
:101d400004508800010022000000eb00090a07008f
:101d500000027800145088000002eb002450880034
:101d60000002eb003450880054bd800084027800eb
:101d700004bd80000501780084007800609b20008d
:101d8000fd0207000002eb00e44a8800846d2d008c
:101d9000144b88008000eb000080eb00f509070081
:101da00000027800344b880034be8000444b880029
:101db00044be8000544b8800118a2d000080eb0047
:101dc000ec09070000027800744b880054be8000c4
:101dd000844b880064be8000944b8800744b800064
:101de0008400780000b22c001d0a07000002780071
:101df000a44b88000100220000802200dd090700ba
:101e000000027800d44b8800010022009099210044
:101e1000d809070000027800e44b8800843e2000c7
:101e2000f44b880044012000044c8800c4ce2200fa
:101e3000744c88008000eb000080eb00cd090700a7
:101e400000027800944c880084be8000a44c880076
:101e500094be8000b44c8800b11124000080eb00d7
:101e6000c409070000027800d44c8800a4be80009a
:101e7000e44c8800b4be8000f44c8800d44c800050
:101e800084007800400d2300f50907000002780067
:101e9000044d88000100220090192200b5090700b6
:101ea00000027800344d88000100220060e6210025
:101eb000b009070000027800444d8800843e2000ed
:101ec000544d880044012000644d88000002eb005e
:101ed000944d88000082eb00a44d88000002eb00c6
:101ee000344c88000082eb00444c880074be8000b3
:101ef0008402780024be8000050178008400780008
:101f0000c09520009c0207000002eb00845088006e
:101f1000846d2d00b45088008000eb000080eb0041
:101f20009409070000027800d450880054bf800054
:101f3000e450880064bf8000f4508800118a2d00ae
:101f40000080eb008b090700000278001451880024
:101f500074bf80002451880084bf80003451880001
:101f6000145180008400780000b22c00bc090700e6
:101f70000002780044518800010022000080220005
:101f80007c090700000278007451880001002200db
:101f90009099210077090700000278008451880099
:101fa000843e20009451880044012000a451880000
:101fb000c4ce2200145288008000eb000080eb00a9
:101fc0006c0907000002780034528800a4bf80002a
:101fd00044528800b4bf800054528800b1112400dc
:101fe0000080eb006309070000027800745288004b
:101ff000c4bf800084528800d4bf800094528800ff
:102000007452800084007800400d2300940907007a
:1020100000027800a45288000100220090192200da
:102020005409070000027800d45288000100220001
:1020300060e621004f09070000027800e4528800a2
:10204000843e2000f452880044012000045388009c
:102050000002eb00345388000082eb0044538800f8
:102060000002eb00d45188000082eb00e4518800ac
:1020700094bf80008402780044bf8000050178008e
:102080008400780000a120003b02070015178000a3
:10209000040220000482620004f0a7000402ea00a7
:1020a0000402e9004f22de00044278000482fb00b3
:1020b000610262004522dd0016178000f5fd2f0049
:1020c000850263000482720014178800d762a90099
:1020d000d602a800d742a900d702a900c4e2a800ee
:1020e000e2a2a900c522a800c4c2a900d042a8004b
:1020f000d662a800e822a800e202a900ca42a9000c
:10210000e802a800cbc2a900d6c2a800d6a2a800a7
:10211000e222a900d362a900d202a900d242a800fb
:10212000cdc2a800cda2a800d222a800d322a90027
:10213000d342a900d302a900c182a800c1a2a8006d
:10214000c0e2a900dea2a900c122a900c1c2a80064
:10215000c1e2a800e5a2a800e582a800e5c2a800a7
:10216000d282a800d2e2a800d382a800d3a2a800fd
:10217000cc62a800cc82a800e502a800e522a80055
:10218000c142a800c0c2a900cc42a900d262a900e5
:10219000e422a900de02a900c642a900e402a900c7
:1021a000cde2a900c7c2a900d2c2a900d2a2a9004b
:1021b000de22a9008e00a9008600a900e4048000a8
:1021c0000400a1000410a0000420a000e404880082
:1021d0008220a9008c60a9008460a900a40480006a
:1021e00004c0a00004d0a10004e0a000a404880062
:1021f0008d60a9008560a900c404800004c0a0000f
:1022000004d0a00004e0a100c404880085e0a90077
:10221000c200a8008de0a800d404800004c0a10082
:1022200004d0a10004e0a000d40488008d20a900ff
:10223000c40480000440a0000450a1000460a00079
:10224000c40488008d40a900c40480000440a0009c
:102250000450a1000460a000c40488008940a900c3
:102260009140a900440580000480a0000490a000d3
:1022700004a0a00044058800043a80000480a10066
:102280000490a10004a0a00004b0a000043a8800bb
:10229000f4002f0034108800140620002410880059
:1022a000f1fb2d00b0532b0058f80700f1fb2d0077
:1022b000a0f32b0058f8070004102000841c8800ad
:1022c00004102000842288000042eb0004407800c3
:1022d000a6e8b7000042eb0004407800a7e8b7008a
:1022e0000042eb0004407800e8e8b7000042eb0051
:1022f00004407800e9e8b70004f02f00641088007b
:1023000044002000a4108800f47527007410880091
:10231000d4fa25002408880054fa2500840888008f
:1023200094d02300640888000002eb003408880081
:1023300084c0a90054f82500f4088800d4f92500c9
:10234000040988000002eb00c408880086c0a900c8
:10235000440d2300e4088800f40d20005447880051
:10236000e40d2000744788000402200084478800a0
:102370000002eb009447880014c0b30004407800ca
:10238000f4e8b700f40b200064478800a08e20001a
:102390006518070004c4b30004407800fce8b700e7
:1023a0000042eb0004407800fde8b7000402200082
:1023b000b447880004022000c447880004022000bb
:1023c000d447880000c2eb0004407800fee8b70064
:1023d00000c2eb0004407800ffe8b70020150700ba
:1023e000c48a2100040f780094c080008402780021
:1023f0001e027800050a78001e8fe80084c0800065
:10240000840278001e027800050a78001e8fe8001a
:1024100074c08000840278001e027800050a7800eb
:102420001e8fe80064c08000840278001e027800dd
:10243000050a7800a48b2100040f7800b4c0800046
:10244000840278001e027800050a78001e8fe800da
:10245000a4c08000840278001e027800050a78007b
:102460000002eb0044c688006022b800f4c5880072
:1024700005c68800c4c08000044288000080fa00bd
:10248000000006000200fa000002eb00040f7800d2
:102490000002eb0034c388004007a90040e7a90010
:1024a00040c7a9004027a90041e7a9004087a9002b
:1024b00041c7a9000002eb0014c688000002eb002f
:1024c00034c68800a08e20004e1807000041eb00a3
:1024d000a1c0b300608f2000161d07000002780025
:1024e0001e0f72000041eb00a1c0b300608f2000fe
:1024f000101d0700000278001e0f72000041eb0063
:10250000a1c0b300608f20000a1d07000002780000
:102510001e0f7200e48f20001442780004417800fe
:1025200041c1b300608f2000021d07000002780047
:102530001e0f7200f48f20001442780004417800ce
:1025400051c1b300608f2000fa1c07000002780020
:102550001e0f720082cfb3008040eb00608f20001e
:10256000f41c0700000278001e0f72000041eb000f
:1025700011c0b300608f2000ee1c0700000278003d
:102580001e0f72000041eb0021c0b300608f2000dd
:10259000e81c0700000278001e0f72000041eb00eb
:1025a00031c0b300608f2000e21c070000027800f9
:1025b0001e0f720004f02f009e02620004a02f0084
:1025c000848f520007003a0035c3800004082000c1
:1025d0000482720034c38800a4c280000402e800b0
:1025e000a4c288008040eb00608f2000031d07001c
:1025f00000027800040f7800f40f20009e026200b1
:10260000840f2000848f52000700320035c3800001
:10261000040820000482720034c38800a4c2800031
:102620000402e800a4c28800070707000e0707009d
:10263000110707000080fa00000006000600fa00fb
:1026400034c680000402e80034c6880004428000da
:102650000402e8000442880004428000c4c08800ec
:10266000c522a900208520004bf70700c085200067
:1026700049f7070042062000410620002090200074
:10268000ef0007004206200041062000609b20006a
:10269000eb000700420620004106200040ac20006d
:1026a000e70007004206200041062000a0a6200007
:1026b000e3000700420620004106200080b720000a
:1026c000df0007004206200041062000e0b12000a4
:1026d000db000700e0060700d706070087070700b2
:1026e0008c60a9001517800004022000048262009b
:1026f00004f0a7000402ea000402e9004f22de0011
:10270000044278000482fb00610262004522dd0081
:1027100016178000f5fd2f00850263000482720009
:10272000141788007a05070015178000040220009e
:102730000482620004f0a7000402ea000402e90037
:102740004f22de00044278000482fb006102620036
:102750004522dd0016178000f5fd2f00850263007d
:1027600004827200141788003517800004002400ca
:1027700004826200e00f520014003a00e44180003d
:1027800051c3200004007800b5070700000278005c
:10279000040f78000001eb009e00780020902000dc
:1027a00075000700f441800051c320000400780048
:1027b000ab07070000027800040f78000001eb006f
:1027c0009e007800609b20006b000700a482200020
:1027d00014427800e04f52000d003a002448800077
:1027e000040078002d0a0700000278001407980002
:1027f0001e0090003b12070000027800240798009a
:102800001e019000ae009000a0a620005a00070014
:1028100015178000040220000482620004f0a70063
:102820000402ea000402e9004f22de0004427800bc
:102830000482fb00610262004522dd001617800061
:10284000f5fd2f00850263000482720014178800d2
:10285000c5010700151780000402200004826200f1
:1028600004f0a7000402ea000402e9004f22de009f
:10287000044278000482fb00610262004522dd0010
:1028800016178000f5fd2f00850263000482720098
:102890001417880056040700151780000402200052
:1028a0000482620004f0a7000402ea000402e900c6
:1028b0004f22de00044278000482fb0061026200c5
:1028c0004522dd0016178000f5fd2f00850263000c
:1028d000048272001417880044c4b30004407800d6
:1028e0003ae8b700c012070064c0b30004407800a3
:1028f0003ae8b7000080fa00000006000000fa0085
:1029000011e1a80021e1a800f4cf270004158800f8
:1029100084fe20001415880064342e0024158800dd
:1029200034fe2e003415880074002c0044158800f5
:1029300084ff230054158800a1e2a8008560a90047
:102940008d60a8008540a9008d40a8008520a900c1
:102950008d20a8000de2a800e802a8000042eb00cc
:1029600004407800b8f8b700b51307000060fe0017
:102970000080fa00000006000600fa00000f780050
:1029800011079800220798001e027800b4029000f8
:102990001e029000848f5200080031001e02780051
:1029a000b40290001e02780015029800f4c2800064
:1029b0000402e800f4c28800030037001e02780019
:1029c0009e029000150298001e027800941a900052
:1029d0002e029000848f5200080031001e02780001
:1029e000941a90001e02780075129800f4c28000bc
:1029f0000402e800f4c28800030037001e027800d9
:102a0000ae02900075129800a583200095427800d0
:102a100044c2b30084cf52000400320042062000ba
:102a2000410620001e007800050007001e00780007
:102a3000540007000060fe000080fa00000006005d
:102a40000a00fa0020079800310798004207980012
:102a5000be0290004e029000848f5200090039009f
:102a60002e029000940290002e0290002502980001
:102a70002e029000f41290002e029000051a980089
:102a80003c0037002e029000140290000500200048
:102a9000048fbe003e029000050020001e0390003f
:102aa00004b3b900060378009e03780005b8b900a6
:102ab00080037800070343009e0378000402780037
:102ac0000722b8000503430086027800048fbe0089
:102ad000048fbe004e029000050020000401be00dd
:102ae0001e00be0092f607000002be00048fbe006a
:102af0009e0278002e029000250298002e0290007f
:102b00007412900005002000048fbe003e02900069
:102b1000050020001e03900004b3b90006037800ee
:102b20009e03780005b8b9008003780007034300ce
:102b30009e037800040278000722b80005034300d2
:102b400086027800048fbe00048fbe004e02900003
:102b5000050020000401be001e00be0074f6070040
:102b60000002be00048fbe009e0278002e0290007c
:102b7000051a98002e009000020007000080fa005d
:102b8000000006000600fa00200798002e029000c0
:102b9000d40290002e02900024029000850078005c
:102ba00004007800ae06070000027800040f7800e9
:102bb0002e02900064029000840078001e007800cd
:102bc000a706070000027800040f78002e0290008c
:102bd00074029000e00f52000c0034002e029000ae
:102be000740290000482ea009e0f5200030031003c
:102bf0000082eb00040f78000f0037002e029000d7
:102c0000740290001e0f42000b0037002e0290004d
:102c1000740290000402ea009e0f52000300360086
:102c20000002eb00040f7800030037002e02900032
:102c3000740290001e0f42002e0290009e02780047
:102c4000450298002e029000b41a90002e029000c7
:102c5000041a9000850078000400780080060700c0
:102c600000027800140798002e029000441a900089
:102c7000840078001e0090007906070000027800aa
:102c8000140798002e029000541a9000e00f520092
:102c90000f0034002e029000541a90008482ea0043
:102ca0001e029000848f5200030031000082eb006e
:102cb00014079800150037002e029000541a900057
:102cc0009e02900004824200140798000f00370013
:102cd0002e029000541a90000402ea008402780048
:102ce0001e029000848f5200030036000002eb00a9
:102cf00014079800050037002e029000541a900027
:102d00009e02900004824200140798002e02900058
:102d10009e029000251a98002e029000940a9000be
:102d20002e029000240290008500780004007800b4
:102d30004b06070000027800040f78002e02900076
:102d4000240a9000840078001e00780044060700e2
:102d500000027800040f78002e029000340a9000e0
:102d6000e00f52000c0034002e029000340a900054
:102d70000482ea009e0f5200030031000082eb0043
:102d8000040f78000f0037002e029000340a9000e4
:102d90001e0f42000b0037002e029000340a9000f4
:102da0000402ea009e0f5200030036000002eb000e
:102db000040f7800030037002e029000340a9000c0
:102dc0001e0f42002e029000740a900084007800ca
:102dd0001e0078002206070000027800ae02900074
:102de000d40a98002e02900004129000840078000b
:102df0001e0078001a06070000027800ae0290005c
:102e0000e40a98002e029000d40a90002e0290004e
:102e100014129000848f5200040031002e029000a2
:102e2000941290002e029000550a98002e029000f5
:102e3000f41a90002e029000041a90008500780089
:102e400004007800060607000002780014079800c6
:102e50002e02900004229000840078001e00900052
:102e6000ff05070000027800140798002e0290006a
:102e700014229000e00f52000f0034002e02900048
:102e8000142290008482ea001e029000848f520077
:102e9000030031000082eb00140798001500370092
:102ea0002e029000541a90009e029000048242006c
:102eb000140798000f0037002e0290001422900093
:102ec0000402ea00840278001e029000848f5200ff
:102ed000030036000002eb001407980005003700dd
:102ee0002e029000142290009e0290000482420064
:102ef000140798002e02900054229000840078005d
:102f00001e009000d605070000027800ae02900077
:102f1000b42298002e029000642290008400780071
:102f20001e009000ce05070000027800ae0290005f
:102f3000c42298002e029000b42290002e0290002d
:102f400074229000848f5200040031002e02900001
:102f5000f42290002e029000352298000060fe00be
:102f60000080fa00000006001200fa00a400200011
:102f700014c68800045c800014079800345980004f
:102f8000240798009453800034079800f45480007c
:102f9000440798006456800054079800c457800086
:102fa000640798005448800074079800f44d80002e
:102fb000040f980014c0b300044f78000042eb00e7
:102fc00014479800100037000e82e8008400780053
:102fd000a08e20001716070000427800044f7800ea
:102fe0001e4290000442e800144798001e427800f8
:102ff000e04f520003003200e4c280000402e80007
:10300000e4c288000060fe009e4278000582fb005a
:103010000402ea004f22de008442780014c0b300ac
:103020001e439000f34f5300010036000042eb00b6
:1030300004c26200e04f5200e3ff3a001e429000db
:10304000f34f520002003600000220005014070027
:103050000080fa00000006000800fa00940020003a
:1030600014c68800043a800061026200e00f52003a
:103070000300320034c380000440a00034c3880041
:10308000053a80000408200004826200e00f52002c
:103090000400320035c38000040220000482720064
:1030a00034c38800053a80000404200004826200d2
:1030b000e00f52000400320035c3800004042000f9
:1030c0000482720034c38800043a80006202620005
:1030d000e00f52000300320034c380000400a0005f
:1030e00034c38800053a800004002800048262008e
:1030f000e00f52000300320034c380000410a0002f
:1031000034c38800043a800070026200e00f52006d
:103110000300320034c380000420a00034c38800c0
:10312000053a80000400240004826200e00f52008f
:103130000300320034c380000430a00034c3880090
:103140000060fe0035048000040420000482620058
:10315000e00f5200ba00320086c0a900644280002d
:103160000402e8006f02620064428800644280004a
:10317000e00f520014003a00141780006102620050
:10318000e00f520002003200e202a9000100370005
:10319000e202a800c5418000d407200004aab900bb
:1031a000040278008402d100b441800085007800d8
:1031b00004007800d005070000027800b4418800c0
:1031c0000002eb00c4418800351780000400220093
:1031d00004826200e00f5200060032007441800059
:1031e000e00f5200030032009d1107009411070008
:1031f0008b11070035178000040022000482620052
:10320000e00f520003003a001400200074418800cf
:10321000020037000002eb007441880098010700ab
:10322000a482200014427800e04f52000d003a00c2
:103230002448800004007800980707000002780006
:10324000040f78001e007800a60f07000002780027
:10325000140798001e0178009e009000a0a6200090
:10326000c5fd0700a483200014427800f44f5200eb
:1032700005003200a58320009542780044cab300bf
:1032800084cf520018003a00420620008000eb0074
:1032900020902000eafd0700420620008000eb009d
:1032a00020902000e6fd0700420620008000eb0091
:1032b00040ac2000e2fd0700420620008000eb0049
:1032c000a0a62000defd0700420620008000eb00e3
:1032d00080b72000dafd0700420620008000eb00e6
:1032e000e0b12000d6fd07003f100700ce13070015
:1032f00000027800e00f520003003200c4e2a9008f
:10330000d042a90002003700c4e2a800d042a800c1
:1033100004832000144278000442e800044078004e
:1033200030e8b70004832000144278006f42620046
:103330000440780030e8b70004832000144278008d
:10334000e04f520001003a003f000700a1000700d3
:10335000a58320009542780044c4b30084cf520076
:1033600005003a0025048000040420000482620065
:10337000e00f520004003200fbfe0700c303070009
:103380000002eb003441880034418000e00f52001d
:1033900029003a00b540800094c48000848f520018
:1033a00003003100b44080000402e800b44088000b
:1033b00084c4800005002000240798003507980089
:1033c000b4408000050020003e03900004b3b90023
:1033d00006037800ae03900005b8b90080037800ba
:1033e00007034300ae039000040278000722b800f0
:1033f00005034300860278002407980035079800eb
:10340000240798003507980094c480000500200028
:103410000401be002e009000be00900044f407009e
:103420000002be0024079800350798002e02900085
:10343000a4c48800020037000002eb00b4408800fa
:103440000080fa00000006000200fa00840020005c
:1034500014c68800555c8000e45b8000850078001d
:10346000040078007e04070000027800040f780052
:10347000645c8000840078001e00780078040700f7
:1034800000027800040f7800745c80001e0f420078
:103490001e0278000402d100d4428800445c8000ff
:1034a0000402d100c4428800208520009ef307005a
:1034b0008559800014598000850078000400780048
:1034c0006704070000027800040f78009459800018
:1034d000840078001e007800610407000002780074
:1034e000040f7800a45980001e0f42001e027800cd
:1034f0000402d10024438800745980000402d100e2
:1035000014438800c085200087f30700b442800080
:10351000040f78001e027800e00f520002003d0008
:103520000002eb00040f78001e0278000402420043
:10353000040f780004d027009e027800848f520088
:103540000200360004d02700040f78000002eb00d0
:10355000245c88000002eb00145c88001e027800e6
:10356000345c880004438000040f78001e02780059
:10357000e00f520002003d000002eb00040f780053
:103580001e02780004024200040f780004d02700d5
:103590009e027800848f52000200360004d027007b
:1035a000040f78000002eb00545988000002eb0081
:1035b000445988001e02780064598800e0b1200058
:1035c00070fd070080b720006efd07000080fa0044
:1035d000000006000800fa00944180000500200069
:1035e000048fbe00b4418000050020001e0390003f
:1035f00004b3b900060378009e03780005b8b9004b
:1036000080037800070343009e03780004027800db
:103610000722b8000503430086027800048fbe002d
:10362000048fbe001e02be004a2bdd004622de00d3
:1036300004027300c62ade00048fbe001e02900042
:103640006d22b900040378001e0278006022b900e0
:1036500004027800040343009e027800d400200096
:10366000042ab8000503430086027800048fbe00d8
:10367000048fbe001e02be00452bdd004b22de0083
:1036800004027300cb2ade00048fbe00e4ff2f008b
:10369000050020001e03be00840f5300858f5b00d1
:1036a000030036000082eb00a441880002003700ce
:1036b0001e027800a44188001e02be00492bdd00d6
:1036c0004722de0004027300c72ade00048fbe001a
:1036d0009e027800f407200004826200240798000c
:1036e000a58320009542780044c4b30084cf5200e3
:1036f0000f003200a58320009542780044c3b30038
:1037000084cf52000a003200a58320009542780041
:1037100054c3b30084cf520005003200a5832000bb
:103720009542780084cab30084cf52000a003a0060
:103730002e02900084024200842b28000482420062
:10374000940278003507980042062000be009000e1
:1037500040ac2000bafc07000080fa000000060020
:103760000400fa007400200014c6880014178000ba
:1037700062026200e00f520037003200d6c2a90098
:10378000800c2000010020005819070021c0b30060
:103790000000eb00db1707000002be00048fbe0034
:1037a00004002000151121001e03be00840f5300e9
:1037b000858f5b0006003a000002eb00744288002f
:1037c000c4c280000402e800c4c2880002003700be
:1037d0001e02780074428800d6c2a800800c200027
:1037e0000100200041190700d6a2a900800c20008a
:1037f000010020003d19070021c0b3000000eb00cc
:10380000c01707000002be00048fbe0004002000a5
:10381000151121001e03be00840f5300858f5b002d
:1038200006003a000002eb0084428800c4c2800017
:103830000402e800c4c28800020037001e027800bb
:1038400084428800d6a2a800800c2000010020003d
:1038500026190700070037000002eb0084428800a9
:103860000002eb0074428800d4c280000402e80029
:10387000d4c28800e222a9000080fa0000000600fd
:103880000200fa006400200014c6880040cd200029
:103890002419070000027800040f7800e44180003a
:1038a0009e007800040078001304070000027800ee
:1038b000e441880040dd20001a190700000278006a
:1038c000040f7800f44180009e0078000400780026
:1038d0000904070000027800f441880035178000d1
:1038e0000400240004826200e00f520002003a004b
:1038f000f441800094408800400d21000919070020
:1039000000027800040f7800345580009e00780093
:1039100004007800f803070000027800345588009e
:10392000401d2100ff18070000027800040f7800f6
:10393000d45380009e00780004007800ee03070056
:1039400000027800d4538800403d2100f51807009c
:1039500000027800040f7800a45680009e007800d2
:1039600004007800e403070000027800a4568800f1
:10397000402d2100eb18070000027800040f7800aa
:10398000045880009e00780004007800da030700e5
:103990000002780004588800404d2100e11807001b
:1039a00000027800040f7800944880009e007800a0
:1039b00004007800d00307000002780094488800d3
:1039c000405d2100d718070000027800040f78003e
:1039d000344e80009e00780004007800c603070083
:1039e00000027800344e88000080fa0000000600d3
:1039f0000600fa00f4cf270004158800e4fd20003b
:103a00001415880064342e002415880034fe2e001e
:103a10003415880074002c004415880004fc230031
:103a200054158800a1e2a8000002eb00040f780002
:103a300080003700000000001515800004082000f9
:103a400004826200e00f5200fbff32000002eb0034
:103a50001407980034003700051480001e02780017
:103a60000403420044ed200004024300050a7800ec
:103a7000151480001e0278000403420044fd20005b
:103a800004024300050a7800251480001e02780015
:103a900004034200440d210004024300050a78009b
:103aa000351480001e02780004034200441d2100ea
:103ab00004024300050a7800451480001e027800c5
:103ac00004034200442d210004024300050a78004b
:103ad000551480001e02780004034200443d21007a
:103ae00004024300050a7800651480001e02780075
:103af00004034200444d210004024300050a7800fb
:103b0000751480001e02780004034200445d210009
:103b100004024300050a78001e0fe8001e02900010
:103b20000402e800140798001e029000e70f5200fc
:103b3000c9ff3600000000001515800004082000b1
:103b400004826200e00f5200fbff3a000002eb002b
:103b50001407980034003700851480001e02780096
:103b60000403420044ed200004024300050a7800eb
:103b7000951480001e0278000403420044fd2000da
:103b800004024300050a7800a51480001e02780094
:103b900004034200440d210004024300050a78009a
:103ba000b51480001e02780004034200441d210069
:103bb00004024300050a7800c51480001e02780044
:103bc00004034200442d210004024300050a78004a
:103bd000d51480001e02780004034200443d2100f9
:103be00004024300050a7800e51480001e027800f4
:103bf00004034200444d210004024300050a7800fa
:103c0000f51480001e02780004034200445d210088
:103c100004024300050a78001e0fe8001e0290000f
:103c20000402e800140798001e029000e70f5200fb
:103c3000c9ff3600f40720009e027800848f5200ee
:103c40007cff3600a1e2a90040ed200035180700f6
:103c500000027800240798002e0290007459880012
:103c600040fd20002f18070000027800240798006c
:103c70002e029000445c8800400d210029180700a6
:103c800000027800240798002e0290003455880026
:103c9000401d210023180700000278002407980027
:103ca0002e029000d4538800403d21001d180700cb
:103cb00000027800240798002e029000a456880085
:103cc000402d2100171807000002780024079800f3
:103cd0002e02900004588800404d21001118070062
:103ce00000027800240798002e0290009448880073
:103cf000405d21000b18070000027800240798009f
:103d00002e029000344e88000080fa000000060069
:103d10000600fa00f4cf270004158800e4fd200017
:103d20001415880064342e002415880034fe2e00fb
:103d30003415880074002c0044158800040320000a
:103d400054158800a1e2a8000002eb00040f7800df
:103d500086003700000000001515800004082000d0
:103d600004826200e00f5200fbff32000002eb0011
:103d70001407980037003700051480001e027800f1
:103d80000403420044cd200004024300050a7800e9
:103d9000151480001e0278000403420044dd200058
:103da00004024300050a78001e0fe8002514800075
:103db0001e0278000403420044cd200004024300a8
:103dc000050a7800351480001e02780004034200c2
:103dd00044dd200004024300050a78001e0fe800bd
:103de000451480001e0278000403420044cd2000e8
:103df00004024300050a7800551480001e02780072
:103e00000403420044dd200004024300050a780058
:103e10001e0fe800651480001e02780004034200b3
:103e200044cd200004024300050a78007514800088
:103e30001e0278000403420044dd20000402430017
:103e4000050a78001e0fe8001e0290000402e80038
:103e5000140798001e029000e30f5200c6ff3600c0
:103e60000000000015158000040820000482620094
:103e7000e00f5200fbff3a000002eb00140798002d
:103e800037003700851480001e02780004034200ca
:103e900044cd200004024300050a780095148000f8
:103ea0001e0278000403420044dd200004024300a7
:103eb000050a78001e0fe800a51480001e02780095
:103ec0000403420044cd200004024300050a7800a8
:103ed000b51480001e0278000403420044dd200077
:103ee00004024300050a78001e0fe800c514800094
:103ef0001e0278000403420044cd20000402430067
:103f0000050a7800d51480001e02780004034200e0
:103f100044dd200004024300050a78001e0fe8007b
:103f2000e51480001e0278000403420044cd200006
:103f300004024300050a7800f51480001e02780090
:103f40000403420044dd200004024300050a780017
:103f50001e0fe8001e0290000402e80014079800fb
:103f60001e029000e30f5200c6ff3600f407200047
:103f70009e027800848f520076ff3600a1e2a900ed
:103f800040cd200067170700000278002407980042
:103f90002e029000e441880040dd200061170700f8
:103fa00000027800240798002e029000f441880057
:103fb0000080fa00000006000400fa00940280006d
:103fc000040f7800ff3ffc00140280000450a000a2
:103fd0000460a0000470a000140288001e02780093
:103fe000940288000000880000000000000000002b
:103ff00000000000000000008c60a9008e00a900f5
:104000009402800014079800ff3ffc001402800017
:104010000450a1000460a1000470a10014028800f3
:104020001e02900094028800000088000300070030
:10403000c522a8000080fa00000006000200fa0075
:10404000c48a2100040f78001e0278001402780050
:1040500094c088001e8fe8001e02780014027800c9
:1040600084c088001e8fe8001e02780014027800c9
:1040700074c088001e8fe8001e02780014027800c9
:1040800064c08800a48b2100040f78001e02780011
:1040900014027800b4c088001e8fe8001e02780069
:1040a00014027800a4c08800053b800004002800aa
:1040b00004826200e00f5200fbff3a0044c080001f
:1040c00055c08000020220000400be00d5f00700a9
:1040d000053b80000400280004826200e00f5200cb
:1040e000fbff3a0044c0800055c08000c280210020
:1040f0000400be00eaf007000080fa00000006009d
:104100000000fa005c0007004f000700560007009f
:10411000420620008000eb002090200048fa0700b3
:10412000420620008000eb002090200044fa0700a7
:10413000420620008000eb0040ac200040fa07005f
:10414000420620008000eb00a0a620003cfa0700f9
:10415000420620008000eb0080b7200038fa0700fc
:10416000420620008000eb00e0b1200034fa070096
:104170002085200088f00700c085200086f0070019
:1041800005e1a9008e00a9008c60a9008600a900a5
:104190008460a900c4c2a9000080fa0000000600e3
:1041a0000000fa003400070005e1a9008e00a90014
:1041b0008c60a9008600a9008460a900c4c2a9007f
:1041c0000080fa00000006000000fa0020852000b0
:1041d00071f00700c08520006ff007004206200044
:1041e0008000eb00a0a6200015fa07004206200080
:1041f0008000eb0040ac200011fa070042062000ce
:104200008000eb00e0b120000dfa0700420620001c
:104210008000eb0080b7200009fa07000e000700bd
:10422000050007000002eb003408880084c0a900e4
:104230000080fa00000006000000fa00d702a80083
:104240000080fa00000006000000fa00d702a90072
:104250000080fa00000006000000fa00d722a90042
:104260000080fa00000006000000fa00d722a80033
:104270000080fa00000006000000fa00d762a900e2
:10428000d602a8000080fa00000006000400fa0030
:104290000002eb00040f78000002eb001407980006
:1042a0005400200014c68800a583200095427800a1
:1042b00044c3b30084cf52000f003200a583200016
:1042c0009542780044c4b30084cf52000a00320003
:1042d000a58320009542780084cab30084cf5200a1
:1042e00005003200a58320009542780054c3b30036
:1042f00084cf520005003a009e029000f4f72f0090
:104300000482620014079800040037009e029000a7
:10431000040820000482720014079800e4c380009f
:10432000e00f5200040032001e0290000400a000c2
:1043300014079800040037009e029000e4ff2f004d
:104340000482620014079800b4c38000e00f52009a
:10435000020032001e20a00002003700b4ff2f0030
:104360001e0f620055c3800004f02f00048262001b
:10437000e00f5200040032001e0290000440a00032
:1043800014079800040037009e029000f4fe2f00ee
:10439000048262001407980055c38000f40f2000c7
:1043a00004826200e00f5200040032001e029000fe
:1043b0000410a00014079800040037009e0290002b
:1043c000d4ff2f00048262001407980085c3800088
:1043d00004f02f0004826200e00f5200020032005d
:1043e0001e00a00002003700e4ff2f001e0f620035
:1043f00085c38000f40f200004826200e00f5200a9
:10440000020032001e10a00002003700d4ff2f006f
:104410001e0f6200a58320009542780044c4b300bb
:1044200084cf520004003a001e0290000420a00035
:1044300014079800040037009e029000b4ff2f007c
:104440000482620014079800e48f20001442780070
:104450000482fb009e0f5200100032001e02780002
:104460000442780004407800fee8b700e48f2000a2
:10447000144278000441780041c1b300608f2000ed
:104480002c15070000027800e00f520003003200f4
:10449000a4c280000402e800a4c28800f48f2000b7
:1044a000144278008482fb001e029000848f520028
:1044b000100032001e029000044278000440780090
:1044c000ffe8b700f48f2000144278000441780020
:1044d00051c1b300608f200016150700000278005c
:1044e000e00f520003003200a4c280000402e80082
:1044f000a4c288000080fa00000006000000fa0054
:10450000151680000400220004826200e00f5200b1
:10451000050032000042eb0004407800d6f6b700f8
:10452000cbc2a9000400370014c0b30004407800d7
:10453000d6f6b700cbc2a800d762a800d602a90061
:1045400005e1a9000002eb00040888008460a900ce
:104550008c60a800741720001408880005e1a800ea
:104560000002eb003408880084c0a9000080fa0033
:10457000000006000a00fa00300798004107980082
:104580003e029000050020001407980025079800bf
:104590001e029000ae029000c022dd000400200048
:1045a00014079800250798004e029000050020008f
:1045b0000401be001e009000ae009000dcef07007a
:1045c0000002be0014079800250798001e02900004
:1045d000ae0290004d2bdd004322de00040273008a
:1045e000c32ade0014079800250798001e039000d8
:1045f000ae03900004002000f5ff2f0006007800b5
:104600000703780084037800050278000700600043
:104610000402630005002000c022dd000400200029
:104620000403be006102b8000403730085837300b5
:10463000e00f5300e08f5b00030032000082eb00cc
:10464000040f7800020037001e029000040f78006b
:104650001e027800040078000080fa0000000600c6
:104660000800fa0020079800310798002e029000f9
:1046700005002000048fbe003e02900005002000cf
:104680001e03900004b3b900060378009e0378006f
:1046900005b8b90080037800070343009e03780043
:1046a000040278000722b800050343008602780060
:1046b000048fbe00048fbe001e02be00432bdd002f
:1046c0004d22de0004027300cd2ade00048fbe00fe
:1046d000f4ff2f00050020001e03be00840f5300ce
:1046e000858f5b0006003600f4ff2f0005002000d8
:1046f000048fbe0004c380000402e80004c38800e5
:104700001e027800240798002e0290000400780012
:104710000080fa00000006000a00fa003007980046
:10472000410798003e029000e00f520002003a005c
:104730004e029000340798003e02900005002000d1
:104740001407980025079800ae029000f40f20008f
:1047500004aab900040378001e0290006022b90088
:1047600004027800040343009e029000f40f20002e
:10477000042ab80005034300860278001407980055
:104780002507980014079800250798004e0290000e
:10479000050020001e039000ae03900006024200b8
:1047a00087824a0014079800250798001e0290008f
:1047b000ae029000482bdd004822de0004027300a8
:1047c000c82ade0014079800250798001e029000f2
:1047d000040f78004e0290009e0f52000200360037
:1047e0001e0fe800040037004e0290009e0f52009a
:1047f000010031001e0fe9001e027800040078005d
:104800000080fa00000006000a00fa003007980055
:10481000410798003e029000e00f520002003a006b
:104820004e029000340798003e02900005002000e0
:104830001407980025079800ae029000f4032000aa
:1048400004aab900040378001e0290006022b90097
:1048500004027800040343009e029000f403200049
:10486000042ab80005034300860278001407980064
:104870002507980014079800250798004e0290001d
:10488000050020001e039000ae03900006024200c7
:1048900087824a0014079800250798001e0290009e
:1048a000ae0290004a2bdd004622de0004027300b7
:1048b000c62ade0014079800250798001e02900003
:1048c000040f78004e0290009e0f52000200360046
:1048d0001e0fe800040037004e0290009e0f5200a9
:1048e000010031001e0fe9001e027800040078006c
:1048f0000080fa00000006000a00fa003007980065
:10490000410798003e029000e00f520002003a007a
:104910004e029000340798003e02900005002000ef
:1049200014079800250798002e0290006f22b90006
:10493000040378001e0290006022b900040278008f
:10494000040343009e029000f4002000042ab800f3
:104950000503430086027800140798002507980095
:1049600014079800250798004e02900005002000cb
:104970001e039000ae0390000602420087824a00a8
:1049800014079800250798001e029000ae029000c0
:104990004c2bdd004422de0004027300c42ade003a
:1049a00014079800250798001e029000040f780055
:1049b0004e0290009e0f5200020036001e0fe800cb
:1049c000040037004e0290009e0f5200010031009b
:1049d0001e0fe9001e027800040078000080fa0033
:1049e0000000060000a0fe00849fbe000000fa0048
:1049f000d602a80000000000000000000000000037
:104a000000000000e222a8008600a9008e00a90094
:104a10004400200014c6880005e1a9000002eb0054
:104a20000408880084002000140888008c60a90015
:104a30008460a90005e1a8000002eb004441880061
:104a40000000000004088000e10f5200fdff360066
:104a5000151680000400210004826200e00f52005d
:104a600003003a0014002000444188000100370090
:104a70000000000004088000e20f5200fdff360035
:104a8000151680000400210004826200e00f52002d
:104a900003003a0014002000444188000100370060
:104aa0000000000004088000e20f5200fdff360005
:104ab000151680000400210004826200e00f5200fd
:104ac00002003a0014002000444188000002eb007c
:104ad00064408800a416800070026200e00f52005b
:104ae00005003200a5168000040820000482620040
:104af000e00f5200020032001400200064408800e1
:104b0000e822a9000000000024048000680262007e
:104b1000e00f5200fcff3200151680000400220056
:104b200004826200e00f5200050032000042eb00f8
:104b300004407800d7f6b700cbc2a90004003700c4
:104b400014c0b30004407800d7f6b700cbc2a80069
:104b5000c4c2a900d602a90005e1a9000002eb0029
:104b6000040888008460a9008c60a800e416200076
:104b70001408880005e1a80000000000a4168000c9
:104b800070026200e00f520004003a000408800046
:104b9000f30f5200f9ff360001003700000000005b
:104ba000a51680000408200004826200e00f520075
:104bb0000300320004088000f30f5200f8ff3600b3
:104bc00004088000f30f52000300360024c3800065
:104bd0000402e80024c38800e822a800a41680008c
:104be00085e0a900446d210014427800e04f520096
:104bf00003003200d4c480000402e800d4c488005a
:104c000014c0b30004407800d4f6b70014c0b30059
:104c100004407800d5f6b7000080fa004f02be00cd
:104c20000080fe00004006003600f800809fbe00b5
:104c3000829fbe00849fbe00869fbe000200fa00d5
:104c40003400200014c688008460a9008c60a9008c
:104c500005e1a9000042eb00044f7800a416800093
:104c600064026200e00f52001e0032004006200085
:104c7000010020001d140700a416800064026200d9
:104c8000e00f520017003200400620000100200013
:104c900016140700a416800064026200e00f5200a0
:104ca0001000320040062000010020000f14070011
:104cb000a416800064026200e00f52000900320076
:104cc000400620000100200008140700a416800000
:104cd00064026200e00f5200020032000020200057
:104ce000f30c0700c4c2a8008600a9008e00a8002b
:104cf0000080fa004f03be004f02be004f01be000d
:104d00004f00be003600f90000400600801f78000a
:104d1000849fbe00861f78000000fa00a042a90010
:104d20008560a9001517800004022000048262003b
:104d3000e00f520002003200e2a2a9000100370099
:104d4000e2a2a8001400200014c68800546d2100bf
:104d500014427800e04f5200040032000042eb00a1
:104d600004407800d5f6b7006200370024bd20006b
:104d7000144278000482fb00051480000403420002
:104d800044bd200004024300050a780024bd200031
:104d9000144278000482fb001514800004034200d2
:104da00044cd200004024300050a780024bd200001
:104db000144278000482fb002514800004034200a2
:104dc00044dd200004024300050a780024bd2000d1
:104dd000144278000482fb00351480000403420072
:104de00044ed200004024300050a780024bd2000a1
:104df000144278000482fb00451480000403420042
:104e000044fd200004024300050a780024bd200070
:104e1000144278000482fb00551480000403420011
:104e2000440d210004024300050a780024bd20003f
:104e3000144278000482fb006514800004034200e1
:104e4000441d210004024300050a780024bd20000f
:104e5000144278000482fb007514800004034200b1
:104e6000443d210004024300050a780024bd2000cf
:104e7000144278000482fb00851480000403420081
:104e8000442d210004024300050a780024bd2000bf
:104e9000144278000482fb00951480000403420051
:104ea000444d210004024300050a780024bd20007f
:104eb000144278000482fb00a51480000403420021
:104ec000445d210004024300050a780024bd20004f
:104ed000144278000442e80004407800d2ebb700a6
:104ee00024bd2000144278000474a100044078001e
:104ef000d2ebb700a042a8000080fa004f03780070
:104f00004f02be004f007800004006003600f80057
:104f1000809fbe00829fbe00849fbe00869fbe0011
:104f20000000fa00a5168000040820000482620038
:104f3000e00f520012003a0040062000010020005d
:104f40006a130700a516800004082000048262008e
:104f5000e00f52000a003a00400620000100200045
:104f600062130700a5168000040820000482620076
:104f7000e00f520002003a0000402000680c0700d9
:104f800085e0a9000080fa004f03be004f02be007a
:104f90004f01be004f00be003600f9000040060081
:104fa000841f78000000fa002400200014c6880046
:104fb0008940a900f4c480000402e800f4c4880019
:104fc0000080fa004f02780000400600841f78003d
:104fd0000000fa00d400200014c68800143a8000b3
:104fe00024c6880000000000000000000000fe0051
:104ff0000080fa004f02780000400600841f78000d
:105000000000fa00e400200014c688000000000040
:10501000000000000000fe000080fa004f0278004f
:1050200000400600841f78000000fa00f400200011
:1050300014c6880000000000000000000000fe0010
:105040000080fa004f02780000400600841f7800bc
:105050000000fa000401200014c6880000000000cf
:10506000000000000000fe000080fa004f027800ff
:1050700000400600841f78000000fa00c4ab2f0037
:1050800014c6880000000000000000000000fe00c0
:105090000080fa004f027800004006000c00fa0081
:1050a000500798005e02900005002000048fbe00ab
:1050b0005e029000050020001e03900004b3b900ba
:1050c000060378009e03780005b8b90080037800d5
:1050d000070343009e037800040278000722b8000b
:1050e0000503430086027800048fbe00048fbe00d3
:1050f0001e02be00422bdd004e22de0004027300c1
:10510000ceaade00048fbe0084c18000cfa2de00e4
:105110001e03900004b3b900060378009e037800d4
:1051200005b8b90080037800070343009e037800a8
:10513000040278000722b8000503430086027800c5
:10514000048fbe00048fbe001e02be00c62bdd0011
:105150004a22de0004827300caaade00048fbe0069
:105160001e02be0024079800350798005e029000da
:1051700005002000048fbe0094c18000cfa2de0095
:105180001e03900004b3b900060378009e03780064
:1051900005b8b90080037800070343009e03780038
:1051a000040278000722b800050343008602780055
:1051b000048fbe00048fbe001e02be00462bdd0021
:1051c0004a22de0004027300caaade00048fbe0079
:1051d0002e029000be0290003e034200ae834a00c1
:1051e0000602be002407980035079800a4c180007d
:1051f000cfa2de00048fbe001e03be00423add00d7
:10520000ce32de00850272004232dd00048fbe0025
:105210002e029000be0290003e034200ae834a0080
:105220000602be002407980035079800ae039000e0
:10523000470798004e029000040078000080fa00b2
:10524000000006000000fa00741080006202620094
:10525000e00f5200010032000e22a900848b2100d1
:1052600014427800e24f52000100320007000700ac
:10527000848b210014427800e24f520001003a0072
:10528000010107000080fa00000006000400fa0097
:10529000881f78003e003700608620003c1207001f
:1052a00000427800044f78001e427800ef4f420021
:1052b00037003a006086200035120700004278006f
:1052c000044f78001e427800ee4f420030003a0052
:1052d000608620002e12070000427800044f7800fc
:1052e0001e427800ed4f420029003a0060862000ff
:1052f000271207000042780004407800b4f8b70095
:1053000060862000221207000042780004407800e6
:10531000b6f8b700608620001d1207000042780032
:1053200004407800b7f8b700608620001812070024
:105330000042780004407800b5f8b700608620008d
:1053400013120700004278000482fb001407980043
:105350001e0290004824dd00608620000c12070029
:10536000004278000482fb00040244001407980005
:105370001e009000fb06070000427800e04f52003c
:105380000300320024c0b30004407800b8f8b7002e
:10539000848b210014427800e04f520005003a004f
:1053a000608620001812070000427800e84f520083
:1053b000b9ff3e004f0478000080fa0000000600ac
:1053c0000000fa00948b210014427800e04f520054
:1053d00067003200e1cfb300808a2000c7110700c8
:1053e00011cfb300808a2000c411070074408000f0
:1053f00085408000482bdd004822de000402730057
:10540000c82ade000442780084407800808a2000a8
:10541000ba11070074408000854080000442780083
:1054200084407800808a2000b4110700c4408000c6
:105430004822de000442780084407800808a200000
:10544000ae110700c4408000044278008440780018
:10545000808a2000a9110700e44080004822de0075
:105460000442780084407800808a2000a31107005d
:10547000e44080000442780084407800808a200064
:105480009e1107000441800048a2de00044278001b
:1054900084407800808a2000981107000441800031
:1054a0000442780084407800808a2000931107002d
:1054b0001441800048a2de00044278008440780055
:1054c000808a20008d11070014418000044278007a
:1054d00084407800808a20008811070034418000d1
:1054e0004822de000442780084407800808a200050
:1054f0008211070034418000044278008440780023
:10550000808a20007d110700744280004822de005e
:105510000442780084407800808a200077110700d8
:10552000744280000442780084407800808a200021
:1055300072110700751080000420200004826200b0
:10554000e00f52000a003a00808a2000b9110700db
:1055500000427800e04f520005003200808a2000af
:105560008b110700004278000482fb008410880041
:105570000080fa00000006000600fa0020479800ac
:105580003147980022079800948b2100144278003c
:10559000e04f52003a003a002e019000be409000c9
:1055a0002e4090005806070000027800040f780093
:1055b00011cfb300808a20005011070021cfb30023
:1055c000808a20004d11070041cfb300808a20005f
:1055d0004a110700ae409000808a20004711070062
:1055e0002e0290004822de000442780084407800b9
:1055f000808a2000411107002e02900004427800aa
:1056000084407800808a20003c110700be40900052
:10561000808a2000391107001e0278004822de002f
:105620000442780084407800808a2000331107000b
:105630001e0278000442780084407800808a2000ae
:105640002e110700751080000420200004826200e3
:10565000e00f52000a003a00808a2000751107000e
:1056600000427800e04f520005003200808a20009e
:1056700047110700004278000482fb008410880074
:105680000080fa00000006000a00fa00648b210086
:10569000144278000482fb00140798001e02900058
:1056a0004822dd0014079800748b21001442780012
:1056b0000482fb009e0290000482420014079800be
:1056c0001e009000000f7800448b210014427800e7
:1056d0000482fb0024079800448b210014427800c8
:1056e0000482fb006123b90004ff2f00f5ff2f00a7
:1056f0000602420087824a00a60d20000700200013
:10570000860f5200878f5a0066033e000460010036
:10571000da003700dd00370062033700610337002d
:10572000600337005f0337005e0337005d03370017
:105730005c0337005b0337005a0337005903370017
:105740005803370057033700560337005503370017
:105750005403370053033700520337005103370017
:10576000500337004f0337004e0337004d03370017
:105770004c0337004b0337004a033700c70037009c
:105780001403370047033700ef02370045033700a3
:10579000e900370043033700420337004103370075
:1057a000400337003f0337003e0337003d03370017
:1057b0003c0337003b0337003a0337003903370017
:1057c0003803370037033700360337003503370017
:1057d0002303370033033700320337003103370028
:1057e000300337002f0337002e0337002d03370017
:1057f0002c0337002b0337002a0337002903370017
:105800002803370027033700260337002503370016
:10581000d1003700dc003700fa00370018013700ec
:1058200030013700480137001e0337001d033700e1
:105830001c0337001b0337001a0337001903370016
:105840001803370017033700160337001503370016
:105850001403370013033700120337001103370016
:10586000100337000f0337000e0337000d03370016
:105870000c0337000b0337000a0337000903370016
:105880000803370007033700060337000503370016
:105890000403370003033700020337000103370016
:1058a00000033700ff023700fe023700fd02370019
:1058b000fc023700fb023700fa023700f90237001a
:1058c000f8023700f7023700f6023700f50237001a
:1058d000f4023700f3023700f2023700f10237001a
:1058e000f0023700ef023700ee023700ed0237001a
:1058f000ec023700eb023700ea023700e90237001a
:10590000e8023700e7023700e6023700e502370019
:10591000e4023700e3023700e2023700e102370019
:10592000e0023700df023700de023700dd02370019
:10593000dc023700db023700da023700d902370019
:10594000d8023700d7023700d6023700d502370019
:10595000d402370015013700d2023700d1023700d8
:10596000d0023700cf023700ce023700cd02370019
:10597000cc023700cb023700ca023700c902370019
:10598000c8023700c7023700c6023700c502370019
:10599000c4023700c3023700c2023700c102370019
:1059a000c0023700bf023700be023700bd02370019
:1059b000bc023700bb023700ba023700b902370019
:1059c000b8023700b7023700b6023700b502370019
:1059d000b4023700b3023700b2023700b102370019
:1059e000b0023700af023700ae023700ad02370019
:1059f000ac023700ab023700aa023700a902370019
:105a0000a8023700a7023700a6023700a502370018
:105a1000ee003700f6003700fe00370012013700b5
:105a20001a01370022013700360137003e013700e6
:105a3000460137005a013700620137006a0137001a
:105a40007e013700860137008e013700a201370042
:105a5000aa013700b2013700c6013700ce01370076
:105a6000d6013700ea013700f2013700fa013700aa
:105a70000e023700160237001e0237000042eb000c
:105a8000044078002ae8b7008602370014c0b3004b
:105a9000044078002ae8b70082023700a482200080
:105aa00014427800e04f52007b0232001e02900048
:105ab000340798003e0090008a0507000002780035
